{
	"src/_Recommend.sol": {
		"_Recommend": {
			"abi": [
				{
					"inputs": [],
					"stateMutability": "nonpayable",
					"type": "constructor"
				},
				{
					"inputs": [
						{
							"internalType": "address",
							"name": "owner",
							"type": "address"
						}
					],
					"name": "OwnableInvalidOwner",
					"type": "error"
				},
				{
					"inputs": [
						{
							"internalType": "address",
							"name": "account",
							"type": "address"
						}
					],
					"name": "OwnableUnauthorizedAccount",
					"type": "error"
				},
				{
					"inputs": [],
					"name": "Reentrancy",
					"type": "error"
				},
				{
					"inputs": [],
					"name": "_CallerNotEOA",
					"type": "error"
				},
				{
					"inputs": [],
					"name": "_IllegalValue",
					"type": "error"
				},
				{
					"inputs": [],
					"name": "_NoTokensToClaim",
					"type": "error"
				},
				{
					"inputs": [],
					"name": "_NotSufficientFund",
					"type": "error"
				},
				{
					"anonymous": false,
					"inputs": [
						{
							"indexed": true,
							"internalType": "address",
							"name": "previousOwner",
							"type": "address"
						},
						{
							"indexed": true,
							"internalType": "address",
							"name": "newOwner",
							"type": "address"
						}
					],
					"name": "OwnershipTransferred",
					"type": "event"
				},
				{
					"anonymous": false,
					"inputs": [
						{
							"indexed": true,
							"internalType": "address",
							"name": "user",
							"type": "address"
						},
						{
							"indexed": false,
							"internalType": "uint256",
							"name": "amount",
							"type": "uint256"
						}
					],
					"name": "TokensClaimed",
					"type": "event"
				},
				{
					"anonymous": false,
					"inputs": [
						{
							"indexed": true,
							"internalType": "address",
							"name": "user",
							"type": "address"
						},
						{
							"indexed": false,
							"internalType": "uint256",
							"name": "amount",
							"type": "uint256"
						}
					],
					"name": "TokensSet",
					"type": "event"
				},
				{
					"inputs": [
						{
							"internalType": "address",
							"name": "",
							"type": "address"
						}
					],
					"name": "alreadyClaimed",
					"outputs": [
						{
							"internalType": "uint256",
							"name": "",
							"type": "uint256"
						}
					],
					"stateMutability": "view",
					"type": "function"
				},
				{
					"inputs": [],
					"name": "claimTokens",
					"outputs": [],
					"stateMutability": "nonpayable",
					"type": "function"
				},
				{
					"inputs": [
						{
							"internalType": "address",
							"name": "",
							"type": "address"
						}
					],
					"name": "claimableTokens",
					"outputs": [
						{
							"internalType": "uint256",
							"name": "",
							"type": "uint256"
						}
					],
					"stateMutability": "view",
					"type": "function"
				},
				{
					"inputs": [
						{
							"internalType": "address",
							"name": "",
							"type": "address"
						}
					],
					"name": "obtainedAmount",
					"outputs": [
						{
							"internalType": "uint256",
							"name": "",
							"type": "uint256"
						}
					],
					"stateMutability": "view",
					"type": "function"
				},
				{
					"inputs": [],
					"name": "owner",
					"outputs": [
						{
							"internalType": "address",
							"name": "",
							"type": "address"
						}
					],
					"stateMutability": "view",
					"type": "function"
				},
				{
					"inputs": [],
					"name": "recommendAmount",
					"outputs": [
						{
							"internalType": "uint256",
							"name": "",
							"type": "uint256"
						}
					],
					"stateMutability": "view",
					"type": "function"
				},
				{
					"inputs": [],
					"name": "renounceOwnership",
					"outputs": [],
					"stateMutability": "nonpayable",
					"type": "function"
				},
				{
					"inputs": [
						{
							"internalType": "address",
							"name": "to",
							"type": "address"
						},
						{
							"internalType": "uint256",
							"name": "value",
							"type": "uint256"
						}
					],
					"name": "rescueETH",
					"outputs": [],
					"stateMutability": "nonpayable",
					"type": "function"
				},
				{
					"inputs": [
						{
							"internalType": "address",
							"name": "referrer",
							"type": "address"
						},
						{
							"internalType": "uint256",
							"name": "amount",
							"type": "uint256"
						}
					],
					"name": "setClaimableTokens",
					"outputs": [],
					"stateMutability": "payable",
					"type": "function"
				},
				{
					"inputs": [
						{
							"internalType": "uint256",
							"name": "_recommendAmount",
							"type": "uint256"
						}
					],
					"name": "setRecommendAmount",
					"outputs": [],
					"stateMutability": "nonpayable",
					"type": "function"
				},
				{
					"inputs": [
						{
							"internalType": "address",
							"name": "newOwner",
							"type": "address"
						}
					],
					"name": "transferOwnership",
					"outputs": [],
					"stateMutability": "nonpayable",
					"type": "function"
				},
				{
					"stateMutability": "payable",
					"type": "receive"
				}
			],
			"devdoc": {
				"details": "A contract that recommends relevant features.",
				"errors": {
					"OwnableInvalidOwner(address)": [
						{
							"details": "The owner is not a valid owner account. (eg. `address(0)`)"
						}
					],
					"OwnableUnauthorizedAccount(address)": [
						{
							"details": "The caller account is not authorized to perform an operation."
						}
					],
					"Reentrancy()": [
						{
							"details": "Unauthorized reentrant call."
						}
					]
				},
				"kind": "dev",
				"methods": {
					"claimTokens()": {
						"details": "Has been recorded can claim the corresponding referral reward."
					},
					"owner()": {
						"details": "Returns the address of the current owner."
					},
					"renounceOwnership()": {
						"details": "Leaves the contract without owner. It will not be possible to call `onlyOwner` functions. Can only be called by the current owner. NOTE: Renouncing ownership will leave the contract without an owner, thereby disabling any functionality that is only available to the owner."
					},
					"setClaimableTokens(address,uint256)": {
						"details": "Only bond contracts can set a record of tokens that can be claimed.",
						"params": {
							"amount": "The quantity that can be claimed.",
							"referrer": "The referrer."
						}
					},
					"setRecommendAmount(uint256)": {
						"details": "The referrer's algebra.",
						"params": {
							"_recommendAmount": "The reward is returned to the superior algebra."
						}
					},
					"transferOwnership(address)": {
						"details": "Transfers ownership of the contract to a new account (`newOwner`). Can only be called by the current owner."
					}
				},
				"title": "_Recommend.",
				"version": 1
			},
			"evm": {
				"assembly": "    /* \"src/_Recommend.sol\":405:2497  contract _Recommend is Ownable, ReentrancyGuard {... */\n  mstore(0x40, 0x80)\n    /* \"src/_Recommend.sol\":784:785  2 */\n  0x02\n    /* \"src/_Recommend.sol\":751:785  uint256 public recommendAmount = 2 */\n  0x04\n  sstore\n    /* \"src/_Recommend.sol\":920:956  constructor() Ownable(msg.sender) {} */\n  callvalue\n  dup1\n  iszero\n  tag_1\n  jumpi\n  0x00\n  dup1\n  revert\ntag_1:\n  pop\n    /* \"src/_Recommend.sol\":942:952  msg.sender */\n  caller\n    /* \"lib/openzeppelin-contracts/contracts/access/Ownable.sol\":1296:1297  0 */\n  0x00\n    /* \"lib/openzeppelin-contracts/contracts/access/Ownable.sol\":1272:1298  initialOwner == address(0) */\n  0xffffffffffffffffffffffffffffffffffffffff\n  and\n    /* \"lib/openzeppelin-contracts/contracts/access/Ownable.sol\":1272:1284  initialOwner */\n  dup2\n    /* \"lib/openzeppelin-contracts/contracts/access/Ownable.sol\":1272:1298  initialOwner == address(0) */\n  0xffffffffffffffffffffffffffffffffffffffff\n  and\n  sub\n    /* \"lib/openzeppelin-contracts/contracts/access/Ownable.sol\":1268:1363  if (initialOwner == address(0)) {... */\n  tag_5\n  jumpi\n    /* \"lib/openzeppelin-contracts/contracts/access/Ownable.sol\":1349:1350  0 */\n  0x00\n    /* \"lib/openzeppelin-contracts/contracts/access/Ownable.sol\":1321:1352  OwnableInvalidOwner(address(0)) */\n  mload(0x40)\n  0x1e4fbdf700000000000000000000000000000000000000000000000000000000\n  dup2\n  mstore\n  0x04\n  add\n  tag_6\n  swap2\n  swap1\n  tag_7\n  jump\t// in\ntag_6:\n  mload(0x40)\n  dup1\n  swap2\n  sub\n  swap1\n  revert\n    /* \"lib/openzeppelin-contracts/contracts/access/Ownable.sol\":1268:1363  if (initialOwner == address(0)) {... */\ntag_5:\n    /* \"lib/openzeppelin-contracts/contracts/access/Ownable.sol\":1372:1404  _transferOwnership(initialOwner) */\n  tag_8\n    /* \"lib/openzeppelin-contracts/contracts/access/Ownable.sol\":1391:1403  initialOwner */\n  dup2\n    /* \"lib/openzeppelin-contracts/contracts/access/Ownable.sol\":1372:1390  _transferOwnership */\n  shl(0x20, tag_9)\n    /* \"lib/openzeppelin-contracts/contracts/access/Ownable.sol\":1372:1404  _transferOwnership(initialOwner) */\n  0x20\n  shr\n  jump\t// in\ntag_8:\n    /* \"lib/openzeppelin-contracts/contracts/access/Ownable.sol\":1224:1411  constructor(address initialOwner) {... */\n  pop\n    /* \"src/_Recommend.sol\":405:2497  contract _Recommend is Ownable, ReentrancyGuard {... */\n  jump(tag_11)\n    /* \"lib/openzeppelin-contracts/contracts/access/Ownable.sol\":2911:3098  function _transferOwnership(address newOwner) internal virtual {... */\ntag_9:\n    /* \"lib/openzeppelin-contracts/contracts/access/Ownable.sol\":2984:3000  address oldOwner */\n  0x00\n    /* \"lib/openzeppelin-contracts/contracts/access/Ownable.sol\":3003:3009  _owner */\n  dup1\n  0x00\n  swap1\n  sload\n  swap1\n  0x0100\n  exp\n  swap1\n  div\n  0xffffffffffffffffffffffffffffffffffffffff\n  and\n    /* \"lib/openzeppelin-contracts/contracts/access/Ownable.sol\":2984:3009  address oldOwner = _owner */\n  swap1\n  pop\n    /* \"lib/openzeppelin-contracts/contracts/access/Ownable.sol\":3028:3036  newOwner */\n  dup2\n    /* \"lib/openzeppelin-contracts/contracts/access/Ownable.sol\":3019:3025  _owner */\n  0x00\n  dup1\n    /* \"lib/openzeppelin-contracts/contracts/access/Ownable.sol\":3019:3036  _owner = newOwner */\n  0x0100\n  exp\n  dup2\n  sload\n  dup2\n  0xffffffffffffffffffffffffffffffffffffffff\n  mul\n  not\n  and\n  swap1\n  dup4\n  0xffffffffffffffffffffffffffffffffffffffff\n  and\n  mul\n  or\n  swap1\n  sstore\n  pop\n    /* \"lib/openzeppelin-contracts/contracts/access/Ownable.sol\":3082:3090  newOwner */\n  dup2\n    /* \"lib/openzeppelin-contracts/contracts/access/Ownable.sol\":3051:3091  OwnershipTransferred(oldOwner, newOwner) */\n  0xffffffffffffffffffffffffffffffffffffffff\n  and\n    /* \"lib/openzeppelin-contracts/contracts/access/Ownable.sol\":3072:3080  oldOwner */\n  dup2\n    /* \"lib/openzeppelin-contracts/contracts/access/Ownable.sol\":3051:3091  OwnershipTransferred(oldOwner, newOwner) */\n  0xffffffffffffffffffffffffffffffffffffffff\n  and\n  0x8be0079c531659141344cd1fd0a4f28419497f9722a3daafe3b4186f6b6457e0\n  mload(0x40)\n  mload(0x40)\n  dup1\n  swap2\n  sub\n  swap1\n  log3\n    /* \"lib/openzeppelin-contracts/contracts/access/Ownable.sol\":2974:3098  {... */\n  pop\n    /* \"lib/openzeppelin-contracts/contracts/access/Ownable.sol\":2911:3098  function _transferOwnership(address newOwner) internal virtual {... */\n  pop\n  jump\t// out\n    /* \"#utility.yul\":7:133   */\ntag_13:\n    /* \"#utility.yul\":44:51   */\n  0x00\n    /* \"#utility.yul\":84:126   */\n  0xffffffffffffffffffffffffffffffffffffffff\n    /* \"#utility.yul\":77:82   */\n  dup3\n    /* \"#utility.yul\":73:127   */\n  and\n    /* \"#utility.yul\":62:127   */\n  swap1\n  pop\n    /* \"#utility.yul\":7:133   */\n  swap2\n  swap1\n  pop\n  jump\t// out\n    /* \"#utility.yul\":139:235   */\ntag_14:\n    /* \"#utility.yul\":176:183   */\n  0x00\n    /* \"#utility.yul\":205:229   */\n  tag_19\n    /* \"#utility.yul\":223:228   */\n  dup3\n    /* \"#utility.yul\":205:229   */\n  tag_13\n  jump\t// in\ntag_19:\n    /* \"#utility.yul\":194:229   */\n  swap1\n  pop\n    /* \"#utility.yul\":139:235   */\n  swap2\n  swap1\n  pop\n  jump\t// out\n    /* \"#utility.yul\":241:359   */\ntag_15:\n    /* \"#utility.yul\":328:352   */\n  tag_21\n    /* \"#utility.yul\":346:351   */\n  dup2\n    /* \"#utility.yul\":328:352   */\n  tag_14\n  jump\t// in\ntag_21:\n    /* \"#utility.yul\":323:326   */\n  dup3\n    /* \"#utility.yul\":316:353   */\n  mstore\n    /* \"#utility.yul\":241:359   */\n  pop\n  pop\n  jump\t// out\n    /* \"#utility.yul\":365:587   */\ntag_7:\n    /* \"#utility.yul\":458:462   */\n  0x00\n    /* \"#utility.yul\":496:498   */\n  0x20\n    /* \"#utility.yul\":485:494   */\n  dup3\n    /* \"#utility.yul\":481:499   */\n  add\n    /* \"#utility.yul\":473:499   */\n  swap1\n  pop\n    /* \"#utility.yul\":509:580   */\n  tag_23\n    /* \"#utility.yul\":577:578   */\n  0x00\n    /* \"#utility.yul\":566:575   */\n  dup4\n    /* \"#utility.yul\":562:579   */\n  add\n    /* \"#utility.yul\":553:559   */\n  dup5\n    /* \"#utility.yul\":509:580   */\n  tag_15\n  jump\t// in\ntag_23:\n    /* \"#utility.yul\":365:587   */\n  swap3\n  swap2\n  pop\n  pop\n  jump\t// out\n    /* \"src/_Recommend.sol\":405:2497  contract _Recommend is Ownable, ReentrancyGuard {... */\ntag_11:\n  dataSize(sub_0)\n  dup1\n  dataOffset(sub_0)\n  0x00\n  codecopy\n  0x00\n  return\nstop\n\nsub_0: assembly {\n        /* \"src/_Recommend.sol\":405:2497  contract _Recommend is Ownable, ReentrancyGuard {... */\n      mstore(0x40, 0x80)\n      jumpi(tag_1, lt(calldatasize, 0x04))\n      shr(0xe0, calldataload(0x00))\n      dup1\n      0x8da5cb5b\n      gt\n      tag_14\n      jumpi\n      dup1\n      0x8da5cb5b\n      eq\n      tag_8\n      jumpi\n      dup1\n      0xb43e6a53\n      eq\n      tag_9\n      jumpi\n      dup1\n      0xdf0f0951\n      eq\n      tag_10\n      jumpi\n      dup1\n      0xe44cec7c\n      eq\n      tag_11\n      jumpi\n      dup1\n      0xf2fde38b\n      eq\n      tag_12\n      jumpi\n      dup1\n      0xf54b893b\n      eq\n      tag_13\n      jumpi\n      jump(tag_2)\n    tag_14:\n      dup1\n      0x099a04e5\n      eq\n      tag_3\n      jumpi\n      dup1\n      0x30710d04\n      eq\n      tag_4\n      jumpi\n      dup1\n      0x48c54b9d\n      eq\n      tag_5\n      jumpi\n      dup1\n      0x715018a6\n      eq\n      tag_6\n      jumpi\n      dup1\n      0x84d24226\n      eq\n      tag_7\n      jumpi\n      jump(tag_2)\n    tag_1:\n      jumpi(tag_2, calldatasize)\n      stop\n    tag_2:\n      0x00\n      dup1\n      revert\n        /* \"src/_Recommend.sol\":1001:1127  function rescueETH(address to, uint256 value) external onlyOwner {... */\n    tag_3:\n      callvalue\n      dup1\n      iszero\n      tag_17\n      jumpi\n      0x00\n      dup1\n      revert\n    tag_17:\n      pop\n      tag_18\n      0x04\n      dup1\n      calldatasize\n      sub\n      dup2\n      add\n      swap1\n      tag_19\n      swap2\n      swap1\n      tag_20\n      jump\t// in\n    tag_19:\n      tag_21\n      jump\t// in\n    tag_18:\n      stop\n        /* \"src/_Recommend.sol\":1270:1394  function setRecommendAmount(uint256 _recommendAmount) public onlyOwner {... */\n    tag_4:\n      callvalue\n      dup1\n      iszero\n      tag_22\n      jumpi\n      0x00\n      dup1\n      revert\n    tag_22:\n      pop\n      tag_23\n      0x04\n      dup1\n      calldatasize\n      sub\n      dup2\n      add\n      swap1\n      tag_24\n      swap2\n      swap1\n      tag_25\n      jump\t// in\n    tag_24:\n      tag_26\n      jump\t// in\n    tag_23:\n      stop\n        /* \"src/_Recommend.sol\":1993:2494  function claimTokens() external nonReentrant {... */\n    tag_5:\n      callvalue\n      dup1\n      iszero\n      tag_27\n      jumpi\n      0x00\n      dup1\n      revert\n    tag_27:\n      pop\n      tag_28\n      tag_29\n      jump\t// in\n    tag_28:\n      stop\n        /* \"lib/openzeppelin-contracts/contracts/access/Ownable.sol\":2292:2393  function renounceOwnership() public virtual onlyOwner {... */\n    tag_6:\n      callvalue\n      dup1\n      iszero\n      tag_30\n      jumpi\n      0x00\n      dup1\n      revert\n    tag_30:\n      pop\n      tag_31\n      tag_32\n      jump\t// in\n    tag_31:\n      stop\n        /* \"src/_Recommend.sol\":582:632  mapping(address => uint256) public claimableTokens */\n    tag_7:\n      callvalue\n      dup1\n      iszero\n      tag_33\n      jumpi\n      0x00\n      dup1\n      revert\n    tag_33:\n      pop\n      tag_34\n      0x04\n      dup1\n      calldatasize\n      sub\n      dup2\n      add\n      swap1\n      tag_35\n      swap2\n      swap1\n      tag_36\n      jump\t// in\n    tag_35:\n      tag_37\n      jump\t// in\n    tag_34:\n      mload(0x40)\n      tag_38\n      swap2\n      swap1\n      tag_39\n      jump\t// in\n    tag_38:\n      mload(0x40)\n      dup1\n      swap2\n      sub\n      swap1\n      return\n        /* \"lib/openzeppelin-contracts/contracts/access/Ownable.sol\":1637:1722  function owner() public view virtual returns (address) {... */\n    tag_8:\n      callvalue\n      dup1\n      iszero\n      tag_40\n      jumpi\n      0x00\n      dup1\n      revert\n    tag_40:\n      pop\n      tag_41\n      tag_42\n      jump\t// in\n    tag_41:\n      mload(0x40)\n      tag_43\n      swap2\n      swap1\n      tag_44\n      jump\t// in\n    tag_43:\n      mload(0x40)\n      dup1\n      swap2\n      sub\n      swap1\n      return\n        /* \"src/_Recommend.sol\":1595:1891  function setClaimableTokens(address referrer, uint256 amount) external payable {... */\n    tag_9:\n      tag_45\n      0x04\n      dup1\n      calldatasize\n      sub\n      dup2\n      add\n      swap1\n      tag_46\n      swap2\n      swap1\n      tag_20\n      jump\t// in\n    tag_46:\n      tag_47\n      jump\t// in\n    tag_45:\n      stop\n        /* \"src/_Recommend.sol\":695:744  mapping(address => uint256) public obtainedAmount */\n    tag_10:\n      callvalue\n      dup1\n      iszero\n      tag_48\n      jumpi\n      0x00\n      dup1\n      revert\n    tag_48:\n      pop\n      tag_49\n      0x04\n      dup1\n      calldatasize\n      sub\n      dup2\n      add\n      swap1\n      tag_50\n      swap2\n      swap1\n      tag_36\n      jump\t// in\n    tag_50:\n      tag_51\n      jump\t// in\n    tag_49:\n      mload(0x40)\n      tag_52\n      swap2\n      swap1\n      tag_39\n      jump\t// in\n    tag_52:\n      mload(0x40)\n      dup1\n      swap2\n      sub\n      swap1\n      return\n        /* \"src/_Recommend.sol\":751:785  uint256 public recommendAmount = 2 */\n    tag_11:\n      callvalue\n      dup1\n      iszero\n      tag_53\n      jumpi\n      0x00\n      dup1\n      revert\n    tag_53:\n      pop\n      tag_54\n      tag_55\n      jump\t// in\n    tag_54:\n      mload(0x40)\n      tag_56\n      swap2\n      swap1\n      tag_39\n      jump\t// in\n    tag_56:\n      mload(0x40)\n      dup1\n      swap2\n      sub\n      swap1\n      return\n        /* \"lib/openzeppelin-contracts/contracts/access/Ownable.sol\":2542:2757  function transferOwnership(address newOwner) public virtual onlyOwner {... */\n    tag_12:\n      callvalue\n      dup1\n      iszero\n      tag_57\n      jumpi\n      0x00\n      dup1\n      revert\n    tag_57:\n      pop\n      tag_58\n      0x04\n      dup1\n      calldatasize\n      sub\n      dup2\n      add\n      swap1\n      tag_59\n      swap2\n      swap1\n      tag_36\n      jump\t// in\n    tag_59:\n      tag_60\n      jump\t// in\n    tag_58:\n      stop\n        /* \"src/_Recommend.sol\":639:688  mapping(address => uint256) public alreadyClaimed */\n    tag_13:\n      callvalue\n      dup1\n      iszero\n      tag_61\n      jumpi\n      0x00\n      dup1\n      revert\n    tag_61:\n      pop\n      tag_62\n      0x04\n      dup1\n      calldatasize\n      sub\n      dup2\n      add\n      swap1\n      tag_63\n      swap2\n      swap1\n      tag_36\n      jump\t// in\n    tag_63:\n      tag_64\n      jump\t// in\n    tag_62:\n      mload(0x40)\n      tag_65\n      swap2\n      swap1\n      tag_39\n      jump\t// in\n    tag_65:\n      mload(0x40)\n      dup1\n      swap2\n      sub\n      swap1\n      return\n        /* \"src/_Recommend.sol\":1001:1127  function rescueETH(address to, uint256 value) external onlyOwner {... */\n    tag_21:\n        /* \"lib/openzeppelin-contracts/contracts/access/Ownable.sol\":1530:1543  _checkOwner() */\n      tag_67\n        /* \"lib/openzeppelin-contracts/contracts/access/Ownable.sol\":1530:1541  _checkOwner */\n      tag_68\n        /* \"lib/openzeppelin-contracts/contracts/access/Ownable.sol\":1530:1543  _checkOwner() */\n      jump\t// in\n    tag_67:\n        /* \"src/_Recommend.sol\":1077:1119  SafeTransferLib.safeTransferETH(to, value) */\n      tag_70\n        /* \"src/_Recommend.sol\":1109:1111  to */\n      dup3\n        /* \"src/_Recommend.sol\":1113:1118  value */\n      dup3\n        /* \"src/_Recommend.sol\":1077:1108  SafeTransferLib.safeTransferETH */\n      tag_71\n        /* \"src/_Recommend.sol\":1077:1119  SafeTransferLib.safeTransferETH(to, value) */\n      jump\t// in\n    tag_70:\n        /* \"src/_Recommend.sol\":1001:1127  function rescueETH(address to, uint256 value) external onlyOwner {... */\n      pop\n      pop\n      jump\t// out\n        /* \"src/_Recommend.sol\":1270:1394  function setRecommendAmount(uint256 _recommendAmount) public onlyOwner {... */\n    tag_26:\n        /* \"lib/openzeppelin-contracts/contracts/access/Ownable.sol\":1530:1543  _checkOwner() */\n      tag_73\n        /* \"lib/openzeppelin-contracts/contracts/access/Ownable.sol\":1530:1541  _checkOwner */\n      tag_68\n        /* \"lib/openzeppelin-contracts/contracts/access/Ownable.sol\":1530:1543  _checkOwner() */\n      jump\t// in\n    tag_73:\n        /* \"src/_Recommend.sol\":1370:1386  _recommendAmount */\n      dup1\n        /* \"src/_Recommend.sol\":1352:1367  recommendAmount */\n      0x04\n        /* \"src/_Recommend.sol\":1352:1386  recommendAmount = _recommendAmount */\n      dup2\n      swap1\n      sstore\n      pop\n        /* \"src/_Recommend.sol\":1270:1394  function setRecommendAmount(uint256 _recommendAmount) public onlyOwner {... */\n      pop\n      jump\t// out\n        /* \"src/_Recommend.sol\":1993:2494  function claimTokens() external nonReentrant {... */\n    tag_29:\n        /* \"lib/solady-main/src/utils/ReentrancyGuard.sol\":1635:1644  address() */\n      address\n        /* \"lib/solady-main/src/utils/ReentrancyGuard.sol\":1610:1632  _REENTRANCY_GUARD_SLOT */\n      0x929eee149b4bd21268\n        /* \"lib/solady-main/src/utils/ReentrancyGuard.sol\":1604:1633  sload(_REENTRANCY_GUARD_SLOT) */\n      sload\n        /* \"lib/solady-main/src/utils/ReentrancyGuard.sol\":1601:1645  eq(sload(_REENTRANCY_GUARD_SLOT), address()) */\n      sub\n        /* \"lib/solady-main/src/utils/ReentrancyGuard.sol\":1598:1756  if eq(sload(_REENTRANCY_GUARD_SLOT), address()) {... */\n      tag_76\n      jumpi\n        /* \"lib/solady-main/src/utils/ReentrancyGuard.sol\":1677:1687  0xab143c06 */\n      0xab143c06\n        /* \"lib/solady-main/src/utils/ReentrancyGuard.sol\":1671:1675  0x00 */\n      0x00\n        /* \"lib/solady-main/src/utils/ReentrancyGuard.sol\":1664:1688  mstore(0x00, 0xab143c06) */\n      mstore\n        /* \"lib/solady-main/src/utils/ReentrancyGuard.sol\":1737:1741  0x04 */\n      0x04\n        /* \"lib/solady-main/src/utils/ReentrancyGuard.sol\":1731:1735  0x1c */\n      0x1c\n        /* \"lib/solady-main/src/utils/ReentrancyGuard.sol\":1724:1742  revert(0x1c, 0x04) */\n      revert\n        /* \"lib/solady-main/src/utils/ReentrancyGuard.sol\":1598:1756  if eq(sload(_REENTRANCY_GUARD_SLOT), address()) {... */\n    tag_76:\n        /* \"lib/solady-main/src/utils/ReentrancyGuard.sol\":1800:1809  address() */\n      address\n        /* \"lib/solady-main/src/utils/ReentrancyGuard.sol\":1776:1798  _REENTRANCY_GUARD_SLOT */\n      0x929eee149b4bd21268\n        /* \"lib/solady-main/src/utils/ReentrancyGuard.sol\":1769:1810  sstore(_REENTRANCY_GUARD_SLOT, address()) */\n      sstore\n        /* \"src/_Recommend.sol\":2066:2076  msg.sender */\n      caller\n        /* \"src/_Recommend.sol\":2053:2076  tx.origin != msg.sender */\n      0xffffffffffffffffffffffffffffffffffffffff\n      and\n        /* \"src/_Recommend.sol\":2053:2062  tx.origin */\n      origin\n        /* \"src/_Recommend.sol\":2053:2076  tx.origin != msg.sender */\n      0xffffffffffffffffffffffffffffffffffffffff\n      and\n      eq\n        /* \"src/_Recommend.sol\":2049:2100  if (tx.origin != msg.sender) revert _CallerNotEOA() */\n      tag_78\n      jumpi\n        /* \"src/_Recommend.sol\":2085:2100  _CallerNotEOA() */\n      mload(0x40)\n      0x3691d20a00000000000000000000000000000000000000000000000000000000\n      dup2\n      mstore\n      0x04\n      add\n      mload(0x40)\n      dup1\n      swap2\n      sub\n      swap1\n      revert\n        /* \"src/_Recommend.sol\":2049:2100  if (tx.origin != msg.sender) revert _CallerNotEOA() */\n    tag_78:\n        /* \"src/_Recommend.sol\":2111:2125  uint256 amount */\n      0x00\n        /* \"src/_Recommend.sol\":2128:2143  claimableTokens */\n      0x01\n        /* \"src/_Recommend.sol\":2128:2155  claimableTokens[msg.sender] */\n      0x00\n        /* \"src/_Recommend.sol\":2144:2154  msg.sender */\n      caller\n        /* \"src/_Recommend.sol\":2128:2155  claimableTokens[msg.sender] */\n      0xffffffffffffffffffffffffffffffffffffffff\n      and\n      0xffffffffffffffffffffffffffffffffffffffff\n      and\n      dup2\n      mstore\n      0x20\n      add\n      swap1\n      dup2\n      mstore\n      0x20\n      add\n      0x00\n      keccak256\n      sload\n        /* \"src/_Recommend.sol\":2111:2155  uint256 amount = claimableTokens[msg.sender] */\n      swap1\n      pop\n        /* \"src/_Recommend.sol\":2180:2181  0 */\n      0x00\n        /* \"src/_Recommend.sol\":2170:2176  amount */\n      dup2\n        /* \"src/_Recommend.sol\":2170:2181  amount <= 0 */\n      gt\n        /* \"src/_Recommend.sol\":2166:2208  if (amount <= 0) revert _NoTokensToClaim() */\n      tag_79\n      jumpi\n        /* \"src/_Recommend.sol\":2190:2208  _NoTokensToClaim() */\n      mload(0x40)\n      0x6f9c7fcf00000000000000000000000000000000000000000000000000000000\n      dup2\n      mstore\n      0x04\n      add\n      mload(0x40)\n      dup1\n      swap2\n      sub\n      swap1\n      revert\n        /* \"src/_Recommend.sol\":2166:2208  if (amount <= 0) revert _NoTokensToClaim() */\n    tag_79:\n        /* \"src/_Recommend.sol\":2247:2253  amount */\n      dup1\n        /* \"src/_Recommend.sol\":2223:2244  address(this).balance */\n      selfbalance\n        /* \"src/_Recommend.sol\":2223:2253  address(this).balance < amount */\n      lt\n        /* \"src/_Recommend.sol\":2219:2282  if (address(this).balance < amount) revert _NotSufficientFund() */\n      iszero\n      tag_80\n      jumpi\n        /* \"src/_Recommend.sol\":2262:2282  _NotSufficientFund() */\n      mload(0x40)\n      0xabf01a0800000000000000000000000000000000000000000000000000000000\n      dup2\n      mstore\n      0x04\n      add\n      mload(0x40)\n      dup1\n      swap2\n      sub\n      swap1\n      revert\n        /* \"src/_Recommend.sol\":2219:2282  if (address(this).balance < amount) revert _NotSufficientFund() */\n    tag_80:\n        /* \"src/_Recommend.sol\":2325:2326  0 */\n      0x00\n        /* \"src/_Recommend.sol\":2295:2310  claimableTokens */\n      0x01\n        /* \"src/_Recommend.sol\":2295:2322  claimableTokens[msg.sender] */\n      0x00\n        /* \"src/_Recommend.sol\":2311:2321  msg.sender */\n      caller\n        /* \"src/_Recommend.sol\":2295:2322  claimableTokens[msg.sender] */\n      0xffffffffffffffffffffffffffffffffffffffff\n      and\n      0xffffffffffffffffffffffffffffffffffffffff\n      and\n      dup2\n      mstore\n      0x20\n      add\n      swap1\n      dup2\n      mstore\n      0x20\n      add\n      0x00\n      keccak256\n        /* \"src/_Recommend.sol\":2295:2326  claimableTokens[msg.sender] = 0 */\n      dup2\n      swap1\n      sstore\n      pop\n        /* \"src/_Recommend.sol\":2337:2388  SafeTransferLib.safeTransferETH(msg.sender, amount) */\n      tag_81\n        /* \"src/_Recommend.sol\":2369:2379  msg.sender */\n      caller\n        /* \"src/_Recommend.sol\":2381:2387  amount */\n      dup3\n        /* \"src/_Recommend.sol\":2337:2368  SafeTransferLib.safeTransferETH */\n      tag_71\n        /* \"src/_Recommend.sol\":2337:2388  SafeTransferLib.safeTransferETH(msg.sender, amount) */\n      jump\t// in\n    tag_81:\n        /* \"src/_Recommend.sol\":2429:2435  amount */\n      dup1\n        /* \"src/_Recommend.sol\":2399:2413  alreadyClaimed */\n      0x02\n        /* \"src/_Recommend.sol\":2399:2425  alreadyClaimed[msg.sender] */\n      0x00\n        /* \"src/_Recommend.sol\":2414:2424  msg.sender */\n      caller\n        /* \"src/_Recommend.sol\":2399:2425  alreadyClaimed[msg.sender] */\n      0xffffffffffffffffffffffffffffffffffffffff\n      and\n      0xffffffffffffffffffffffffffffffffffffffff\n      and\n      dup2\n      mstore\n      0x20\n      add\n      swap1\n      dup2\n      mstore\n      0x20\n      add\n      0x00\n      keccak256\n      0x00\n        /* \"src/_Recommend.sol\":2399:2435  alreadyClaimed[msg.sender] += amount */\n      dup3\n      dup3\n      sload\n      tag_82\n      swap2\n      swap1\n      tag_83\n      jump\t// in\n    tag_82:\n      swap3\n      pop\n      pop\n      dup2\n      swap1\n      sstore\n      pop\n        /* \"src/_Recommend.sol\":2467:2477  msg.sender */\n      caller\n        /* \"src/_Recommend.sol\":2453:2486  TokensClaimed(msg.sender, amount) */\n      0xffffffffffffffffffffffffffffffffffffffff\n      and\n      0x896e034966eaaf1adc54acc0f257056febbd300c9e47182cf761982cf1f5e430\n        /* \"src/_Recommend.sol\":2479:2485  amount */\n      dup3\n        /* \"src/_Recommend.sol\":2453:2486  TokensClaimed(msg.sender, amount) */\n      mload(0x40)\n      tag_84\n      swap2\n      swap1\n      tag_39\n      jump\t// in\n    tag_84:\n      mload(0x40)\n      dup1\n      swap2\n      sub\n      swap1\n      log2\n        /* \"src/_Recommend.sol\":2038:2494  {... */\n      pop\n        /* \"lib/solady-main/src/utils/ReentrancyGuard.sol\":1937:1947  codesize() */\n      codesize\n        /* \"lib/solady-main/src/utils/ReentrancyGuard.sol\":1913:1935  _REENTRANCY_GUARD_SLOT */\n      0x929eee149b4bd21268\n        /* \"lib/solady-main/src/utils/ReentrancyGuard.sol\":1906:1948  sstore(_REENTRANCY_GUARD_SLOT, codesize()) */\n      sstore\n        /* \"src/_Recommend.sol\":1993:2494  function claimTokens() external nonReentrant {... */\n      jump\t// out\n        /* \"lib/openzeppelin-contracts/contracts/access/Ownable.sol\":2292:2393  function renounceOwnership() public virtual onlyOwner {... */\n    tag_32:\n        /* \"lib/openzeppelin-contracts/contracts/access/Ownable.sol\":1530:1543  _checkOwner() */\n      tag_86\n        /* \"lib/openzeppelin-contracts/contracts/access/Ownable.sol\":1530:1541  _checkOwner */\n      tag_68\n        /* \"lib/openzeppelin-contracts/contracts/access/Ownable.sol\":1530:1543  _checkOwner() */\n      jump\t// in\n    tag_86:\n        /* \"lib/openzeppelin-contracts/contracts/access/Ownable.sol\":2356:2386  _transferOwnership(address(0)) */\n      tag_88\n        /* \"lib/openzeppelin-contracts/contracts/access/Ownable.sol\":2383:2384  0 */\n      0x00\n        /* \"lib/openzeppelin-contracts/contracts/access/Ownable.sol\":2356:2374  _transferOwnership */\n      tag_89\n        /* \"lib/openzeppelin-contracts/contracts/access/Ownable.sol\":2356:2386  _transferOwnership(address(0)) */\n      jump\t// in\n    tag_88:\n        /* \"lib/openzeppelin-contracts/contracts/access/Ownable.sol\":2292:2393  function renounceOwnership() public virtual onlyOwner {... */\n      jump\t// out\n        /* \"src/_Recommend.sol\":582:632  mapping(address => uint256) public claimableTokens */\n    tag_37:\n      mstore(0x20, 0x01)\n      dup1\n      0x00\n      mstore\n      keccak256(0x00, 0x40)\n      0x00\n      swap2\n      pop\n      swap1\n      pop\n      sload\n      dup2\n      jump\t// out\n        /* \"lib/openzeppelin-contracts/contracts/access/Ownable.sol\":1637:1722  function owner() public view virtual returns (address) {... */\n    tag_42:\n        /* \"lib/openzeppelin-contracts/contracts/access/Ownable.sol\":1683:1690  address */\n      0x00\n        /* \"lib/openzeppelin-contracts/contracts/access/Ownable.sol\":1709:1715  _owner */\n      dup1\n      0x00\n      swap1\n      sload\n      swap1\n      0x0100\n      exp\n      swap1\n      div\n      0xffffffffffffffffffffffffffffffffffffffff\n      and\n        /* \"lib/openzeppelin-contracts/contracts/access/Ownable.sol\":1702:1715  return _owner */\n      swap1\n      pop\n        /* \"lib/openzeppelin-contracts/contracts/access/Ownable.sol\":1637:1722  function owner() public view virtual returns (address) {... */\n      swap1\n      jump\t// out\n        /* \"src/_Recommend.sol\":1595:1891  function setClaimableTokens(address referrer, uint256 amount) external payable {... */\n    tag_47:\n        /* \"src/_Recommend.sol\":1702:1708  amount */\n      dup1\n        /* \"src/_Recommend.sol\":1689:1698  msg.value */\n      callvalue\n        /* \"src/_Recommend.sol\":1689:1708  msg.value != amount */\n      eq\n      iszero\n        /* \"src/_Recommend.sol\":1689:1723  msg.value != amount && amount != 0 */\n      dup1\n      iszero\n      tag_92\n      jumpi\n      pop\n        /* \"src/_Recommend.sol\":1722:1723  0 */\n      0x00\n        /* \"src/_Recommend.sol\":1712:1718  amount */\n      dup2\n        /* \"src/_Recommend.sol\":1712:1723  amount != 0 */\n      eq\n      iszero\n        /* \"src/_Recommend.sol\":1689:1723  msg.value != amount && amount != 0 */\n    tag_92:\n        /* \"src/_Recommend.sol\":1685:1747  if (msg.value != amount && amount != 0) revert _IllegalValue() */\n      iszero\n      tag_93\n      jumpi\n        /* \"src/_Recommend.sol\":1732:1747  _IllegalValue() */\n      mload(0x40)\n      0x2a2bb09200000000000000000000000000000000000000000000000000000000\n      dup2\n      mstore\n      0x04\n      add\n      mload(0x40)\n      dup1\n      swap2\n      sub\n      swap1\n      revert\n        /* \"src/_Recommend.sol\":1685:1747  if (msg.value != amount && amount != 0) revert _IllegalValue() */\n    tag_93:\n        /* \"src/_Recommend.sol\":1787:1793  amount */\n      dup1\n        /* \"src/_Recommend.sol\":1758:1773  claimableTokens */\n      0x01\n        /* \"src/_Recommend.sol\":1758:1783  claimableTokens[referrer] */\n      0x00\n        /* \"src/_Recommend.sol\":1774:1782  referrer */\n      dup5\n        /* \"src/_Recommend.sol\":1758:1783  claimableTokens[referrer] */\n      0xffffffffffffffffffffffffffffffffffffffff\n      and\n      0xffffffffffffffffffffffffffffffffffffffff\n      and\n      dup2\n      mstore\n      0x20\n      add\n      swap1\n      dup2\n      mstore\n      0x20\n      add\n      0x00\n      keccak256\n      0x00\n        /* \"src/_Recommend.sol\":1758:1793  claimableTokens[referrer] += amount */\n      dup3\n      dup3\n      sload\n      tag_94\n      swap2\n      swap1\n      tag_83\n      jump\t// in\n    tag_94:\n      swap3\n      pop\n      pop\n      dup2\n      swap1\n      sstore\n      pop\n        /* \"src/_Recommend.sol\":1832:1838  amount */\n      dup1\n        /* \"src/_Recommend.sol\":1804:1818  obtainedAmount */\n      0x03\n        /* \"src/_Recommend.sol\":1804:1828  obtainedAmount[referrer] */\n      0x00\n        /* \"src/_Recommend.sol\":1819:1827  referrer */\n      dup5\n        /* \"src/_Recommend.sol\":1804:1828  obtainedAmount[referrer] */\n      0xffffffffffffffffffffffffffffffffffffffff\n      and\n      0xffffffffffffffffffffffffffffffffffffffff\n      and\n      dup2\n      mstore\n      0x20\n      add\n      swap1\n      dup2\n      mstore\n      0x20\n      add\n      0x00\n      keccak256\n      0x00\n        /* \"src/_Recommend.sol\":1804:1838  obtainedAmount[referrer] += amount */\n      dup3\n      dup3\n      sload\n      tag_95\n      swap2\n      swap1\n      tag_83\n      jump\t// in\n    tag_95:\n      swap3\n      pop\n      pop\n      dup2\n      swap1\n      sstore\n      pop\n        /* \"src/_Recommend.sol\":1866:1874  referrer */\n      dup2\n        /* \"src/_Recommend.sol\":1856:1883  TokensSet(referrer, amount) */\n      0xffffffffffffffffffffffffffffffffffffffff\n      and\n      0xf3cbbad58a635fe73557a2824874af183b5ac83978ae25d57ea4a2011c4df859\n        /* \"src/_Recommend.sol\":1876:1882  amount */\n      dup3\n        /* \"src/_Recommend.sol\":1856:1883  TokensSet(referrer, amount) */\n      mload(0x40)\n      tag_96\n      swap2\n      swap1\n      tag_39\n      jump\t// in\n    tag_96:\n      mload(0x40)\n      dup1\n      swap2\n      sub\n      swap1\n      log2\n        /* \"src/_Recommend.sol\":1595:1891  function setClaimableTokens(address referrer, uint256 amount) external payable {... */\n      pop\n      pop\n      jump\t// out\n        /* \"src/_Recommend.sol\":695:744  mapping(address => uint256) public obtainedAmount */\n    tag_51:\n      mstore(0x20, 0x03)\n      dup1\n      0x00\n      mstore\n      keccak256(0x00, 0x40)\n      0x00\n      swap2\n      pop\n      swap1\n      pop\n      sload\n      dup2\n      jump\t// out\n        /* \"src/_Recommend.sol\":751:785  uint256 public recommendAmount = 2 */\n    tag_55:\n      sload(0x04)\n      dup2\n      jump\t// out\n        /* \"lib/openzeppelin-contracts/contracts/access/Ownable.sol\":2542:2757  function transferOwnership(address newOwner) public virtual onlyOwner {... */\n    tag_60:\n        /* \"lib/openzeppelin-contracts/contracts/access/Ownable.sol\":1530:1543  _checkOwner() */\n      tag_98\n        /* \"lib/openzeppelin-contracts/contracts/access/Ownable.sol\":1530:1541  _checkOwner */\n      tag_68\n        /* \"lib/openzeppelin-contracts/contracts/access/Ownable.sol\":1530:1543  _checkOwner() */\n      jump\t// in\n    tag_98:\n        /* \"lib/openzeppelin-contracts/contracts/access/Ownable.sol\":2646:2647  0 */\n      0x00\n        /* \"lib/openzeppelin-contracts/contracts/access/Ownable.sol\":2626:2648  newOwner == address(0) */\n      0xffffffffffffffffffffffffffffffffffffffff\n      and\n        /* \"lib/openzeppelin-contracts/contracts/access/Ownable.sol\":2626:2634  newOwner */\n      dup2\n        /* \"lib/openzeppelin-contracts/contracts/access/Ownable.sol\":2626:2648  newOwner == address(0) */\n      0xffffffffffffffffffffffffffffffffffffffff\n      and\n      sub\n        /* \"lib/openzeppelin-contracts/contracts/access/Ownable.sol\":2622:2713  if (newOwner == address(0)) {... */\n      tag_100\n      jumpi\n        /* \"lib/openzeppelin-contracts/contracts/access/Ownable.sol\":2699:2700  0 */\n      0x00\n        /* \"lib/openzeppelin-contracts/contracts/access/Ownable.sol\":2671:2702  OwnableInvalidOwner(address(0)) */\n      mload(0x40)\n      0x1e4fbdf700000000000000000000000000000000000000000000000000000000\n      dup2\n      mstore\n      0x04\n      add\n      tag_101\n      swap2\n      swap1\n      tag_44\n      jump\t// in\n    tag_101:\n      mload(0x40)\n      dup1\n      swap2\n      sub\n      swap1\n      revert\n        /* \"lib/openzeppelin-contracts/contracts/access/Ownable.sol\":2622:2713  if (newOwner == address(0)) {... */\n    tag_100:\n        /* \"lib/openzeppelin-contracts/contracts/access/Ownable.sol\":2722:2750  _transferOwnership(newOwner) */\n      tag_102\n        /* \"lib/openzeppelin-contracts/contracts/access/Ownable.sol\":2741:2749  newOwner */\n      dup2\n        /* \"lib/openzeppelin-contracts/contracts/access/Ownable.sol\":2722:2740  _transferOwnership */\n      tag_89\n        /* \"lib/openzeppelin-contracts/contracts/access/Ownable.sol\":2722:2750  _transferOwnership(newOwner) */\n      jump\t// in\n    tag_102:\n        /* \"lib/openzeppelin-contracts/contracts/access/Ownable.sol\":2542:2757  function transferOwnership(address newOwner) public virtual onlyOwner {... */\n      pop\n      jump\t// out\n        /* \"src/_Recommend.sol\":639:688  mapping(address => uint256) public alreadyClaimed */\n    tag_64:\n      mstore(0x20, 0x02)\n      dup1\n      0x00\n      mstore\n      keccak256(0x00, 0x40)\n      0x00\n      swap2\n      pop\n      swap1\n      pop\n      sload\n      dup2\n      jump\t// out\n        /* \"lib/openzeppelin-contracts/contracts/access/Ownable.sol\":1795:1957  function _checkOwner() internal view virtual {... */\n    tag_68:\n        /* \"lib/openzeppelin-contracts/contracts/access/Ownable.sol\":1865:1877  _msgSender() */\n      tag_104\n        /* \"lib/openzeppelin-contracts/contracts/access/Ownable.sol\":1865:1875  _msgSender */\n      tag_105\n        /* \"lib/openzeppelin-contracts/contracts/access/Ownable.sol\":1865:1877  _msgSender() */\n      jump\t// in\n    tag_104:\n        /* \"lib/openzeppelin-contracts/contracts/access/Ownable.sol\":1854:1877  owner() != _msgSender() */\n      0xffffffffffffffffffffffffffffffffffffffff\n      and\n        /* \"lib/openzeppelin-contracts/contracts/access/Ownable.sol\":1854:1861  owner() */\n      tag_106\n        /* \"lib/openzeppelin-contracts/contracts/access/Ownable.sol\":1854:1859  owner */\n      tag_42\n        /* \"lib/openzeppelin-contracts/contracts/access/Ownable.sol\":1854:1861  owner() */\n      jump\t// in\n    tag_106:\n        /* \"lib/openzeppelin-contracts/contracts/access/Ownable.sol\":1854:1877  owner() != _msgSender() */\n      0xffffffffffffffffffffffffffffffffffffffff\n      and\n      eq\n        /* \"lib/openzeppelin-contracts/contracts/access/Ownable.sol\":1850:1951  if (owner() != _msgSender()) {... */\n      tag_107\n      jumpi\n        /* \"lib/openzeppelin-contracts/contracts/access/Ownable.sol\":1927:1939  _msgSender() */\n      tag_108\n        /* \"lib/openzeppelin-contracts/contracts/access/Ownable.sol\":1927:1937  _msgSender */\n      tag_105\n        /* \"lib/openzeppelin-contracts/contracts/access/Ownable.sol\":1927:1939  _msgSender() */\n      jump\t// in\n    tag_108:\n        /* \"lib/openzeppelin-contracts/contracts/access/Ownable.sol\":1900:1940  OwnableUnauthorizedAccount(_msgSender()) */\n      mload(0x40)\n      0x118cdaa700000000000000000000000000000000000000000000000000000000\n      dup2\n      mstore\n      0x04\n      add\n      tag_109\n      swap2\n      swap1\n      tag_44\n      jump\t// in\n    tag_109:\n      mload(0x40)\n      dup1\n      swap2\n      sub\n      swap1\n      revert\n        /* \"lib/openzeppelin-contracts/contracts/access/Ownable.sol\":1850:1951  if (owner() != _msgSender()) {... */\n    tag_107:\n        /* \"lib/openzeppelin-contracts/contracts/access/Ownable.sol\":1795:1957  function _checkOwner() internal view virtual {... */\n      jump\t// out\n        /* \"lib/solady-main/src/utils/SafeTransferLib.sol\":3909:4251  function safeTransferETH(address to, uint256 amount) internal {... */\n    tag_71:\n        /* \"lib/solady-main/src/utils/SafeTransferLib.sol\":4111:4115  0x00 */\n      0x00\n        /* \"lib/solady-main/src/utils/SafeTransferLib.sol\":4099:4109  codesize() */\n      codesize\n        /* \"lib/solady-main/src/utils/SafeTransferLib.sol\":4093:4097  0x00 */\n      0x00\n        /* \"lib/solady-main/src/utils/SafeTransferLib.sol\":4081:4091  codesize() */\n      codesize\n        /* \"lib/solady-main/src/utils/SafeTransferLib.sol\":4073:4079  amount */\n      dup5\n        /* \"lib/solady-main/src/utils/SafeTransferLib.sol\":4069:4071  to */\n      dup7\n        /* \"lib/solady-main/src/utils/SafeTransferLib.sol\":4062:4067  gas() */\n      gas\n        /* \"lib/solady-main/src/utils/SafeTransferLib.sol\":4057:4116  call(gas(), to, amount, codesize(), 0x00, codesize(), 0x00) */\n      call\n        /* \"lib/solady-main/src/utils/SafeTransferLib.sol\":4047:4235  if iszero(call(gas(), to, amount, codesize(), 0x00, codesize(), 0x00)) {... */\n      tag_111\n      jumpi\n        /* \"lib/solady-main/src/utils/SafeTransferLib.sol\":4149:4159  0xb12d13eb */\n      0xb12d13eb\n        /* \"lib/solady-main/src/utils/SafeTransferLib.sol\":4143:4147  0x00 */\n      0x00\n        /* \"lib/solady-main/src/utils/SafeTransferLib.sol\":4136:4160  mstore(0x00, 0xb12d13eb) */\n      mstore\n        /* \"lib/solady-main/src/utils/SafeTransferLib.sol\":4216:4220  0x04 */\n      0x04\n        /* \"lib/solady-main/src/utils/SafeTransferLib.sol\":4210:4214  0x1c */\n      0x1c\n        /* \"lib/solady-main/src/utils/SafeTransferLib.sol\":4203:4221  revert(0x1c, 0x04) */\n      revert\n        /* \"lib/solady-main/src/utils/SafeTransferLib.sol\":4047:4235  if iszero(call(gas(), to, amount, codesize(), 0x00, codesize(), 0x00)) {... */\n    tag_111:\n        /* \"lib/solady-main/src/utils/SafeTransferLib.sol\":3909:4251  function safeTransferETH(address to, uint256 amount) internal {... */\n      pop\n      pop\n      jump\t// out\n        /* \"lib/openzeppelin-contracts/contracts/access/Ownable.sol\":2911:3098  function _transferOwnership(address newOwner) internal virtual {... */\n    tag_89:\n        /* \"lib/openzeppelin-contracts/contracts/access/Ownable.sol\":2984:3000  address oldOwner */\n      0x00\n        /* \"lib/openzeppelin-contracts/contracts/access/Ownable.sol\":3003:3009  _owner */\n      dup1\n      0x00\n      swap1\n      sload\n      swap1\n      0x0100\n      exp\n      swap1\n      div\n      0xffffffffffffffffffffffffffffffffffffffff\n      and\n        /* \"lib/openzeppelin-contracts/contracts/access/Ownable.sol\":2984:3009  address oldOwner = _owner */\n      swap1\n      pop\n        /* \"lib/openzeppelin-contracts/contracts/access/Ownable.sol\":3028:3036  newOwner */\n      dup2\n        /* \"lib/openzeppelin-contracts/contracts/access/Ownable.sol\":3019:3025  _owner */\n      0x00\n      dup1\n        /* \"lib/openzeppelin-contracts/contracts/access/Ownable.sol\":3019:3036  _owner = newOwner */\n      0x0100\n      exp\n      dup2\n      sload\n      dup2\n      0xffffffffffffffffffffffffffffffffffffffff\n      mul\n      not\n      and\n      swap1\n      dup4\n      0xffffffffffffffffffffffffffffffffffffffff\n      and\n      mul\n      or\n      swap1\n      sstore\n      pop\n        /* \"lib/openzeppelin-contracts/contracts/access/Ownable.sol\":3082:3090  newOwner */\n      dup2\n        /* \"lib/openzeppelin-contracts/contracts/access/Ownable.sol\":3051:3091  OwnershipTransferred(oldOwner, newOwner) */\n      0xffffffffffffffffffffffffffffffffffffffff\n      and\n        /* \"lib/openzeppelin-contracts/contracts/access/Ownable.sol\":3072:3080  oldOwner */\n      dup2\n        /* \"lib/openzeppelin-contracts/contracts/access/Ownable.sol\":3051:3091  OwnershipTransferred(oldOwner, newOwner) */\n      0xffffffffffffffffffffffffffffffffffffffff\n      and\n      0x8be0079c531659141344cd1fd0a4f28419497f9722a3daafe3b4186f6b6457e0\n      mload(0x40)\n      mload(0x40)\n      dup1\n      swap2\n      sub\n      swap1\n      log3\n        /* \"lib/openzeppelin-contracts/contracts/access/Ownable.sol\":2974:3098  {... */\n      pop\n        /* \"lib/openzeppelin-contracts/contracts/access/Ownable.sol\":2911:3098  function _transferOwnership(address newOwner) internal virtual {... */\n      pop\n      jump\t// out\n        /* \"lib/openzeppelin-contracts/contracts/utils/Context.sol\":655:751  function _msgSender() internal view virtual returns (address) {... */\n    tag_105:\n        /* \"lib/openzeppelin-contracts/contracts/utils/Context.sol\":708:715  address */\n      0x00\n        /* \"lib/openzeppelin-contracts/contracts/utils/Context.sol\":734:744  msg.sender */\n      caller\n        /* \"lib/openzeppelin-contracts/contracts/utils/Context.sol\":727:744  return msg.sender */\n      swap1\n      pop\n        /* \"lib/openzeppelin-contracts/contracts/utils/Context.sol\":655:751  function _msgSender() internal view virtual returns (address) {... */\n      swap1\n      jump\t// out\n        /* \"#utility.yul\":88:205   */\n    tag_115:\n        /* \"#utility.yul\":197:198   */\n      0x00\n        /* \"#utility.yul\":194:195   */\n      dup1\n        /* \"#utility.yul\":187:199   */\n      revert\n        /* \"#utility.yul\":334:460   */\n    tag_117:\n        /* \"#utility.yul\":371:378   */\n      0x00\n        /* \"#utility.yul\":411:453   */\n      0xffffffffffffffffffffffffffffffffffffffff\n        /* \"#utility.yul\":404:409   */\n      dup3\n        /* \"#utility.yul\":400:454   */\n      and\n        /* \"#utility.yul\":389:454   */\n      swap1\n      pop\n        /* \"#utility.yul\":334:460   */\n      swap2\n      swap1\n      pop\n      jump\t// out\n        /* \"#utility.yul\":466:562   */\n    tag_118:\n        /* \"#utility.yul\":503:510   */\n      0x00\n        /* \"#utility.yul\":532:556   */\n      tag_133\n        /* \"#utility.yul\":550:555   */\n      dup3\n        /* \"#utility.yul\":532:556   */\n      tag_117\n      jump\t// in\n    tag_133:\n        /* \"#utility.yul\":521:556   */\n      swap1\n      pop\n        /* \"#utility.yul\":466:562   */\n      swap2\n      swap1\n      pop\n      jump\t// out\n        /* \"#utility.yul\":568:690   */\n    tag_119:\n        /* \"#utility.yul\":641:665   */\n      tag_135\n        /* \"#utility.yul\":659:664   */\n      dup2\n        /* \"#utility.yul\":641:665   */\n      tag_118\n      jump\t// in\n    tag_135:\n        /* \"#utility.yul\":634:639   */\n      dup2\n        /* \"#utility.yul\":631:666   */\n      eq\n        /* \"#utility.yul\":621:684   */\n      tag_136\n      jumpi\n        /* \"#utility.yul\":680:681   */\n      0x00\n        /* \"#utility.yul\":677:678   */\n      dup1\n        /* \"#utility.yul\":670:682   */\n      revert\n        /* \"#utility.yul\":621:684   */\n    tag_136:\n        /* \"#utility.yul\":568:690   */\n      pop\n      jump\t// out\n        /* \"#utility.yul\":696:835   */\n    tag_120:\n        /* \"#utility.yul\":742:747   */\n      0x00\n        /* \"#utility.yul\":780:786   */\n      dup2\n        /* \"#utility.yul\":767:787   */\n      calldataload\n        /* \"#utility.yul\":758:787   */\n      swap1\n      pop\n        /* \"#utility.yul\":796:829   */\n      tag_138\n        /* \"#utility.yul\":823:828   */\n      dup2\n        /* \"#utility.yul\":796:829   */\n      tag_119\n      jump\t// in\n    tag_138:\n        /* \"#utility.yul\":696:835   */\n      swap3\n      swap2\n      pop\n      pop\n      jump\t// out\n        /* \"#utility.yul\":841:918   */\n    tag_121:\n        /* \"#utility.yul\":878:885   */\n      0x00\n        /* \"#utility.yul\":907:912   */\n      dup2\n        /* \"#utility.yul\":896:912   */\n      swap1\n      pop\n        /* \"#utility.yul\":841:918   */\n      swap2\n      swap1\n      pop\n      jump\t// out\n        /* \"#utility.yul\":924:1046   */\n    tag_122:\n        /* \"#utility.yul\":997:1021   */\n      tag_141\n        /* \"#utility.yul\":1015:1020   */\n      dup2\n        /* \"#utility.yul\":997:1021   */\n      tag_121\n      jump\t// in\n    tag_141:\n        /* \"#utility.yul\":990:995   */\n      dup2\n        /* \"#utility.yul\":987:1022   */\n      eq\n        /* \"#utility.yul\":977:1040   */\n      tag_142\n      jumpi\n        /* \"#utility.yul\":1036:1037   */\n      0x00\n        /* \"#utility.yul\":1033:1034   */\n      dup1\n        /* \"#utility.yul\":1026:1038   */\n      revert\n        /* \"#utility.yul\":977:1040   */\n    tag_142:\n        /* \"#utility.yul\":924:1046   */\n      pop\n      jump\t// out\n        /* \"#utility.yul\":1052:1191   */\n    tag_123:\n        /* \"#utility.yul\":1098:1103   */\n      0x00\n        /* \"#utility.yul\":1136:1142   */\n      dup2\n        /* \"#utility.yul\":1123:1143   */\n      calldataload\n        /* \"#utility.yul\":1114:1143   */\n      swap1\n      pop\n        /* \"#utility.yul\":1152:1185   */\n      tag_144\n        /* \"#utility.yul\":1179:1184   */\n      dup2\n        /* \"#utility.yul\":1152:1185   */\n      tag_122\n      jump\t// in\n    tag_144:\n        /* \"#utility.yul\":1052:1191   */\n      swap3\n      swap2\n      pop\n      pop\n      jump\t// out\n        /* \"#utility.yul\":1197:1671   */\n    tag_20:\n        /* \"#utility.yul\":1265:1271   */\n      0x00\n        /* \"#utility.yul\":1273:1279   */\n      dup1\n        /* \"#utility.yul\":1322:1324   */\n      0x40\n        /* \"#utility.yul\":1310:1319   */\n      dup4\n        /* \"#utility.yul\":1301:1308   */\n      dup6\n        /* \"#utility.yul\":1297:1320   */\n      sub\n        /* \"#utility.yul\":1293:1325   */\n      slt\n        /* \"#utility.yul\":1290:1409   */\n      iszero\n      tag_146\n      jumpi\n        /* \"#utility.yul\":1328:1407   */\n      tag_147\n      tag_115\n      jump\t// in\n    tag_147:\n        /* \"#utility.yul\":1290:1409   */\n    tag_146:\n        /* \"#utility.yul\":1448:1449   */\n      0x00\n        /* \"#utility.yul\":1473:1526   */\n      tag_148\n        /* \"#utility.yul\":1518:1525   */\n      dup6\n        /* \"#utility.yul\":1509:1515   */\n      dup3\n        /* \"#utility.yul\":1498:1507   */\n      dup7\n        /* \"#utility.yul\":1494:1516   */\n      add\n        /* \"#utility.yul\":1473:1526   */\n      tag_120\n      jump\t// in\n    tag_148:\n        /* \"#utility.yul\":1463:1526   */\n      swap3\n      pop\n        /* \"#utility.yul\":1419:1536   */\n      pop\n        /* \"#utility.yul\":1575:1577   */\n      0x20\n        /* \"#utility.yul\":1601:1654   */\n      tag_149\n        /* \"#utility.yul\":1646:1653   */\n      dup6\n        /* \"#utility.yul\":1637:1643   */\n      dup3\n        /* \"#utility.yul\":1626:1635   */\n      dup7\n        /* \"#utility.yul\":1622:1644   */\n      add\n        /* \"#utility.yul\":1601:1654   */\n      tag_123\n      jump\t// in\n    tag_149:\n        /* \"#utility.yul\":1591:1654   */\n      swap2\n      pop\n        /* \"#utility.yul\":1546:1664   */\n      pop\n        /* \"#utility.yul\":1197:1671   */\n      swap3\n      pop\n      swap3\n      swap1\n      pop\n      jump\t// out\n        /* \"#utility.yul\":1677:2006   */\n    tag_25:\n        /* \"#utility.yul\":1736:1742   */\n      0x00\n        /* \"#utility.yul\":1785:1787   */\n      0x20\n        /* \"#utility.yul\":1773:1782   */\n      dup3\n        /* \"#utility.yul\":1764:1771   */\n      dup5\n        /* \"#utility.yul\":1760:1783   */\n      sub\n        /* \"#utility.yul\":1756:1788   */\n      slt\n        /* \"#utility.yul\":1753:1872   */\n      iszero\n      tag_151\n      jumpi\n        /* \"#utility.yul\":1791:1870   */\n      tag_152\n      tag_115\n      jump\t// in\n    tag_152:\n        /* \"#utility.yul\":1753:1872   */\n    tag_151:\n        /* \"#utility.yul\":1911:1912   */\n      0x00\n        /* \"#utility.yul\":1936:1989   */\n      tag_153\n        /* \"#utility.yul\":1981:1988   */\n      dup5\n        /* \"#utility.yul\":1972:1978   */\n      dup3\n        /* \"#utility.yul\":1961:1970   */\n      dup6\n        /* \"#utility.yul\":1957:1979   */\n      add\n        /* \"#utility.yul\":1936:1989   */\n      tag_123\n      jump\t// in\n    tag_153:\n        /* \"#utility.yul\":1926:1989   */\n      swap2\n      pop\n        /* \"#utility.yul\":1882:1999   */\n      pop\n        /* \"#utility.yul\":1677:2006   */\n      swap3\n      swap2\n      pop\n      pop\n      jump\t// out\n        /* \"#utility.yul\":2012:2341   */\n    tag_36:\n        /* \"#utility.yul\":2071:2077   */\n      0x00\n        /* \"#utility.yul\":2120:2122   */\n      0x20\n        /* \"#utility.yul\":2108:2117   */\n      dup3\n        /* \"#utility.yul\":2099:2106   */\n      dup5\n        /* \"#utility.yul\":2095:2118   */\n      sub\n        /* \"#utility.yul\":2091:2123   */\n      slt\n        /* \"#utility.yul\":2088:2207   */\n      iszero\n      tag_155\n      jumpi\n        /* \"#utility.yul\":2126:2205   */\n      tag_156\n      tag_115\n      jump\t// in\n    tag_156:\n        /* \"#utility.yul\":2088:2207   */\n    tag_155:\n        /* \"#utility.yul\":2246:2247   */\n      0x00\n        /* \"#utility.yul\":2271:2324   */\n      tag_157\n        /* \"#utility.yul\":2316:2323   */\n      dup5\n        /* \"#utility.yul\":2307:2313   */\n      dup3\n        /* \"#utility.yul\":2296:2305   */\n      dup6\n        /* \"#utility.yul\":2292:2314   */\n      add\n        /* \"#utility.yul\":2271:2324   */\n      tag_120\n      jump\t// in\n    tag_157:\n        /* \"#utility.yul\":2261:2324   */\n      swap2\n      pop\n        /* \"#utility.yul\":2217:2334   */\n      pop\n        /* \"#utility.yul\":2012:2341   */\n      swap3\n      swap2\n      pop\n      pop\n      jump\t// out\n        /* \"#utility.yul\":2347:2465   */\n    tag_124:\n        /* \"#utility.yul\":2434:2458   */\n      tag_159\n        /* \"#utility.yul\":2452:2457   */\n      dup2\n        /* \"#utility.yul\":2434:2458   */\n      tag_121\n      jump\t// in\n    tag_159:\n        /* \"#utility.yul\":2429:2432   */\n      dup3\n        /* \"#utility.yul\":2422:2459   */\n      mstore\n        /* \"#utility.yul\":2347:2465   */\n      pop\n      pop\n      jump\t// out\n        /* \"#utility.yul\":2471:2693   */\n    tag_39:\n        /* \"#utility.yul\":2564:2568   */\n      0x00\n        /* \"#utility.yul\":2602:2604   */\n      0x20\n        /* \"#utility.yul\":2591:2600   */\n      dup3\n        /* \"#utility.yul\":2587:2605   */\n      add\n        /* \"#utility.yul\":2579:2605   */\n      swap1\n      pop\n        /* \"#utility.yul\":2615:2686   */\n      tag_161\n        /* \"#utility.yul\":2683:2684   */\n      0x00\n        /* \"#utility.yul\":2672:2681   */\n      dup4\n        /* \"#utility.yul\":2668:2685   */\n      add\n        /* \"#utility.yul\":2659:2665   */\n      dup5\n        /* \"#utility.yul\":2615:2686   */\n      tag_124\n      jump\t// in\n    tag_161:\n        /* \"#utility.yul\":2471:2693   */\n      swap3\n      swap2\n      pop\n      pop\n      jump\t// out\n        /* \"#utility.yul\":2699:2817   */\n    tag_125:\n        /* \"#utility.yul\":2786:2810   */\n      tag_163\n        /* \"#utility.yul\":2804:2809   */\n      dup2\n        /* \"#utility.yul\":2786:2810   */\n      tag_118\n      jump\t// in\n    tag_163:\n        /* \"#utility.yul\":2781:2784   */\n      dup3\n        /* \"#utility.yul\":2774:2811   */\n      mstore\n        /* \"#utility.yul\":2699:2817   */\n      pop\n      pop\n      jump\t// out\n        /* \"#utility.yul\":2823:3045   */\n    tag_44:\n        /* \"#utility.yul\":2916:2920   */\n      0x00\n        /* \"#utility.yul\":2954:2956   */\n      0x20\n        /* \"#utility.yul\":2943:2952   */\n      dup3\n        /* \"#utility.yul\":2939:2957   */\n      add\n        /* \"#utility.yul\":2931:2957   */\n      swap1\n      pop\n        /* \"#utility.yul\":2967:3038   */\n      tag_165\n        /* \"#utility.yul\":3035:3036   */\n      0x00\n        /* \"#utility.yul\":3024:3033   */\n      dup4\n        /* \"#utility.yul\":3020:3037   */\n      add\n        /* \"#utility.yul\":3011:3017   */\n      dup5\n        /* \"#utility.yul\":2967:3038   */\n      tag_125\n      jump\t// in\n    tag_165:\n        /* \"#utility.yul\":2823:3045   */\n      swap3\n      swap2\n      pop\n      pop\n      jump\t// out\n        /* \"#utility.yul\":3051:3231   */\n    tag_126:\n        /* \"#utility.yul\":3099:3176   */\n      0x4e487b7100000000000000000000000000000000000000000000000000000000\n        /* \"#utility.yul\":3096:3097   */\n      0x00\n        /* \"#utility.yul\":3089:3177   */\n      mstore\n        /* \"#utility.yul\":3196:3200   */\n      0x11\n        /* \"#utility.yul\":3193:3194   */\n      0x04\n        /* \"#utility.yul\":3186:3201   */\n      mstore\n        /* \"#utility.yul\":3220:3224   */\n      0x24\n        /* \"#utility.yul\":3217:3218   */\n      0x00\n        /* \"#utility.yul\":3210:3225   */\n      revert\n        /* \"#utility.yul\":3237:3428   */\n    tag_83:\n        /* \"#utility.yul\":3277:3280   */\n      0x00\n        /* \"#utility.yul\":3296:3316   */\n      tag_168\n        /* \"#utility.yul\":3314:3315   */\n      dup3\n        /* \"#utility.yul\":3296:3316   */\n      tag_121\n      jump\t// in\n    tag_168:\n        /* \"#utility.yul\":3291:3316   */\n      swap2\n      pop\n        /* \"#utility.yul\":3330:3350   */\n      tag_169\n        /* \"#utility.yul\":3348:3349   */\n      dup4\n        /* \"#utility.yul\":3330:3350   */\n      tag_121\n      jump\t// in\n    tag_169:\n        /* \"#utility.yul\":3325:3350   */\n      swap3\n      pop\n        /* \"#utility.yul\":3373:3374   */\n      dup3\n        /* \"#utility.yul\":3370:3371   */\n      dup3\n        /* \"#utility.yul\":3366:3375   */\n      add\n        /* \"#utility.yul\":3359:3375   */\n      swap1\n      pop\n        /* \"#utility.yul\":3394:3397   */\n      dup1\n        /* \"#utility.yul\":3391:3392   */\n      dup3\n        /* \"#utility.yul\":3388:3398   */\n      gt\n        /* \"#utility.yul\":3385:3421   */\n      iszero\n      tag_170\n      jumpi\n        /* \"#utility.yul\":3401:3419   */\n      tag_171\n      tag_126\n      jump\t// in\n    tag_171:\n        /* \"#utility.yul\":3385:3421   */\n    tag_170:\n        /* \"#utility.yul\":3237:3428   */\n      swap3\n      swap2\n      pop\n      pop\n      jump\t// out\n\n    auxdata: 0xa264697066735822122061ab82707d41c64fe221b752e6488ebde116702d0acf4ac9f896bd9f29b254c864736f6c63430008130033\n}\n",
				"bytecode": {
					"linkReferences": {},
					"object": "6080604052600260045534801561001557600080fd5b5033600073ffffffffffffffffffffffffffffffffffffffff168173ffffffffffffffffffffffffffffffffffffffff16036100895760006040517f1e4fbdf700000000000000000000000000000000000000000000000000000000815260040161008091906101a3565b60405180910390fd5b6100988161009e60201b60201c565b506101be565b60008060009054906101000a900473ffffffffffffffffffffffffffffffffffffffff169050816000806101000a81548173ffffffffffffffffffffffffffffffffffffffff021916908373ffffffffffffffffffffffffffffffffffffffff1602179055508173ffffffffffffffffffffffffffffffffffffffff168173ffffffffffffffffffffffffffffffffffffffff167f8be0079c531659141344cd1fd0a4f28419497f9722a3daafe3b4186f6b6457e060405160405180910390a35050565b600073ffffffffffffffffffffffffffffffffffffffff82169050919050565b600061018d82610162565b9050919050565b61019d81610182565b82525050565b60006020820190506101b86000830184610194565b92915050565b610ada806101cd6000396000f3fe6080604052600436106100a05760003560e01c80638da5cb5b116100645780638da5cb5b14610169578063b43e6a5314610194578063df0f0951146101b0578063e44cec7c146101ed578063f2fde38b14610218578063f54b893b14610241576100a7565b8063099a04e5146100ac57806330710d04146100d557806348c54b9d146100fe578063715018a61461011557806384d242261461012c576100a7565b366100a757005b600080fd5b3480156100b857600080fd5b506100d360048036038101906100ce9190610953565b61027e565b005b3480156100e157600080fd5b506100fc60048036038101906100f79190610993565b610294565b005b34801561010a57600080fd5b506101136102a6565b005b34801561012157600080fd5b5061012a6104f0565b005b34801561013857600080fd5b50610153600480360381019061014e91906109c0565b610504565b60405161016091906109fc565b60405180910390f35b34801561017557600080fd5b5061017e61051c565b60405161018b9190610a26565b60405180910390f35b6101ae60048036038101906101a99190610953565b610545565b005b3480156101bc57600080fd5b506101d760048036038101906101d291906109c0565b61068b565b6040516101e491906109fc565b60405180910390f35b3480156101f957600080fd5b506102026106a3565b60405161020f91906109fc565b60405180910390f35b34801561022457600080fd5b5061023f600480360381019061023a91906109c0565b6106a9565b005b34801561024d57600080fd5b50610268600480360381019061026391906109c0565b61072f565b60405161027591906109fc565b60405180910390f35b610286610747565b61029082826107ce565b5050565b61029c610747565b8060048190555050565b3068929eee149b4bd2126854036102c55763ab143c066000526004601cfd5b3068929eee149b4bd21268553373ffffffffffffffffffffffffffffffffffffffff163273ffffffffffffffffffffffffffffffffffffffff1614610336576040517f3691d20a00000000000000000000000000000000000000000000000000000000815260040160405180910390fd5b6000600160003373ffffffffffffffffffffffffffffffffffffffff1673ffffffffffffffffffffffffffffffffffffffff168152602001908152602001600020549050600081116103b4576040517f6f9c7fcf00000000000000000000000000000000000000000000000000000000815260040160405180910390fd5b804710156103ee576040517fabf01a0800000000000000000000000000000000000000000000000000000000815260040160405180910390fd5b6000600160003373ffffffffffffffffffffffffffffffffffffffff1673ffffffffffffffffffffffffffffffffffffffff1681526020019081526020016000208190555061043d33826107ce565b80600260003373ffffffffffffffffffffffffffffffffffffffff1673ffffffffffffffffffffffffffffffffffffffff168152602001908152602001600020600082825461048c9190610a70565b925050819055503373ffffffffffffffffffffffffffffffffffffffff167f896e034966eaaf1adc54acc0f257056febbd300c9e47182cf761982cf1f5e430826040516104d991906109fc565b60405180910390a2503868929eee149b4bd2126855565b6104f8610747565b61050260006107ee565b565b60016020528060005260406000206000915090505481565b60008060009054906101000a900473ffffffffffffffffffffffffffffffffffffffff16905090565b803414158015610556575060008114155b1561058d576040517f2a2bb09200000000000000000000000000000000000000000000000000000000815260040160405180910390fd5b80600160008473ffffffffffffffffffffffffffffffffffffffff1673ffffffffffffffffffffffffffffffffffffffff16815260200190815260200160002060008282546105dc9190610a70565b9250508190555080600360008473ffffffffffffffffffffffffffffffffffffffff1673ffffffffffffffffffffffffffffffffffffffff16815260200190815260200160002060008282546106329190610a70565b925050819055508173ffffffffffffffffffffffffffffffffffffffff167ff3cbbad58a635fe73557a2824874af183b5ac83978ae25d57ea4a2011c4df8598260405161067f91906109fc565b60405180910390a25050565b60036020528060005260406000206000915090505481565b60045481565b6106b1610747565b600073ffffffffffffffffffffffffffffffffffffffff168173ffffffffffffffffffffffffffffffffffffffff16036107235760006040517f1e4fbdf700000000000000000000000000000000000000000000000000000000815260040161071a9190610a26565b60405180910390fd5b61072c816107ee565b50565b60026020528060005260406000206000915090505481565b61074f6108b2565b73ffffffffffffffffffffffffffffffffffffffff1661076d61051c565b73ffffffffffffffffffffffffffffffffffffffff16146107cc576107906108b2565b6040517f118cdaa70000000000000000000000000000000000000000000000000000000081526004016107c39190610a26565b60405180910390fd5b565b60003860003884865af16107ea5763b12d13eb6000526004601cfd5b5050565b60008060009054906101000a900473ffffffffffffffffffffffffffffffffffffffff169050816000806101000a81548173ffffffffffffffffffffffffffffffffffffffff021916908373ffffffffffffffffffffffffffffffffffffffff1602179055508173ffffffffffffffffffffffffffffffffffffffff168173ffffffffffffffffffffffffffffffffffffffff167f8be0079c531659141344cd1fd0a4f28419497f9722a3daafe3b4186f6b6457e060405160405180910390a35050565b600033905090565b600080fd5b600073ffffffffffffffffffffffffffffffffffffffff82169050919050565b60006108ea826108bf565b9050919050565b6108fa816108df565b811461090557600080fd5b50565b600081359050610917816108f1565b92915050565b6000819050919050565b6109308161091d565b811461093b57600080fd5b50565b60008135905061094d81610927565b92915050565b6000806040838503121561096a576109696108ba565b5b600061097885828601610908565b92505060206109898582860161093e565b9150509250929050565b6000602082840312156109a9576109a86108ba565b5b60006109b78482850161093e565b91505092915050565b6000602082840312156109d6576109d56108ba565b5b60006109e484828501610908565b91505092915050565b6109f68161091d565b82525050565b6000602082019050610a1160008301846109ed565b92915050565b610a20816108df565b82525050565b6000602082019050610a3b6000830184610a17565b92915050565b7f4e487b7100000000000000000000000000000000000000000000000000000000600052601160045260246000fd5b6000610a7b8261091d565b9150610a868361091d565b9250828201905080821115610a9e57610a9d610a41565b5b9291505056fea264697066735822122061ab82707d41c64fe221b752e6488ebde116702d0acf4ac9f896bd9f29b254c864736f6c63430008130033",
					"opcodes": "PUSH1 0x80 PUSH1 0x40 MSTORE PUSH1 0x2 PUSH1 0x4 SSTORE CALLVALUE DUP1 ISZERO PUSH2 0x15 JUMPI PUSH1 0x0 DUP1 REVERT JUMPDEST POP CALLER PUSH1 0x0 PUSH20 0xFFFFFFFFFFFFFFFFFFFFFFFFFFFFFFFFFFFFFFFF AND DUP2 PUSH20 0xFFFFFFFFFFFFFFFFFFFFFFFFFFFFFFFFFFFFFFFF AND SUB PUSH2 0x89 JUMPI PUSH1 0x0 PUSH1 0x40 MLOAD PUSH32 0x1E4FBDF700000000000000000000000000000000000000000000000000000000 DUP2 MSTORE PUSH1 0x4 ADD PUSH2 0x80 SWAP2 SWAP1 PUSH2 0x1A3 JUMP JUMPDEST PUSH1 0x40 MLOAD DUP1 SWAP2 SUB SWAP1 REVERT JUMPDEST PUSH2 0x98 DUP2 PUSH2 0x9E PUSH1 0x20 SHL PUSH1 0x20 SHR JUMP JUMPDEST POP PUSH2 0x1BE JUMP JUMPDEST PUSH1 0x0 DUP1 PUSH1 0x0 SWAP1 SLOAD SWAP1 PUSH2 0x100 EXP SWAP1 DIV PUSH20 0xFFFFFFFFFFFFFFFFFFFFFFFFFFFFFFFFFFFFFFFF AND SWAP1 POP DUP2 PUSH1 0x0 DUP1 PUSH2 0x100 EXP DUP2 SLOAD DUP2 PUSH20 0xFFFFFFFFFFFFFFFFFFFFFFFFFFFFFFFFFFFFFFFF MUL NOT AND SWAP1 DUP4 PUSH20 0xFFFFFFFFFFFFFFFFFFFFFFFFFFFFFFFFFFFFFFFF AND MUL OR SWAP1 SSTORE POP DUP2 PUSH20 0xFFFFFFFFFFFFFFFFFFFFFFFFFFFFFFFFFFFFFFFF AND DUP2 PUSH20 0xFFFFFFFFFFFFFFFFFFFFFFFFFFFFFFFFFFFFFFFF AND PUSH32 0x8BE0079C531659141344CD1FD0A4F28419497F9722A3DAAFE3B4186F6B6457E0 PUSH1 0x40 MLOAD PUSH1 0x40 MLOAD DUP1 SWAP2 SUB SWAP1 LOG3 POP POP JUMP JUMPDEST PUSH1 0x0 PUSH20 0xFFFFFFFFFFFFFFFFFFFFFFFFFFFFFFFFFFFFFFFF DUP3 AND SWAP1 POP SWAP2 SWAP1 POP JUMP JUMPDEST PUSH1 0x0 PUSH2 0x18D DUP3 PUSH2 0x162 JUMP JUMPDEST SWAP1 POP SWAP2 SWAP1 POP JUMP JUMPDEST PUSH2 0x19D DUP2 PUSH2 0x182 JUMP JUMPDEST DUP3 MSTORE POP POP JUMP JUMPDEST PUSH1 0x0 PUSH1 0x20 DUP3 ADD SWAP1 POP PUSH2 0x1B8 PUSH1 0x0 DUP4 ADD DUP5 PUSH2 0x194 JUMP JUMPDEST SWAP3 SWAP2 POP POP JUMP JUMPDEST PUSH2 0xADA DUP1 PUSH2 0x1CD PUSH1 0x0 CODECOPY PUSH1 0x0 RETURN INVALID PUSH1 0x80 PUSH1 0x40 MSTORE PUSH1 0x4 CALLDATASIZE LT PUSH2 0xA0 JUMPI PUSH1 0x0 CALLDATALOAD PUSH1 0xE0 SHR DUP1 PUSH4 0x8DA5CB5B GT PUSH2 0x64 JUMPI DUP1 PUSH4 0x8DA5CB5B EQ PUSH2 0x169 JUMPI DUP1 PUSH4 0xB43E6A53 EQ PUSH2 0x194 JUMPI DUP1 PUSH4 0xDF0F0951 EQ PUSH2 0x1B0 JUMPI DUP1 PUSH4 0xE44CEC7C EQ PUSH2 0x1ED JUMPI DUP1 PUSH4 0xF2FDE38B EQ PUSH2 0x218 JUMPI DUP1 PUSH4 0xF54B893B EQ PUSH2 0x241 JUMPI PUSH2 0xA7 JUMP JUMPDEST DUP1 PUSH4 0x99A04E5 EQ PUSH2 0xAC JUMPI DUP1 PUSH4 0x30710D04 EQ PUSH2 0xD5 JUMPI DUP1 PUSH4 0x48C54B9D EQ PUSH2 0xFE JUMPI DUP1 PUSH4 0x715018A6 EQ PUSH2 0x115 JUMPI DUP1 PUSH4 0x84D24226 EQ PUSH2 0x12C JUMPI PUSH2 0xA7 JUMP JUMPDEST CALLDATASIZE PUSH2 0xA7 JUMPI STOP JUMPDEST PUSH1 0x0 DUP1 REVERT JUMPDEST CALLVALUE DUP1 ISZERO PUSH2 0xB8 JUMPI PUSH1 0x0 DUP1 REVERT JUMPDEST POP PUSH2 0xD3 PUSH1 0x4 DUP1 CALLDATASIZE SUB DUP2 ADD SWAP1 PUSH2 0xCE SWAP2 SWAP1 PUSH2 0x953 JUMP JUMPDEST PUSH2 0x27E JUMP JUMPDEST STOP JUMPDEST CALLVALUE DUP1 ISZERO PUSH2 0xE1 JUMPI PUSH1 0x0 DUP1 REVERT JUMPDEST POP PUSH2 0xFC PUSH1 0x4 DUP1 CALLDATASIZE SUB DUP2 ADD SWAP1 PUSH2 0xF7 SWAP2 SWAP1 PUSH2 0x993 JUMP JUMPDEST PUSH2 0x294 JUMP JUMPDEST STOP JUMPDEST CALLVALUE DUP1 ISZERO PUSH2 0x10A JUMPI PUSH1 0x0 DUP1 REVERT JUMPDEST POP PUSH2 0x113 PUSH2 0x2A6 JUMP JUMPDEST STOP JUMPDEST CALLVALUE DUP1 ISZERO PUSH2 0x121 JUMPI PUSH1 0x0 DUP1 REVERT JUMPDEST POP PUSH2 0x12A PUSH2 0x4F0 JUMP JUMPDEST STOP JUMPDEST CALLVALUE DUP1 ISZERO PUSH2 0x138 JUMPI PUSH1 0x0 DUP1 REVERT JUMPDEST POP PUSH2 0x153 PUSH1 0x4 DUP1 CALLDATASIZE SUB DUP2 ADD SWAP1 PUSH2 0x14E SWAP2 SWAP1 PUSH2 0x9C0 JUMP JUMPDEST PUSH2 0x504 JUMP JUMPDEST PUSH1 0x40 MLOAD PUSH2 0x160 SWAP2 SWAP1 PUSH2 0x9FC JUMP JUMPDEST PUSH1 0x40 MLOAD DUP1 SWAP2 SUB SWAP1 RETURN JUMPDEST CALLVALUE DUP1 ISZERO PUSH2 0x175 JUMPI PUSH1 0x0 DUP1 REVERT JUMPDEST POP PUSH2 0x17E PUSH2 0x51C JUMP JUMPDEST PUSH1 0x40 MLOAD PUSH2 0x18B SWAP2 SWAP1 PUSH2 0xA26 JUMP JUMPDEST PUSH1 0x40 MLOAD DUP1 SWAP2 SUB SWAP1 RETURN JUMPDEST PUSH2 0x1AE PUSH1 0x4 DUP1 CALLDATASIZE SUB DUP2 ADD SWAP1 PUSH2 0x1A9 SWAP2 SWAP1 PUSH2 0x953 JUMP JUMPDEST PUSH2 0x545 JUMP JUMPDEST STOP JUMPDEST CALLVALUE DUP1 ISZERO PUSH2 0x1BC JUMPI PUSH1 0x0 DUP1 REVERT JUMPDEST POP PUSH2 0x1D7 PUSH1 0x4 DUP1 CALLDATASIZE SUB DUP2 ADD SWAP1 PUSH2 0x1D2 SWAP2 SWAP1 PUSH2 0x9C0 JUMP JUMPDEST PUSH2 0x68B JUMP JUMPDEST PUSH1 0x40 MLOAD PUSH2 0x1E4 SWAP2 SWAP1 PUSH2 0x9FC JUMP JUMPDEST PUSH1 0x40 MLOAD DUP1 SWAP2 SUB SWAP1 RETURN JUMPDEST CALLVALUE DUP1 ISZERO PUSH2 0x1F9 JUMPI PUSH1 0x0 DUP1 REVERT JUMPDEST POP PUSH2 0x202 PUSH2 0x6A3 JUMP JUMPDEST PUSH1 0x40 MLOAD PUSH2 0x20F SWAP2 SWAP1 PUSH2 0x9FC JUMP JUMPDEST PUSH1 0x40 MLOAD DUP1 SWAP2 SUB SWAP1 RETURN JUMPDEST CALLVALUE DUP1 ISZERO PUSH2 0x224 JUMPI PUSH1 0x0 DUP1 REVERT JUMPDEST POP PUSH2 0x23F PUSH1 0x4 DUP1 CALLDATASIZE SUB DUP2 ADD SWAP1 PUSH2 0x23A SWAP2 SWAP1 PUSH2 0x9C0 JUMP JUMPDEST PUSH2 0x6A9 JUMP JUMPDEST STOP JUMPDEST CALLVALUE DUP1 ISZERO PUSH2 0x24D JUMPI PUSH1 0x0 DUP1 REVERT JUMPDEST POP PUSH2 0x268 PUSH1 0x4 DUP1 CALLDATASIZE SUB DUP2 ADD SWAP1 PUSH2 0x263 SWAP2 SWAP1 PUSH2 0x9C0 JUMP JUMPDEST PUSH2 0x72F JUMP JUMPDEST PUSH1 0x40 MLOAD PUSH2 0x275 SWAP2 SWAP1 PUSH2 0x9FC JUMP JUMPDEST PUSH1 0x40 MLOAD DUP1 SWAP2 SUB SWAP1 RETURN JUMPDEST PUSH2 0x286 PUSH2 0x747 JUMP JUMPDEST PUSH2 0x290 DUP3 DUP3 PUSH2 0x7CE JUMP JUMPDEST POP POP JUMP JUMPDEST PUSH2 0x29C PUSH2 0x747 JUMP JUMPDEST DUP1 PUSH1 0x4 DUP2 SWAP1 SSTORE POP POP JUMP JUMPDEST ADDRESS PUSH9 0x929EEE149B4BD21268 SLOAD SUB PUSH2 0x2C5 JUMPI PUSH4 0xAB143C06 PUSH1 0x0 MSTORE PUSH1 0x4 PUSH1 0x1C REVERT JUMPDEST ADDRESS PUSH9 0x929EEE149B4BD21268 SSTORE CALLER PUSH20 0xFFFFFFFFFFFFFFFFFFFFFFFFFFFFFFFFFFFFFFFF AND ORIGIN PUSH20 0xFFFFFFFFFFFFFFFFFFFFFFFFFFFFFFFFFFFFFFFF AND EQ PUSH2 0x336 JUMPI PUSH1 0x40 MLOAD PUSH32 0x3691D20A00000000000000000000000000000000000000000000000000000000 DUP2 MSTORE PUSH1 0x4 ADD PUSH1 0x40 MLOAD DUP1 SWAP2 SUB SWAP1 REVERT JUMPDEST PUSH1 0x0 PUSH1 0x1 PUSH1 0x0 CALLER PUSH20 0xFFFFFFFFFFFFFFFFFFFFFFFFFFFFFFFFFFFFFFFF AND PUSH20 0xFFFFFFFFFFFFFFFFFFFFFFFFFFFFFFFFFFFFFFFF AND DUP2 MSTORE PUSH1 0x20 ADD SWAP1 DUP2 MSTORE PUSH1 0x20 ADD PUSH1 0x0 KECCAK256 SLOAD SWAP1 POP PUSH1 0x0 DUP2 GT PUSH2 0x3B4 JUMPI PUSH1 0x40 MLOAD PUSH32 0x6F9C7FCF00000000000000000000000000000000000000000000000000000000 DUP2 MSTORE PUSH1 0x4 ADD PUSH1 0x40 MLOAD DUP1 SWAP2 SUB SWAP1 REVERT JUMPDEST DUP1 SELFBALANCE LT ISZERO PUSH2 0x3EE JUMPI PUSH1 0x40 MLOAD PUSH32 0xABF01A0800000000000000000000000000000000000000000000000000000000 DUP2 MSTORE PUSH1 0x4 ADD PUSH1 0x40 MLOAD DUP1 SWAP2 SUB SWAP1 REVERT JUMPDEST PUSH1 0x0 PUSH1 0x1 PUSH1 0x0 CALLER PUSH20 0xFFFFFFFFFFFFFFFFFFFFFFFFFFFFFFFFFFFFFFFF AND PUSH20 0xFFFFFFFFFFFFFFFFFFFFFFFFFFFFFFFFFFFFFFFF AND DUP2 MSTORE PUSH1 0x20 ADD SWAP1 DUP2 MSTORE PUSH1 0x20 ADD PUSH1 0x0 KECCAK256 DUP2 SWAP1 SSTORE POP PUSH2 0x43D CALLER DUP3 PUSH2 0x7CE JUMP JUMPDEST DUP1 PUSH1 0x2 PUSH1 0x0 CALLER PUSH20 0xFFFFFFFFFFFFFFFFFFFFFFFFFFFFFFFFFFFFFFFF AND PUSH20 0xFFFFFFFFFFFFFFFFFFFFFFFFFFFFFFFFFFFFFFFF AND DUP2 MSTORE PUSH1 0x20 ADD SWAP1 DUP2 MSTORE PUSH1 0x20 ADD PUSH1 0x0 KECCAK256 PUSH1 0x0 DUP3 DUP3 SLOAD PUSH2 0x48C SWAP2 SWAP1 PUSH2 0xA70 JUMP JUMPDEST SWAP3 POP POP DUP2 SWAP1 SSTORE POP CALLER PUSH20 0xFFFFFFFFFFFFFFFFFFFFFFFFFFFFFFFFFFFFFFFF AND PUSH32 0x896E034966EAAF1ADC54ACC0F257056FEBBD300C9E47182CF761982CF1F5E430 DUP3 PUSH1 0x40 MLOAD PUSH2 0x4D9 SWAP2 SWAP1 PUSH2 0x9FC JUMP JUMPDEST PUSH1 0x40 MLOAD DUP1 SWAP2 SUB SWAP1 LOG2 POP CODESIZE PUSH9 0x929EEE149B4BD21268 SSTORE JUMP JUMPDEST PUSH2 0x4F8 PUSH2 0x747 JUMP JUMPDEST PUSH2 0x502 PUSH1 0x0 PUSH2 0x7EE JUMP JUMPDEST JUMP JUMPDEST PUSH1 0x1 PUSH1 0x20 MSTORE DUP1 PUSH1 0x0 MSTORE PUSH1 0x40 PUSH1 0x0 KECCAK256 PUSH1 0x0 SWAP2 POP SWAP1 POP SLOAD DUP2 JUMP JUMPDEST PUSH1 0x0 DUP1 PUSH1 0x0 SWAP1 SLOAD SWAP1 PUSH2 0x100 EXP SWAP1 DIV PUSH20 0xFFFFFFFFFFFFFFFFFFFFFFFFFFFFFFFFFFFFFFFF AND SWAP1 POP SWAP1 JUMP JUMPDEST DUP1 CALLVALUE EQ ISZERO DUP1 ISZERO PUSH2 0x556 JUMPI POP PUSH1 0x0 DUP2 EQ ISZERO JUMPDEST ISZERO PUSH2 0x58D JUMPI PUSH1 0x40 MLOAD PUSH32 0x2A2BB09200000000000000000000000000000000000000000000000000000000 DUP2 MSTORE PUSH1 0x4 ADD PUSH1 0x40 MLOAD DUP1 SWAP2 SUB SWAP1 REVERT JUMPDEST DUP1 PUSH1 0x1 PUSH1 0x0 DUP5 PUSH20 0xFFFFFFFFFFFFFFFFFFFFFFFFFFFFFFFFFFFFFFFF AND PUSH20 0xFFFFFFFFFFFFFFFFFFFFFFFFFFFFFFFFFFFFFFFF AND DUP2 MSTORE PUSH1 0x20 ADD SWAP1 DUP2 MSTORE PUSH1 0x20 ADD PUSH1 0x0 KECCAK256 PUSH1 0x0 DUP3 DUP3 SLOAD PUSH2 0x5DC SWAP2 SWAP1 PUSH2 0xA70 JUMP JUMPDEST SWAP3 POP POP DUP2 SWAP1 SSTORE POP DUP1 PUSH1 0x3 PUSH1 0x0 DUP5 PUSH20 0xFFFFFFFFFFFFFFFFFFFFFFFFFFFFFFFFFFFFFFFF AND PUSH20 0xFFFFFFFFFFFFFFFFFFFFFFFFFFFFFFFFFFFFFFFF AND DUP2 MSTORE PUSH1 0x20 ADD SWAP1 DUP2 MSTORE PUSH1 0x20 ADD PUSH1 0x0 KECCAK256 PUSH1 0x0 DUP3 DUP3 SLOAD PUSH2 0x632 SWAP2 SWAP1 PUSH2 0xA70 JUMP JUMPDEST SWAP3 POP POP DUP2 SWAP1 SSTORE POP DUP2 PUSH20 0xFFFFFFFFFFFFFFFFFFFFFFFFFFFFFFFFFFFFFFFF AND PUSH32 0xF3CBBAD58A635FE73557A2824874AF183B5AC83978AE25D57EA4A2011C4DF859 DUP3 PUSH1 0x40 MLOAD PUSH2 0x67F SWAP2 SWAP1 PUSH2 0x9FC JUMP JUMPDEST PUSH1 0x40 MLOAD DUP1 SWAP2 SUB SWAP1 LOG2 POP POP JUMP JUMPDEST PUSH1 0x3 PUSH1 0x20 MSTORE DUP1 PUSH1 0x0 MSTORE PUSH1 0x40 PUSH1 0x0 KECCAK256 PUSH1 0x0 SWAP2 POP SWAP1 POP SLOAD DUP2 JUMP JUMPDEST PUSH1 0x4 SLOAD DUP2 JUMP JUMPDEST PUSH2 0x6B1 PUSH2 0x747 JUMP JUMPDEST PUSH1 0x0 PUSH20 0xFFFFFFFFFFFFFFFFFFFFFFFFFFFFFFFFFFFFFFFF AND DUP2 PUSH20 0xFFFFFFFFFFFFFFFFFFFFFFFFFFFFFFFFFFFFFFFF AND SUB PUSH2 0x723 JUMPI PUSH1 0x0 PUSH1 0x40 MLOAD PUSH32 0x1E4FBDF700000000000000000000000000000000000000000000000000000000 DUP2 MSTORE PUSH1 0x4 ADD PUSH2 0x71A SWAP2 SWAP1 PUSH2 0xA26 JUMP JUMPDEST PUSH1 0x40 MLOAD DUP1 SWAP2 SUB SWAP1 REVERT JUMPDEST PUSH2 0x72C DUP2 PUSH2 0x7EE JUMP JUMPDEST POP JUMP JUMPDEST PUSH1 0x2 PUSH1 0x20 MSTORE DUP1 PUSH1 0x0 MSTORE PUSH1 0x40 PUSH1 0x0 KECCAK256 PUSH1 0x0 SWAP2 POP SWAP1 POP SLOAD DUP2 JUMP JUMPDEST PUSH2 0x74F PUSH2 0x8B2 JUMP JUMPDEST PUSH20 0xFFFFFFFFFFFFFFFFFFFFFFFFFFFFFFFFFFFFFFFF AND PUSH2 0x76D PUSH2 0x51C JUMP JUMPDEST PUSH20 0xFFFFFFFFFFFFFFFFFFFFFFFFFFFFFFFFFFFFFFFF AND EQ PUSH2 0x7CC JUMPI PUSH2 0x790 PUSH2 0x8B2 JUMP JUMPDEST PUSH1 0x40 MLOAD PUSH32 0x118CDAA700000000000000000000000000000000000000000000000000000000 DUP2 MSTORE PUSH1 0x4 ADD PUSH2 0x7C3 SWAP2 SWAP1 PUSH2 0xA26 JUMP JUMPDEST PUSH1 0x40 MLOAD DUP1 SWAP2 SUB SWAP1 REVERT JUMPDEST JUMP JUMPDEST PUSH1 0x0 CODESIZE PUSH1 0x0 CODESIZE DUP5 DUP7 GAS CALL PUSH2 0x7EA JUMPI PUSH4 0xB12D13EB PUSH1 0x0 MSTORE PUSH1 0x4 PUSH1 0x1C REVERT JUMPDEST POP POP JUMP JUMPDEST PUSH1 0x0 DUP1 PUSH1 0x0 SWAP1 SLOAD SWAP1 PUSH2 0x100 EXP SWAP1 DIV PUSH20 0xFFFFFFFFFFFFFFFFFFFFFFFFFFFFFFFFFFFFFFFF AND SWAP1 POP DUP2 PUSH1 0x0 DUP1 PUSH2 0x100 EXP DUP2 SLOAD DUP2 PUSH20 0xFFFFFFFFFFFFFFFFFFFFFFFFFFFFFFFFFFFFFFFF MUL NOT AND SWAP1 DUP4 PUSH20 0xFFFFFFFFFFFFFFFFFFFFFFFFFFFFFFFFFFFFFFFF AND MUL OR SWAP1 SSTORE POP DUP2 PUSH20 0xFFFFFFFFFFFFFFFFFFFFFFFFFFFFFFFFFFFFFFFF AND DUP2 PUSH20 0xFFFFFFFFFFFFFFFFFFFFFFFFFFFFFFFFFFFFFFFF AND PUSH32 0x8BE0079C531659141344CD1FD0A4F28419497F9722A3DAAFE3B4186F6B6457E0 PUSH1 0x40 MLOAD PUSH1 0x40 MLOAD DUP1 SWAP2 SUB SWAP1 LOG3 POP POP JUMP JUMPDEST PUSH1 0x0 CALLER SWAP1 POP SWAP1 JUMP JUMPDEST PUSH1 0x0 DUP1 REVERT JUMPDEST PUSH1 0x0 PUSH20 0xFFFFFFFFFFFFFFFFFFFFFFFFFFFFFFFFFFFFFFFF DUP3 AND SWAP1 POP SWAP2 SWAP1 POP JUMP JUMPDEST PUSH1 0x0 PUSH2 0x8EA DUP3 PUSH2 0x8BF JUMP JUMPDEST SWAP1 POP SWAP2 SWAP1 POP JUMP JUMPDEST PUSH2 0x8FA DUP2 PUSH2 0x8DF JUMP JUMPDEST DUP2 EQ PUSH2 0x905 JUMPI PUSH1 0x0 DUP1 REVERT JUMPDEST POP JUMP JUMPDEST PUSH1 0x0 DUP2 CALLDATALOAD SWAP1 POP PUSH2 0x917 DUP2 PUSH2 0x8F1 JUMP JUMPDEST SWAP3 SWAP2 POP POP JUMP JUMPDEST PUSH1 0x0 DUP2 SWAP1 POP SWAP2 SWAP1 POP JUMP JUMPDEST PUSH2 0x930 DUP2 PUSH2 0x91D JUMP JUMPDEST DUP2 EQ PUSH2 0x93B JUMPI PUSH1 0x0 DUP1 REVERT JUMPDEST POP JUMP JUMPDEST PUSH1 0x0 DUP2 CALLDATALOAD SWAP1 POP PUSH2 0x94D DUP2 PUSH2 0x927 JUMP JUMPDEST SWAP3 SWAP2 POP POP JUMP JUMPDEST PUSH1 0x0 DUP1 PUSH1 0x40 DUP4 DUP6 SUB SLT ISZERO PUSH2 0x96A JUMPI PUSH2 0x969 PUSH2 0x8BA JUMP JUMPDEST JUMPDEST PUSH1 0x0 PUSH2 0x978 DUP6 DUP3 DUP7 ADD PUSH2 0x908 JUMP JUMPDEST SWAP3 POP POP PUSH1 0x20 PUSH2 0x989 DUP6 DUP3 DUP7 ADD PUSH2 0x93E JUMP JUMPDEST SWAP2 POP POP SWAP3 POP SWAP3 SWAP1 POP JUMP JUMPDEST PUSH1 0x0 PUSH1 0x20 DUP3 DUP5 SUB SLT ISZERO PUSH2 0x9A9 JUMPI PUSH2 0x9A8 PUSH2 0x8BA JUMP JUMPDEST JUMPDEST PUSH1 0x0 PUSH2 0x9B7 DUP5 DUP3 DUP6 ADD PUSH2 0x93E JUMP JUMPDEST SWAP2 POP POP SWAP3 SWAP2 POP POP JUMP JUMPDEST PUSH1 0x0 PUSH1 0x20 DUP3 DUP5 SUB SLT ISZERO PUSH2 0x9D6 JUMPI PUSH2 0x9D5 PUSH2 0x8BA JUMP JUMPDEST JUMPDEST PUSH1 0x0 PUSH2 0x9E4 DUP5 DUP3 DUP6 ADD PUSH2 0x908 JUMP JUMPDEST SWAP2 POP POP SWAP3 SWAP2 POP POP JUMP JUMPDEST PUSH2 0x9F6 DUP2 PUSH2 0x91D JUMP JUMPDEST DUP3 MSTORE POP POP JUMP JUMPDEST PUSH1 0x0 PUSH1 0x20 DUP3 ADD SWAP1 POP PUSH2 0xA11 PUSH1 0x0 DUP4 ADD DUP5 PUSH2 0x9ED JUMP JUMPDEST SWAP3 SWAP2 POP POP JUMP JUMPDEST PUSH2 0xA20 DUP2 PUSH2 0x8DF JUMP JUMPDEST DUP3 MSTORE POP POP JUMP JUMPDEST PUSH1 0x0 PUSH1 0x20 DUP3 ADD SWAP1 POP PUSH2 0xA3B PUSH1 0x0 DUP4 ADD DUP5 PUSH2 0xA17 JUMP JUMPDEST SWAP3 SWAP2 POP POP JUMP JUMPDEST PUSH32 0x4E487B7100000000000000000000000000000000000000000000000000000000 PUSH1 0x0 MSTORE PUSH1 0x11 PUSH1 0x4 MSTORE PUSH1 0x24 PUSH1 0x0 REVERT JUMPDEST PUSH1 0x0 PUSH2 0xA7B DUP3 PUSH2 0x91D JUMP JUMPDEST SWAP2 POP PUSH2 0xA86 DUP4 PUSH2 0x91D JUMP JUMPDEST SWAP3 POP DUP3 DUP3 ADD SWAP1 POP DUP1 DUP3 GT ISZERO PUSH2 0xA9E JUMPI PUSH2 0xA9D PUSH2 0xA41 JUMP JUMPDEST JUMPDEST SWAP3 SWAP2 POP POP JUMP INVALID LOG2 PUSH5 0x6970667358 0x22 SLT KECCAK256 PUSH2 0xAB82 PUSH17 0x7D41C64FE221B752E6488EBDE116702D0A 0xCF 0x4A 0xC9 0xF8 SWAP7 0xBD SWAP16 0x29 0xB2 SLOAD 0xC8 PUSH5 0x736F6C6343 STOP ADDMOD SGT STOP CALLER "
				},
				"gasEstimates": {
					"creation": {
						"codeDepositCost": "555600",
						"executionCost": "infinite",
						"totalCost": "infinite"
					},
					"external": {
						"alreadyClaimed(address)": "2924",
						"claimTokens()": "infinite",
						"claimableTokens(address)": "2903",
						"obtainedAmount(address)": "2858",
						"owner()": "2522",
						"recommendAmount()": "2495",
						"renounceOwnership()": "infinite",
						"rescueETH(address,uint256)": "infinite",
						"setClaimableTokens(address,uint256)": "infinite",
						"setRecommendAmount(uint256)": "infinite",
						"transferOwnership(address)": "infinite"
					}
				},
				"methodIdentifiers": {
					"alreadyClaimed(address)": "f54b893b",
					"claimTokens()": "48c54b9d",
					"claimableTokens(address)": "84d24226",
					"obtainedAmount(address)": "df0f0951",
					"owner()": "8da5cb5b",
					"recommendAmount()": "e44cec7c",
					"renounceOwnership()": "715018a6",
					"rescueETH(address,uint256)": "099a04e5",
					"setClaimableTokens(address,uint256)": "b43e6a53",
					"setRecommendAmount(uint256)": "30710d04",
					"transferOwnership(address)": "f2fde38b"
				}
			},
			"storageLayout": {
				"storage": [
					{
						"astId": 8,
						"contract": "src/_Recommend.sol:_Recommend",
						"label": "_owner",
						"offset": 0,
						"slot": "0",
						"type": "t_address"
					},
					{
						"astId": 560,
						"contract": "src/_Recommend.sol:_Recommend",
						"label": "claimableTokens",
						"offset": 0,
						"slot": "1",
						"type": "t_mapping(t_address,t_uint256)"
					},
					{
						"astId": 564,
						"contract": "src/_Recommend.sol:_Recommend",
						"label": "alreadyClaimed",
						"offset": 0,
						"slot": "2",
						"type": "t_mapping(t_address,t_uint256)"
					},
					{
						"astId": 568,
						"contract": "src/_Recommend.sol:_Recommend",
						"label": "obtainedAmount",
						"offset": 0,
						"slot": "3",
						"type": "t_mapping(t_address,t_uint256)"
					},
					{
						"astId": 571,
						"contract": "src/_Recommend.sol:_Recommend",
						"label": "recommendAmount",
						"offset": 0,
						"slot": "4",
						"type": "t_uint256"
					}
				],
				"types": {
					"t_address": {
						"encoding": "inplace",
						"label": "address",
						"numberOfBytes": "20"
					},
					"t_mapping(t_address,t_uint256)": {
						"encoding": "mapping",
						"key": "t_address",
						"label": "mapping(address => uint256)",
						"numberOfBytes": "32",
						"value": "t_uint256"
					},
					"t_uint256": {
						"encoding": "inplace",
						"label": "uint256",
						"numberOfBytes": "32"
					}
				}
			},
			"userdoc": {
				"kind": "user",
				"methods": {},
				"version": 1
			}
		}
	}
}