{
	"src/_Token.sol": {
		"_Token": {
			"abi": [
				{
					"inputs": [
						{
							"internalType": "string",
							"name": "_name",
							"type": "string"
						},
						{
							"internalType": "string",
							"name": "_symbol",
							"type": "string"
						},
						{
							"internalType": "uint256",
							"name": "_supply",
							"type": "uint256"
						},
						{
							"internalType": "address[]",
							"name": "_tokenParams",
							"type": "address[]"
						},
						{
							"internalType": "string",
							"name": "_bondVersion",
							"type": "string"
						}
					],
					"stateMutability": "nonpayable",
					"type": "constructor"
				},
				{
					"inputs": [
						{
							"internalType": "address",
							"name": "spender",
							"type": "address"
						},
						{
							"internalType": "uint256",
							"name": "allowance",
							"type": "uint256"
						},
						{
							"internalType": "uint256",
							"name": "needed",
							"type": "uint256"
						}
					],
					"name": "ERC20InsufficientAllowance",
					"type": "error"
				},
				{
					"inputs": [
						{
							"internalType": "address",
							"name": "sender",
							"type": "address"
						},
						{
							"internalType": "uint256",
							"name": "balance",
							"type": "uint256"
						},
						{
							"internalType": "uint256",
							"name": "needed",
							"type": "uint256"
						}
					],
					"name": "ERC20InsufficientBalance",
					"type": "error"
				},
				{
					"inputs": [
						{
							"internalType": "address",
							"name": "approver",
							"type": "address"
						}
					],
					"name": "ERC20InvalidApprover",
					"type": "error"
				},
				{
					"inputs": [
						{
							"internalType": "address",
							"name": "receiver",
							"type": "address"
						}
					],
					"name": "ERC20InvalidReceiver",
					"type": "error"
				},
				{
					"inputs": [
						{
							"internalType": "address",
							"name": "sender",
							"type": "address"
						}
					],
					"name": "ERC20InvalidSender",
					"type": "error"
				},
				{
					"inputs": [
						{
							"internalType": "address",
							"name": "spender",
							"type": "address"
						}
					],
					"name": "ERC20InvalidSpender",
					"type": "error"
				},
				{
					"inputs": [],
					"name": "_Forbidden",
					"type": "error"
				},
				{
					"inputs": [],
					"name": "_NotApprovable",
					"type": "error"
				},
				{
					"inputs": [],
					"name": "_Notbond",
					"type": "error"
				},
				{
					"anonymous": false,
					"inputs": [
						{
							"indexed": true,
							"internalType": "address",
							"name": "owner",
							"type": "address"
						},
						{
							"indexed": true,
							"internalType": "address",
							"name": "spender",
							"type": "address"
						},
						{
							"indexed": false,
							"internalType": "uint256",
							"name": "value",
							"type": "uint256"
						}
					],
					"name": "Approval",
					"type": "event"
				},
				{
					"anonymous": false,
					"inputs": [
						{
							"indexed": true,
							"internalType": "address",
							"name": "from",
							"type": "address"
						},
						{
							"indexed": true,
							"internalType": "address",
							"name": "to",
							"type": "address"
						},
						{
							"indexed": false,
							"internalType": "uint256",
							"name": "value",
							"type": "uint256"
						}
					],
					"name": "Transfer",
					"type": "event"
				},
				{
					"inputs": [
						{
							"internalType": "address",
							"name": "account",
							"type": "address"
						},
						{
							"internalType": "address",
							"name": "spender",
							"type": "address"
						}
					],
					"name": "_allowances",
					"outputs": [
						{
							"internalType": "uint256",
							"name": "",
							"type": "uint256"
						}
					],
					"stateMutability": "view",
					"type": "function"
				},
				{
					"inputs": [
						{
							"internalType": "address",
							"name": "owner",
							"type": "address"
						},
						{
							"internalType": "address",
							"name": "spender",
							"type": "address"
						}
					],
					"name": "allowance",
					"outputs": [
						{
							"internalType": "uint256",
							"name": "",
							"type": "uint256"
						}
					],
					"stateMutability": "view",
					"type": "function"
				},
				{
					"inputs": [
						{
							"internalType": "address",
							"name": "spender",
							"type": "address"
						},
						{
							"internalType": "uint256",
							"name": "amount",
							"type": "uint256"
						}
					],
					"name": "approve",
					"outputs": [
						{
							"internalType": "bool",
							"name": "",
							"type": "bool"
						}
					],
					"stateMutability": "nonpayable",
					"type": "function"
				},
				{
					"inputs": [
						{
							"internalType": "address",
							"name": "account",
							"type": "address"
						}
					],
					"name": "balanceOf",
					"outputs": [
						{
							"internalType": "uint256",
							"name": "",
							"type": "uint256"
						}
					],
					"stateMutability": "view",
					"type": "function"
				},
				{
					"inputs": [],
					"name": "bond",
					"outputs": [
						{
							"internalType": "address",
							"name": "",
							"type": "address"
						}
					],
					"stateMutability": "view",
					"type": "function"
				},
				{
					"inputs": [],
					"name": "bondVersion",
					"outputs": [
						{
							"internalType": "string",
							"name": "",
							"type": "string"
						}
					],
					"stateMutability": "view",
					"type": "function"
				},
				{
					"inputs": [],
					"name": "creator",
					"outputs": [
						{
							"internalType": "address",
							"name": "",
							"type": "address"
						}
					],
					"stateMutability": "view",
					"type": "function"
				},
				{
					"inputs": [],
					"name": "decimals",
					"outputs": [
						{
							"internalType": "uint8",
							"name": "",
							"type": "uint8"
						}
					],
					"stateMutability": "view",
					"type": "function"
				},
				{
					"inputs": [],
					"name": "entities",
					"outputs": [
						{
							"internalType": "address",
							"name": "",
							"type": "address"
						}
					],
					"stateMutability": "view",
					"type": "function"
				},
				{
					"inputs": [],
					"name": "factory",
					"outputs": [
						{
							"internalType": "address",
							"name": "",
							"type": "address"
						}
					],
					"stateMutability": "view",
					"type": "function"
				},
				{
					"inputs": [],
					"name": "getMetadata",
					"outputs": [
						{
							"components": [
								{
									"internalType": "address",
									"name": "token",
									"type": "address"
								},
								{
									"internalType": "string",
									"name": "name",
									"type": "string"
								},
								{
									"internalType": "string",
									"name": "symbol",
									"type": "string"
								},
								{
									"internalType": "uint8",
									"name": "decimals",
									"type": "uint8"
								},
								{
									"internalType": "uint256",
									"name": "totalSupply",
									"type": "uint256"
								},
								{
									"internalType": "address",
									"name": "creator",
									"type": "address"
								}
							],
							"internalType": "struct _Token.Metadata",
							"name": "",
							"type": "tuple"
						}
					],
					"stateMutability": "view",
					"type": "function"
				},
				{
					"inputs": [],
					"name": "isApprovable",
					"outputs": [
						{
							"internalType": "bool",
							"name": "",
							"type": "bool"
						}
					],
					"stateMutability": "view",
					"type": "function"
				},
				{
					"inputs": [],
					"name": "name",
					"outputs": [
						{
							"internalType": "string",
							"name": "",
							"type": "string"
						}
					],
					"stateMutability": "view",
					"type": "function"
				},
				{
					"inputs": [
						{
							"internalType": "bool",
							"name": "_isApprovable",
							"type": "bool"
						}
					],
					"name": "setIsApprovable",
					"outputs": [],
					"stateMutability": "nonpayable",
					"type": "function"
				},
				{
					"inputs": [],
					"name": "symbol",
					"outputs": [
						{
							"internalType": "string",
							"name": "",
							"type": "string"
						}
					],
					"stateMutability": "view",
					"type": "function"
				},
				{
					"inputs": [],
					"name": "totalSupply",
					"outputs": [
						{
							"internalType": "uint256",
							"name": "",
							"type": "uint256"
						}
					],
					"stateMutability": "view",
					"type": "function"
				},
				{
					"inputs": [
						{
							"internalType": "address",
							"name": "to",
							"type": "address"
						},
						{
							"internalType": "uint256",
							"name": "amount",
							"type": "uint256"
						}
					],
					"name": "transfer",
					"outputs": [
						{
							"internalType": "bool",
							"name": "",
							"type": "bool"
						}
					],
					"stateMutability": "nonpayable",
					"type": "function"
				},
				{
					"inputs": [
						{
							"internalType": "address",
							"name": "from",
							"type": "address"
						},
						{
							"internalType": "address",
							"name": "to",
							"type": "address"
						},
						{
							"internalType": "uint256",
							"name": "amount",
							"type": "uint256"
						}
					],
					"name": "transferFrom",
					"outputs": [
						{
							"internalType": "bool",
							"name": "",
							"type": "bool"
						}
					],
					"stateMutability": "nonpayable",
					"type": "function"
				},
				{
					"inputs": [],
					"name": "versions",
					"outputs": [
						{
							"internalType": "string",
							"name": "",
							"type": "string"
						}
					],
					"stateMutability": "view",
					"type": "function"
				}
			],
			"devdoc": {
				"errors": {
					"ERC20InsufficientAllowance(address,uint256,uint256)": [
						{
							"details": "Indicates a failure with the `spender`’s `allowance`. Used in transfers.",
							"params": {
								"allowance": "Amount of tokens a `spender` is allowed to operate with.",
								"needed": "Minimum amount required to perform a transfer.",
								"spender": "Address that may be allowed to operate on tokens without being their owner."
							}
						}
					],
					"ERC20InsufficientBalance(address,uint256,uint256)": [
						{
							"details": "Indicates an error related to the current `balance` of a `sender`. Used in transfers.",
							"params": {
								"balance": "Current balance for the interacting account.",
								"needed": "Minimum amount required to perform a transfer.",
								"sender": "Address whose tokens are being transferred."
							}
						}
					],
					"ERC20InvalidApprover(address)": [
						{
							"details": "Indicates a failure with the `approver` of a token to be approved. Used in approvals.",
							"params": {
								"approver": "Address initiating an approval operation."
							}
						}
					],
					"ERC20InvalidReceiver(address)": [
						{
							"details": "Indicates a failure with the token `receiver`. Used in transfers.",
							"params": {
								"receiver": "Address to which tokens are being transferred."
							}
						}
					],
					"ERC20InvalidSender(address)": [
						{
							"details": "Indicates a failure with the token `sender`. Used in transfers.",
							"params": {
								"sender": "Address whose tokens are being transferred."
							}
						}
					],
					"ERC20InvalidSpender(address)": [
						{
							"details": "Indicates a failure with the `spender` to be approved. Used in approvals.",
							"params": {
								"spender": "Address that may be allowed to operate on tokens without being their owner."
							}
						}
					]
				},
				"events": {
					"Approval(address,address,uint256)": {
						"details": "Emitted when the allowance of a `spender` for an `owner` is set by a call to {approve}. `value` is the new allowance."
					},
					"Transfer(address,address,uint256)": {
						"details": "Emitted when `value` tokens are moved from one account (`from`) to another (`to`). Note that `value` may be zero."
					}
				},
				"kind": "dev",
				"methods": {
					"allowance(address,address)": {
						"details": "See {IERC20-allowance}."
					},
					"balanceOf(address)": {
						"details": "See {IERC20-balanceOf}."
					},
					"decimals()": {
						"details": "Returns the number of decimals used to get its user representation. For example, if `decimals` equals `2`, a balance of `505` tokens should be displayed to a user as `5.05` (`505 / 10 ** 2`). Tokens usually opt for a value of 18, imitating the relationship between Ether and Wei. This is the default value returned by this function, unless it's overridden. NOTE: This information is only used for _display_ purposes: it in no way affects any of the arithmetic of the contract, including {IERC20-balanceOf} and {IERC20-transfer}."
					},
					"name()": {
						"details": "Returns the name of the token."
					},
					"symbol()": {
						"details": "Returns the symbol of the token, usually a shorter version of the name."
					},
					"totalSupply()": {
						"details": "See {IERC20-totalSupply}."
					}
				},
				"version": 1
			},
			"evm": {
				"assembly": "    /* \"src/_Token.sol\":229:2987  contract _Token is ERC20 {... */\n  mstore(0x40, 0x0100)\n    /* \"src/_Token.sol\":710:715  false */\n  0x00\n    /* \"src/_Token.sol\":683:715  bool public isApprovable = false */\n  0x05\n  exp(0x0100, 0x00)\n  dup2\n  sload\n  dup2\n  0xff\n  mul\n  not\n  and\n  swap1\n  dup4\n  iszero\n  iszero\n  mul\n  or\n  swap1\n  sstore\n  pop\n    /* \"src/_Token.sol\":724:756  string public versions = \"0.1.1\" */\n  mload(0x40)\n  dup1\n  0x40\n  add\n  0x40\n  mstore\n  dup1\n  0x05\n  dup2\n  mstore\n  0x20\n  add\n  0x302e312e31000000000000000000000000000000000000000000000000000000\n  dup2\n  mstore\n  pop\n  0x06\n  swap1\n  dup2\n  tag_1\n  swap2\n  swap1\n  tag_2\n  jump\t// in\ntag_1:\n  pop\n    /* \"src/_Token.sol\":795:1286  constructor(... */\n  callvalue\n  dup1\n  iszero\n  tag_3\n  jumpi\n  0x00\n  dup1\n  revert\ntag_3:\n  pop\n  mload(0x40)\n  sub(codesize, bytecodeSize)\n  dup1\n  bytecodeSize\n  dup4\n  codecopy\n  dup2\n  dup2\n  add\n  0x40\n  mstore\n  dup2\n  add\n  swap1\n  tag_4\n  swap2\n  swap1\n  tag_5\n  jump\t// in\ntag_4:\n    /* \"src/_Token.sol\":989:994  _name */\n  dup5\n    /* \"src/_Token.sol\":996:1003  _symbol */\n  dup5\n    /* \"lib/openzeppelin-contracts/contracts/token/ERC20/ERC20.sol\":1673:1678  name_ */\n  dup2\n    /* \"lib/openzeppelin-contracts/contracts/token/ERC20/ERC20.sol\":1665:1670  _name */\n  0x03\n    /* \"lib/openzeppelin-contracts/contracts/token/ERC20/ERC20.sol\":1665:1678  _name = name_ */\n  swap1\n  dup2\n  tag_9\n  swap2\n  swap1\n  tag_2\n  jump\t// in\ntag_9:\n  pop\n    /* \"lib/openzeppelin-contracts/contracts/token/ERC20/ERC20.sol\":1698:1705  symbol_ */\n  dup1\n    /* \"lib/openzeppelin-contracts/contracts/token/ERC20/ERC20.sol\":1688:1695  _symbol */\n  0x04\n    /* \"lib/openzeppelin-contracts/contracts/token/ERC20/ERC20.sol\":1688:1705  _symbol = symbol_ */\n  swap1\n  dup2\n  tag_10\n  swap2\n  swap1\n  tag_2\n  jump\t// in\ntag_10:\n  pop\n    /* \"lib/openzeppelin-contracts/contracts/token/ERC20/ERC20.sol\":1599:1712  constructor(string memory name_, string memory symbol_) {... */\n  pop\n  pop\n    /* \"src/_Token.sol\":1027:1039  _tokenParams */\n  dup2\n    /* \"src/_Token.sol\":1040:1041  0 */\n  0x00\n    /* \"src/_Token.sol\":1027:1042  _tokenParams[0] */\n  dup2\n  mload\n  dup2\n  lt\n  tag_12\n  jumpi\n  tag_13\n  tag_14\n  jump\t// in\ntag_13:\ntag_12:\n  0x20\n  mul\n  0x20\n  add\n  add\n  mload\n    /* \"src/_Token.sol\":1020:1042  bond = _tokenParams[0] */\n  0xffffffffffffffffffffffffffffffffffffffff\n  and\n  0x80\n  dup2\n  0xffffffffffffffffffffffffffffffffffffffff\n  and\n  dup2\n  mstore\n  pop\n  pop\n    /* \"src/_Token.sol\":1075:1087  _tokenParams */\n  dup2\n    /* \"src/_Token.sol\":1088:1089  1 */\n  0x01\n    /* \"src/_Token.sol\":1075:1090  _tokenParams[1] */\n  dup2\n  mload\n  dup2\n  lt\n  tag_15\n  jumpi\n  tag_16\n  tag_14\n  jump\t// in\ntag_16:\ntag_15:\n  0x20\n  mul\n  0x20\n  add\n  add\n  mload\n    /* \"src/_Token.sol\":1065:1090  factory = _tokenParams[1] */\n  0xffffffffffffffffffffffffffffffffffffffff\n  and\n  0xc0\n  dup2\n  0xffffffffffffffffffffffffffffffffffffffff\n  and\n  dup2\n  mstore\n  pop\n  pop\n    /* \"src/_Token.sol\":1121:1133  _tokenParams */\n  dup2\n    /* \"src/_Token.sol\":1134:1135  2 */\n  0x02\n    /* \"src/_Token.sol\":1121:1136  _tokenParams[2] */\n  dup2\n  mload\n  dup2\n  lt\n  tag_17\n  jumpi\n  tag_18\n  tag_14\n  jump\t// in\ntag_18:\ntag_17:\n  0x20\n  mul\n  0x20\n  add\n  add\n  mload\n    /* \"src/_Token.sol\":1111:1136  creator = _tokenParams[2] */\n  0xffffffffffffffffffffffffffffffffffffffff\n  and\n  0xa0\n  dup2\n  0xffffffffffffffffffffffffffffffffffffffff\n  and\n  dup2\n  mstore\n  pop\n  pop\n    /* \"src/_Token.sol\":1169:1181  _tokenParams */\n  dup2\n    /* \"src/_Token.sol\":1182:1183  3 */\n  0x03\n    /* \"src/_Token.sol\":1169:1184  _tokenParams[3] */\n  dup2\n  mload\n  dup2\n  lt\n  tag_19\n  jumpi\n  tag_20\n  tag_14\n  jump\t// in\ntag_20:\ntag_19:\n  0x20\n  mul\n  0x20\n  add\n  add\n  mload\n    /* \"src/_Token.sol\":1158:1184  entities = _tokenParams[3] */\n  0xffffffffffffffffffffffffffffffffffffffff\n  and\n  0xe0\n  dup2\n  0xffffffffffffffffffffffffffffffffffffffff\n  and\n  dup2\n  mstore\n  pop\n  pop\n    /* \"src/_Token.sol\":1219:1231  _bondVersion */\n  dup1\n    /* \"src/_Token.sol\":1205:1216  bondVersion */\n  0x07\n    /* \"src/_Token.sol\":1205:1231  bondVersion = _bondVersion */\n  swap1\n  dup2\n  tag_21\n  swap2\n  swap1\n  tag_2\n  jump\t// in\ntag_21:\n  pop\n    /* \"src/_Token.sol\":1254:1274  _mint(bond, _supply) */\n  tag_22\n    /* \"src/_Token.sol\":1260:1264  bond */\n  mload(0x80)\n    /* \"src/_Token.sol\":1266:1273  _supply */\n  dup5\n    /* \"src/_Token.sol\":1254:1259  _mint */\n  shl(0x20, tag_23)\n    /* \"src/_Token.sol\":1254:1274  _mint(bond, _supply) */\n  0x20\n  shr\n  jump\t// in\ntag_22:\n    /* \"src/_Token.sol\":795:1286  constructor(... */\n  pop\n  pop\n  pop\n  pop\n  pop\n    /* \"src/_Token.sol\":229:2987  contract _Token is ERC20 {... */\n  jump(tag_24)\n    /* \"lib/openzeppelin-contracts/contracts/token/ERC20/ERC20.sol\":7456:7664  function _mint(address account, uint256 value) internal {... */\ntag_23:\n    /* \"lib/openzeppelin-contracts/contracts/token/ERC20/ERC20.sol\":7545:7546  0 */\n  0x00\n    /* \"lib/openzeppelin-contracts/contracts/token/ERC20/ERC20.sol\":7526:7547  account == address(0) */\n  0xffffffffffffffffffffffffffffffffffffffff\n  and\n    /* \"lib/openzeppelin-contracts/contracts/token/ERC20/ERC20.sol\":7526:7533  account */\n  dup3\n    /* \"lib/openzeppelin-contracts/contracts/token/ERC20/ERC20.sol\":7526:7547  account == address(0) */\n  0xffffffffffffffffffffffffffffffffffffffff\n  and\n  sub\n    /* \"lib/openzeppelin-contracts/contracts/token/ERC20/ERC20.sol\":7522:7613  if (account == address(0)) {... */\n  tag_26\n  jumpi\n    /* \"lib/openzeppelin-contracts/contracts/token/ERC20/ERC20.sol\":7599:7600  0 */\n  0x00\n    /* \"lib/openzeppelin-contracts/contracts/token/ERC20/ERC20.sol\":7570:7602  ERC20InvalidReceiver(address(0)) */\n  mload(0x40)\n  0xec442f0500000000000000000000000000000000000000000000000000000000\n  dup2\n  mstore\n  0x04\n  add\n  tag_27\n  swap2\n  swap1\n  tag_28\n  jump\t// in\ntag_27:\n  mload(0x40)\n  dup1\n  swap2\n  sub\n  swap1\n  revert\n    /* \"lib/openzeppelin-contracts/contracts/token/ERC20/ERC20.sol\":7522:7613  if (account == address(0)) {... */\ntag_26:\n    /* \"lib/openzeppelin-contracts/contracts/token/ERC20/ERC20.sol\":7622:7657  _update(address(0), account, value) */\n  tag_29\n    /* \"lib/openzeppelin-contracts/contracts/token/ERC20/ERC20.sol\":7638:7639  0 */\n  0x00\n    /* \"lib/openzeppelin-contracts/contracts/token/ERC20/ERC20.sol\":7642:7649  account */\n  dup4\n    /* \"lib/openzeppelin-contracts/contracts/token/ERC20/ERC20.sol\":7651:7656  value */\n  dup4\n    /* \"lib/openzeppelin-contracts/contracts/token/ERC20/ERC20.sol\":7622:7629  _update */\n  shl(0x20, tag_30)\n    /* \"lib/openzeppelin-contracts/contracts/token/ERC20/ERC20.sol\":7622:7657  _update(address(0), account, value) */\n  0x20\n  shr\n  jump\t// in\ntag_29:\n    /* \"lib/openzeppelin-contracts/contracts/token/ERC20/ERC20.sol\":7456:7664  function _mint(address account, uint256 value) internal {... */\n  pop\n  pop\n  jump\t// out\n    /* \"lib/openzeppelin-contracts/contracts/token/ERC20/ERC20.sol\":6006:7113  function _update(address from, address to, uint256 value) internal virtual {... */\ntag_30:\n    /* \"lib/openzeppelin-contracts/contracts/token/ERC20/ERC20.sol\":6111:6112  0 */\n  0x00\n    /* \"lib/openzeppelin-contracts/contracts/token/ERC20/ERC20.sol\":6095:6113  from == address(0) */\n  0xffffffffffffffffffffffffffffffffffffffff\n  and\n    /* \"lib/openzeppelin-contracts/contracts/token/ERC20/ERC20.sol\":6095:6099  from */\n  dup4\n    /* \"lib/openzeppelin-contracts/contracts/token/ERC20/ERC20.sol\":6095:6113  from == address(0) */\n  0xffffffffffffffffffffffffffffffffffffffff\n  and\n  sub\n    /* \"lib/openzeppelin-contracts/contracts/token/ERC20/ERC20.sol\":6091:6631  if (from == address(0)) {... */\n  tag_32\n  jumpi\n    /* \"lib/openzeppelin-contracts/contracts/token/ERC20/ERC20.sol\":6247:6252  value */\n  dup1\n    /* \"lib/openzeppelin-contracts/contracts/token/ERC20/ERC20.sol\":6231:6243  _totalSupply */\n  0x02\n  0x00\n    /* \"lib/openzeppelin-contracts/contracts/token/ERC20/ERC20.sol\":6231:6252  _totalSupply += value */\n  dup3\n  dup3\n  sload\n  tag_33\n  swap2\n  swap1\n  tag_34\n  jump\t// in\ntag_33:\n  swap3\n  pop\n  pop\n  dup2\n  swap1\n  sstore\n  pop\n    /* \"lib/openzeppelin-contracts/contracts/token/ERC20/ERC20.sol\":6091:6631  if (from == address(0)) {... */\n  jump(tag_35)\ntag_32:\n    /* \"lib/openzeppelin-contracts/contracts/token/ERC20/ERC20.sol\":6283:6302  uint256 fromBalance */\n  0x00\n    /* \"lib/openzeppelin-contracts/contracts/token/ERC20/ERC20.sol\":6305:6314  _balances */\n  dup1\n    /* \"lib/openzeppelin-contracts/contracts/token/ERC20/ERC20.sol\":6305:6320  _balances[from] */\n  0x00\n    /* \"lib/openzeppelin-contracts/contracts/token/ERC20/ERC20.sol\":6315:6319  from */\n  dup6\n    /* \"lib/openzeppelin-contracts/contracts/token/ERC20/ERC20.sol\":6305:6320  _balances[from] */\n  0xffffffffffffffffffffffffffffffffffffffff\n  and\n  0xffffffffffffffffffffffffffffffffffffffff\n  and\n  dup2\n  mstore\n  0x20\n  add\n  swap1\n  dup2\n  mstore\n  0x20\n  add\n  0x00\n  keccak256\n  sload\n    /* \"lib/openzeppelin-contracts/contracts/token/ERC20/ERC20.sol\":6283:6320  uint256 fromBalance = _balances[from] */\n  swap1\n  pop\n    /* \"lib/openzeppelin-contracts/contracts/token/ERC20/ERC20.sol\":6352:6357  value */\n  dup2\n    /* \"lib/openzeppelin-contracts/contracts/token/ERC20/ERC20.sol\":6338:6349  fromBalance */\n  dup2\n    /* \"lib/openzeppelin-contracts/contracts/token/ERC20/ERC20.sol\":6338:6357  fromBalance < value */\n  lt\n    /* \"lib/openzeppelin-contracts/contracts/token/ERC20/ERC20.sol\":6334:6449  if (fromBalance < value) {... */\n  iszero\n  tag_36\n  jumpi\n    /* \"lib/openzeppelin-contracts/contracts/token/ERC20/ERC20.sol\":6409:6413  from */\n  dup4\n    /* \"lib/openzeppelin-contracts/contracts/token/ERC20/ERC20.sol\":6415:6426  fromBalance */\n  dup2\n    /* \"lib/openzeppelin-contracts/contracts/token/ERC20/ERC20.sol\":6428:6433  value */\n  dup4\n    /* \"lib/openzeppelin-contracts/contracts/token/ERC20/ERC20.sol\":6384:6434  ERC20InsufficientBalance(from, fromBalance, value) */\n  mload(0x40)\n  0xe450d38c00000000000000000000000000000000000000000000000000000000\n  dup2\n  mstore\n  0x04\n  add\n  tag_37\n  swap4\n  swap3\n  swap2\n  swap1\n  tag_38\n  jump\t// in\ntag_37:\n  mload(0x40)\n  dup1\n  swap2\n  sub\n  swap1\n  revert\n    /* \"lib/openzeppelin-contracts/contracts/token/ERC20/ERC20.sol\":6334:6449  if (fromBalance < value) {... */\ntag_36:\n    /* \"lib/openzeppelin-contracts/contracts/token/ERC20/ERC20.sol\":6601:6606  value */\n  dup2\n    /* \"lib/openzeppelin-contracts/contracts/token/ERC20/ERC20.sol\":6587:6598  fromBalance */\n  dup2\n    /* \"lib/openzeppelin-contracts/contracts/token/ERC20/ERC20.sol\":6587:6606  fromBalance - value */\n  sub\n    /* \"lib/openzeppelin-contracts/contracts/token/ERC20/ERC20.sol\":6569:6578  _balances */\n  0x00\n    /* \"lib/openzeppelin-contracts/contracts/token/ERC20/ERC20.sol\":6569:6584  _balances[from] */\n  dup1\n    /* \"lib/openzeppelin-contracts/contracts/token/ERC20/ERC20.sol\":6579:6583  from */\n  dup7\n    /* \"lib/openzeppelin-contracts/contracts/token/ERC20/ERC20.sol\":6569:6584  _balances[from] */\n  0xffffffffffffffffffffffffffffffffffffffff\n  and\n  0xffffffffffffffffffffffffffffffffffffffff\n  and\n  dup2\n  mstore\n  0x20\n  add\n  swap1\n  dup2\n  mstore\n  0x20\n  add\n  0x00\n  keccak256\n    /* \"lib/openzeppelin-contracts/contracts/token/ERC20/ERC20.sol\":6569:6606  _balances[from] = fromBalance - value */\n  dup2\n  swap1\n  sstore\n  pop\n    /* \"lib/openzeppelin-contracts/contracts/token/ERC20/ERC20.sol\":6269:6631  {... */\n  pop\n    /* \"lib/openzeppelin-contracts/contracts/token/ERC20/ERC20.sol\":6091:6631  if (from == address(0)) {... */\ntag_35:\n    /* \"lib/openzeppelin-contracts/contracts/token/ERC20/ERC20.sol\":6659:6660  0 */\n  0x00\n    /* \"lib/openzeppelin-contracts/contracts/token/ERC20/ERC20.sol\":6645:6661  to == address(0) */\n  0xffffffffffffffffffffffffffffffffffffffff\n  and\n    /* \"lib/openzeppelin-contracts/contracts/token/ERC20/ERC20.sol\":6645:6647  to */\n  dup3\n    /* \"lib/openzeppelin-contracts/contracts/token/ERC20/ERC20.sol\":6645:6661  to == address(0) */\n  0xffffffffffffffffffffffffffffffffffffffff\n  and\n  sub\n    /* \"lib/openzeppelin-contracts/contracts/token/ERC20/ERC20.sol\":6641:7066  if (to == address(0)) {... */\n  tag_39\n  jumpi\n    /* \"lib/openzeppelin-contracts/contracts/token/ERC20/ERC20.sol\":6824:6829  value */\n  dup1\n    /* \"lib/openzeppelin-contracts/contracts/token/ERC20/ERC20.sol\":6808:6820  _totalSupply */\n  0x02\n  0x00\n    /* \"lib/openzeppelin-contracts/contracts/token/ERC20/ERC20.sol\":6808:6829  _totalSupply -= value */\n  dup3\n  dup3\n  sload\n  sub\n  swap3\n  pop\n  pop\n  dup2\n  swap1\n  sstore\n  pop\n    /* \"lib/openzeppelin-contracts/contracts/token/ERC20/ERC20.sol\":6641:7066  if (to == address(0)) {... */\n  jump(tag_40)\ntag_39:\n    /* \"lib/openzeppelin-contracts/contracts/token/ERC20/ERC20.sol\":7036:7041  value */\n  dup1\n    /* \"lib/openzeppelin-contracts/contracts/token/ERC20/ERC20.sol\":7019:7028  _balances */\n  0x00\n    /* \"lib/openzeppelin-contracts/contracts/token/ERC20/ERC20.sol\":7019:7032  _balances[to] */\n  dup1\n    /* \"lib/openzeppelin-contracts/contracts/token/ERC20/ERC20.sol\":7029:7031  to */\n  dup5\n    /* \"lib/openzeppelin-contracts/contracts/token/ERC20/ERC20.sol\":7019:7032  _balances[to] */\n  0xffffffffffffffffffffffffffffffffffffffff\n  and\n  0xffffffffffffffffffffffffffffffffffffffff\n  and\n  dup2\n  mstore\n  0x20\n  add\n  swap1\n  dup2\n  mstore\n  0x20\n  add\n  0x00\n  keccak256\n  0x00\n    /* \"lib/openzeppelin-contracts/contracts/token/ERC20/ERC20.sol\":7019:7041  _balances[to] += value */\n  dup3\n  dup3\n  sload\n  add\n  swap3\n  pop\n  pop\n  dup2\n  swap1\n  sstore\n  pop\n    /* \"lib/openzeppelin-contracts/contracts/token/ERC20/ERC20.sol\":6641:7066  if (to == address(0)) {... */\ntag_40:\n    /* \"lib/openzeppelin-contracts/contracts/token/ERC20/ERC20.sol\":7096:7098  to */\n  dup2\n    /* \"lib/openzeppelin-contracts/contracts/token/ERC20/ERC20.sol\":7081:7106  Transfer(from, to, value) */\n  0xffffffffffffffffffffffffffffffffffffffff\n  and\n    /* \"lib/openzeppelin-contracts/contracts/token/ERC20/ERC20.sol\":7090:7094  from */\n  dup4\n    /* \"lib/openzeppelin-contracts/contracts/token/ERC20/ERC20.sol\":7081:7106  Transfer(from, to, value) */\n  0xffffffffffffffffffffffffffffffffffffffff\n  and\n  0xddf252ad1be2c89b69c2b068fc378daa952ba7f163c4a11628f55a4df523b3ef\n    /* \"lib/openzeppelin-contracts/contracts/token/ERC20/ERC20.sol\":7100:7105  value */\n  dup4\n    /* \"lib/openzeppelin-contracts/contracts/token/ERC20/ERC20.sol\":7081:7106  Transfer(from, to, value) */\n  mload(0x40)\n  tag_41\n  swap2\n  swap1\n  tag_42\n  jump\t// in\ntag_41:\n  mload(0x40)\n  dup1\n  swap2\n  sub\n  swap1\n  log3\n    /* \"lib/openzeppelin-contracts/contracts/token/ERC20/ERC20.sol\":6006:7113  function _update(address from, address to, uint256 value) internal virtual {... */\n  pop\n  pop\n  pop\n  jump\t// out\n    /* \"#utility.yul\":7:106   */\ntag_43:\n    /* \"#utility.yul\":59:65   */\n  0x00\n    /* \"#utility.yul\":93:98   */\n  dup2\n    /* \"#utility.yul\":87:99   */\n  mload\n    /* \"#utility.yul\":77:99   */\n  swap1\n  pop\n    /* \"#utility.yul\":7:106   */\n  swap2\n  swap1\n  pop\n  jump\t// out\n    /* \"#utility.yul\":112:292   */\ntag_44:\n    /* \"#utility.yul\":160:237   */\n  0x4e487b7100000000000000000000000000000000000000000000000000000000\n    /* \"#utility.yul\":157:158   */\n  0x00\n    /* \"#utility.yul\":150:238   */\n  mstore\n    /* \"#utility.yul\":257:261   */\n  0x41\n    /* \"#utility.yul\":254:255   */\n  0x04\n    /* \"#utility.yul\":247:262   */\n  mstore\n    /* \"#utility.yul\":281:285   */\n  0x24\n    /* \"#utility.yul\":278:279   */\n  0x00\n    /* \"#utility.yul\":271:286   */\n  revert\n    /* \"#utility.yul\":298:478   */\ntag_45:\n    /* \"#utility.yul\":346:423   */\n  0x4e487b7100000000000000000000000000000000000000000000000000000000\n    /* \"#utility.yul\":343:344   */\n  0x00\n    /* \"#utility.yul\":336:424   */\n  mstore\n    /* \"#utility.yul\":443:447   */\n  0x22\n    /* \"#utility.yul\":440:441   */\n  0x04\n    /* \"#utility.yul\":433:448   */\n  mstore\n    /* \"#utility.yul\":467:471   */\n  0x24\n    /* \"#utility.yul\":464:465   */\n  0x00\n    /* \"#utility.yul\":457:472   */\n  revert\n    /* \"#utility.yul\":484:804   */\ntag_46:\n    /* \"#utility.yul\":528:534   */\n  0x00\n    /* \"#utility.yul\":565:566   */\n  0x02\n    /* \"#utility.yul\":559:563   */\n  dup3\n    /* \"#utility.yul\":555:567   */\n  div\n    /* \"#utility.yul\":545:567   */\n  swap1\n  pop\n    /* \"#utility.yul\":612:613   */\n  0x01\n    /* \"#utility.yul\":606:610   */\n  dup3\n    /* \"#utility.yul\":602:614   */\n  and\n    /* \"#utility.yul\":633:651   */\n  dup1\n    /* \"#utility.yul\":623:704   */\n  tag_93\n  jumpi\n    /* \"#utility.yul\":689:693   */\n  0x7f\n    /* \"#utility.yul\":681:687   */\n  dup3\n    /* \"#utility.yul\":677:694   */\n  and\n    /* \"#utility.yul\":667:694   */\n  swap2\n  pop\n    /* \"#utility.yul\":623:704   */\ntag_93:\n    /* \"#utility.yul\":751:753   */\n  0x20\n    /* \"#utility.yul\":743:749   */\n  dup3\n    /* \"#utility.yul\":740:754   */\n  lt\n    /* \"#utility.yul\":720:738   */\n  dup2\n    /* \"#utility.yul\":717:755   */\n  sub\n    /* \"#utility.yul\":714:798   */\n  tag_94\n  jumpi\n    /* \"#utility.yul\":770:788   */\n  tag_95\n  tag_45\n  jump\t// in\ntag_95:\n    /* \"#utility.yul\":714:798   */\ntag_94:\n    /* \"#utility.yul\":535:804   */\n  pop\n    /* \"#utility.yul\":484:804   */\n  swap2\n  swap1\n  pop\n  jump\t// out\n    /* \"#utility.yul\":810:951   */\ntag_47:\n    /* \"#utility.yul\":859:863   */\n  0x00\n    /* \"#utility.yul\":882:885   */\n  dup2\n    /* \"#utility.yul\":874:885   */\n  swap1\n  pop\n    /* \"#utility.yul\":905:908   */\n  dup2\n    /* \"#utility.yul\":902:903   */\n  0x00\n    /* \"#utility.yul\":895:909   */\n  mstore\n    /* \"#utility.yul\":939:943   */\n  0x20\n    /* \"#utility.yul\":936:937   */\n  0x00\n    /* \"#utility.yul\":926:944   */\n  keccak256\n    /* \"#utility.yul\":918:944   */\n  swap1\n  pop\n    /* \"#utility.yul\":810:951   */\n  swap2\n  swap1\n  pop\n  jump\t// out\n    /* \"#utility.yul\":957:1050   */\ntag_48:\n    /* \"#utility.yul\":994:1000   */\n  0x00\n    /* \"#utility.yul\":1041:1043   */\n  0x20\n    /* \"#utility.yul\":1036:1038   */\n  0x1f\n    /* \"#utility.yul\":1029:1034   */\n  dup4\n    /* \"#utility.yul\":1025:1039   */\n  add\n    /* \"#utility.yul\":1021:1044   */\n  div\n    /* \"#utility.yul\":1011:1044   */\n  swap1\n  pop\n    /* \"#utility.yul\":957:1050   */\n  swap2\n  swap1\n  pop\n  jump\t// out\n    /* \"#utility.yul\":1056:1163   */\ntag_49:\n    /* \"#utility.yul\":1100:1108   */\n  0x00\n    /* \"#utility.yul\":1150:1155   */\n  dup3\n    /* \"#utility.yul\":1144:1148   */\n  dup3\n    /* \"#utility.yul\":1140:1156   */\n  shl\n    /* \"#utility.yul\":1119:1156   */\n  swap1\n  pop\n    /* \"#utility.yul\":1056:1163   */\n  swap3\n  swap2\n  pop\n  pop\n  jump\t// out\n    /* \"#utility.yul\":1169:1562   */\ntag_50:\n    /* \"#utility.yul\":1238:1244   */\n  0x00\n    /* \"#utility.yul\":1288:1289   */\n  0x08\n    /* \"#utility.yul\":1276:1286   */\n  dup4\n    /* \"#utility.yul\":1272:1290   */\n  mul\n    /* \"#utility.yul\":1311:1408   */\n  tag_100\n    /* \"#utility.yul\":1341:1407   */\n  0xffffffffffffffffffffffffffffffffffffffffffffffffffffffffffffffff\n    /* \"#utility.yul\":1330:1339   */\n  dup3\n    /* \"#utility.yul\":1311:1408   */\n  tag_49\n  jump\t// in\ntag_100:\n    /* \"#utility.yul\":1429:1468   */\n  tag_101\n    /* \"#utility.yul\":1459:1467   */\n  dup7\n    /* \"#utility.yul\":1448:1457   */\n  dup4\n    /* \"#utility.yul\":1429:1468   */\n  tag_49\n  jump\t// in\ntag_101:\n    /* \"#utility.yul\":1417:1468   */\n  swap6\n  pop\n    /* \"#utility.yul\":1501:1505   */\n  dup1\n    /* \"#utility.yul\":1497:1506   */\n  not\n    /* \"#utility.yul\":1490:1495   */\n  dup5\n    /* \"#utility.yul\":1486:1507   */\n  and\n    /* \"#utility.yul\":1477:1507   */\n  swap4\n  pop\n    /* \"#utility.yul\":1550:1554   */\n  dup1\n    /* \"#utility.yul\":1540:1548   */\n  dup7\n    /* \"#utility.yul\":1536:1555   */\n  and\n    /* \"#utility.yul\":1529:1534   */\n  dup5\n    /* \"#utility.yul\":1526:1556   */\n  or\n    /* \"#utility.yul\":1516:1556   */\n  swap3\n  pop\n    /* \"#utility.yul\":1245:1562   */\n  pop\n  pop\n    /* \"#utility.yul\":1169:1562   */\n  swap4\n  swap3\n  pop\n  pop\n  pop\n  jump\t// out\n    /* \"#utility.yul\":1568:1645   */\ntag_51:\n    /* \"#utility.yul\":1605:1612   */\n  0x00\n    /* \"#utility.yul\":1634:1639   */\n  dup2\n    /* \"#utility.yul\":1623:1639   */\n  swap1\n  pop\n    /* \"#utility.yul\":1568:1645   */\n  swap2\n  swap1\n  pop\n  jump\t// out\n    /* \"#utility.yul\":1651:1711   */\ntag_52:\n    /* \"#utility.yul\":1679:1682   */\n  0x00\n    /* \"#utility.yul\":1700:1705   */\n  dup2\n    /* \"#utility.yul\":1693:1705   */\n  swap1\n  pop\n    /* \"#utility.yul\":1651:1711   */\n  swap2\n  swap1\n  pop\n  jump\t// out\n    /* \"#utility.yul\":1717:1859   */\ntag_53:\n    /* \"#utility.yul\":1767:1776   */\n  0x00\n    /* \"#utility.yul\":1800:1853   */\n  tag_105\n    /* \"#utility.yul\":1818:1852   */\n  tag_106\n    /* \"#utility.yul\":1827:1851   */\n  tag_107\n    /* \"#utility.yul\":1845:1850   */\n  dup5\n    /* \"#utility.yul\":1827:1851   */\n  tag_51\n  jump\t// in\ntag_107:\n    /* \"#utility.yul\":1818:1852   */\n  tag_52\n  jump\t// in\ntag_106:\n    /* \"#utility.yul\":1800:1853   */\n  tag_51\n  jump\t// in\ntag_105:\n    /* \"#utility.yul\":1787:1853   */\n  swap1\n  pop\n    /* \"#utility.yul\":1717:1859   */\n  swap2\n  swap1\n  pop\n  jump\t// out\n    /* \"#utility.yul\":1865:1940   */\ntag_54:\n    /* \"#utility.yul\":1908:1911   */\n  0x00\n    /* \"#utility.yul\":1929:1934   */\n  dup2\n    /* \"#utility.yul\":1922:1934   */\n  swap1\n  pop\n    /* \"#utility.yul\":1865:1940   */\n  swap2\n  swap1\n  pop\n  jump\t// out\n    /* \"#utility.yul\":1946:2215   */\ntag_55:\n    /* \"#utility.yul\":2056:2095   */\n  tag_110\n    /* \"#utility.yul\":2087:2094   */\n  dup4\n    /* \"#utility.yul\":2056:2095   */\n  tag_53\n  jump\t// in\ntag_110:\n    /* \"#utility.yul\":2117:2208   */\n  tag_111\n    /* \"#utility.yul\":2166:2207   */\n  tag_112\n    /* \"#utility.yul\":2190:2206   */\n  dup3\n    /* \"#utility.yul\":2166:2207   */\n  tag_54\n  jump\t// in\ntag_112:\n    /* \"#utility.yul\":2158:2164   */\n  dup5\n    /* \"#utility.yul\":2151:2155   */\n  dup5\n    /* \"#utility.yul\":2145:2156   */\n  sload\n    /* \"#utility.yul\":2117:2208   */\n  tag_50\n  jump\t// in\ntag_111:\n    /* \"#utility.yul\":2111:2115   */\n  dup3\n    /* \"#utility.yul\":2104:2209   */\n  sstore\n    /* \"#utility.yul\":2022:2215   */\n  pop\n    /* \"#utility.yul\":1946:2215   */\n  pop\n  pop\n  pop\n  jump\t// out\n    /* \"#utility.yul\":2221:2294   */\ntag_56:\n    /* \"#utility.yul\":2266:2269   */\n  0x00\n    /* \"#utility.yul\":2221:2294   */\n  swap1\n  jump\t// out\n    /* \"#utility.yul\":2300:2489   */\ntag_57:\n    /* \"#utility.yul\":2377:2409   */\n  tag_115\n  tag_56\n  jump\t// in\ntag_115:\n    /* \"#utility.yul\":2418:2483   */\n  tag_116\n    /* \"#utility.yul\":2476:2482   */\n  dup2\n    /* \"#utility.yul\":2468:2474   */\n  dup5\n    /* \"#utility.yul\":2462:2466   */\n  dup5\n    /* \"#utility.yul\":2418:2483   */\n  tag_55\n  jump\t// in\ntag_116:\n    /* \"#utility.yul\":2353:2489   */\n  pop\n    /* \"#utility.yul\":2300:2489   */\n  pop\n  pop\n  jump\t// out\n    /* \"#utility.yul\":2495:2681   */\ntag_58:\n    /* \"#utility.yul\":2555:2675   */\ntag_118:\n    /* \"#utility.yul\":2572:2575   */\n  dup2\n    /* \"#utility.yul\":2565:2570   */\n  dup2\n    /* \"#utility.yul\":2562:2576   */\n  lt\n    /* \"#utility.yul\":2555:2675   */\n  iszero\n  tag_120\n  jumpi\n    /* \"#utility.yul\":2626:2665   */\n  tag_121\n    /* \"#utility.yul\":2663:2664   */\n  0x00\n    /* \"#utility.yul\":2656:2661   */\n  dup3\n    /* \"#utility.yul\":2626:2665   */\n  tag_57\n  jump\t// in\ntag_121:\n    /* \"#utility.yul\":2599:2600   */\n  0x01\n    /* \"#utility.yul\":2592:2597   */\n  dup2\n    /* \"#utility.yul\":2588:2601   */\n  add\n    /* \"#utility.yul\":2579:2601   */\n  swap1\n  pop\n    /* \"#utility.yul\":2555:2675   */\n  jump(tag_118)\ntag_120:\n    /* \"#utility.yul\":2495:2681   */\n  pop\n  pop\n  jump\t// out\n    /* \"#utility.yul\":2687:3230   */\ntag_59:\n    /* \"#utility.yul\":2788:2790   */\n  0x1f\n    /* \"#utility.yul\":2783:2786   */\n  dup3\n    /* \"#utility.yul\":2780:2791   */\n  gt\n    /* \"#utility.yul\":2777:3223   */\n  iszero\n  tag_123\n  jumpi\n    /* \"#utility.yul\":2822:2860   */\n  tag_124\n    /* \"#utility.yul\":2854:2859   */\n  dup2\n    /* \"#utility.yul\":2822:2860   */\n  tag_47\n  jump\t// in\ntag_124:\n    /* \"#utility.yul\":2906:2935   */\n  tag_125\n    /* \"#utility.yul\":2924:2934   */\n  dup5\n    /* \"#utility.yul\":2906:2935   */\n  tag_48\n  jump\t// in\ntag_125:\n    /* \"#utility.yul\":2896:2904   */\n  dup2\n    /* \"#utility.yul\":2892:2936   */\n  add\n    /* \"#utility.yul\":3089:3091   */\n  0x20\n    /* \"#utility.yul\":3077:3087   */\n  dup6\n    /* \"#utility.yul\":3074:3092   */\n  lt\n    /* \"#utility.yul\":3071:3120   */\n  iszero\n  tag_126\n  jumpi\n    /* \"#utility.yul\":3110:3118   */\n  dup2\n    /* \"#utility.yul\":3095:3118   */\n  swap1\n  pop\n    /* \"#utility.yul\":3071:3120   */\ntag_126:\n    /* \"#utility.yul\":3133:3213   */\n  tag_127\n    /* \"#utility.yul\":3189:3211   */\n  tag_128\n    /* \"#utility.yul\":3207:3210   */\n  dup6\n    /* \"#utility.yul\":3189:3211   */\n  tag_48\n  jump\t// in\ntag_128:\n    /* \"#utility.yul\":3179:3187   */\n  dup4\n    /* \"#utility.yul\":3175:3212   */\n  add\n    /* \"#utility.yul\":3162:3173   */\n  dup3\n    /* \"#utility.yul\":3133:3213   */\n  tag_58\n  jump\t// in\ntag_127:\n    /* \"#utility.yul\":2792:3223   */\n  pop\n  pop\n    /* \"#utility.yul\":2777:3223   */\ntag_123:\n    /* \"#utility.yul\":2687:3230   */\n  pop\n  pop\n  pop\n  jump\t// out\n    /* \"#utility.yul\":3236:3353   */\ntag_60:\n    /* \"#utility.yul\":3290:3298   */\n  0x00\n    /* \"#utility.yul\":3340:3345   */\n  dup3\n    /* \"#utility.yul\":3334:3338   */\n  dup3\n    /* \"#utility.yul\":3330:3346   */\n  shr\n    /* \"#utility.yul\":3309:3346   */\n  swap1\n  pop\n    /* \"#utility.yul\":3236:3353   */\n  swap3\n  swap2\n  pop\n  pop\n  jump\t// out\n    /* \"#utility.yul\":3359:3528   */\ntag_61:\n    /* \"#utility.yul\":3403:3409   */\n  0x00\n    /* \"#utility.yul\":3436:3487   */\n  tag_131\n    /* \"#utility.yul\":3484:3485   */\n  0x00\n    /* \"#utility.yul\":3480:3486   */\n  not\n    /* \"#utility.yul\":3472:3477   */\n  dup5\n    /* \"#utility.yul\":3469:3470   */\n  0x08\n    /* \"#utility.yul\":3465:3478   */\n  mul\n    /* \"#utility.yul\":3436:3487   */\n  tag_60\n  jump\t// in\ntag_131:\n    /* \"#utility.yul\":3432:3488   */\n  not\n    /* \"#utility.yul\":3517:3521   */\n  dup1\n    /* \"#utility.yul\":3511:3515   */\n  dup4\n    /* \"#utility.yul\":3507:3522   */\n  and\n    /* \"#utility.yul\":3497:3522   */\n  swap2\n  pop\n    /* \"#utility.yul\":3410:3528   */\n  pop\n    /* \"#utility.yul\":3359:3528   */\n  swap3\n  swap2\n  pop\n  pop\n  jump\t// out\n    /* \"#utility.yul\":3533:3828   */\ntag_62:\n    /* \"#utility.yul\":3609:3613   */\n  0x00\n    /* \"#utility.yul\":3755:3784   */\n  tag_133\n    /* \"#utility.yul\":3780:3783   */\n  dup4\n    /* \"#utility.yul\":3774:3778   */\n  dup4\n    /* \"#utility.yul\":3755:3784   */\n  tag_61\n  jump\t// in\ntag_133:\n    /* \"#utility.yul\":3747:3784   */\n  swap2\n  pop\n    /* \"#utility.yul\":3817:3820   */\n  dup3\n    /* \"#utility.yul\":3814:3815   */\n  0x02\n    /* \"#utility.yul\":3810:3821   */\n  mul\n    /* \"#utility.yul\":3804:3808   */\n  dup3\n    /* \"#utility.yul\":3801:3822   */\n  or\n    /* \"#utility.yul\":3793:3822   */\n  swap1\n  pop\n    /* \"#utility.yul\":3533:3828   */\n  swap3\n  swap2\n  pop\n  pop\n  jump\t// out\n    /* \"#utility.yul\":3833:5228   */\ntag_2:\n    /* \"#utility.yul\":3950:3987   */\n  tag_135\n    /* \"#utility.yul\":3983:3986   */\n  dup3\n    /* \"#utility.yul\":3950:3987   */\n  tag_43\n  jump\t// in\ntag_135:\n    /* \"#utility.yul\":4052:4070   */\n  0xffffffffffffffff\n    /* \"#utility.yul\":4044:4050   */\n  dup2\n    /* \"#utility.yul\":4041:4071   */\n  gt\n    /* \"#utility.yul\":4038:4094   */\n  iszero\n  tag_136\n  jumpi\n    /* \"#utility.yul\":4074:4092   */\n  tag_137\n  tag_44\n  jump\t// in\ntag_137:\n    /* \"#utility.yul\":4038:4094   */\ntag_136:\n    /* \"#utility.yul\":4118:4156   */\n  tag_138\n    /* \"#utility.yul\":4150:4154   */\n  dup3\n    /* \"#utility.yul\":4144:4155   */\n  sload\n    /* \"#utility.yul\":4118:4156   */\n  tag_46\n  jump\t// in\ntag_138:\n    /* \"#utility.yul\":4203:4270   */\n  tag_139\n    /* \"#utility.yul\":4263:4269   */\n  dup3\n    /* \"#utility.yul\":4255:4261   */\n  dup3\n    /* \"#utility.yul\":4249:4253   */\n  dup6\n    /* \"#utility.yul\":4203:4270   */\n  tag_59\n  jump\t// in\ntag_139:\n    /* \"#utility.yul\":4297:4298   */\n  0x00\n    /* \"#utility.yul\":4321:4325   */\n  0x20\n    /* \"#utility.yul\":4308:4325   */\n  swap1\n  pop\n    /* \"#utility.yul\":4353:4355   */\n  0x1f\n    /* \"#utility.yul\":4345:4351   */\n  dup4\n    /* \"#utility.yul\":4342:4356   */\n  gt\n    /* \"#utility.yul\":4370:4371   */\n  0x01\n    /* \"#utility.yul\":4365:4983   */\n  dup2\n  eq\n  tag_141\n  jumpi\n    /* \"#utility.yul\":5027:5028   */\n  0x00\n    /* \"#utility.yul\":5044:5050   */\n  dup5\n    /* \"#utility.yul\":5041:5118   */\n  iszero\n  tag_142\n  jumpi\n    /* \"#utility.yul\":5093:5102   */\n  dup3\n    /* \"#utility.yul\":5088:5091   */\n  dup8\n    /* \"#utility.yul\":5084:5103   */\n  add\n    /* \"#utility.yul\":5078:5104   */\n  mload\n    /* \"#utility.yul\":5069:5104   */\n  swap1\n  pop\n    /* \"#utility.yul\":5041:5118   */\ntag_142:\n    /* \"#utility.yul\":5144:5211   */\n  tag_143\n    /* \"#utility.yul\":5204:5210   */\n  dup6\n    /* \"#utility.yul\":5197:5202   */\n  dup3\n    /* \"#utility.yul\":5144:5211   */\n  tag_62\n  jump\t// in\ntag_143:\n    /* \"#utility.yul\":5138:5142   */\n  dup7\n    /* \"#utility.yul\":5131:5212   */\n  sstore\n    /* \"#utility.yul\":5000:5222   */\n  pop\n    /* \"#utility.yul\":4335:5222   */\n  jump(tag_140)\n    /* \"#utility.yul\":4365:4983   */\ntag_141:\n    /* \"#utility.yul\":4417:4421   */\n  0x1f\n    /* \"#utility.yul\":4413:4422   */\n  not\n    /* \"#utility.yul\":4405:4411   */\n  dup5\n    /* \"#utility.yul\":4401:4423   */\n  and\n    /* \"#utility.yul\":4451:4488   */\n  tag_144\n    /* \"#utility.yul\":4483:4487   */\n  dup7\n    /* \"#utility.yul\":4451:4488   */\n  tag_47\n  jump\t// in\ntag_144:\n    /* \"#utility.yul\":4510:4511   */\n  0x00\n    /* \"#utility.yul\":4524:4732   */\ntag_145:\n    /* \"#utility.yul\":4538:4545   */\n  dup3\n    /* \"#utility.yul\":4535:4536   */\n  dup2\n    /* \"#utility.yul\":4532:4546   */\n  lt\n    /* \"#utility.yul\":4524:4732   */\n  iszero\n  tag_147\n  jumpi\n    /* \"#utility.yul\":4617:4626   */\n  dup5\n    /* \"#utility.yul\":4612:4615   */\n  dup10\n    /* \"#utility.yul\":4608:4627   */\n  add\n    /* \"#utility.yul\":4602:4628   */\n  mload\n    /* \"#utility.yul\":4594:4600   */\n  dup3\n    /* \"#utility.yul\":4587:4629   */\n  sstore\n    /* \"#utility.yul\":4668:4669   */\n  0x01\n    /* \"#utility.yul\":4660:4666   */\n  dup3\n    /* \"#utility.yul\":4656:4670   */\n  add\n    /* \"#utility.yul\":4646:4670   */\n  swap2\n  pop\n    /* \"#utility.yul\":4715:4717   */\n  0x20\n    /* \"#utility.yul\":4704:4713   */\n  dup6\n    /* \"#utility.yul\":4700:4718   */\n  add\n    /* \"#utility.yul\":4687:4718   */\n  swap5\n  pop\n    /* \"#utility.yul\":4561:4565   */\n  0x20\n    /* \"#utility.yul\":4558:4559   */\n  dup2\n    /* \"#utility.yul\":4554:4566   */\n  add\n    /* \"#utility.yul\":4549:4566   */\n  swap1\n  pop\n    /* \"#utility.yul\":4524:4732   */\n  jump(tag_145)\ntag_147:\n    /* \"#utility.yul\":4760:4766   */\n  dup7\n    /* \"#utility.yul\":4751:4758   */\n  dup4\n    /* \"#utility.yul\":4748:4767   */\n  lt\n    /* \"#utility.yul\":4745:4924   */\n  iszero\n  tag_148\n  jumpi\n    /* \"#utility.yul\":4818:4827   */\n  dup5\n    /* \"#utility.yul\":4813:4816   */\n  dup10\n    /* \"#utility.yul\":4809:4828   */\n  add\n    /* \"#utility.yul\":4803:4829   */\n  mload\n    /* \"#utility.yul\":4861:4909   */\n  tag_149\n    /* \"#utility.yul\":4903:4907   */\n  0x1f\n    /* \"#utility.yul\":4895:4901   */\n  dup10\n    /* \"#utility.yul\":4891:4908   */\n  and\n    /* \"#utility.yul\":4880:4889   */\n  dup3\n    /* \"#utility.yul\":4861:4909   */\n  tag_61\n  jump\t// in\ntag_149:\n    /* \"#utility.yul\":4853:4859   */\n  dup4\n    /* \"#utility.yul\":4846:4910   */\n  sstore\n    /* \"#utility.yul\":4768:4924   */\n  pop\n    /* \"#utility.yul\":4745:4924   */\ntag_148:\n    /* \"#utility.yul\":4970:4971   */\n  0x01\n    /* \"#utility.yul\":4966:4967   */\n  0x02\n    /* \"#utility.yul\":4958:4964   */\n  dup9\n    /* \"#utility.yul\":4954:4968   */\n  mul\n    /* \"#utility.yul\":4950:4972   */\n  add\n    /* \"#utility.yul\":4944:4948   */\n  dup9\n    /* \"#utility.yul\":4937:4973   */\n  sstore\n    /* \"#utility.yul\":4372:4983   */\n  pop\n  pop\n  pop\n    /* \"#utility.yul\":4335:5222   */\ntag_140:\n  pop\n    /* \"#utility.yul\":3925:5228   */\n  pop\n  pop\n  pop\n    /* \"#utility.yul\":3833:5228   */\n  pop\n  pop\n  jump\t// out\n    /* \"#utility.yul\":5234:5309   */\ntag_63:\n    /* \"#utility.yul\":5267:5273   */\n  0x00\n    /* \"#utility.yul\":5300:5302   */\n  0x40\n    /* \"#utility.yul\":5294:5303   */\n  mload\n    /* \"#utility.yul\":5284:5303   */\n  swap1\n  pop\n    /* \"#utility.yul\":5234:5309   */\n  swap1\n  jump\t// out\n    /* \"#utility.yul\":5315:5432   */\ntag_64:\n    /* \"#utility.yul\":5424:5425   */\n  0x00\n    /* \"#utility.yul\":5421:5422   */\n  dup1\n    /* \"#utility.yul\":5414:5426   */\n  revert\n    /* \"#utility.yul\":5438:5555   */\ntag_65:\n    /* \"#utility.yul\":5547:5548   */\n  0x00\n    /* \"#utility.yul\":5544:5545   */\n  dup1\n    /* \"#utility.yul\":5537:5549   */\n  revert\n    /* \"#utility.yul\":5561:5678   */\ntag_66:\n    /* \"#utility.yul\":5670:5671   */\n  0x00\n    /* \"#utility.yul\":5667:5668   */\n  dup1\n    /* \"#utility.yul\":5660:5672   */\n  revert\n    /* \"#utility.yul\":5684:5801   */\ntag_67:\n    /* \"#utility.yul\":5793:5794   */\n  0x00\n    /* \"#utility.yul\":5790:5791   */\n  dup1\n    /* \"#utility.yul\":5783:5795   */\n  revert\n    /* \"#utility.yul\":5807:5909   */\ntag_68:\n    /* \"#utility.yul\":5848:5854   */\n  0x00\n    /* \"#utility.yul\":5899:5901   */\n  0x1f\n    /* \"#utility.yul\":5895:5902   */\n  not\n    /* \"#utility.yul\":5890:5892   */\n  0x1f\n    /* \"#utility.yul\":5883:5888   */\n  dup4\n    /* \"#utility.yul\":5879:5893   */\n  add\n    /* \"#utility.yul\":5875:5903   */\n  and\n    /* \"#utility.yul\":5865:5903   */\n  swap1\n  pop\n    /* \"#utility.yul\":5807:5909   */\n  swap2\n  swap1\n  pop\n  jump\t// out\n    /* \"#utility.yul\":5915:6196   */\ntag_69:\n    /* \"#utility.yul\":5998:6025   */\n  tag_157\n    /* \"#utility.yul\":6020:6024   */\n  dup3\n    /* \"#utility.yul\":5998:6025   */\n  tag_68\n  jump\t// in\ntag_157:\n    /* \"#utility.yul\":5990:5996   */\n  dup2\n    /* \"#utility.yul\":5986:6026   */\n  add\n    /* \"#utility.yul\":6128:6134   */\n  dup2\n    /* \"#utility.yul\":6116:6126   */\n  dup2\n    /* \"#utility.yul\":6113:6135   */\n  lt\n    /* \"#utility.yul\":6092:6110   */\n  0xffffffffffffffff\n    /* \"#utility.yul\":6080:6090   */\n  dup3\n    /* \"#utility.yul\":6077:6111   */\n  gt\n    /* \"#utility.yul\":6074:6136   */\n  or\n    /* \"#utility.yul\":6071:6159   */\n  iszero\n  tag_158\n  jumpi\n    /* \"#utility.yul\":6139:6157   */\n  tag_159\n  tag_44\n  jump\t// in\ntag_159:\n    /* \"#utility.yul\":6071:6159   */\ntag_158:\n    /* \"#utility.yul\":6179:6189   */\n  dup1\n    /* \"#utility.yul\":6175:6177   */\n  0x40\n    /* \"#utility.yul\":6168:6190   */\n  mstore\n    /* \"#utility.yul\":5958:6196   */\n  pop\n    /* \"#utility.yul\":5915:6196   */\n  pop\n  pop\n  jump\t// out\n    /* \"#utility.yul\":6202:6331   */\ntag_70:\n    /* \"#utility.yul\":6236:6242   */\n  0x00\n    /* \"#utility.yul\":6263:6283   */\n  tag_161\n  tag_63\n  jump\t// in\ntag_161:\n    /* \"#utility.yul\":6253:6283   */\n  swap1\n  pop\n    /* \"#utility.yul\":6292:6325   */\n  tag_162\n    /* \"#utility.yul\":6320:6324   */\n  dup3\n    /* \"#utility.yul\":6312:6318   */\n  dup3\n    /* \"#utility.yul\":6292:6325   */\n  tag_69\n  jump\t// in\ntag_162:\n    /* \"#utility.yul\":6202:6331   */\n  swap2\n  swap1\n  pop\n  jump\t// out\n    /* \"#utility.yul\":6337:6645   */\ntag_71:\n    /* \"#utility.yul\":6399:6403   */\n  0x00\n    /* \"#utility.yul\":6489:6507   */\n  0xffffffffffffffff\n    /* \"#utility.yul\":6481:6487   */\n  dup3\n    /* \"#utility.yul\":6478:6508   */\n  gt\n    /* \"#utility.yul\":6475:6531   */\n  iszero\n  tag_164\n  jumpi\n    /* \"#utility.yul\":6511:6529   */\n  tag_165\n  tag_44\n  jump\t// in\ntag_165:\n    /* \"#utility.yul\":6475:6531   */\ntag_164:\n    /* \"#utility.yul\":6549:6578   */\n  tag_166\n    /* \"#utility.yul\":6571:6577   */\n  dup3\n    /* \"#utility.yul\":6549:6578   */\n  tag_68\n  jump\t// in\ntag_166:\n    /* \"#utility.yul\":6541:6578   */\n  swap1\n  pop\n    /* \"#utility.yul\":6633:6637   */\n  0x20\n    /* \"#utility.yul\":6627:6631   */\n  dup2\n    /* \"#utility.yul\":6623:6638   */\n  add\n    /* \"#utility.yul\":6615:6638   */\n  swap1\n  pop\n    /* \"#utility.yul\":6337:6645   */\n  swap2\n  swap1\n  pop\n  jump\t// out\n    /* \"#utility.yul\":6651:6897   */\ntag_72:\n    /* \"#utility.yul\":6732:6733   */\n  0x00\n    /* \"#utility.yul\":6742:6855   */\ntag_168:\n    /* \"#utility.yul\":6756:6762   */\n  dup4\n    /* \"#utility.yul\":6753:6754   */\n  dup2\n    /* \"#utility.yul\":6750:6763   */\n  lt\n    /* \"#utility.yul\":6742:6855   */\n  iszero\n  tag_170\n  jumpi\n    /* \"#utility.yul\":6841:6842   */\n  dup1\n    /* \"#utility.yul\":6836:6839   */\n  dup3\n    /* \"#utility.yul\":6832:6843   */\n  add\n    /* \"#utility.yul\":6826:6844   */\n  mload\n    /* \"#utility.yul\":6822:6823   */\n  dup2\n    /* \"#utility.yul\":6817:6820   */\n  dup5\n    /* \"#utility.yul\":6813:6824   */\n  add\n    /* \"#utility.yul\":6806:6845   */\n  mstore\n    /* \"#utility.yul\":6778:6780   */\n  0x20\n    /* \"#utility.yul\":6775:6776   */\n  dup2\n    /* \"#utility.yul\":6771:6781   */\n  add\n    /* \"#utility.yul\":6766:6781   */\n  swap1\n  pop\n    /* \"#utility.yul\":6742:6855   */\n  jump(tag_168)\ntag_170:\n    /* \"#utility.yul\":6889:6890   */\n  0x00\n    /* \"#utility.yul\":6880:6886   */\n  dup5\n    /* \"#utility.yul\":6875:6878   */\n  dup5\n    /* \"#utility.yul\":6871:6887   */\n  add\n    /* \"#utility.yul\":6864:6891   */\n  mstore\n    /* \"#utility.yul\":6713:6897   */\n  pop\n    /* \"#utility.yul\":6651:6897   */\n  pop\n  pop\n  pop\n  jump\t// out\n    /* \"#utility.yul\":6903:7337   */\ntag_73:\n    /* \"#utility.yul\":6992:6997   */\n  0x00\n    /* \"#utility.yul\":7017:7083   */\n  tag_172\n    /* \"#utility.yul\":7033:7082   */\n  tag_173\n    /* \"#utility.yul\":7075:7081   */\n  dup5\n    /* \"#utility.yul\":7033:7082   */\n  tag_71\n  jump\t// in\ntag_173:\n    /* \"#utility.yul\":7017:7083   */\n  tag_70\n  jump\t// in\ntag_172:\n    /* \"#utility.yul\":7008:7083   */\n  swap1\n  pop\n    /* \"#utility.yul\":7106:7112   */\n  dup3\n    /* \"#utility.yul\":7099:7104   */\n  dup2\n    /* \"#utility.yul\":7092:7113   */\n  mstore\n    /* \"#utility.yul\":7144:7148   */\n  0x20\n    /* \"#utility.yul\":7137:7142   */\n  dup2\n    /* \"#utility.yul\":7133:7149   */\n  add\n    /* \"#utility.yul\":7182:7185   */\n  dup5\n    /* \"#utility.yul\":7173:7179   */\n  dup5\n    /* \"#utility.yul\":7168:7171   */\n  dup5\n    /* \"#utility.yul\":7164:7180   */\n  add\n    /* \"#utility.yul\":7161:7186   */\n  gt\n    /* \"#utility.yul\":7158:7270   */\n  iszero\n  tag_174\n  jumpi\n    /* \"#utility.yul\":7189:7268   */\n  tag_175\n  tag_67\n  jump\t// in\ntag_175:\n    /* \"#utility.yul\":7158:7270   */\ntag_174:\n    /* \"#utility.yul\":7279:7331   */\n  tag_176\n    /* \"#utility.yul\":7324:7330   */\n  dup5\n    /* \"#utility.yul\":7319:7322   */\n  dup3\n    /* \"#utility.yul\":7314:7317   */\n  dup6\n    /* \"#utility.yul\":7279:7331   */\n  tag_72\n  jump\t// in\ntag_176:\n    /* \"#utility.yul\":6998:7337   */\n  pop\n    /* \"#utility.yul\":6903:7337   */\n  swap4\n  swap3\n  pop\n  pop\n  pop\n  jump\t// out\n    /* \"#utility.yul\":7357:7712   */\ntag_74:\n    /* \"#utility.yul\":7424:7429   */\n  0x00\n    /* \"#utility.yul\":7473:7476   */\n  dup3\n    /* \"#utility.yul\":7466:7470   */\n  0x1f\n    /* \"#utility.yul\":7458:7464   */\n  dup4\n    /* \"#utility.yul\":7454:7471   */\n  add\n    /* \"#utility.yul\":7450:7477   */\n  slt\n    /* \"#utility.yul\":7440:7562   */\n  tag_178\n  jumpi\n    /* \"#utility.yul\":7481:7560   */\n  tag_179\n  tag_66\n  jump\t// in\ntag_179:\n    /* \"#utility.yul\":7440:7562   */\ntag_178:\n    /* \"#utility.yul\":7591:7597   */\n  dup2\n    /* \"#utility.yul\":7585:7598   */\n  mload\n    /* \"#utility.yul\":7616:7706   */\n  tag_180\n    /* \"#utility.yul\":7702:7705   */\n  dup5\n    /* \"#utility.yul\":7694:7700   */\n  dup3\n    /* \"#utility.yul\":7687:7691   */\n  0x20\n    /* \"#utility.yul\":7679:7685   */\n  dup7\n    /* \"#utility.yul\":7675:7692   */\n  add\n    /* \"#utility.yul\":7616:7706   */\n  tag_73\n  jump\t// in\ntag_180:\n    /* \"#utility.yul\":7607:7706   */\n  swap2\n  pop\n    /* \"#utility.yul\":7430:7712   */\n  pop\n    /* \"#utility.yul\":7357:7712   */\n  swap3\n  swap2\n  pop\n  pop\n  jump\t// out\n    /* \"#utility.yul\":7718:7840   */\ntag_75:\n    /* \"#utility.yul\":7791:7815   */\n  tag_182\n    /* \"#utility.yul\":7809:7814   */\n  dup2\n    /* \"#utility.yul\":7791:7815   */\n  tag_51\n  jump\t// in\ntag_182:\n    /* \"#utility.yul\":7784:7789   */\n  dup2\n    /* \"#utility.yul\":7781:7816   */\n  eq\n    /* \"#utility.yul\":7771:7834   */\n  tag_183\n  jumpi\n    /* \"#utility.yul\":7830:7831   */\n  0x00\n    /* \"#utility.yul\":7827:7828   */\n  dup1\n    /* \"#utility.yul\":7820:7832   */\n  revert\n    /* \"#utility.yul\":7771:7834   */\ntag_183:\n    /* \"#utility.yul\":7718:7840   */\n  pop\n  jump\t// out\n    /* \"#utility.yul\":7846:7989   */\ntag_76:\n    /* \"#utility.yul\":7903:7908   */\n  0x00\n    /* \"#utility.yul\":7934:7940   */\n  dup2\n    /* \"#utility.yul\":7928:7941   */\n  mload\n    /* \"#utility.yul\":7919:7941   */\n  swap1\n  pop\n    /* \"#utility.yul\":7950:7983   */\n  tag_185\n    /* \"#utility.yul\":7977:7982   */\n  dup2\n    /* \"#utility.yul\":7950:7983   */\n  tag_75\n  jump\t// in\ntag_185:\n    /* \"#utility.yul\":7846:7989   */\n  swap3\n  swap2\n  pop\n  pop\n  jump\t// out\n    /* \"#utility.yul\":7995:8306   */\ntag_77:\n    /* \"#utility.yul\":8072:8076   */\n  0x00\n    /* \"#utility.yul\":8162:8180   */\n  0xffffffffffffffff\n    /* \"#utility.yul\":8154:8160   */\n  dup3\n    /* \"#utility.yul\":8151:8181   */\n  gt\n    /* \"#utility.yul\":8148:8204   */\n  iszero\n  tag_187\n  jumpi\n    /* \"#utility.yul\":8184:8202   */\n  tag_188\n  tag_44\n  jump\t// in\ntag_188:\n    /* \"#utility.yul\":8148:8204   */\ntag_187:\n    /* \"#utility.yul\":8234:8238   */\n  0x20\n    /* \"#utility.yul\":8226:8232   */\n  dup3\n    /* \"#utility.yul\":8222:8239   */\n  mul\n    /* \"#utility.yul\":8214:8239   */\n  swap1\n  pop\n    /* \"#utility.yul\":8294:8298   */\n  0x20\n    /* \"#utility.yul\":8288:8292   */\n  dup2\n    /* \"#utility.yul\":8284:8299   */\n  add\n    /* \"#utility.yul\":8276:8299   */\n  swap1\n  pop\n    /* \"#utility.yul\":7995:8306   */\n  swap2\n  swap1\n  pop\n  jump\t// out\n    /* \"#utility.yul\":8312:8429   */\ntag_78:\n    /* \"#utility.yul\":8421:8422   */\n  0x00\n    /* \"#utility.yul\":8418:8419   */\n  dup1\n    /* \"#utility.yul\":8411:8423   */\n  revert\n    /* \"#utility.yul\":8435:8561   */\ntag_79:\n    /* \"#utility.yul\":8472:8479   */\n  0x00\n    /* \"#utility.yul\":8512:8554   */\n  0xffffffffffffffffffffffffffffffffffffffff\n    /* \"#utility.yul\":8505:8510   */\n  dup3\n    /* \"#utility.yul\":8501:8555   */\n  and\n    /* \"#utility.yul\":8490:8555   */\n  swap1\n  pop\n    /* \"#utility.yul\":8435:8561   */\n  swap2\n  swap1\n  pop\n  jump\t// out\n    /* \"#utility.yul\":8567:8663   */\ntag_80:\n    /* \"#utility.yul\":8604:8611   */\n  0x00\n    /* \"#utility.yul\":8633:8657   */\n  tag_192\n    /* \"#utility.yul\":8651:8656   */\n  dup3\n    /* \"#utility.yul\":8633:8657   */\n  tag_79\n  jump\t// in\ntag_192:\n    /* \"#utility.yul\":8622:8657   */\n  swap1\n  pop\n    /* \"#utility.yul\":8567:8663   */\n  swap2\n  swap1\n  pop\n  jump\t// out\n    /* \"#utility.yul\":8669:8791   */\ntag_81:\n    /* \"#utility.yul\":8742:8766   */\n  tag_194\n    /* \"#utility.yul\":8760:8765   */\n  dup2\n    /* \"#utility.yul\":8742:8766   */\n  tag_80\n  jump\t// in\ntag_194:\n    /* \"#utility.yul\":8735:8740   */\n  dup2\n    /* \"#utility.yul\":8732:8767   */\n  eq\n    /* \"#utility.yul\":8722:8785   */\n  tag_195\n  jumpi\n    /* \"#utility.yul\":8781:8782   */\n  0x00\n    /* \"#utility.yul\":8778:8779   */\n  dup1\n    /* \"#utility.yul\":8771:8783   */\n  revert\n    /* \"#utility.yul\":8722:8785   */\ntag_195:\n    /* \"#utility.yul\":8669:8791   */\n  pop\n  jump\t// out\n    /* \"#utility.yul\":8797:8940   */\ntag_82:\n    /* \"#utility.yul\":8854:8859   */\n  0x00\n    /* \"#utility.yul\":8885:8891   */\n  dup2\n    /* \"#utility.yul\":8879:8892   */\n  mload\n    /* \"#utility.yul\":8870:8892   */\n  swap1\n  pop\n    /* \"#utility.yul\":8901:8934   */\n  tag_197\n    /* \"#utility.yul\":8928:8933   */\n  dup2\n    /* \"#utility.yul\":8901:8934   */\n  tag_81\n  jump\t// in\ntag_197:\n    /* \"#utility.yul\":8797:8940   */\n  swap3\n  swap2\n  pop\n  pop\n  jump\t// out\n    /* \"#utility.yul\":8963:9695   */\ntag_83:\n    /* \"#utility.yul\":9070:9075   */\n  0x00\n    /* \"#utility.yul\":9095:9176   */\n  tag_199\n    /* \"#utility.yul\":9111:9175   */\n  tag_200\n    /* \"#utility.yul\":9168:9174   */\n  dup5\n    /* \"#utility.yul\":9111:9175   */\n  tag_77\n  jump\t// in\ntag_200:\n    /* \"#utility.yul\":9095:9176   */\n  tag_70\n  jump\t// in\ntag_199:\n    /* \"#utility.yul\":9086:9176   */\n  swap1\n  pop\n    /* \"#utility.yul\":9196:9201   */\n  dup1\n    /* \"#utility.yul\":9225:9231   */\n  dup4\n    /* \"#utility.yul\":9218:9223   */\n  dup3\n    /* \"#utility.yul\":9211:9232   */\n  mstore\n    /* \"#utility.yul\":9259:9263   */\n  0x20\n    /* \"#utility.yul\":9252:9257   */\n  dup3\n    /* \"#utility.yul\":9248:9264   */\n  add\n    /* \"#utility.yul\":9241:9264   */\n  swap1\n  pop\n    /* \"#utility.yul\":9312:9316   */\n  0x20\n    /* \"#utility.yul\":9304:9310   */\n  dup5\n    /* \"#utility.yul\":9300:9317   */\n  mul\n    /* \"#utility.yul\":9292:9298   */\n  dup4\n    /* \"#utility.yul\":9288:9318   */\n  add\n    /* \"#utility.yul\":9341:9344   */\n  dup6\n    /* \"#utility.yul\":9333:9339   */\n  dup2\n    /* \"#utility.yul\":9330:9345   */\n  gt\n    /* \"#utility.yul\":9327:9449   */\n  iszero\n  tag_201\n  jumpi\n    /* \"#utility.yul\":9360:9439   */\n  tag_202\n  tag_78\n  jump\t// in\ntag_202:\n    /* \"#utility.yul\":9327:9449   */\ntag_201:\n    /* \"#utility.yul\":9475:9481   */\n  dup4\n    /* \"#utility.yul\":9458:9689   */\ntag_203:\n    /* \"#utility.yul\":9492:9498   */\n  dup2\n    /* \"#utility.yul\":9487:9490   */\n  dup2\n    /* \"#utility.yul\":9484:9499   */\n  lt\n    /* \"#utility.yul\":9458:9689   */\n  iszero\n  tag_205\n  jumpi\n    /* \"#utility.yul\":9567:9570   */\n  dup1\n    /* \"#utility.yul\":9596:9644   */\n  tag_206\n    /* \"#utility.yul\":9640:9643   */\n  dup9\n    /* \"#utility.yul\":9628:9638   */\n  dup3\n    /* \"#utility.yul\":9596:9644   */\n  tag_82\n  jump\t// in\ntag_206:\n    /* \"#utility.yul\":9591:9594   */\n  dup5\n    /* \"#utility.yul\":9584:9645   */\n  mstore\n    /* \"#utility.yul\":9674:9678   */\n  0x20\n    /* \"#utility.yul\":9669:9672   */\n  dup5\n    /* \"#utility.yul\":9665:9679   */\n  add\n    /* \"#utility.yul\":9658:9679   */\n  swap4\n  pop\n    /* \"#utility.yul\":9534:9689   */\n  pop\n    /* \"#utility.yul\":9518:9522   */\n  0x20\n    /* \"#utility.yul\":9513:9516   */\n  dup2\n    /* \"#utility.yul\":9509:9523   */\n  add\n    /* \"#utility.yul\":9502:9523   */\n  swap1\n  pop\n    /* \"#utility.yul\":9458:9689   */\n  jump(tag_203)\ntag_205:\n    /* \"#utility.yul\":9462:9483   */\n  pop\n    /* \"#utility.yul\":9076:9695   */\n  pop\n  pop\n    /* \"#utility.yul\":8963:9695   */\n  swap4\n  swap3\n  pop\n  pop\n  pop\n  jump\t// out\n    /* \"#utility.yul\":9718:10103   */\ntag_84:\n    /* \"#utility.yul\":9800:9805   */\n  0x00\n    /* \"#utility.yul\":9849:9852   */\n  dup3\n    /* \"#utility.yul\":9842:9846   */\n  0x1f\n    /* \"#utility.yul\":9834:9840   */\n  dup4\n    /* \"#utility.yul\":9830:9847   */\n  add\n    /* \"#utility.yul\":9826:9853   */\n  slt\n    /* \"#utility.yul\":9816:9938   */\n  tag_208\n  jumpi\n    /* \"#utility.yul\":9857:9936   */\n  tag_209\n  tag_66\n  jump\t// in\ntag_209:\n    /* \"#utility.yul\":9816:9938   */\ntag_208:\n    /* \"#utility.yul\":9967:9973   */\n  dup2\n    /* \"#utility.yul\":9961:9974   */\n  mload\n    /* \"#utility.yul\":9992:10097   */\n  tag_210\n    /* \"#utility.yul\":10093:10096   */\n  dup5\n    /* \"#utility.yul\":10085:10091   */\n  dup3\n    /* \"#utility.yul\":10078:10082   */\n  0x20\n    /* \"#utility.yul\":10070:10076   */\n  dup7\n    /* \"#utility.yul\":10066:10083   */\n  add\n    /* \"#utility.yul\":9992:10097   */\n  tag_83\n  jump\t// in\ntag_210:\n    /* \"#utility.yul\":9983:10097   */\n  swap2\n  pop\n    /* \"#utility.yul\":9806:10103   */\n  pop\n    /* \"#utility.yul\":9718:10103   */\n  swap3\n  swap2\n  pop\n  pop\n  jump\t// out\n    /* \"#utility.yul\":10109:11808   */\ntag_5:\n    /* \"#utility.yul\":10270:10276   */\n  0x00\n    /* \"#utility.yul\":10278:10284   */\n  dup1\n    /* \"#utility.yul\":10286:10292   */\n  0x00\n    /* \"#utility.yul\":10294:10300   */\n  dup1\n    /* \"#utility.yul\":10302:10308   */\n  0x00\n    /* \"#utility.yul\":10351:10354   */\n  0xa0\n    /* \"#utility.yul\":10339:10348   */\n  dup7\n    /* \"#utility.yul\":10330:10337   */\n  dup9\n    /* \"#utility.yul\":10326:10349   */\n  sub\n    /* \"#utility.yul\":10322:10355   */\n  slt\n    /* \"#utility.yul\":10319:10439   */\n  iszero\n  tag_212\n  jumpi\n    /* \"#utility.yul\":10358:10437   */\n  tag_213\n  tag_64\n  jump\t// in\ntag_213:\n    /* \"#utility.yul\":10319:10439   */\ntag_212:\n    /* \"#utility.yul\":10499:10500   */\n  0x00\n    /* \"#utility.yul\":10488:10497   */\n  dup7\n    /* \"#utility.yul\":10484:10501   */\n  add\n    /* \"#utility.yul\":10478:10502   */\n  mload\n    /* \"#utility.yul\":10529:10547   */\n  0xffffffffffffffff\n    /* \"#utility.yul\":10521:10527   */\n  dup2\n    /* \"#utility.yul\":10518:10548   */\n  gt\n    /* \"#utility.yul\":10515:10632   */\n  iszero\n  tag_214\n  jumpi\n    /* \"#utility.yul\":10551:10630   */\n  tag_215\n  tag_65\n  jump\t// in\ntag_215:\n    /* \"#utility.yul\":10515:10632   */\ntag_214:\n    /* \"#utility.yul\":10656:10730   */\n  tag_216\n    /* \"#utility.yul\":10722:10729   */\n  dup9\n    /* \"#utility.yul\":10713:10719   */\n  dup3\n    /* \"#utility.yul\":10702:10711   */\n  dup10\n    /* \"#utility.yul\":10698:10720   */\n  add\n    /* \"#utility.yul\":10656:10730   */\n  tag_74\n  jump\t// in\ntag_216:\n    /* \"#utility.yul\":10646:10730   */\n  swap6\n  pop\n    /* \"#utility.yul\":10449:10740   */\n  pop\n    /* \"#utility.yul\":10800:10802   */\n  0x20\n    /* \"#utility.yul\":10789:10798   */\n  dup7\n    /* \"#utility.yul\":10785:10803   */\n  add\n    /* \"#utility.yul\":10779:10804   */\n  mload\n    /* \"#utility.yul\":10831:10849   */\n  0xffffffffffffffff\n    /* \"#utility.yul\":10823:10829   */\n  dup2\n    /* \"#utility.yul\":10820:10850   */\n  gt\n    /* \"#utility.yul\":10817:10934   */\n  iszero\n  tag_217\n  jumpi\n    /* \"#utility.yul\":10853:10932   */\n  tag_218\n  tag_65\n  jump\t// in\ntag_218:\n    /* \"#utility.yul\":10817:10934   */\ntag_217:\n    /* \"#utility.yul\":10958:11032   */\n  tag_219\n    /* \"#utility.yul\":11024:11031   */\n  dup9\n    /* \"#utility.yul\":11015:11021   */\n  dup3\n    /* \"#utility.yul\":11004:11013   */\n  dup10\n    /* \"#utility.yul\":11000:11022   */\n  add\n    /* \"#utility.yul\":10958:11032   */\n  tag_74\n  jump\t// in\ntag_219:\n    /* \"#utility.yul\":10948:11032   */\n  swap5\n  pop\n    /* \"#utility.yul\":10750:11042   */\n  pop\n    /* \"#utility.yul\":11081:11083   */\n  0x40\n    /* \"#utility.yul\":11107:11171   */\n  tag_220\n    /* \"#utility.yul\":11163:11170   */\n  dup9\n    /* \"#utility.yul\":11154:11160   */\n  dup3\n    /* \"#utility.yul\":11143:11152   */\n  dup10\n    /* \"#utility.yul\":11139:11161   */\n  add\n    /* \"#utility.yul\":11107:11171   */\n  tag_76\n  jump\t// in\ntag_220:\n    /* \"#utility.yul\":11097:11171   */\n  swap4\n  pop\n    /* \"#utility.yul\":11052:11181   */\n  pop\n    /* \"#utility.yul\":11241:11243   */\n  0x60\n    /* \"#utility.yul\":11230:11239   */\n  dup7\n    /* \"#utility.yul\":11226:11244   */\n  add\n    /* \"#utility.yul\":11220:11245   */\n  mload\n    /* \"#utility.yul\":11272:11290   */\n  0xffffffffffffffff\n    /* \"#utility.yul\":11264:11270   */\n  dup2\n    /* \"#utility.yul\":11261:11291   */\n  gt\n    /* \"#utility.yul\":11258:11375   */\n  iszero\n  tag_221\n  jumpi\n    /* \"#utility.yul\":11294:11373   */\n  tag_222\n  tag_65\n  jump\t// in\ntag_222:\n    /* \"#utility.yul\":11258:11375   */\ntag_221:\n    /* \"#utility.yul\":11399:11488   */\n  tag_223\n    /* \"#utility.yul\":11480:11487   */\n  dup9\n    /* \"#utility.yul\":11471:11477   */\n  dup3\n    /* \"#utility.yul\":11460:11469   */\n  dup10\n    /* \"#utility.yul\":11456:11478   */\n  add\n    /* \"#utility.yul\":11399:11488   */\n  tag_84\n  jump\t// in\ntag_223:\n    /* \"#utility.yul\":11389:11488   */\n  swap3\n  pop\n    /* \"#utility.yul\":11191:11498   */\n  pop\n    /* \"#utility.yul\":11558:11561   */\n  0x80\n    /* \"#utility.yul\":11547:11556   */\n  dup7\n    /* \"#utility.yul\":11543:11562   */\n  add\n    /* \"#utility.yul\":11537:11563   */\n  mload\n    /* \"#utility.yul\":11590:11608   */\n  0xffffffffffffffff\n    /* \"#utility.yul\":11582:11588   */\n  dup2\n    /* \"#utility.yul\":11579:11609   */\n  gt\n    /* \"#utility.yul\":11576:11693   */\n  iszero\n  tag_224\n  jumpi\n    /* \"#utility.yul\":11612:11691   */\n  tag_225\n  tag_65\n  jump\t// in\ntag_225:\n    /* \"#utility.yul\":11576:11693   */\ntag_224:\n    /* \"#utility.yul\":11717:11791   */\n  tag_226\n    /* \"#utility.yul\":11783:11790   */\n  dup9\n    /* \"#utility.yul\":11774:11780   */\n  dup3\n    /* \"#utility.yul\":11763:11772   */\n  dup10\n    /* \"#utility.yul\":11759:11781   */\n  add\n    /* \"#utility.yul\":11717:11791   */\n  tag_74\n  jump\t// in\ntag_226:\n    /* \"#utility.yul\":11707:11791   */\n  swap2\n  pop\n    /* \"#utility.yul\":11508:11801   */\n  pop\n    /* \"#utility.yul\":10109:11808   */\n  swap3\n  swap6\n  pop\n  swap3\n  swap6\n  swap1\n  swap4\n  pop\n  jump\t// out\n    /* \"#utility.yul\":11814:11994   */\ntag_14:\n    /* \"#utility.yul\":11862:11939   */\n  0x4e487b7100000000000000000000000000000000000000000000000000000000\n    /* \"#utility.yul\":11859:11860   */\n  0x00\n    /* \"#utility.yul\":11852:11940   */\n  mstore\n    /* \"#utility.yul\":11959:11963   */\n  0x32\n    /* \"#utility.yul\":11956:11957   */\n  0x04\n    /* \"#utility.yul\":11949:11964   */\n  mstore\n    /* \"#utility.yul\":11983:11987   */\n  0x24\n    /* \"#utility.yul\":11980:11981   */\n  0x00\n    /* \"#utility.yul\":11973:11988   */\n  revert\n    /* \"#utility.yul\":12000:12118   */\ntag_85:\n    /* \"#utility.yul\":12087:12111   */\n  tag_229\n    /* \"#utility.yul\":12105:12110   */\n  dup2\n    /* \"#utility.yul\":12087:12111   */\n  tag_80\n  jump\t// in\ntag_229:\n    /* \"#utility.yul\":12082:12085   */\n  dup3\n    /* \"#utility.yul\":12075:12112   */\n  mstore\n    /* \"#utility.yul\":12000:12118   */\n  pop\n  pop\n  jump\t// out\n    /* \"#utility.yul\":12124:12346   */\ntag_28:\n    /* \"#utility.yul\":12217:12221   */\n  0x00\n    /* \"#utility.yul\":12255:12257   */\n  0x20\n    /* \"#utility.yul\":12244:12253   */\n  dup3\n    /* \"#utility.yul\":12240:12258   */\n  add\n    /* \"#utility.yul\":12232:12258   */\n  swap1\n  pop\n    /* \"#utility.yul\":12268:12339   */\n  tag_231\n    /* \"#utility.yul\":12336:12337   */\n  0x00\n    /* \"#utility.yul\":12325:12334   */\n  dup4\n    /* \"#utility.yul\":12321:12338   */\n  add\n    /* \"#utility.yul\":12312:12318   */\n  dup5\n    /* \"#utility.yul\":12268:12339   */\n  tag_85\n  jump\t// in\ntag_231:\n    /* \"#utility.yul\":12124:12346   */\n  swap3\n  swap2\n  pop\n  pop\n  jump\t// out\n    /* \"#utility.yul\":12352:12532   */\ntag_86:\n    /* \"#utility.yul\":12400:12477   */\n  0x4e487b7100000000000000000000000000000000000000000000000000000000\n    /* \"#utility.yul\":12397:12398   */\n  0x00\n    /* \"#utility.yul\":12390:12478   */\n  mstore\n    /* \"#utility.yul\":12497:12501   */\n  0x11\n    /* \"#utility.yul\":12494:12495   */\n  0x04\n    /* \"#utility.yul\":12487:12502   */\n  mstore\n    /* \"#utility.yul\":12521:12525   */\n  0x24\n    /* \"#utility.yul\":12518:12519   */\n  0x00\n    /* \"#utility.yul\":12511:12526   */\n  revert\n    /* \"#utility.yul\":12538:12729   */\ntag_34:\n    /* \"#utility.yul\":12578:12581   */\n  0x00\n    /* \"#utility.yul\":12597:12617   */\n  tag_234\n    /* \"#utility.yul\":12615:12616   */\n  dup3\n    /* \"#utility.yul\":12597:12617   */\n  tag_51\n  jump\t// in\ntag_234:\n    /* \"#utility.yul\":12592:12617   */\n  swap2\n  pop\n    /* \"#utility.yul\":12631:12651   */\n  tag_235\n    /* \"#utility.yul\":12649:12650   */\n  dup4\n    /* \"#utility.yul\":12631:12651   */\n  tag_51\n  jump\t// in\ntag_235:\n    /* \"#utility.yul\":12626:12651   */\n  swap3\n  pop\n    /* \"#utility.yul\":12674:12675   */\n  dup3\n    /* \"#utility.yul\":12671:12672   */\n  dup3\n    /* \"#utility.yul\":12667:12676   */\n  add\n    /* \"#utility.yul\":12660:12676   */\n  swap1\n  pop\n    /* \"#utility.yul\":12695:12698   */\n  dup1\n    /* \"#utility.yul\":12692:12693   */\n  dup3\n    /* \"#utility.yul\":12689:12699   */\n  gt\n    /* \"#utility.yul\":12686:12722   */\n  iszero\n  tag_236\n  jumpi\n    /* \"#utility.yul\":12702:12720   */\n  tag_237\n  tag_86\n  jump\t// in\ntag_237:\n    /* \"#utility.yul\":12686:12722   */\ntag_236:\n    /* \"#utility.yul\":12538:12729   */\n  swap3\n  swap2\n  pop\n  pop\n  jump\t// out\n    /* \"#utility.yul\":12735:12853   */\ntag_87:\n    /* \"#utility.yul\":12822:12846   */\n  tag_239\n    /* \"#utility.yul\":12840:12845   */\n  dup2\n    /* \"#utility.yul\":12822:12846   */\n  tag_51\n  jump\t// in\ntag_239:\n    /* \"#utility.yul\":12817:12820   */\n  dup3\n    /* \"#utility.yul\":12810:12847   */\n  mstore\n    /* \"#utility.yul\":12735:12853   */\n  pop\n  pop\n  jump\t// out\n    /* \"#utility.yul\":12859:13301   */\ntag_38:\n    /* \"#utility.yul\":13008:13012   */\n  0x00\n    /* \"#utility.yul\":13046:13048   */\n  0x60\n    /* \"#utility.yul\":13035:13044   */\n  dup3\n    /* \"#utility.yul\":13031:13049   */\n  add\n    /* \"#utility.yul\":13023:13049   */\n  swap1\n  pop\n    /* \"#utility.yul\":13059:13130   */\n  tag_241\n    /* \"#utility.yul\":13127:13128   */\n  0x00\n    /* \"#utility.yul\":13116:13125   */\n  dup4\n    /* \"#utility.yul\":13112:13129   */\n  add\n    /* \"#utility.yul\":13103:13109   */\n  dup7\n    /* \"#utility.yul\":13059:13130   */\n  tag_85\n  jump\t// in\ntag_241:\n    /* \"#utility.yul\":13140:13212   */\n  tag_242\n    /* \"#utility.yul\":13208:13210   */\n  0x20\n    /* \"#utility.yul\":13197:13206   */\n  dup4\n    /* \"#utility.yul\":13193:13211   */\n  add\n    /* \"#utility.yul\":13184:13190   */\n  dup6\n    /* \"#utility.yul\":13140:13212   */\n  tag_87\n  jump\t// in\ntag_242:\n    /* \"#utility.yul\":13222:13294   */\n  tag_243\n    /* \"#utility.yul\":13290:13292   */\n  0x40\n    /* \"#utility.yul\":13279:13288   */\n  dup4\n    /* \"#utility.yul\":13275:13293   */\n  add\n    /* \"#utility.yul\":13266:13272   */\n  dup5\n    /* \"#utility.yul\":13222:13294   */\n  tag_87\n  jump\t// in\ntag_243:\n    /* \"#utility.yul\":12859:13301   */\n  swap5\n  swap4\n  pop\n  pop\n  pop\n  pop\n  jump\t// out\n    /* \"#utility.yul\":13307:13529   */\ntag_42:\n    /* \"#utility.yul\":13400:13404   */\n  0x00\n    /* \"#utility.yul\":13438:13440   */\n  0x20\n    /* \"#utility.yul\":13427:13436   */\n  dup3\n    /* \"#utility.yul\":13423:13441   */\n  add\n    /* \"#utility.yul\":13415:13441   */\n  swap1\n  pop\n    /* \"#utility.yul\":13451:13522   */\n  tag_245\n    /* \"#utility.yul\":13519:13520   */\n  0x00\n    /* \"#utility.yul\":13508:13517   */\n  dup4\n    /* \"#utility.yul\":13504:13521   */\n  add\n    /* \"#utility.yul\":13495:13501   */\n  dup5\n    /* \"#utility.yul\":13451:13522   */\n  tag_87\n  jump\t// in\ntag_245:\n    /* \"#utility.yul\":13307:13529   */\n  swap3\n  swap2\n  pop\n  pop\n  jump\t// out\n    /* \"src/_Token.sol\":229:2987  contract _Token is ERC20 {... */\ntag_24:\n  mload(0x80)\n  mload(0xa0)\n  mload(0xc0)\n  mload(0xe0)\n  codecopy(0x00, dataOffset(sub_0), dataSize(sub_0))\n  0x00\n  assignImmutable(\"0x32390289b9a3eb6d483890ed29640a229fc9f283fde028575907589e3fbdc24f\")\n  0x00\n  assignImmutable(\"0x5192c7f75669ca0287240345ac757ca313b6b35719d108d92e530d5617eb4a60\")\n  0x00\n  assignImmutable(\"0x3ad1041c7fca4b981ec9df1cdec68238bc49ef0c518c8c6bf20002aeca8bde61\")\n  0x00\n  assignImmutable(\"0x91bb576fe1119b95673556c97f460f2730aaf5e50b5a2b3c73c380bf4786ebe1\")\n  return(0x00, dataSize(sub_0))\nstop\n\nsub_0: assembly {\n        /* \"src/_Token.sol\":229:2987  contract _Token is ERC20 {... */\n      mstore(0x40, 0x80)\n      callvalue\n      dup1\n      iszero\n      tag_1\n      jumpi\n      0x00\n      dup1\n      revert\n    tag_1:\n      pop\n      jumpi(tag_2, lt(calldatasize, 0x04))\n      shr(0xe0, calldataload(0x00))\n      dup1\n      0x64c9ec6f\n      gt\n      tag_22\n      jumpi\n      dup1\n      0xa9059cbb\n      gt\n      tag_23\n      jumpi\n      dup1\n      0xa9059cbb\n      eq\n      tag_17\n      jumpi\n      dup1\n      0xc45a0155\n      eq\n      tag_18\n      jumpi\n      dup1\n      0xdd62ed3e\n      eq\n      tag_19\n      jumpi\n      dup1\n      0xdfd9ef5f\n      eq\n      tag_20\n      jumpi\n      dup1\n      0xf8b1cb3c\n      eq\n      tag_21\n      jumpi\n      jump(tag_2)\n    tag_23:\n      dup1\n      0x64c9ec6f\n      eq\n      tag_12\n      jumpi\n      dup1\n      0x70a08231\n      eq\n      tag_13\n      jumpi\n      dup1\n      0x7a5b4f59\n      eq\n      tag_14\n      jumpi\n      dup1\n      0x95d89b41\n      eq\n      tag_15\n      jumpi\n      dup1\n      0xa71406b6\n      eq\n      tag_16\n      jumpi\n      jump(tag_2)\n    tag_22:\n      dup1\n      0x1615fd03\n      gt\n      tag_24\n      jumpi\n      dup1\n      0x1615fd03\n      eq\n      tag_7\n      jumpi\n      dup1\n      0x18160ddd\n      eq\n      tag_8\n      jumpi\n      dup1\n      0x23b872dd\n      eq\n      tag_9\n      jumpi\n      dup1\n      0x313ce567\n      eq\n      tag_10\n      jumpi\n      dup1\n      0x31a18ea1\n      eq\n      tag_11\n      jumpi\n      jump(tag_2)\n    tag_24:\n      dup1\n      0x024c2ddd\n      eq\n      tag_3\n      jumpi\n      dup1\n      0x02d05d3f\n      eq\n      tag_4\n      jumpi\n      dup1\n      0x06fdde03\n      eq\n      tag_5\n      jumpi\n      dup1\n      0x095ea7b3\n      eq\n      tag_6\n      jumpi\n    tag_2:\n      0x00\n      dup1\n      revert\n        /* \"lib/openzeppelin-contracts/contracts/token/ERC20/ERC20.sol\":1243:1325  mapping(address account => mapping(address spender => uint256)) public _allowances */\n    tag_3:\n      tag_25\n      0x04\n      dup1\n      calldatasize\n      sub\n      dup2\n      add\n      swap1\n      tag_26\n      swap2\n      swap1\n      tag_27\n      jump\t// in\n    tag_26:\n      tag_28\n      jump\t// in\n    tag_25:\n      mload(0x40)\n      tag_29\n      swap2\n      swap1\n      tag_30\n      jump\t// in\n    tag_29:\n      mload(0x40)\n      dup1\n      swap2\n      sub\n      swap1\n      return\n        /* \"src/_Token.sol\":565:597  address public immutable creator */\n    tag_4:\n      tag_31\n      tag_32\n      jump\t// in\n    tag_31:\n      mload(0x40)\n      tag_33\n      swap2\n      swap1\n      tag_34\n      jump\t// in\n    tag_33:\n      mload(0x40)\n      dup1\n      swap2\n      sub\n      swap1\n      return\n        /* \"lib/openzeppelin-contracts/contracts/token/ERC20/ERC20.sol\":1777:1866  function name() public view virtual returns (string memory) {... */\n    tag_5:\n      tag_35\n      tag_36\n      jump\t// in\n    tag_35:\n      mload(0x40)\n      tag_37\n      swap2\n      swap1\n      tag_38\n      jump\t// in\n    tag_37:\n      mload(0x40)\n      dup1\n      swap2\n      sub\n      swap1\n      return\n        /* \"src/_Token.sol\":2792:2984  function approve(address spender, uint256 amount) public override returns (bool) {... */\n    tag_6:\n      tag_39\n      0x04\n      dup1\n      calldatasize\n      sub\n      dup2\n      add\n      swap1\n      tag_40\n      swap2\n      swap1\n      tag_41\n      jump\t// in\n    tag_40:\n      tag_42\n      jump\t// in\n    tag_39:\n      mload(0x40)\n      tag_43\n      swap2\n      swap1\n      tag_44\n      jump\t// in\n    tag_43:\n      mload(0x40)\n      dup1\n      swap2\n      sub\n      swap1\n      return\n        /* \"src/_Token.sol\":643:676  address public immutable entities */\n    tag_7:\n      tag_45\n      tag_46\n      jump\t// in\n    tag_45:\n      mload(0x40)\n      tag_47\n      swap2\n      swap1\n      tag_34\n      jump\t// in\n    tag_47:\n      mload(0x40)\n      dup1\n      swap2\n      sub\n      swap1\n      return\n        /* \"lib/openzeppelin-contracts/contracts/token/ERC20/ERC20.sol\":2847:2944  function totalSupply() public view virtual returns (uint256) {... */\n    tag_8:\n      tag_48\n      tag_49\n      jump\t// in\n    tag_48:\n      mload(0x40)\n      tag_50\n      swap2\n      swap1\n      tag_30\n      jump\t// in\n    tag_50:\n      mload(0x40)\n      dup1\n      swap2\n      sub\n      swap1\n      return\n        /* \"src/_Token.sol\":2204:2784  function transferFrom(address from, address to, uint256 amount) public override returns (bool) {... */\n    tag_9:\n      tag_51\n      0x04\n      dup1\n      calldatasize\n      sub\n      dup2\n      add\n      swap1\n      tag_52\n      swap2\n      swap1\n      tag_53\n      jump\t// in\n    tag_52:\n      tag_54\n      jump\t// in\n    tag_51:\n      mload(0x40)\n      tag_55\n      swap2\n      swap1\n      tag_44\n      jump\t// in\n    tag_55:\n      mload(0x40)\n      dup1\n      swap2\n      sub\n      swap1\n      return\n        /* \"lib/openzeppelin-contracts/contracts/token/ERC20/ERC20.sol\":2705:2787  function decimals() public view virtual returns (uint8) {... */\n    tag_10:\n      tag_56\n      tag_57\n      jump\t// in\n    tag_56:\n      mload(0x40)\n      tag_58\n      swap2\n      swap1\n      tag_59\n      jump\t// in\n    tag_58:\n      mload(0x40)\n      dup1\n      swap2\n      sub\n      swap1\n      return\n        /* \"src/_Token.sol\":683:715  bool public isApprovable = false */\n    tag_11:\n      tag_60\n      tag_61\n      jump\t// in\n    tag_60:\n      mload(0x40)\n      tag_62\n      swap2\n      swap1\n      tag_44\n      jump\t// in\n    tag_62:\n      mload(0x40)\n      dup1\n      swap2\n      sub\n      swap1\n      return\n        /* \"src/_Token.sol\":529:558  address public immutable bond */\n    tag_12:\n      tag_63\n      tag_64\n      jump\t// in\n    tag_63:\n      mload(0x40)\n      tag_65\n      swap2\n      swap1\n      tag_34\n      jump\t// in\n    tag_65:\n      mload(0x40)\n      dup1\n      swap2\n      sub\n      swap1\n      return\n        /* \"lib/openzeppelin-contracts/contracts/token/ERC20/ERC20.sol\":3002:3118  function balanceOf(address account) public view virtual returns (uint256) {... */\n    tag_13:\n      tag_66\n      0x04\n      dup1\n      calldatasize\n      sub\n      dup2\n      add\n      swap1\n      tag_67\n      swap2\n      swap1\n      tag_68\n      jump\t// in\n    tag_67:\n      tag_69\n      jump\t// in\n    tag_66:\n      mload(0x40)\n      tag_70\n      swap2\n      swap1\n      tag_30\n      jump\t// in\n    tag_70:\n      mload(0x40)\n      dup1\n      swap2\n      sub\n      swap1\n      return\n        /* \"src/_Token.sol\":1294:1608  function getMetadata() public view returns (Metadata memory) {... */\n    tag_14:\n      tag_71\n      tag_72\n      jump\t// in\n    tag_71:\n      mload(0x40)\n      tag_73\n      swap2\n      swap1\n      tag_74\n      jump\t// in\n    tag_73:\n      mload(0x40)\n      dup1\n      swap2\n      sub\n      swap1\n      return\n        /* \"lib/openzeppelin-contracts/contracts/token/ERC20/ERC20.sol\":1979:2072  function symbol() public view virtual returns (string memory) {... */\n    tag_15:\n      tag_75\n      tag_76\n      jump\t// in\n    tag_75:\n      mload(0x40)\n      tag_77\n      swap2\n      swap1\n      tag_38\n      jump\t// in\n    tag_77:\n      mload(0x40)\n      dup1\n      swap2\n      sub\n      swap1\n      return\n        /* \"src/_Token.sol\":1616:1767  function setIsApprovable(bool _isApprovable) public {... */\n    tag_16:\n      tag_78\n      0x04\n      dup1\n      calldatasize\n      sub\n      dup2\n      add\n      swap1\n      tag_79\n      swap2\n      swap1\n      tag_80\n      jump\t// in\n    tag_79:\n      tag_81\n      jump\t// in\n    tag_78:\n      stop\n        /* \"src/_Token.sol\":1775:2196  function transfer(address to, uint256 amount) public override returns (bool) {... */\n    tag_17:\n      tag_82\n      0x04\n      dup1\n      calldatasize\n      sub\n      dup2\n      add\n      swap1\n      tag_83\n      swap2\n      swap1\n      tag_41\n      jump\t// in\n    tag_83:\n      tag_84\n      jump\t// in\n    tag_82:\n      mload(0x40)\n      tag_85\n      swap2\n      swap1\n      tag_44\n      jump\t// in\n    tag_85:\n      mload(0x40)\n      dup1\n      swap2\n      sub\n      swap1\n      return\n        /* \"src/_Token.sol\":604:636  address public immutable factory */\n    tag_18:\n      tag_86\n      tag_87\n      jump\t// in\n    tag_86:\n      mload(0x40)\n      tag_88\n      swap2\n      swap1\n      tag_34\n      jump\t// in\n    tag_88:\n      mload(0x40)\n      dup1\n      swap2\n      sub\n      swap1\n      return\n        /* \"lib/openzeppelin-contracts/contracts/token/ERC20/ERC20.sol\":3549:3689  function allowance(address owner, address spender) public view virtual returns (uint256) {... */\n    tag_19:\n      tag_89\n      0x04\n      dup1\n      calldatasize\n      sub\n      dup2\n      add\n      swap1\n      tag_90\n      swap2\n      swap1\n      tag_27\n      jump\t// in\n    tag_90:\n      tag_91\n      jump\t// in\n    tag_89:\n      mload(0x40)\n      tag_92\n      swap2\n      swap1\n      tag_30\n      jump\t// in\n    tag_92:\n      mload(0x40)\n      dup1\n      swap2\n      sub\n      swap1\n      return\n        /* \"src/_Token.sol\":763:788  string public bondVersion */\n    tag_20:\n      tag_93\n      tag_94\n      jump\t// in\n    tag_93:\n      mload(0x40)\n      tag_95\n      swap2\n      swap1\n      tag_38\n      jump\t// in\n    tag_95:\n      mload(0x40)\n      dup1\n      swap2\n      sub\n      swap1\n      return\n        /* \"src/_Token.sol\":724:756  string public versions = \"0.1.1\" */\n    tag_21:\n      tag_96\n      tag_97\n      jump\t// in\n    tag_96:\n      mload(0x40)\n      tag_98\n      swap2\n      swap1\n      tag_38\n      jump\t// in\n    tag_98:\n      mload(0x40)\n      dup1\n      swap2\n      sub\n      swap1\n      return\n        /* \"lib/openzeppelin-contracts/contracts/token/ERC20/ERC20.sol\":1243:1325  mapping(address account => mapping(address spender => uint256)) public _allowances */\n    tag_28:\n      mstore(0x20, 0x01)\n      dup2\n      0x00\n      mstore\n      mstore(0x20, keccak256(0x00, 0x40))\n      dup1\n      0x00\n      mstore\n      keccak256(0x00, 0x40)\n      0x00\n      swap2\n      pop\n      swap2\n      pop\n      pop\n      sload\n      dup2\n      jump\t// out\n        /* \"src/_Token.sol\":565:597  address public immutable creator */\n    tag_32:\n      immutable(\"0x3ad1041c7fca4b981ec9df1cdec68238bc49ef0c518c8c6bf20002aeca8bde61\")\n      dup2\n      jump\t// out\n        /* \"lib/openzeppelin-contracts/contracts/token/ERC20/ERC20.sol\":1777:1866  function name() public view virtual returns (string memory) {... */\n    tag_36:\n        /* \"lib/openzeppelin-contracts/contracts/token/ERC20/ERC20.sol\":1822:1835  string memory */\n      0x60\n        /* \"lib/openzeppelin-contracts/contracts/token/ERC20/ERC20.sol\":1854:1859  _name */\n      0x03\n        /* \"lib/openzeppelin-contracts/contracts/token/ERC20/ERC20.sol\":1847:1859  return _name */\n      dup1\n      sload\n      tag_100\n      swap1\n      tag_101\n      jump\t// in\n    tag_100:\n      dup1\n      0x1f\n      add\n      0x20\n      dup1\n      swap2\n      div\n      mul\n      0x20\n      add\n      mload(0x40)\n      swap1\n      dup2\n      add\n      0x40\n      mstore\n      dup1\n      swap3\n      swap2\n      swap1\n      dup2\n      dup2\n      mstore\n      0x20\n      add\n      dup3\n      dup1\n      sload\n      tag_102\n      swap1\n      tag_101\n      jump\t// in\n    tag_102:\n      dup1\n      iszero\n      tag_103\n      jumpi\n      dup1\n      0x1f\n      lt\n      tag_104\n      jumpi\n      0x0100\n      dup1\n      dup4\n      sload\n      div\n      mul\n      dup4\n      mstore\n      swap2\n      0x20\n      add\n      swap2\n      jump(tag_103)\n    tag_104:\n      dup3\n      add\n      swap2\n      swap1\n      0x00\n      mstore\n      keccak256(0x00, 0x20)\n      swap1\n    tag_105:\n      dup2\n      sload\n      dup2\n      mstore\n      swap1\n      0x01\n      add\n      swap1\n      0x20\n      add\n      dup1\n      dup4\n      gt\n      tag_105\n      jumpi\n      dup3\n      swap1\n      sub\n      0x1f\n      and\n      dup3\n      add\n      swap2\n    tag_103:\n      pop\n      pop\n      pop\n      pop\n      pop\n      swap1\n      pop\n        /* \"lib/openzeppelin-contracts/contracts/token/ERC20/ERC20.sol\":1777:1866  function name() public view virtual returns (string memory) {... */\n      swap1\n      jump\t// out\n        /* \"src/_Token.sol\":2792:2984  function approve(address spender, uint256 amount) public override returns (bool) {... */\n    tag_42:\n        /* \"src/_Token.sol\":2867:2871  bool */\n      0x00\n        /* \"src/_Token.sol\":2889:2901  isApprovable */\n      0x05\n      0x00\n      swap1\n      sload\n      swap1\n      0x0100\n      exp\n      swap1\n      div\n      0xff\n      and\n        /* \"src/_Token.sol\":2884:2926  if (!isApprovable) revert _NotApprovable() */\n      tag_107\n      jumpi\n        /* \"src/_Token.sol\":2910:2926  _NotApprovable() */\n      mload(0x40)\n      0x92a47300000000000000000000000000000000000000000000000000000000\n      dup2\n      mstore\n      0x04\n      add\n      mload(0x40)\n      dup1\n      swap2\n      sub\n      swap1\n      revert\n        /* \"src/_Token.sol\":2884:2926  if (!isApprovable) revert _NotApprovable() */\n    tag_107:\n        /* \"src/_Token.sol\":2946:2976  super.approve(spender, amount) */\n      tag_108\n        /* \"src/_Token.sol\":2960:2967  spender */\n      dup4\n        /* \"src/_Token.sol\":2969:2975  amount */\n      dup4\n        /* \"src/_Token.sol\":2946:2959  super.approve */\n      tag_109\n        /* \"src/_Token.sol\":2946:2976  super.approve(spender, amount) */\n      jump\t// in\n    tag_108:\n        /* \"src/_Token.sol\":2939:2976  return super.approve(spender, amount) */\n      swap1\n      pop\n        /* \"src/_Token.sol\":2792:2984  function approve(address spender, uint256 amount) public override returns (bool) {... */\n      swap3\n      swap2\n      pop\n      pop\n      jump\t// out\n        /* \"src/_Token.sol\":643:676  address public immutable entities */\n    tag_46:\n      immutable(\"0x32390289b9a3eb6d483890ed29640a229fc9f283fde028575907589e3fbdc24f\")\n      dup2\n      jump\t// out\n        /* \"lib/openzeppelin-contracts/contracts/token/ERC20/ERC20.sol\":2847:2944  function totalSupply() public view virtual returns (uint256) {... */\n    tag_49:\n        /* \"lib/openzeppelin-contracts/contracts/token/ERC20/ERC20.sol\":2899:2906  uint256 */\n      0x00\n        /* \"lib/openzeppelin-contracts/contracts/token/ERC20/ERC20.sol\":2925:2937  _totalSupply */\n      sload(0x02)\n        /* \"lib/openzeppelin-contracts/contracts/token/ERC20/ERC20.sol\":2918:2937  return _totalSupply */\n      swap1\n      pop\n        /* \"lib/openzeppelin-contracts/contracts/token/ERC20/ERC20.sol\":2847:2944  function totalSupply() public view virtual returns (uint256) {... */\n      swap1\n      jump\t// out\n        /* \"src/_Token.sol\":2204:2784  function transferFrom(address from, address to, uint256 amount) public override returns (bool) {... */\n    tag_54:\n        /* \"src/_Token.sol\":2293:2297  bool */\n      0x00\n        /* \"src/_Token.sol\":2315:2327  isApprovable */\n      0x05\n      0x00\n      swap1\n      sload\n      swap1\n      0x0100\n      exp\n      swap1\n      div\n      0xff\n      and\n        /* \"src/_Token.sol\":2310:2593  if (!isApprovable) {... */\n      tag_112\n      jumpi\n        /* \"src/_Token.sol\":2384:2392  entities */\n      immutable(\"0x32390289b9a3eb6d483890ed29640a229fc9f283fde028575907589e3fbdc24f\")\n        /* \"src/_Token.sol\":2365:2413  I_ExternalEntities(entities).isPregradRestricted */\n      0xffffffffffffffffffffffffffffffffffffffff\n      and\n      0xeb56a3bd\n        /* \"src/_Token.sol\":2422:2426  this */\n      address\n        /* \"src/_Token.sol\":2437:2439  to */\n      dup6\n        /* \"src/_Token.sol\":2365:2441  I_ExternalEntities(entities).isPregradRestricted(address(this), address(to)) */\n      mload(0x40)\n      dup4\n      0xffffffff\n      and\n      0xe0\n      shl\n      dup2\n      mstore\n      0x04\n      add\n      tag_113\n      swap3\n      swap2\n      swap1\n      tag_114\n      jump\t// in\n    tag_113:\n      0x20\n      mload(0x40)\n      dup1\n      dup4\n      sub\n      dup2\n      dup7\n      gas\n      staticcall\n      swap3\n      pop\n      pop\n      pop\n      dup1\n      iszero\n      tag_115\n      jumpi\n      pop\n      mload(0x40)\n      returndatasize\n      not(0x1f)\n      0x1f\n      dup3\n      add\n      and\n      dup3\n      add\n      dup1\n      0x40\n      mstore\n      pop\n      dup2\n      add\n      swap1\n      tag_116\n      swap2\n      swap1\n      tag_117\n      jump\t// in\n    tag_116:\n      0x01\n    tag_115:\n        /* \"src/_Token.sol\":2344:2566  try... */\n      iszero\n      tag_122\n      jumpi\n        /* \"src/_Token.sol\":2507:2520  _isRestricted */\n      dup1\n        /* \"src/_Token.sol\":2503:2541  if (_isRestricted) revert _Forbidden() */\n      iszero\n      tag_123\n      jumpi\n        /* \"src/_Token.sol\":2529:2541  _Forbidden() */\n      mload(0x40)\n      0x0bb766ef00000000000000000000000000000000000000000000000000000000\n      dup2\n      mstore\n      0x04\n      add\n      mload(0x40)\n      dup1\n      swap2\n      sub\n      swap1\n      revert\n        /* \"src/_Token.sol\":2503:2541  if (_isRestricted) revert _Forbidden() */\n    tag_123:\n        /* \"src/_Token.sol\":2455:2557  returns (bool _isRestricted) {... */\n      pop\n        /* \"src/_Token.sol\":2344:2566  try... */\n    tag_122:\n        /* \"src/_Token.sol\":2310:2593  if (!isApprovable) {... */\n    tag_112:\n        /* \"src/_Token.sol\":2634:2651  type(uint256).max */\n      0xffffffffffffffffffffffffffffffffffffffffffffffffffffffffffffffff\n        /* \"src/_Token.sol\":2607:2618  _allowances */\n      0x01\n        /* \"src/_Token.sol\":2607:2624  _allowances[from] */\n      0x00\n        /* \"src/_Token.sol\":2619:2623  from */\n      dup7\n        /* \"src/_Token.sol\":2607:2624  _allowances[from] */\n      0xffffffffffffffffffffffffffffffffffffffff\n      and\n      0xffffffffffffffffffffffffffffffffffffffff\n      and\n      dup2\n      mstore\n      0x20\n      add\n      swap1\n      dup2\n      mstore\n      0x20\n      add\n      0x00\n      keccak256\n        /* \"src/_Token.sol\":2607:2630  _allowances[from][bond] */\n      0x00\n        /* \"src/_Token.sol\":2625:2629  bond */\n      immutable(\"0x91bb576fe1119b95673556c97f460f2730aaf5e50b5a2b3c73c380bf4786ebe1\")\n        /* \"src/_Token.sol\":2607:2630  _allowances[from][bond] */\n      0xffffffffffffffffffffffffffffffffffffffff\n      and\n      0xffffffffffffffffffffffffffffffffffffffff\n      and\n      dup2\n      mstore\n      0x20\n      add\n      swap1\n      dup2\n      mstore\n      0x20\n      add\n      0x00\n      keccak256\n      sload\n        /* \"src/_Token.sol\":2607:2651  _allowances[from][bond] != type(uint256).max */\n      eq\n        /* \"src/_Token.sol\":2603:2723  if (_allowances[from][bond] != type(uint256).max) {... */\n      tag_124\n      jumpi\n        /* \"src/_Token.sol\":2694:2711  type(uint256).max */\n      0xffffffffffffffffffffffffffffffffffffffffffffffffffffffffffffffff\n        /* \"src/_Token.sol\":2668:2679  _allowances */\n      0x01\n        /* \"src/_Token.sol\":2668:2685  _allowances[from] */\n      0x00\n        /* \"src/_Token.sol\":2680:2684  from */\n      dup7\n        /* \"src/_Token.sol\":2668:2685  _allowances[from] */\n      0xffffffffffffffffffffffffffffffffffffffff\n      and\n      0xffffffffffffffffffffffffffffffffffffffff\n      and\n      dup2\n      mstore\n      0x20\n      add\n      swap1\n      dup2\n      mstore\n      0x20\n      add\n      0x00\n      keccak256\n        /* \"src/_Token.sol\":2668:2691  _allowances[from][bond] */\n      0x00\n        /* \"src/_Token.sol\":2686:2690  bond */\n      immutable(\"0x91bb576fe1119b95673556c97f460f2730aaf5e50b5a2b3c73c380bf4786ebe1\")\n        /* \"src/_Token.sol\":2668:2691  _allowances[from][bond] */\n      0xffffffffffffffffffffffffffffffffffffffff\n      and\n      0xffffffffffffffffffffffffffffffffffffffff\n      and\n      dup2\n      mstore\n      0x20\n      add\n      swap1\n      dup2\n      mstore\n      0x20\n      add\n      0x00\n      keccak256\n        /* \"src/_Token.sol\":2668:2711  _allowances[from][bond] = type(uint256).max */\n      dup2\n      swap1\n      sstore\n      pop\n        /* \"src/_Token.sol\":2603:2723  if (_allowances[from][bond] != type(uint256).max) {... */\n    tag_124:\n        /* \"src/_Token.sol\":2740:2776  super.transferFrom(from, to, amount) */\n      tag_125\n        /* \"src/_Token.sol\":2759:2763  from */\n      dup5\n        /* \"src/_Token.sol\":2765:2767  to */\n      dup5\n        /* \"src/_Token.sol\":2769:2775  amount */\n      dup5\n        /* \"src/_Token.sol\":2740:2758  super.transferFrom */\n      tag_126\n        /* \"src/_Token.sol\":2740:2776  super.transferFrom(from, to, amount) */\n      jump\t// in\n    tag_125:\n        /* \"src/_Token.sol\":2733:2776  return super.transferFrom(from, to, amount) */\n      swap1\n      pop\n        /* \"src/_Token.sol\":2204:2784  function transferFrom(address from, address to, uint256 amount) public override returns (bool) {... */\n      swap4\n      swap3\n      pop\n      pop\n      pop\n      jump\t// out\n        /* \"lib/openzeppelin-contracts/contracts/token/ERC20/ERC20.sol\":2705:2787  function decimals() public view virtual returns (uint8) {... */\n    tag_57:\n        /* \"lib/openzeppelin-contracts/contracts/token/ERC20/ERC20.sol\":2754:2759  uint8 */\n      0x00\n        /* \"lib/openzeppelin-contracts/contracts/token/ERC20/ERC20.sol\":2778:2780  18 */\n      0x12\n        /* \"lib/openzeppelin-contracts/contracts/token/ERC20/ERC20.sol\":2771:2780  return 18 */\n      swap1\n      pop\n        /* \"lib/openzeppelin-contracts/contracts/token/ERC20/ERC20.sol\":2705:2787  function decimals() public view virtual returns (uint8) {... */\n      swap1\n      jump\t// out\n        /* \"src/_Token.sol\":683:715  bool public isApprovable = false */\n    tag_61:\n      0x05\n      0x00\n      swap1\n      sload\n      swap1\n      0x0100\n      exp\n      swap1\n      div\n      0xff\n      and\n      dup2\n      jump\t// out\n        /* \"src/_Token.sol\":529:558  address public immutable bond */\n    tag_64:\n      immutable(\"0x91bb576fe1119b95673556c97f460f2730aaf5e50b5a2b3c73c380bf4786ebe1\")\n      dup2\n      jump\t// out\n        /* \"lib/openzeppelin-contracts/contracts/token/ERC20/ERC20.sol\":3002:3118  function balanceOf(address account) public view virtual returns (uint256) {... */\n    tag_69:\n        /* \"lib/openzeppelin-contracts/contracts/token/ERC20/ERC20.sol\":3067:3074  uint256 */\n      0x00\n        /* \"lib/openzeppelin-contracts/contracts/token/ERC20/ERC20.sol\":3093:3102  _balances */\n      dup1\n        /* \"lib/openzeppelin-contracts/contracts/token/ERC20/ERC20.sol\":3093:3111  _balances[account] */\n      0x00\n        /* \"lib/openzeppelin-contracts/contracts/token/ERC20/ERC20.sol\":3103:3110  account */\n      dup4\n        /* \"lib/openzeppelin-contracts/contracts/token/ERC20/ERC20.sol\":3093:3111  _balances[account] */\n      0xffffffffffffffffffffffffffffffffffffffff\n      and\n      0xffffffffffffffffffffffffffffffffffffffff\n      and\n      dup2\n      mstore\n      0x20\n      add\n      swap1\n      dup2\n      mstore\n      0x20\n      add\n      0x00\n      keccak256\n      sload\n        /* \"lib/openzeppelin-contracts/contracts/token/ERC20/ERC20.sol\":3086:3111  return _balances[account] */\n      swap1\n      pop\n        /* \"lib/openzeppelin-contracts/contracts/token/ERC20/ERC20.sol\":3002:3118  function balanceOf(address account) public view virtual returns (uint256) {... */\n      swap2\n      swap1\n      pop\n      jump\t// out\n        /* \"src/_Token.sol\":1294:1608  function getMetadata() public view returns (Metadata memory) {... */\n    tag_72:\n        /* \"src/_Token.sol\":1338:1353  Metadata memory */\n      tag_129\n      tag_130\n      jump\t// in\n    tag_129:\n        /* \"src/_Token.sol\":1386:1600  Metadata(... */\n      mload(0x40)\n      dup1\n      0xc0\n      add\n      0x40\n      mstore\n      dup1\n        /* \"src/_Token.sol\":1421:1425  this */\n      address\n        /* \"src/_Token.sol\":1386:1600  Metadata(... */\n      0xffffffffffffffffffffffffffffffffffffffff\n      and\n      dup2\n      mstore\n      0x20\n      add\n        /* \"src/_Token.sol\":1445:1449  this */\n      address\n        /* \"src/_Token.sol\":1445:1454  this.name */\n      0xffffffffffffffffffffffffffffffffffffffff\n      and\n      0x06fdde03\n        /* \"src/_Token.sol\":1445:1456  this.name() */\n      mload(0x40)\n      dup2\n      0xffffffff\n      and\n      0xe0\n      shl\n      dup2\n      mstore\n      0x04\n      add\n      0x00\n      mload(0x40)\n      dup1\n      dup4\n      sub\n      dup2\n      dup7\n      gas\n      staticcall\n      iszero\n      dup1\n      iszero\n      tag_133\n      jumpi\n      returndatasize\n      0x00\n      dup1\n      returndatacopy\n      revert(0x00, returndatasize)\n    tag_133:\n      pop\n      pop\n      pop\n      pop\n      mload(0x40)\n      returndatasize\n      0x00\n      dup3\n      returndatacopy\n      returndatasize\n      not(0x1f)\n      0x1f\n      dup3\n      add\n      and\n      dup3\n      add\n      dup1\n      0x40\n      mstore\n      pop\n      dup2\n      add\n      swap1\n      tag_134\n      swap2\n      swap1\n      tag_135\n      jump\t// in\n    tag_134:\n        /* \"src/_Token.sol\":1386:1600  Metadata(... */\n      dup2\n      mstore\n      0x20\n      add\n        /* \"src/_Token.sol\":1475:1479  this */\n      address\n        /* \"src/_Token.sol\":1475:1486  this.symbol */\n      0xffffffffffffffffffffffffffffffffffffffff\n      and\n      0x95d89b41\n        /* \"src/_Token.sol\":1475:1488  this.symbol() */\n      mload(0x40)\n      dup2\n      0xffffffff\n      and\n      0xe0\n      shl\n      dup2\n      mstore\n      0x04\n      add\n      0x00\n      mload(0x40)\n      dup1\n      dup4\n      sub\n      dup2\n      dup7\n      gas\n      staticcall\n      iszero\n      dup1\n      iszero\n      tag_137\n      jumpi\n      returndatasize\n      0x00\n      dup1\n      returndatacopy\n      revert(0x00, returndatasize)\n    tag_137:\n      pop\n      pop\n      pop\n      pop\n      mload(0x40)\n      returndatasize\n      0x00\n      dup3\n      returndatacopy\n      returndatasize\n      not(0x1f)\n      0x1f\n      dup3\n      add\n      and\n      dup3\n      add\n      dup1\n      0x40\n      mstore\n      pop\n      dup2\n      add\n      swap1\n      tag_138\n      swap2\n      swap1\n      tag_135\n      jump\t// in\n    tag_138:\n        /* \"src/_Token.sol\":1386:1600  Metadata(... */\n      dup2\n      mstore\n      0x20\n      add\n        /* \"src/_Token.sol\":1507:1511  this */\n      address\n        /* \"src/_Token.sol\":1507:1520  this.decimals */\n      0xffffffffffffffffffffffffffffffffffffffff\n      and\n      0x313ce567\n        /* \"src/_Token.sol\":1507:1522  this.decimals() */\n      mload(0x40)\n      dup2\n      0xffffffff\n      and\n      0xe0\n      shl\n      dup2\n      mstore\n      0x04\n      add\n      0x20\n      mload(0x40)\n      dup1\n      dup4\n      sub\n      dup2\n      dup7\n      gas\n      staticcall\n      iszero\n      dup1\n      iszero\n      tag_140\n      jumpi\n      returndatasize\n      0x00\n      dup1\n      returndatacopy\n      revert(0x00, returndatasize)\n    tag_140:\n      pop\n      pop\n      pop\n      pop\n      mload(0x40)\n      returndatasize\n      not(0x1f)\n      0x1f\n      dup3\n      add\n      and\n      dup3\n      add\n      dup1\n      0x40\n      mstore\n      pop\n      dup2\n      add\n      swap1\n      tag_141\n      swap2\n      swap1\n      tag_142\n      jump\t// in\n    tag_141:\n        /* \"src/_Token.sol\":1386:1600  Metadata(... */\n      0xff\n      and\n      dup2\n      mstore\n      0x20\n      add\n        /* \"src/_Token.sol\":1541:1545  this */\n      address\n        /* \"src/_Token.sol\":1541:1557  this.totalSupply */\n      0xffffffffffffffffffffffffffffffffffffffff\n      and\n      0x18160ddd\n        /* \"src/_Token.sol\":1541:1559  this.totalSupply() */\n      mload(0x40)\n      dup2\n      0xffffffff\n      and\n      0xe0\n      shl\n      dup2\n      mstore\n      0x04\n      add\n      0x20\n      mload(0x40)\n      dup1\n      dup4\n      sub\n      dup2\n      dup7\n      gas\n      staticcall\n      iszero\n      dup1\n      iszero\n      tag_144\n      jumpi\n      returndatasize\n      0x00\n      dup1\n      returndatacopy\n      revert(0x00, returndatasize)\n    tag_144:\n      pop\n      pop\n      pop\n      pop\n      mload(0x40)\n      returndatasize\n      not(0x1f)\n      0x1f\n      dup3\n      add\n      and\n      dup3\n      add\n      dup1\n      0x40\n      mstore\n      pop\n      dup2\n      add\n      swap1\n      tag_145\n      swap2\n      swap1\n      tag_146\n      jump\t// in\n    tag_145:\n        /* \"src/_Token.sol\":1386:1600  Metadata(... */\n      dup2\n      mstore\n      0x20\n      add\n        /* \"src/_Token.sol\":1578:1585  creator */\n      immutable(\"0x3ad1041c7fca4b981ec9df1cdec68238bc49ef0c518c8c6bf20002aeca8bde61\")\n        /* \"src/_Token.sol\":1386:1600  Metadata(... */\n      0xffffffffffffffffffffffffffffffffffffffff\n      and\n      dup2\n      mstore\n      pop\n        /* \"src/_Token.sol\":1366:1600  return... */\n      swap1\n      pop\n        /* \"src/_Token.sol\":1294:1608  function getMetadata() public view returns (Metadata memory) {... */\n      swap1\n      jump\t// out\n        /* \"lib/openzeppelin-contracts/contracts/token/ERC20/ERC20.sol\":1979:2072  function symbol() public view virtual returns (string memory) {... */\n    tag_76:\n        /* \"lib/openzeppelin-contracts/contracts/token/ERC20/ERC20.sol\":2026:2039  string memory */\n      0x60\n        /* \"lib/openzeppelin-contracts/contracts/token/ERC20/ERC20.sol\":2058:2065  _symbol */\n      0x04\n        /* \"lib/openzeppelin-contracts/contracts/token/ERC20/ERC20.sol\":2051:2065  return _symbol */\n      dup1\n      sload\n      tag_148\n      swap1\n      tag_101\n      jump\t// in\n    tag_148:\n      dup1\n      0x1f\n      add\n      0x20\n      dup1\n      swap2\n      div\n      mul\n      0x20\n      add\n      mload(0x40)\n      swap1\n      dup2\n      add\n      0x40\n      mstore\n      dup1\n      swap3\n      swap2\n      swap1\n      dup2\n      dup2\n      mstore\n      0x20\n      add\n      dup3\n      dup1\n      sload\n      tag_149\n      swap1\n      tag_101\n      jump\t// in\n    tag_149:\n      dup1\n      iszero\n      tag_150\n      jumpi\n      dup1\n      0x1f\n      lt\n      tag_151\n      jumpi\n      0x0100\n      dup1\n      dup4\n      sload\n      div\n      mul\n      dup4\n      mstore\n      swap2\n      0x20\n      add\n      swap2\n      jump(tag_150)\n    tag_151:\n      dup3\n      add\n      swap2\n      swap1\n      0x00\n      mstore\n      keccak256(0x00, 0x20)\n      swap1\n    tag_152:\n      dup2\n      sload\n      dup2\n      mstore\n      swap1\n      0x01\n      add\n      swap1\n      0x20\n      add\n      dup1\n      dup4\n      gt\n      tag_152\n      jumpi\n      dup3\n      swap1\n      sub\n      0x1f\n      and\n      dup3\n      add\n      swap2\n    tag_150:\n      pop\n      pop\n      pop\n      pop\n      pop\n      swap1\n      pop\n        /* \"lib/openzeppelin-contracts/contracts/token/ERC20/ERC20.sol\":1979:2072  function symbol() public view virtual returns (string memory) {... */\n      swap1\n      jump\t// out\n        /* \"src/_Token.sol\":1616:1767  function setIsApprovable(bool _isApprovable) public {... */\n    tag_81:\n        /* \"src/_Token.sol\":1697:1701  bond */\n      immutable(\"0x91bb576fe1119b95673556c97f460f2730aaf5e50b5a2b3c73c380bf4786ebe1\")\n        /* \"src/_Token.sol\":1683:1701  msg.sender != bond */\n      0xffffffffffffffffffffffffffffffffffffffff\n      and\n        /* \"src/_Token.sol\":1683:1693  msg.sender */\n      caller\n        /* \"src/_Token.sol\":1683:1701  msg.sender != bond */\n      0xffffffffffffffffffffffffffffffffffffffff\n      and\n      eq\n        /* \"src/_Token.sol\":1679:1720  if (msg.sender != bond) revert _Notbond() */\n      tag_154\n      jumpi\n        /* \"src/_Token.sol\":1710:1720  _Notbond() */\n      mload(0x40)\n      0xd6bce09500000000000000000000000000000000000000000000000000000000\n      dup2\n      mstore\n      0x04\n      add\n      mload(0x40)\n      dup1\n      swap2\n      sub\n      swap1\n      revert\n        /* \"src/_Token.sol\":1679:1720  if (msg.sender != bond) revert _Notbond() */\n    tag_154:\n        /* \"src/_Token.sol\":1746:1759  _isApprovable */\n      dup1\n        /* \"src/_Token.sol\":1731:1743  isApprovable */\n      0x05\n      0x00\n        /* \"src/_Token.sol\":1731:1759  isApprovable = _isApprovable */\n      0x0100\n      exp\n      dup2\n      sload\n      dup2\n      0xff\n      mul\n      not\n      and\n      swap1\n      dup4\n      iszero\n      iszero\n      mul\n      or\n      swap1\n      sstore\n      pop\n        /* \"src/_Token.sol\":1616:1767  function setIsApprovable(bool _isApprovable) public {... */\n      pop\n      jump\t// out\n        /* \"src/_Token.sol\":1775:2196  function transfer(address to, uint256 amount) public override returns (bool) {... */\n    tag_84:\n        /* \"src/_Token.sol\":1846:1850  bool */\n      0x00\n        /* \"src/_Token.sol\":1868:1880  isApprovable */\n      0x05\n      0x00\n      swap1\n      sload\n      swap1\n      0x0100\n      exp\n      swap1\n      div\n      0xff\n      and\n        /* \"src/_Token.sol\":1863:2145  if (!isApprovable) {... */\n      tag_156\n      jumpi\n        /* \"src/_Token.sol\":1937:1945  entities */\n      immutable(\"0x32390289b9a3eb6d483890ed29640a229fc9f283fde028575907589e3fbdc24f\")\n        /* \"src/_Token.sol\":1918:1966  I_ExternalEntities(entities).isPregradRestricted */\n      0xffffffffffffffffffffffffffffffffffffffff\n      and\n      0xeb56a3bd\n        /* \"src/_Token.sol\":1975:1979  this */\n      address\n        /* \"src/_Token.sol\":1990:1992  to */\n      dup6\n        /* \"src/_Token.sol\":1918:1994  I_ExternalEntities(entities).isPregradRestricted(address(this), address(to)) */\n      mload(0x40)\n      dup4\n      0xffffffff\n      and\n      0xe0\n      shl\n      dup2\n      mstore\n      0x04\n      add\n      tag_157\n      swap3\n      swap2\n      swap1\n      tag_114\n      jump\t// in\n    tag_157:\n      0x20\n      mload(0x40)\n      dup1\n      dup4\n      sub\n      dup2\n      dup7\n      gas\n      staticcall\n      swap3\n      pop\n      pop\n      pop\n      dup1\n      iszero\n      tag_158\n      jumpi\n      pop\n      mload(0x40)\n      returndatasize\n      not(0x1f)\n      0x1f\n      dup3\n      add\n      and\n      dup3\n      add\n      dup1\n      0x40\n      mstore\n      pop\n      dup2\n      add\n      swap1\n      tag_159\n      swap2\n      swap1\n      tag_117\n      jump\t// in\n    tag_159:\n      0x01\n    tag_158:\n        /* \"src/_Token.sol\":1897:2119  try... */\n      iszero\n      tag_164\n      jumpi\n        /* \"src/_Token.sol\":2060:2073  _isRestricted */\n      dup1\n        /* \"src/_Token.sol\":2056:2094  if (_isRestricted) revert _Forbidden() */\n      iszero\n      tag_165\n      jumpi\n        /* \"src/_Token.sol\":2082:2094  _Forbidden() */\n      mload(0x40)\n      0x0bb766ef00000000000000000000000000000000000000000000000000000000\n      dup2\n      mstore\n      0x04\n      add\n      mload(0x40)\n      dup1\n      swap2\n      sub\n      swap1\n      revert\n        /* \"src/_Token.sol\":2056:2094  if (_isRestricted) revert _Forbidden() */\n    tag_165:\n        /* \"src/_Token.sol\":2008:2110  returns (bool _isRestricted) {... */\n      pop\n        /* \"src/_Token.sol\":1897:2119  try... */\n    tag_164:\n        /* \"src/_Token.sol\":1863:2145  if (!isApprovable) {... */\n    tag_156:\n        /* \"src/_Token.sol\":2162:2188  super.transfer(to, amount) */\n      tag_166\n        /* \"src/_Token.sol\":2177:2179  to */\n      dup4\n        /* \"src/_Token.sol\":2181:2187  amount */\n      dup4\n        /* \"src/_Token.sol\":2162:2176  super.transfer */\n      tag_167\n        /* \"src/_Token.sol\":2162:2188  super.transfer(to, amount) */\n      jump\t// in\n    tag_166:\n        /* \"src/_Token.sol\":2155:2188  return super.transfer(to, amount) */\n      swap1\n      pop\n        /* \"src/_Token.sol\":1775:2196  function transfer(address to, uint256 amount) public override returns (bool) {... */\n      swap3\n      swap2\n      pop\n      pop\n      jump\t// out\n        /* \"src/_Token.sol\":604:636  address public immutable factory */\n    tag_87:\n      immutable(\"0x5192c7f75669ca0287240345ac757ca313b6b35719d108d92e530d5617eb4a60\")\n      dup2\n      jump\t// out\n        /* \"lib/openzeppelin-contracts/contracts/token/ERC20/ERC20.sol\":3549:3689  function allowance(address owner, address spender) public view virtual returns (uint256) {... */\n    tag_91:\n        /* \"lib/openzeppelin-contracts/contracts/token/ERC20/ERC20.sol\":3629:3636  uint256 */\n      0x00\n        /* \"lib/openzeppelin-contracts/contracts/token/ERC20/ERC20.sol\":3655:3666  _allowances */\n      0x01\n        /* \"lib/openzeppelin-contracts/contracts/token/ERC20/ERC20.sol\":3655:3673  _allowances[owner] */\n      0x00\n        /* \"lib/openzeppelin-contracts/contracts/token/ERC20/ERC20.sol\":3667:3672  owner */\n      dup5\n        /* \"lib/openzeppelin-contracts/contracts/token/ERC20/ERC20.sol\":3655:3673  _allowances[owner] */\n      0xffffffffffffffffffffffffffffffffffffffff\n      and\n      0xffffffffffffffffffffffffffffffffffffffff\n      and\n      dup2\n      mstore\n      0x20\n      add\n      swap1\n      dup2\n      mstore\n      0x20\n      add\n      0x00\n      keccak256\n        /* \"lib/openzeppelin-contracts/contracts/token/ERC20/ERC20.sol\":3655:3682  _allowances[owner][spender] */\n      0x00\n        /* \"lib/openzeppelin-contracts/contracts/token/ERC20/ERC20.sol\":3674:3681  spender */\n      dup4\n        /* \"lib/openzeppelin-contracts/contracts/token/ERC20/ERC20.sol\":3655:3682  _allowances[owner][spender] */\n      0xffffffffffffffffffffffffffffffffffffffff\n      and\n      0xffffffffffffffffffffffffffffffffffffffff\n      and\n      dup2\n      mstore\n      0x20\n      add\n      swap1\n      dup2\n      mstore\n      0x20\n      add\n      0x00\n      keccak256\n      sload\n        /* \"lib/openzeppelin-contracts/contracts/token/ERC20/ERC20.sol\":3648:3682  return _allowances[owner][spender] */\n      swap1\n      pop\n        /* \"lib/openzeppelin-contracts/contracts/token/ERC20/ERC20.sol\":3549:3689  function allowance(address owner, address spender) public view virtual returns (uint256) {... */\n      swap3\n      swap2\n      pop\n      pop\n      jump\t// out\n        /* \"src/_Token.sol\":763:788  string public bondVersion */\n    tag_94:\n      0x07\n      dup1\n      sload\n      tag_169\n      swap1\n      tag_101\n      jump\t// in\n    tag_169:\n      dup1\n      0x1f\n      add\n      0x20\n      dup1\n      swap2\n      div\n      mul\n      0x20\n      add\n      mload(0x40)\n      swap1\n      dup2\n      add\n      0x40\n      mstore\n      dup1\n      swap3\n      swap2\n      swap1\n      dup2\n      dup2\n      mstore\n      0x20\n      add\n      dup3\n      dup1\n      sload\n      tag_170\n      swap1\n      tag_101\n      jump\t// in\n    tag_170:\n      dup1\n      iszero\n      tag_171\n      jumpi\n      dup1\n      0x1f\n      lt\n      tag_172\n      jumpi\n      0x0100\n      dup1\n      dup4\n      sload\n      div\n      mul\n      dup4\n      mstore\n      swap2\n      0x20\n      add\n      swap2\n      jump(tag_171)\n    tag_172:\n      dup3\n      add\n      swap2\n      swap1\n      0x00\n      mstore\n      keccak256(0x00, 0x20)\n      swap1\n    tag_173:\n      dup2\n      sload\n      dup2\n      mstore\n      swap1\n      0x01\n      add\n      swap1\n      0x20\n      add\n      dup1\n      dup4\n      gt\n      tag_173\n      jumpi\n      dup3\n      swap1\n      sub\n      0x1f\n      and\n      dup3\n      add\n      swap2\n    tag_171:\n      pop\n      pop\n      pop\n      pop\n      pop\n      dup2\n      jump\t// out\n        /* \"src/_Token.sol\":724:756  string public versions = \"0.1.1\" */\n    tag_97:\n      0x06\n      dup1\n      sload\n      tag_174\n      swap1\n      tag_101\n      jump\t// in\n    tag_174:\n      dup1\n      0x1f\n      add\n      0x20\n      dup1\n      swap2\n      div\n      mul\n      0x20\n      add\n      mload(0x40)\n      swap1\n      dup2\n      add\n      0x40\n      mstore\n      dup1\n      swap3\n      swap2\n      swap1\n      dup2\n      dup2\n      mstore\n      0x20\n      add\n      dup3\n      dup1\n      sload\n      tag_175\n      swap1\n      tag_101\n      jump\t// in\n    tag_175:\n      dup1\n      iszero\n      tag_176\n      jumpi\n      dup1\n      0x1f\n      lt\n      tag_177\n      jumpi\n      0x0100\n      dup1\n      dup4\n      sload\n      div\n      mul\n      dup4\n      mstore\n      swap2\n      0x20\n      add\n      swap2\n      jump(tag_176)\n    tag_177:\n      dup3\n      add\n      swap2\n      swap1\n      0x00\n      mstore\n      keccak256(0x00, 0x20)\n      swap1\n    tag_178:\n      dup2\n      sload\n      dup2\n      mstore\n      swap1\n      0x01\n      add\n      swap1\n      0x20\n      add\n      dup1\n      dup4\n      gt\n      tag_178\n      jumpi\n      dup3\n      swap1\n      sub\n      0x1f\n      and\n      dup3\n      add\n      swap2\n    tag_176:\n      pop\n      pop\n      pop\n      pop\n      pop\n      dup2\n      jump\t// out\n        /* \"lib/openzeppelin-contracts/contracts/token/ERC20/ERC20.sol\":3996:4182  function approve(address spender, uint256 value) public virtual returns (bool) {... */\n    tag_109:\n        /* \"lib/openzeppelin-contracts/contracts/token/ERC20/ERC20.sol\":4069:4073  bool */\n      0x00\n        /* \"lib/openzeppelin-contracts/contracts/token/ERC20/ERC20.sol\":4085:4098  address owner */\n      dup1\n        /* \"lib/openzeppelin-contracts/contracts/token/ERC20/ERC20.sol\":4101:4113  _msgSender() */\n      tag_180\n        /* \"lib/openzeppelin-contracts/contracts/token/ERC20/ERC20.sol\":4101:4111  _msgSender */\n      tag_181\n        /* \"lib/openzeppelin-contracts/contracts/token/ERC20/ERC20.sol\":4101:4113  _msgSender() */\n      jump\t// in\n    tag_180:\n        /* \"lib/openzeppelin-contracts/contracts/token/ERC20/ERC20.sol\":4085:4113  address owner = _msgSender() */\n      swap1\n      pop\n        /* \"lib/openzeppelin-contracts/contracts/token/ERC20/ERC20.sol\":4123:4154  _approve(owner, spender, value) */\n      tag_182\n        /* \"lib/openzeppelin-contracts/contracts/token/ERC20/ERC20.sol\":4132:4137  owner */\n      dup2\n        /* \"lib/openzeppelin-contracts/contracts/token/ERC20/ERC20.sol\":4139:4146  spender */\n      dup6\n        /* \"lib/openzeppelin-contracts/contracts/token/ERC20/ERC20.sol\":4148:4153  value */\n      dup6\n        /* \"lib/openzeppelin-contracts/contracts/token/ERC20/ERC20.sol\":4123:4131  _approve */\n      tag_183\n        /* \"lib/openzeppelin-contracts/contracts/token/ERC20/ERC20.sol\":4123:4154  _approve(owner, spender, value) */\n      jump\t// in\n    tag_182:\n        /* \"lib/openzeppelin-contracts/contracts/token/ERC20/ERC20.sol\":4171:4175  true */\n      0x01\n        /* \"lib/openzeppelin-contracts/contracts/token/ERC20/ERC20.sol\":4164:4175  return true */\n      swap2\n      pop\n      pop\n        /* \"lib/openzeppelin-contracts/contracts/token/ERC20/ERC20.sol\":3996:4182  function approve(address spender, uint256 value) public virtual returns (bool) {... */\n      swap3\n      swap2\n      pop\n      pop\n      jump\t// out\n        /* \"lib/openzeppelin-contracts/contracts/token/ERC20/ERC20.sol\":4774:5018  function transferFrom(address from, address to, uint256 value) public virtual returns (bool) {... */\n    tag_126:\n        /* \"lib/openzeppelin-contracts/contracts/token/ERC20/ERC20.sol\":4861:4865  bool */\n      0x00\n        /* \"lib/openzeppelin-contracts/contracts/token/ERC20/ERC20.sol\":4877:4892  address spender */\n      dup1\n        /* \"lib/openzeppelin-contracts/contracts/token/ERC20/ERC20.sol\":4895:4907  _msgSender() */\n      tag_185\n        /* \"lib/openzeppelin-contracts/contracts/token/ERC20/ERC20.sol\":4895:4905  _msgSender */\n      tag_181\n        /* \"lib/openzeppelin-contracts/contracts/token/ERC20/ERC20.sol\":4895:4907  _msgSender() */\n      jump\t// in\n    tag_185:\n        /* \"lib/openzeppelin-contracts/contracts/token/ERC20/ERC20.sol\":4877:4907  address spender = _msgSender() */\n      swap1\n      pop\n        /* \"lib/openzeppelin-contracts/contracts/token/ERC20/ERC20.sol\":4917:4954  _spendAllowance(from, spender, value) */\n      tag_186\n        /* \"lib/openzeppelin-contracts/contracts/token/ERC20/ERC20.sol\":4933:4937  from */\n      dup6\n        /* \"lib/openzeppelin-contracts/contracts/token/ERC20/ERC20.sol\":4939:4946  spender */\n      dup3\n        /* \"lib/openzeppelin-contracts/contracts/token/ERC20/ERC20.sol\":4948:4953  value */\n      dup6\n        /* \"lib/openzeppelin-contracts/contracts/token/ERC20/ERC20.sol\":4917:4932  _spendAllowance */\n      tag_187\n        /* \"lib/openzeppelin-contracts/contracts/token/ERC20/ERC20.sol\":4917:4954  _spendAllowance(from, spender, value) */\n      jump\t// in\n    tag_186:\n        /* \"lib/openzeppelin-contracts/contracts/token/ERC20/ERC20.sol\":4964:4990  _transfer(from, to, value) */\n      tag_188\n        /* \"lib/openzeppelin-contracts/contracts/token/ERC20/ERC20.sol\":4974:4978  from */\n      dup6\n        /* \"lib/openzeppelin-contracts/contracts/token/ERC20/ERC20.sol\":4980:4982  to */\n      dup6\n        /* \"lib/openzeppelin-contracts/contracts/token/ERC20/ERC20.sol\":4984:4989  value */\n      dup6\n        /* \"lib/openzeppelin-contracts/contracts/token/ERC20/ERC20.sol\":4964:4973  _transfer */\n      tag_189\n        /* \"lib/openzeppelin-contracts/contracts/token/ERC20/ERC20.sol\":4964:4990  _transfer(from, to, value) */\n      jump\t// in\n    tag_188:\n        /* \"lib/openzeppelin-contracts/contracts/token/ERC20/ERC20.sol\":5007:5011  true */\n      0x01\n        /* \"lib/openzeppelin-contracts/contracts/token/ERC20/ERC20.sol\":5000:5011  return true */\n      swap2\n      pop\n      pop\n        /* \"lib/openzeppelin-contracts/contracts/token/ERC20/ERC20.sol\":4774:5018  function transferFrom(address from, address to, uint256 value) public virtual returns (bool) {... */\n      swap4\n      swap3\n      pop\n      pop\n      pop\n      jump\t// out\n        /* \"lib/openzeppelin-contracts/contracts/token/ERC20/ERC20.sol\":3313:3491  function transfer(address to, uint256 value) public virtual returns (bool) {... */\n    tag_167:\n        /* \"lib/openzeppelin-contracts/contracts/token/ERC20/ERC20.sol\":3382:3386  bool */\n      0x00\n        /* \"lib/openzeppelin-contracts/contracts/token/ERC20/ERC20.sol\":3398:3411  address owner */\n      dup1\n        /* \"lib/openzeppelin-contracts/contracts/token/ERC20/ERC20.sol\":3414:3426  _msgSender() */\n      tag_191\n        /* \"lib/openzeppelin-contracts/contracts/token/ERC20/ERC20.sol\":3414:3424  _msgSender */\n      tag_181\n        /* \"lib/openzeppelin-contracts/contracts/token/ERC20/ERC20.sol\":3414:3426  _msgSender() */\n      jump\t// in\n    tag_191:\n        /* \"lib/openzeppelin-contracts/contracts/token/ERC20/ERC20.sol\":3398:3426  address owner = _msgSender() */\n      swap1\n      pop\n        /* \"lib/openzeppelin-contracts/contracts/token/ERC20/ERC20.sol\":3436:3463  _transfer(owner, to, value) */\n      tag_192\n        /* \"lib/openzeppelin-contracts/contracts/token/ERC20/ERC20.sol\":3446:3451  owner */\n      dup2\n        /* \"lib/openzeppelin-contracts/contracts/token/ERC20/ERC20.sol\":3453:3455  to */\n      dup6\n        /* \"lib/openzeppelin-contracts/contracts/token/ERC20/ERC20.sol\":3457:3462  value */\n      dup6\n        /* \"lib/openzeppelin-contracts/contracts/token/ERC20/ERC20.sol\":3436:3445  _transfer */\n      tag_189\n        /* \"lib/openzeppelin-contracts/contracts/token/ERC20/ERC20.sol\":3436:3463  _transfer(owner, to, value) */\n      jump\t// in\n    tag_192:\n        /* \"lib/openzeppelin-contracts/contracts/token/ERC20/ERC20.sol\":3480:3484  true */\n      0x01\n        /* \"lib/openzeppelin-contracts/contracts/token/ERC20/ERC20.sol\":3473:3484  return true */\n      swap2\n      pop\n      pop\n        /* \"lib/openzeppelin-contracts/contracts/token/ERC20/ERC20.sol\":3313:3491  function transfer(address to, uint256 value) public virtual returns (bool) {... */\n      swap3\n      swap2\n      pop\n      pop\n      jump\t// out\n        /* \"lib/openzeppelin-contracts/contracts/utils/Context.sol\":655:751  function _msgSender() internal view virtual returns (address) {... */\n    tag_181:\n        /* \"lib/openzeppelin-contracts/contracts/utils/Context.sol\":708:715  address */\n      0x00\n        /* \"lib/openzeppelin-contracts/contracts/utils/Context.sol\":734:744  msg.sender */\n      caller\n        /* \"lib/openzeppelin-contracts/contracts/utils/Context.sol\":727:744  return msg.sender */\n      swap1\n      pop\n        /* \"lib/openzeppelin-contracts/contracts/utils/Context.sol\":655:751  function _msgSender() internal view virtual returns (address) {... */\n      swap1\n      jump\t// out\n        /* \"lib/openzeppelin-contracts/contracts/token/ERC20/ERC20.sol\":8724:8852  function _approve(address owner, address spender, uint256 value) internal {... */\n    tag_183:\n        /* \"lib/openzeppelin-contracts/contracts/token/ERC20/ERC20.sol\":8808:8845  _approve(owner, spender, value, true) */\n      tag_195\n        /* \"lib/openzeppelin-contracts/contracts/token/ERC20/ERC20.sol\":8817:8822  owner */\n      dup4\n        /* \"lib/openzeppelin-contracts/contracts/token/ERC20/ERC20.sol\":8824:8831  spender */\n      dup4\n        /* \"lib/openzeppelin-contracts/contracts/token/ERC20/ERC20.sol\":8833:8838  value */\n      dup4\n        /* \"lib/openzeppelin-contracts/contracts/token/ERC20/ERC20.sol\":8840:8844  true */\n      0x01\n        /* \"lib/openzeppelin-contracts/contracts/token/ERC20/ERC20.sol\":8808:8816  _approve */\n      tag_196\n        /* \"lib/openzeppelin-contracts/contracts/token/ERC20/ERC20.sol\":8808:8845  _approve(owner, spender, value, true) */\n      jump\t// in\n    tag_195:\n        /* \"lib/openzeppelin-contracts/contracts/token/ERC20/ERC20.sol\":8724:8852  function _approve(address owner, address spender, uint256 value) internal {... */\n      pop\n      pop\n      pop\n      jump\t// out\n        /* \"lib/openzeppelin-contracts/contracts/token/ERC20/ERC20.sol\":10413:10890  function _spendAllowance(address owner, address spender, uint256 value) internal virtual {... */\n    tag_187:\n        /* \"lib/openzeppelin-contracts/contracts/token/ERC20/ERC20.sol\":10512:10536  uint256 currentAllowance */\n      0x00\n        /* \"lib/openzeppelin-contracts/contracts/token/ERC20/ERC20.sol\":10539:10564  allowance(owner, spender) */\n      tag_198\n        /* \"lib/openzeppelin-contracts/contracts/token/ERC20/ERC20.sol\":10549:10554  owner */\n      dup5\n        /* \"lib/openzeppelin-contracts/contracts/token/ERC20/ERC20.sol\":10556:10563  spender */\n      dup5\n        /* \"lib/openzeppelin-contracts/contracts/token/ERC20/ERC20.sol\":10539:10548  allowance */\n      tag_91\n        /* \"lib/openzeppelin-contracts/contracts/token/ERC20/ERC20.sol\":10539:10564  allowance(owner, spender) */\n      jump\t// in\n    tag_198:\n        /* \"lib/openzeppelin-contracts/contracts/token/ERC20/ERC20.sol\":10512:10564  uint256 currentAllowance = allowance(owner, spender) */\n      swap1\n      pop\n        /* \"lib/openzeppelin-contracts/contracts/token/ERC20/ERC20.sol\":10598:10615  type(uint256).max */\n      0xffffffffffffffffffffffffffffffffffffffffffffffffffffffffffffffff\n        /* \"lib/openzeppelin-contracts/contracts/token/ERC20/ERC20.sol\":10578:10594  currentAllowance */\n      dup2\n        /* \"lib/openzeppelin-contracts/contracts/token/ERC20/ERC20.sol\":10578:10615  currentAllowance != type(uint256).max */\n      eq\n        /* \"lib/openzeppelin-contracts/contracts/token/ERC20/ERC20.sol\":10574:10884  if (currentAllowance != type(uint256).max) {... */\n      tag_199\n      jumpi\n        /* \"lib/openzeppelin-contracts/contracts/token/ERC20/ERC20.sol\":10654:10659  value */\n      dup2\n        /* \"lib/openzeppelin-contracts/contracts/token/ERC20/ERC20.sol\":10635:10651  currentAllowance */\n      dup2\n        /* \"lib/openzeppelin-contracts/contracts/token/ERC20/ERC20.sol\":10635:10659  currentAllowance < value */\n      lt\n        /* \"lib/openzeppelin-contracts/contracts/token/ERC20/ERC20.sol\":10631:10761  if (currentAllowance < value) {... */\n      iszero\n      tag_200\n      jumpi\n        /* \"lib/openzeppelin-contracts/contracts/token/ERC20/ERC20.sol\":10713:10720  spender */\n      dup3\n        /* \"lib/openzeppelin-contracts/contracts/token/ERC20/ERC20.sol\":10722:10738  currentAllowance */\n      dup2\n        /* \"lib/openzeppelin-contracts/contracts/token/ERC20/ERC20.sol\":10740:10745  value */\n      dup4\n        /* \"lib/openzeppelin-contracts/contracts/token/ERC20/ERC20.sol\":10686:10746  ERC20InsufficientAllowance(spender, currentAllowance, value) */\n      mload(0x40)\n      0xfb8f41b200000000000000000000000000000000000000000000000000000000\n      dup2\n      mstore\n      0x04\n      add\n      tag_201\n      swap4\n      swap3\n      swap2\n      swap1\n      tag_202\n      jump\t// in\n    tag_201:\n      mload(0x40)\n      dup1\n      swap2\n      sub\n      swap1\n      revert\n        /* \"lib/openzeppelin-contracts/contracts/token/ERC20/ERC20.sol\":10631:10761  if (currentAllowance < value) {... */\n    tag_200:\n        /* \"lib/openzeppelin-contracts/contracts/token/ERC20/ERC20.sol\":10802:10859  _approve(owner, spender, currentAllowance - value, false) */\n      tag_203\n        /* \"lib/openzeppelin-contracts/contracts/token/ERC20/ERC20.sol\":10811:10816  owner */\n      dup5\n        /* \"lib/openzeppelin-contracts/contracts/token/ERC20/ERC20.sol\":10818:10825  spender */\n      dup5\n        /* \"lib/openzeppelin-contracts/contracts/token/ERC20/ERC20.sol\":10846:10851  value */\n      dup5\n        /* \"lib/openzeppelin-contracts/contracts/token/ERC20/ERC20.sol\":10827:10843  currentAllowance */\n      dup5\n        /* \"lib/openzeppelin-contracts/contracts/token/ERC20/ERC20.sol\":10827:10851  currentAllowance - value */\n      sub\n        /* \"lib/openzeppelin-contracts/contracts/token/ERC20/ERC20.sol\":10853:10858  false */\n      0x00\n        /* \"lib/openzeppelin-contracts/contracts/token/ERC20/ERC20.sol\":10802:10810  _approve */\n      tag_196\n        /* \"lib/openzeppelin-contracts/contracts/token/ERC20/ERC20.sol\":10802:10859  _approve(owner, spender, currentAllowance - value, false) */\n      jump\t// in\n    tag_203:\n        /* \"lib/openzeppelin-contracts/contracts/token/ERC20/ERC20.sol\":10574:10884  if (currentAllowance != type(uint256).max) {... */\n    tag_199:\n        /* \"lib/openzeppelin-contracts/contracts/token/ERC20/ERC20.sol\":10502:10890  {... */\n      pop\n        /* \"lib/openzeppelin-contracts/contracts/token/ERC20/ERC20.sol\":10413:10890  function _spendAllowance(address owner, address spender, uint256 value) internal virtual {... */\n      pop\n      pop\n      pop\n      jump\t// out\n        /* \"lib/openzeppelin-contracts/contracts/token/ERC20/ERC20.sol\":5391:5691  function _transfer(address from, address to, uint256 value) internal {... */\n    tag_189:\n        /* \"lib/openzeppelin-contracts/contracts/token/ERC20/ERC20.sol\":5490:5491  0 */\n      0x00\n        /* \"lib/openzeppelin-contracts/contracts/token/ERC20/ERC20.sol\":5474:5492  from == address(0) */\n      0xffffffffffffffffffffffffffffffffffffffff\n      and\n        /* \"lib/openzeppelin-contracts/contracts/token/ERC20/ERC20.sol\":5474:5478  from */\n      dup4\n        /* \"lib/openzeppelin-contracts/contracts/token/ERC20/ERC20.sol\":5474:5492  from == address(0) */\n      0xffffffffffffffffffffffffffffffffffffffff\n      and\n      sub\n        /* \"lib/openzeppelin-contracts/contracts/token/ERC20/ERC20.sol\":5470:5556  if (from == address(0)) {... */\n      tag_205\n      jumpi\n        /* \"lib/openzeppelin-contracts/contracts/token/ERC20/ERC20.sol\":5542:5543  0 */\n      0x00\n        /* \"lib/openzeppelin-contracts/contracts/token/ERC20/ERC20.sol\":5515:5545  ERC20InvalidSender(address(0)) */\n      mload(0x40)\n      0x96c6fd1e00000000000000000000000000000000000000000000000000000000\n      dup2\n      mstore\n      0x04\n      add\n      tag_206\n      swap2\n      swap1\n      tag_34\n      jump\t// in\n    tag_206:\n      mload(0x40)\n      dup1\n      swap2\n      sub\n      swap1\n      revert\n        /* \"lib/openzeppelin-contracts/contracts/token/ERC20/ERC20.sol\":5470:5556  if (from == address(0)) {... */\n    tag_205:\n        /* \"lib/openzeppelin-contracts/contracts/token/ERC20/ERC20.sol\":5583:5584  0 */\n      0x00\n        /* \"lib/openzeppelin-contracts/contracts/token/ERC20/ERC20.sol\":5569:5585  to == address(0) */\n      0xffffffffffffffffffffffffffffffffffffffff\n      and\n        /* \"lib/openzeppelin-contracts/contracts/token/ERC20/ERC20.sol\":5569:5571  to */\n      dup3\n        /* \"lib/openzeppelin-contracts/contracts/token/ERC20/ERC20.sol\":5569:5585  to == address(0) */\n      0xffffffffffffffffffffffffffffffffffffffff\n      and\n      sub\n        /* \"lib/openzeppelin-contracts/contracts/token/ERC20/ERC20.sol\":5565:5651  if (to == address(0)) {... */\n      tag_207\n      jumpi\n        /* \"lib/openzeppelin-contracts/contracts/token/ERC20/ERC20.sol\":5637:5638  0 */\n      0x00\n        /* \"lib/openzeppelin-contracts/contracts/token/ERC20/ERC20.sol\":5608:5640  ERC20InvalidReceiver(address(0)) */\n      mload(0x40)\n      0xec442f0500000000000000000000000000000000000000000000000000000000\n      dup2\n      mstore\n      0x04\n      add\n      tag_208\n      swap2\n      swap1\n      tag_34\n      jump\t// in\n    tag_208:\n      mload(0x40)\n      dup1\n      swap2\n      sub\n      swap1\n      revert\n        /* \"lib/openzeppelin-contracts/contracts/token/ERC20/ERC20.sol\":5565:5651  if (to == address(0)) {... */\n    tag_207:\n        /* \"lib/openzeppelin-contracts/contracts/token/ERC20/ERC20.sol\":5660:5684  _update(from, to, value) */\n      tag_209\n        /* \"lib/openzeppelin-contracts/contracts/token/ERC20/ERC20.sol\":5668:5672  from */\n      dup4\n        /* \"lib/openzeppelin-contracts/contracts/token/ERC20/ERC20.sol\":5674:5676  to */\n      dup4\n        /* \"lib/openzeppelin-contracts/contracts/token/ERC20/ERC20.sol\":5678:5683  value */\n      dup4\n        /* \"lib/openzeppelin-contracts/contracts/token/ERC20/ERC20.sol\":5660:5667  _update */\n      tag_210\n        /* \"lib/openzeppelin-contracts/contracts/token/ERC20/ERC20.sol\":5660:5684  _update(from, to, value) */\n      jump\t// in\n    tag_209:\n        /* \"lib/openzeppelin-contracts/contracts/token/ERC20/ERC20.sol\":5391:5691  function _transfer(address from, address to, uint256 value) internal {... */\n      pop\n      pop\n      pop\n      jump\t// out\n        /* \"lib/openzeppelin-contracts/contracts/token/ERC20/ERC20.sol\":9699:10131  function _approve(address owner, address spender, uint256 value, bool emitEvent) internal virtual {... */\n    tag_196:\n        /* \"lib/openzeppelin-contracts/contracts/token/ERC20/ERC20.sol\":9828:9829  0 */\n      0x00\n        /* \"lib/openzeppelin-contracts/contracts/token/ERC20/ERC20.sol\":9811:9830  owner == address(0) */\n      0xffffffffffffffffffffffffffffffffffffffff\n      and\n        /* \"lib/openzeppelin-contracts/contracts/token/ERC20/ERC20.sol\":9811:9816  owner */\n      dup5\n        /* \"lib/openzeppelin-contracts/contracts/token/ERC20/ERC20.sol\":9811:9830  owner == address(0) */\n      0xffffffffffffffffffffffffffffffffffffffff\n      and\n      sub\n        /* \"lib/openzeppelin-contracts/contracts/token/ERC20/ERC20.sol\":9807:9896  if (owner == address(0)) {... */\n      tag_212\n      jumpi\n        /* \"lib/openzeppelin-contracts/contracts/token/ERC20/ERC20.sol\":9882:9883  0 */\n      0x00\n        /* \"lib/openzeppelin-contracts/contracts/token/ERC20/ERC20.sol\":9853:9885  ERC20InvalidApprover(address(0)) */\n      mload(0x40)\n      0xe602df0500000000000000000000000000000000000000000000000000000000\n      dup2\n      mstore\n      0x04\n      add\n      tag_213\n      swap2\n      swap1\n      tag_34\n      jump\t// in\n    tag_213:\n      mload(0x40)\n      dup1\n      swap2\n      sub\n      swap1\n      revert\n        /* \"lib/openzeppelin-contracts/contracts/token/ERC20/ERC20.sol\":9807:9896  if (owner == address(0)) {... */\n    tag_212:\n        /* \"lib/openzeppelin-contracts/contracts/token/ERC20/ERC20.sol\":9928:9929  0 */\n      0x00\n        /* \"lib/openzeppelin-contracts/contracts/token/ERC20/ERC20.sol\":9909:9930  spender == address(0) */\n      0xffffffffffffffffffffffffffffffffffffffff\n      and\n        /* \"lib/openzeppelin-contracts/contracts/token/ERC20/ERC20.sol\":9909:9916  spender */\n      dup4\n        /* \"lib/openzeppelin-contracts/contracts/token/ERC20/ERC20.sol\":9909:9930  spender == address(0) */\n      0xffffffffffffffffffffffffffffffffffffffff\n      and\n      sub\n        /* \"lib/openzeppelin-contracts/contracts/token/ERC20/ERC20.sol\":9905:9995  if (spender == address(0)) {... */\n      tag_214\n      jumpi\n        /* \"lib/openzeppelin-contracts/contracts/token/ERC20/ERC20.sol\":9981:9982  0 */\n      0x00\n        /* \"lib/openzeppelin-contracts/contracts/token/ERC20/ERC20.sol\":9953:9984  ERC20InvalidSpender(address(0)) */\n      mload(0x40)\n      0x94280d6200000000000000000000000000000000000000000000000000000000\n      dup2\n      mstore\n      0x04\n      add\n      tag_215\n      swap2\n      swap1\n      tag_34\n      jump\t// in\n    tag_215:\n      mload(0x40)\n      dup1\n      swap2\n      sub\n      swap1\n      revert\n        /* \"lib/openzeppelin-contracts/contracts/token/ERC20/ERC20.sol\":9905:9995  if (spender == address(0)) {... */\n    tag_214:\n        /* \"lib/openzeppelin-contracts/contracts/token/ERC20/ERC20.sol\":10034:10039  value */\n      dup2\n        /* \"lib/openzeppelin-contracts/contracts/token/ERC20/ERC20.sol\":10004:10015  _allowances */\n      0x01\n        /* \"lib/openzeppelin-contracts/contracts/token/ERC20/ERC20.sol\":10004:10022  _allowances[owner] */\n      0x00\n        /* \"lib/openzeppelin-contracts/contracts/token/ERC20/ERC20.sol\":10016:10021  owner */\n      dup7\n        /* \"lib/openzeppelin-contracts/contracts/token/ERC20/ERC20.sol\":10004:10022  _allowances[owner] */\n      0xffffffffffffffffffffffffffffffffffffffff\n      and\n      0xffffffffffffffffffffffffffffffffffffffff\n      and\n      dup2\n      mstore\n      0x20\n      add\n      swap1\n      dup2\n      mstore\n      0x20\n      add\n      0x00\n      keccak256\n        /* \"lib/openzeppelin-contracts/contracts/token/ERC20/ERC20.sol\":10004:10031  _allowances[owner][spender] */\n      0x00\n        /* \"lib/openzeppelin-contracts/contracts/token/ERC20/ERC20.sol\":10023:10030  spender */\n      dup6\n        /* \"lib/openzeppelin-contracts/contracts/token/ERC20/ERC20.sol\":10004:10031  _allowances[owner][spender] */\n      0xffffffffffffffffffffffffffffffffffffffff\n      and\n      0xffffffffffffffffffffffffffffffffffffffff\n      and\n      dup2\n      mstore\n      0x20\n      add\n      swap1\n      dup2\n      mstore\n      0x20\n      add\n      0x00\n      keccak256\n        /* \"lib/openzeppelin-contracts/contracts/token/ERC20/ERC20.sol\":10004:10039  _allowances[owner][spender] = value */\n      dup2\n      swap1\n      sstore\n      pop\n        /* \"lib/openzeppelin-contracts/contracts/token/ERC20/ERC20.sol\":10053:10062  emitEvent */\n      dup1\n        /* \"lib/openzeppelin-contracts/contracts/token/ERC20/ERC20.sol\":10049:10125  if (emitEvent) {... */\n      iszero\n      tag_216\n      jumpi\n        /* \"lib/openzeppelin-contracts/contracts/token/ERC20/ERC20.sol\":10099:10106  spender */\n      dup3\n        /* \"lib/openzeppelin-contracts/contracts/token/ERC20/ERC20.sol\":10083:10114  Approval(owner, spender, value) */\n      0xffffffffffffffffffffffffffffffffffffffff\n      and\n        /* \"lib/openzeppelin-contracts/contracts/token/ERC20/ERC20.sol\":10092:10097  owner */\n      dup5\n        /* \"lib/openzeppelin-contracts/contracts/token/ERC20/ERC20.sol\":10083:10114  Approval(owner, spender, value) */\n      0xffffffffffffffffffffffffffffffffffffffff\n      and\n      0x8c5be1e5ebec7d5bd14f71427d1e84f3dd0314c0f7b2291e5b200ac8c7c3b925\n        /* \"lib/openzeppelin-contracts/contracts/token/ERC20/ERC20.sol\":10108:10113  value */\n      dup5\n        /* \"lib/openzeppelin-contracts/contracts/token/ERC20/ERC20.sol\":10083:10114  Approval(owner, spender, value) */\n      mload(0x40)\n      tag_217\n      swap2\n      swap1\n      tag_30\n      jump\t// in\n    tag_217:\n      mload(0x40)\n      dup1\n      swap2\n      sub\n      swap1\n      log3\n        /* \"lib/openzeppelin-contracts/contracts/token/ERC20/ERC20.sol\":10049:10125  if (emitEvent) {... */\n    tag_216:\n        /* \"lib/openzeppelin-contracts/contracts/token/ERC20/ERC20.sol\":9699:10131  function _approve(address owner, address spender, uint256 value, bool emitEvent) internal virtual {... */\n      pop\n      pop\n      pop\n      pop\n      jump\t// out\n        /* \"lib/openzeppelin-contracts/contracts/token/ERC20/ERC20.sol\":6006:7113  function _update(address from, address to, uint256 value) internal virtual {... */\n    tag_210:\n        /* \"lib/openzeppelin-contracts/contracts/token/ERC20/ERC20.sol\":6111:6112  0 */\n      0x00\n        /* \"lib/openzeppelin-contracts/contracts/token/ERC20/ERC20.sol\":6095:6113  from == address(0) */\n      0xffffffffffffffffffffffffffffffffffffffff\n      and\n        /* \"lib/openzeppelin-contracts/contracts/token/ERC20/ERC20.sol\":6095:6099  from */\n      dup4\n        /* \"lib/openzeppelin-contracts/contracts/token/ERC20/ERC20.sol\":6095:6113  from == address(0) */\n      0xffffffffffffffffffffffffffffffffffffffff\n      and\n      sub\n        /* \"lib/openzeppelin-contracts/contracts/token/ERC20/ERC20.sol\":6091:6631  if (from == address(0)) {... */\n      tag_219\n      jumpi\n        /* \"lib/openzeppelin-contracts/contracts/token/ERC20/ERC20.sol\":6247:6252  value */\n      dup1\n        /* \"lib/openzeppelin-contracts/contracts/token/ERC20/ERC20.sol\":6231:6243  _totalSupply */\n      0x02\n      0x00\n        /* \"lib/openzeppelin-contracts/contracts/token/ERC20/ERC20.sol\":6231:6252  _totalSupply += value */\n      dup3\n      dup3\n      sload\n      tag_220\n      swap2\n      swap1\n      tag_221\n      jump\t// in\n    tag_220:\n      swap3\n      pop\n      pop\n      dup2\n      swap1\n      sstore\n      pop\n        /* \"lib/openzeppelin-contracts/contracts/token/ERC20/ERC20.sol\":6091:6631  if (from == address(0)) {... */\n      jump(tag_222)\n    tag_219:\n        /* \"lib/openzeppelin-contracts/contracts/token/ERC20/ERC20.sol\":6283:6302  uint256 fromBalance */\n      0x00\n        /* \"lib/openzeppelin-contracts/contracts/token/ERC20/ERC20.sol\":6305:6314  _balances */\n      dup1\n        /* \"lib/openzeppelin-contracts/contracts/token/ERC20/ERC20.sol\":6305:6320  _balances[from] */\n      0x00\n        /* \"lib/openzeppelin-contracts/contracts/token/ERC20/ERC20.sol\":6315:6319  from */\n      dup6\n        /* \"lib/openzeppelin-contracts/contracts/token/ERC20/ERC20.sol\":6305:6320  _balances[from] */\n      0xffffffffffffffffffffffffffffffffffffffff\n      and\n      0xffffffffffffffffffffffffffffffffffffffff\n      and\n      dup2\n      mstore\n      0x20\n      add\n      swap1\n      dup2\n      mstore\n      0x20\n      add\n      0x00\n      keccak256\n      sload\n        /* \"lib/openzeppelin-contracts/contracts/token/ERC20/ERC20.sol\":6283:6320  uint256 fromBalance = _balances[from] */\n      swap1\n      pop\n        /* \"lib/openzeppelin-contracts/contracts/token/ERC20/ERC20.sol\":6352:6357  value */\n      dup2\n        /* \"lib/openzeppelin-contracts/contracts/token/ERC20/ERC20.sol\":6338:6349  fromBalance */\n      dup2\n        /* \"lib/openzeppelin-contracts/contracts/token/ERC20/ERC20.sol\":6338:6357  fromBalance < value */\n      lt\n        /* \"lib/openzeppelin-contracts/contracts/token/ERC20/ERC20.sol\":6334:6449  if (fromBalance < value) {... */\n      iszero\n      tag_223\n      jumpi\n        /* \"lib/openzeppelin-contracts/contracts/token/ERC20/ERC20.sol\":6409:6413  from */\n      dup4\n        /* \"lib/openzeppelin-contracts/contracts/token/ERC20/ERC20.sol\":6415:6426  fromBalance */\n      dup2\n        /* \"lib/openzeppelin-contracts/contracts/token/ERC20/ERC20.sol\":6428:6433  value */\n      dup4\n        /* \"lib/openzeppelin-contracts/contracts/token/ERC20/ERC20.sol\":6384:6434  ERC20InsufficientBalance(from, fromBalance, value) */\n      mload(0x40)\n      0xe450d38c00000000000000000000000000000000000000000000000000000000\n      dup2\n      mstore\n      0x04\n      add\n      tag_224\n      swap4\n      swap3\n      swap2\n      swap1\n      tag_202\n      jump\t// in\n    tag_224:\n      mload(0x40)\n      dup1\n      swap2\n      sub\n      swap1\n      revert\n        /* \"lib/openzeppelin-contracts/contracts/token/ERC20/ERC20.sol\":6334:6449  if (fromBalance < value) {... */\n    tag_223:\n        /* \"lib/openzeppelin-contracts/contracts/token/ERC20/ERC20.sol\":6601:6606  value */\n      dup2\n        /* \"lib/openzeppelin-contracts/contracts/token/ERC20/ERC20.sol\":6587:6598  fromBalance */\n      dup2\n        /* \"lib/openzeppelin-contracts/contracts/token/ERC20/ERC20.sol\":6587:6606  fromBalance - value */\n      sub\n        /* \"lib/openzeppelin-contracts/contracts/token/ERC20/ERC20.sol\":6569:6578  _balances */\n      0x00\n        /* \"lib/openzeppelin-contracts/contracts/token/ERC20/ERC20.sol\":6569:6584  _balances[from] */\n      dup1\n        /* \"lib/openzeppelin-contracts/contracts/token/ERC20/ERC20.sol\":6579:6583  from */\n      dup7\n        /* \"lib/openzeppelin-contracts/contracts/token/ERC20/ERC20.sol\":6569:6584  _balances[from] */\n      0xffffffffffffffffffffffffffffffffffffffff\n      and\n      0xffffffffffffffffffffffffffffffffffffffff\n      and\n      dup2\n      mstore\n      0x20\n      add\n      swap1\n      dup2\n      mstore\n      0x20\n      add\n      0x00\n      keccak256\n        /* \"lib/openzeppelin-contracts/contracts/token/ERC20/ERC20.sol\":6569:6606  _balances[from] = fromBalance - value */\n      dup2\n      swap1\n      sstore\n      pop\n        /* \"lib/openzeppelin-contracts/contracts/token/ERC20/ERC20.sol\":6269:6631  {... */\n      pop\n        /* \"lib/openzeppelin-contracts/contracts/token/ERC20/ERC20.sol\":6091:6631  if (from == address(0)) {... */\n    tag_222:\n        /* \"lib/openzeppelin-contracts/contracts/token/ERC20/ERC20.sol\":6659:6660  0 */\n      0x00\n        /* \"lib/openzeppelin-contracts/contracts/token/ERC20/ERC20.sol\":6645:6661  to == address(0) */\n      0xffffffffffffffffffffffffffffffffffffffff\n      and\n        /* \"lib/openzeppelin-contracts/contracts/token/ERC20/ERC20.sol\":6645:6647  to */\n      dup3\n        /* \"lib/openzeppelin-contracts/contracts/token/ERC20/ERC20.sol\":6645:6661  to == address(0) */\n      0xffffffffffffffffffffffffffffffffffffffff\n      and\n      sub\n        /* \"lib/openzeppelin-contracts/contracts/token/ERC20/ERC20.sol\":6641:7066  if (to == address(0)) {... */\n      tag_225\n      jumpi\n        /* \"lib/openzeppelin-contracts/contracts/token/ERC20/ERC20.sol\":6824:6829  value */\n      dup1\n        /* \"lib/openzeppelin-contracts/contracts/token/ERC20/ERC20.sol\":6808:6820  _totalSupply */\n      0x02\n      0x00\n        /* \"lib/openzeppelin-contracts/contracts/token/ERC20/ERC20.sol\":6808:6829  _totalSupply -= value */\n      dup3\n      dup3\n      sload\n      sub\n      swap3\n      pop\n      pop\n      dup2\n      swap1\n      sstore\n      pop\n        /* \"lib/openzeppelin-contracts/contracts/token/ERC20/ERC20.sol\":6641:7066  if (to == address(0)) {... */\n      jump(tag_226)\n    tag_225:\n        /* \"lib/openzeppelin-contracts/contracts/token/ERC20/ERC20.sol\":7036:7041  value */\n      dup1\n        /* \"lib/openzeppelin-contracts/contracts/token/ERC20/ERC20.sol\":7019:7028  _balances */\n      0x00\n        /* \"lib/openzeppelin-contracts/contracts/token/ERC20/ERC20.sol\":7019:7032  _balances[to] */\n      dup1\n        /* \"lib/openzeppelin-contracts/contracts/token/ERC20/ERC20.sol\":7029:7031  to */\n      dup5\n        /* \"lib/openzeppelin-contracts/contracts/token/ERC20/ERC20.sol\":7019:7032  _balances[to] */\n      0xffffffffffffffffffffffffffffffffffffffff\n      and\n      0xffffffffffffffffffffffffffffffffffffffff\n      and\n      dup2\n      mstore\n      0x20\n      add\n      swap1\n      dup2\n      mstore\n      0x20\n      add\n      0x00\n      keccak256\n      0x00\n        /* \"lib/openzeppelin-contracts/contracts/token/ERC20/ERC20.sol\":7019:7041  _balances[to] += value */\n      dup3\n      dup3\n      sload\n      add\n      swap3\n      pop\n      pop\n      dup2\n      swap1\n      sstore\n      pop\n        /* \"lib/openzeppelin-contracts/contracts/token/ERC20/ERC20.sol\":6641:7066  if (to == address(0)) {... */\n    tag_226:\n        /* \"lib/openzeppelin-contracts/contracts/token/ERC20/ERC20.sol\":7096:7098  to */\n      dup2\n        /* \"lib/openzeppelin-contracts/contracts/token/ERC20/ERC20.sol\":7081:7106  Transfer(from, to, value) */\n      0xffffffffffffffffffffffffffffffffffffffff\n      and\n        /* \"lib/openzeppelin-contracts/contracts/token/ERC20/ERC20.sol\":7090:7094  from */\n      dup4\n        /* \"lib/openzeppelin-contracts/contracts/token/ERC20/ERC20.sol\":7081:7106  Transfer(from, to, value) */\n      0xffffffffffffffffffffffffffffffffffffffff\n      and\n      0xddf252ad1be2c89b69c2b068fc378daa952ba7f163c4a11628f55a4df523b3ef\n        /* \"lib/openzeppelin-contracts/contracts/token/ERC20/ERC20.sol\":7100:7105  value */\n      dup4\n        /* \"lib/openzeppelin-contracts/contracts/token/ERC20/ERC20.sol\":7081:7106  Transfer(from, to, value) */\n      mload(0x40)\n      tag_227\n      swap2\n      swap1\n      tag_30\n      jump\t// in\n    tag_227:\n      mload(0x40)\n      dup1\n      swap2\n      sub\n      swap1\n      log3\n        /* \"lib/openzeppelin-contracts/contracts/token/ERC20/ERC20.sol\":6006:7113  function _update(address from, address to, uint256 value) internal virtual {... */\n      pop\n      pop\n      pop\n      jump\t// out\n    tag_130:\n      mload(0x40)\n      dup1\n      0xc0\n      add\n      0x40\n      mstore\n      dup1\n      and(0xffffffffffffffffffffffffffffffffffffffff, 0x00)\n      dup2\n      mstore\n      0x20\n      add\n      0x60\n      dup2\n      mstore\n      0x20\n      add\n      0x60\n      dup2\n      mstore\n      0x20\n      add\n      and(0xff, 0x00)\n      dup2\n      mstore\n      0x20\n      add\n      0x00\n      dup2\n      mstore\n      0x20\n      add\n      and(0xffffffffffffffffffffffffffffffffffffffff, 0x00)\n      dup2\n      mstore\n      pop\n      swap1\n      jump\t// out\n        /* \"#utility.yul\":7:82   */\n    tag_228:\n        /* \"#utility.yul\":40:46   */\n      0x00\n        /* \"#utility.yul\":73:75   */\n      0x40\n        /* \"#utility.yul\":67:76   */\n      mload\n        /* \"#utility.yul\":57:76   */\n      swap1\n      pop\n        /* \"#utility.yul\":7:82   */\n      swap1\n      jump\t// out\n        /* \"#utility.yul\":88:205   */\n    tag_229:\n        /* \"#utility.yul\":197:198   */\n      0x00\n        /* \"#utility.yul\":194:195   */\n      dup1\n        /* \"#utility.yul\":187:199   */\n      revert\n        /* \"#utility.yul\":211:328   */\n    tag_230:\n        /* \"#utility.yul\":320:321   */\n      0x00\n        /* \"#utility.yul\":317:318   */\n      dup1\n        /* \"#utility.yul\":310:322   */\n      revert\n        /* \"#utility.yul\":334:460   */\n    tag_231:\n        /* \"#utility.yul\":371:378   */\n      0x00\n        /* \"#utility.yul\":411:453   */\n      0xffffffffffffffffffffffffffffffffffffffff\n        /* \"#utility.yul\":404:409   */\n      dup3\n        /* \"#utility.yul\":400:454   */\n      and\n        /* \"#utility.yul\":389:454   */\n      swap1\n      pop\n        /* \"#utility.yul\":334:460   */\n      swap2\n      swap1\n      pop\n      jump\t// out\n        /* \"#utility.yul\":466:562   */\n    tag_232:\n        /* \"#utility.yul\":503:510   */\n      0x00\n        /* \"#utility.yul\":532:556   */\n      tag_277\n        /* \"#utility.yul\":550:555   */\n      dup3\n        /* \"#utility.yul\":532:556   */\n      tag_231\n      jump\t// in\n    tag_277:\n        /* \"#utility.yul\":521:556   */\n      swap1\n      pop\n        /* \"#utility.yul\":466:562   */\n      swap2\n      swap1\n      pop\n      jump\t// out\n        /* \"#utility.yul\":568:690   */\n    tag_233:\n        /* \"#utility.yul\":641:665   */\n      tag_279\n        /* \"#utility.yul\":659:664   */\n      dup2\n        /* \"#utility.yul\":641:665   */\n      tag_232\n      jump\t// in\n    tag_279:\n        /* \"#utility.yul\":634:639   */\n      dup2\n        /* \"#utility.yul\":631:666   */\n      eq\n        /* \"#utility.yul\":621:684   */\n      tag_280\n      jumpi\n        /* \"#utility.yul\":680:681   */\n      0x00\n        /* \"#utility.yul\":677:678   */\n      dup1\n        /* \"#utility.yul\":670:682   */\n      revert\n        /* \"#utility.yul\":621:684   */\n    tag_280:\n        /* \"#utility.yul\":568:690   */\n      pop\n      jump\t// out\n        /* \"#utility.yul\":696:835   */\n    tag_234:\n        /* \"#utility.yul\":742:747   */\n      0x00\n        /* \"#utility.yul\":780:786   */\n      dup2\n        /* \"#utility.yul\":767:787   */\n      calldataload\n        /* \"#utility.yul\":758:787   */\n      swap1\n      pop\n        /* \"#utility.yul\":796:829   */\n      tag_282\n        /* \"#utility.yul\":823:828   */\n      dup2\n        /* \"#utility.yul\":796:829   */\n      tag_233\n      jump\t// in\n    tag_282:\n        /* \"#utility.yul\":696:835   */\n      swap3\n      swap2\n      pop\n      pop\n      jump\t// out\n        /* \"#utility.yul\":841:1315   */\n    tag_27:\n        /* \"#utility.yul\":909:915   */\n      0x00\n        /* \"#utility.yul\":917:923   */\n      dup1\n        /* \"#utility.yul\":966:968   */\n      0x40\n        /* \"#utility.yul\":954:963   */\n      dup4\n        /* \"#utility.yul\":945:952   */\n      dup6\n        /* \"#utility.yul\":941:964   */\n      sub\n        /* \"#utility.yul\":937:969   */\n      slt\n        /* \"#utility.yul\":934:1053   */\n      iszero\n      tag_284\n      jumpi\n        /* \"#utility.yul\":972:1051   */\n      tag_285\n      tag_229\n      jump\t// in\n    tag_285:\n        /* \"#utility.yul\":934:1053   */\n    tag_284:\n        /* \"#utility.yul\":1092:1093   */\n      0x00\n        /* \"#utility.yul\":1117:1170   */\n      tag_286\n        /* \"#utility.yul\":1162:1169   */\n      dup6\n        /* \"#utility.yul\":1153:1159   */\n      dup3\n        /* \"#utility.yul\":1142:1151   */\n      dup7\n        /* \"#utility.yul\":1138:1160   */\n      add\n        /* \"#utility.yul\":1117:1170   */\n      tag_234\n      jump\t// in\n    tag_286:\n        /* \"#utility.yul\":1107:1170   */\n      swap3\n      pop\n        /* \"#utility.yul\":1063:1180   */\n      pop\n        /* \"#utility.yul\":1219:1221   */\n      0x20\n        /* \"#utility.yul\":1245:1298   */\n      tag_287\n        /* \"#utility.yul\":1290:1297   */\n      dup6\n        /* \"#utility.yul\":1281:1287   */\n      dup3\n        /* \"#utility.yul\":1270:1279   */\n      dup7\n        /* \"#utility.yul\":1266:1288   */\n      add\n        /* \"#utility.yul\":1245:1298   */\n      tag_234\n      jump\t// in\n    tag_287:\n        /* \"#utility.yul\":1235:1298   */\n      swap2\n      pop\n        /* \"#utility.yul\":1190:1308   */\n      pop\n        /* \"#utility.yul\":841:1315   */\n      swap3\n      pop\n      swap3\n      swap1\n      pop\n      jump\t// out\n        /* \"#utility.yul\":1321:1398   */\n    tag_235:\n        /* \"#utility.yul\":1358:1365   */\n      0x00\n        /* \"#utility.yul\":1387:1392   */\n      dup2\n        /* \"#utility.yul\":1376:1392   */\n      swap1\n      pop\n        /* \"#utility.yul\":1321:1398   */\n      swap2\n      swap1\n      pop\n      jump\t// out\n        /* \"#utility.yul\":1404:1522   */\n    tag_236:\n        /* \"#utility.yul\":1491:1515   */\n      tag_290\n        /* \"#utility.yul\":1509:1514   */\n      dup2\n        /* \"#utility.yul\":1491:1515   */\n      tag_235\n      jump\t// in\n    tag_290:\n        /* \"#utility.yul\":1486:1489   */\n      dup3\n        /* \"#utility.yul\":1479:1516   */\n      mstore\n        /* \"#utility.yul\":1404:1522   */\n      pop\n      pop\n      jump\t// out\n        /* \"#utility.yul\":1528:1750   */\n    tag_30:\n        /* \"#utility.yul\":1621:1625   */\n      0x00\n        /* \"#utility.yul\":1659:1661   */\n      0x20\n        /* \"#utility.yul\":1648:1657   */\n      dup3\n        /* \"#utility.yul\":1644:1662   */\n      add\n        /* \"#utility.yul\":1636:1662   */\n      swap1\n      pop\n        /* \"#utility.yul\":1672:1743   */\n      tag_292\n        /* \"#utility.yul\":1740:1741   */\n      0x00\n        /* \"#utility.yul\":1729:1738   */\n      dup4\n        /* \"#utility.yul\":1725:1742   */\n      add\n        /* \"#utility.yul\":1716:1722   */\n      dup5\n        /* \"#utility.yul\":1672:1743   */\n      tag_236\n      jump\t// in\n    tag_292:\n        /* \"#utility.yul\":1528:1750   */\n      swap3\n      swap2\n      pop\n      pop\n      jump\t// out\n        /* \"#utility.yul\":1756:1874   */\n    tag_237:\n        /* \"#utility.yul\":1843:1867   */\n      tag_294\n        /* \"#utility.yul\":1861:1866   */\n      dup2\n        /* \"#utility.yul\":1843:1867   */\n      tag_232\n      jump\t// in\n    tag_294:\n        /* \"#utility.yul\":1838:1841   */\n      dup3\n        /* \"#utility.yul\":1831:1868   */\n      mstore\n        /* \"#utility.yul\":1756:1874   */\n      pop\n      pop\n      jump\t// out\n        /* \"#utility.yul\":1880:2102   */\n    tag_34:\n        /* \"#utility.yul\":1973:1977   */\n      0x00\n        /* \"#utility.yul\":2011:2013   */\n      0x20\n        /* \"#utility.yul\":2000:2009   */\n      dup3\n        /* \"#utility.yul\":1996:2014   */\n      add\n        /* \"#utility.yul\":1988:2014   */\n      swap1\n      pop\n        /* \"#utility.yul\":2024:2095   */\n      tag_296\n        /* \"#utility.yul\":2092:2093   */\n      0x00\n        /* \"#utility.yul\":2081:2090   */\n      dup4\n        /* \"#utility.yul\":2077:2094   */\n      add\n        /* \"#utility.yul\":2068:2074   */\n      dup5\n        /* \"#utility.yul\":2024:2095   */\n      tag_237\n      jump\t// in\n    tag_296:\n        /* \"#utility.yul\":1880:2102   */\n      swap3\n      swap2\n      pop\n      pop\n      jump\t// out\n        /* \"#utility.yul\":2108:2207   */\n    tag_238:\n        /* \"#utility.yul\":2160:2166   */\n      0x00\n        /* \"#utility.yul\":2194:2199   */\n      dup2\n        /* \"#utility.yul\":2188:2200   */\n      mload\n        /* \"#utility.yul\":2178:2200   */\n      swap1\n      pop\n        /* \"#utility.yul\":2108:2207   */\n      swap2\n      swap1\n      pop\n      jump\t// out\n        /* \"#utility.yul\":2213:2382   */\n    tag_239:\n        /* \"#utility.yul\":2297:2308   */\n      0x00\n        /* \"#utility.yul\":2331:2337   */\n      dup3\n        /* \"#utility.yul\":2326:2329   */\n      dup3\n        /* \"#utility.yul\":2319:2338   */\n      mstore\n        /* \"#utility.yul\":2371:2375   */\n      0x20\n        /* \"#utility.yul\":2366:2369   */\n      dup3\n        /* \"#utility.yul\":2362:2376   */\n      add\n        /* \"#utility.yul\":2347:2376   */\n      swap1\n      pop\n        /* \"#utility.yul\":2213:2382   */\n      swap3\n      swap2\n      pop\n      pop\n      jump\t// out\n        /* \"#utility.yul\":2388:2634   */\n    tag_240:\n        /* \"#utility.yul\":2469:2470   */\n      0x00\n        /* \"#utility.yul\":2479:2592   */\n    tag_300:\n        /* \"#utility.yul\":2493:2499   */\n      dup4\n        /* \"#utility.yul\":2490:2491   */\n      dup2\n        /* \"#utility.yul\":2487:2500   */\n      lt\n        /* \"#utility.yul\":2479:2592   */\n      iszero\n      tag_302\n      jumpi\n        /* \"#utility.yul\":2578:2579   */\n      dup1\n        /* \"#utility.yul\":2573:2576   */\n      dup3\n        /* \"#utility.yul\":2569:2580   */\n      add\n        /* \"#utility.yul\":2563:2581   */\n      mload\n        /* \"#utility.yul\":2559:2560   */\n      dup2\n        /* \"#utility.yul\":2554:2557   */\n      dup5\n        /* \"#utility.yul\":2550:2561   */\n      add\n        /* \"#utility.yul\":2543:2582   */\n      mstore\n        /* \"#utility.yul\":2515:2517   */\n      0x20\n        /* \"#utility.yul\":2512:2513   */\n      dup2\n        /* \"#utility.yul\":2508:2518   */\n      add\n        /* \"#utility.yul\":2503:2518   */\n      swap1\n      pop\n        /* \"#utility.yul\":2479:2592   */\n      jump(tag_300)\n    tag_302:\n        /* \"#utility.yul\":2626:2627   */\n      0x00\n        /* \"#utility.yul\":2617:2623   */\n      dup5\n        /* \"#utility.yul\":2612:2615   */\n      dup5\n        /* \"#utility.yul\":2608:2624   */\n      add\n        /* \"#utility.yul\":2601:2628   */\n      mstore\n        /* \"#utility.yul\":2450:2634   */\n      pop\n        /* \"#utility.yul\":2388:2634   */\n      pop\n      pop\n      pop\n      jump\t// out\n        /* \"#utility.yul\":2640:2742   */\n    tag_241:\n        /* \"#utility.yul\":2681:2687   */\n      0x00\n        /* \"#utility.yul\":2732:2734   */\n      0x1f\n        /* \"#utility.yul\":2728:2735   */\n      not\n        /* \"#utility.yul\":2723:2725   */\n      0x1f\n        /* \"#utility.yul\":2716:2721   */\n      dup4\n        /* \"#utility.yul\":2712:2726   */\n      add\n        /* \"#utility.yul\":2708:2736   */\n      and\n        /* \"#utility.yul\":2698:2736   */\n      swap1\n      pop\n        /* \"#utility.yul\":2640:2742   */\n      swap2\n      swap1\n      pop\n      jump\t// out\n        /* \"#utility.yul\":2748:3125   */\n    tag_242:\n        /* \"#utility.yul\":2836:2839   */\n      0x00\n        /* \"#utility.yul\":2864:2903   */\n      tag_305\n        /* \"#utility.yul\":2897:2902   */\n      dup3\n        /* \"#utility.yul\":2864:2903   */\n      tag_238\n      jump\t// in\n    tag_305:\n        /* \"#utility.yul\":2919:2990   */\n      tag_306\n        /* \"#utility.yul\":2983:2989   */\n      dup2\n        /* \"#utility.yul\":2978:2981   */\n      dup6\n        /* \"#utility.yul\":2919:2990   */\n      tag_239\n      jump\t// in\n    tag_306:\n        /* \"#utility.yul\":2912:2990   */\n      swap4\n      pop\n        /* \"#utility.yul\":2999:3064   */\n      tag_307\n        /* \"#utility.yul\":3057:3063   */\n      dup2\n        /* \"#utility.yul\":3052:3055   */\n      dup6\n        /* \"#utility.yul\":3045:3049   */\n      0x20\n        /* \"#utility.yul\":3038:3043   */\n      dup7\n        /* \"#utility.yul\":3034:3050   */\n      add\n        /* \"#utility.yul\":2999:3064   */\n      tag_240\n      jump\t// in\n    tag_307:\n        /* \"#utility.yul\":3089:3118   */\n      tag_308\n        /* \"#utility.yul\":3111:3117   */\n      dup2\n        /* \"#utility.yul\":3089:3118   */\n      tag_241\n      jump\t// in\n    tag_308:\n        /* \"#utility.yul\":3084:3087   */\n      dup5\n        /* \"#utility.yul\":3080:3119   */\n      add\n        /* \"#utility.yul\":3073:3119   */\n      swap2\n      pop\n        /* \"#utility.yul\":2840:3125   */\n      pop\n        /* \"#utility.yul\":2748:3125   */\n      swap3\n      swap2\n      pop\n      pop\n      jump\t// out\n        /* \"#utility.yul\":3131:3444   */\n    tag_38:\n        /* \"#utility.yul\":3244:3248   */\n      0x00\n        /* \"#utility.yul\":3282:3284   */\n      0x20\n        /* \"#utility.yul\":3271:3280   */\n      dup3\n        /* \"#utility.yul\":3267:3285   */\n      add\n        /* \"#utility.yul\":3259:3285   */\n      swap1\n      pop\n        /* \"#utility.yul\":3331:3340   */\n      dup2\n        /* \"#utility.yul\":3325:3329   */\n      dup2\n        /* \"#utility.yul\":3321:3341   */\n      sub\n        /* \"#utility.yul\":3317:3318   */\n      0x00\n        /* \"#utility.yul\":3306:3315   */\n      dup4\n        /* \"#utility.yul\":3302:3319   */\n      add\n        /* \"#utility.yul\":3295:3342   */\n      mstore\n        /* \"#utility.yul\":3359:3437   */\n      tag_310\n        /* \"#utility.yul\":3432:3436   */\n      dup2\n        /* \"#utility.yul\":3423:3429   */\n      dup5\n        /* \"#utility.yul\":3359:3437   */\n      tag_242\n      jump\t// in\n    tag_310:\n        /* \"#utility.yul\":3351:3437   */\n      swap1\n      pop\n        /* \"#utility.yul\":3131:3444   */\n      swap3\n      swap2\n      pop\n      pop\n      jump\t// out\n        /* \"#utility.yul\":3450:3572   */\n    tag_243:\n        /* \"#utility.yul\":3523:3547   */\n      tag_312\n        /* \"#utility.yul\":3541:3546   */\n      dup2\n        /* \"#utility.yul\":3523:3547   */\n      tag_235\n      jump\t// in\n    tag_312:\n        /* \"#utility.yul\":3516:3521   */\n      dup2\n        /* \"#utility.yul\":3513:3548   */\n      eq\n        /* \"#utility.yul\":3503:3566   */\n      tag_313\n      jumpi\n        /* \"#utility.yul\":3562:3563   */\n      0x00\n        /* \"#utility.yul\":3559:3560   */\n      dup1\n        /* \"#utility.yul\":3552:3564   */\n      revert\n        /* \"#utility.yul\":3503:3566   */\n    tag_313:\n        /* \"#utility.yul\":3450:3572   */\n      pop\n      jump\t// out\n        /* \"#utility.yul\":3578:3717   */\n    tag_244:\n        /* \"#utility.yul\":3624:3629   */\n      0x00\n        /* \"#utility.yul\":3662:3668   */\n      dup2\n        /* \"#utility.yul\":3649:3669   */\n      calldataload\n        /* \"#utility.yul\":3640:3669   */\n      swap1\n      pop\n        /* \"#utility.yul\":3678:3711   */\n      tag_315\n        /* \"#utility.yul\":3705:3710   */\n      dup2\n        /* \"#utility.yul\":3678:3711   */\n      tag_243\n      jump\t// in\n    tag_315:\n        /* \"#utility.yul\":3578:3717   */\n      swap3\n      swap2\n      pop\n      pop\n      jump\t// out\n        /* \"#utility.yul\":3723:4197   */\n    tag_41:\n        /* \"#utility.yul\":3791:3797   */\n      0x00\n        /* \"#utility.yul\":3799:3805   */\n      dup1\n        /* \"#utility.yul\":3848:3850   */\n      0x40\n        /* \"#utility.yul\":3836:3845   */\n      dup4\n        /* \"#utility.yul\":3827:3834   */\n      dup6\n        /* \"#utility.yul\":3823:3846   */\n      sub\n        /* \"#utility.yul\":3819:3851   */\n      slt\n        /* \"#utility.yul\":3816:3935   */\n      iszero\n      tag_317\n      jumpi\n        /* \"#utility.yul\":3854:3933   */\n      tag_318\n      tag_229\n      jump\t// in\n    tag_318:\n        /* \"#utility.yul\":3816:3935   */\n    tag_317:\n        /* \"#utility.yul\":3974:3975   */\n      0x00\n        /* \"#utility.yul\":3999:4052   */\n      tag_319\n        /* \"#utility.yul\":4044:4051   */\n      dup6\n        /* \"#utility.yul\":4035:4041   */\n      dup3\n        /* \"#utility.yul\":4024:4033   */\n      dup7\n        /* \"#utility.yul\":4020:4042   */\n      add\n        /* \"#utility.yul\":3999:4052   */\n      tag_234\n      jump\t// in\n    tag_319:\n        /* \"#utility.yul\":3989:4052   */\n      swap3\n      pop\n        /* \"#utility.yul\":3945:4062   */\n      pop\n        /* \"#utility.yul\":4101:4103   */\n      0x20\n        /* \"#utility.yul\":4127:4180   */\n      tag_320\n        /* \"#utility.yul\":4172:4179   */\n      dup6\n        /* \"#utility.yul\":4163:4169   */\n      dup3\n        /* \"#utility.yul\":4152:4161   */\n      dup7\n        /* \"#utility.yul\":4148:4170   */\n      add\n        /* \"#utility.yul\":4127:4180   */\n      tag_244\n      jump\t// in\n    tag_320:\n        /* \"#utility.yul\":4117:4180   */\n      swap2\n      pop\n        /* \"#utility.yul\":4072:4190   */\n      pop\n        /* \"#utility.yul\":3723:4197   */\n      swap3\n      pop\n      swap3\n      swap1\n      pop\n      jump\t// out\n        /* \"#utility.yul\":4203:4293   */\n    tag_245:\n        /* \"#utility.yul\":4237:4244   */\n      0x00\n        /* \"#utility.yul\":4280:4285   */\n      dup2\n        /* \"#utility.yul\":4273:4286   */\n      iszero\n        /* \"#utility.yul\":4266:4287   */\n      iszero\n        /* \"#utility.yul\":4255:4287   */\n      swap1\n      pop\n        /* \"#utility.yul\":4203:4293   */\n      swap2\n      swap1\n      pop\n      jump\t// out\n        /* \"#utility.yul\":4299:4408   */\n    tag_246:\n        /* \"#utility.yul\":4380:4401   */\n      tag_323\n        /* \"#utility.yul\":4395:4400   */\n      dup2\n        /* \"#utility.yul\":4380:4401   */\n      tag_245\n      jump\t// in\n    tag_323:\n        /* \"#utility.yul\":4375:4378   */\n      dup3\n        /* \"#utility.yul\":4368:4402   */\n      mstore\n        /* \"#utility.yul\":4299:4408   */\n      pop\n      pop\n      jump\t// out\n        /* \"#utility.yul\":4414:4624   */\n    tag_44:\n        /* \"#utility.yul\":4501:4505   */\n      0x00\n        /* \"#utility.yul\":4539:4541   */\n      0x20\n        /* \"#utility.yul\":4528:4537   */\n      dup3\n        /* \"#utility.yul\":4524:4542   */\n      add\n        /* \"#utility.yul\":4516:4542   */\n      swap1\n      pop\n        /* \"#utility.yul\":4552:4617   */\n      tag_325\n        /* \"#utility.yul\":4614:4615   */\n      0x00\n        /* \"#utility.yul\":4603:4612   */\n      dup4\n        /* \"#utility.yul\":4599:4616   */\n      add\n        /* \"#utility.yul\":4590:4596   */\n      dup5\n        /* \"#utility.yul\":4552:4617   */\n      tag_246\n      jump\t// in\n    tag_325:\n        /* \"#utility.yul\":4414:4624   */\n      swap3\n      swap2\n      pop\n      pop\n      jump\t// out\n        /* \"#utility.yul\":4630:5249   */\n    tag_53:\n        /* \"#utility.yul\":4707:4713   */\n      0x00\n        /* \"#utility.yul\":4715:4721   */\n      dup1\n        /* \"#utility.yul\":4723:4729   */\n      0x00\n        /* \"#utility.yul\":4772:4774   */\n      0x60\n        /* \"#utility.yul\":4760:4769   */\n      dup5\n        /* \"#utility.yul\":4751:4758   */\n      dup7\n        /* \"#utility.yul\":4747:4770   */\n      sub\n        /* \"#utility.yul\":4743:4775   */\n      slt\n        /* \"#utility.yul\":4740:4859   */\n      iszero\n      tag_327\n      jumpi\n        /* \"#utility.yul\":4778:4857   */\n      tag_328\n      tag_229\n      jump\t// in\n    tag_328:\n        /* \"#utility.yul\":4740:4859   */\n    tag_327:\n        /* \"#utility.yul\":4898:4899   */\n      0x00\n        /* \"#utility.yul\":4923:4976   */\n      tag_329\n        /* \"#utility.yul\":4968:4975   */\n      dup7\n        /* \"#utility.yul\":4959:4965   */\n      dup3\n        /* \"#utility.yul\":4948:4957   */\n      dup8\n        /* \"#utility.yul\":4944:4966   */\n      add\n        /* \"#utility.yul\":4923:4976   */\n      tag_234\n      jump\t// in\n    tag_329:\n        /* \"#utility.yul\":4913:4976   */\n      swap4\n      pop\n        /* \"#utility.yul\":4869:4986   */\n      pop\n        /* \"#utility.yul\":5025:5027   */\n      0x20\n        /* \"#utility.yul\":5051:5104   */\n      tag_330\n        /* \"#utility.yul\":5096:5103   */\n      dup7\n        /* \"#utility.yul\":5087:5093   */\n      dup3\n        /* \"#utility.yul\":5076:5085   */\n      dup8\n        /* \"#utility.yul\":5072:5094   */\n      add\n        /* \"#utility.yul\":5051:5104   */\n      tag_234\n      jump\t// in\n    tag_330:\n        /* \"#utility.yul\":5041:5104   */\n      swap3\n      pop\n        /* \"#utility.yul\":4996:5114   */\n      pop\n        /* \"#utility.yul\":5153:5155   */\n      0x40\n        /* \"#utility.yul\":5179:5232   */\n      tag_331\n        /* \"#utility.yul\":5224:5231   */\n      dup7\n        /* \"#utility.yul\":5215:5221   */\n      dup3\n        /* \"#utility.yul\":5204:5213   */\n      dup8\n        /* \"#utility.yul\":5200:5222   */\n      add\n        /* \"#utility.yul\":5179:5232   */\n      tag_244\n      jump\t// in\n    tag_331:\n        /* \"#utility.yul\":5169:5232   */\n      swap2\n      pop\n        /* \"#utility.yul\":5124:5242   */\n      pop\n        /* \"#utility.yul\":4630:5249   */\n      swap3\n      pop\n      swap3\n      pop\n      swap3\n      jump\t// out\n        /* \"#utility.yul\":5255:5341   */\n    tag_247:\n        /* \"#utility.yul\":5290:5297   */\n      0x00\n        /* \"#utility.yul\":5330:5334   */\n      0xff\n        /* \"#utility.yul\":5323:5328   */\n      dup3\n        /* \"#utility.yul\":5319:5335   */\n      and\n        /* \"#utility.yul\":5308:5335   */\n      swap1\n      pop\n        /* \"#utility.yul\":5255:5341   */\n      swap2\n      swap1\n      pop\n      jump\t// out\n        /* \"#utility.yul\":5347:5459   */\n    tag_248:\n        /* \"#utility.yul\":5430:5452   */\n      tag_334\n        /* \"#utility.yul\":5446:5451   */\n      dup2\n        /* \"#utility.yul\":5430:5452   */\n      tag_247\n      jump\t// in\n    tag_334:\n        /* \"#utility.yul\":5425:5428   */\n      dup3\n        /* \"#utility.yul\":5418:5453   */\n      mstore\n        /* \"#utility.yul\":5347:5459   */\n      pop\n      pop\n      jump\t// out\n        /* \"#utility.yul\":5465:5679   */\n    tag_59:\n        /* \"#utility.yul\":5554:5558   */\n      0x00\n        /* \"#utility.yul\":5592:5594   */\n      0x20\n        /* \"#utility.yul\":5581:5590   */\n      dup3\n        /* \"#utility.yul\":5577:5595   */\n      add\n        /* \"#utility.yul\":5569:5595   */\n      swap1\n      pop\n        /* \"#utility.yul\":5605:5672   */\n      tag_336\n        /* \"#utility.yul\":5669:5670   */\n      0x00\n        /* \"#utility.yul\":5658:5667   */\n      dup4\n        /* \"#utility.yul\":5654:5671   */\n      add\n        /* \"#utility.yul\":5645:5651   */\n      dup5\n        /* \"#utility.yul\":5605:5672   */\n      tag_248\n      jump\t// in\n    tag_336:\n        /* \"#utility.yul\":5465:5679   */\n      swap3\n      swap2\n      pop\n      pop\n      jump\t// out\n        /* \"#utility.yul\":5685:6014   */\n    tag_68:\n        /* \"#utility.yul\":5744:5750   */\n      0x00\n        /* \"#utility.yul\":5793:5795   */\n      0x20\n        /* \"#utility.yul\":5781:5790   */\n      dup3\n        /* \"#utility.yul\":5772:5779   */\n      dup5\n        /* \"#utility.yul\":5768:5791   */\n      sub\n        /* \"#utility.yul\":5764:5796   */\n      slt\n        /* \"#utility.yul\":5761:5880   */\n      iszero\n      tag_338\n      jumpi\n        /* \"#utility.yul\":5799:5878   */\n      tag_339\n      tag_229\n      jump\t// in\n    tag_339:\n        /* \"#utility.yul\":5761:5880   */\n    tag_338:\n        /* \"#utility.yul\":5919:5920   */\n      0x00\n        /* \"#utility.yul\":5944:5997   */\n      tag_340\n        /* \"#utility.yul\":5989:5996   */\n      dup5\n        /* \"#utility.yul\":5980:5986   */\n      dup3\n        /* \"#utility.yul\":5969:5978   */\n      dup6\n        /* \"#utility.yul\":5965:5987   */\n      add\n        /* \"#utility.yul\":5944:5997   */\n      tag_234\n      jump\t// in\n    tag_340:\n        /* \"#utility.yul\":5934:5997   */\n      swap2\n      pop\n        /* \"#utility.yul\":5890:6007   */\n      pop\n        /* \"#utility.yul\":5685:6014   */\n      swap3\n      swap2\n      pop\n      pop\n      jump\t// out\n        /* \"#utility.yul\":6020:6128   */\n    tag_249:\n        /* \"#utility.yul\":6097:6121   */\n      tag_342\n        /* \"#utility.yul\":6115:6120   */\n      dup2\n        /* \"#utility.yul\":6097:6121   */\n      tag_232\n      jump\t// in\n    tag_342:\n        /* \"#utility.yul\":6092:6095   */\n      dup3\n        /* \"#utility.yul\":6085:6122   */\n      mstore\n        /* \"#utility.yul\":6020:6128   */\n      pop\n      pop\n      jump\t// out\n        /* \"#utility.yul\":6134:6293   */\n    tag_250:\n        /* \"#utility.yul\":6208:6219   */\n      0x00\n        /* \"#utility.yul\":6242:6248   */\n      dup3\n        /* \"#utility.yul\":6237:6240   */\n      dup3\n        /* \"#utility.yul\":6230:6249   */\n      mstore\n        /* \"#utility.yul\":6282:6286   */\n      0x20\n        /* \"#utility.yul\":6277:6280   */\n      dup3\n        /* \"#utility.yul\":6273:6287   */\n      add\n        /* \"#utility.yul\":6258:6287   */\n      swap1\n      pop\n        /* \"#utility.yul\":6134:6293   */\n      swap3\n      swap2\n      pop\n      pop\n      jump\t// out\n        /* \"#utility.yul\":6299:6656   */\n    tag_251:\n        /* \"#utility.yul\":6377:6380   */\n      0x00\n        /* \"#utility.yul\":6405:6444   */\n      tag_345\n        /* \"#utility.yul\":6438:6443   */\n      dup3\n        /* \"#utility.yul\":6405:6444   */\n      tag_238\n      jump\t// in\n    tag_345:\n        /* \"#utility.yul\":6460:6521   */\n      tag_346\n        /* \"#utility.yul\":6514:6520   */\n      dup2\n        /* \"#utility.yul\":6509:6512   */\n      dup6\n        /* \"#utility.yul\":6460:6521   */\n      tag_250\n      jump\t// in\n    tag_346:\n        /* \"#utility.yul\":6453:6521   */\n      swap4\n      pop\n        /* \"#utility.yul\":6530:6595   */\n      tag_347\n        /* \"#utility.yul\":6588:6594   */\n      dup2\n        /* \"#utility.yul\":6583:6586   */\n      dup6\n        /* \"#utility.yul\":6576:6580   */\n      0x20\n        /* \"#utility.yul\":6569:6574   */\n      dup7\n        /* \"#utility.yul\":6565:6581   */\n      add\n        /* \"#utility.yul\":6530:6595   */\n      tag_240\n      jump\t// in\n    tag_347:\n        /* \"#utility.yul\":6620:6649   */\n      tag_348\n        /* \"#utility.yul\":6642:6648   */\n      dup2\n        /* \"#utility.yul\":6620:6649   */\n      tag_241\n      jump\t// in\n    tag_348:\n        /* \"#utility.yul\":6615:6618   */\n      dup5\n        /* \"#utility.yul\":6611:6650   */\n      add\n        /* \"#utility.yul\":6604:6650   */\n      swap2\n      pop\n        /* \"#utility.yul\":6381:6656   */\n      pop\n        /* \"#utility.yul\":6299:6656   */\n      swap3\n      swap2\n      pop\n      pop\n      jump\t// out\n        /* \"#utility.yul\":6662:6764   */\n    tag_252:\n        /* \"#utility.yul\":6735:6757   */\n      tag_350\n        /* \"#utility.yul\":6751:6756   */\n      dup2\n        /* \"#utility.yul\":6735:6757   */\n      tag_247\n      jump\t// in\n    tag_350:\n        /* \"#utility.yul\":6730:6733   */\n      dup3\n        /* \"#utility.yul\":6723:6758   */\n      mstore\n        /* \"#utility.yul\":6662:6764   */\n      pop\n      pop\n      jump\t// out\n        /* \"#utility.yul\":6770:6878   */\n    tag_253:\n        /* \"#utility.yul\":6847:6871   */\n      tag_352\n        /* \"#utility.yul\":6865:6870   */\n      dup2\n        /* \"#utility.yul\":6847:6871   */\n      tag_235\n      jump\t// in\n    tag_352:\n        /* \"#utility.yul\":6842:6845   */\n      dup3\n        /* \"#utility.yul\":6835:6872   */\n      mstore\n        /* \"#utility.yul\":6770:6878   */\n      pop\n      pop\n      jump\t// out\n        /* \"#utility.yul\":6940:8326   */\n    tag_254:\n        /* \"#utility.yul\":7059:7062   */\n      0x00\n        /* \"#utility.yul\":7095:7099   */\n      0xc0\n        /* \"#utility.yul\":7090:7093   */\n      dup4\n        /* \"#utility.yul\":7086:7100   */\n      add\n        /* \"#utility.yul\":7183:7187   */\n      0x00\n        /* \"#utility.yul\":7176:7181   */\n      dup4\n        /* \"#utility.yul\":7172:7188   */\n      add\n        /* \"#utility.yul\":7166:7189   */\n      mload\n        /* \"#utility.yul\":7202:7265   */\n      tag_354\n        /* \"#utility.yul\":7259:7263   */\n      0x00\n        /* \"#utility.yul\":7254:7257   */\n      dup7\n        /* \"#utility.yul\":7250:7264   */\n      add\n        /* \"#utility.yul\":7236:7248   */\n      dup3\n        /* \"#utility.yul\":7202:7265   */\n      tag_249\n      jump\t// in\n    tag_354:\n        /* \"#utility.yul\":7110:7275   */\n      pop\n        /* \"#utility.yul\":7357:7361   */\n      0x20\n        /* \"#utility.yul\":7350:7355   */\n      dup4\n        /* \"#utility.yul\":7346:7362   */\n      add\n        /* \"#utility.yul\":7340:7363   */\n      mload\n        /* \"#utility.yul\":7410:7413   */\n      dup5\n        /* \"#utility.yul\":7404:7408   */\n      dup3\n        /* \"#utility.yul\":7400:7414   */\n      sub\n        /* \"#utility.yul\":7393:7397   */\n      0x20\n        /* \"#utility.yul\":7388:7391   */\n      dup7\n        /* \"#utility.yul\":7384:7398   */\n      add\n        /* \"#utility.yul\":7377:7415   */\n      mstore\n        /* \"#utility.yul\":7436:7509   */\n      tag_355\n        /* \"#utility.yul\":7504:7508   */\n      dup3\n        /* \"#utility.yul\":7490:7502   */\n      dup3\n        /* \"#utility.yul\":7436:7509   */\n      tag_251\n      jump\t// in\n    tag_355:\n        /* \"#utility.yul\":7428:7509   */\n      swap2\n      pop\n        /* \"#utility.yul\":7285:7520   */\n      pop\n        /* \"#utility.yul\":7604:7608   */\n      0x40\n        /* \"#utility.yul\":7597:7602   */\n      dup4\n        /* \"#utility.yul\":7593:7609   */\n      add\n        /* \"#utility.yul\":7587:7610   */\n      mload\n        /* \"#utility.yul\":7657:7660   */\n      dup5\n        /* \"#utility.yul\":7651:7655   */\n      dup3\n        /* \"#utility.yul\":7647:7661   */\n      sub\n        /* \"#utility.yul\":7640:7644   */\n      0x40\n        /* \"#utility.yul\":7635:7638   */\n      dup7\n        /* \"#utility.yul\":7631:7645   */\n      add\n        /* \"#utility.yul\":7624:7662   */\n      mstore\n        /* \"#utility.yul\":7683:7756   */\n      tag_356\n        /* \"#utility.yul\":7751:7755   */\n      dup3\n        /* \"#utility.yul\":7737:7749   */\n      dup3\n        /* \"#utility.yul\":7683:7756   */\n      tag_251\n      jump\t// in\n    tag_356:\n        /* \"#utility.yul\":7675:7756   */\n      swap2\n      pop\n        /* \"#utility.yul\":7530:7767   */\n      pop\n        /* \"#utility.yul\":7853:7857   */\n      0x60\n        /* \"#utility.yul\":7846:7851   */\n      dup4\n        /* \"#utility.yul\":7842:7858   */\n      add\n        /* \"#utility.yul\":7836:7859   */\n      mload\n        /* \"#utility.yul\":7872:7931   */\n      tag_357\n        /* \"#utility.yul\":7925:7929   */\n      0x60\n        /* \"#utility.yul\":7920:7923   */\n      dup7\n        /* \"#utility.yul\":7916:7930   */\n      add\n        /* \"#utility.yul\":7902:7914   */\n      dup3\n        /* \"#utility.yul\":7872:7931   */\n      tag_252\n      jump\t// in\n    tag_357:\n        /* \"#utility.yul\":7777:7941   */\n      pop\n        /* \"#utility.yul\":8030:8034   */\n      0x80\n        /* \"#utility.yul\":8023:8028   */\n      dup4\n        /* \"#utility.yul\":8019:8035   */\n      add\n        /* \"#utility.yul\":8013:8036   */\n      mload\n        /* \"#utility.yul\":8049:8112   */\n      tag_358\n        /* \"#utility.yul\":8106:8110   */\n      0x80\n        /* \"#utility.yul\":8101:8104   */\n      dup7\n        /* \"#utility.yul\":8097:8111   */\n      add\n        /* \"#utility.yul\":8083:8095   */\n      dup3\n        /* \"#utility.yul\":8049:8112   */\n      tag_253\n      jump\t// in\n    tag_358:\n        /* \"#utility.yul\":7951:8122   */\n      pop\n        /* \"#utility.yul\":8207:8211   */\n      0xa0\n        /* \"#utility.yul\":8200:8205   */\n      dup4\n        /* \"#utility.yul\":8196:8212   */\n      add\n        /* \"#utility.yul\":8190:8213   */\n      mload\n        /* \"#utility.yul\":8226:8289   */\n      tag_359\n        /* \"#utility.yul\":8283:8287   */\n      0xa0\n        /* \"#utility.yul\":8278:8281   */\n      dup7\n        /* \"#utility.yul\":8274:8288   */\n      add\n        /* \"#utility.yul\":8260:8272   */\n      dup3\n        /* \"#utility.yul\":8226:8289   */\n      tag_249\n      jump\t// in\n    tag_359:\n        /* \"#utility.yul\":8132:8299   */\n      pop\n        /* \"#utility.yul\":8316:8320   */\n      dup1\n        /* \"#utility.yul\":8309:8320   */\n      swap2\n      pop\n        /* \"#utility.yul\":7064:8326   */\n      pop\n        /* \"#utility.yul\":6940:8326   */\n      swap3\n      swap2\n      pop\n      pop\n      jump\t// out\n        /* \"#utility.yul\":8332:8705   */\n    tag_74:\n        /* \"#utility.yul\":8475:8479   */\n      0x00\n        /* \"#utility.yul\":8513:8515   */\n      0x20\n        /* \"#utility.yul\":8502:8511   */\n      dup3\n        /* \"#utility.yul\":8498:8516   */\n      add\n        /* \"#utility.yul\":8490:8516   */\n      swap1\n      pop\n        /* \"#utility.yul\":8562:8571   */\n      dup2\n        /* \"#utility.yul\":8556:8560   */\n      dup2\n        /* \"#utility.yul\":8552:8572   */\n      sub\n        /* \"#utility.yul\":8548:8549   */\n      0x00\n        /* \"#utility.yul\":8537:8546   */\n      dup4\n        /* \"#utility.yul\":8533:8550   */\n      add\n        /* \"#utility.yul\":8526:8573   */\n      mstore\n        /* \"#utility.yul\":8590:8698   */\n      tag_361\n        /* \"#utility.yul\":8693:8697   */\n      dup2\n        /* \"#utility.yul\":8684:8690   */\n      dup5\n        /* \"#utility.yul\":8590:8698   */\n      tag_254\n      jump\t// in\n    tag_361:\n        /* \"#utility.yul\":8582:8698   */\n      swap1\n      pop\n        /* \"#utility.yul\":8332:8705   */\n      swap3\n      swap2\n      pop\n      pop\n      jump\t// out\n        /* \"#utility.yul\":8711:8827   */\n    tag_255:\n        /* \"#utility.yul\":8781:8802   */\n      tag_363\n        /* \"#utility.yul\":8796:8801   */\n      dup2\n        /* \"#utility.yul\":8781:8802   */\n      tag_245\n      jump\t// in\n    tag_363:\n        /* \"#utility.yul\":8774:8779   */\n      dup2\n        /* \"#utility.yul\":8771:8803   */\n      eq\n        /* \"#utility.yul\":8761:8821   */\n      tag_364\n      jumpi\n        /* \"#utility.yul\":8817:8818   */\n      0x00\n        /* \"#utility.yul\":8814:8815   */\n      dup1\n        /* \"#utility.yul\":8807:8819   */\n      revert\n        /* \"#utility.yul\":8761:8821   */\n    tag_364:\n        /* \"#utility.yul\":8711:8827   */\n      pop\n      jump\t// out\n        /* \"#utility.yul\":8833:8966   */\n    tag_256:\n        /* \"#utility.yul\":8876:8881   */\n      0x00\n        /* \"#utility.yul\":8914:8920   */\n      dup2\n        /* \"#utility.yul\":8901:8921   */\n      calldataload\n        /* \"#utility.yul\":8892:8921   */\n      swap1\n      pop\n        /* \"#utility.yul\":8930:8960   */\n      tag_366\n        /* \"#utility.yul\":8954:8959   */\n      dup2\n        /* \"#utility.yul\":8930:8960   */\n      tag_255\n      jump\t// in\n    tag_366:\n        /* \"#utility.yul\":8833:8966   */\n      swap3\n      swap2\n      pop\n      pop\n      jump\t// out\n        /* \"#utility.yul\":8972:9295   */\n    tag_80:\n        /* \"#utility.yul\":9028:9034   */\n      0x00\n        /* \"#utility.yul\":9077:9079   */\n      0x20\n        /* \"#utility.yul\":9065:9074   */\n      dup3\n        /* \"#utility.yul\":9056:9063   */\n      dup5\n        /* \"#utility.yul\":9052:9075   */\n      sub\n        /* \"#utility.yul\":9048:9080   */\n      slt\n        /* \"#utility.yul\":9045:9164   */\n      iszero\n      tag_368\n      jumpi\n        /* \"#utility.yul\":9083:9162   */\n      tag_369\n      tag_229\n      jump\t// in\n    tag_369:\n        /* \"#utility.yul\":9045:9164   */\n    tag_368:\n        /* \"#utility.yul\":9203:9204   */\n      0x00\n        /* \"#utility.yul\":9228:9278   */\n      tag_370\n        /* \"#utility.yul\":9270:9277   */\n      dup5\n        /* \"#utility.yul\":9261:9267   */\n      dup3\n        /* \"#utility.yul\":9250:9259   */\n      dup6\n        /* \"#utility.yul\":9246:9268   */\n      add\n        /* \"#utility.yul\":9228:9278   */\n      tag_256\n      jump\t// in\n    tag_370:\n        /* \"#utility.yul\":9218:9278   */\n      swap2\n      pop\n        /* \"#utility.yul\":9174:9288   */\n      pop\n        /* \"#utility.yul\":8972:9295   */\n      swap3\n      swap2\n      pop\n      pop\n      jump\t// out\n        /* \"#utility.yul\":9301:9481   */\n    tag_257:\n        /* \"#utility.yul\":9349:9426   */\n      0x4e487b7100000000000000000000000000000000000000000000000000000000\n        /* \"#utility.yul\":9346:9347   */\n      0x00\n        /* \"#utility.yul\":9339:9427   */\n      mstore\n        /* \"#utility.yul\":9446:9450   */\n      0x22\n        /* \"#utility.yul\":9443:9444   */\n      0x04\n        /* \"#utility.yul\":9436:9451   */\n      mstore\n        /* \"#utility.yul\":9470:9474   */\n      0x24\n        /* \"#utility.yul\":9467:9468   */\n      0x00\n        /* \"#utility.yul\":9460:9475   */\n      revert\n        /* \"#utility.yul\":9487:9807   */\n    tag_101:\n        /* \"#utility.yul\":9531:9537   */\n      0x00\n        /* \"#utility.yul\":9568:9569   */\n      0x02\n        /* \"#utility.yul\":9562:9566   */\n      dup3\n        /* \"#utility.yul\":9558:9570   */\n      div\n        /* \"#utility.yul\":9548:9570   */\n      swap1\n      pop\n        /* \"#utility.yul\":9615:9616   */\n      0x01\n        /* \"#utility.yul\":9609:9613   */\n      dup3\n        /* \"#utility.yul\":9605:9617   */\n      and\n        /* \"#utility.yul\":9636:9654   */\n      dup1\n        /* \"#utility.yul\":9626:9707   */\n      tag_373\n      jumpi\n        /* \"#utility.yul\":9692:9696   */\n      0x7f\n        /* \"#utility.yul\":9684:9690   */\n      dup3\n        /* \"#utility.yul\":9680:9697   */\n      and\n        /* \"#utility.yul\":9670:9697   */\n      swap2\n      pop\n        /* \"#utility.yul\":9626:9707   */\n    tag_373:\n        /* \"#utility.yul\":9754:9756   */\n      0x20\n        /* \"#utility.yul\":9746:9752   */\n      dup3\n        /* \"#utility.yul\":9743:9757   */\n      lt\n        /* \"#utility.yul\":9723:9741   */\n      dup2\n        /* \"#utility.yul\":9720:9758   */\n      sub\n        /* \"#utility.yul\":9717:9801   */\n      tag_374\n      jumpi\n        /* \"#utility.yul\":9773:9791   */\n      tag_375\n      tag_257\n      jump\t// in\n    tag_375:\n        /* \"#utility.yul\":9717:9801   */\n    tag_374:\n        /* \"#utility.yul\":9538:9807   */\n      pop\n        /* \"#utility.yul\":9487:9807   */\n      swap2\n      swap1\n      pop\n      jump\t// out\n        /* \"#utility.yul\":9813:10145   */\n    tag_114:\n        /* \"#utility.yul\":9934:9938   */\n      0x00\n        /* \"#utility.yul\":9972:9974   */\n      0x40\n        /* \"#utility.yul\":9961:9970   */\n      dup3\n        /* \"#utility.yul\":9957:9975   */\n      add\n        /* \"#utility.yul\":9949:9975   */\n      swap1\n      pop\n        /* \"#utility.yul\":9985:10056   */\n      tag_377\n        /* \"#utility.yul\":10053:10054   */\n      0x00\n        /* \"#utility.yul\":10042:10051   */\n      dup4\n        /* \"#utility.yul\":10038:10055   */\n      add\n        /* \"#utility.yul\":10029:10035   */\n      dup6\n        /* \"#utility.yul\":9985:10056   */\n      tag_237\n      jump\t// in\n    tag_377:\n        /* \"#utility.yul\":10066:10138   */\n      tag_378\n        /* \"#utility.yul\":10134:10136   */\n      0x20\n        /* \"#utility.yul\":10123:10132   */\n      dup4\n        /* \"#utility.yul\":10119:10137   */\n      add\n        /* \"#utility.yul\":10110:10116   */\n      dup5\n        /* \"#utility.yul\":10066:10138   */\n      tag_237\n      jump\t// in\n    tag_378:\n        /* \"#utility.yul\":9813:10145   */\n      swap4\n      swap3\n      pop\n      pop\n      pop\n      jump\t// out\n        /* \"#utility.yul\":10151:10288   */\n    tag_258:\n        /* \"#utility.yul\":10205:10210   */\n      0x00\n        /* \"#utility.yul\":10236:10242   */\n      dup2\n        /* \"#utility.yul\":10230:10243   */\n      mload\n        /* \"#utility.yul\":10221:10243   */\n      swap1\n      pop\n        /* \"#utility.yul\":10252:10282   */\n      tag_380\n        /* \"#utility.yul\":10276:10281   */\n      dup2\n        /* \"#utility.yul\":10252:10282   */\n      tag_255\n      jump\t// in\n    tag_380:\n        /* \"#utility.yul\":10151:10288   */\n      swap3\n      swap2\n      pop\n      pop\n      jump\t// out\n        /* \"#utility.yul\":10294:10639   */\n    tag_117:\n        /* \"#utility.yul\":10361:10367   */\n      0x00\n        /* \"#utility.yul\":10410:10412   */\n      0x20\n        /* \"#utility.yul\":10398:10407   */\n      dup3\n        /* \"#utility.yul\":10389:10396   */\n      dup5\n        /* \"#utility.yul\":10385:10408   */\n      sub\n        /* \"#utility.yul\":10381:10413   */\n      slt\n        /* \"#utility.yul\":10378:10497   */\n      iszero\n      tag_382\n      jumpi\n        /* \"#utility.yul\":10416:10495   */\n      tag_383\n      tag_229\n      jump\t// in\n    tag_383:\n        /* \"#utility.yul\":10378:10497   */\n    tag_382:\n        /* \"#utility.yul\":10536:10537   */\n      0x00\n        /* \"#utility.yul\":10561:10622   */\n      tag_384\n        /* \"#utility.yul\":10614:10621   */\n      dup5\n        /* \"#utility.yul\":10605:10611   */\n      dup3\n        /* \"#utility.yul\":10594:10603   */\n      dup6\n        /* \"#utility.yul\":10590:10612   */\n      add\n        /* \"#utility.yul\":10561:10622   */\n      tag_258\n      jump\t// in\n    tag_384:\n        /* \"#utility.yul\":10551:10622   */\n      swap2\n      pop\n        /* \"#utility.yul\":10507:10632   */\n      pop\n        /* \"#utility.yul\":10294:10639   */\n      swap3\n      swap2\n      pop\n      pop\n      jump\t// out\n        /* \"#utility.yul\":10645:10762   */\n    tag_259:\n        /* \"#utility.yul\":10754:10755   */\n      0x00\n        /* \"#utility.yul\":10751:10752   */\n      dup1\n        /* \"#utility.yul\":10744:10756   */\n      revert\n        /* \"#utility.yul\":10768:10885   */\n    tag_260:\n        /* \"#utility.yul\":10877:10878   */\n      0x00\n        /* \"#utility.yul\":10874:10875   */\n      dup1\n        /* \"#utility.yul\":10867:10879   */\n      revert\n        /* \"#utility.yul\":10891:11071   */\n    tag_261:\n        /* \"#utility.yul\":10939:11016   */\n      0x4e487b7100000000000000000000000000000000000000000000000000000000\n        /* \"#utility.yul\":10936:10937   */\n      0x00\n        /* \"#utility.yul\":10929:11017   */\n      mstore\n        /* \"#utility.yul\":11036:11040   */\n      0x41\n        /* \"#utility.yul\":11033:11034   */\n      0x04\n        /* \"#utility.yul\":11026:11041   */\n      mstore\n        /* \"#utility.yul\":11060:11064   */\n      0x24\n        /* \"#utility.yul\":11057:11058   */\n      0x00\n        /* \"#utility.yul\":11050:11065   */\n      revert\n        /* \"#utility.yul\":11077:11358   */\n    tag_262:\n        /* \"#utility.yul\":11160:11187   */\n      tag_389\n        /* \"#utility.yul\":11182:11186   */\n      dup3\n        /* \"#utility.yul\":11160:11187   */\n      tag_241\n      jump\t// in\n    tag_389:\n        /* \"#utility.yul\":11152:11158   */\n      dup2\n        /* \"#utility.yul\":11148:11188   */\n      add\n        /* \"#utility.yul\":11290:11296   */\n      dup2\n        /* \"#utility.yul\":11278:11288   */\n      dup2\n        /* \"#utility.yul\":11275:11297   */\n      lt\n        /* \"#utility.yul\":11254:11272   */\n      0xffffffffffffffff\n        /* \"#utility.yul\":11242:11252   */\n      dup3\n        /* \"#utility.yul\":11239:11273   */\n      gt\n        /* \"#utility.yul\":11236:11298   */\n      or\n        /* \"#utility.yul\":11233:11321   */\n      iszero\n      tag_390\n      jumpi\n        /* \"#utility.yul\":11301:11319   */\n      tag_391\n      tag_261\n      jump\t// in\n    tag_391:\n        /* \"#utility.yul\":11233:11321   */\n    tag_390:\n        /* \"#utility.yul\":11341:11351   */\n      dup1\n        /* \"#utility.yul\":11337:11339   */\n      0x40\n        /* \"#utility.yul\":11330:11352   */\n      mstore\n        /* \"#utility.yul\":11120:11358   */\n      pop\n        /* \"#utility.yul\":11077:11358   */\n      pop\n      pop\n      jump\t// out\n        /* \"#utility.yul\":11364:11493   */\n    tag_263:\n        /* \"#utility.yul\":11398:11404   */\n      0x00\n        /* \"#utility.yul\":11425:11445   */\n      tag_393\n      tag_228\n      jump\t// in\n    tag_393:\n        /* \"#utility.yul\":11415:11445   */\n      swap1\n      pop\n        /* \"#utility.yul\":11454:11487   */\n      tag_394\n        /* \"#utility.yul\":11482:11486   */\n      dup3\n        /* \"#utility.yul\":11474:11480   */\n      dup3\n        /* \"#utility.yul\":11454:11487   */\n      tag_262\n      jump\t// in\n    tag_394:\n        /* \"#utility.yul\":11364:11493   */\n      swap2\n      swap1\n      pop\n      jump\t// out\n        /* \"#utility.yul\":11499:11807   */\n    tag_264:\n        /* \"#utility.yul\":11561:11565   */\n      0x00\n        /* \"#utility.yul\":11651:11669   */\n      0xffffffffffffffff\n        /* \"#utility.yul\":11643:11649   */\n      dup3\n        /* \"#utility.yul\":11640:11670   */\n      gt\n        /* \"#utility.yul\":11637:11693   */\n      iszero\n      tag_396\n      jumpi\n        /* \"#utility.yul\":11673:11691   */\n      tag_397\n      tag_261\n      jump\t// in\n    tag_397:\n        /* \"#utility.yul\":11637:11693   */\n    tag_396:\n        /* \"#utility.yul\":11711:11740   */\n      tag_398\n        /* \"#utility.yul\":11733:11739   */\n      dup3\n        /* \"#utility.yul\":11711:11740   */\n      tag_241\n      jump\t// in\n    tag_398:\n        /* \"#utility.yul\":11703:11740   */\n      swap1\n      pop\n        /* \"#utility.yul\":11795:11799   */\n      0x20\n        /* \"#utility.yul\":11789:11793   */\n      dup2\n        /* \"#utility.yul\":11785:11800   */\n      add\n        /* \"#utility.yul\":11777:11800   */\n      swap1\n      pop\n        /* \"#utility.yul\":11499:11807   */\n      swap2\n      swap1\n      pop\n      jump\t// out\n        /* \"#utility.yul\":11813:12247   */\n    tag_265:\n        /* \"#utility.yul\":11902:11907   */\n      0x00\n        /* \"#utility.yul\":11927:11993   */\n      tag_400\n        /* \"#utility.yul\":11943:11992   */\n      tag_401\n        /* \"#utility.yul\":11985:11991   */\n      dup5\n        /* \"#utility.yul\":11943:11992   */\n      tag_264\n      jump\t// in\n    tag_401:\n        /* \"#utility.yul\":11927:11993   */\n      tag_263\n      jump\t// in\n    tag_400:\n        /* \"#utility.yul\":11918:11993   */\n      swap1\n      pop\n        /* \"#utility.yul\":12016:12022   */\n      dup3\n        /* \"#utility.yul\":12009:12014   */\n      dup2\n        /* \"#utility.yul\":12002:12023   */\n      mstore\n        /* \"#utility.yul\":12054:12058   */\n      0x20\n        /* \"#utility.yul\":12047:12052   */\n      dup2\n        /* \"#utility.yul\":12043:12059   */\n      add\n        /* \"#utility.yul\":12092:12095   */\n      dup5\n        /* \"#utility.yul\":12083:12089   */\n      dup5\n        /* \"#utility.yul\":12078:12081   */\n      dup5\n        /* \"#utility.yul\":12074:12090   */\n      add\n        /* \"#utility.yul\":12071:12096   */\n      gt\n        /* \"#utility.yul\":12068:12180   */\n      iszero\n      tag_402\n      jumpi\n        /* \"#utility.yul\":12099:12178   */\n      tag_403\n      tag_260\n      jump\t// in\n    tag_403:\n        /* \"#utility.yul\":12068:12180   */\n    tag_402:\n        /* \"#utility.yul\":12189:12241   */\n      tag_404\n        /* \"#utility.yul\":12234:12240   */\n      dup5\n        /* \"#utility.yul\":12229:12232   */\n      dup3\n        /* \"#utility.yul\":12224:12227   */\n      dup6\n        /* \"#utility.yul\":12189:12241   */\n      tag_240\n      jump\t// in\n    tag_404:\n        /* \"#utility.yul\":11908:12247   */\n      pop\n        /* \"#utility.yul\":11813:12247   */\n      swap4\n      swap3\n      pop\n      pop\n      pop\n      jump\t// out\n        /* \"#utility.yul\":12267:12622   */\n    tag_266:\n        /* \"#utility.yul\":12334:12339   */\n      0x00\n        /* \"#utility.yul\":12383:12386   */\n      dup3\n        /* \"#utility.yul\":12376:12380   */\n      0x1f\n        /* \"#utility.yul\":12368:12374   */\n      dup4\n        /* \"#utility.yul\":12364:12381   */\n      add\n        /* \"#utility.yul\":12360:12387   */\n      slt\n        /* \"#utility.yul\":12350:12472   */\n      tag_406\n      jumpi\n        /* \"#utility.yul\":12391:12470   */\n      tag_407\n      tag_259\n      jump\t// in\n    tag_407:\n        /* \"#utility.yul\":12350:12472   */\n    tag_406:\n        /* \"#utility.yul\":12501:12507   */\n      dup2\n        /* \"#utility.yul\":12495:12508   */\n      mload\n        /* \"#utility.yul\":12526:12616   */\n      tag_408\n        /* \"#utility.yul\":12612:12615   */\n      dup5\n        /* \"#utility.yul\":12604:12610   */\n      dup3\n        /* \"#utility.yul\":12597:12601   */\n      0x20\n        /* \"#utility.yul\":12589:12595   */\n      dup7\n        /* \"#utility.yul\":12585:12602   */\n      add\n        /* \"#utility.yul\":12526:12616   */\n      tag_265\n      jump\t// in\n    tag_408:\n        /* \"#utility.yul\":12517:12616   */\n      swap2\n      pop\n        /* \"#utility.yul\":12340:12622   */\n      pop\n        /* \"#utility.yul\":12267:12622   */\n      swap3\n      swap2\n      pop\n      pop\n      jump\t// out\n        /* \"#utility.yul\":12628:13152   */\n    tag_135:\n        /* \"#utility.yul\":12708:12714   */\n      0x00\n        /* \"#utility.yul\":12757:12759   */\n      0x20\n        /* \"#utility.yul\":12745:12754   */\n      dup3\n        /* \"#utility.yul\":12736:12743   */\n      dup5\n        /* \"#utility.yul\":12732:12755   */\n      sub\n        /* \"#utility.yul\":12728:12760   */\n      slt\n        /* \"#utility.yul\":12725:12844   */\n      iszero\n      tag_410\n      jumpi\n        /* \"#utility.yul\":12763:12842   */\n      tag_411\n      tag_229\n      jump\t// in\n    tag_411:\n        /* \"#utility.yul\":12725:12844   */\n    tag_410:\n        /* \"#utility.yul\":12904:12905   */\n      0x00\n        /* \"#utility.yul\":12893:12902   */\n      dup3\n        /* \"#utility.yul\":12889:12906   */\n      add\n        /* \"#utility.yul\":12883:12907   */\n      mload\n        /* \"#utility.yul\":12934:12952   */\n      0xffffffffffffffff\n        /* \"#utility.yul\":12926:12932   */\n      dup2\n        /* \"#utility.yul\":12923:12953   */\n      gt\n        /* \"#utility.yul\":12920:13037   */\n      iszero\n      tag_412\n      jumpi\n        /* \"#utility.yul\":12956:13035   */\n      tag_413\n      tag_230\n      jump\t// in\n    tag_413:\n        /* \"#utility.yul\":12920:13037   */\n    tag_412:\n        /* \"#utility.yul\":13061:13135   */\n      tag_414\n        /* \"#utility.yul\":13127:13134   */\n      dup5\n        /* \"#utility.yul\":13118:13124   */\n      dup3\n        /* \"#utility.yul\":13107:13116   */\n      dup6\n        /* \"#utility.yul\":13103:13125   */\n      add\n        /* \"#utility.yul\":13061:13135   */\n      tag_266\n      jump\t// in\n    tag_414:\n        /* \"#utility.yul\":13051:13135   */\n      swap2\n      pop\n        /* \"#utility.yul\":12854:13145   */\n      pop\n        /* \"#utility.yul\":12628:13152   */\n      swap3\n      swap2\n      pop\n      pop\n      jump\t// out\n        /* \"#utility.yul\":13158:13276   */\n    tag_267:\n        /* \"#utility.yul\":13229:13251   */\n      tag_416\n        /* \"#utility.yul\":13245:13250   */\n      dup2\n        /* \"#utility.yul\":13229:13251   */\n      tag_247\n      jump\t// in\n    tag_416:\n        /* \"#utility.yul\":13222:13227   */\n      dup2\n        /* \"#utility.yul\":13219:13252   */\n      eq\n        /* \"#utility.yul\":13209:13270   */\n      tag_417\n      jumpi\n        /* \"#utility.yul\":13266:13267   */\n      0x00\n        /* \"#utility.yul\":13263:13264   */\n      dup1\n        /* \"#utility.yul\":13256:13268   */\n      revert\n        /* \"#utility.yul\":13209:13270   */\n    tag_417:\n        /* \"#utility.yul\":13158:13276   */\n      pop\n      jump\t// out\n        /* \"#utility.yul\":13282:13421   */\n    tag_268:\n        /* \"#utility.yul\":13337:13342   */\n      0x00\n        /* \"#utility.yul\":13368:13374   */\n      dup2\n        /* \"#utility.yul\":13362:13375   */\n      mload\n        /* \"#utility.yul\":13353:13375   */\n      swap1\n      pop\n        /* \"#utility.yul\":13384:13415   */\n      tag_419\n        /* \"#utility.yul\":13409:13414   */\n      dup2\n        /* \"#utility.yul\":13384:13415   */\n      tag_267\n      jump\t// in\n    tag_419:\n        /* \"#utility.yul\":13282:13421   */\n      swap3\n      swap2\n      pop\n      pop\n      jump\t// out\n        /* \"#utility.yul\":13427:13774   */\n    tag_142:\n        /* \"#utility.yul\":13495:13501   */\n      0x00\n        /* \"#utility.yul\":13544:13546   */\n      0x20\n        /* \"#utility.yul\":13532:13541   */\n      dup3\n        /* \"#utility.yul\":13523:13530   */\n      dup5\n        /* \"#utility.yul\":13519:13542   */\n      sub\n        /* \"#utility.yul\":13515:13547   */\n      slt\n        /* \"#utility.yul\":13512:13631   */\n      iszero\n      tag_421\n      jumpi\n        /* \"#utility.yul\":13550:13629   */\n      tag_422\n      tag_229\n      jump\t// in\n    tag_422:\n        /* \"#utility.yul\":13512:13631   */\n    tag_421:\n        /* \"#utility.yul\":13670:13671   */\n      0x00\n        /* \"#utility.yul\":13695:13757   */\n      tag_423\n        /* \"#utility.yul\":13749:13756   */\n      dup5\n        /* \"#utility.yul\":13740:13746   */\n      dup3\n        /* \"#utility.yul\":13729:13738   */\n      dup6\n        /* \"#utility.yul\":13725:13747   */\n      add\n        /* \"#utility.yul\":13695:13757   */\n      tag_268\n      jump\t// in\n    tag_423:\n        /* \"#utility.yul\":13685:13757   */\n      swap2\n      pop\n        /* \"#utility.yul\":13641:13767   */\n      pop\n        /* \"#utility.yul\":13427:13774   */\n      swap3\n      swap2\n      pop\n      pop\n      jump\t// out\n        /* \"#utility.yul\":13780:13923   */\n    tag_269:\n        /* \"#utility.yul\":13837:13842   */\n      0x00\n        /* \"#utility.yul\":13868:13874   */\n      dup2\n        /* \"#utility.yul\":13862:13875   */\n      mload\n        /* \"#utility.yul\":13853:13875   */\n      swap1\n      pop\n        /* \"#utility.yul\":13884:13917   */\n      tag_425\n        /* \"#utility.yul\":13911:13916   */\n      dup2\n        /* \"#utility.yul\":13884:13917   */\n      tag_243\n      jump\t// in\n    tag_425:\n        /* \"#utility.yul\":13780:13923   */\n      swap3\n      swap2\n      pop\n      pop\n      jump\t// out\n        /* \"#utility.yul\":13929:14280   */\n    tag_146:\n        /* \"#utility.yul\":13999:14005   */\n      0x00\n        /* \"#utility.yul\":14048:14050   */\n      0x20\n        /* \"#utility.yul\":14036:14045   */\n      dup3\n        /* \"#utility.yul\":14027:14034   */\n      dup5\n        /* \"#utility.yul\":14023:14046   */\n      sub\n        /* \"#utility.yul\":14019:14051   */\n      slt\n        /* \"#utility.yul\":14016:14135   */\n      iszero\n      tag_427\n      jumpi\n        /* \"#utility.yul\":14054:14133   */\n      tag_428\n      tag_229\n      jump\t// in\n    tag_428:\n        /* \"#utility.yul\":14016:14135   */\n    tag_427:\n        /* \"#utility.yul\":14174:14175   */\n      0x00\n        /* \"#utility.yul\":14199:14263   */\n      tag_429\n        /* \"#utility.yul\":14255:14262   */\n      dup5\n        /* \"#utility.yul\":14246:14252   */\n      dup3\n        /* \"#utility.yul\":14235:14244   */\n      dup6\n        /* \"#utility.yul\":14231:14253   */\n      add\n        /* \"#utility.yul\":14199:14263   */\n      tag_269\n      jump\t// in\n    tag_429:\n        /* \"#utility.yul\":14189:14263   */\n      swap2\n      pop\n        /* \"#utility.yul\":14145:14273   */\n      pop\n        /* \"#utility.yul\":13929:14280   */\n      swap3\n      swap2\n      pop\n      pop\n      jump\t// out\n        /* \"#utility.yul\":14286:14728   */\n    tag_202:\n        /* \"#utility.yul\":14435:14439   */\n      0x00\n        /* \"#utility.yul\":14473:14475   */\n      0x60\n        /* \"#utility.yul\":14462:14471   */\n      dup3\n        /* \"#utility.yul\":14458:14476   */\n      add\n        /* \"#utility.yul\":14450:14476   */\n      swap1\n      pop\n        /* \"#utility.yul\":14486:14557   */\n      tag_431\n        /* \"#utility.yul\":14554:14555   */\n      0x00\n        /* \"#utility.yul\":14543:14552   */\n      dup4\n        /* \"#utility.yul\":14539:14556   */\n      add\n        /* \"#utility.yul\":14530:14536   */\n      dup7\n        /* \"#utility.yul\":14486:14557   */\n      tag_237\n      jump\t// in\n    tag_431:\n        /* \"#utility.yul\":14567:14639   */\n      tag_432\n        /* \"#utility.yul\":14635:14637   */\n      0x20\n        /* \"#utility.yul\":14624:14633   */\n      dup4\n        /* \"#utility.yul\":14620:14638   */\n      add\n        /* \"#utility.yul\":14611:14617   */\n      dup6\n        /* \"#utility.yul\":14567:14639   */\n      tag_236\n      jump\t// in\n    tag_432:\n        /* \"#utility.yul\":14649:14721   */\n      tag_433\n        /* \"#utility.yul\":14717:14719   */\n      0x40\n        /* \"#utility.yul\":14706:14715   */\n      dup4\n        /* \"#utility.yul\":14702:14720   */\n      add\n        /* \"#utility.yul\":14693:14699   */\n      dup5\n        /* \"#utility.yul\":14649:14721   */\n      tag_236\n      jump\t// in\n    tag_433:\n        /* \"#utility.yul\":14286:14728   */\n      swap5\n      swap4\n      pop\n      pop\n      pop\n      pop\n      jump\t// out\n        /* \"#utility.yul\":14734:14914   */\n    tag_270:\n        /* \"#utility.yul\":14782:14859   */\n      0x4e487b7100000000000000000000000000000000000000000000000000000000\n        /* \"#utility.yul\":14779:14780   */\n      0x00\n        /* \"#utility.yul\":14772:14860   */\n      mstore\n        /* \"#utility.yul\":14879:14883   */\n      0x11\n        /* \"#utility.yul\":14876:14877   */\n      0x04\n        /* \"#utility.yul\":14869:14884   */\n      mstore\n        /* \"#utility.yul\":14903:14907   */\n      0x24\n        /* \"#utility.yul\":14900:14901   */\n      0x00\n        /* \"#utility.yul\":14893:14908   */\n      revert\n        /* \"#utility.yul\":14920:15111   */\n    tag_221:\n        /* \"#utility.yul\":14960:14963   */\n      0x00\n        /* \"#utility.yul\":14979:14999   */\n      tag_436\n        /* \"#utility.yul\":14997:14998   */\n      dup3\n        /* \"#utility.yul\":14979:14999   */\n      tag_235\n      jump\t// in\n    tag_436:\n        /* \"#utility.yul\":14974:14999   */\n      swap2\n      pop\n        /* \"#utility.yul\":15013:15033   */\n      tag_437\n        /* \"#utility.yul\":15031:15032   */\n      dup4\n        /* \"#utility.yul\":15013:15033   */\n      tag_235\n      jump\t// in\n    tag_437:\n        /* \"#utility.yul\":15008:15033   */\n      swap3\n      pop\n        /* \"#utility.yul\":15056:15057   */\n      dup3\n        /* \"#utility.yul\":15053:15054   */\n      dup3\n        /* \"#utility.yul\":15049:15058   */\n      add\n        /* \"#utility.yul\":15042:15058   */\n      swap1\n      pop\n        /* \"#utility.yul\":15077:15080   */\n      dup1\n        /* \"#utility.yul\":15074:15075   */\n      dup3\n        /* \"#utility.yul\":15071:15081   */\n      gt\n        /* \"#utility.yul\":15068:15104   */\n      iszero\n      tag_438\n      jumpi\n        /* \"#utility.yul\":15084:15102   */\n      tag_439\n      tag_270\n      jump\t// in\n    tag_439:\n        /* \"#utility.yul\":15068:15104   */\n    tag_438:\n        /* \"#utility.yul\":14920:15111   */\n      swap3\n      swap2\n      pop\n      pop\n      jump\t// out\n\n    auxdata: 0xa2646970667358221220f42ed7f6cc5505ac3bad563e09aed16f2fc7bc127adbea2afd0d3f1c6bf59b5964736f6c63430008130033\n}\n",
				"bytecode": {
					"linkReferences": {},
					"object": "6101006040526000600560006101000a81548160ff0219169083151502179055506040518060400160405280600581526020017f302e312e310000000000000000000000000000000000000000000000000000008152506006908162000066919062000772565b503480156200007457600080fd5b5060405162002afd38038062002afd83398181016040528101906200009a919062000b2e565b84848160039081620000ad919062000772565b508060049081620000bf919062000772565b50505081600081518110620000d957620000d862000c32565b5b602002602001015173ffffffffffffffffffffffffffffffffffffffff1660808173ffffffffffffffffffffffffffffffffffffffff1681525050816001815181106200012b576200012a62000c32565b5b602002602001015173ffffffffffffffffffffffffffffffffffffffff1660c08173ffffffffffffffffffffffffffffffffffffffff1681525050816002815181106200017d576200017c62000c32565b5b602002602001015173ffffffffffffffffffffffffffffffffffffffff1660a08173ffffffffffffffffffffffffffffffffffffffff168152505081600381518110620001cf57620001ce62000c32565b5b602002602001015173ffffffffffffffffffffffffffffffffffffffff1660e08173ffffffffffffffffffffffffffffffffffffffff168152505080600790816200021b919062000772565b5062000230608051846200023b60201b60201c565b505050505062000d64565b600073ffffffffffffffffffffffffffffffffffffffff168273ffffffffffffffffffffffffffffffffffffffff1603620002b05760006040517fec442f05000000000000000000000000000000000000000000000000000000008152600401620002a7919062000c72565b60405180910390fd5b620002c460008383620002c860201b60201c565b5050565b600073ffffffffffffffffffffffffffffffffffffffff168373ffffffffffffffffffffffffffffffffffffffff16036200031e57806002600082825462000311919062000cbe565b92505081905550620003f4565b60008060008573ffffffffffffffffffffffffffffffffffffffff1673ffffffffffffffffffffffffffffffffffffffff16815260200190815260200160002054905081811015620003ad578381836040517fe450d38c000000000000000000000000000000000000000000000000000000008152600401620003a49392919062000d0a565b60405180910390fd5b8181036000808673ffffffffffffffffffffffffffffffffffffffff1673ffffffffffffffffffffffffffffffffffffffff16815260200190815260200160002081905550505b600073ffffffffffffffffffffffffffffffffffffffff168273ffffffffffffffffffffffffffffffffffffffff16036200043f57806002600082825403925050819055506200048c565b806000808473ffffffffffffffffffffffffffffffffffffffff1673ffffffffffffffffffffffffffffffffffffffff168152602001908152602001600020600082825401925050819055505b8173ffffffffffffffffffffffffffffffffffffffff168373ffffffffffffffffffffffffffffffffffffffff167fddf252ad1be2c89b69c2b068fc378daa952ba7f163c4a11628f55a4df523b3ef83604051620004eb919062000d47565b60405180910390a3505050565b600081519050919050565b7f4e487b7100000000000000000000000000000000000000000000000000000000600052604160045260246000fd5b7f4e487b7100000000000000000000000000000000000000000000000000000000600052602260045260246000fd5b600060028204905060018216806200057a57607f821691505b60208210810362000590576200058f62000532565b5b50919050565b60008190508160005260206000209050919050565b60006020601f8301049050919050565b600082821b905092915050565b600060088302620005fa7fffffffffffffffffffffffffffffffffffffffffffffffffffffffffffffffff82620005bb565b620006068683620005bb565b95508019841693508086168417925050509392505050565b6000819050919050565b6000819050919050565b6000620006536200064d62000647846200061e565b62000628565b6200061e565b9050919050565b6000819050919050565b6200066f8362000632565b620006876200067e826200065a565b848454620005c8565b825550505050565b600090565b6200069e6200068f565b620006ab81848462000664565b505050565b5b81811015620006d357620006c760008262000694565b600181019050620006b1565b5050565b601f8211156200072257620006ec8162000596565b620006f784620005ab565b8101602085101562000707578190505b6200071f6200071685620005ab565b830182620006b0565b50505b505050565b600082821c905092915050565b6000620007476000198460080262000727565b1980831691505092915050565b600062000762838362000734565b9150826002028217905092915050565b6200077d82620004f8565b67ffffffffffffffff81111562000799576200079862000503565b5b620007a5825462000561565b620007b2828285620006d7565b600060209050601f831160018114620007ea5760008415620007d5578287015190505b620007e1858262000754565b86555062000851565b601f198416620007fa8662000596565b60005b828110156200082457848901518255600182019150602085019450602081019050620007fd565b8683101562000844578489015162000840601f89168262000734565b8355505b6001600288020188555050505b505050505050565b6000604051905090565b600080fd5b600080fd5b600080fd5b600080fd5b6000601f19601f8301169050919050565b620008938262000877565b810181811067ffffffffffffffff82111715620008b557620008b462000503565b5b80604052505050565b6000620008ca62000859565b9050620008d8828262000888565b919050565b600067ffffffffffffffff821115620008fb57620008fa62000503565b5b620009068262000877565b9050602081019050919050565b60005b838110156200093357808201518184015260208101905062000916565b60008484015250505050565b6000620009566200095084620008dd565b620008be565b90508281526020810184848401111562000975576200097462000872565b5b6200098284828562000913565b509392505050565b600082601f830112620009a257620009a16200086d565b5b8151620009b48482602086016200093f565b91505092915050565b620009c8816200061e565b8114620009d457600080fd5b50565b600081519050620009e881620009bd565b92915050565b600067ffffffffffffffff82111562000a0c5762000a0b62000503565b5b602082029050602081019050919050565b600080fd5b600073ffffffffffffffffffffffffffffffffffffffff82169050919050565b600062000a4f8262000a22565b9050919050565b62000a618162000a42565b811462000a6d57600080fd5b50565b60008151905062000a818162000a56565b92915050565b600062000a9e62000a9884620009ee565b620008be565b9050808382526020820190506020840283018581111562000ac45762000ac362000a1d565b5b835b8181101562000af1578062000adc888262000a70565b84526020840193505060208101905062000ac6565b5050509392505050565b600082601f83011262000b135762000b126200086d565b5b815162000b2584826020860162000a87565b91505092915050565b600080600080600060a0868803121562000b4d5762000b4c62000863565b5b600086015167ffffffffffffffff81111562000b6e5762000b6d62000868565b5b62000b7c888289016200098a565b955050602086015167ffffffffffffffff81111562000ba05762000b9f62000868565b5b62000bae888289016200098a565b945050604062000bc188828901620009d7565b935050606086015167ffffffffffffffff81111562000be55762000be462000868565b5b62000bf38882890162000afb565b925050608086015167ffffffffffffffff81111562000c175762000c1662000868565b5b62000c25888289016200098a565b9150509295509295909350565b7f4e487b7100000000000000000000000000000000000000000000000000000000600052603260045260246000fd5b62000c6c8162000a42565b82525050565b600060208201905062000c89600083018462000c61565b92915050565b7f4e487b7100000000000000000000000000000000000000000000000000000000600052601160045260246000fd5b600062000ccb826200061e565b915062000cd8836200061e565b925082820190508082111562000cf35762000cf262000c8f565b5b92915050565b62000d04816200061e565b82525050565b600060608201905062000d21600083018662000c61565b62000d30602083018562000cf9565b62000d3f604083018462000cf9565b949350505050565b600060208201905062000d5e600083018462000cf9565b92915050565b60805160a05160c05160e051611d3562000dc860003960008181610500015281816105440152610bcf01526000610cb60152600081816103f10152610a4601526000818161067b0152818161073e015281816107ce0152610b170152611d356000f3fe608060405234801561001057600080fd5b50600436106101215760003560e01c806364c9ec6f116100ad578063a9059cbb11610071578063a9059cbb14610310578063c45a015514610340578063dd62ed3e1461035e578063dfd9ef5f1461038e578063f8b1cb3c146103ac57610121565b806364c9ec6f1461026a57806370a08231146102885780637a5b4f59146102b857806395d89b41146102d6578063a71406b6146102f457610121565b80631615fd03116100f45780631615fd03146101c257806318160ddd146101e057806323b872dd146101fe578063313ce5671461022e57806331a18ea11461024c57610121565b8063024c2ddd1461012657806302d05d3f1461015657806306fdde0314610174578063095ea7b314610192575b600080fd5b610140600480360381019061013b9190611565565b6103ca565b60405161014d91906115be565b60405180910390f35b61015e6103ef565b60405161016b91906115e8565b60405180910390f35b61017c610413565b6040516101899190611693565b60405180910390f35b6101ac60048036038101906101a791906116e1565b6104a5565b6040516101b9919061173c565b60405180910390f35b6101ca6104fe565b6040516101d791906115e8565b60405180910390f35b6101e8610522565b6040516101f591906115be565b60405180910390f35b61021860048036038101906102139190611757565b61052c565b604051610225919061173c565b60405180910390f35b6102366107b0565b60405161024391906117c6565b60405180910390f35b6102546107b9565b604051610261919061173c565b60405180910390f35b6102726107cc565b60405161027f91906115e8565b60405180910390f35b6102a2600480360381019061029d91906117e1565b6107f0565b6040516102af91906115be565b60405180910390f35b6102c0610838565b6040516102cd9190611915565b60405180910390f35b6102de610a83565b6040516102eb9190611693565b60405180910390f35b61030e60048036038101906103099190611963565b610b15565b005b61032a600480360381019061032591906116e1565b610bb7565b604051610337919061173c565b60405180910390f35b610348610cb4565b60405161035591906115e8565b60405180910390f35b61037860048036038101906103739190611565565b610cd8565b60405161038591906115be565b60405180910390f35b610396610d5f565b6040516103a39190611693565b60405180910390f35b6103b4610ded565b6040516103c19190611693565b60405180910390f35b6001602052816000526040600020602052806000526040600020600091509150505481565b7f000000000000000000000000000000000000000000000000000000000000000081565b606060038054610422906119bf565b80601f016020809104026020016040519081016040528092919081815260200182805461044e906119bf565b801561049b5780601f106104705761010080835404028352916020019161049b565b820191906000526020600020905b81548152906001019060200180831161047e57829003601f168201915b5050505050905090565b6000600560009054906101000a900460ff166104ec576040517e92a47300000000000000000000000000000000000000000000000000000000815260040160405180910390fd5b6104f68383610e7b565b905092915050565b7f000000000000000000000000000000000000000000000000000000000000000081565b6000600254905090565b6000600560009054906101000a900460ff16610617577f000000000000000000000000000000000000000000000000000000000000000073ffffffffffffffffffffffffffffffffffffffff1663eb56a3bd30856040518363ffffffff1660e01b815260040161059d9291906119f0565b602060405180830381865afa9250505080156105d757506040513d601f19601f820116820180604052508101906105d49190611a2e565b60015b15610616578015610614576040517f0bb766ef00000000000000000000000000000000000000000000000000000000815260040160405180910390fd5b505b5b7fffffffffffffffffffffffffffffffffffffffffffffffffffffffffffffffff600160008673ffffffffffffffffffffffffffffffffffffffff1673ffffffffffffffffffffffffffffffffffffffff16815260200190815260200160002060007f000000000000000000000000000000000000000000000000000000000000000073ffffffffffffffffffffffffffffffffffffffff1673ffffffffffffffffffffffffffffffffffffffff168152602001908152602001600020541461079c577fffffffffffffffffffffffffffffffffffffffffffffffffffffffffffffffff600160008673ffffffffffffffffffffffffffffffffffffffff1673ffffffffffffffffffffffffffffffffffffffff16815260200190815260200160002060007f000000000000000000000000000000000000000000000000000000000000000073ffffffffffffffffffffffffffffffffffffffff1673ffffffffffffffffffffffffffffffffffffffff168152602001908152602001600020819055505b6107a7848484610e9e565b90509392505050565b60006012905090565b600560009054906101000a900460ff1681565b7f000000000000000000000000000000000000000000000000000000000000000081565b60008060008373ffffffffffffffffffffffffffffffffffffffff1673ffffffffffffffffffffffffffffffffffffffff168152602001908152602001600020549050919050565b61084061148e565b6040518060c001604052803073ffffffffffffffffffffffffffffffffffffffff1681526020013073ffffffffffffffffffffffffffffffffffffffff166306fdde036040518163ffffffff1660e01b8152600401600060405180830381865afa1580156108b2573d6000803e3d6000fd5b505050506040513d6000823e3d601f19601f820116820180604052508101906108db9190611b81565b81526020013073ffffffffffffffffffffffffffffffffffffffff166395d89b416040518163ffffffff1660e01b8152600401600060405180830381865afa15801561092b573d6000803e3d6000fd5b505050506040513d6000823e3d601f19601f820116820180604052508101906109549190611b81565b81526020013073ffffffffffffffffffffffffffffffffffffffff1663313ce5676040518163ffffffff1660e01b8152600401602060405180830381865afa1580156109a4573d6000803e3d6000fd5b505050506040513d601f19601f820116820180604052508101906109c89190611bf6565b60ff1681526020013073ffffffffffffffffffffffffffffffffffffffff166318160ddd6040518163ffffffff1660e01b8152600401602060405180830381865afa158015610a1b573d6000803e3d6000fd5b505050506040513d601f19601f82011682018060405250810190610a3f9190611c38565b81526020017f000000000000000000000000000000000000000000000000000000000000000073ffffffffffffffffffffffffffffffffffffffff16815250905090565b606060048054610a92906119bf565b80601f0160208091040260200160405190810160405280929190818152602001828054610abe906119bf565b8015610b0b5780601f10610ae057610100808354040283529160200191610b0b565b820191906000526020600020905b815481529060010190602001808311610aee57829003601f168201915b5050505050905090565b7f000000000000000000000000000000000000000000000000000000000000000073ffffffffffffffffffffffffffffffffffffffff163373ffffffffffffffffffffffffffffffffffffffff1614610b9a576040517fd6bce09500000000000000000000000000000000000000000000000000000000815260040160405180910390fd5b80600560006101000a81548160ff02191690831515021790555050565b6000600560009054906101000a900460ff16610ca2577f000000000000000000000000000000000000000000000000000000000000000073ffffffffffffffffffffffffffffffffffffffff1663eb56a3bd30856040518363ffffffff1660e01b8152600401610c289291906119f0565b602060405180830381865afa925050508015610c6257506040513d601f19601f82011682018060405250810190610c5f9190611a2e565b60015b15610ca1578015610c9f576040517f0bb766ef00000000000000000000000000000000000000000000000000000000815260040160405180910390fd5b505b5b610cac8383610ecd565b905092915050565b7f000000000000000000000000000000000000000000000000000000000000000081565b6000600160008473ffffffffffffffffffffffffffffffffffffffff1673ffffffffffffffffffffffffffffffffffffffff16815260200190815260200160002060008373ffffffffffffffffffffffffffffffffffffffff1673ffffffffffffffffffffffffffffffffffffffff16815260200190815260200160002054905092915050565b60078054610d6c906119bf565b80601f0160208091040260200160405190810160405280929190818152602001828054610d98906119bf565b8015610de55780601f10610dba57610100808354040283529160200191610de5565b820191906000526020600020905b815481529060010190602001808311610dc857829003601f168201915b505050505081565b60068054610dfa906119bf565b80601f0160208091040260200160405190810160405280929190818152602001828054610e26906119bf565b8015610e735780601f10610e4857610100808354040283529160200191610e73565b820191906000526020600020905b815481529060010190602001808311610e5657829003601f168201915b505050505081565b600080610e86610ef0565b9050610e93818585610ef8565b600191505092915050565b600080610ea9610ef0565b9050610eb6858285610f0a565b610ec1858585610f9e565b60019150509392505050565b600080610ed8610ef0565b9050610ee5818585610f9e565b600191505092915050565b600033905090565b610f058383836001611092565b505050565b6000610f168484610cd8565b90507fffffffffffffffffffffffffffffffffffffffffffffffffffffffffffffffff8114610f985781811015610f88578281836040517ffb8f41b2000000000000000000000000000000000000000000000000000000008152600401610f7f93929190611c65565b60405180910390fd5b610f9784848484036000611092565b5b50505050565b600073ffffffffffffffffffffffffffffffffffffffff168373ffffffffffffffffffffffffffffffffffffffff16036110105760006040517f96c6fd1e00000000000000000000000000000000000000000000000000000000815260040161100791906115e8565b60405180910390fd5b600073ffffffffffffffffffffffffffffffffffffffff168273ffffffffffffffffffffffffffffffffffffffff16036110825760006040517fec442f0500000000000000000000000000000000000000000000000000000000815260040161107991906115e8565b60405180910390fd5b61108d838383611269565b505050565b600073ffffffffffffffffffffffffffffffffffffffff168473ffffffffffffffffffffffffffffffffffffffff16036111045760006040517fe602df050000000000000000000000000000000000000000000000000000000081526004016110fb91906115e8565b60405180910390fd5b600073ffffffffffffffffffffffffffffffffffffffff168373ffffffffffffffffffffffffffffffffffffffff16036111765760006040517f94280d6200000000000000000000000000000000000000000000000000000000815260040161116d91906115e8565b60405180910390fd5b81600160008673ffffffffffffffffffffffffffffffffffffffff1673ffffffffffffffffffffffffffffffffffffffff16815260200190815260200160002060008573ffffffffffffffffffffffffffffffffffffffff1673ffffffffffffffffffffffffffffffffffffffff168152602001908152602001600020819055508015611263578273ffffffffffffffffffffffffffffffffffffffff168473ffffffffffffffffffffffffffffffffffffffff167f8c5be1e5ebec7d5bd14f71427d1e84f3dd0314c0f7b2291e5b200ac8c7c3b9258460405161125a91906115be565b60405180910390a35b50505050565b600073ffffffffffffffffffffffffffffffffffffffff168373ffffffffffffffffffffffffffffffffffffffff16036112bb5780600260008282546112af9190611ccb565b9250508190555061138e565b60008060008573ffffffffffffffffffffffffffffffffffffffff1673ffffffffffffffffffffffffffffffffffffffff16815260200190815260200160002054905081811015611347578381836040517fe450d38c00000000000000000000000000000000000000000000000000000000815260040161133e93929190611c65565b60405180910390fd5b8181036000808673ffffffffffffffffffffffffffffffffffffffff1673ffffffffffffffffffffffffffffffffffffffff16815260200190815260200160002081905550505b600073ffffffffffffffffffffffffffffffffffffffff168273ffffffffffffffffffffffffffffffffffffffff16036113d75780600260008282540392505081905550611424565b806000808473ffffffffffffffffffffffffffffffffffffffff1673ffffffffffffffffffffffffffffffffffffffff168152602001908152602001600020600082825401925050819055505b8173ffffffffffffffffffffffffffffffffffffffff168373ffffffffffffffffffffffffffffffffffffffff167fddf252ad1be2c89b69c2b068fc378daa952ba7f163c4a11628f55a4df523b3ef8360405161148191906115be565b60405180910390a3505050565b6040518060c00160405280600073ffffffffffffffffffffffffffffffffffffffff1681526020016060815260200160608152602001600060ff16815260200160008152602001600073ffffffffffffffffffffffffffffffffffffffff1681525090565b6000604051905090565b600080fd5b600080fd5b600073ffffffffffffffffffffffffffffffffffffffff82169050919050565b600061153282611507565b9050919050565b61154281611527565b811461154d57600080fd5b50565b60008135905061155f81611539565b92915050565b6000806040838503121561157c5761157b6114fd565b5b600061158a85828601611550565b925050602061159b85828601611550565b9150509250929050565b6000819050919050565b6115b8816115a5565b82525050565b60006020820190506115d360008301846115af565b92915050565b6115e281611527565b82525050565b60006020820190506115fd60008301846115d9565b92915050565b600081519050919050565b600082825260208201905092915050565b60005b8381101561163d578082015181840152602081019050611622565b60008484015250505050565b6000601f19601f8301169050919050565b600061166582611603565b61166f818561160e565b935061167f81856020860161161f565b61168881611649565b840191505092915050565b600060208201905081810360008301526116ad818461165a565b905092915050565b6116be816115a5565b81146116c957600080fd5b50565b6000813590506116db816116b5565b92915050565b600080604083850312156116f8576116f76114fd565b5b600061170685828601611550565b9250506020611717858286016116cc565b9150509250929050565b60008115159050919050565b61173681611721565b82525050565b6000602082019050611751600083018461172d565b92915050565b6000806000606084860312156117705761176f6114fd565b5b600061177e86828701611550565b935050602061178f86828701611550565b92505060406117a0868287016116cc565b9150509250925092565b600060ff82169050919050565b6117c0816117aa565b82525050565b60006020820190506117db60008301846117b7565b92915050565b6000602082840312156117f7576117f66114fd565b5b600061180584828501611550565b91505092915050565b61181781611527565b82525050565b600082825260208201905092915050565b600061183982611603565b611843818561181d565b935061185381856020860161161f565b61185c81611649565b840191505092915050565b611870816117aa565b82525050565b61187f816115a5565b82525050565b600060c08301600083015161189d600086018261180e565b50602083015184820360208601526118b5828261182e565b915050604083015184820360408601526118cf828261182e565b91505060608301516118e46060860182611867565b5060808301516118f76080860182611876565b5060a083015161190a60a086018261180e565b508091505092915050565b6000602082019050818103600083015261192f8184611885565b905092915050565b61194081611721565b811461194b57600080fd5b50565b60008135905061195d81611937565b92915050565b600060208284031215611979576119786114fd565b5b60006119878482850161194e565b91505092915050565b7f4e487b7100000000000000000000000000000000000000000000000000000000600052602260045260246000fd5b600060028204905060018216806119d757607f821691505b6020821081036119ea576119e9611990565b5b50919050565b6000604082019050611a0560008301856115d9565b611a1260208301846115d9565b9392505050565b600081519050611a2881611937565b92915050565b600060208284031215611a4457611a436114fd565b5b6000611a5284828501611a19565b91505092915050565b600080fd5b600080fd5b7f4e487b7100000000000000000000000000000000000000000000000000000000600052604160045260246000fd5b611a9d82611649565b810181811067ffffffffffffffff82111715611abc57611abb611a65565b5b80604052505050565b6000611acf6114f3565b9050611adb8282611a94565b919050565b600067ffffffffffffffff821115611afb57611afa611a65565b5b611b0482611649565b9050602081019050919050565b6000611b24611b1f84611ae0565b611ac5565b905082815260208101848484011115611b4057611b3f611a60565b5b611b4b84828561161f565b509392505050565b600082601f830112611b6857611b67611a5b565b5b8151611b78848260208601611b11565b91505092915050565b600060208284031215611b9757611b966114fd565b5b600082015167ffffffffffffffff811115611bb557611bb4611502565b5b611bc184828501611b53565b91505092915050565b611bd3816117aa565b8114611bde57600080fd5b50565b600081519050611bf081611bca565b92915050565b600060208284031215611c0c57611c0b6114fd565b5b6000611c1a84828501611be1565b91505092915050565b600081519050611c32816116b5565b92915050565b600060208284031215611c4e57611c4d6114fd565b5b6000611c5c84828501611c23565b91505092915050565b6000606082019050611c7a60008301866115d9565b611c8760208301856115af565b611c9460408301846115af565b949350505050565b7f4e487b7100000000000000000000000000000000000000000000000000000000600052601160045260246000fd5b6000611cd6826115a5565b9150611ce1836115a5565b9250828201905080821115611cf957611cf8611c9c565b5b9291505056fea2646970667358221220f42ed7f6cc5505ac3bad563e09aed16f2fc7bc127adbea2afd0d3f1c6bf59b5964736f6c63430008130033",
					"opcodes": "PUSH2 0x100 PUSH1 0x40 MSTORE PUSH1 0x0 PUSH1 0x5 PUSH1 0x0 PUSH2 0x100 EXP DUP2 SLOAD DUP2 PUSH1 0xFF MUL NOT AND SWAP1 DUP4 ISZERO ISZERO MUL OR SWAP1 SSTORE POP PUSH1 0x40 MLOAD DUP1 PUSH1 0x40 ADD PUSH1 0x40 MSTORE DUP1 PUSH1 0x5 DUP2 MSTORE PUSH1 0x20 ADD PUSH32 0x302E312E31000000000000000000000000000000000000000000000000000000 DUP2 MSTORE POP PUSH1 0x6 SWAP1 DUP2 PUSH3 0x66 SWAP2 SWAP1 PUSH3 0x772 JUMP JUMPDEST POP CALLVALUE DUP1 ISZERO PUSH3 0x74 JUMPI PUSH1 0x0 DUP1 REVERT JUMPDEST POP PUSH1 0x40 MLOAD PUSH3 0x2AFD CODESIZE SUB DUP1 PUSH3 0x2AFD DUP4 CODECOPY DUP2 DUP2 ADD PUSH1 0x40 MSTORE DUP2 ADD SWAP1 PUSH3 0x9A SWAP2 SWAP1 PUSH3 0xB2E JUMP JUMPDEST DUP5 DUP5 DUP2 PUSH1 0x3 SWAP1 DUP2 PUSH3 0xAD SWAP2 SWAP1 PUSH3 0x772 JUMP JUMPDEST POP DUP1 PUSH1 0x4 SWAP1 DUP2 PUSH3 0xBF SWAP2 SWAP1 PUSH3 0x772 JUMP JUMPDEST POP POP POP DUP2 PUSH1 0x0 DUP2 MLOAD DUP2 LT PUSH3 0xD9 JUMPI PUSH3 0xD8 PUSH3 0xC32 JUMP JUMPDEST JUMPDEST PUSH1 0x20 MUL PUSH1 0x20 ADD ADD MLOAD PUSH20 0xFFFFFFFFFFFFFFFFFFFFFFFFFFFFFFFFFFFFFFFF AND PUSH1 0x80 DUP2 PUSH20 0xFFFFFFFFFFFFFFFFFFFFFFFFFFFFFFFFFFFFFFFF AND DUP2 MSTORE POP POP DUP2 PUSH1 0x1 DUP2 MLOAD DUP2 LT PUSH3 0x12B JUMPI PUSH3 0x12A PUSH3 0xC32 JUMP JUMPDEST JUMPDEST PUSH1 0x20 MUL PUSH1 0x20 ADD ADD MLOAD PUSH20 0xFFFFFFFFFFFFFFFFFFFFFFFFFFFFFFFFFFFFFFFF AND PUSH1 0xC0 DUP2 PUSH20 0xFFFFFFFFFFFFFFFFFFFFFFFFFFFFFFFFFFFFFFFF AND DUP2 MSTORE POP POP DUP2 PUSH1 0x2 DUP2 MLOAD DUP2 LT PUSH3 0x17D JUMPI PUSH3 0x17C PUSH3 0xC32 JUMP JUMPDEST JUMPDEST PUSH1 0x20 MUL PUSH1 0x20 ADD ADD MLOAD PUSH20 0xFFFFFFFFFFFFFFFFFFFFFFFFFFFFFFFFFFFFFFFF AND PUSH1 0xA0 DUP2 PUSH20 0xFFFFFFFFFFFFFFFFFFFFFFFFFFFFFFFFFFFFFFFF AND DUP2 MSTORE POP POP DUP2 PUSH1 0x3 DUP2 MLOAD DUP2 LT PUSH3 0x1CF JUMPI PUSH3 0x1CE PUSH3 0xC32 JUMP JUMPDEST JUMPDEST PUSH1 0x20 MUL PUSH1 0x20 ADD ADD MLOAD PUSH20 0xFFFFFFFFFFFFFFFFFFFFFFFFFFFFFFFFFFFFFFFF AND PUSH1 0xE0 DUP2 PUSH20 0xFFFFFFFFFFFFFFFFFFFFFFFFFFFFFFFFFFFFFFFF AND DUP2 MSTORE POP POP DUP1 PUSH1 0x7 SWAP1 DUP2 PUSH3 0x21B SWAP2 SWAP1 PUSH3 0x772 JUMP JUMPDEST POP PUSH3 0x230 PUSH1 0x80 MLOAD DUP5 PUSH3 0x23B PUSH1 0x20 SHL PUSH1 0x20 SHR JUMP JUMPDEST POP POP POP POP POP PUSH3 0xD64 JUMP JUMPDEST PUSH1 0x0 PUSH20 0xFFFFFFFFFFFFFFFFFFFFFFFFFFFFFFFFFFFFFFFF AND DUP3 PUSH20 0xFFFFFFFFFFFFFFFFFFFFFFFFFFFFFFFFFFFFFFFF AND SUB PUSH3 0x2B0 JUMPI PUSH1 0x0 PUSH1 0x40 MLOAD PUSH32 0xEC442F0500000000000000000000000000000000000000000000000000000000 DUP2 MSTORE PUSH1 0x4 ADD PUSH3 0x2A7 SWAP2 SWAP1 PUSH3 0xC72 JUMP JUMPDEST PUSH1 0x40 MLOAD DUP1 SWAP2 SUB SWAP1 REVERT JUMPDEST PUSH3 0x2C4 PUSH1 0x0 DUP4 DUP4 PUSH3 0x2C8 PUSH1 0x20 SHL PUSH1 0x20 SHR JUMP JUMPDEST POP POP JUMP JUMPDEST PUSH1 0x0 PUSH20 0xFFFFFFFFFFFFFFFFFFFFFFFFFFFFFFFFFFFFFFFF AND DUP4 PUSH20 0xFFFFFFFFFFFFFFFFFFFFFFFFFFFFFFFFFFFFFFFF AND SUB PUSH3 0x31E JUMPI DUP1 PUSH1 0x2 PUSH1 0x0 DUP3 DUP3 SLOAD PUSH3 0x311 SWAP2 SWAP1 PUSH3 0xCBE JUMP JUMPDEST SWAP3 POP POP DUP2 SWAP1 SSTORE POP PUSH3 0x3F4 JUMP JUMPDEST PUSH1 0x0 DUP1 PUSH1 0x0 DUP6 PUSH20 0xFFFFFFFFFFFFFFFFFFFFFFFFFFFFFFFFFFFFFFFF AND PUSH20 0xFFFFFFFFFFFFFFFFFFFFFFFFFFFFFFFFFFFFFFFF AND DUP2 MSTORE PUSH1 0x20 ADD SWAP1 DUP2 MSTORE PUSH1 0x20 ADD PUSH1 0x0 KECCAK256 SLOAD SWAP1 POP DUP2 DUP2 LT ISZERO PUSH3 0x3AD JUMPI DUP4 DUP2 DUP4 PUSH1 0x40 MLOAD PUSH32 0xE450D38C00000000000000000000000000000000000000000000000000000000 DUP2 MSTORE PUSH1 0x4 ADD PUSH3 0x3A4 SWAP4 SWAP3 SWAP2 SWAP1 PUSH3 0xD0A JUMP JUMPDEST PUSH1 0x40 MLOAD DUP1 SWAP2 SUB SWAP1 REVERT JUMPDEST DUP2 DUP2 SUB PUSH1 0x0 DUP1 DUP7 PUSH20 0xFFFFFFFFFFFFFFFFFFFFFFFFFFFFFFFFFFFFFFFF AND PUSH20 0xFFFFFFFFFFFFFFFFFFFFFFFFFFFFFFFFFFFFFFFF AND DUP2 MSTORE PUSH1 0x20 ADD SWAP1 DUP2 MSTORE PUSH1 0x20 ADD PUSH1 0x0 KECCAK256 DUP2 SWAP1 SSTORE POP POP JUMPDEST PUSH1 0x0 PUSH20 0xFFFFFFFFFFFFFFFFFFFFFFFFFFFFFFFFFFFFFFFF AND DUP3 PUSH20 0xFFFFFFFFFFFFFFFFFFFFFFFFFFFFFFFFFFFFFFFF AND SUB PUSH3 0x43F JUMPI DUP1 PUSH1 0x2 PUSH1 0x0 DUP3 DUP3 SLOAD SUB SWAP3 POP POP DUP2 SWAP1 SSTORE POP PUSH3 0x48C JUMP JUMPDEST DUP1 PUSH1 0x0 DUP1 DUP5 PUSH20 0xFFFFFFFFFFFFFFFFFFFFFFFFFFFFFFFFFFFFFFFF AND PUSH20 0xFFFFFFFFFFFFFFFFFFFFFFFFFFFFFFFFFFFFFFFF AND DUP2 MSTORE PUSH1 0x20 ADD SWAP1 DUP2 MSTORE PUSH1 0x20 ADD PUSH1 0x0 KECCAK256 PUSH1 0x0 DUP3 DUP3 SLOAD ADD SWAP3 POP POP DUP2 SWAP1 SSTORE POP JUMPDEST DUP2 PUSH20 0xFFFFFFFFFFFFFFFFFFFFFFFFFFFFFFFFFFFFFFFF AND DUP4 PUSH20 0xFFFFFFFFFFFFFFFFFFFFFFFFFFFFFFFFFFFFFFFF AND PUSH32 0xDDF252AD1BE2C89B69C2B068FC378DAA952BA7F163C4A11628F55A4DF523B3EF DUP4 PUSH1 0x40 MLOAD PUSH3 0x4EB SWAP2 SWAP1 PUSH3 0xD47 JUMP JUMPDEST PUSH1 0x40 MLOAD DUP1 SWAP2 SUB SWAP1 LOG3 POP POP POP JUMP JUMPDEST PUSH1 0x0 DUP2 MLOAD SWAP1 POP SWAP2 SWAP1 POP JUMP JUMPDEST PUSH32 0x4E487B7100000000000000000000000000000000000000000000000000000000 PUSH1 0x0 MSTORE PUSH1 0x41 PUSH1 0x4 MSTORE PUSH1 0x24 PUSH1 0x0 REVERT JUMPDEST PUSH32 0x4E487B7100000000000000000000000000000000000000000000000000000000 PUSH1 0x0 MSTORE PUSH1 0x22 PUSH1 0x4 MSTORE PUSH1 0x24 PUSH1 0x0 REVERT JUMPDEST PUSH1 0x0 PUSH1 0x2 DUP3 DIV SWAP1 POP PUSH1 0x1 DUP3 AND DUP1 PUSH3 0x57A JUMPI PUSH1 0x7F DUP3 AND SWAP2 POP JUMPDEST PUSH1 0x20 DUP3 LT DUP2 SUB PUSH3 0x590 JUMPI PUSH3 0x58F PUSH3 0x532 JUMP JUMPDEST JUMPDEST POP SWAP2 SWAP1 POP JUMP JUMPDEST PUSH1 0x0 DUP2 SWAP1 POP DUP2 PUSH1 0x0 MSTORE PUSH1 0x20 PUSH1 0x0 KECCAK256 SWAP1 POP SWAP2 SWAP1 POP JUMP JUMPDEST PUSH1 0x0 PUSH1 0x20 PUSH1 0x1F DUP4 ADD DIV SWAP1 POP SWAP2 SWAP1 POP JUMP JUMPDEST PUSH1 0x0 DUP3 DUP3 SHL SWAP1 POP SWAP3 SWAP2 POP POP JUMP JUMPDEST PUSH1 0x0 PUSH1 0x8 DUP4 MUL PUSH3 0x5FA PUSH32 0xFFFFFFFFFFFFFFFFFFFFFFFFFFFFFFFFFFFFFFFFFFFFFFFFFFFFFFFFFFFFFFFF DUP3 PUSH3 0x5BB JUMP JUMPDEST PUSH3 0x606 DUP7 DUP4 PUSH3 0x5BB JUMP JUMPDEST SWAP6 POP DUP1 NOT DUP5 AND SWAP4 POP DUP1 DUP7 AND DUP5 OR SWAP3 POP POP POP SWAP4 SWAP3 POP POP POP JUMP JUMPDEST PUSH1 0x0 DUP2 SWAP1 POP SWAP2 SWAP1 POP JUMP JUMPDEST PUSH1 0x0 DUP2 SWAP1 POP SWAP2 SWAP1 POP JUMP JUMPDEST PUSH1 0x0 PUSH3 0x653 PUSH3 0x64D PUSH3 0x647 DUP5 PUSH3 0x61E JUMP JUMPDEST PUSH3 0x628 JUMP JUMPDEST PUSH3 0x61E JUMP JUMPDEST SWAP1 POP SWAP2 SWAP1 POP JUMP JUMPDEST PUSH1 0x0 DUP2 SWAP1 POP SWAP2 SWAP1 POP JUMP JUMPDEST PUSH3 0x66F DUP4 PUSH3 0x632 JUMP JUMPDEST PUSH3 0x687 PUSH3 0x67E DUP3 PUSH3 0x65A JUMP JUMPDEST DUP5 DUP5 SLOAD PUSH3 0x5C8 JUMP JUMPDEST DUP3 SSTORE POP POP POP POP JUMP JUMPDEST PUSH1 0x0 SWAP1 JUMP JUMPDEST PUSH3 0x69E PUSH3 0x68F JUMP JUMPDEST PUSH3 0x6AB DUP2 DUP5 DUP5 PUSH3 0x664 JUMP JUMPDEST POP POP POP JUMP JUMPDEST JUMPDEST DUP2 DUP2 LT ISZERO PUSH3 0x6D3 JUMPI PUSH3 0x6C7 PUSH1 0x0 DUP3 PUSH3 0x694 JUMP JUMPDEST PUSH1 0x1 DUP2 ADD SWAP1 POP PUSH3 0x6B1 JUMP JUMPDEST POP POP JUMP JUMPDEST PUSH1 0x1F DUP3 GT ISZERO PUSH3 0x722 JUMPI PUSH3 0x6EC DUP2 PUSH3 0x596 JUMP JUMPDEST PUSH3 0x6F7 DUP5 PUSH3 0x5AB JUMP JUMPDEST DUP2 ADD PUSH1 0x20 DUP6 LT ISZERO PUSH3 0x707 JUMPI DUP2 SWAP1 POP JUMPDEST PUSH3 0x71F PUSH3 0x716 DUP6 PUSH3 0x5AB JUMP JUMPDEST DUP4 ADD DUP3 PUSH3 0x6B0 JUMP JUMPDEST POP POP JUMPDEST POP POP POP JUMP JUMPDEST PUSH1 0x0 DUP3 DUP3 SHR SWAP1 POP SWAP3 SWAP2 POP POP JUMP JUMPDEST PUSH1 0x0 PUSH3 0x747 PUSH1 0x0 NOT DUP5 PUSH1 0x8 MUL PUSH3 0x727 JUMP JUMPDEST NOT DUP1 DUP4 AND SWAP2 POP POP SWAP3 SWAP2 POP POP JUMP JUMPDEST PUSH1 0x0 PUSH3 0x762 DUP4 DUP4 PUSH3 0x734 JUMP JUMPDEST SWAP2 POP DUP3 PUSH1 0x2 MUL DUP3 OR SWAP1 POP SWAP3 SWAP2 POP POP JUMP JUMPDEST PUSH3 0x77D DUP3 PUSH3 0x4F8 JUMP JUMPDEST PUSH8 0xFFFFFFFFFFFFFFFF DUP2 GT ISZERO PUSH3 0x799 JUMPI PUSH3 0x798 PUSH3 0x503 JUMP JUMPDEST JUMPDEST PUSH3 0x7A5 DUP3 SLOAD PUSH3 0x561 JUMP JUMPDEST PUSH3 0x7B2 DUP3 DUP3 DUP6 PUSH3 0x6D7 JUMP JUMPDEST PUSH1 0x0 PUSH1 0x20 SWAP1 POP PUSH1 0x1F DUP4 GT PUSH1 0x1 DUP2 EQ PUSH3 0x7EA JUMPI PUSH1 0x0 DUP5 ISZERO PUSH3 0x7D5 JUMPI DUP3 DUP8 ADD MLOAD SWAP1 POP JUMPDEST PUSH3 0x7E1 DUP6 DUP3 PUSH3 0x754 JUMP JUMPDEST DUP7 SSTORE POP PUSH3 0x851 JUMP JUMPDEST PUSH1 0x1F NOT DUP5 AND PUSH3 0x7FA DUP7 PUSH3 0x596 JUMP JUMPDEST PUSH1 0x0 JUMPDEST DUP3 DUP2 LT ISZERO PUSH3 0x824 JUMPI DUP5 DUP10 ADD MLOAD DUP3 SSTORE PUSH1 0x1 DUP3 ADD SWAP2 POP PUSH1 0x20 DUP6 ADD SWAP5 POP PUSH1 0x20 DUP2 ADD SWAP1 POP PUSH3 0x7FD JUMP JUMPDEST DUP7 DUP4 LT ISZERO PUSH3 0x844 JUMPI DUP5 DUP10 ADD MLOAD PUSH3 0x840 PUSH1 0x1F DUP10 AND DUP3 PUSH3 0x734 JUMP JUMPDEST DUP4 SSTORE POP JUMPDEST PUSH1 0x1 PUSH1 0x2 DUP9 MUL ADD DUP9 SSTORE POP POP POP JUMPDEST POP POP POP POP POP POP JUMP JUMPDEST PUSH1 0x0 PUSH1 0x40 MLOAD SWAP1 POP SWAP1 JUMP JUMPDEST PUSH1 0x0 DUP1 REVERT JUMPDEST PUSH1 0x0 DUP1 REVERT JUMPDEST PUSH1 0x0 DUP1 REVERT JUMPDEST PUSH1 0x0 DUP1 REVERT JUMPDEST PUSH1 0x0 PUSH1 0x1F NOT PUSH1 0x1F DUP4 ADD AND SWAP1 POP SWAP2 SWAP1 POP JUMP JUMPDEST PUSH3 0x893 DUP3 PUSH3 0x877 JUMP JUMPDEST DUP2 ADD DUP2 DUP2 LT PUSH8 0xFFFFFFFFFFFFFFFF DUP3 GT OR ISZERO PUSH3 0x8B5 JUMPI PUSH3 0x8B4 PUSH3 0x503 JUMP JUMPDEST JUMPDEST DUP1 PUSH1 0x40 MSTORE POP POP POP JUMP JUMPDEST PUSH1 0x0 PUSH3 0x8CA PUSH3 0x859 JUMP JUMPDEST SWAP1 POP PUSH3 0x8D8 DUP3 DUP3 PUSH3 0x888 JUMP JUMPDEST SWAP2 SWAP1 POP JUMP JUMPDEST PUSH1 0x0 PUSH8 0xFFFFFFFFFFFFFFFF DUP3 GT ISZERO PUSH3 0x8FB JUMPI PUSH3 0x8FA PUSH3 0x503 JUMP JUMPDEST JUMPDEST PUSH3 0x906 DUP3 PUSH3 0x877 JUMP JUMPDEST SWAP1 POP PUSH1 0x20 DUP2 ADD SWAP1 POP SWAP2 SWAP1 POP JUMP JUMPDEST PUSH1 0x0 JUMPDEST DUP4 DUP2 LT ISZERO PUSH3 0x933 JUMPI DUP1 DUP3 ADD MLOAD DUP2 DUP5 ADD MSTORE PUSH1 0x20 DUP2 ADD SWAP1 POP PUSH3 0x916 JUMP JUMPDEST PUSH1 0x0 DUP5 DUP5 ADD MSTORE POP POP POP POP JUMP JUMPDEST PUSH1 0x0 PUSH3 0x956 PUSH3 0x950 DUP5 PUSH3 0x8DD JUMP JUMPDEST PUSH3 0x8BE JUMP JUMPDEST SWAP1 POP DUP3 DUP2 MSTORE PUSH1 0x20 DUP2 ADD DUP5 DUP5 DUP5 ADD GT ISZERO PUSH3 0x975 JUMPI PUSH3 0x974 PUSH3 0x872 JUMP JUMPDEST JUMPDEST PUSH3 0x982 DUP5 DUP3 DUP6 PUSH3 0x913 JUMP JUMPDEST POP SWAP4 SWAP3 POP POP POP JUMP JUMPDEST PUSH1 0x0 DUP3 PUSH1 0x1F DUP4 ADD SLT PUSH3 0x9A2 JUMPI PUSH3 0x9A1 PUSH3 0x86D JUMP JUMPDEST JUMPDEST DUP2 MLOAD PUSH3 0x9B4 DUP5 DUP3 PUSH1 0x20 DUP7 ADD PUSH3 0x93F JUMP JUMPDEST SWAP2 POP POP SWAP3 SWAP2 POP POP JUMP JUMPDEST PUSH3 0x9C8 DUP2 PUSH3 0x61E JUMP JUMPDEST DUP2 EQ PUSH3 0x9D4 JUMPI PUSH1 0x0 DUP1 REVERT JUMPDEST POP JUMP JUMPDEST PUSH1 0x0 DUP2 MLOAD SWAP1 POP PUSH3 0x9E8 DUP2 PUSH3 0x9BD JUMP JUMPDEST SWAP3 SWAP2 POP POP JUMP JUMPDEST PUSH1 0x0 PUSH8 0xFFFFFFFFFFFFFFFF DUP3 GT ISZERO PUSH3 0xA0C JUMPI PUSH3 0xA0B PUSH3 0x503 JUMP JUMPDEST JUMPDEST PUSH1 0x20 DUP3 MUL SWAP1 POP PUSH1 0x20 DUP2 ADD SWAP1 POP SWAP2 SWAP1 POP JUMP JUMPDEST PUSH1 0x0 DUP1 REVERT JUMPDEST PUSH1 0x0 PUSH20 0xFFFFFFFFFFFFFFFFFFFFFFFFFFFFFFFFFFFFFFFF DUP3 AND SWAP1 POP SWAP2 SWAP1 POP JUMP JUMPDEST PUSH1 0x0 PUSH3 0xA4F DUP3 PUSH3 0xA22 JUMP JUMPDEST SWAP1 POP SWAP2 SWAP1 POP JUMP JUMPDEST PUSH3 0xA61 DUP2 PUSH3 0xA42 JUMP JUMPDEST DUP2 EQ PUSH3 0xA6D JUMPI PUSH1 0x0 DUP1 REVERT JUMPDEST POP JUMP JUMPDEST PUSH1 0x0 DUP2 MLOAD SWAP1 POP PUSH3 0xA81 DUP2 PUSH3 0xA56 JUMP JUMPDEST SWAP3 SWAP2 POP POP JUMP JUMPDEST PUSH1 0x0 PUSH3 0xA9E PUSH3 0xA98 DUP5 PUSH3 0x9EE JUMP JUMPDEST PUSH3 0x8BE JUMP JUMPDEST SWAP1 POP DUP1 DUP4 DUP3 MSTORE PUSH1 0x20 DUP3 ADD SWAP1 POP PUSH1 0x20 DUP5 MUL DUP4 ADD DUP6 DUP2 GT ISZERO PUSH3 0xAC4 JUMPI PUSH3 0xAC3 PUSH3 0xA1D JUMP JUMPDEST JUMPDEST DUP4 JUMPDEST DUP2 DUP2 LT ISZERO PUSH3 0xAF1 JUMPI DUP1 PUSH3 0xADC DUP9 DUP3 PUSH3 0xA70 JUMP JUMPDEST DUP5 MSTORE PUSH1 0x20 DUP5 ADD SWAP4 POP POP PUSH1 0x20 DUP2 ADD SWAP1 POP PUSH3 0xAC6 JUMP JUMPDEST POP POP POP SWAP4 SWAP3 POP POP POP JUMP JUMPDEST PUSH1 0x0 DUP3 PUSH1 0x1F DUP4 ADD SLT PUSH3 0xB13 JUMPI PUSH3 0xB12 PUSH3 0x86D JUMP JUMPDEST JUMPDEST DUP2 MLOAD PUSH3 0xB25 DUP5 DUP3 PUSH1 0x20 DUP7 ADD PUSH3 0xA87 JUMP JUMPDEST SWAP2 POP POP SWAP3 SWAP2 POP POP JUMP JUMPDEST PUSH1 0x0 DUP1 PUSH1 0x0 DUP1 PUSH1 0x0 PUSH1 0xA0 DUP7 DUP9 SUB SLT ISZERO PUSH3 0xB4D JUMPI PUSH3 0xB4C PUSH3 0x863 JUMP JUMPDEST JUMPDEST PUSH1 0x0 DUP7 ADD MLOAD PUSH8 0xFFFFFFFFFFFFFFFF DUP2 GT ISZERO PUSH3 0xB6E JUMPI PUSH3 0xB6D PUSH3 0x868 JUMP JUMPDEST JUMPDEST PUSH3 0xB7C DUP9 DUP3 DUP10 ADD PUSH3 0x98A JUMP JUMPDEST SWAP6 POP POP PUSH1 0x20 DUP7 ADD MLOAD PUSH8 0xFFFFFFFFFFFFFFFF DUP2 GT ISZERO PUSH3 0xBA0 JUMPI PUSH3 0xB9F PUSH3 0x868 JUMP JUMPDEST JUMPDEST PUSH3 0xBAE DUP9 DUP3 DUP10 ADD PUSH3 0x98A JUMP JUMPDEST SWAP5 POP POP PUSH1 0x40 PUSH3 0xBC1 DUP9 DUP3 DUP10 ADD PUSH3 0x9D7 JUMP JUMPDEST SWAP4 POP POP PUSH1 0x60 DUP7 ADD MLOAD PUSH8 0xFFFFFFFFFFFFFFFF DUP2 GT ISZERO PUSH3 0xBE5 JUMPI PUSH3 0xBE4 PUSH3 0x868 JUMP JUMPDEST JUMPDEST PUSH3 0xBF3 DUP9 DUP3 DUP10 ADD PUSH3 0xAFB JUMP JUMPDEST SWAP3 POP POP PUSH1 0x80 DUP7 ADD MLOAD PUSH8 0xFFFFFFFFFFFFFFFF DUP2 GT ISZERO PUSH3 0xC17 JUMPI PUSH3 0xC16 PUSH3 0x868 JUMP JUMPDEST JUMPDEST PUSH3 0xC25 DUP9 DUP3 DUP10 ADD PUSH3 0x98A JUMP JUMPDEST SWAP2 POP POP SWAP3 SWAP6 POP SWAP3 SWAP6 SWAP1 SWAP4 POP JUMP JUMPDEST PUSH32 0x4E487B7100000000000000000000000000000000000000000000000000000000 PUSH1 0x0 MSTORE PUSH1 0x32 PUSH1 0x4 MSTORE PUSH1 0x24 PUSH1 0x0 REVERT JUMPDEST PUSH3 0xC6C DUP2 PUSH3 0xA42 JUMP JUMPDEST DUP3 MSTORE POP POP JUMP JUMPDEST PUSH1 0x0 PUSH1 0x20 DUP3 ADD SWAP1 POP PUSH3 0xC89 PUSH1 0x0 DUP4 ADD DUP5 PUSH3 0xC61 JUMP JUMPDEST SWAP3 SWAP2 POP POP JUMP JUMPDEST PUSH32 0x4E487B7100000000000000000000000000000000000000000000000000000000 PUSH1 0x0 MSTORE PUSH1 0x11 PUSH1 0x4 MSTORE PUSH1 0x24 PUSH1 0x0 REVERT JUMPDEST PUSH1 0x0 PUSH3 0xCCB DUP3 PUSH3 0x61E JUMP JUMPDEST SWAP2 POP PUSH3 0xCD8 DUP4 PUSH3 0x61E JUMP JUMPDEST SWAP3 POP DUP3 DUP3 ADD SWAP1 POP DUP1 DUP3 GT ISZERO PUSH3 0xCF3 JUMPI PUSH3 0xCF2 PUSH3 0xC8F JUMP JUMPDEST JUMPDEST SWAP3 SWAP2 POP POP JUMP JUMPDEST PUSH3 0xD04 DUP2 PUSH3 0x61E JUMP JUMPDEST DUP3 MSTORE POP POP JUMP JUMPDEST PUSH1 0x0 PUSH1 0x60 DUP3 ADD SWAP1 POP PUSH3 0xD21 PUSH1 0x0 DUP4 ADD DUP7 PUSH3 0xC61 JUMP JUMPDEST PUSH3 0xD30 PUSH1 0x20 DUP4 ADD DUP6 PUSH3 0xCF9 JUMP JUMPDEST PUSH3 0xD3F PUSH1 0x40 DUP4 ADD DUP5 PUSH3 0xCF9 JUMP JUMPDEST SWAP5 SWAP4 POP POP POP POP JUMP JUMPDEST PUSH1 0x0 PUSH1 0x20 DUP3 ADD SWAP1 POP PUSH3 0xD5E PUSH1 0x0 DUP4 ADD DUP5 PUSH3 0xCF9 JUMP JUMPDEST SWAP3 SWAP2 POP POP JUMP JUMPDEST PUSH1 0x80 MLOAD PUSH1 0xA0 MLOAD PUSH1 0xC0 MLOAD PUSH1 0xE0 MLOAD PUSH2 0x1D35 PUSH3 0xDC8 PUSH1 0x0 CODECOPY PUSH1 0x0 DUP2 DUP2 PUSH2 0x500 ADD MSTORE DUP2 DUP2 PUSH2 0x544 ADD MSTORE PUSH2 0xBCF ADD MSTORE PUSH1 0x0 PUSH2 0xCB6 ADD MSTORE PUSH1 0x0 DUP2 DUP2 PUSH2 0x3F1 ADD MSTORE PUSH2 0xA46 ADD MSTORE PUSH1 0x0 DUP2 DUP2 PUSH2 0x67B ADD MSTORE DUP2 DUP2 PUSH2 0x73E ADD MSTORE DUP2 DUP2 PUSH2 0x7CE ADD MSTORE PUSH2 0xB17 ADD MSTORE PUSH2 0x1D35 PUSH1 0x0 RETURN INVALID PUSH1 0x80 PUSH1 0x40 MSTORE CALLVALUE DUP1 ISZERO PUSH2 0x10 JUMPI PUSH1 0x0 DUP1 REVERT JUMPDEST POP PUSH1 0x4 CALLDATASIZE LT PUSH2 0x121 JUMPI PUSH1 0x0 CALLDATALOAD PUSH1 0xE0 SHR DUP1 PUSH4 0x64C9EC6F GT PUSH2 0xAD JUMPI DUP1 PUSH4 0xA9059CBB GT PUSH2 0x71 JUMPI DUP1 PUSH4 0xA9059CBB EQ PUSH2 0x310 JUMPI DUP1 PUSH4 0xC45A0155 EQ PUSH2 0x340 JUMPI DUP1 PUSH4 0xDD62ED3E EQ PUSH2 0x35E JUMPI DUP1 PUSH4 0xDFD9EF5F EQ PUSH2 0x38E JUMPI DUP1 PUSH4 0xF8B1CB3C EQ PUSH2 0x3AC JUMPI PUSH2 0x121 JUMP JUMPDEST DUP1 PUSH4 0x64C9EC6F EQ PUSH2 0x26A JUMPI DUP1 PUSH4 0x70A08231 EQ PUSH2 0x288 JUMPI DUP1 PUSH4 0x7A5B4F59 EQ PUSH2 0x2B8 JUMPI DUP1 PUSH4 0x95D89B41 EQ PUSH2 0x2D6 JUMPI DUP1 PUSH4 0xA71406B6 EQ PUSH2 0x2F4 JUMPI PUSH2 0x121 JUMP JUMPDEST DUP1 PUSH4 0x1615FD03 GT PUSH2 0xF4 JUMPI DUP1 PUSH4 0x1615FD03 EQ PUSH2 0x1C2 JUMPI DUP1 PUSH4 0x18160DDD EQ PUSH2 0x1E0 JUMPI DUP1 PUSH4 0x23B872DD EQ PUSH2 0x1FE JUMPI DUP1 PUSH4 0x313CE567 EQ PUSH2 0x22E JUMPI DUP1 PUSH4 0x31A18EA1 EQ PUSH2 0x24C JUMPI PUSH2 0x121 JUMP JUMPDEST DUP1 PUSH4 0x24C2DDD EQ PUSH2 0x126 JUMPI DUP1 PUSH4 0x2D05D3F EQ PUSH2 0x156 JUMPI DUP1 PUSH4 0x6FDDE03 EQ PUSH2 0x174 JUMPI DUP1 PUSH4 0x95EA7B3 EQ PUSH2 0x192 JUMPI JUMPDEST PUSH1 0x0 DUP1 REVERT JUMPDEST PUSH2 0x140 PUSH1 0x4 DUP1 CALLDATASIZE SUB DUP2 ADD SWAP1 PUSH2 0x13B SWAP2 SWAP1 PUSH2 0x1565 JUMP JUMPDEST PUSH2 0x3CA JUMP JUMPDEST PUSH1 0x40 MLOAD PUSH2 0x14D SWAP2 SWAP1 PUSH2 0x15BE JUMP JUMPDEST PUSH1 0x40 MLOAD DUP1 SWAP2 SUB SWAP1 RETURN JUMPDEST PUSH2 0x15E PUSH2 0x3EF JUMP JUMPDEST PUSH1 0x40 MLOAD PUSH2 0x16B SWAP2 SWAP1 PUSH2 0x15E8 JUMP JUMPDEST PUSH1 0x40 MLOAD DUP1 SWAP2 SUB SWAP1 RETURN JUMPDEST PUSH2 0x17C PUSH2 0x413 JUMP JUMPDEST PUSH1 0x40 MLOAD PUSH2 0x189 SWAP2 SWAP1 PUSH2 0x1693 JUMP JUMPDEST PUSH1 0x40 MLOAD DUP1 SWAP2 SUB SWAP1 RETURN JUMPDEST PUSH2 0x1AC PUSH1 0x4 DUP1 CALLDATASIZE SUB DUP2 ADD SWAP1 PUSH2 0x1A7 SWAP2 SWAP1 PUSH2 0x16E1 JUMP JUMPDEST PUSH2 0x4A5 JUMP JUMPDEST PUSH1 0x40 MLOAD PUSH2 0x1B9 SWAP2 SWAP1 PUSH2 0x173C JUMP JUMPDEST PUSH1 0x40 MLOAD DUP1 SWAP2 SUB SWAP1 RETURN JUMPDEST PUSH2 0x1CA PUSH2 0x4FE JUMP JUMPDEST PUSH1 0x40 MLOAD PUSH2 0x1D7 SWAP2 SWAP1 PUSH2 0x15E8 JUMP JUMPDEST PUSH1 0x40 MLOAD DUP1 SWAP2 SUB SWAP1 RETURN JUMPDEST PUSH2 0x1E8 PUSH2 0x522 JUMP JUMPDEST PUSH1 0x40 MLOAD PUSH2 0x1F5 SWAP2 SWAP1 PUSH2 0x15BE JUMP JUMPDEST PUSH1 0x40 MLOAD DUP1 SWAP2 SUB SWAP1 RETURN JUMPDEST PUSH2 0x218 PUSH1 0x4 DUP1 CALLDATASIZE SUB DUP2 ADD SWAP1 PUSH2 0x213 SWAP2 SWAP1 PUSH2 0x1757 JUMP JUMPDEST PUSH2 0x52C JUMP JUMPDEST PUSH1 0x40 MLOAD PUSH2 0x225 SWAP2 SWAP1 PUSH2 0x173C JUMP JUMPDEST PUSH1 0x40 MLOAD DUP1 SWAP2 SUB SWAP1 RETURN JUMPDEST PUSH2 0x236 PUSH2 0x7B0 JUMP JUMPDEST PUSH1 0x40 MLOAD PUSH2 0x243 SWAP2 SWAP1 PUSH2 0x17C6 JUMP JUMPDEST PUSH1 0x40 MLOAD DUP1 SWAP2 SUB SWAP1 RETURN JUMPDEST PUSH2 0x254 PUSH2 0x7B9 JUMP JUMPDEST PUSH1 0x40 MLOAD PUSH2 0x261 SWAP2 SWAP1 PUSH2 0x173C JUMP JUMPDEST PUSH1 0x40 MLOAD DUP1 SWAP2 SUB SWAP1 RETURN JUMPDEST PUSH2 0x272 PUSH2 0x7CC JUMP JUMPDEST PUSH1 0x40 MLOAD PUSH2 0x27F SWAP2 SWAP1 PUSH2 0x15E8 JUMP JUMPDEST PUSH1 0x40 MLOAD DUP1 SWAP2 SUB SWAP1 RETURN JUMPDEST PUSH2 0x2A2 PUSH1 0x4 DUP1 CALLDATASIZE SUB DUP2 ADD SWAP1 PUSH2 0x29D SWAP2 SWAP1 PUSH2 0x17E1 JUMP JUMPDEST PUSH2 0x7F0 JUMP JUMPDEST PUSH1 0x40 MLOAD PUSH2 0x2AF SWAP2 SWAP1 PUSH2 0x15BE JUMP JUMPDEST PUSH1 0x40 MLOAD DUP1 SWAP2 SUB SWAP1 RETURN JUMPDEST PUSH2 0x2C0 PUSH2 0x838 JUMP JUMPDEST PUSH1 0x40 MLOAD PUSH2 0x2CD SWAP2 SWAP1 PUSH2 0x1915 JUMP JUMPDEST PUSH1 0x40 MLOAD DUP1 SWAP2 SUB SWAP1 RETURN JUMPDEST PUSH2 0x2DE PUSH2 0xA83 JUMP JUMPDEST PUSH1 0x40 MLOAD PUSH2 0x2EB SWAP2 SWAP1 PUSH2 0x1693 JUMP JUMPDEST PUSH1 0x40 MLOAD DUP1 SWAP2 SUB SWAP1 RETURN JUMPDEST PUSH2 0x30E PUSH1 0x4 DUP1 CALLDATASIZE SUB DUP2 ADD SWAP1 PUSH2 0x309 SWAP2 SWAP1 PUSH2 0x1963 JUMP JUMPDEST PUSH2 0xB15 JUMP JUMPDEST STOP JUMPDEST PUSH2 0x32A PUSH1 0x4 DUP1 CALLDATASIZE SUB DUP2 ADD SWAP1 PUSH2 0x325 SWAP2 SWAP1 PUSH2 0x16E1 JUMP JUMPDEST PUSH2 0xBB7 JUMP JUMPDEST PUSH1 0x40 MLOAD PUSH2 0x337 SWAP2 SWAP1 PUSH2 0x173C JUMP JUMPDEST PUSH1 0x40 MLOAD DUP1 SWAP2 SUB SWAP1 RETURN JUMPDEST PUSH2 0x348 PUSH2 0xCB4 JUMP JUMPDEST PUSH1 0x40 MLOAD PUSH2 0x355 SWAP2 SWAP1 PUSH2 0x15E8 JUMP JUMPDEST PUSH1 0x40 MLOAD DUP1 SWAP2 SUB SWAP1 RETURN JUMPDEST PUSH2 0x378 PUSH1 0x4 DUP1 CALLDATASIZE SUB DUP2 ADD SWAP1 PUSH2 0x373 SWAP2 SWAP1 PUSH2 0x1565 JUMP JUMPDEST PUSH2 0xCD8 JUMP JUMPDEST PUSH1 0x40 MLOAD PUSH2 0x385 SWAP2 SWAP1 PUSH2 0x15BE JUMP JUMPDEST PUSH1 0x40 MLOAD DUP1 SWAP2 SUB SWAP1 RETURN JUMPDEST PUSH2 0x396 PUSH2 0xD5F JUMP JUMPDEST PUSH1 0x40 MLOAD PUSH2 0x3A3 SWAP2 SWAP1 PUSH2 0x1693 JUMP JUMPDEST PUSH1 0x40 MLOAD DUP1 SWAP2 SUB SWAP1 RETURN JUMPDEST PUSH2 0x3B4 PUSH2 0xDED JUMP JUMPDEST PUSH1 0x40 MLOAD PUSH2 0x3C1 SWAP2 SWAP1 PUSH2 0x1693 JUMP JUMPDEST PUSH1 0x40 MLOAD DUP1 SWAP2 SUB SWAP1 RETURN JUMPDEST PUSH1 0x1 PUSH1 0x20 MSTORE DUP2 PUSH1 0x0 MSTORE PUSH1 0x40 PUSH1 0x0 KECCAK256 PUSH1 0x20 MSTORE DUP1 PUSH1 0x0 MSTORE PUSH1 0x40 PUSH1 0x0 KECCAK256 PUSH1 0x0 SWAP2 POP SWAP2 POP POP SLOAD DUP2 JUMP JUMPDEST PUSH32 0x0 DUP2 JUMP JUMPDEST PUSH1 0x60 PUSH1 0x3 DUP1 SLOAD PUSH2 0x422 SWAP1 PUSH2 0x19BF JUMP JUMPDEST DUP1 PUSH1 0x1F ADD PUSH1 0x20 DUP1 SWAP2 DIV MUL PUSH1 0x20 ADD PUSH1 0x40 MLOAD SWAP1 DUP2 ADD PUSH1 0x40 MSTORE DUP1 SWAP3 SWAP2 SWAP1 DUP2 DUP2 MSTORE PUSH1 0x20 ADD DUP3 DUP1 SLOAD PUSH2 0x44E SWAP1 PUSH2 0x19BF JUMP JUMPDEST DUP1 ISZERO PUSH2 0x49B JUMPI DUP1 PUSH1 0x1F LT PUSH2 0x470 JUMPI PUSH2 0x100 DUP1 DUP4 SLOAD DIV MUL DUP4 MSTORE SWAP2 PUSH1 0x20 ADD SWAP2 PUSH2 0x49B JUMP JUMPDEST DUP3 ADD SWAP2 SWAP1 PUSH1 0x0 MSTORE PUSH1 0x20 PUSH1 0x0 KECCAK256 SWAP1 JUMPDEST DUP2 SLOAD DUP2 MSTORE SWAP1 PUSH1 0x1 ADD SWAP1 PUSH1 0x20 ADD DUP1 DUP4 GT PUSH2 0x47E JUMPI DUP3 SWAP1 SUB PUSH1 0x1F AND DUP3 ADD SWAP2 JUMPDEST POP POP POP POP POP SWAP1 POP SWAP1 JUMP JUMPDEST PUSH1 0x0 PUSH1 0x5 PUSH1 0x0 SWAP1 SLOAD SWAP1 PUSH2 0x100 EXP SWAP1 DIV PUSH1 0xFF AND PUSH2 0x4EC JUMPI PUSH1 0x40 MLOAD PUSH31 0x92A47300000000000000000000000000000000000000000000000000000000 DUP2 MSTORE PUSH1 0x4 ADD PUSH1 0x40 MLOAD DUP1 SWAP2 SUB SWAP1 REVERT JUMPDEST PUSH2 0x4F6 DUP4 DUP4 PUSH2 0xE7B JUMP JUMPDEST SWAP1 POP SWAP3 SWAP2 POP POP JUMP JUMPDEST PUSH32 0x0 DUP2 JUMP JUMPDEST PUSH1 0x0 PUSH1 0x2 SLOAD SWAP1 POP SWAP1 JUMP JUMPDEST PUSH1 0x0 PUSH1 0x5 PUSH1 0x0 SWAP1 SLOAD SWAP1 PUSH2 0x100 EXP SWAP1 DIV PUSH1 0xFF AND PUSH2 0x617 JUMPI PUSH32 0x0 PUSH20 0xFFFFFFFFFFFFFFFFFFFFFFFFFFFFFFFFFFFFFFFF AND PUSH4 0xEB56A3BD ADDRESS DUP6 PUSH1 0x40 MLOAD DUP4 PUSH4 0xFFFFFFFF AND PUSH1 0xE0 SHL DUP2 MSTORE PUSH1 0x4 ADD PUSH2 0x59D SWAP3 SWAP2 SWAP1 PUSH2 0x19F0 JUMP JUMPDEST PUSH1 0x20 PUSH1 0x40 MLOAD DUP1 DUP4 SUB DUP2 DUP7 GAS STATICCALL SWAP3 POP POP POP DUP1 ISZERO PUSH2 0x5D7 JUMPI POP PUSH1 0x40 MLOAD RETURNDATASIZE PUSH1 0x1F NOT PUSH1 0x1F DUP3 ADD AND DUP3 ADD DUP1 PUSH1 0x40 MSTORE POP DUP2 ADD SWAP1 PUSH2 0x5D4 SWAP2 SWAP1 PUSH2 0x1A2E JUMP JUMPDEST PUSH1 0x1 JUMPDEST ISZERO PUSH2 0x616 JUMPI DUP1 ISZERO PUSH2 0x614 JUMPI PUSH1 0x40 MLOAD PUSH32 0xBB766EF00000000000000000000000000000000000000000000000000000000 DUP2 MSTORE PUSH1 0x4 ADD PUSH1 0x40 MLOAD DUP1 SWAP2 SUB SWAP1 REVERT JUMPDEST POP JUMPDEST JUMPDEST PUSH32 0xFFFFFFFFFFFFFFFFFFFFFFFFFFFFFFFFFFFFFFFFFFFFFFFFFFFFFFFFFFFFFFFF PUSH1 0x1 PUSH1 0x0 DUP7 PUSH20 0xFFFFFFFFFFFFFFFFFFFFFFFFFFFFFFFFFFFFFFFF AND PUSH20 0xFFFFFFFFFFFFFFFFFFFFFFFFFFFFFFFFFFFFFFFF AND DUP2 MSTORE PUSH1 0x20 ADD SWAP1 DUP2 MSTORE PUSH1 0x20 ADD PUSH1 0x0 KECCAK256 PUSH1 0x0 PUSH32 0x0 PUSH20 0xFFFFFFFFFFFFFFFFFFFFFFFFFFFFFFFFFFFFFFFF AND PUSH20 0xFFFFFFFFFFFFFFFFFFFFFFFFFFFFFFFFFFFFFFFF AND DUP2 MSTORE PUSH1 0x20 ADD SWAP1 DUP2 MSTORE PUSH1 0x20 ADD PUSH1 0x0 KECCAK256 SLOAD EQ PUSH2 0x79C JUMPI PUSH32 0xFFFFFFFFFFFFFFFFFFFFFFFFFFFFFFFFFFFFFFFFFFFFFFFFFFFFFFFFFFFFFFFF PUSH1 0x1 PUSH1 0x0 DUP7 PUSH20 0xFFFFFFFFFFFFFFFFFFFFFFFFFFFFFFFFFFFFFFFF AND PUSH20 0xFFFFFFFFFFFFFFFFFFFFFFFFFFFFFFFFFFFFFFFF AND DUP2 MSTORE PUSH1 0x20 ADD SWAP1 DUP2 MSTORE PUSH1 0x20 ADD PUSH1 0x0 KECCAK256 PUSH1 0x0 PUSH32 0x0 PUSH20 0xFFFFFFFFFFFFFFFFFFFFFFFFFFFFFFFFFFFFFFFF AND PUSH20 0xFFFFFFFFFFFFFFFFFFFFFFFFFFFFFFFFFFFFFFFF AND DUP2 MSTORE PUSH1 0x20 ADD SWAP1 DUP2 MSTORE PUSH1 0x20 ADD PUSH1 0x0 KECCAK256 DUP2 SWAP1 SSTORE POP JUMPDEST PUSH2 0x7A7 DUP5 DUP5 DUP5 PUSH2 0xE9E JUMP JUMPDEST SWAP1 POP SWAP4 SWAP3 POP POP POP JUMP JUMPDEST PUSH1 0x0 PUSH1 0x12 SWAP1 POP SWAP1 JUMP JUMPDEST PUSH1 0x5 PUSH1 0x0 SWAP1 SLOAD SWAP1 PUSH2 0x100 EXP SWAP1 DIV PUSH1 0xFF AND DUP2 JUMP JUMPDEST PUSH32 0x0 DUP2 JUMP JUMPDEST PUSH1 0x0 DUP1 PUSH1 0x0 DUP4 PUSH20 0xFFFFFFFFFFFFFFFFFFFFFFFFFFFFFFFFFFFFFFFF AND PUSH20 0xFFFFFFFFFFFFFFFFFFFFFFFFFFFFFFFFFFFFFFFF AND DUP2 MSTORE PUSH1 0x20 ADD SWAP1 DUP2 MSTORE PUSH1 0x20 ADD PUSH1 0x0 KECCAK256 SLOAD SWAP1 POP SWAP2 SWAP1 POP JUMP JUMPDEST PUSH2 0x840 PUSH2 0x148E JUMP JUMPDEST PUSH1 0x40 MLOAD DUP1 PUSH1 0xC0 ADD PUSH1 0x40 MSTORE DUP1 ADDRESS PUSH20 0xFFFFFFFFFFFFFFFFFFFFFFFFFFFFFFFFFFFFFFFF AND DUP2 MSTORE PUSH1 0x20 ADD ADDRESS PUSH20 0xFFFFFFFFFFFFFFFFFFFFFFFFFFFFFFFFFFFFFFFF AND PUSH4 0x6FDDE03 PUSH1 0x40 MLOAD DUP2 PUSH4 0xFFFFFFFF AND PUSH1 0xE0 SHL DUP2 MSTORE PUSH1 0x4 ADD PUSH1 0x0 PUSH1 0x40 MLOAD DUP1 DUP4 SUB DUP2 DUP7 GAS STATICCALL ISZERO DUP1 ISZERO PUSH2 0x8B2 JUMPI RETURNDATASIZE PUSH1 0x0 DUP1 RETURNDATACOPY RETURNDATASIZE PUSH1 0x0 REVERT JUMPDEST POP POP POP POP PUSH1 0x40 MLOAD RETURNDATASIZE PUSH1 0x0 DUP3 RETURNDATACOPY RETURNDATASIZE PUSH1 0x1F NOT PUSH1 0x1F DUP3 ADD AND DUP3 ADD DUP1 PUSH1 0x40 MSTORE POP DUP2 ADD SWAP1 PUSH2 0x8DB SWAP2 SWAP1 PUSH2 0x1B81 JUMP JUMPDEST DUP2 MSTORE PUSH1 0x20 ADD ADDRESS PUSH20 0xFFFFFFFFFFFFFFFFFFFFFFFFFFFFFFFFFFFFFFFF AND PUSH4 0x95D89B41 PUSH1 0x40 MLOAD DUP2 PUSH4 0xFFFFFFFF AND PUSH1 0xE0 SHL DUP2 MSTORE PUSH1 0x4 ADD PUSH1 0x0 PUSH1 0x40 MLOAD DUP1 DUP4 SUB DUP2 DUP7 GAS STATICCALL ISZERO DUP1 ISZERO PUSH2 0x92B JUMPI RETURNDATASIZE PUSH1 0x0 DUP1 RETURNDATACOPY RETURNDATASIZE PUSH1 0x0 REVERT JUMPDEST POP POP POP POP PUSH1 0x40 MLOAD RETURNDATASIZE PUSH1 0x0 DUP3 RETURNDATACOPY RETURNDATASIZE PUSH1 0x1F NOT PUSH1 0x1F DUP3 ADD AND DUP3 ADD DUP1 PUSH1 0x40 MSTORE POP DUP2 ADD SWAP1 PUSH2 0x954 SWAP2 SWAP1 PUSH2 0x1B81 JUMP JUMPDEST DUP2 MSTORE PUSH1 0x20 ADD ADDRESS PUSH20 0xFFFFFFFFFFFFFFFFFFFFFFFFFFFFFFFFFFFFFFFF AND PUSH4 0x313CE567 PUSH1 0x40 MLOAD DUP2 PUSH4 0xFFFFFFFF AND PUSH1 0xE0 SHL DUP2 MSTORE PUSH1 0x4 ADD PUSH1 0x20 PUSH1 0x40 MLOAD DUP1 DUP4 SUB DUP2 DUP7 GAS STATICCALL ISZERO DUP1 ISZERO PUSH2 0x9A4 JUMPI RETURNDATASIZE PUSH1 0x0 DUP1 RETURNDATACOPY RETURNDATASIZE PUSH1 0x0 REVERT JUMPDEST POP POP POP POP PUSH1 0x40 MLOAD RETURNDATASIZE PUSH1 0x1F NOT PUSH1 0x1F DUP3 ADD AND DUP3 ADD DUP1 PUSH1 0x40 MSTORE POP DUP2 ADD SWAP1 PUSH2 0x9C8 SWAP2 SWAP1 PUSH2 0x1BF6 JUMP JUMPDEST PUSH1 0xFF AND DUP2 MSTORE PUSH1 0x20 ADD ADDRESS PUSH20 0xFFFFFFFFFFFFFFFFFFFFFFFFFFFFFFFFFFFFFFFF AND PUSH4 0x18160DDD PUSH1 0x40 MLOAD DUP2 PUSH4 0xFFFFFFFF AND PUSH1 0xE0 SHL DUP2 MSTORE PUSH1 0x4 ADD PUSH1 0x20 PUSH1 0x40 MLOAD DUP1 DUP4 SUB DUP2 DUP7 GAS STATICCALL ISZERO DUP1 ISZERO PUSH2 0xA1B JUMPI RETURNDATASIZE PUSH1 0x0 DUP1 RETURNDATACOPY RETURNDATASIZE PUSH1 0x0 REVERT JUMPDEST POP POP POP POP PUSH1 0x40 MLOAD RETURNDATASIZE PUSH1 0x1F NOT PUSH1 0x1F DUP3 ADD AND DUP3 ADD DUP1 PUSH1 0x40 MSTORE POP DUP2 ADD SWAP1 PUSH2 0xA3F SWAP2 SWAP1 PUSH2 0x1C38 JUMP JUMPDEST DUP2 MSTORE PUSH1 0x20 ADD PUSH32 0x0 PUSH20 0xFFFFFFFFFFFFFFFFFFFFFFFFFFFFFFFFFFFFFFFF AND DUP2 MSTORE POP SWAP1 POP SWAP1 JUMP JUMPDEST PUSH1 0x60 PUSH1 0x4 DUP1 SLOAD PUSH2 0xA92 SWAP1 PUSH2 0x19BF JUMP JUMPDEST DUP1 PUSH1 0x1F ADD PUSH1 0x20 DUP1 SWAP2 DIV MUL PUSH1 0x20 ADD PUSH1 0x40 MLOAD SWAP1 DUP2 ADD PUSH1 0x40 MSTORE DUP1 SWAP3 SWAP2 SWAP1 DUP2 DUP2 MSTORE PUSH1 0x20 ADD DUP3 DUP1 SLOAD PUSH2 0xABE SWAP1 PUSH2 0x19BF JUMP JUMPDEST DUP1 ISZERO PUSH2 0xB0B JUMPI DUP1 PUSH1 0x1F LT PUSH2 0xAE0 JUMPI PUSH2 0x100 DUP1 DUP4 SLOAD DIV MUL DUP4 MSTORE SWAP2 PUSH1 0x20 ADD SWAP2 PUSH2 0xB0B JUMP JUMPDEST DUP3 ADD SWAP2 SWAP1 PUSH1 0x0 MSTORE PUSH1 0x20 PUSH1 0x0 KECCAK256 SWAP1 JUMPDEST DUP2 SLOAD DUP2 MSTORE SWAP1 PUSH1 0x1 ADD SWAP1 PUSH1 0x20 ADD DUP1 DUP4 GT PUSH2 0xAEE JUMPI DUP3 SWAP1 SUB PUSH1 0x1F AND DUP3 ADD SWAP2 JUMPDEST POP POP POP POP POP SWAP1 POP SWAP1 JUMP JUMPDEST PUSH32 0x0 PUSH20 0xFFFFFFFFFFFFFFFFFFFFFFFFFFFFFFFFFFFFFFFF AND CALLER PUSH20 0xFFFFFFFFFFFFFFFFFFFFFFFFFFFFFFFFFFFFFFFF AND EQ PUSH2 0xB9A JUMPI PUSH1 0x40 MLOAD PUSH32 0xD6BCE09500000000000000000000000000000000000000000000000000000000 DUP2 MSTORE PUSH1 0x4 ADD PUSH1 0x40 MLOAD DUP1 SWAP2 SUB SWAP1 REVERT JUMPDEST DUP1 PUSH1 0x5 PUSH1 0x0 PUSH2 0x100 EXP DUP2 SLOAD DUP2 PUSH1 0xFF MUL NOT AND SWAP1 DUP4 ISZERO ISZERO MUL OR SWAP1 SSTORE POP POP JUMP JUMPDEST PUSH1 0x0 PUSH1 0x5 PUSH1 0x0 SWAP1 SLOAD SWAP1 PUSH2 0x100 EXP SWAP1 DIV PUSH1 0xFF AND PUSH2 0xCA2 JUMPI PUSH32 0x0 PUSH20 0xFFFFFFFFFFFFFFFFFFFFFFFFFFFFFFFFFFFFFFFF AND PUSH4 0xEB56A3BD ADDRESS DUP6 PUSH1 0x40 MLOAD DUP4 PUSH4 0xFFFFFFFF AND PUSH1 0xE0 SHL DUP2 MSTORE PUSH1 0x4 ADD PUSH2 0xC28 SWAP3 SWAP2 SWAP1 PUSH2 0x19F0 JUMP JUMPDEST PUSH1 0x20 PUSH1 0x40 MLOAD DUP1 DUP4 SUB DUP2 DUP7 GAS STATICCALL SWAP3 POP POP POP DUP1 ISZERO PUSH2 0xC62 JUMPI POP PUSH1 0x40 MLOAD RETURNDATASIZE PUSH1 0x1F NOT PUSH1 0x1F DUP3 ADD AND DUP3 ADD DUP1 PUSH1 0x40 MSTORE POP DUP2 ADD SWAP1 PUSH2 0xC5F SWAP2 SWAP1 PUSH2 0x1A2E JUMP JUMPDEST PUSH1 0x1 JUMPDEST ISZERO PUSH2 0xCA1 JUMPI DUP1 ISZERO PUSH2 0xC9F JUMPI PUSH1 0x40 MLOAD PUSH32 0xBB766EF00000000000000000000000000000000000000000000000000000000 DUP2 MSTORE PUSH1 0x4 ADD PUSH1 0x40 MLOAD DUP1 SWAP2 SUB SWAP1 REVERT JUMPDEST POP JUMPDEST JUMPDEST PUSH2 0xCAC DUP4 DUP4 PUSH2 0xECD JUMP JUMPDEST SWAP1 POP SWAP3 SWAP2 POP POP JUMP JUMPDEST PUSH32 0x0 DUP2 JUMP JUMPDEST PUSH1 0x0 PUSH1 0x1 PUSH1 0x0 DUP5 PUSH20 0xFFFFFFFFFFFFFFFFFFFFFFFFFFFFFFFFFFFFFFFF AND PUSH20 0xFFFFFFFFFFFFFFFFFFFFFFFFFFFFFFFFFFFFFFFF AND DUP2 MSTORE PUSH1 0x20 ADD SWAP1 DUP2 MSTORE PUSH1 0x20 ADD PUSH1 0x0 KECCAK256 PUSH1 0x0 DUP4 PUSH20 0xFFFFFFFFFFFFFFFFFFFFFFFFFFFFFFFFFFFFFFFF AND PUSH20 0xFFFFFFFFFFFFFFFFFFFFFFFFFFFFFFFFFFFFFFFF AND DUP2 MSTORE PUSH1 0x20 ADD SWAP1 DUP2 MSTORE PUSH1 0x20 ADD PUSH1 0x0 KECCAK256 SLOAD SWAP1 POP SWAP3 SWAP2 POP POP JUMP JUMPDEST PUSH1 0x7 DUP1 SLOAD PUSH2 0xD6C SWAP1 PUSH2 0x19BF JUMP JUMPDEST DUP1 PUSH1 0x1F ADD PUSH1 0x20 DUP1 SWAP2 DIV MUL PUSH1 0x20 ADD PUSH1 0x40 MLOAD SWAP1 DUP2 ADD PUSH1 0x40 MSTORE DUP1 SWAP3 SWAP2 SWAP1 DUP2 DUP2 MSTORE PUSH1 0x20 ADD DUP3 DUP1 SLOAD PUSH2 0xD98 SWAP1 PUSH2 0x19BF JUMP JUMPDEST DUP1 ISZERO PUSH2 0xDE5 JUMPI DUP1 PUSH1 0x1F LT PUSH2 0xDBA JUMPI PUSH2 0x100 DUP1 DUP4 SLOAD DIV MUL DUP4 MSTORE SWAP2 PUSH1 0x20 ADD SWAP2 PUSH2 0xDE5 JUMP JUMPDEST DUP3 ADD SWAP2 SWAP1 PUSH1 0x0 MSTORE PUSH1 0x20 PUSH1 0x0 KECCAK256 SWAP1 JUMPDEST DUP2 SLOAD DUP2 MSTORE SWAP1 PUSH1 0x1 ADD SWAP1 PUSH1 0x20 ADD DUP1 DUP4 GT PUSH2 0xDC8 JUMPI DUP3 SWAP1 SUB PUSH1 0x1F AND DUP3 ADD SWAP2 JUMPDEST POP POP POP POP POP DUP2 JUMP JUMPDEST PUSH1 0x6 DUP1 SLOAD PUSH2 0xDFA SWAP1 PUSH2 0x19BF JUMP JUMPDEST DUP1 PUSH1 0x1F ADD PUSH1 0x20 DUP1 SWAP2 DIV MUL PUSH1 0x20 ADD PUSH1 0x40 MLOAD SWAP1 DUP2 ADD PUSH1 0x40 MSTORE DUP1 SWAP3 SWAP2 SWAP1 DUP2 DUP2 MSTORE PUSH1 0x20 ADD DUP3 DUP1 SLOAD PUSH2 0xE26 SWAP1 PUSH2 0x19BF JUMP JUMPDEST DUP1 ISZERO PUSH2 0xE73 JUMPI DUP1 PUSH1 0x1F LT PUSH2 0xE48 JUMPI PUSH2 0x100 DUP1 DUP4 SLOAD DIV MUL DUP4 MSTORE SWAP2 PUSH1 0x20 ADD SWAP2 PUSH2 0xE73 JUMP JUMPDEST DUP3 ADD SWAP2 SWAP1 PUSH1 0x0 MSTORE PUSH1 0x20 PUSH1 0x0 KECCAK256 SWAP1 JUMPDEST DUP2 SLOAD DUP2 MSTORE SWAP1 PUSH1 0x1 ADD SWAP1 PUSH1 0x20 ADD DUP1 DUP4 GT PUSH2 0xE56 JUMPI DUP3 SWAP1 SUB PUSH1 0x1F AND DUP3 ADD SWAP2 JUMPDEST POP POP POP POP POP DUP2 JUMP JUMPDEST PUSH1 0x0 DUP1 PUSH2 0xE86 PUSH2 0xEF0 JUMP JUMPDEST SWAP1 POP PUSH2 0xE93 DUP2 DUP6 DUP6 PUSH2 0xEF8 JUMP JUMPDEST PUSH1 0x1 SWAP2 POP POP SWAP3 SWAP2 POP POP JUMP JUMPDEST PUSH1 0x0 DUP1 PUSH2 0xEA9 PUSH2 0xEF0 JUMP JUMPDEST SWAP1 POP PUSH2 0xEB6 DUP6 DUP3 DUP6 PUSH2 0xF0A JUMP JUMPDEST PUSH2 0xEC1 DUP6 DUP6 DUP6 PUSH2 0xF9E JUMP JUMPDEST PUSH1 0x1 SWAP2 POP POP SWAP4 SWAP3 POP POP POP JUMP JUMPDEST PUSH1 0x0 DUP1 PUSH2 0xED8 PUSH2 0xEF0 JUMP JUMPDEST SWAP1 POP PUSH2 0xEE5 DUP2 DUP6 DUP6 PUSH2 0xF9E JUMP JUMPDEST PUSH1 0x1 SWAP2 POP POP SWAP3 SWAP2 POP POP JUMP JUMPDEST PUSH1 0x0 CALLER SWAP1 POP SWAP1 JUMP JUMPDEST PUSH2 0xF05 DUP4 DUP4 DUP4 PUSH1 0x1 PUSH2 0x1092 JUMP JUMPDEST POP POP POP JUMP JUMPDEST PUSH1 0x0 PUSH2 0xF16 DUP5 DUP5 PUSH2 0xCD8 JUMP JUMPDEST SWAP1 POP PUSH32 0xFFFFFFFFFFFFFFFFFFFFFFFFFFFFFFFFFFFFFFFFFFFFFFFFFFFFFFFFFFFFFFFF DUP2 EQ PUSH2 0xF98 JUMPI DUP2 DUP2 LT ISZERO PUSH2 0xF88 JUMPI DUP3 DUP2 DUP4 PUSH1 0x40 MLOAD PUSH32 0xFB8F41B200000000000000000000000000000000000000000000000000000000 DUP2 MSTORE PUSH1 0x4 ADD PUSH2 0xF7F SWAP4 SWAP3 SWAP2 SWAP1 PUSH2 0x1C65 JUMP JUMPDEST PUSH1 0x40 MLOAD DUP1 SWAP2 SUB SWAP1 REVERT JUMPDEST PUSH2 0xF97 DUP5 DUP5 DUP5 DUP5 SUB PUSH1 0x0 PUSH2 0x1092 JUMP JUMPDEST JUMPDEST POP POP POP POP JUMP JUMPDEST PUSH1 0x0 PUSH20 0xFFFFFFFFFFFFFFFFFFFFFFFFFFFFFFFFFFFFFFFF AND DUP4 PUSH20 0xFFFFFFFFFFFFFFFFFFFFFFFFFFFFFFFFFFFFFFFF AND SUB PUSH2 0x1010 JUMPI PUSH1 0x0 PUSH1 0x40 MLOAD PUSH32 0x96C6FD1E00000000000000000000000000000000000000000000000000000000 DUP2 MSTORE PUSH1 0x4 ADD PUSH2 0x1007 SWAP2 SWAP1 PUSH2 0x15E8 JUMP JUMPDEST PUSH1 0x40 MLOAD DUP1 SWAP2 SUB SWAP1 REVERT JUMPDEST PUSH1 0x0 PUSH20 0xFFFFFFFFFFFFFFFFFFFFFFFFFFFFFFFFFFFFFFFF AND DUP3 PUSH20 0xFFFFFFFFFFFFFFFFFFFFFFFFFFFFFFFFFFFFFFFF AND SUB PUSH2 0x1082 JUMPI PUSH1 0x0 PUSH1 0x40 MLOAD PUSH32 0xEC442F0500000000000000000000000000000000000000000000000000000000 DUP2 MSTORE PUSH1 0x4 ADD PUSH2 0x1079 SWAP2 SWAP1 PUSH2 0x15E8 JUMP JUMPDEST PUSH1 0x40 MLOAD DUP1 SWAP2 SUB SWAP1 REVERT JUMPDEST PUSH2 0x108D DUP4 DUP4 DUP4 PUSH2 0x1269 JUMP JUMPDEST POP POP POP JUMP JUMPDEST PUSH1 0x0 PUSH20 0xFFFFFFFFFFFFFFFFFFFFFFFFFFFFFFFFFFFFFFFF AND DUP5 PUSH20 0xFFFFFFFFFFFFFFFFFFFFFFFFFFFFFFFFFFFFFFFF AND SUB PUSH2 0x1104 JUMPI PUSH1 0x0 PUSH1 0x40 MLOAD PUSH32 0xE602DF0500000000000000000000000000000000000000000000000000000000 DUP2 MSTORE PUSH1 0x4 ADD PUSH2 0x10FB SWAP2 SWAP1 PUSH2 0x15E8 JUMP JUMPDEST PUSH1 0x40 MLOAD DUP1 SWAP2 SUB SWAP1 REVERT JUMPDEST PUSH1 0x0 PUSH20 0xFFFFFFFFFFFFFFFFFFFFFFFFFFFFFFFFFFFFFFFF AND DUP4 PUSH20 0xFFFFFFFFFFFFFFFFFFFFFFFFFFFFFFFFFFFFFFFF AND SUB PUSH2 0x1176 JUMPI PUSH1 0x0 PUSH1 0x40 MLOAD PUSH32 0x94280D6200000000000000000000000000000000000000000000000000000000 DUP2 MSTORE PUSH1 0x4 ADD PUSH2 0x116D SWAP2 SWAP1 PUSH2 0x15E8 JUMP JUMPDEST PUSH1 0x40 MLOAD DUP1 SWAP2 SUB SWAP1 REVERT JUMPDEST DUP2 PUSH1 0x1 PUSH1 0x0 DUP7 PUSH20 0xFFFFFFFFFFFFFFFFFFFFFFFFFFFFFFFFFFFFFFFF AND PUSH20 0xFFFFFFFFFFFFFFFFFFFFFFFFFFFFFFFFFFFFFFFF AND DUP2 MSTORE PUSH1 0x20 ADD SWAP1 DUP2 MSTORE PUSH1 0x20 ADD PUSH1 0x0 KECCAK256 PUSH1 0x0 DUP6 PUSH20 0xFFFFFFFFFFFFFFFFFFFFFFFFFFFFFFFFFFFFFFFF AND PUSH20 0xFFFFFFFFFFFFFFFFFFFFFFFFFFFFFFFFFFFFFFFF AND DUP2 MSTORE PUSH1 0x20 ADD SWAP1 DUP2 MSTORE PUSH1 0x20 ADD PUSH1 0x0 KECCAK256 DUP2 SWAP1 SSTORE POP DUP1 ISZERO PUSH2 0x1263 JUMPI DUP3 PUSH20 0xFFFFFFFFFFFFFFFFFFFFFFFFFFFFFFFFFFFFFFFF AND DUP5 PUSH20 0xFFFFFFFFFFFFFFFFFFFFFFFFFFFFFFFFFFFFFFFF AND PUSH32 0x8C5BE1E5EBEC7D5BD14F71427D1E84F3DD0314C0F7B2291E5B200AC8C7C3B925 DUP5 PUSH1 0x40 MLOAD PUSH2 0x125A SWAP2 SWAP1 PUSH2 0x15BE JUMP JUMPDEST PUSH1 0x40 MLOAD DUP1 SWAP2 SUB SWAP1 LOG3 JUMPDEST POP POP POP POP JUMP JUMPDEST PUSH1 0x0 PUSH20 0xFFFFFFFFFFFFFFFFFFFFFFFFFFFFFFFFFFFFFFFF AND DUP4 PUSH20 0xFFFFFFFFFFFFFFFFFFFFFFFFFFFFFFFFFFFFFFFF AND SUB PUSH2 0x12BB JUMPI DUP1 PUSH1 0x2 PUSH1 0x0 DUP3 DUP3 SLOAD PUSH2 0x12AF SWAP2 SWAP1 PUSH2 0x1CCB JUMP JUMPDEST SWAP3 POP POP DUP2 SWAP1 SSTORE POP PUSH2 0x138E JUMP JUMPDEST PUSH1 0x0 DUP1 PUSH1 0x0 DUP6 PUSH20 0xFFFFFFFFFFFFFFFFFFFFFFFFFFFFFFFFFFFFFFFF AND PUSH20 0xFFFFFFFFFFFFFFFFFFFFFFFFFFFFFFFFFFFFFFFF AND DUP2 MSTORE PUSH1 0x20 ADD SWAP1 DUP2 MSTORE PUSH1 0x20 ADD PUSH1 0x0 KECCAK256 SLOAD SWAP1 POP DUP2 DUP2 LT ISZERO PUSH2 0x1347 JUMPI DUP4 DUP2 DUP4 PUSH1 0x40 MLOAD PUSH32 0xE450D38C00000000000000000000000000000000000000000000000000000000 DUP2 MSTORE PUSH1 0x4 ADD PUSH2 0x133E SWAP4 SWAP3 SWAP2 SWAP1 PUSH2 0x1C65 JUMP JUMPDEST PUSH1 0x40 MLOAD DUP1 SWAP2 SUB SWAP1 REVERT JUMPDEST DUP2 DUP2 SUB PUSH1 0x0 DUP1 DUP7 PUSH20 0xFFFFFFFFFFFFFFFFFFFFFFFFFFFFFFFFFFFFFFFF AND PUSH20 0xFFFFFFFFFFFFFFFFFFFFFFFFFFFFFFFFFFFFFFFF AND DUP2 MSTORE PUSH1 0x20 ADD SWAP1 DUP2 MSTORE PUSH1 0x20 ADD PUSH1 0x0 KECCAK256 DUP2 SWAP1 SSTORE POP POP JUMPDEST PUSH1 0x0 PUSH20 0xFFFFFFFFFFFFFFFFFFFFFFFFFFFFFFFFFFFFFFFF AND DUP3 PUSH20 0xFFFFFFFFFFFFFFFFFFFFFFFFFFFFFFFFFFFFFFFF AND SUB PUSH2 0x13D7 JUMPI DUP1 PUSH1 0x2 PUSH1 0x0 DUP3 DUP3 SLOAD SUB SWAP3 POP POP DUP2 SWAP1 SSTORE POP PUSH2 0x1424 JUMP JUMPDEST DUP1 PUSH1 0x0 DUP1 DUP5 PUSH20 0xFFFFFFFFFFFFFFFFFFFFFFFFFFFFFFFFFFFFFFFF AND PUSH20 0xFFFFFFFFFFFFFFFFFFFFFFFFFFFFFFFFFFFFFFFF AND DUP2 MSTORE PUSH1 0x20 ADD SWAP1 DUP2 MSTORE PUSH1 0x20 ADD PUSH1 0x0 KECCAK256 PUSH1 0x0 DUP3 DUP3 SLOAD ADD SWAP3 POP POP DUP2 SWAP1 SSTORE POP JUMPDEST DUP2 PUSH20 0xFFFFFFFFFFFFFFFFFFFFFFFFFFFFFFFFFFFFFFFF AND DUP4 PUSH20 0xFFFFFFFFFFFFFFFFFFFFFFFFFFFFFFFFFFFFFFFF AND PUSH32 0xDDF252AD1BE2C89B69C2B068FC378DAA952BA7F163C4A11628F55A4DF523B3EF DUP4 PUSH1 0x40 MLOAD PUSH2 0x1481 SWAP2 SWAP1 PUSH2 0x15BE JUMP JUMPDEST PUSH1 0x40 MLOAD DUP1 SWAP2 SUB SWAP1 LOG3 POP POP POP JUMP JUMPDEST PUSH1 0x40 MLOAD DUP1 PUSH1 0xC0 ADD PUSH1 0x40 MSTORE DUP1 PUSH1 0x0 PUSH20 0xFFFFFFFFFFFFFFFFFFFFFFFFFFFFFFFFFFFFFFFF AND DUP2 MSTORE PUSH1 0x20 ADD PUSH1 0x60 DUP2 MSTORE PUSH1 0x20 ADD PUSH1 0x60 DUP2 MSTORE PUSH1 0x20 ADD PUSH1 0x0 PUSH1 0xFF AND DUP2 MSTORE PUSH1 0x20 ADD PUSH1 0x0 DUP2 MSTORE PUSH1 0x20 ADD PUSH1 0x0 PUSH20 0xFFFFFFFFFFFFFFFFFFFFFFFFFFFFFFFFFFFFFFFF AND DUP2 MSTORE POP SWAP1 JUMP JUMPDEST PUSH1 0x0 PUSH1 0x40 MLOAD SWAP1 POP SWAP1 JUMP JUMPDEST PUSH1 0x0 DUP1 REVERT JUMPDEST PUSH1 0x0 DUP1 REVERT JUMPDEST PUSH1 0x0 PUSH20 0xFFFFFFFFFFFFFFFFFFFFFFFFFFFFFFFFFFFFFFFF DUP3 AND SWAP1 POP SWAP2 SWAP1 POP JUMP JUMPDEST PUSH1 0x0 PUSH2 0x1532 DUP3 PUSH2 0x1507 JUMP JUMPDEST SWAP1 POP SWAP2 SWAP1 POP JUMP JUMPDEST PUSH2 0x1542 DUP2 PUSH2 0x1527 JUMP JUMPDEST DUP2 EQ PUSH2 0x154D JUMPI PUSH1 0x0 DUP1 REVERT JUMPDEST POP JUMP JUMPDEST PUSH1 0x0 DUP2 CALLDATALOAD SWAP1 POP PUSH2 0x155F DUP2 PUSH2 0x1539 JUMP JUMPDEST SWAP3 SWAP2 POP POP JUMP JUMPDEST PUSH1 0x0 DUP1 PUSH1 0x40 DUP4 DUP6 SUB SLT ISZERO PUSH2 0x157C JUMPI PUSH2 0x157B PUSH2 0x14FD JUMP JUMPDEST JUMPDEST PUSH1 0x0 PUSH2 0x158A DUP6 DUP3 DUP7 ADD PUSH2 0x1550 JUMP JUMPDEST SWAP3 POP POP PUSH1 0x20 PUSH2 0x159B DUP6 DUP3 DUP7 ADD PUSH2 0x1550 JUMP JUMPDEST SWAP2 POP POP SWAP3 POP SWAP3 SWAP1 POP JUMP JUMPDEST PUSH1 0x0 DUP2 SWAP1 POP SWAP2 SWAP1 POP JUMP JUMPDEST PUSH2 0x15B8 DUP2 PUSH2 0x15A5 JUMP JUMPDEST DUP3 MSTORE POP POP JUMP JUMPDEST PUSH1 0x0 PUSH1 0x20 DUP3 ADD SWAP1 POP PUSH2 0x15D3 PUSH1 0x0 DUP4 ADD DUP5 PUSH2 0x15AF JUMP JUMPDEST SWAP3 SWAP2 POP POP JUMP JUMPDEST PUSH2 0x15E2 DUP2 PUSH2 0x1527 JUMP JUMPDEST DUP3 MSTORE POP POP JUMP JUMPDEST PUSH1 0x0 PUSH1 0x20 DUP3 ADD SWAP1 POP PUSH2 0x15FD PUSH1 0x0 DUP4 ADD DUP5 PUSH2 0x15D9 JUMP JUMPDEST SWAP3 SWAP2 POP POP JUMP JUMPDEST PUSH1 0x0 DUP2 MLOAD SWAP1 POP SWAP2 SWAP1 POP JUMP JUMPDEST PUSH1 0x0 DUP3 DUP3 MSTORE PUSH1 0x20 DUP3 ADD SWAP1 POP SWAP3 SWAP2 POP POP JUMP JUMPDEST PUSH1 0x0 JUMPDEST DUP4 DUP2 LT ISZERO PUSH2 0x163D JUMPI DUP1 DUP3 ADD MLOAD DUP2 DUP5 ADD MSTORE PUSH1 0x20 DUP2 ADD SWAP1 POP PUSH2 0x1622 JUMP JUMPDEST PUSH1 0x0 DUP5 DUP5 ADD MSTORE POP POP POP POP JUMP JUMPDEST PUSH1 0x0 PUSH1 0x1F NOT PUSH1 0x1F DUP4 ADD AND SWAP1 POP SWAP2 SWAP1 POP JUMP JUMPDEST PUSH1 0x0 PUSH2 0x1665 DUP3 PUSH2 0x1603 JUMP JUMPDEST PUSH2 0x166F DUP2 DUP6 PUSH2 0x160E JUMP JUMPDEST SWAP4 POP PUSH2 0x167F DUP2 DUP6 PUSH1 0x20 DUP7 ADD PUSH2 0x161F JUMP JUMPDEST PUSH2 0x1688 DUP2 PUSH2 0x1649 JUMP JUMPDEST DUP5 ADD SWAP2 POP POP SWAP3 SWAP2 POP POP JUMP JUMPDEST PUSH1 0x0 PUSH1 0x20 DUP3 ADD SWAP1 POP DUP2 DUP2 SUB PUSH1 0x0 DUP4 ADD MSTORE PUSH2 0x16AD DUP2 DUP5 PUSH2 0x165A JUMP JUMPDEST SWAP1 POP SWAP3 SWAP2 POP POP JUMP JUMPDEST PUSH2 0x16BE DUP2 PUSH2 0x15A5 JUMP JUMPDEST DUP2 EQ PUSH2 0x16C9 JUMPI PUSH1 0x0 DUP1 REVERT JUMPDEST POP JUMP JUMPDEST PUSH1 0x0 DUP2 CALLDATALOAD SWAP1 POP PUSH2 0x16DB DUP2 PUSH2 0x16B5 JUMP JUMPDEST SWAP3 SWAP2 POP POP JUMP JUMPDEST PUSH1 0x0 DUP1 PUSH1 0x40 DUP4 DUP6 SUB SLT ISZERO PUSH2 0x16F8 JUMPI PUSH2 0x16F7 PUSH2 0x14FD JUMP JUMPDEST JUMPDEST PUSH1 0x0 PUSH2 0x1706 DUP6 DUP3 DUP7 ADD PUSH2 0x1550 JUMP JUMPDEST SWAP3 POP POP PUSH1 0x20 PUSH2 0x1717 DUP6 DUP3 DUP7 ADD PUSH2 0x16CC JUMP JUMPDEST SWAP2 POP POP SWAP3 POP SWAP3 SWAP1 POP JUMP JUMPDEST PUSH1 0x0 DUP2 ISZERO ISZERO SWAP1 POP SWAP2 SWAP1 POP JUMP JUMPDEST PUSH2 0x1736 DUP2 PUSH2 0x1721 JUMP JUMPDEST DUP3 MSTORE POP POP JUMP JUMPDEST PUSH1 0x0 PUSH1 0x20 DUP3 ADD SWAP1 POP PUSH2 0x1751 PUSH1 0x0 DUP4 ADD DUP5 PUSH2 0x172D JUMP JUMPDEST SWAP3 SWAP2 POP POP JUMP JUMPDEST PUSH1 0x0 DUP1 PUSH1 0x0 PUSH1 0x60 DUP5 DUP7 SUB SLT ISZERO PUSH2 0x1770 JUMPI PUSH2 0x176F PUSH2 0x14FD JUMP JUMPDEST JUMPDEST PUSH1 0x0 PUSH2 0x177E DUP7 DUP3 DUP8 ADD PUSH2 0x1550 JUMP JUMPDEST SWAP4 POP POP PUSH1 0x20 PUSH2 0x178F DUP7 DUP3 DUP8 ADD PUSH2 0x1550 JUMP JUMPDEST SWAP3 POP POP PUSH1 0x40 PUSH2 0x17A0 DUP7 DUP3 DUP8 ADD PUSH2 0x16CC JUMP JUMPDEST SWAP2 POP POP SWAP3 POP SWAP3 POP SWAP3 JUMP JUMPDEST PUSH1 0x0 PUSH1 0xFF DUP3 AND SWAP1 POP SWAP2 SWAP1 POP JUMP JUMPDEST PUSH2 0x17C0 DUP2 PUSH2 0x17AA JUMP JUMPDEST DUP3 MSTORE POP POP JUMP JUMPDEST PUSH1 0x0 PUSH1 0x20 DUP3 ADD SWAP1 POP PUSH2 0x17DB PUSH1 0x0 DUP4 ADD DUP5 PUSH2 0x17B7 JUMP JUMPDEST SWAP3 SWAP2 POP POP JUMP JUMPDEST PUSH1 0x0 PUSH1 0x20 DUP3 DUP5 SUB SLT ISZERO PUSH2 0x17F7 JUMPI PUSH2 0x17F6 PUSH2 0x14FD JUMP JUMPDEST JUMPDEST PUSH1 0x0 PUSH2 0x1805 DUP5 DUP3 DUP6 ADD PUSH2 0x1550 JUMP JUMPDEST SWAP2 POP POP SWAP3 SWAP2 POP POP JUMP JUMPDEST PUSH2 0x1817 DUP2 PUSH2 0x1527 JUMP JUMPDEST DUP3 MSTORE POP POP JUMP JUMPDEST PUSH1 0x0 DUP3 DUP3 MSTORE PUSH1 0x20 DUP3 ADD SWAP1 POP SWAP3 SWAP2 POP POP JUMP JUMPDEST PUSH1 0x0 PUSH2 0x1839 DUP3 PUSH2 0x1603 JUMP JUMPDEST PUSH2 0x1843 DUP2 DUP6 PUSH2 0x181D JUMP JUMPDEST SWAP4 POP PUSH2 0x1853 DUP2 DUP6 PUSH1 0x20 DUP7 ADD PUSH2 0x161F JUMP JUMPDEST PUSH2 0x185C DUP2 PUSH2 0x1649 JUMP JUMPDEST DUP5 ADD SWAP2 POP POP SWAP3 SWAP2 POP POP JUMP JUMPDEST PUSH2 0x1870 DUP2 PUSH2 0x17AA JUMP JUMPDEST DUP3 MSTORE POP POP JUMP JUMPDEST PUSH2 0x187F DUP2 PUSH2 0x15A5 JUMP JUMPDEST DUP3 MSTORE POP POP JUMP JUMPDEST PUSH1 0x0 PUSH1 0xC0 DUP4 ADD PUSH1 0x0 DUP4 ADD MLOAD PUSH2 0x189D PUSH1 0x0 DUP7 ADD DUP3 PUSH2 0x180E JUMP JUMPDEST POP PUSH1 0x20 DUP4 ADD MLOAD DUP5 DUP3 SUB PUSH1 0x20 DUP7 ADD MSTORE PUSH2 0x18B5 DUP3 DUP3 PUSH2 0x182E JUMP JUMPDEST SWAP2 POP POP PUSH1 0x40 DUP4 ADD MLOAD DUP5 DUP3 SUB PUSH1 0x40 DUP7 ADD MSTORE PUSH2 0x18CF DUP3 DUP3 PUSH2 0x182E JUMP JUMPDEST SWAP2 POP POP PUSH1 0x60 DUP4 ADD MLOAD PUSH2 0x18E4 PUSH1 0x60 DUP7 ADD DUP3 PUSH2 0x1867 JUMP JUMPDEST POP PUSH1 0x80 DUP4 ADD MLOAD PUSH2 0x18F7 PUSH1 0x80 DUP7 ADD DUP3 PUSH2 0x1876 JUMP JUMPDEST POP PUSH1 0xA0 DUP4 ADD MLOAD PUSH2 0x190A PUSH1 0xA0 DUP7 ADD DUP3 PUSH2 0x180E JUMP JUMPDEST POP DUP1 SWAP2 POP POP SWAP3 SWAP2 POP POP JUMP JUMPDEST PUSH1 0x0 PUSH1 0x20 DUP3 ADD SWAP1 POP DUP2 DUP2 SUB PUSH1 0x0 DUP4 ADD MSTORE PUSH2 0x192F DUP2 DUP5 PUSH2 0x1885 JUMP JUMPDEST SWAP1 POP SWAP3 SWAP2 POP POP JUMP JUMPDEST PUSH2 0x1940 DUP2 PUSH2 0x1721 JUMP JUMPDEST DUP2 EQ PUSH2 0x194B JUMPI PUSH1 0x0 DUP1 REVERT JUMPDEST POP JUMP JUMPDEST PUSH1 0x0 DUP2 CALLDATALOAD SWAP1 POP PUSH2 0x195D DUP2 PUSH2 0x1937 JUMP JUMPDEST SWAP3 SWAP2 POP POP JUMP JUMPDEST PUSH1 0x0 PUSH1 0x20 DUP3 DUP5 SUB SLT ISZERO PUSH2 0x1979 JUMPI PUSH2 0x1978 PUSH2 0x14FD JUMP JUMPDEST JUMPDEST PUSH1 0x0 PUSH2 0x1987 DUP5 DUP3 DUP6 ADD PUSH2 0x194E JUMP JUMPDEST SWAP2 POP POP SWAP3 SWAP2 POP POP JUMP JUMPDEST PUSH32 0x4E487B7100000000000000000000000000000000000000000000000000000000 PUSH1 0x0 MSTORE PUSH1 0x22 PUSH1 0x4 MSTORE PUSH1 0x24 PUSH1 0x0 REVERT JUMPDEST PUSH1 0x0 PUSH1 0x2 DUP3 DIV SWAP1 POP PUSH1 0x1 DUP3 AND DUP1 PUSH2 0x19D7 JUMPI PUSH1 0x7F DUP3 AND SWAP2 POP JUMPDEST PUSH1 0x20 DUP3 LT DUP2 SUB PUSH2 0x19EA JUMPI PUSH2 0x19E9 PUSH2 0x1990 JUMP JUMPDEST JUMPDEST POP SWAP2 SWAP1 POP JUMP JUMPDEST PUSH1 0x0 PUSH1 0x40 DUP3 ADD SWAP1 POP PUSH2 0x1A05 PUSH1 0x0 DUP4 ADD DUP6 PUSH2 0x15D9 JUMP JUMPDEST PUSH2 0x1A12 PUSH1 0x20 DUP4 ADD DUP5 PUSH2 0x15D9 JUMP JUMPDEST SWAP4 SWAP3 POP POP POP JUMP JUMPDEST PUSH1 0x0 DUP2 MLOAD SWAP1 POP PUSH2 0x1A28 DUP2 PUSH2 0x1937 JUMP JUMPDEST SWAP3 SWAP2 POP POP JUMP JUMPDEST PUSH1 0x0 PUSH1 0x20 DUP3 DUP5 SUB SLT ISZERO PUSH2 0x1A44 JUMPI PUSH2 0x1A43 PUSH2 0x14FD JUMP JUMPDEST JUMPDEST PUSH1 0x0 PUSH2 0x1A52 DUP5 DUP3 DUP6 ADD PUSH2 0x1A19 JUMP JUMPDEST SWAP2 POP POP SWAP3 SWAP2 POP POP JUMP JUMPDEST PUSH1 0x0 DUP1 REVERT JUMPDEST PUSH1 0x0 DUP1 REVERT JUMPDEST PUSH32 0x4E487B7100000000000000000000000000000000000000000000000000000000 PUSH1 0x0 MSTORE PUSH1 0x41 PUSH1 0x4 MSTORE PUSH1 0x24 PUSH1 0x0 REVERT JUMPDEST PUSH2 0x1A9D DUP3 PUSH2 0x1649 JUMP JUMPDEST DUP2 ADD DUP2 DUP2 LT PUSH8 0xFFFFFFFFFFFFFFFF DUP3 GT OR ISZERO PUSH2 0x1ABC JUMPI PUSH2 0x1ABB PUSH2 0x1A65 JUMP JUMPDEST JUMPDEST DUP1 PUSH1 0x40 MSTORE POP POP POP JUMP JUMPDEST PUSH1 0x0 PUSH2 0x1ACF PUSH2 0x14F3 JUMP JUMPDEST SWAP1 POP PUSH2 0x1ADB DUP3 DUP3 PUSH2 0x1A94 JUMP JUMPDEST SWAP2 SWAP1 POP JUMP JUMPDEST PUSH1 0x0 PUSH8 0xFFFFFFFFFFFFFFFF DUP3 GT ISZERO PUSH2 0x1AFB JUMPI PUSH2 0x1AFA PUSH2 0x1A65 JUMP JUMPDEST JUMPDEST PUSH2 0x1B04 DUP3 PUSH2 0x1649 JUMP JUMPDEST SWAP1 POP PUSH1 0x20 DUP2 ADD SWAP1 POP SWAP2 SWAP1 POP JUMP JUMPDEST PUSH1 0x0 PUSH2 0x1B24 PUSH2 0x1B1F DUP5 PUSH2 0x1AE0 JUMP JUMPDEST PUSH2 0x1AC5 JUMP JUMPDEST SWAP1 POP DUP3 DUP2 MSTORE PUSH1 0x20 DUP2 ADD DUP5 DUP5 DUP5 ADD GT ISZERO PUSH2 0x1B40 JUMPI PUSH2 0x1B3F PUSH2 0x1A60 JUMP JUMPDEST JUMPDEST PUSH2 0x1B4B DUP5 DUP3 DUP6 PUSH2 0x161F JUMP JUMPDEST POP SWAP4 SWAP3 POP POP POP JUMP JUMPDEST PUSH1 0x0 DUP3 PUSH1 0x1F DUP4 ADD SLT PUSH2 0x1B68 JUMPI PUSH2 0x1B67 PUSH2 0x1A5B JUMP JUMPDEST JUMPDEST DUP2 MLOAD PUSH2 0x1B78 DUP5 DUP3 PUSH1 0x20 DUP7 ADD PUSH2 0x1B11 JUMP JUMPDEST SWAP2 POP POP SWAP3 SWAP2 POP POP JUMP JUMPDEST PUSH1 0x0 PUSH1 0x20 DUP3 DUP5 SUB SLT ISZERO PUSH2 0x1B97 JUMPI PUSH2 0x1B96 PUSH2 0x14FD JUMP JUMPDEST JUMPDEST PUSH1 0x0 DUP3 ADD MLOAD PUSH8 0xFFFFFFFFFFFFFFFF DUP2 GT ISZERO PUSH2 0x1BB5 JUMPI PUSH2 0x1BB4 PUSH2 0x1502 JUMP JUMPDEST JUMPDEST PUSH2 0x1BC1 DUP5 DUP3 DUP6 ADD PUSH2 0x1B53 JUMP JUMPDEST SWAP2 POP POP SWAP3 SWAP2 POP POP JUMP JUMPDEST PUSH2 0x1BD3 DUP2 PUSH2 0x17AA JUMP JUMPDEST DUP2 EQ PUSH2 0x1BDE JUMPI PUSH1 0x0 DUP1 REVERT JUMPDEST POP JUMP JUMPDEST PUSH1 0x0 DUP2 MLOAD SWAP1 POP PUSH2 0x1BF0 DUP2 PUSH2 0x1BCA JUMP JUMPDEST SWAP3 SWAP2 POP POP JUMP JUMPDEST PUSH1 0x0 PUSH1 0x20 DUP3 DUP5 SUB SLT ISZERO PUSH2 0x1C0C JUMPI PUSH2 0x1C0B PUSH2 0x14FD JUMP JUMPDEST JUMPDEST PUSH1 0x0 PUSH2 0x1C1A DUP5 DUP3 DUP6 ADD PUSH2 0x1BE1 JUMP JUMPDEST SWAP2 POP POP SWAP3 SWAP2 POP POP JUMP JUMPDEST PUSH1 0x0 DUP2 MLOAD SWAP1 POP PUSH2 0x1C32 DUP2 PUSH2 0x16B5 JUMP JUMPDEST SWAP3 SWAP2 POP POP JUMP JUMPDEST PUSH1 0x0 PUSH1 0x20 DUP3 DUP5 SUB SLT ISZERO PUSH2 0x1C4E JUMPI PUSH2 0x1C4D PUSH2 0x14FD JUMP JUMPDEST JUMPDEST PUSH1 0x0 PUSH2 0x1C5C DUP5 DUP3 DUP6 ADD PUSH2 0x1C23 JUMP JUMPDEST SWAP2 POP POP SWAP3 SWAP2 POP POP JUMP JUMPDEST PUSH1 0x0 PUSH1 0x60 DUP3 ADD SWAP1 POP PUSH2 0x1C7A PUSH1 0x0 DUP4 ADD DUP7 PUSH2 0x15D9 JUMP JUMPDEST PUSH2 0x1C87 PUSH1 0x20 DUP4 ADD DUP6 PUSH2 0x15AF JUMP JUMPDEST PUSH2 0x1C94 PUSH1 0x40 DUP4 ADD DUP5 PUSH2 0x15AF JUMP JUMPDEST SWAP5 SWAP4 POP POP POP POP JUMP JUMPDEST PUSH32 0x4E487B7100000000000000000000000000000000000000000000000000000000 PUSH1 0x0 MSTORE PUSH1 0x11 PUSH1 0x4 MSTORE PUSH1 0x24 PUSH1 0x0 REVERT JUMPDEST PUSH1 0x0 PUSH2 0x1CD6 DUP3 PUSH2 0x15A5 JUMP JUMPDEST SWAP2 POP PUSH2 0x1CE1 DUP4 PUSH2 0x15A5 JUMP JUMPDEST SWAP3 POP DUP3 DUP3 ADD SWAP1 POP DUP1 DUP3 GT ISZERO PUSH2 0x1CF9 JUMPI PUSH2 0x1CF8 PUSH2 0x1C9C JUMP JUMPDEST JUMPDEST SWAP3 SWAP2 POP POP JUMP INVALID LOG2 PUSH5 0x6970667358 0x22 SLT KECCAK256 DELEGATECALL 0x2E 0xD7 0xF6 0xCC SSTORE SDIV 0xAC EXTCODESIZE 0xAD JUMP RETURNDATACOPY MULMOD 0xAE 0xD1 PUSH16 0x2FC7BC127ADBEA2AFD0D3F1C6BF59B59 PUSH5 0x736F6C6343 STOP ADDMOD SGT STOP CALLER "
				},
				"gasEstimates": {
					"creation": {
						"codeDepositCost": "1495400",
						"executionCost": "infinite",
						"totalCost": "infinite"
					},
					"external": {
						"_allowances(address,address)": "infinite",
						"allowance(address,address)": "infinite",
						"approve(address,uint256)": "infinite",
						"balanceOf(address)": "2886",
						"bond()": "infinite",
						"bondVersion()": "infinite",
						"creator()": "infinite",
						"decimals()": "432",
						"entities()": "infinite",
						"factory()": "infinite",
						"getMetadata()": "infinite",
						"isApprovable()": "2582",
						"name()": "infinite",
						"setIsApprovable(bool)": "infinite",
						"symbol()": "infinite",
						"totalSupply()": "2482",
						"transfer(address,uint256)": "infinite",
						"transferFrom(address,address,uint256)": "infinite",
						"versions()": "infinite"
					}
				},
				"methodIdentifiers": {
					"_allowances(address,address)": "024c2ddd",
					"allowance(address,address)": "dd62ed3e",
					"approve(address,uint256)": "095ea7b3",
					"balanceOf(address)": "70a08231",
					"bond()": "64c9ec6f",
					"bondVersion()": "dfd9ef5f",
					"creator()": "02d05d3f",
					"decimals()": "313ce567",
					"entities()": "1615fd03",
					"factory()": "c45a0155",
					"getMetadata()": "7a5b4f59",
					"isApprovable()": "31a18ea1",
					"name()": "06fdde03",
					"setIsApprovable(bool)": "a71406b6",
					"symbol()": "95d89b41",
					"totalSupply()": "18160ddd",
					"transfer(address,uint256)": "a9059cbb",
					"transferFrom(address,address,uint256)": "23b872dd",
					"versions()": "f8b1cb3c"
				}
			},
			"storageLayout": {
				"storage": [
					{
						"astId": 159,
						"contract": "src/_Token.sol:_Token",
						"label": "_balances",
						"offset": 0,
						"slot": "0",
						"type": "t_mapping(t_address,t_uint256)"
					},
					{
						"astId": 165,
						"contract": "src/_Token.sol:_Token",
						"label": "_allowances",
						"offset": 0,
						"slot": "1",
						"type": "t_mapping(t_address,t_mapping(t_address,t_uint256))"
					},
					{
						"astId": 167,
						"contract": "src/_Token.sol:_Token",
						"label": "_totalSupply",
						"offset": 0,
						"slot": "2",
						"type": "t_uint256"
					},
					{
						"astId": 169,
						"contract": "src/_Token.sol:_Token",
						"label": "_name",
						"offset": 0,
						"slot": "3",
						"type": "t_string_storage"
					},
					{
						"astId": 171,
						"contract": "src/_Token.sol:_Token",
						"label": "_symbol",
						"offset": 0,
						"slot": "4",
						"type": "t_string_storage"
					},
					{
						"astId": 823,
						"contract": "src/_Token.sol:_Token",
						"label": "isApprovable",
						"offset": 0,
						"slot": "5",
						"type": "t_bool"
					},
					{
						"astId": 826,
						"contract": "src/_Token.sol:_Token",
						"label": "versions",
						"offset": 0,
						"slot": "6",
						"type": "t_string_storage"
					},
					{
						"astId": 828,
						"contract": "src/_Token.sol:_Token",
						"label": "bondVersion",
						"offset": 0,
						"slot": "7",
						"type": "t_string_storage"
					}
				],
				"types": {
					"t_address": {
						"encoding": "inplace",
						"label": "address",
						"numberOfBytes": "20"
					},
					"t_bool": {
						"encoding": "inplace",
						"label": "bool",
						"numberOfBytes": "1"
					},
					"t_mapping(t_address,t_mapping(t_address,t_uint256))": {
						"encoding": "mapping",
						"key": "t_address",
						"label": "mapping(address => mapping(address => uint256))",
						"numberOfBytes": "32",
						"value": "t_mapping(t_address,t_uint256)"
					},
					"t_mapping(t_address,t_uint256)": {
						"encoding": "mapping",
						"key": "t_address",
						"label": "mapping(address => uint256)",
						"numberOfBytes": "32",
						"value": "t_uint256"
					},
					"t_string_storage": {
						"encoding": "bytes",
						"label": "string",
						"numberOfBytes": "32"
					},
					"t_uint256": {
						"encoding": "inplace",
						"label": "uint256",
						"numberOfBytes": "32"
					}
				}
			},
			"userdoc": {
				"kind": "user",
				"methods": {},
				"version": 1
			}
		}
	}
}