{
	"src/_Recommend.sol": {
		"_Recommend": {
			"abi": [
				{
					"inputs": [],
					"stateMutability": "nonpayable",
					"type": "constructor"
				},
				{
					"inputs": [
						{
							"internalType": "address",
							"name": "owner",
							"type": "address"
						}
					],
					"name": "OwnableInvalidOwner",
					"type": "error"
				},
				{
					"inputs": [
						{
							"internalType": "address",
							"name": "account",
							"type": "address"
						}
					],
					"name": "OwnableUnauthorizedAccount",
					"type": "error"
				},
				{
					"inputs": [],
					"name": "_CallerNotEOA",
					"type": "error"
				},
				{
					"inputs": [],
					"name": "_IllegalValue",
					"type": "error"
				},
				{
					"inputs": [],
					"name": "_NoOwner",
					"type": "error"
				},
				{
					"inputs": [],
					"name": "_NoTokensToClaim",
					"type": "error"
				},
				{
					"inputs": [],
					"name": "_NotSufficientFund",
					"type": "error"
				},
				{
					"anonymous": false,
					"inputs": [
						{
							"indexed": true,
							"internalType": "uint256",
							"name": "flag",
							"type": "uint256"
						},
						{
							"indexed": false,
							"internalType": "string",
							"name": "version",
							"type": "string"
						}
					],
					"name": "ContractDeploy",
					"type": "event"
				},
				{
					"anonymous": false,
					"inputs": [
						{
							"indexed": true,
							"internalType": "address",
							"name": "previousOwner",
							"type": "address"
						},
						{
							"indexed": true,
							"internalType": "address",
							"name": "newOwner",
							"type": "address"
						}
					],
					"name": "OwnershipTransferred",
					"type": "event"
				},
				{
					"anonymous": false,
					"inputs": [
						{
							"indexed": true,
							"internalType": "address",
							"name": "user",
							"type": "address"
						},
						{
							"indexed": false,
							"internalType": "uint256",
							"name": "amount",
							"type": "uint256"
						}
					],
					"name": "TokensClaimed",
					"type": "event"
				},
				{
					"anonymous": false,
					"inputs": [
						{
							"indexed": true,
							"internalType": "address",
							"name": "user",
							"type": "address"
						},
						{
							"indexed": false,
							"internalType": "uint256",
							"name": "amount",
							"type": "uint256"
						}
					],
					"name": "TokensSet",
					"type": "event"
				},
				{
					"inputs": [
						{
							"internalType": "address",
							"name": "",
							"type": "address"
						}
					],
					"name": "alreadyClaimed",
					"outputs": [
						{
							"internalType": "uint256",
							"name": "",
							"type": "uint256"
						}
					],
					"stateMutability": "view",
					"type": "function"
				},
				{
					"inputs": [],
					"name": "claimTokens",
					"outputs": [],
					"stateMutability": "nonpayable",
					"type": "function"
				},
				{
					"inputs": [
						{
							"internalType": "address",
							"name": "",
							"type": "address"
						}
					],
					"name": "isAdmin",
					"outputs": [
						{
							"internalType": "bool",
							"name": "",
							"type": "bool"
						}
					],
					"stateMutability": "view",
					"type": "function"
				},
				{
					"inputs": [
						{
							"internalType": "address",
							"name": "",
							"type": "address"
						}
					],
					"name": "obtainedAmount",
					"outputs": [
						{
							"internalType": "uint256",
							"name": "",
							"type": "uint256"
						}
					],
					"stateMutability": "view",
					"type": "function"
				},
				{
					"inputs": [],
					"name": "owner",
					"outputs": [
						{
							"internalType": "address",
							"name": "",
							"type": "address"
						}
					],
					"stateMutability": "view",
					"type": "function"
				},
				{
					"inputs": [],
					"name": "recommendAmount",
					"outputs": [
						{
							"internalType": "uint256",
							"name": "",
							"type": "uint256"
						}
					],
					"stateMutability": "view",
					"type": "function"
				},
				{
					"inputs": [],
					"name": "renounceOwnership",
					"outputs": [],
					"stateMutability": "nonpayable",
					"type": "function"
				},
				{
					"inputs": [
						{
							"internalType": "address",
							"name": "_to",
							"type": "address"
						},
						{
							"internalType": "uint256",
							"name": "_value",
							"type": "uint256"
						}
					],
					"name": "rescueETH",
					"outputs": [],
					"stateMutability": "nonpayable",
					"type": "function"
				},
				{
					"inputs": [
						{
							"internalType": "address",
							"name": "_admin",
							"type": "address"
						},
						{
							"internalType": "bool",
							"name": "_status",
							"type": "bool"
						}
					],
					"name": "setAdmin",
					"outputs": [],
					"stateMutability": "nonpayable",
					"type": "function"
				},
				{
					"inputs": [
						{
							"internalType": "address",
							"name": "referrer",
							"type": "address"
						},
						{
							"internalType": "uint256",
							"name": "amount",
							"type": "uint256"
						}
					],
					"name": "setClaimableTokens",
					"outputs": [],
					"stateMutability": "payable",
					"type": "function"
				},
				{
					"inputs": [
						{
							"internalType": "uint256",
							"name": "_recommendAmount",
							"type": "uint256"
						}
					],
					"name": "setRecommendAmount",
					"outputs": [],
					"stateMutability": "nonpayable",
					"type": "function"
				},
				{
					"inputs": [
						{
							"internalType": "address",
							"name": "newOwner",
							"type": "address"
						}
					],
					"name": "transferOwnership",
					"outputs": [],
					"stateMutability": "nonpayable",
					"type": "function"
				},
				{
					"inputs": [],
					"name": "versions",
					"outputs": [
						{
							"internalType": "string",
							"name": "",
							"type": "string"
						}
					],
					"stateMutability": "view",
					"type": "function"
				},
				{
					"stateMutability": "payable",
					"type": "receive"
				}
			],
			"devdoc": {
				"details": "A contract that recommends relevant features.",
				"errors": {
					"OwnableInvalidOwner(address)": [
						{
							"details": "The owner is not a valid owner account. (eg. `address(0)`)"
						}
					],
					"OwnableUnauthorizedAccount(address)": [
						{
							"details": "The caller account is not authorized to perform an operation."
						}
					]
				},
				"kind": "dev",
				"methods": {
					"claimTokens()": {
						"details": "Has been recorded can claim the corresponding referral reward."
					},
					"owner()": {
						"details": "Returns the address of the current owner."
					},
					"renounceOwnership()": {
						"details": "Leaves the contract without owner. It will not be possible to call `onlyOwner` functions. Can only be called by the current owner. NOTE: Renouncing ownership will leave the contract without an owner, thereby disabling any functionality that is only available to the owner."
					},
					"setClaimableTokens(address,uint256)": {
						"details": "Only bond contracts can set a record of tokens that can be claimed.",
						"params": {
							"amount": "The quantity that can be claimed.",
							"referrer": "The referrer."
						}
					},
					"setRecommendAmount(uint256)": {
						"details": "The referrer's algebra.",
						"params": {
							"_recommendAmount": "The reward is returned to the superior algebra."
						}
					},
					"transferOwnership(address)": {
						"details": "Transfers ownership of the contract to a new account (`newOwner`). Can only be called by the current owner."
					}
				},
				"title": "_Recommend.",
				"version": 1
			},
			"evm": {
				"assembly": "    /* \"src/_Recommend.sol\":405:3093  contract _Recommend is Ownable, ReentrancyGuard {... */\n  mstore(0x40, 0x80)\n    /* \"lib/solady-main/src/utils/ReentrancyGuard.sol\":454:455  1 */\n  0x01\n    /* \"lib/solady-main/src/utils/ReentrancyGuard.sol\":429:455  uint256 private locked = 1 */\n  dup1\n  sstore\n    /* \"src/_Recommend.sol\":796:797  2 */\n  0x02\n    /* \"src/_Recommend.sol\":763:797  uint256 public recommendAmount = 2 */\n  0x05\n  sstore\n    /* \"src/_Recommend.sol\":806:838  string public versions = \"1.0.0\" */\n  mload(0x40)\n  dup1\n  0x40\n  add\n  0x40\n  mstore\n  dup1\n  0x05\n  dup2\n  mstore\n  0x20\n  add\n  0x312e302e30000000000000000000000000000000000000000000000000000000\n  dup2\n  mstore\n  pop\n  0x06\n  swap1\n  dup2\n  tag_1\n  swap2\n  swap1\n  tag_2\n  jump\t// in\ntag_1:\n  pop\n    /* \"src/_Recommend.sol\":1038:1160  constructor() Ownable(msg.sender) {... */\n  callvalue\n  dup1\n  iszero\n  tag_3\n  jumpi\n  0x00\n  dup1\n  revert\ntag_3:\n  pop\n    /* \"src/_Recommend.sol\":1060:1070  msg.sender */\n  caller\n    /* \"lib/openzeppelin-contracts/contracts/access/Ownable.sol\":1296:1297  0 */\n  0x00\n    /* \"lib/openzeppelin-contracts/contracts/access/Ownable.sol\":1272:1298  initialOwner == address(0) */\n  0xffffffffffffffffffffffffffffffffffffffff\n  and\n    /* \"lib/openzeppelin-contracts/contracts/access/Ownable.sol\":1272:1284  initialOwner */\n  dup2\n    /* \"lib/openzeppelin-contracts/contracts/access/Ownable.sol\":1272:1298  initialOwner == address(0) */\n  0xffffffffffffffffffffffffffffffffffffffff\n  and\n  sub\n    /* \"lib/openzeppelin-contracts/contracts/access/Ownable.sol\":1268:1363  if (initialOwner == address(0)) {... */\n  tag_7\n  jumpi\n    /* \"lib/openzeppelin-contracts/contracts/access/Ownable.sol\":1349:1350  0 */\n  0x00\n    /* \"lib/openzeppelin-contracts/contracts/access/Ownable.sol\":1321:1352  OwnableInvalidOwner(address(0)) */\n  mload(0x40)\n  0x1e4fbdf700000000000000000000000000000000000000000000000000000000\n  dup2\n  mstore\n  0x04\n  add\n  tag_8\n  swap2\n  swap1\n  tag_9\n  jump\t// in\ntag_8:\n  mload(0x40)\n  dup1\n  swap2\n  sub\n  swap1\n  revert\n    /* \"lib/openzeppelin-contracts/contracts/access/Ownable.sol\":1268:1363  if (initialOwner == address(0)) {... */\ntag_7:\n    /* \"lib/openzeppelin-contracts/contracts/access/Ownable.sol\":1372:1404  _transferOwnership(initialOwner) */\n  tag_10\n    /* \"lib/openzeppelin-contracts/contracts/access/Ownable.sol\":1391:1403  initialOwner */\n  dup2\n    /* \"lib/openzeppelin-contracts/contracts/access/Ownable.sol\":1372:1390  _transferOwnership */\n  shl(0x20, tag_11)\n    /* \"lib/openzeppelin-contracts/contracts/access/Ownable.sol\":1372:1404  _transferOwnership(initialOwner) */\n  0x20\n  shr\n  jump\t// in\ntag_10:\n    /* \"lib/openzeppelin-contracts/contracts/access/Ownable.sol\":1224:1411  constructor(address initialOwner) {... */\n  pop\n    /* \"src/_Recommend.sol\":1105:1109  true */\n  0x01\n    /* \"src/_Recommend.sol\":1083:1090  isAdmin */\n  0x04\n    /* \"src/_Recommend.sol\":1083:1102  isAdmin[msg.sender] */\n  0x00\n    /* \"src/_Recommend.sol\":1091:1101  msg.sender */\n  caller\n    /* \"src/_Recommend.sol\":1083:1102  isAdmin[msg.sender] */\n  0xffffffffffffffffffffffffffffffffffffffff\n  and\n  0xffffffffffffffffffffffffffffffffffffffff\n  and\n  dup2\n  mstore\n  0x20\n  add\n  swap1\n  dup2\n  mstore\n  0x20\n  add\n  0x00\n  keccak256\n  0x00\n    /* \"src/_Recommend.sol\":1083:1109  isAdmin[msg.sender] = true */\n  0x0100\n  exp\n  dup2\n  sload\n  dup2\n  0xff\n  mul\n  not\n  and\n  swap1\n  dup4\n  iszero\n  iszero\n  mul\n  or\n  swap1\n  sstore\n  pop\n    /* \"src/_Recommend.sol\":1140:1141  4 */\n  0x04\n    /* \"src/_Recommend.sol\":1125:1152  ContractDeploy(4, versions) */\n  0x7b78ee99b011dff919ff5bd97f8a1b33b444782eb490dd7cd487fc963d63676f\n    /* \"src/_Recommend.sol\":1143:1151  versions */\n  0x06\n    /* \"src/_Recommend.sol\":1125:1152  ContractDeploy(4, versions) */\n  mload(0x40)\n  tag_13\n  swap2\n  swap1\n  tag_14\n  jump\t// in\ntag_13:\n  mload(0x40)\n  dup1\n  swap2\n  sub\n  swap1\n  log2\n    /* \"src/_Recommend.sol\":405:3093  contract _Recommend is Ownable, ReentrancyGuard {... */\n  jump(tag_15)\n    /* \"lib/openzeppelin-contracts/contracts/access/Ownable.sol\":2911:3098  function _transferOwnership(address newOwner) internal virtual {... */\ntag_11:\n    /* \"lib/openzeppelin-contracts/contracts/access/Ownable.sol\":2984:3000  address oldOwner */\n  0x00\n    /* \"lib/openzeppelin-contracts/contracts/access/Ownable.sol\":3003:3009  _owner */\n  dup1\n  0x00\n  swap1\n  sload\n  swap1\n  0x0100\n  exp\n  swap1\n  div\n  0xffffffffffffffffffffffffffffffffffffffff\n  and\n    /* \"lib/openzeppelin-contracts/contracts/access/Ownable.sol\":2984:3009  address oldOwner = _owner */\n  swap1\n  pop\n    /* \"lib/openzeppelin-contracts/contracts/access/Ownable.sol\":3028:3036  newOwner */\n  dup2\n    /* \"lib/openzeppelin-contracts/contracts/access/Ownable.sol\":3019:3025  _owner */\n  0x00\n  dup1\n    /* \"lib/openzeppelin-contracts/contracts/access/Ownable.sol\":3019:3036  _owner = newOwner */\n  0x0100\n  exp\n  dup2\n  sload\n  dup2\n  0xffffffffffffffffffffffffffffffffffffffff\n  mul\n  not\n  and\n  swap1\n  dup4\n  0xffffffffffffffffffffffffffffffffffffffff\n  and\n  mul\n  or\n  swap1\n  sstore\n  pop\n    /* \"lib/openzeppelin-contracts/contracts/access/Ownable.sol\":3082:3090  newOwner */\n  dup2\n    /* \"lib/openzeppelin-contracts/contracts/access/Ownable.sol\":3051:3091  OwnershipTransferred(oldOwner, newOwner) */\n  0xffffffffffffffffffffffffffffffffffffffff\n  and\n    /* \"lib/openzeppelin-contracts/contracts/access/Ownable.sol\":3072:3080  oldOwner */\n  dup2\n    /* \"lib/openzeppelin-contracts/contracts/access/Ownable.sol\":3051:3091  OwnershipTransferred(oldOwner, newOwner) */\n  0xffffffffffffffffffffffffffffffffffffffff\n  and\n  0x8be0079c531659141344cd1fd0a4f28419497f9722a3daafe3b4186f6b6457e0\n  mload(0x40)\n  mload(0x40)\n  dup1\n  swap2\n  sub\n  swap1\n  log3\n    /* \"lib/openzeppelin-contracts/contracts/access/Ownable.sol\":2974:3098  {... */\n  pop\n    /* \"lib/openzeppelin-contracts/contracts/access/Ownable.sol\":2911:3098  function _transferOwnership(address newOwner) internal virtual {... */\n  pop\n  jump\t// out\n    /* \"#utility.yul\":7:106   */\ntag_17:\n    /* \"#utility.yul\":59:65   */\n  0x00\n    /* \"#utility.yul\":93:98   */\n  dup2\n    /* \"#utility.yul\":87:99   */\n  mload\n    /* \"#utility.yul\":77:99   */\n  swap1\n  pop\n    /* \"#utility.yul\":7:106   */\n  swap2\n  swap1\n  pop\n  jump\t// out\n    /* \"#utility.yul\":112:292   */\ntag_18:\n    /* \"#utility.yul\":160:237   */\n  0x4e487b7100000000000000000000000000000000000000000000000000000000\n    /* \"#utility.yul\":157:158   */\n  0x00\n    /* \"#utility.yul\":150:238   */\n  mstore\n    /* \"#utility.yul\":257:261   */\n  0x41\n    /* \"#utility.yul\":254:255   */\n  0x04\n    /* \"#utility.yul\":247:262   */\n  mstore\n    /* \"#utility.yul\":281:285   */\n  0x24\n    /* \"#utility.yul\":278:279   */\n  0x00\n    /* \"#utility.yul\":271:286   */\n  revert\n    /* \"#utility.yul\":298:478   */\ntag_19:\n    /* \"#utility.yul\":346:423   */\n  0x4e487b7100000000000000000000000000000000000000000000000000000000\n    /* \"#utility.yul\":343:344   */\n  0x00\n    /* \"#utility.yul\":336:424   */\n  mstore\n    /* \"#utility.yul\":443:447   */\n  0x22\n    /* \"#utility.yul\":440:441   */\n  0x04\n    /* \"#utility.yul\":433:448   */\n  mstore\n    /* \"#utility.yul\":467:471   */\n  0x24\n    /* \"#utility.yul\":464:465   */\n  0x00\n    /* \"#utility.yul\":457:472   */\n  revert\n    /* \"#utility.yul\":484:804   */\ntag_20:\n    /* \"#utility.yul\":528:534   */\n  0x00\n    /* \"#utility.yul\":565:566   */\n  0x02\n    /* \"#utility.yul\":559:563   */\n  dup3\n    /* \"#utility.yul\":555:567   */\n  div\n    /* \"#utility.yul\":545:567   */\n  swap1\n  pop\n    /* \"#utility.yul\":612:613   */\n  0x01\n    /* \"#utility.yul\":606:610   */\n  dup3\n    /* \"#utility.yul\":602:614   */\n  and\n    /* \"#utility.yul\":633:651   */\n  dup1\n    /* \"#utility.yul\":623:704   */\n  tag_47\n  jumpi\n    /* \"#utility.yul\":689:693   */\n  0x7f\n    /* \"#utility.yul\":681:687   */\n  dup3\n    /* \"#utility.yul\":677:694   */\n  and\n    /* \"#utility.yul\":667:694   */\n  swap2\n  pop\n    /* \"#utility.yul\":623:704   */\ntag_47:\n    /* \"#utility.yul\":751:753   */\n  0x20\n    /* \"#utility.yul\":743:749   */\n  dup3\n    /* \"#utility.yul\":740:754   */\n  lt\n    /* \"#utility.yul\":720:738   */\n  dup2\n    /* \"#utility.yul\":717:755   */\n  sub\n    /* \"#utility.yul\":714:798   */\n  tag_48\n  jumpi\n    /* \"#utility.yul\":770:788   */\n  tag_49\n  tag_19\n  jump\t// in\ntag_49:\n    /* \"#utility.yul\":714:798   */\ntag_48:\n    /* \"#utility.yul\":535:804   */\n  pop\n    /* \"#utility.yul\":484:804   */\n  swap2\n  swap1\n  pop\n  jump\t// out\n    /* \"#utility.yul\":810:951   */\ntag_21:\n    /* \"#utility.yul\":859:863   */\n  0x00\n    /* \"#utility.yul\":882:885   */\n  dup2\n    /* \"#utility.yul\":874:885   */\n  swap1\n  pop\n    /* \"#utility.yul\":905:908   */\n  dup2\n    /* \"#utility.yul\":902:903   */\n  0x00\n    /* \"#utility.yul\":895:909   */\n  mstore\n    /* \"#utility.yul\":939:943   */\n  0x20\n    /* \"#utility.yul\":936:937   */\n  0x00\n    /* \"#utility.yul\":926:944   */\n  keccak256\n    /* \"#utility.yul\":918:944   */\n  swap1\n  pop\n    /* \"#utility.yul\":810:951   */\n  swap2\n  swap1\n  pop\n  jump\t// out\n    /* \"#utility.yul\":957:1050   */\ntag_22:\n    /* \"#utility.yul\":994:1000   */\n  0x00\n    /* \"#utility.yul\":1041:1043   */\n  0x20\n    /* \"#utility.yul\":1036:1038   */\n  0x1f\n    /* \"#utility.yul\":1029:1034   */\n  dup4\n    /* \"#utility.yul\":1025:1039   */\n  add\n    /* \"#utility.yul\":1021:1044   */\n  div\n    /* \"#utility.yul\":1011:1044   */\n  swap1\n  pop\n    /* \"#utility.yul\":957:1050   */\n  swap2\n  swap1\n  pop\n  jump\t// out\n    /* \"#utility.yul\":1056:1163   */\ntag_23:\n    /* \"#utility.yul\":1100:1108   */\n  0x00\n    /* \"#utility.yul\":1150:1155   */\n  dup3\n    /* \"#utility.yul\":1144:1148   */\n  dup3\n    /* \"#utility.yul\":1140:1156   */\n  shl\n    /* \"#utility.yul\":1119:1156   */\n  swap1\n  pop\n    /* \"#utility.yul\":1056:1163   */\n  swap3\n  swap2\n  pop\n  pop\n  jump\t// out\n    /* \"#utility.yul\":1169:1562   */\ntag_24:\n    /* \"#utility.yul\":1238:1244   */\n  0x00\n    /* \"#utility.yul\":1288:1289   */\n  0x08\n    /* \"#utility.yul\":1276:1286   */\n  dup4\n    /* \"#utility.yul\":1272:1290   */\n  mul\n    /* \"#utility.yul\":1311:1408   */\n  tag_54\n    /* \"#utility.yul\":1341:1407   */\n  0xffffffffffffffffffffffffffffffffffffffffffffffffffffffffffffffff\n    /* \"#utility.yul\":1330:1339   */\n  dup3\n    /* \"#utility.yul\":1311:1408   */\n  tag_23\n  jump\t// in\ntag_54:\n    /* \"#utility.yul\":1429:1468   */\n  tag_55\n    /* \"#utility.yul\":1459:1467   */\n  dup7\n    /* \"#utility.yul\":1448:1457   */\n  dup4\n    /* \"#utility.yul\":1429:1468   */\n  tag_23\n  jump\t// in\ntag_55:\n    /* \"#utility.yul\":1417:1468   */\n  swap6\n  pop\n    /* \"#utility.yul\":1501:1505   */\n  dup1\n    /* \"#utility.yul\":1497:1506   */\n  not\n    /* \"#utility.yul\":1490:1495   */\n  dup5\n    /* \"#utility.yul\":1486:1507   */\n  and\n    /* \"#utility.yul\":1477:1507   */\n  swap4\n  pop\n    /* \"#utility.yul\":1550:1554   */\n  dup1\n    /* \"#utility.yul\":1540:1548   */\n  dup7\n    /* \"#utility.yul\":1536:1555   */\n  and\n    /* \"#utility.yul\":1529:1534   */\n  dup5\n    /* \"#utility.yul\":1526:1556   */\n  or\n    /* \"#utility.yul\":1516:1556   */\n  swap3\n  pop\n    /* \"#utility.yul\":1245:1562   */\n  pop\n  pop\n    /* \"#utility.yul\":1169:1562   */\n  swap4\n  swap3\n  pop\n  pop\n  pop\n  jump\t// out\n    /* \"#utility.yul\":1568:1645   */\ntag_25:\n    /* \"#utility.yul\":1605:1612   */\n  0x00\n    /* \"#utility.yul\":1634:1639   */\n  dup2\n    /* \"#utility.yul\":1623:1639   */\n  swap1\n  pop\n    /* \"#utility.yul\":1568:1645   */\n  swap2\n  swap1\n  pop\n  jump\t// out\n    /* \"#utility.yul\":1651:1711   */\ntag_26:\n    /* \"#utility.yul\":1679:1682   */\n  0x00\n    /* \"#utility.yul\":1700:1705   */\n  dup2\n    /* \"#utility.yul\":1693:1705   */\n  swap1\n  pop\n    /* \"#utility.yul\":1651:1711   */\n  swap2\n  swap1\n  pop\n  jump\t// out\n    /* \"#utility.yul\":1717:1859   */\ntag_27:\n    /* \"#utility.yul\":1767:1776   */\n  0x00\n    /* \"#utility.yul\":1800:1853   */\n  tag_59\n    /* \"#utility.yul\":1818:1852   */\n  tag_60\n    /* \"#utility.yul\":1827:1851   */\n  tag_61\n    /* \"#utility.yul\":1845:1850   */\n  dup5\n    /* \"#utility.yul\":1827:1851   */\n  tag_25\n  jump\t// in\ntag_61:\n    /* \"#utility.yul\":1818:1852   */\n  tag_26\n  jump\t// in\ntag_60:\n    /* \"#utility.yul\":1800:1853   */\n  tag_25\n  jump\t// in\ntag_59:\n    /* \"#utility.yul\":1787:1853   */\n  swap1\n  pop\n    /* \"#utility.yul\":1717:1859   */\n  swap2\n  swap1\n  pop\n  jump\t// out\n    /* \"#utility.yul\":1865:1940   */\ntag_28:\n    /* \"#utility.yul\":1908:1911   */\n  0x00\n    /* \"#utility.yul\":1929:1934   */\n  dup2\n    /* \"#utility.yul\":1922:1934   */\n  swap1\n  pop\n    /* \"#utility.yul\":1865:1940   */\n  swap2\n  swap1\n  pop\n  jump\t// out\n    /* \"#utility.yul\":1946:2215   */\ntag_29:\n    /* \"#utility.yul\":2056:2095   */\n  tag_64\n    /* \"#utility.yul\":2087:2094   */\n  dup4\n    /* \"#utility.yul\":2056:2095   */\n  tag_27\n  jump\t// in\ntag_64:\n    /* \"#utility.yul\":2117:2208   */\n  tag_65\n    /* \"#utility.yul\":2166:2207   */\n  tag_66\n    /* \"#utility.yul\":2190:2206   */\n  dup3\n    /* \"#utility.yul\":2166:2207   */\n  tag_28\n  jump\t// in\ntag_66:\n    /* \"#utility.yul\":2158:2164   */\n  dup5\n    /* \"#utility.yul\":2151:2155   */\n  dup5\n    /* \"#utility.yul\":2145:2156   */\n  sload\n    /* \"#utility.yul\":2117:2208   */\n  tag_24\n  jump\t// in\ntag_65:\n    /* \"#utility.yul\":2111:2115   */\n  dup3\n    /* \"#utility.yul\":2104:2209   */\n  sstore\n    /* \"#utility.yul\":2022:2215   */\n  pop\n    /* \"#utility.yul\":1946:2215   */\n  pop\n  pop\n  pop\n  jump\t// out\n    /* \"#utility.yul\":2221:2294   */\ntag_30:\n    /* \"#utility.yul\":2266:2269   */\n  0x00\n    /* \"#utility.yul\":2221:2294   */\n  swap1\n  jump\t// out\n    /* \"#utility.yul\":2300:2489   */\ntag_31:\n    /* \"#utility.yul\":2377:2409   */\n  tag_69\n  tag_30\n  jump\t// in\ntag_69:\n    /* \"#utility.yul\":2418:2483   */\n  tag_70\n    /* \"#utility.yul\":2476:2482   */\n  dup2\n    /* \"#utility.yul\":2468:2474   */\n  dup5\n    /* \"#utility.yul\":2462:2466   */\n  dup5\n    /* \"#utility.yul\":2418:2483   */\n  tag_29\n  jump\t// in\ntag_70:\n    /* \"#utility.yul\":2353:2489   */\n  pop\n    /* \"#utility.yul\":2300:2489   */\n  pop\n  pop\n  jump\t// out\n    /* \"#utility.yul\":2495:2681   */\ntag_32:\n    /* \"#utility.yul\":2555:2675   */\ntag_72:\n    /* \"#utility.yul\":2572:2575   */\n  dup2\n    /* \"#utility.yul\":2565:2570   */\n  dup2\n    /* \"#utility.yul\":2562:2576   */\n  lt\n    /* \"#utility.yul\":2555:2675   */\n  iszero\n  tag_74\n  jumpi\n    /* \"#utility.yul\":2626:2665   */\n  tag_75\n    /* \"#utility.yul\":2663:2664   */\n  0x00\n    /* \"#utility.yul\":2656:2661   */\n  dup3\n    /* \"#utility.yul\":2626:2665   */\n  tag_31\n  jump\t// in\ntag_75:\n    /* \"#utility.yul\":2599:2600   */\n  0x01\n    /* \"#utility.yul\":2592:2597   */\n  dup2\n    /* \"#utility.yul\":2588:2601   */\n  add\n    /* \"#utility.yul\":2579:2601   */\n  swap1\n  pop\n    /* \"#utility.yul\":2555:2675   */\n  jump(tag_72)\ntag_74:\n    /* \"#utility.yul\":2495:2681   */\n  pop\n  pop\n  jump\t// out\n    /* \"#utility.yul\":2687:3230   */\ntag_33:\n    /* \"#utility.yul\":2788:2790   */\n  0x1f\n    /* \"#utility.yul\":2783:2786   */\n  dup3\n    /* \"#utility.yul\":2780:2791   */\n  gt\n    /* \"#utility.yul\":2777:3223   */\n  iszero\n  tag_77\n  jumpi\n    /* \"#utility.yul\":2822:2860   */\n  tag_78\n    /* \"#utility.yul\":2854:2859   */\n  dup2\n    /* \"#utility.yul\":2822:2860   */\n  tag_21\n  jump\t// in\ntag_78:\n    /* \"#utility.yul\":2906:2935   */\n  tag_79\n    /* \"#utility.yul\":2924:2934   */\n  dup5\n    /* \"#utility.yul\":2906:2935   */\n  tag_22\n  jump\t// in\ntag_79:\n    /* \"#utility.yul\":2896:2904   */\n  dup2\n    /* \"#utility.yul\":2892:2936   */\n  add\n    /* \"#utility.yul\":3089:3091   */\n  0x20\n    /* \"#utility.yul\":3077:3087   */\n  dup6\n    /* \"#utility.yul\":3074:3092   */\n  lt\n    /* \"#utility.yul\":3071:3120   */\n  iszero\n  tag_80\n  jumpi\n    /* \"#utility.yul\":3110:3118   */\n  dup2\n    /* \"#utility.yul\":3095:3118   */\n  swap1\n  pop\n    /* \"#utility.yul\":3071:3120   */\ntag_80:\n    /* \"#utility.yul\":3133:3213   */\n  tag_81\n    /* \"#utility.yul\":3189:3211   */\n  tag_82\n    /* \"#utility.yul\":3207:3210   */\n  dup6\n    /* \"#utility.yul\":3189:3211   */\n  tag_22\n  jump\t// in\ntag_82:\n    /* \"#utility.yul\":3179:3187   */\n  dup4\n    /* \"#utility.yul\":3175:3212   */\n  add\n    /* \"#utility.yul\":3162:3173   */\n  dup3\n    /* \"#utility.yul\":3133:3213   */\n  tag_32\n  jump\t// in\ntag_81:\n    /* \"#utility.yul\":2792:3223   */\n  pop\n  pop\n    /* \"#utility.yul\":2777:3223   */\ntag_77:\n    /* \"#utility.yul\":2687:3230   */\n  pop\n  pop\n  pop\n  jump\t// out\n    /* \"#utility.yul\":3236:3353   */\ntag_34:\n    /* \"#utility.yul\":3290:3298   */\n  0x00\n    /* \"#utility.yul\":3340:3345   */\n  dup3\n    /* \"#utility.yul\":3334:3338   */\n  dup3\n    /* \"#utility.yul\":3330:3346   */\n  shr\n    /* \"#utility.yul\":3309:3346   */\n  swap1\n  pop\n    /* \"#utility.yul\":3236:3353   */\n  swap3\n  swap2\n  pop\n  pop\n  jump\t// out\n    /* \"#utility.yul\":3359:3528   */\ntag_35:\n    /* \"#utility.yul\":3403:3409   */\n  0x00\n    /* \"#utility.yul\":3436:3487   */\n  tag_85\n    /* \"#utility.yul\":3484:3485   */\n  0x00\n    /* \"#utility.yul\":3480:3486   */\n  not\n    /* \"#utility.yul\":3472:3477   */\n  dup5\n    /* \"#utility.yul\":3469:3470   */\n  0x08\n    /* \"#utility.yul\":3465:3478   */\n  mul\n    /* \"#utility.yul\":3436:3487   */\n  tag_34\n  jump\t// in\ntag_85:\n    /* \"#utility.yul\":3432:3488   */\n  not\n    /* \"#utility.yul\":3517:3521   */\n  dup1\n    /* \"#utility.yul\":3511:3515   */\n  dup4\n    /* \"#utility.yul\":3507:3522   */\n  and\n    /* \"#utility.yul\":3497:3522   */\n  swap2\n  pop\n    /* \"#utility.yul\":3410:3528   */\n  pop\n    /* \"#utility.yul\":3359:3528   */\n  swap3\n  swap2\n  pop\n  pop\n  jump\t// out\n    /* \"#utility.yul\":3533:3828   */\ntag_36:\n    /* \"#utility.yul\":3609:3613   */\n  0x00\n    /* \"#utility.yul\":3755:3784   */\n  tag_87\n    /* \"#utility.yul\":3780:3783   */\n  dup4\n    /* \"#utility.yul\":3774:3778   */\n  dup4\n    /* \"#utility.yul\":3755:3784   */\n  tag_35\n  jump\t// in\ntag_87:\n    /* \"#utility.yul\":3747:3784   */\n  swap2\n  pop\n    /* \"#utility.yul\":3817:3820   */\n  dup3\n    /* \"#utility.yul\":3814:3815   */\n  0x02\n    /* \"#utility.yul\":3810:3821   */\n  mul\n    /* \"#utility.yul\":3804:3808   */\n  dup3\n    /* \"#utility.yul\":3801:3822   */\n  or\n    /* \"#utility.yul\":3793:3822   */\n  swap1\n  pop\n    /* \"#utility.yul\":3533:3828   */\n  swap3\n  swap2\n  pop\n  pop\n  jump\t// out\n    /* \"#utility.yul\":3833:5228   */\ntag_2:\n    /* \"#utility.yul\":3950:3987   */\n  tag_89\n    /* \"#utility.yul\":3983:3986   */\n  dup3\n    /* \"#utility.yul\":3950:3987   */\n  tag_17\n  jump\t// in\ntag_89:\n    /* \"#utility.yul\":4052:4070   */\n  0xffffffffffffffff\n    /* \"#utility.yul\":4044:4050   */\n  dup2\n    /* \"#utility.yul\":4041:4071   */\n  gt\n    /* \"#utility.yul\":4038:4094   */\n  iszero\n  tag_90\n  jumpi\n    /* \"#utility.yul\":4074:4092   */\n  tag_91\n  tag_18\n  jump\t// in\ntag_91:\n    /* \"#utility.yul\":4038:4094   */\ntag_90:\n    /* \"#utility.yul\":4118:4156   */\n  tag_92\n    /* \"#utility.yul\":4150:4154   */\n  dup3\n    /* \"#utility.yul\":4144:4155   */\n  sload\n    /* \"#utility.yul\":4118:4156   */\n  tag_20\n  jump\t// in\ntag_92:\n    /* \"#utility.yul\":4203:4270   */\n  tag_93\n    /* \"#utility.yul\":4263:4269   */\n  dup3\n    /* \"#utility.yul\":4255:4261   */\n  dup3\n    /* \"#utility.yul\":4249:4253   */\n  dup6\n    /* \"#utility.yul\":4203:4270   */\n  tag_33\n  jump\t// in\ntag_93:\n    /* \"#utility.yul\":4297:4298   */\n  0x00\n    /* \"#utility.yul\":4321:4325   */\n  0x20\n    /* \"#utility.yul\":4308:4325   */\n  swap1\n  pop\n    /* \"#utility.yul\":4353:4355   */\n  0x1f\n    /* \"#utility.yul\":4345:4351   */\n  dup4\n    /* \"#utility.yul\":4342:4356   */\n  gt\n    /* \"#utility.yul\":4370:4371   */\n  0x01\n    /* \"#utility.yul\":4365:4983   */\n  dup2\n  eq\n  tag_95\n  jumpi\n    /* \"#utility.yul\":5027:5028   */\n  0x00\n    /* \"#utility.yul\":5044:5050   */\n  dup5\n    /* \"#utility.yul\":5041:5118   */\n  iszero\n  tag_96\n  jumpi\n    /* \"#utility.yul\":5093:5102   */\n  dup3\n    /* \"#utility.yul\":5088:5091   */\n  dup8\n    /* \"#utility.yul\":5084:5103   */\n  add\n    /* \"#utility.yul\":5078:5104   */\n  mload\n    /* \"#utility.yul\":5069:5104   */\n  swap1\n  pop\n    /* \"#utility.yul\":5041:5118   */\ntag_96:\n    /* \"#utility.yul\":5144:5211   */\n  tag_97\n    /* \"#utility.yul\":5204:5210   */\n  dup6\n    /* \"#utility.yul\":5197:5202   */\n  dup3\n    /* \"#utility.yul\":5144:5211   */\n  tag_36\n  jump\t// in\ntag_97:\n    /* \"#utility.yul\":5138:5142   */\n  dup7\n    /* \"#utility.yul\":5131:5212   */\n  sstore\n    /* \"#utility.yul\":5000:5222   */\n  pop\n    /* \"#utility.yul\":4335:5222   */\n  jump(tag_94)\n    /* \"#utility.yul\":4365:4983   */\ntag_95:\n    /* \"#utility.yul\":4417:4421   */\n  0x1f\n    /* \"#utility.yul\":4413:4422   */\n  not\n    /* \"#utility.yul\":4405:4411   */\n  dup5\n    /* \"#utility.yul\":4401:4423   */\n  and\n    /* \"#utility.yul\":4451:4488   */\n  tag_98\n    /* \"#utility.yul\":4483:4487   */\n  dup7\n    /* \"#utility.yul\":4451:4488   */\n  tag_21\n  jump\t// in\ntag_98:\n    /* \"#utility.yul\":4510:4511   */\n  0x00\n    /* \"#utility.yul\":4524:4732   */\ntag_99:\n    /* \"#utility.yul\":4538:4545   */\n  dup3\n    /* \"#utility.yul\":4535:4536   */\n  dup2\n    /* \"#utility.yul\":4532:4546   */\n  lt\n    /* \"#utility.yul\":4524:4732   */\n  iszero\n  tag_101\n  jumpi\n    /* \"#utility.yul\":4617:4626   */\n  dup5\n    /* \"#utility.yul\":4612:4615   */\n  dup10\n    /* \"#utility.yul\":4608:4627   */\n  add\n    /* \"#utility.yul\":4602:4628   */\n  mload\n    /* \"#utility.yul\":4594:4600   */\n  dup3\n    /* \"#utility.yul\":4587:4629   */\n  sstore\n    /* \"#utility.yul\":4668:4669   */\n  0x01\n    /* \"#utility.yul\":4660:4666   */\n  dup3\n    /* \"#utility.yul\":4656:4670   */\n  add\n    /* \"#utility.yul\":4646:4670   */\n  swap2\n  pop\n    /* \"#utility.yul\":4715:4717   */\n  0x20\n    /* \"#utility.yul\":4704:4713   */\n  dup6\n    /* \"#utility.yul\":4700:4718   */\n  add\n    /* \"#utility.yul\":4687:4718   */\n  swap5\n  pop\n    /* \"#utility.yul\":4561:4565   */\n  0x20\n    /* \"#utility.yul\":4558:4559   */\n  dup2\n    /* \"#utility.yul\":4554:4566   */\n  add\n    /* \"#utility.yul\":4549:4566   */\n  swap1\n  pop\n    /* \"#utility.yul\":4524:4732   */\n  jump(tag_99)\ntag_101:\n    /* \"#utility.yul\":4760:4766   */\n  dup7\n    /* \"#utility.yul\":4751:4758   */\n  dup4\n    /* \"#utility.yul\":4748:4767   */\n  lt\n    /* \"#utility.yul\":4745:4924   */\n  iszero\n  tag_102\n  jumpi\n    /* \"#utility.yul\":4818:4827   */\n  dup5\n    /* \"#utility.yul\":4813:4816   */\n  dup10\n    /* \"#utility.yul\":4809:4828   */\n  add\n    /* \"#utility.yul\":4803:4829   */\n  mload\n    /* \"#utility.yul\":4861:4909   */\n  tag_103\n    /* \"#utility.yul\":4903:4907   */\n  0x1f\n    /* \"#utility.yul\":4895:4901   */\n  dup10\n    /* \"#utility.yul\":4891:4908   */\n  and\n    /* \"#utility.yul\":4880:4889   */\n  dup3\n    /* \"#utility.yul\":4861:4909   */\n  tag_35\n  jump\t// in\ntag_103:\n    /* \"#utility.yul\":4853:4859   */\n  dup4\n    /* \"#utility.yul\":4846:4910   */\n  sstore\n    /* \"#utility.yul\":4768:4924   */\n  pop\n    /* \"#utility.yul\":4745:4924   */\ntag_102:\n    /* \"#utility.yul\":4970:4971   */\n  0x01\n    /* \"#utility.yul\":4966:4967   */\n  0x02\n    /* \"#utility.yul\":4958:4964   */\n  dup9\n    /* \"#utility.yul\":4954:4968   */\n  mul\n    /* \"#utility.yul\":4950:4972   */\n  add\n    /* \"#utility.yul\":4944:4948   */\n  dup9\n    /* \"#utility.yul\":4937:4973   */\n  sstore\n    /* \"#utility.yul\":4372:4983   */\n  pop\n  pop\n  pop\n    /* \"#utility.yul\":4335:5222   */\ntag_94:\n  pop\n    /* \"#utility.yul\":3925:5228   */\n  pop\n  pop\n  pop\n    /* \"#utility.yul\":3833:5228   */\n  pop\n  pop\n  jump\t// out\n    /* \"#utility.yul\":5234:5360   */\ntag_37:\n    /* \"#utility.yul\":5271:5278   */\n  0x00\n    /* \"#utility.yul\":5311:5353   */\n  0xffffffffffffffffffffffffffffffffffffffff\n    /* \"#utility.yul\":5304:5309   */\n  dup3\n    /* \"#utility.yul\":5300:5354   */\n  and\n    /* \"#utility.yul\":5289:5354   */\n  swap1\n  pop\n    /* \"#utility.yul\":5234:5360   */\n  swap2\n  swap1\n  pop\n  jump\t// out\n    /* \"#utility.yul\":5366:5462   */\ntag_38:\n    /* \"#utility.yul\":5403:5410   */\n  0x00\n    /* \"#utility.yul\":5432:5456   */\n  tag_106\n    /* \"#utility.yul\":5450:5455   */\n  dup3\n    /* \"#utility.yul\":5432:5456   */\n  tag_37\n  jump\t// in\ntag_106:\n    /* \"#utility.yul\":5421:5456   */\n  swap1\n  pop\n    /* \"#utility.yul\":5366:5462   */\n  swap2\n  swap1\n  pop\n  jump\t// out\n    /* \"#utility.yul\":5468:5586   */\ntag_39:\n    /* \"#utility.yul\":5555:5579   */\n  tag_108\n    /* \"#utility.yul\":5573:5578   */\n  dup2\n    /* \"#utility.yul\":5555:5579   */\n  tag_38\n  jump\t// in\ntag_108:\n    /* \"#utility.yul\":5550:5553   */\n  dup3\n    /* \"#utility.yul\":5543:5580   */\n  mstore\n    /* \"#utility.yul\":5468:5586   */\n  pop\n  pop\n  jump\t// out\n    /* \"#utility.yul\":5592:5814   */\ntag_9:\n    /* \"#utility.yul\":5685:5689   */\n  0x00\n    /* \"#utility.yul\":5723:5725   */\n  0x20\n    /* \"#utility.yul\":5712:5721   */\n  dup3\n    /* \"#utility.yul\":5708:5726   */\n  add\n    /* \"#utility.yul\":5700:5726   */\n  swap1\n  pop\n    /* \"#utility.yul\":5736:5807   */\n  tag_110\n    /* \"#utility.yul\":5804:5805   */\n  0x00\n    /* \"#utility.yul\":5793:5802   */\n  dup4\n    /* \"#utility.yul\":5789:5806   */\n  add\n    /* \"#utility.yul\":5780:5786   */\n  dup5\n    /* \"#utility.yul\":5736:5807   */\n  tag_39\n  jump\t// in\ntag_110:\n    /* \"#utility.yul\":5592:5814   */\n  swap3\n  swap2\n  pop\n  pop\n  jump\t// out\n    /* \"#utility.yul\":5820:5989   */\ntag_40:\n    /* \"#utility.yul\":5904:5915   */\n  0x00\n    /* \"#utility.yul\":5938:5944   */\n  dup3\n    /* \"#utility.yul\":5933:5936   */\n  dup3\n    /* \"#utility.yul\":5926:5945   */\n  mstore\n    /* \"#utility.yul\":5978:5982   */\n  0x20\n    /* \"#utility.yul\":5973:5976   */\n  dup3\n    /* \"#utility.yul\":5969:5983   */\n  add\n    /* \"#utility.yul\":5954:5983   */\n  swap1\n  pop\n    /* \"#utility.yul\":5820:5989   */\n  swap3\n  swap2\n  pop\n  pop\n  jump\t// out\n    /* \"#utility.yul\":6019:6850   */\ntag_41:\n    /* \"#utility.yul\":6104:6107   */\n  0x00\n    /* \"#utility.yul\":6141:6146   */\n  dup2\n    /* \"#utility.yul\":6135:6147   */\n  sload\n    /* \"#utility.yul\":6170:6206   */\n  tag_113\n    /* \"#utility.yul\":6196:6205   */\n  dup2\n    /* \"#utility.yul\":6170:6206   */\n  tag_20\n  jump\t// in\ntag_113:\n    /* \"#utility.yul\":6222:6293   */\n  tag_114\n    /* \"#utility.yul\":6286:6292   */\n  dup2\n    /* \"#utility.yul\":6281:6284   */\n  dup7\n    /* \"#utility.yul\":6222:6293   */\n  tag_40\n  jump\t// in\ntag_114:\n    /* \"#utility.yul\":6215:6293   */\n  swap5\n  pop\n    /* \"#utility.yul\":6324:6325   */\n  0x01\n    /* \"#utility.yul\":6313:6322   */\n  dup3\n    /* \"#utility.yul\":6309:6326   */\n  and\n    /* \"#utility.yul\":6340:6341   */\n  0x00\n    /* \"#utility.yul\":6335:6499   */\n  dup2\n  eq\n  tag_116\n  jumpi\n    /* \"#utility.yul\":6513:6514   */\n  0x01\n    /* \"#utility.yul\":6508:6844   */\n  dup2\n  eq\n  tag_117\n  jumpi\n    /* \"#utility.yul\":6302:6844   */\n  jump(tag_115)\n    /* \"#utility.yul\":6335:6499   */\ntag_116:\n    /* \"#utility.yul\":6419:6423   */\n  0xff\n    /* \"#utility.yul\":6415:6424   */\n  not\n    /* \"#utility.yul\":6404:6413   */\n  dup4\n    /* \"#utility.yul\":6400:6425   */\n  and\n    /* \"#utility.yul\":6395:6398   */\n  dup7\n    /* \"#utility.yul\":6388:6426   */\n  mstore\n    /* \"#utility.yul\":6479:6485   */\n  dup2\n    /* \"#utility.yul\":6472:6486   */\n  iszero\n    /* \"#utility.yul\":6465:6487   */\n  iszero\n    /* \"#utility.yul\":6459:6463   */\n  0x20\n    /* \"#utility.yul\":6455:6488   */\n  mul\n    /* \"#utility.yul\":6450:6453   */\n  dup7\n    /* \"#utility.yul\":6446:6489   */\n  add\n    /* \"#utility.yul\":6439:6489   */\n  swap4\n  pop\n    /* \"#utility.yul\":6335:6499   */\n  jump(tag_115)\n    /* \"#utility.yul\":6508:6844   */\ntag_117:\n    /* \"#utility.yul\":6575:6613   */\n  tag_118\n    /* \"#utility.yul\":6607:6612   */\n  dup6\n    /* \"#utility.yul\":6575:6613   */\n  tag_21\n  jump\t// in\ntag_118:\n    /* \"#utility.yul\":6635:6636   */\n  0x00\n    /* \"#utility.yul\":6649:6803   */\ntag_119:\n    /* \"#utility.yul\":6663:6669   */\n  dup4\n    /* \"#utility.yul\":6660:6661   */\n  dup2\n    /* \"#utility.yul\":6657:6670   */\n  lt\n    /* \"#utility.yul\":6649:6803   */\n  iszero\n  tag_121\n  jumpi\n    /* \"#utility.yul\":6737:6744   */\n  dup2\n    /* \"#utility.yul\":6731:6745   */\n  sload\n    /* \"#utility.yul\":6727:6728   */\n  dup2\n    /* \"#utility.yul\":6722:6725   */\n  dup10\n    /* \"#utility.yul\":6718:6729   */\n  add\n    /* \"#utility.yul\":6711:6746   */\n  mstore\n    /* \"#utility.yul\":6787:6788   */\n  0x01\n    /* \"#utility.yul\":6778:6785   */\n  dup3\n    /* \"#utility.yul\":6774:6789   */\n  add\n    /* \"#utility.yul\":6763:6789   */\n  swap2\n  pop\n    /* \"#utility.yul\":6685:6689   */\n  0x20\n    /* \"#utility.yul\":6682:6683   */\n  dup2\n    /* \"#utility.yul\":6678:6690   */\n  add\n    /* \"#utility.yul\":6673:6690   */\n  swap1\n  pop\n    /* \"#utility.yul\":6649:6803   */\n  jump(tag_119)\ntag_121:\n    /* \"#utility.yul\":6832:6833   */\n  dup1\n    /* \"#utility.yul\":6827:6830   */\n  dup9\n    /* \"#utility.yul\":6823:6834   */\n  add\n    /* \"#utility.yul\":6816:6834   */\n  swap6\n  pop\n    /* \"#utility.yul\":6515:6844   */\n  pop\n  pop\n    /* \"#utility.yul\":6302:6844   */\ntag_115:\n  pop\n    /* \"#utility.yul\":6108:6850   */\n  pop\n  pop\n    /* \"#utility.yul\":6019:6850   */\n  swap3\n  swap2\n  pop\n  pop\n  jump\t// out\n    /* \"#utility.yul\":6856:7163   */\ntag_14:\n    /* \"#utility.yul\":6966:6970   */\n  0x00\n    /* \"#utility.yul\":7004:7006   */\n  0x20\n    /* \"#utility.yul\":6993:7002   */\n  dup3\n    /* \"#utility.yul\":6989:7007   */\n  add\n    /* \"#utility.yul\":6981:7007   */\n  swap1\n  pop\n    /* \"#utility.yul\":7053:7062   */\n  dup2\n    /* \"#utility.yul\":7047:7051   */\n  dup2\n    /* \"#utility.yul\":7043:7063   */\n  sub\n    /* \"#utility.yul\":7039:7040   */\n  0x00\n    /* \"#utility.yul\":7028:7037   */\n  dup4\n    /* \"#utility.yul\":7024:7041   */\n  add\n    /* \"#utility.yul\":7017:7064   */\n  mstore\n    /* \"#utility.yul\":7081:7156   */\n  tag_123\n    /* \"#utility.yul\":7151:7155   */\n  dup2\n    /* \"#utility.yul\":7142:7148   */\n  dup5\n    /* \"#utility.yul\":7081:7156   */\n  tag_41\n  jump\t// in\ntag_123:\n    /* \"#utility.yul\":7073:7156   */\n  swap1\n  pop\n    /* \"#utility.yul\":6856:7163   */\n  swap3\n  swap2\n  pop\n  pop\n  jump\t// out\n    /* \"src/_Recommend.sol\":405:3093  contract _Recommend is Ownable, ReentrancyGuard {... */\ntag_15:\n  dataSize(sub_0)\n  dup1\n  dataOffset(sub_0)\n  0x00\n  codecopy\n  0x00\n  return\nstop\n\nsub_0: assembly {\n        /* \"src/_Recommend.sol\":405:3093  contract _Recommend is Ownable, ReentrancyGuard {... */\n      mstore(0x40, 0x80)\n      jumpi(tag_1, lt(calldatasize, 0x04))\n      shr(0xe0, calldataload(0x00))\n      dup1\n      0x8da5cb5b\n      gt\n      tag_16\n      jumpi\n      dup1\n      0xe44cec7c\n      gt\n      tag_17\n      jumpi\n      dup1\n      0xe44cec7c\n      eq\n      tag_12\n      jumpi\n      dup1\n      0xf2fde38b\n      eq\n      tag_13\n      jumpi\n      dup1\n      0xf54b893b\n      eq\n      tag_14\n      jumpi\n      dup1\n      0xf8b1cb3c\n      eq\n      tag_15\n      jumpi\n      jump(tag_2)\n    tag_17:\n      dup1\n      0x8da5cb5b\n      eq\n      tag_9\n      jumpi\n      dup1\n      0xb43e6a53\n      eq\n      tag_10\n      jumpi\n      dup1\n      0xdf0f0951\n      eq\n      tag_11\n      jumpi\n      jump(tag_2)\n    tag_16:\n      dup1\n      0x099a04e5\n      eq\n      tag_3\n      jumpi\n      dup1\n      0x24d7806c\n      eq\n      tag_4\n      jumpi\n      dup1\n      0x30710d04\n      eq\n      tag_5\n      jumpi\n      dup1\n      0x48c54b9d\n      eq\n      tag_6\n      jumpi\n      dup1\n      0x4b0bddd2\n      eq\n      tag_7\n      jumpi\n      dup1\n      0x715018a6\n      eq\n      tag_8\n      jumpi\n      jump(tag_2)\n    tag_1:\n      jumpi(tag_2, calldatasize)\n      stop\n    tag_2:\n      0x00\n      dup1\n      revert\n        /* \"src/_Recommend.sol\":1606:1781  function rescueETH(address _to, uint256 _value) external {... */\n    tag_3:\n      callvalue\n      dup1\n      iszero\n      tag_20\n      jumpi\n      0x00\n      dup1\n      revert\n    tag_20:\n      pop\n      tag_21\n      0x04\n      dup1\n      calldatasize\n      sub\n      dup2\n      add\n      swap1\n      tag_22\n      swap2\n      swap1\n      tag_23\n      jump\t// in\n    tag_22:\n      tag_24\n      jump\t// in\n    tag_21:\n      stop\n        /* \"src/_Recommend.sol\":717:756  mapping(address => bool) public isAdmin */\n    tag_4:\n      callvalue\n      dup1\n      iszero\n      tag_25\n      jumpi\n      0x00\n      dup1\n      revert\n    tag_25:\n      pop\n      tag_26\n      0x04\n      dup1\n      calldatasize\n      sub\n      dup2\n      add\n      swap1\n      tag_27\n      swap2\n      swap1\n      tag_28\n      jump\t// in\n    tag_27:\n      tag_29\n      jump\t// in\n    tag_26:\n      mload(0x40)\n      tag_30\n      swap2\n      swap1\n      tag_31\n      jump\t// in\n    tag_30:\n      mload(0x40)\n      dup1\n      swap2\n      sub\n      swap1\n      return\n        /* \"src/_Recommend.sol\":1924:2050  function setRecommendAmount(uint256 _recommendAmount) external onlyOwner {... */\n    tag_5:\n      callvalue\n      dup1\n      iszero\n      tag_32\n      jumpi\n      0x00\n      dup1\n      revert\n    tag_32:\n      pop\n      tag_33\n      0x04\n      dup1\n      calldatasize\n      sub\n      dup2\n      add\n      swap1\n      tag_34\n      swap2\n      swap1\n      tag_35\n      jump\t// in\n    tag_34:\n      tag_36\n      jump\t// in\n    tag_33:\n      stop\n        /* \"src/_Recommend.sol\":2603:3090  function claimTokens() external nonReentrant {... */\n    tag_6:\n      callvalue\n      dup1\n      iszero\n      tag_37\n      jumpi\n      0x00\n      dup1\n      revert\n    tag_37:\n      pop\n      tag_38\n      tag_39\n      jump\t// in\n    tag_38:\n      stop\n        /* \"src/_Recommend.sol\":1442:1598  function setAdmin(address _admin, bool _status) external {... */\n    tag_7:\n      callvalue\n      dup1\n      iszero\n      tag_40\n      jumpi\n      0x00\n      dup1\n      revert\n    tag_40:\n      pop\n      tag_41\n      0x04\n      dup1\n      calldatasize\n      sub\n      dup2\n      add\n      swap1\n      tag_42\n      swap2\n      swap1\n      tag_43\n      jump\t// in\n    tag_42:\n      tag_44\n      jump\t// in\n    tag_41:\n      stop\n        /* \"lib/openzeppelin-contracts/contracts/access/Ownable.sol\":2292:2393  function renounceOwnership() public virtual onlyOwner {... */\n    tag_8:\n      callvalue\n      dup1\n      iszero\n      tag_45\n      jumpi\n      0x00\n      dup1\n      revert\n    tag_45:\n      pop\n      tag_46\n      tag_47\n      jump\t// in\n    tag_46:\n      stop\n        /* \"lib/openzeppelin-contracts/contracts/access/Ownable.sol\":1637:1722  function owner() public view virtual returns (address) {... */\n    tag_9:\n      callvalue\n      dup1\n      iszero\n      tag_48\n      jumpi\n      0x00\n      dup1\n      revert\n    tag_48:\n      pop\n      tag_49\n      tag_50\n      jump\t// in\n    tag_49:\n      mload(0x40)\n      tag_51\n      swap2\n      swap1\n      tag_52\n      jump\t// in\n    tag_51:\n      mload(0x40)\n      dup1\n      swap2\n      sub\n      swap1\n      return\n        /* \"src/_Recommend.sol\":2251:2501  function setClaimableTokens(address referrer, uint256 amount) external payable {... */\n    tag_10:\n      tag_53\n      0x04\n      dup1\n      calldatasize\n      sub\n      dup2\n      add\n      swap1\n      tag_54\n      swap2\n      swap1\n      tag_23\n      jump\t// in\n    tag_54:\n      tag_55\n      jump\t// in\n    tag_53:\n      stop\n        /* \"src/_Recommend.sol\":605:654  mapping(address => uint256) public obtainedAmount */\n    tag_11:\n      callvalue\n      dup1\n      iszero\n      tag_56\n      jumpi\n      0x00\n      dup1\n      revert\n    tag_56:\n      pop\n      tag_57\n      0x04\n      dup1\n      calldatasize\n      sub\n      dup2\n      add\n      swap1\n      tag_58\n      swap2\n      swap1\n      tag_28\n      jump\t// in\n    tag_58:\n      tag_59\n      jump\t// in\n    tag_57:\n      mload(0x40)\n      tag_60\n      swap2\n      swap1\n      tag_61\n      jump\t// in\n    tag_60:\n      mload(0x40)\n      dup1\n      swap2\n      sub\n      swap1\n      return\n        /* \"src/_Recommend.sol\":763:797  uint256 public recommendAmount = 2 */\n    tag_12:\n      callvalue\n      dup1\n      iszero\n      tag_62\n      jumpi\n      0x00\n      dup1\n      revert\n    tag_62:\n      pop\n      tag_63\n      tag_64\n      jump\t// in\n    tag_63:\n      mload(0x40)\n      tag_65\n      swap2\n      swap1\n      tag_61\n      jump\t// in\n    tag_65:\n      mload(0x40)\n      dup1\n      swap2\n      sub\n      swap1\n      return\n        /* \"lib/openzeppelin-contracts/contracts/access/Ownable.sol\":2542:2757  function transferOwnership(address newOwner) public virtual onlyOwner {... */\n    tag_13:\n      callvalue\n      dup1\n      iszero\n      tag_66\n      jumpi\n      0x00\n      dup1\n      revert\n    tag_66:\n      pop\n      tag_67\n      0x04\n      dup1\n      calldatasize\n      sub\n      dup2\n      add\n      swap1\n      tag_68\n      swap2\n      swap1\n      tag_28\n      jump\t// in\n    tag_68:\n      tag_69\n      jump\t// in\n    tag_67:\n      stop\n        /* \"src/_Recommend.sol\":661:710  mapping(address => uint256) public alreadyClaimed */\n    tag_14:\n      callvalue\n      dup1\n      iszero\n      tag_70\n      jumpi\n      0x00\n      dup1\n      revert\n    tag_70:\n      pop\n      tag_71\n      0x04\n      dup1\n      calldatasize\n      sub\n      dup2\n      add\n      swap1\n      tag_72\n      swap2\n      swap1\n      tag_28\n      jump\t// in\n    tag_72:\n      tag_73\n      jump\t// in\n    tag_71:\n      mload(0x40)\n      tag_74\n      swap2\n      swap1\n      tag_61\n      jump\t// in\n    tag_74:\n      mload(0x40)\n      dup1\n      swap2\n      sub\n      swap1\n      return\n        /* \"src/_Recommend.sol\":806:838  string public versions = \"1.0.0\" */\n    tag_15:\n      callvalue\n      dup1\n      iszero\n      tag_75\n      jumpi\n      0x00\n      dup1\n      revert\n    tag_75:\n      pop\n      tag_76\n      tag_77\n      jump\t// in\n    tag_76:\n      mload(0x40)\n      tag_78\n      swap2\n      swap1\n      tag_79\n      jump\t// in\n    tag_78:\n      mload(0x40)\n      dup1\n      swap2\n      sub\n      swap1\n      return\n        /* \"src/_Recommend.sol\":1606:1781  function rescueETH(address _to, uint256 _value) external {... */\n    tag_24:\n        /* \"src/_Recommend.sol\":1692:1699  owner() */\n      tag_81\n        /* \"src/_Recommend.sol\":1692:1697  owner */\n      tag_50\n        /* \"src/_Recommend.sol\":1692:1699  owner() */\n      jump\t// in\n    tag_81:\n        /* \"src/_Recommend.sol\":1678:1699  msg.sender != owner() */\n      0xffffffffffffffffffffffffffffffffffffffff\n      and\n        /* \"src/_Recommend.sol\":1678:1688  msg.sender */\n      caller\n        /* \"src/_Recommend.sol\":1678:1699  msg.sender != owner() */\n      0xffffffffffffffffffffffffffffffffffffffff\n      and\n      eq\n        /* \"src/_Recommend.sol\":1674:1718  if (msg.sender != owner()) revert _NoOwner() */\n      tag_82\n      jumpi\n        /* \"src/_Recommend.sol\":1708:1718  _NoOwner() */\n      mload(0x40)\n      0xad9cd75900000000000000000000000000000000000000000000000000000000\n      dup2\n      mstore\n      0x04\n      add\n      mload(0x40)\n      dup1\n      swap2\n      sub\n      swap1\n      revert\n        /* \"src/_Recommend.sol\":1674:1718  if (msg.sender != owner()) revert _NoOwner() */\n    tag_82:\n        /* \"src/_Recommend.sol\":1729:1773  SafeTransferLib.safeTransferETH(_to, _value) */\n      tag_83\n        /* \"src/_Recommend.sol\":1761:1764  _to */\n      dup3\n        /* \"src/_Recommend.sol\":1766:1772  _value */\n      dup3\n        /* \"src/_Recommend.sol\":1729:1760  SafeTransferLib.safeTransferETH */\n      tag_84\n        /* \"src/_Recommend.sol\":1729:1773  SafeTransferLib.safeTransferETH(_to, _value) */\n      jump\t// in\n    tag_83:\n        /* \"src/_Recommend.sol\":1606:1781  function rescueETH(address _to, uint256 _value) external {... */\n      pop\n      pop\n      jump\t// out\n        /* \"src/_Recommend.sol\":717:756  mapping(address => bool) public isAdmin */\n    tag_29:\n      mstore(0x20, 0x04)\n      dup1\n      0x00\n      mstore\n      keccak256(0x00, 0x40)\n      0x00\n      swap2\n      pop\n      sload\n      swap1\n      0x0100\n      exp\n      swap1\n      div\n      0xff\n      and\n      dup2\n      jump\t// out\n        /* \"src/_Recommend.sol\":1924:2050  function setRecommendAmount(uint256 _recommendAmount) external onlyOwner {... */\n    tag_36:\n        /* \"lib/openzeppelin-contracts/contracts/access/Ownable.sol\":1530:1543  _checkOwner() */\n      tag_86\n        /* \"lib/openzeppelin-contracts/contracts/access/Ownable.sol\":1530:1541  _checkOwner */\n      tag_87\n        /* \"lib/openzeppelin-contracts/contracts/access/Ownable.sol\":1530:1543  _checkOwner() */\n      jump\t// in\n    tag_86:\n        /* \"src/_Recommend.sol\":2026:2042  _recommendAmount */\n      dup1\n        /* \"src/_Recommend.sol\":2008:2023  recommendAmount */\n      0x05\n        /* \"src/_Recommend.sol\":2008:2042  recommendAmount = _recommendAmount */\n      dup2\n      swap1\n      sstore\n      pop\n        /* \"src/_Recommend.sol\":1924:2050  function setRecommendAmount(uint256 _recommendAmount) external onlyOwner {... */\n      pop\n      jump\t// out\n        /* \"src/_Recommend.sol\":2603:3090  function claimTokens() external nonReentrant {... */\n    tag_39:\n        /* \"lib/solady-main/src/utils/ReentrancyGuard.sol\":522:523  1 */\n      0x01\n        /* \"lib/solady-main/src/utils/ReentrancyGuard.sol\":512:518  locked */\n      dup1\n      sload\n        /* \"lib/solady-main/src/utils/ReentrancyGuard.sol\":512:523  locked == 1 */\n      eq\n        /* \"lib/solady-main/src/utils/ReentrancyGuard.sol\":504:538  require(locked == 1, \"REENTRANCY\") */\n      tag_90\n      jumpi\n      mload(0x40)\n      0x08c379a000000000000000000000000000000000000000000000000000000000\n      dup2\n      mstore\n      0x04\n      add\n      tag_91\n      swap1\n      tag_92\n      jump\t// in\n    tag_91:\n      mload(0x40)\n      dup1\n      swap2\n      sub\n      swap1\n      revert\n    tag_90:\n        /* \"lib/solady-main/src/utils/ReentrancyGuard.sol\":558:559  2 */\n      0x02\n        /* \"lib/solady-main/src/utils/ReentrancyGuard.sol\":549:555  locked */\n      0x01\n        /* \"lib/solady-main/src/utils/ReentrancyGuard.sol\":549:559  locked = 2 */\n      dup2\n      swap1\n      sstore\n      pop\n        /* \"src/_Recommend.sol\":2676:2686  msg.sender */\n      caller\n        /* \"src/_Recommend.sol\":2663:2686  tx.origin != msg.sender */\n      0xffffffffffffffffffffffffffffffffffffffff\n      and\n        /* \"src/_Recommend.sol\":2663:2672  tx.origin */\n      origin\n        /* \"src/_Recommend.sol\":2663:2686  tx.origin != msg.sender */\n      0xffffffffffffffffffffffffffffffffffffffff\n      and\n      eq\n        /* \"src/_Recommend.sol\":2659:2710  if (tx.origin != msg.sender) revert _CallerNotEOA() */\n      tag_94\n      jumpi\n        /* \"src/_Recommend.sol\":2695:2710  _CallerNotEOA() */\n      mload(0x40)\n      0x3691d20a00000000000000000000000000000000000000000000000000000000\n      dup2\n      mstore\n      0x04\n      add\n      mload(0x40)\n      dup1\n      swap2\n      sub\n      swap1\n      revert\n        /* \"src/_Recommend.sol\":2659:2710  if (tx.origin != msg.sender) revert _CallerNotEOA() */\n    tag_94:\n        /* \"src/_Recommend.sol\":2721:2735  uint256 amount */\n      0x00\n        /* \"src/_Recommend.sol\":2767:2781  alreadyClaimed */\n      0x03\n        /* \"src/_Recommend.sol\":2767:2793  alreadyClaimed[msg.sender] */\n      0x00\n        /* \"src/_Recommend.sol\":2782:2792  msg.sender */\n      caller\n        /* \"src/_Recommend.sol\":2767:2793  alreadyClaimed[msg.sender] */\n      0xffffffffffffffffffffffffffffffffffffffff\n      and\n      0xffffffffffffffffffffffffffffffffffffffff\n      and\n      dup2\n      mstore\n      0x20\n      add\n      swap1\n      dup2\n      mstore\n      0x20\n      add\n      0x00\n      keccak256\n      sload\n        /* \"src/_Recommend.sol\":2738:2752  obtainedAmount */\n      0x02\n        /* \"src/_Recommend.sol\":2738:2764  obtainedAmount[msg.sender] */\n      0x00\n        /* \"src/_Recommend.sol\":2753:2763  msg.sender */\n      caller\n        /* \"src/_Recommend.sol\":2738:2764  obtainedAmount[msg.sender] */\n      0xffffffffffffffffffffffffffffffffffffffff\n      and\n      0xffffffffffffffffffffffffffffffffffffffff\n      and\n      dup2\n      mstore\n      0x20\n      add\n      swap1\n      dup2\n      mstore\n      0x20\n      add\n      0x00\n      keccak256\n      sload\n        /* \"src/_Recommend.sol\":2738:2793  obtainedAmount[msg.sender] - alreadyClaimed[msg.sender] */\n      tag_95\n      swap2\n      swap1\n      tag_96\n      jump\t// in\n    tag_95:\n        /* \"src/_Recommend.sol\":2721:2793  uint256 amount = obtainedAmount[msg.sender] - alreadyClaimed[msg.sender] */\n      swap1\n      pop\n        /* \"src/_Recommend.sol\":2818:2819  0 */\n      0x00\n        /* \"src/_Recommend.sol\":2808:2814  amount */\n      dup2\n        /* \"src/_Recommend.sol\":2808:2819  amount <= 0 */\n      gt\n        /* \"src/_Recommend.sol\":2804:2846  if (amount <= 0) revert _NoTokensToClaim() */\n      tag_97\n      jumpi\n        /* \"src/_Recommend.sol\":2828:2846  _NoTokensToClaim() */\n      mload(0x40)\n      0x6f9c7fcf00000000000000000000000000000000000000000000000000000000\n      dup2\n      mstore\n      0x04\n      add\n      mload(0x40)\n      dup1\n      swap2\n      sub\n      swap1\n      revert\n        /* \"src/_Recommend.sol\":2804:2846  if (amount <= 0) revert _NoTokensToClaim() */\n    tag_97:\n        /* \"src/_Recommend.sol\":2885:2891  amount */\n      dup1\n        /* \"src/_Recommend.sol\":2861:2882  address(this).balance */\n      selfbalance\n        /* \"src/_Recommend.sol\":2861:2891  address(this).balance < amount */\n      lt\n        /* \"src/_Recommend.sol\":2857:2920  if (address(this).balance < amount) revert _NotSufficientFund() */\n      iszero\n      tag_98\n      jumpi\n        /* \"src/_Recommend.sol\":2900:2920  _NotSufficientFund() */\n      mload(0x40)\n      0xabf01a0800000000000000000000000000000000000000000000000000000000\n      dup2\n      mstore\n      0x04\n      add\n      mload(0x40)\n      dup1\n      swap2\n      sub\n      swap1\n      revert\n        /* \"src/_Recommend.sol\":2857:2920  if (address(this).balance < amount) revert _NotSufficientFund() */\n    tag_98:\n        /* \"src/_Recommend.sol\":2963:2969  amount */\n      dup1\n        /* \"src/_Recommend.sol\":2933:2947  alreadyClaimed */\n      0x03\n        /* \"src/_Recommend.sol\":2933:2959  alreadyClaimed[msg.sender] */\n      0x00\n        /* \"src/_Recommend.sol\":2948:2958  msg.sender */\n      caller\n        /* \"src/_Recommend.sol\":2933:2959  alreadyClaimed[msg.sender] */\n      0xffffffffffffffffffffffffffffffffffffffff\n      and\n      0xffffffffffffffffffffffffffffffffffffffff\n      and\n      dup2\n      mstore\n      0x20\n      add\n      swap1\n      dup2\n      mstore\n      0x20\n      add\n      0x00\n      keccak256\n      0x00\n        /* \"src/_Recommend.sol\":2933:2969  alreadyClaimed[msg.sender] += amount */\n      dup3\n      dup3\n      sload\n      tag_99\n      swap2\n      swap1\n      tag_100\n      jump\t// in\n    tag_99:\n      swap3\n      pop\n      pop\n      dup2\n      swap1\n      sstore\n      pop\n        /* \"src/_Recommend.sol\":2980:3031  SafeTransferLib.safeTransferETH(msg.sender, amount) */\n      tag_101\n        /* \"src/_Recommend.sol\":3012:3022  msg.sender */\n      caller\n        /* \"src/_Recommend.sol\":3024:3030  amount */\n      dup3\n        /* \"src/_Recommend.sol\":2980:3011  SafeTransferLib.safeTransferETH */\n      tag_84\n        /* \"src/_Recommend.sol\":2980:3031  SafeTransferLib.safeTransferETH(msg.sender, amount) */\n      jump\t// in\n    tag_101:\n        /* \"src/_Recommend.sol\":3063:3073  msg.sender */\n      caller\n        /* \"src/_Recommend.sol\":3049:3082  TokensClaimed(msg.sender, amount) */\n      0xffffffffffffffffffffffffffffffffffffffff\n      and\n      0x896e034966eaaf1adc54acc0f257056febbd300c9e47182cf761982cf1f5e430\n        /* \"src/_Recommend.sol\":3075:3081  amount */\n      dup3\n        /* \"src/_Recommend.sol\":3049:3082  TokensClaimed(msg.sender, amount) */\n      mload(0x40)\n      tag_102\n      swap2\n      swap1\n      tag_61\n      jump\t// in\n    tag_102:\n      mload(0x40)\n      dup1\n      swap2\n      sub\n      swap1\n      log2\n        /* \"src/_Recommend.sol\":2648:3090  {... */\n      pop\n        /* \"lib/solady-main/src/utils/ReentrancyGuard.sol\":591:592  1 */\n      0x01\n        /* \"lib/solady-main/src/utils/ReentrancyGuard.sol\":582:588  locked */\n      dup1\n        /* \"lib/solady-main/src/utils/ReentrancyGuard.sol\":582:592  locked = 1 */\n      dup2\n      swap1\n      sstore\n      pop\n        /* \"src/_Recommend.sol\":2603:3090  function claimTokens() external nonReentrant {... */\n      jump\t// out\n        /* \"src/_Recommend.sol\":1442:1598  function setAdmin(address _admin, bool _status) external {... */\n    tag_44:\n        /* \"src/_Recommend.sol\":1528:1535  owner() */\n      tag_104\n        /* \"src/_Recommend.sol\":1528:1533  owner */\n      tag_50\n        /* \"src/_Recommend.sol\":1528:1535  owner() */\n      jump\t// in\n    tag_104:\n        /* \"src/_Recommend.sol\":1514:1535  msg.sender != owner() */\n      0xffffffffffffffffffffffffffffffffffffffff\n      and\n        /* \"src/_Recommend.sol\":1514:1524  msg.sender */\n      caller\n        /* \"src/_Recommend.sol\":1514:1535  msg.sender != owner() */\n      0xffffffffffffffffffffffffffffffffffffffff\n      and\n      eq\n        /* \"src/_Recommend.sol\":1510:1554  if (msg.sender != owner()) revert _NoOwner() */\n      tag_105\n      jumpi\n        /* \"src/_Recommend.sol\":1544:1554  _NoOwner() */\n      mload(0x40)\n      0xad9cd75900000000000000000000000000000000000000000000000000000000\n      dup2\n      mstore\n      0x04\n      add\n      mload(0x40)\n      dup1\n      swap2\n      sub\n      swap1\n      revert\n        /* \"src/_Recommend.sol\":1510:1554  if (msg.sender != owner()) revert _NoOwner() */\n    tag_105:\n        /* \"src/_Recommend.sol\":1583:1590  _status */\n      dup1\n        /* \"src/_Recommend.sol\":1565:1572  isAdmin */\n      0x04\n        /* \"src/_Recommend.sol\":1565:1580  isAdmin[_admin] */\n      0x00\n        /* \"src/_Recommend.sol\":1573:1579  _admin */\n      dup5\n        /* \"src/_Recommend.sol\":1565:1580  isAdmin[_admin] */\n      0xffffffffffffffffffffffffffffffffffffffff\n      and\n      0xffffffffffffffffffffffffffffffffffffffff\n      and\n      dup2\n      mstore\n      0x20\n      add\n      swap1\n      dup2\n      mstore\n      0x20\n      add\n      0x00\n      keccak256\n      0x00\n        /* \"src/_Recommend.sol\":1565:1590  isAdmin[_admin] = _status */\n      0x0100\n      exp\n      dup2\n      sload\n      dup2\n      0xff\n      mul\n      not\n      and\n      swap1\n      dup4\n      iszero\n      iszero\n      mul\n      or\n      swap1\n      sstore\n      pop\n        /* \"src/_Recommend.sol\":1442:1598  function setAdmin(address _admin, bool _status) external {... */\n      pop\n      pop\n      jump\t// out\n        /* \"lib/openzeppelin-contracts/contracts/access/Ownable.sol\":2292:2393  function renounceOwnership() public virtual onlyOwner {... */\n    tag_47:\n        /* \"lib/openzeppelin-contracts/contracts/access/Ownable.sol\":1530:1543  _checkOwner() */\n      tag_107\n        /* \"lib/openzeppelin-contracts/contracts/access/Ownable.sol\":1530:1541  _checkOwner */\n      tag_87\n        /* \"lib/openzeppelin-contracts/contracts/access/Ownable.sol\":1530:1543  _checkOwner() */\n      jump\t// in\n    tag_107:\n        /* \"lib/openzeppelin-contracts/contracts/access/Ownable.sol\":2356:2386  _transferOwnership(address(0)) */\n      tag_109\n        /* \"lib/openzeppelin-contracts/contracts/access/Ownable.sol\":2383:2384  0 */\n      0x00\n        /* \"lib/openzeppelin-contracts/contracts/access/Ownable.sol\":2356:2374  _transferOwnership */\n      tag_110\n        /* \"lib/openzeppelin-contracts/contracts/access/Ownable.sol\":2356:2386  _transferOwnership(address(0)) */\n      jump\t// in\n    tag_109:\n        /* \"lib/openzeppelin-contracts/contracts/access/Ownable.sol\":2292:2393  function renounceOwnership() public virtual onlyOwner {... */\n      jump\t// out\n        /* \"lib/openzeppelin-contracts/contracts/access/Ownable.sol\":1637:1722  function owner() public view virtual returns (address) {... */\n    tag_50:\n        /* \"lib/openzeppelin-contracts/contracts/access/Ownable.sol\":1683:1690  address */\n      0x00\n        /* \"lib/openzeppelin-contracts/contracts/access/Ownable.sol\":1709:1715  _owner */\n      dup1\n      0x00\n      swap1\n      sload\n      swap1\n      0x0100\n      exp\n      swap1\n      div\n      0xffffffffffffffffffffffffffffffffffffffff\n      and\n        /* \"lib/openzeppelin-contracts/contracts/access/Ownable.sol\":1702:1715  return _owner */\n      swap1\n      pop\n        /* \"lib/openzeppelin-contracts/contracts/access/Ownable.sol\":1637:1722  function owner() public view virtual returns (address) {... */\n      swap1\n      jump\t// out\n        /* \"src/_Recommend.sol\":2251:2501  function setClaimableTokens(address referrer, uint256 amount) external payable {... */\n    tag_55:\n        /* \"src/_Recommend.sol\":2358:2364  amount */\n      dup1\n        /* \"src/_Recommend.sol\":2345:2354  msg.value */\n      callvalue\n        /* \"src/_Recommend.sol\":2345:2364  msg.value != amount */\n      eq\n      iszero\n        /* \"src/_Recommend.sol\":2345:2379  msg.value != amount || amount == 0 */\n      dup1\n      tag_113\n      jumpi\n      pop\n        /* \"src/_Recommend.sol\":2378:2379  0 */\n      0x00\n        /* \"src/_Recommend.sol\":2368:2374  amount */\n      dup2\n        /* \"src/_Recommend.sol\":2368:2379  amount == 0 */\n      eq\n        /* \"src/_Recommend.sol\":2345:2379  msg.value != amount || amount == 0 */\n    tag_113:\n        /* \"src/_Recommend.sol\":2341:2403  if (msg.value != amount || amount == 0) revert _IllegalValue() */\n      iszero\n      tag_114\n      jumpi\n        /* \"src/_Recommend.sol\":2388:2403  _IllegalValue() */\n      mload(0x40)\n      0x2a2bb09200000000000000000000000000000000000000000000000000000000\n      dup2\n      mstore\n      0x04\n      add\n      mload(0x40)\n      dup1\n      swap2\n      sub\n      swap1\n      revert\n        /* \"src/_Recommend.sol\":2341:2403  if (msg.value != amount || amount == 0) revert _IllegalValue() */\n    tag_114:\n        /* \"src/_Recommend.sol\":2442:2448  amount */\n      dup1\n        /* \"src/_Recommend.sol\":2414:2428  obtainedAmount */\n      0x02\n        /* \"src/_Recommend.sol\":2414:2438  obtainedAmount[referrer] */\n      0x00\n        /* \"src/_Recommend.sol\":2429:2437  referrer */\n      dup5\n        /* \"src/_Recommend.sol\":2414:2438  obtainedAmount[referrer] */\n      0xffffffffffffffffffffffffffffffffffffffff\n      and\n      0xffffffffffffffffffffffffffffffffffffffff\n      and\n      dup2\n      mstore\n      0x20\n      add\n      swap1\n      dup2\n      mstore\n      0x20\n      add\n      0x00\n      keccak256\n      0x00\n        /* \"src/_Recommend.sol\":2414:2448  obtainedAmount[referrer] += amount */\n      dup3\n      dup3\n      sload\n      tag_115\n      swap2\n      swap1\n      tag_100\n      jump\t// in\n    tag_115:\n      swap3\n      pop\n      pop\n      dup2\n      swap1\n      sstore\n      pop\n        /* \"src/_Recommend.sol\":2476:2484  referrer */\n      dup2\n        /* \"src/_Recommend.sol\":2466:2493  TokensSet(referrer, amount) */\n      0xffffffffffffffffffffffffffffffffffffffff\n      and\n      0xf3cbbad58a635fe73557a2824874af183b5ac83978ae25d57ea4a2011c4df859\n        /* \"src/_Recommend.sol\":2486:2492  amount */\n      dup3\n        /* \"src/_Recommend.sol\":2466:2493  TokensSet(referrer, amount) */\n      mload(0x40)\n      tag_116\n      swap2\n      swap1\n      tag_61\n      jump\t// in\n    tag_116:\n      mload(0x40)\n      dup1\n      swap2\n      sub\n      swap1\n      log2\n        /* \"src/_Recommend.sol\":2251:2501  function setClaimableTokens(address referrer, uint256 amount) external payable {... */\n      pop\n      pop\n      jump\t// out\n        /* \"src/_Recommend.sol\":605:654  mapping(address => uint256) public obtainedAmount */\n    tag_59:\n      mstore(0x20, 0x02)\n      dup1\n      0x00\n      mstore\n      keccak256(0x00, 0x40)\n      0x00\n      swap2\n      pop\n      swap1\n      pop\n      sload\n      dup2\n      jump\t// out\n        /* \"src/_Recommend.sol\":763:797  uint256 public recommendAmount = 2 */\n    tag_64:\n      sload(0x05)\n      dup2\n      jump\t// out\n        /* \"lib/openzeppelin-contracts/contracts/access/Ownable.sol\":2542:2757  function transferOwnership(address newOwner) public virtual onlyOwner {... */\n    tag_69:\n        /* \"lib/openzeppelin-contracts/contracts/access/Ownable.sol\":1530:1543  _checkOwner() */\n      tag_118\n        /* \"lib/openzeppelin-contracts/contracts/access/Ownable.sol\":1530:1541  _checkOwner */\n      tag_87\n        /* \"lib/openzeppelin-contracts/contracts/access/Ownable.sol\":1530:1543  _checkOwner() */\n      jump\t// in\n    tag_118:\n        /* \"lib/openzeppelin-contracts/contracts/access/Ownable.sol\":2646:2647  0 */\n      0x00\n        /* \"lib/openzeppelin-contracts/contracts/access/Ownable.sol\":2626:2648  newOwner == address(0) */\n      0xffffffffffffffffffffffffffffffffffffffff\n      and\n        /* \"lib/openzeppelin-contracts/contracts/access/Ownable.sol\":2626:2634  newOwner */\n      dup2\n        /* \"lib/openzeppelin-contracts/contracts/access/Ownable.sol\":2626:2648  newOwner == address(0) */\n      0xffffffffffffffffffffffffffffffffffffffff\n      and\n      sub\n        /* \"lib/openzeppelin-contracts/contracts/access/Ownable.sol\":2622:2713  if (newOwner == address(0)) {... */\n      tag_120\n      jumpi\n        /* \"lib/openzeppelin-contracts/contracts/access/Ownable.sol\":2699:2700  0 */\n      0x00\n        /* \"lib/openzeppelin-contracts/contracts/access/Ownable.sol\":2671:2702  OwnableInvalidOwner(address(0)) */\n      mload(0x40)\n      0x1e4fbdf700000000000000000000000000000000000000000000000000000000\n      dup2\n      mstore\n      0x04\n      add\n      tag_121\n      swap2\n      swap1\n      tag_52\n      jump\t// in\n    tag_121:\n      mload(0x40)\n      dup1\n      swap2\n      sub\n      swap1\n      revert\n        /* \"lib/openzeppelin-contracts/contracts/access/Ownable.sol\":2622:2713  if (newOwner == address(0)) {... */\n    tag_120:\n        /* \"lib/openzeppelin-contracts/contracts/access/Ownable.sol\":2722:2750  _transferOwnership(newOwner) */\n      tag_122\n        /* \"lib/openzeppelin-contracts/contracts/access/Ownable.sol\":2741:2749  newOwner */\n      dup2\n        /* \"lib/openzeppelin-contracts/contracts/access/Ownable.sol\":2722:2740  _transferOwnership */\n      tag_110\n        /* \"lib/openzeppelin-contracts/contracts/access/Ownable.sol\":2722:2750  _transferOwnership(newOwner) */\n      jump\t// in\n    tag_122:\n        /* \"lib/openzeppelin-contracts/contracts/access/Ownable.sol\":2542:2757  function transferOwnership(address newOwner) public virtual onlyOwner {... */\n      pop\n      jump\t// out\n        /* \"src/_Recommend.sol\":661:710  mapping(address => uint256) public alreadyClaimed */\n    tag_73:\n      mstore(0x20, 0x03)\n      dup1\n      0x00\n      mstore\n      keccak256(0x00, 0x40)\n      0x00\n      swap2\n      pop\n      swap1\n      pop\n      sload\n      dup2\n      jump\t// out\n        /* \"src/_Recommend.sol\":806:838  string public versions = \"1.0.0\" */\n    tag_77:\n      0x06\n      dup1\n      sload\n      tag_123\n      swap1\n      tag_124\n      jump\t// in\n    tag_123:\n      dup1\n      0x1f\n      add\n      0x20\n      dup1\n      swap2\n      div\n      mul\n      0x20\n      add\n      mload(0x40)\n      swap1\n      dup2\n      add\n      0x40\n      mstore\n      dup1\n      swap3\n      swap2\n      swap1\n      dup2\n      dup2\n      mstore\n      0x20\n      add\n      dup3\n      dup1\n      sload\n      tag_125\n      swap1\n      tag_124\n      jump\t// in\n    tag_125:\n      dup1\n      iszero\n      tag_126\n      jumpi\n      dup1\n      0x1f\n      lt\n      tag_127\n      jumpi\n      0x0100\n      dup1\n      dup4\n      sload\n      div\n      mul\n      dup4\n      mstore\n      swap2\n      0x20\n      add\n      swap2\n      jump(tag_126)\n    tag_127:\n      dup3\n      add\n      swap2\n      swap1\n      0x00\n      mstore\n      keccak256(0x00, 0x20)\n      swap1\n    tag_128:\n      dup2\n      sload\n      dup2\n      mstore\n      swap1\n      0x01\n      add\n      swap1\n      0x20\n      add\n      dup1\n      dup4\n      gt\n      tag_128\n      jumpi\n      dup3\n      swap1\n      sub\n      0x1f\n      and\n      dup3\n      add\n      swap2\n    tag_126:\n      pop\n      pop\n      pop\n      pop\n      pop\n      dup2\n      jump\t// out\n        /* \"lib/solady-main/src/utils/SafeTransferLib.sol\":840:1179  function safeTransferETH(address to, uint256 amount) internal {... */\n    tag_84:\n        /* \"lib/solady-main/src/utils/SafeTransferLib.sol\":912:924  bool success */\n      0x00\n        /* \"lib/solady-main/src/utils/SafeTransferLib.sol\":1111:1112  0 */\n      dup1\n        /* \"lib/solady-main/src/utils/SafeTransferLib.sol\":1108:1109  0 */\n      0x00\n        /* \"lib/solady-main/src/utils/SafeTransferLib.sol\":1105:1106  0 */\n      dup1\n        /* \"lib/solady-main/src/utils/SafeTransferLib.sol\":1102:1103  0 */\n      0x00\n        /* \"lib/solady-main/src/utils/SafeTransferLib.sol\":1094:1100  amount */\n      dup6\n        /* \"lib/solady-main/src/utils/SafeTransferLib.sol\":1090:1092  to */\n      dup8\n        /* \"lib/solady-main/src/utils/SafeTransferLib.sol\":1083:1088  gas() */\n      gas\n        /* \"lib/solady-main/src/utils/SafeTransferLib.sol\":1078:1113  call(gas(), to, amount, 0, 0, 0, 0) */\n      call\n        /* \"lib/solady-main/src/utils/SafeTransferLib.sol\":1067:1113  success := call(gas(), to, amount, 0, 0, 0, 0) */\n      swap1\n      pop\n        /* \"lib/solady-main/src/utils/SafeTransferLib.sol\":1141:1148  success */\n      dup1\n        /* \"lib/solady-main/src/utils/SafeTransferLib.sol\":1133:1172  require(success, \"ETH_TRANSFER_FAILED\") */\n      tag_130\n      jumpi\n      mload(0x40)\n      0x08c379a000000000000000000000000000000000000000000000000000000000\n      dup2\n      mstore\n      0x04\n      add\n      tag_131\n      swap1\n      tag_132\n      jump\t// in\n    tag_131:\n      mload(0x40)\n      dup1\n      swap2\n      sub\n      swap1\n      revert\n    tag_130:\n        /* \"lib/solady-main/src/utils/SafeTransferLib.sol\":902:1179  {... */\n      pop\n        /* \"lib/solady-main/src/utils/SafeTransferLib.sol\":840:1179  function safeTransferETH(address to, uint256 amount) internal {... */\n      pop\n      pop\n      jump\t// out\n        /* \"src/_Recommend.sol\":1205:1434  function _checkOwner() internal view virtual override {... */\n    tag_87:\n        /* \"src/_Recommend.sol\":1270:1284  address sender */\n      0x00\n        /* \"src/_Recommend.sol\":1287:1299  _msgSender() */\n      tag_134\n        /* \"src/_Recommend.sol\":1287:1297  _msgSender */\n      tag_135\n        /* \"src/_Recommend.sol\":1287:1299  _msgSender() */\n      jump\t// in\n    tag_134:\n        /* \"src/_Recommend.sol\":1270:1299  address sender = _msgSender() */\n      swap1\n      pop\n        /* \"src/_Recommend.sol\":1325:1331  sender */\n      dup1\n        /* \"src/_Recommend.sol\":1314:1331  owner() != sender */\n      0xffffffffffffffffffffffffffffffffffffffff\n      and\n        /* \"src/_Recommend.sol\":1314:1321  owner() */\n      tag_136\n        /* \"src/_Recommend.sol\":1314:1319  owner */\n      tag_50\n        /* \"src/_Recommend.sol\":1314:1321  owner() */\n      jump\t// in\n    tag_136:\n        /* \"src/_Recommend.sol\":1314:1331  owner() != sender */\n      0xffffffffffffffffffffffffffffffffffffffff\n      and\n      eq\n      iszero\n        /* \"src/_Recommend.sol\":1314:1351  owner() != sender && !isAdmin[sender] */\n      dup1\n      iszero\n      tag_137\n      jumpi\n      pop\n        /* \"src/_Recommend.sol\":1336:1343  isAdmin */\n      0x04\n        /* \"src/_Recommend.sol\":1336:1351  isAdmin[sender] */\n      0x00\n        /* \"src/_Recommend.sol\":1344:1350  sender */\n      dup3\n        /* \"src/_Recommend.sol\":1336:1351  isAdmin[sender] */\n      0xffffffffffffffffffffffffffffffffffffffff\n      and\n      0xffffffffffffffffffffffffffffffffffffffff\n      and\n      dup2\n      mstore\n      0x20\n      add\n      swap1\n      dup2\n      mstore\n      0x20\n      add\n      0x00\n      keccak256\n      0x00\n      swap1\n      sload\n      swap1\n      0x0100\n      exp\n      swap1\n      div\n      0xff\n      and\n        /* \"src/_Recommend.sol\":1335:1351  !isAdmin[sender] */\n      iszero\n        /* \"src/_Recommend.sol\":1314:1351  owner() != sender && !isAdmin[sender] */\n    tag_137:\n        /* \"src/_Recommend.sol\":1310:1427  if (owner() != sender && !isAdmin[sender]) {... */\n      iszero\n      tag_138\n      jumpi\n        /* \"src/_Recommend.sol\":1402:1414  _msgSender() */\n      tag_139\n        /* \"src/_Recommend.sol\":1402:1412  _msgSender */\n      tag_135\n        /* \"src/_Recommend.sol\":1402:1414  _msgSender() */\n      jump\t// in\n    tag_139:\n        /* \"src/_Recommend.sol\":1375:1415  OwnableUnauthorizedAccount(_msgSender()) */\n      mload(0x40)\n      0x118cdaa700000000000000000000000000000000000000000000000000000000\n      dup2\n      mstore\n      0x04\n      add\n      tag_140\n      swap2\n      swap1\n      tag_52\n      jump\t// in\n    tag_140:\n      mload(0x40)\n      dup1\n      swap2\n      sub\n      swap1\n      revert\n        /* \"src/_Recommend.sol\":1310:1427  if (owner() != sender && !isAdmin[sender]) {... */\n    tag_138:\n        /* \"src/_Recommend.sol\":1259:1434  {... */\n      pop\n        /* \"src/_Recommend.sol\":1205:1434  function _checkOwner() internal view virtual override {... */\n      jump\t// out\n        /* \"lib/openzeppelin-contracts/contracts/access/Ownable.sol\":2911:3098  function _transferOwnership(address newOwner) internal virtual {... */\n    tag_110:\n        /* \"lib/openzeppelin-contracts/contracts/access/Ownable.sol\":2984:3000  address oldOwner */\n      0x00\n        /* \"lib/openzeppelin-contracts/contracts/access/Ownable.sol\":3003:3009  _owner */\n      dup1\n      0x00\n      swap1\n      sload\n      swap1\n      0x0100\n      exp\n      swap1\n      div\n      0xffffffffffffffffffffffffffffffffffffffff\n      and\n        /* \"lib/openzeppelin-contracts/contracts/access/Ownable.sol\":2984:3009  address oldOwner = _owner */\n      swap1\n      pop\n        /* \"lib/openzeppelin-contracts/contracts/access/Ownable.sol\":3028:3036  newOwner */\n      dup2\n        /* \"lib/openzeppelin-contracts/contracts/access/Ownable.sol\":3019:3025  _owner */\n      0x00\n      dup1\n        /* \"lib/openzeppelin-contracts/contracts/access/Ownable.sol\":3019:3036  _owner = newOwner */\n      0x0100\n      exp\n      dup2\n      sload\n      dup2\n      0xffffffffffffffffffffffffffffffffffffffff\n      mul\n      not\n      and\n      swap1\n      dup4\n      0xffffffffffffffffffffffffffffffffffffffff\n      and\n      mul\n      or\n      swap1\n      sstore\n      pop\n        /* \"lib/openzeppelin-contracts/contracts/access/Ownable.sol\":3082:3090  newOwner */\n      dup2\n        /* \"lib/openzeppelin-contracts/contracts/access/Ownable.sol\":3051:3091  OwnershipTransferred(oldOwner, newOwner) */\n      0xffffffffffffffffffffffffffffffffffffffff\n      and\n        /* \"lib/openzeppelin-contracts/contracts/access/Ownable.sol\":3072:3080  oldOwner */\n      dup2\n        /* \"lib/openzeppelin-contracts/contracts/access/Ownable.sol\":3051:3091  OwnershipTransferred(oldOwner, newOwner) */\n      0xffffffffffffffffffffffffffffffffffffffff\n      and\n      0x8be0079c531659141344cd1fd0a4f28419497f9722a3daafe3b4186f6b6457e0\n      mload(0x40)\n      mload(0x40)\n      dup1\n      swap2\n      sub\n      swap1\n      log3\n        /* \"lib/openzeppelin-contracts/contracts/access/Ownable.sol\":2974:3098  {... */\n      pop\n        /* \"lib/openzeppelin-contracts/contracts/access/Ownable.sol\":2911:3098  function _transferOwnership(address newOwner) internal virtual {... */\n      pop\n      jump\t// out\n        /* \"lib/openzeppelin-contracts/contracts/utils/Context.sol\":655:751  function _msgSender() internal view virtual returns (address) {... */\n    tag_135:\n        /* \"lib/openzeppelin-contracts/contracts/utils/Context.sol\":708:715  address */\n      0x00\n        /* \"lib/openzeppelin-contracts/contracts/utils/Context.sol\":734:744  msg.sender */\n      caller\n        /* \"lib/openzeppelin-contracts/contracts/utils/Context.sol\":727:744  return msg.sender */\n      swap1\n      pop\n        /* \"lib/openzeppelin-contracts/contracts/utils/Context.sol\":655:751  function _msgSender() internal view virtual returns (address) {... */\n      swap1\n      jump\t// out\n        /* \"#utility.yul\":88:205   */\n    tag_144:\n        /* \"#utility.yul\":197:198   */\n      0x00\n        /* \"#utility.yul\":194:195   */\n      dup1\n        /* \"#utility.yul\":187:199   */\n      revert\n        /* \"#utility.yul\":334:460   */\n    tag_146:\n        /* \"#utility.yul\":371:378   */\n      0x00\n        /* \"#utility.yul\":411:453   */\n      0xffffffffffffffffffffffffffffffffffffffff\n        /* \"#utility.yul\":404:409   */\n      dup3\n        /* \"#utility.yul\":400:454   */\n      and\n        /* \"#utility.yul\":389:454   */\n      swap1\n      pop\n        /* \"#utility.yul\":334:460   */\n      swap2\n      swap1\n      pop\n      jump\t// out\n        /* \"#utility.yul\":466:562   */\n    tag_147:\n        /* \"#utility.yul\":503:510   */\n      0x00\n        /* \"#utility.yul\":532:556   */\n      tag_176\n        /* \"#utility.yul\":550:555   */\n      dup3\n        /* \"#utility.yul\":532:556   */\n      tag_146\n      jump\t// in\n    tag_176:\n        /* \"#utility.yul\":521:556   */\n      swap1\n      pop\n        /* \"#utility.yul\":466:562   */\n      swap2\n      swap1\n      pop\n      jump\t// out\n        /* \"#utility.yul\":568:690   */\n    tag_148:\n        /* \"#utility.yul\":641:665   */\n      tag_178\n        /* \"#utility.yul\":659:664   */\n      dup2\n        /* \"#utility.yul\":641:665   */\n      tag_147\n      jump\t// in\n    tag_178:\n        /* \"#utility.yul\":634:639   */\n      dup2\n        /* \"#utility.yul\":631:666   */\n      eq\n        /* \"#utility.yul\":621:684   */\n      tag_179\n      jumpi\n        /* \"#utility.yul\":680:681   */\n      0x00\n        /* \"#utility.yul\":677:678   */\n      dup1\n        /* \"#utility.yul\":670:682   */\n      revert\n        /* \"#utility.yul\":621:684   */\n    tag_179:\n        /* \"#utility.yul\":568:690   */\n      pop\n      jump\t// out\n        /* \"#utility.yul\":696:835   */\n    tag_149:\n        /* \"#utility.yul\":742:747   */\n      0x00\n        /* \"#utility.yul\":780:786   */\n      dup2\n        /* \"#utility.yul\":767:787   */\n      calldataload\n        /* \"#utility.yul\":758:787   */\n      swap1\n      pop\n        /* \"#utility.yul\":796:829   */\n      tag_181\n        /* \"#utility.yul\":823:828   */\n      dup2\n        /* \"#utility.yul\":796:829   */\n      tag_148\n      jump\t// in\n    tag_181:\n        /* \"#utility.yul\":696:835   */\n      swap3\n      swap2\n      pop\n      pop\n      jump\t// out\n        /* \"#utility.yul\":841:918   */\n    tag_150:\n        /* \"#utility.yul\":878:885   */\n      0x00\n        /* \"#utility.yul\":907:912   */\n      dup2\n        /* \"#utility.yul\":896:912   */\n      swap1\n      pop\n        /* \"#utility.yul\":841:918   */\n      swap2\n      swap1\n      pop\n      jump\t// out\n        /* \"#utility.yul\":924:1046   */\n    tag_151:\n        /* \"#utility.yul\":997:1021   */\n      tag_184\n        /* \"#utility.yul\":1015:1020   */\n      dup2\n        /* \"#utility.yul\":997:1021   */\n      tag_150\n      jump\t// in\n    tag_184:\n        /* \"#utility.yul\":990:995   */\n      dup2\n        /* \"#utility.yul\":987:1022   */\n      eq\n        /* \"#utility.yul\":977:1040   */\n      tag_185\n      jumpi\n        /* \"#utility.yul\":1036:1037   */\n      0x00\n        /* \"#utility.yul\":1033:1034   */\n      dup1\n        /* \"#utility.yul\":1026:1038   */\n      revert\n        /* \"#utility.yul\":977:1040   */\n    tag_185:\n        /* \"#utility.yul\":924:1046   */\n      pop\n      jump\t// out\n        /* \"#utility.yul\":1052:1191   */\n    tag_152:\n        /* \"#utility.yul\":1098:1103   */\n      0x00\n        /* \"#utility.yul\":1136:1142   */\n      dup2\n        /* \"#utility.yul\":1123:1143   */\n      calldataload\n        /* \"#utility.yul\":1114:1143   */\n      swap1\n      pop\n        /* \"#utility.yul\":1152:1185   */\n      tag_187\n        /* \"#utility.yul\":1179:1184   */\n      dup2\n        /* \"#utility.yul\":1152:1185   */\n      tag_151\n      jump\t// in\n    tag_187:\n        /* \"#utility.yul\":1052:1191   */\n      swap3\n      swap2\n      pop\n      pop\n      jump\t// out\n        /* \"#utility.yul\":1197:1671   */\n    tag_23:\n        /* \"#utility.yul\":1265:1271   */\n      0x00\n        /* \"#utility.yul\":1273:1279   */\n      dup1\n        /* \"#utility.yul\":1322:1324   */\n      0x40\n        /* \"#utility.yul\":1310:1319   */\n      dup4\n        /* \"#utility.yul\":1301:1308   */\n      dup6\n        /* \"#utility.yul\":1297:1320   */\n      sub\n        /* \"#utility.yul\":1293:1325   */\n      slt\n        /* \"#utility.yul\":1290:1409   */\n      iszero\n      tag_189\n      jumpi\n        /* \"#utility.yul\":1328:1407   */\n      tag_190\n      tag_144\n      jump\t// in\n    tag_190:\n        /* \"#utility.yul\":1290:1409   */\n    tag_189:\n        /* \"#utility.yul\":1448:1449   */\n      0x00\n        /* \"#utility.yul\":1473:1526   */\n      tag_191\n        /* \"#utility.yul\":1518:1525   */\n      dup6\n        /* \"#utility.yul\":1509:1515   */\n      dup3\n        /* \"#utility.yul\":1498:1507   */\n      dup7\n        /* \"#utility.yul\":1494:1516   */\n      add\n        /* \"#utility.yul\":1473:1526   */\n      tag_149\n      jump\t// in\n    tag_191:\n        /* \"#utility.yul\":1463:1526   */\n      swap3\n      pop\n        /* \"#utility.yul\":1419:1536   */\n      pop\n        /* \"#utility.yul\":1575:1577   */\n      0x20\n        /* \"#utility.yul\":1601:1654   */\n      tag_192\n        /* \"#utility.yul\":1646:1653   */\n      dup6\n        /* \"#utility.yul\":1637:1643   */\n      dup3\n        /* \"#utility.yul\":1626:1635   */\n      dup7\n        /* \"#utility.yul\":1622:1644   */\n      add\n        /* \"#utility.yul\":1601:1654   */\n      tag_152\n      jump\t// in\n    tag_192:\n        /* \"#utility.yul\":1591:1654   */\n      swap2\n      pop\n        /* \"#utility.yul\":1546:1664   */\n      pop\n        /* \"#utility.yul\":1197:1671   */\n      swap3\n      pop\n      swap3\n      swap1\n      pop\n      jump\t// out\n        /* \"#utility.yul\":1677:2006   */\n    tag_28:\n        /* \"#utility.yul\":1736:1742   */\n      0x00\n        /* \"#utility.yul\":1785:1787   */\n      0x20\n        /* \"#utility.yul\":1773:1782   */\n      dup3\n        /* \"#utility.yul\":1764:1771   */\n      dup5\n        /* \"#utility.yul\":1760:1783   */\n      sub\n        /* \"#utility.yul\":1756:1788   */\n      slt\n        /* \"#utility.yul\":1753:1872   */\n      iszero\n      tag_194\n      jumpi\n        /* \"#utility.yul\":1791:1870   */\n      tag_195\n      tag_144\n      jump\t// in\n    tag_195:\n        /* \"#utility.yul\":1753:1872   */\n    tag_194:\n        /* \"#utility.yul\":1911:1912   */\n      0x00\n        /* \"#utility.yul\":1936:1989   */\n      tag_196\n        /* \"#utility.yul\":1981:1988   */\n      dup5\n        /* \"#utility.yul\":1972:1978   */\n      dup3\n        /* \"#utility.yul\":1961:1970   */\n      dup6\n        /* \"#utility.yul\":1957:1979   */\n      add\n        /* \"#utility.yul\":1936:1989   */\n      tag_149\n      jump\t// in\n    tag_196:\n        /* \"#utility.yul\":1926:1989   */\n      swap2\n      pop\n        /* \"#utility.yul\":1882:1999   */\n      pop\n        /* \"#utility.yul\":1677:2006   */\n      swap3\n      swap2\n      pop\n      pop\n      jump\t// out\n        /* \"#utility.yul\":2012:2102   */\n    tag_153:\n        /* \"#utility.yul\":2046:2053   */\n      0x00\n        /* \"#utility.yul\":2089:2094   */\n      dup2\n        /* \"#utility.yul\":2082:2095   */\n      iszero\n        /* \"#utility.yul\":2075:2096   */\n      iszero\n        /* \"#utility.yul\":2064:2096   */\n      swap1\n      pop\n        /* \"#utility.yul\":2012:2102   */\n      swap2\n      swap1\n      pop\n      jump\t// out\n        /* \"#utility.yul\":2108:2217   */\n    tag_154:\n        /* \"#utility.yul\":2189:2210   */\n      tag_199\n        /* \"#utility.yul\":2204:2209   */\n      dup2\n        /* \"#utility.yul\":2189:2210   */\n      tag_153\n      jump\t// in\n    tag_199:\n        /* \"#utility.yul\":2184:2187   */\n      dup3\n        /* \"#utility.yul\":2177:2211   */\n      mstore\n        /* \"#utility.yul\":2108:2217   */\n      pop\n      pop\n      jump\t// out\n        /* \"#utility.yul\":2223:2433   */\n    tag_31:\n        /* \"#utility.yul\":2310:2314   */\n      0x00\n        /* \"#utility.yul\":2348:2350   */\n      0x20\n        /* \"#utility.yul\":2337:2346   */\n      dup3\n        /* \"#utility.yul\":2333:2351   */\n      add\n        /* \"#utility.yul\":2325:2351   */\n      swap1\n      pop\n        /* \"#utility.yul\":2361:2426   */\n      tag_201\n        /* \"#utility.yul\":2423:2424   */\n      0x00\n        /* \"#utility.yul\":2412:2421   */\n      dup4\n        /* \"#utility.yul\":2408:2425   */\n      add\n        /* \"#utility.yul\":2399:2405   */\n      dup5\n        /* \"#utility.yul\":2361:2426   */\n      tag_154\n      jump\t// in\n    tag_201:\n        /* \"#utility.yul\":2223:2433   */\n      swap3\n      swap2\n      pop\n      pop\n      jump\t// out\n        /* \"#utility.yul\":2439:2768   */\n    tag_35:\n        /* \"#utility.yul\":2498:2504   */\n      0x00\n        /* \"#utility.yul\":2547:2549   */\n      0x20\n        /* \"#utility.yul\":2535:2544   */\n      dup3\n        /* \"#utility.yul\":2526:2533   */\n      dup5\n        /* \"#utility.yul\":2522:2545   */\n      sub\n        /* \"#utility.yul\":2518:2550   */\n      slt\n        /* \"#utility.yul\":2515:2634   */\n      iszero\n      tag_203\n      jumpi\n        /* \"#utility.yul\":2553:2632   */\n      tag_204\n      tag_144\n      jump\t// in\n    tag_204:\n        /* \"#utility.yul\":2515:2634   */\n    tag_203:\n        /* \"#utility.yul\":2673:2674   */\n      0x00\n        /* \"#utility.yul\":2698:2751   */\n      tag_205\n        /* \"#utility.yul\":2743:2750   */\n      dup5\n        /* \"#utility.yul\":2734:2740   */\n      dup3\n        /* \"#utility.yul\":2723:2732   */\n      dup6\n        /* \"#utility.yul\":2719:2741   */\n      add\n        /* \"#utility.yul\":2698:2751   */\n      tag_152\n      jump\t// in\n    tag_205:\n        /* \"#utility.yul\":2688:2751   */\n      swap2\n      pop\n        /* \"#utility.yul\":2644:2761   */\n      pop\n        /* \"#utility.yul\":2439:2768   */\n      swap3\n      swap2\n      pop\n      pop\n      jump\t// out\n        /* \"#utility.yul\":2774:2890   */\n    tag_155:\n        /* \"#utility.yul\":2844:2865   */\n      tag_207\n        /* \"#utility.yul\":2859:2864   */\n      dup2\n        /* \"#utility.yul\":2844:2865   */\n      tag_153\n      jump\t// in\n    tag_207:\n        /* \"#utility.yul\":2837:2842   */\n      dup2\n        /* \"#utility.yul\":2834:2866   */\n      eq\n        /* \"#utility.yul\":2824:2884   */\n      tag_208\n      jumpi\n        /* \"#utility.yul\":2880:2881   */\n      0x00\n        /* \"#utility.yul\":2877:2878   */\n      dup1\n        /* \"#utility.yul\":2870:2882   */\n      revert\n        /* \"#utility.yul\":2824:2884   */\n    tag_208:\n        /* \"#utility.yul\":2774:2890   */\n      pop\n      jump\t// out\n        /* \"#utility.yul\":2896:3029   */\n    tag_156:\n        /* \"#utility.yul\":2939:2944   */\n      0x00\n        /* \"#utility.yul\":2977:2983   */\n      dup2\n        /* \"#utility.yul\":2964:2984   */\n      calldataload\n        /* \"#utility.yul\":2955:2984   */\n      swap1\n      pop\n        /* \"#utility.yul\":2993:3023   */\n      tag_210\n        /* \"#utility.yul\":3017:3022   */\n      dup2\n        /* \"#utility.yul\":2993:3023   */\n      tag_155\n      jump\t// in\n    tag_210:\n        /* \"#utility.yul\":2896:3029   */\n      swap3\n      swap2\n      pop\n      pop\n      jump\t// out\n        /* \"#utility.yul\":3035:3503   */\n    tag_43:\n        /* \"#utility.yul\":3100:3106   */\n      0x00\n        /* \"#utility.yul\":3108:3114   */\n      dup1\n        /* \"#utility.yul\":3157:3159   */\n      0x40\n        /* \"#utility.yul\":3145:3154   */\n      dup4\n        /* \"#utility.yul\":3136:3143   */\n      dup6\n        /* \"#utility.yul\":3132:3155   */\n      sub\n        /* \"#utility.yul\":3128:3160   */\n      slt\n        /* \"#utility.yul\":3125:3244   */\n      iszero\n      tag_212\n      jumpi\n        /* \"#utility.yul\":3163:3242   */\n      tag_213\n      tag_144\n      jump\t// in\n    tag_213:\n        /* \"#utility.yul\":3125:3244   */\n    tag_212:\n        /* \"#utility.yul\":3283:3284   */\n      0x00\n        /* \"#utility.yul\":3308:3361   */\n      tag_214\n        /* \"#utility.yul\":3353:3360   */\n      dup6\n        /* \"#utility.yul\":3344:3350   */\n      dup3\n        /* \"#utility.yul\":3333:3342   */\n      dup7\n        /* \"#utility.yul\":3329:3351   */\n      add\n        /* \"#utility.yul\":3308:3361   */\n      tag_149\n      jump\t// in\n    tag_214:\n        /* \"#utility.yul\":3298:3361   */\n      swap3\n      pop\n        /* \"#utility.yul\":3254:3371   */\n      pop\n        /* \"#utility.yul\":3410:3412   */\n      0x20\n        /* \"#utility.yul\":3436:3486   */\n      tag_215\n        /* \"#utility.yul\":3478:3485   */\n      dup6\n        /* \"#utility.yul\":3469:3475   */\n      dup3\n        /* \"#utility.yul\":3458:3467   */\n      dup7\n        /* \"#utility.yul\":3454:3476   */\n      add\n        /* \"#utility.yul\":3436:3486   */\n      tag_156\n      jump\t// in\n    tag_215:\n        /* \"#utility.yul\":3426:3486   */\n      swap2\n      pop\n        /* \"#utility.yul\":3381:3496   */\n      pop\n        /* \"#utility.yul\":3035:3503   */\n      swap3\n      pop\n      swap3\n      swap1\n      pop\n      jump\t// out\n        /* \"#utility.yul\":3509:3627   */\n    tag_157:\n        /* \"#utility.yul\":3596:3620   */\n      tag_217\n        /* \"#utility.yul\":3614:3619   */\n      dup2\n        /* \"#utility.yul\":3596:3620   */\n      tag_147\n      jump\t// in\n    tag_217:\n        /* \"#utility.yul\":3591:3594   */\n      dup3\n        /* \"#utility.yul\":3584:3621   */\n      mstore\n        /* \"#utility.yul\":3509:3627   */\n      pop\n      pop\n      jump\t// out\n        /* \"#utility.yul\":3633:3855   */\n    tag_52:\n        /* \"#utility.yul\":3726:3730   */\n      0x00\n        /* \"#utility.yul\":3764:3766   */\n      0x20\n        /* \"#utility.yul\":3753:3762   */\n      dup3\n        /* \"#utility.yul\":3749:3767   */\n      add\n        /* \"#utility.yul\":3741:3767   */\n      swap1\n      pop\n        /* \"#utility.yul\":3777:3848   */\n      tag_219\n        /* \"#utility.yul\":3845:3846   */\n      0x00\n        /* \"#utility.yul\":3834:3843   */\n      dup4\n        /* \"#utility.yul\":3830:3847   */\n      add\n        /* \"#utility.yul\":3821:3827   */\n      dup5\n        /* \"#utility.yul\":3777:3848   */\n      tag_157\n      jump\t// in\n    tag_219:\n        /* \"#utility.yul\":3633:3855   */\n      swap3\n      swap2\n      pop\n      pop\n      jump\t// out\n        /* \"#utility.yul\":3861:3979   */\n    tag_158:\n        /* \"#utility.yul\":3948:3972   */\n      tag_221\n        /* \"#utility.yul\":3966:3971   */\n      dup2\n        /* \"#utility.yul\":3948:3972   */\n      tag_150\n      jump\t// in\n    tag_221:\n        /* \"#utility.yul\":3943:3946   */\n      dup3\n        /* \"#utility.yul\":3936:3973   */\n      mstore\n        /* \"#utility.yul\":3861:3979   */\n      pop\n      pop\n      jump\t// out\n        /* \"#utility.yul\":3985:4207   */\n    tag_61:\n        /* \"#utility.yul\":4078:4082   */\n      0x00\n        /* \"#utility.yul\":4116:4118   */\n      0x20\n        /* \"#utility.yul\":4105:4114   */\n      dup3\n        /* \"#utility.yul\":4101:4119   */\n      add\n        /* \"#utility.yul\":4093:4119   */\n      swap1\n      pop\n        /* \"#utility.yul\":4129:4200   */\n      tag_223\n        /* \"#utility.yul\":4197:4198   */\n      0x00\n        /* \"#utility.yul\":4186:4195   */\n      dup4\n        /* \"#utility.yul\":4182:4199   */\n      add\n        /* \"#utility.yul\":4173:4179   */\n      dup5\n        /* \"#utility.yul\":4129:4200   */\n      tag_158\n      jump\t// in\n    tag_223:\n        /* \"#utility.yul\":3985:4207   */\n      swap3\n      swap2\n      pop\n      pop\n      jump\t// out\n        /* \"#utility.yul\":4213:4312   */\n    tag_159:\n        /* \"#utility.yul\":4265:4271   */\n      0x00\n        /* \"#utility.yul\":4299:4304   */\n      dup2\n        /* \"#utility.yul\":4293:4305   */\n      mload\n        /* \"#utility.yul\":4283:4305   */\n      swap1\n      pop\n        /* \"#utility.yul\":4213:4312   */\n      swap2\n      swap1\n      pop\n      jump\t// out\n        /* \"#utility.yul\":4318:4487   */\n    tag_160:\n        /* \"#utility.yul\":4402:4413   */\n      0x00\n        /* \"#utility.yul\":4436:4442   */\n      dup3\n        /* \"#utility.yul\":4431:4434   */\n      dup3\n        /* \"#utility.yul\":4424:4443   */\n      mstore\n        /* \"#utility.yul\":4476:4480   */\n      0x20\n        /* \"#utility.yul\":4471:4474   */\n      dup3\n        /* \"#utility.yul\":4467:4481   */\n      add\n        /* \"#utility.yul\":4452:4481   */\n      swap1\n      pop\n        /* \"#utility.yul\":4318:4487   */\n      swap3\n      swap2\n      pop\n      pop\n      jump\t// out\n        /* \"#utility.yul\":4493:4739   */\n    tag_161:\n        /* \"#utility.yul\":4574:4575   */\n      0x00\n        /* \"#utility.yul\":4584:4697   */\n    tag_227:\n        /* \"#utility.yul\":4598:4604   */\n      dup4\n        /* \"#utility.yul\":4595:4596   */\n      dup2\n        /* \"#utility.yul\":4592:4605   */\n      lt\n        /* \"#utility.yul\":4584:4697   */\n      iszero\n      tag_229\n      jumpi\n        /* \"#utility.yul\":4683:4684   */\n      dup1\n        /* \"#utility.yul\":4678:4681   */\n      dup3\n        /* \"#utility.yul\":4674:4685   */\n      add\n        /* \"#utility.yul\":4668:4686   */\n      mload\n        /* \"#utility.yul\":4664:4665   */\n      dup2\n        /* \"#utility.yul\":4659:4662   */\n      dup5\n        /* \"#utility.yul\":4655:4666   */\n      add\n        /* \"#utility.yul\":4648:4687   */\n      mstore\n        /* \"#utility.yul\":4620:4622   */\n      0x20\n        /* \"#utility.yul\":4617:4618   */\n      dup2\n        /* \"#utility.yul\":4613:4623   */\n      add\n        /* \"#utility.yul\":4608:4623   */\n      swap1\n      pop\n        /* \"#utility.yul\":4584:4697   */\n      jump(tag_227)\n    tag_229:\n        /* \"#utility.yul\":4731:4732   */\n      0x00\n        /* \"#utility.yul\":4722:4728   */\n      dup5\n        /* \"#utility.yul\":4717:4720   */\n      dup5\n        /* \"#utility.yul\":4713:4729   */\n      add\n        /* \"#utility.yul\":4706:4733   */\n      mstore\n        /* \"#utility.yul\":4555:4739   */\n      pop\n        /* \"#utility.yul\":4493:4739   */\n      pop\n      pop\n      pop\n      jump\t// out\n        /* \"#utility.yul\":4745:4847   */\n    tag_162:\n        /* \"#utility.yul\":4786:4792   */\n      0x00\n        /* \"#utility.yul\":4837:4839   */\n      0x1f\n        /* \"#utility.yul\":4833:4840   */\n      not\n        /* \"#utility.yul\":4828:4830   */\n      0x1f\n        /* \"#utility.yul\":4821:4826   */\n      dup4\n        /* \"#utility.yul\":4817:4831   */\n      add\n        /* \"#utility.yul\":4813:4841   */\n      and\n        /* \"#utility.yul\":4803:4841   */\n      swap1\n      pop\n        /* \"#utility.yul\":4745:4847   */\n      swap2\n      swap1\n      pop\n      jump\t// out\n        /* \"#utility.yul\":4853:5230   */\n    tag_163:\n        /* \"#utility.yul\":4941:4944   */\n      0x00\n        /* \"#utility.yul\":4969:5008   */\n      tag_232\n        /* \"#utility.yul\":5002:5007   */\n      dup3\n        /* \"#utility.yul\":4969:5008   */\n      tag_159\n      jump\t// in\n    tag_232:\n        /* \"#utility.yul\":5024:5095   */\n      tag_233\n        /* \"#utility.yul\":5088:5094   */\n      dup2\n        /* \"#utility.yul\":5083:5086   */\n      dup6\n        /* \"#utility.yul\":5024:5095   */\n      tag_160\n      jump\t// in\n    tag_233:\n        /* \"#utility.yul\":5017:5095   */\n      swap4\n      pop\n        /* \"#utility.yul\":5104:5169   */\n      tag_234\n        /* \"#utility.yul\":5162:5168   */\n      dup2\n        /* \"#utility.yul\":5157:5160   */\n      dup6\n        /* \"#utility.yul\":5150:5154   */\n      0x20\n        /* \"#utility.yul\":5143:5148   */\n      dup7\n        /* \"#utility.yul\":5139:5155   */\n      add\n        /* \"#utility.yul\":5104:5169   */\n      tag_161\n      jump\t// in\n    tag_234:\n        /* \"#utility.yul\":5194:5223   */\n      tag_235\n        /* \"#utility.yul\":5216:5222   */\n      dup2\n        /* \"#utility.yul\":5194:5223   */\n      tag_162\n      jump\t// in\n    tag_235:\n        /* \"#utility.yul\":5189:5192   */\n      dup5\n        /* \"#utility.yul\":5185:5224   */\n      add\n        /* \"#utility.yul\":5178:5224   */\n      swap2\n      pop\n        /* \"#utility.yul\":4945:5230   */\n      pop\n        /* \"#utility.yul\":4853:5230   */\n      swap3\n      swap2\n      pop\n      pop\n      jump\t// out\n        /* \"#utility.yul\":5236:5549   */\n    tag_79:\n        /* \"#utility.yul\":5349:5353   */\n      0x00\n        /* \"#utility.yul\":5387:5389   */\n      0x20\n        /* \"#utility.yul\":5376:5385   */\n      dup3\n        /* \"#utility.yul\":5372:5390   */\n      add\n        /* \"#utility.yul\":5364:5390   */\n      swap1\n      pop\n        /* \"#utility.yul\":5436:5445   */\n      dup2\n        /* \"#utility.yul\":5430:5434   */\n      dup2\n        /* \"#utility.yul\":5426:5446   */\n      sub\n        /* \"#utility.yul\":5422:5423   */\n      0x00\n        /* \"#utility.yul\":5411:5420   */\n      dup4\n        /* \"#utility.yul\":5407:5424   */\n      add\n        /* \"#utility.yul\":5400:5447   */\n      mstore\n        /* \"#utility.yul\":5464:5542   */\n      tag_237\n        /* \"#utility.yul\":5537:5541   */\n      dup2\n        /* \"#utility.yul\":5528:5534   */\n      dup5\n        /* \"#utility.yul\":5464:5542   */\n      tag_163\n      jump\t// in\n    tag_237:\n        /* \"#utility.yul\":5456:5542   */\n      swap1\n      pop\n        /* \"#utility.yul\":5236:5549   */\n      swap3\n      swap2\n      pop\n      pop\n      jump\t// out\n        /* \"#utility.yul\":5555:5715   */\n    tag_164:\n        /* \"#utility.yul\":5695:5707   */\n      0x5245454e5452414e435900000000000000000000000000000000000000000000\n        /* \"#utility.yul\":5691:5692   */\n      0x00\n        /* \"#utility.yul\":5683:5689   */\n      dup3\n        /* \"#utility.yul\":5679:5693   */\n      add\n        /* \"#utility.yul\":5672:5708   */\n      mstore\n        /* \"#utility.yul\":5555:5715   */\n      pop\n      jump\t// out\n        /* \"#utility.yul\":5721:6087   */\n    tag_165:\n        /* \"#utility.yul\":5863:5866   */\n      0x00\n        /* \"#utility.yul\":5884:5951   */\n      tag_240\n        /* \"#utility.yul\":5948:5950   */\n      0x0a\n        /* \"#utility.yul\":5943:5946   */\n      dup4\n        /* \"#utility.yul\":5884:5951   */\n      tag_160\n      jump\t// in\n    tag_240:\n        /* \"#utility.yul\":5877:5951   */\n      swap2\n      pop\n        /* \"#utility.yul\":5960:6053   */\n      tag_241\n        /* \"#utility.yul\":6049:6052   */\n      dup3\n        /* \"#utility.yul\":5960:6053   */\n      tag_164\n      jump\t// in\n    tag_241:\n        /* \"#utility.yul\":6078:6080   */\n      0x20\n        /* \"#utility.yul\":6073:6076   */\n      dup3\n        /* \"#utility.yul\":6069:6081   */\n      add\n        /* \"#utility.yul\":6062:6081   */\n      swap1\n      pop\n        /* \"#utility.yul\":5721:6087   */\n      swap2\n      swap1\n      pop\n      jump\t// out\n        /* \"#utility.yul\":6093:6512   */\n    tag_92:\n        /* \"#utility.yul\":6259:6263   */\n      0x00\n        /* \"#utility.yul\":6297:6299   */\n      0x20\n        /* \"#utility.yul\":6286:6295   */\n      dup3\n        /* \"#utility.yul\":6282:6300   */\n      add\n        /* \"#utility.yul\":6274:6300   */\n      swap1\n      pop\n        /* \"#utility.yul\":6346:6355   */\n      dup2\n        /* \"#utility.yul\":6340:6344   */\n      dup2\n        /* \"#utility.yul\":6336:6356   */\n      sub\n        /* \"#utility.yul\":6332:6333   */\n      0x00\n        /* \"#utility.yul\":6321:6330   */\n      dup4\n        /* \"#utility.yul\":6317:6334   */\n      add\n        /* \"#utility.yul\":6310:6357   */\n      mstore\n        /* \"#utility.yul\":6374:6505   */\n      tag_243\n        /* \"#utility.yul\":6500:6504   */\n      dup2\n        /* \"#utility.yul\":6374:6505   */\n      tag_165\n      jump\t// in\n    tag_243:\n        /* \"#utility.yul\":6366:6505   */\n      swap1\n      pop\n        /* \"#utility.yul\":6093:6512   */\n      swap2\n      swap1\n      pop\n      jump\t// out\n        /* \"#utility.yul\":6518:6698   */\n    tag_166:\n        /* \"#utility.yul\":6566:6643   */\n      0x4e487b7100000000000000000000000000000000000000000000000000000000\n        /* \"#utility.yul\":6563:6564   */\n      0x00\n        /* \"#utility.yul\":6556:6644   */\n      mstore\n        /* \"#utility.yul\":6663:6667   */\n      0x11\n        /* \"#utility.yul\":6660:6661   */\n      0x04\n        /* \"#utility.yul\":6653:6668   */\n      mstore\n        /* \"#utility.yul\":6687:6691   */\n      0x24\n        /* \"#utility.yul\":6684:6685   */\n      0x00\n        /* \"#utility.yul\":6677:6692   */\n      revert\n        /* \"#utility.yul\":6704:6898   */\n    tag_96:\n        /* \"#utility.yul\":6744:6748   */\n      0x00\n        /* \"#utility.yul\":6764:6784   */\n      tag_246\n        /* \"#utility.yul\":6782:6783   */\n      dup3\n        /* \"#utility.yul\":6764:6784   */\n      tag_150\n      jump\t// in\n    tag_246:\n        /* \"#utility.yul\":6759:6784   */\n      swap2\n      pop\n        /* \"#utility.yul\":6798:6818   */\n      tag_247\n        /* \"#utility.yul\":6816:6817   */\n      dup4\n        /* \"#utility.yul\":6798:6818   */\n      tag_150\n      jump\t// in\n    tag_247:\n        /* \"#utility.yul\":6793:6818   */\n      swap3\n      pop\n        /* \"#utility.yul\":6842:6843   */\n      dup3\n        /* \"#utility.yul\":6839:6840   */\n      dup3\n        /* \"#utility.yul\":6835:6844   */\n      sub\n        /* \"#utility.yul\":6827:6844   */\n      swap1\n      pop\n        /* \"#utility.yul\":6866:6867   */\n      dup2\n        /* \"#utility.yul\":6860:6864   */\n      dup2\n        /* \"#utility.yul\":6857:6868   */\n      gt\n        /* \"#utility.yul\":6854:6891   */\n      iszero\n      tag_248\n      jumpi\n        /* \"#utility.yul\":6871:6889   */\n      tag_249\n      tag_166\n      jump\t// in\n    tag_249:\n        /* \"#utility.yul\":6854:6891   */\n    tag_248:\n        /* \"#utility.yul\":6704:6898   */\n      swap3\n      swap2\n      pop\n      pop\n      jump\t// out\n        /* \"#utility.yul\":6904:7095   */\n    tag_100:\n        /* \"#utility.yul\":6944:6947   */\n      0x00\n        /* \"#utility.yul\":6963:6983   */\n      tag_251\n        /* \"#utility.yul\":6981:6982   */\n      dup3\n        /* \"#utility.yul\":6963:6983   */\n      tag_150\n      jump\t// in\n    tag_251:\n        /* \"#utility.yul\":6958:6983   */\n      swap2\n      pop\n        /* \"#utility.yul\":6997:7017   */\n      tag_252\n        /* \"#utility.yul\":7015:7016   */\n      dup4\n        /* \"#utility.yul\":6997:7017   */\n      tag_150\n      jump\t// in\n    tag_252:\n        /* \"#utility.yul\":6992:7017   */\n      swap3\n      pop\n        /* \"#utility.yul\":7040:7041   */\n      dup3\n        /* \"#utility.yul\":7037:7038   */\n      dup3\n        /* \"#utility.yul\":7033:7042   */\n      add\n        /* \"#utility.yul\":7026:7042   */\n      swap1\n      pop\n        /* \"#utility.yul\":7061:7064   */\n      dup1\n        /* \"#utility.yul\":7058:7059   */\n      dup3\n        /* \"#utility.yul\":7055:7065   */\n      gt\n        /* \"#utility.yul\":7052:7088   */\n      iszero\n      tag_253\n      jumpi\n        /* \"#utility.yul\":7068:7086   */\n      tag_254\n      tag_166\n      jump\t// in\n    tag_254:\n        /* \"#utility.yul\":7052:7088   */\n    tag_253:\n        /* \"#utility.yul\":6904:7095   */\n      swap3\n      swap2\n      pop\n      pop\n      jump\t// out\n        /* \"#utility.yul\":7101:7281   */\n    tag_167:\n        /* \"#utility.yul\":7149:7226   */\n      0x4e487b7100000000000000000000000000000000000000000000000000000000\n        /* \"#utility.yul\":7146:7147   */\n      0x00\n        /* \"#utility.yul\":7139:7227   */\n      mstore\n        /* \"#utility.yul\":7246:7250   */\n      0x22\n        /* \"#utility.yul\":7243:7244   */\n      0x04\n        /* \"#utility.yul\":7236:7251   */\n      mstore\n        /* \"#utility.yul\":7270:7274   */\n      0x24\n        /* \"#utility.yul\":7267:7268   */\n      0x00\n        /* \"#utility.yul\":7260:7275   */\n      revert\n        /* \"#utility.yul\":7287:7607   */\n    tag_124:\n        /* \"#utility.yul\":7331:7337   */\n      0x00\n        /* \"#utility.yul\":7368:7369   */\n      0x02\n        /* \"#utility.yul\":7362:7366   */\n      dup3\n        /* \"#utility.yul\":7358:7370   */\n      div\n        /* \"#utility.yul\":7348:7370   */\n      swap1\n      pop\n        /* \"#utility.yul\":7415:7416   */\n      0x01\n        /* \"#utility.yul\":7409:7413   */\n      dup3\n        /* \"#utility.yul\":7405:7417   */\n      and\n        /* \"#utility.yul\":7436:7454   */\n      dup1\n        /* \"#utility.yul\":7426:7507   */\n      tag_257\n      jumpi\n        /* \"#utility.yul\":7492:7496   */\n      0x7f\n        /* \"#utility.yul\":7484:7490   */\n      dup3\n        /* \"#utility.yul\":7480:7497   */\n      and\n        /* \"#utility.yul\":7470:7497   */\n      swap2\n      pop\n        /* \"#utility.yul\":7426:7507   */\n    tag_257:\n        /* \"#utility.yul\":7554:7556   */\n      0x20\n        /* \"#utility.yul\":7546:7552   */\n      dup3\n        /* \"#utility.yul\":7543:7557   */\n      lt\n        /* \"#utility.yul\":7523:7541   */\n      dup2\n        /* \"#utility.yul\":7520:7558   */\n      sub\n        /* \"#utility.yul\":7517:7601   */\n      tag_258\n      jumpi\n        /* \"#utility.yul\":7573:7591   */\n      tag_259\n      tag_167\n      jump\t// in\n    tag_259:\n        /* \"#utility.yul\":7517:7601   */\n    tag_258:\n        /* \"#utility.yul\":7338:7607   */\n      pop\n        /* \"#utility.yul\":7287:7607   */\n      swap2\n      swap1\n      pop\n      jump\t// out\n        /* \"#utility.yul\":7613:7782   */\n    tag_168:\n        /* \"#utility.yul\":7753:7774   */\n      0x4554485f5452414e534645525f4641494c454400000000000000000000000000\n        /* \"#utility.yul\":7749:7750   */\n      0x00\n        /* \"#utility.yul\":7741:7747   */\n      dup3\n        /* \"#utility.yul\":7737:7751   */\n      add\n        /* \"#utility.yul\":7730:7775   */\n      mstore\n        /* \"#utility.yul\":7613:7782   */\n      pop\n      jump\t// out\n        /* \"#utility.yul\":7788:8154   */\n    tag_169:\n        /* \"#utility.yul\":7930:7933   */\n      0x00\n        /* \"#utility.yul\":7951:8018   */\n      tag_262\n        /* \"#utility.yul\":8015:8017   */\n      0x13\n        /* \"#utility.yul\":8010:8013   */\n      dup4\n        /* \"#utility.yul\":7951:8018   */\n      tag_160\n      jump\t// in\n    tag_262:\n        /* \"#utility.yul\":7944:8018   */\n      swap2\n      pop\n        /* \"#utility.yul\":8027:8120   */\n      tag_263\n        /* \"#utility.yul\":8116:8119   */\n      dup3\n        /* \"#utility.yul\":8027:8120   */\n      tag_168\n      jump\t// in\n    tag_263:\n        /* \"#utility.yul\":8145:8147   */\n      0x20\n        /* \"#utility.yul\":8140:8143   */\n      dup3\n        /* \"#utility.yul\":8136:8148   */\n      add\n        /* \"#utility.yul\":8129:8148   */\n      swap1\n      pop\n        /* \"#utility.yul\":7788:8154   */\n      swap2\n      swap1\n      pop\n      jump\t// out\n        /* \"#utility.yul\":8160:8579   */\n    tag_132:\n        /* \"#utility.yul\":8326:8330   */\n      0x00\n        /* \"#utility.yul\":8364:8366   */\n      0x20\n        /* \"#utility.yul\":8353:8362   */\n      dup3\n        /* \"#utility.yul\":8349:8367   */\n      add\n        /* \"#utility.yul\":8341:8367   */\n      swap1\n      pop\n        /* \"#utility.yul\":8413:8422   */\n      dup2\n        /* \"#utility.yul\":8407:8411   */\n      dup2\n        /* \"#utility.yul\":8403:8423   */\n      sub\n        /* \"#utility.yul\":8399:8400   */\n      0x00\n        /* \"#utility.yul\":8388:8397   */\n      dup4\n        /* \"#utility.yul\":8384:8401   */\n      add\n        /* \"#utility.yul\":8377:8424   */\n      mstore\n        /* \"#utility.yul\":8441:8572   */\n      tag_265\n        /* \"#utility.yul\":8567:8571   */\n      dup2\n        /* \"#utility.yul\":8441:8572   */\n      tag_169\n      jump\t// in\n    tag_265:\n        /* \"#utility.yul\":8433:8572   */\n      swap1\n      pop\n        /* \"#utility.yul\":8160:8579   */\n      swap2\n      swap1\n      pop\n      jump\t// out\n\n    auxdata: 0xa2646970667358221220ded4d11dbcf99d66d0eff9399137ba33d09ca9ebd2ddf994758f286633e282ca64736f6c63430008130033\n}\n",
				"bytecode": {
					"linkReferences": {},
					"object": "60806040526001805560026005556040518060400160405280600581526020017f312e302e3000000000000000000000000000000000000000000000000000000081525060069081620000539190620004c2565b503480156200006157600080fd5b5033600073ffffffffffffffffffffffffffffffffffffffff168173ffffffffffffffffffffffffffffffffffffffff1603620000d85760006040517f1e4fbdf7000000000000000000000000000000000000000000000000000000008152600401620000cf9190620005ee565b60405180910390fd5b620000e9816200018460201b60201c565b506001600460003373ffffffffffffffffffffffffffffffffffffffff1673ffffffffffffffffffffffffffffffffffffffff16815260200190815260200160002060006101000a81548160ff02191690831515021790555060047f7b78ee99b011dff919ff5bd97f8a1b33b444782eb490dd7cd487fc963d63676f6006604051620001769190620006ac565b60405180910390a2620006d0565b60008060009054906101000a900473ffffffffffffffffffffffffffffffffffffffff169050816000806101000a81548173ffffffffffffffffffffffffffffffffffffffff021916908373ffffffffffffffffffffffffffffffffffffffff1602179055508173ffffffffffffffffffffffffffffffffffffffff168173ffffffffffffffffffffffffffffffffffffffff167f8be0079c531659141344cd1fd0a4f28419497f9722a3daafe3b4186f6b6457e060405160405180910390a35050565b600081519050919050565b7f4e487b7100000000000000000000000000000000000000000000000000000000600052604160045260246000fd5b7f4e487b7100000000000000000000000000000000000000000000000000000000600052602260045260246000fd5b60006002820490506001821680620002ca57607f821691505b602082108103620002e057620002df62000282565b5b50919050565b60008190508160005260206000209050919050565b60006020601f8301049050919050565b600082821b905092915050565b6000600883026200034a7fffffffffffffffffffffffffffffffffffffffffffffffffffffffffffffffff826200030b565b6200035686836200030b565b95508019841693508086168417925050509392505050565b6000819050919050565b6000819050919050565b6000620003a36200039d62000397846200036e565b62000378565b6200036e565b9050919050565b6000819050919050565b620003bf8362000382565b620003d7620003ce82620003aa565b84845462000318565b825550505050565b600090565b620003ee620003df565b620003fb818484620003b4565b505050565b5b81811015620004235762000417600082620003e4565b60018101905062000401565b5050565b601f82111562000472576200043c81620002e6565b6200044784620002fb565b8101602085101562000457578190505b6200046f6200046685620002fb565b83018262000400565b50505b505050565b600082821c905092915050565b6000620004976000198460080262000477565b1980831691505092915050565b6000620004b2838362000484565b9150826002028217905092915050565b620004cd8262000248565b67ffffffffffffffff811115620004e957620004e862000253565b5b620004f58254620002b1565b6200050282828562000427565b600060209050601f8311600181146200053a576000841562000525578287015190505b620005318582620004a4565b865550620005a1565b601f1984166200054a86620002e6565b60005b8281101562000574578489015182556001820191506020850194506020810190506200054d565b8683101562000594578489015162000590601f89168262000484565b8355505b6001600288020188555050505b505050505050565b600073ffffffffffffffffffffffffffffffffffffffff82169050919050565b6000620005d682620005a9565b9050919050565b620005e881620005c9565b82525050565b6000602082019050620006056000830184620005dd565b92915050565b600082825260208201905092915050565b600081546200062b81620002b1565b6200063781866200060b565b945060018216600081146200065557600181146200066c57620006a3565b60ff198316865281151560200286019350620006a3565b6200067785620002e6565b60005b838110156200069b578154818901526001820191506020810190506200067a565b808801955050505b50505092915050565b60006020820190508181036000830152620006c881846200061c565b905092915050565b61102f80620006e06000396000f3fe6080604052600436106100c65760003560e01c80638da5cb5b1161007f578063e44cec7c11610059578063e44cec7c1461023c578063f2fde38b14610267578063f54b893b14610290578063f8b1cb3c146102cd576100cd565b80638da5cb5b146101b8578063b43e6a53146101e3578063df0f0951146101ff576100cd565b8063099a04e5146100d257806324d7806c146100fb57806330710d041461013857806348c54b9d146101615780634b0bddd214610178578063715018a6146101a1576100cd565b366100cd57005b600080fd5b3480156100de57600080fd5b506100f960048036038101906100f49190610be8565b6102f8565b005b34801561010757600080fd5b50610122600480360381019061011d9190610c28565b610372565b60405161012f9190610c70565b60405180910390f35b34801561014457600080fd5b5061015f600480360381019061015a9190610c8b565b610392565b005b34801561016d57600080fd5b506101766103a4565b005b34801561018457600080fd5b5061019f600480360381019061019a9190610ce4565b61060f565b005b3480156101ad57600080fd5b506101b66106d6565b005b3480156101c457600080fd5b506101cd6106ea565b6040516101da9190610d33565b60405180910390f35b6101fd60048036038101906101f89190610be8565b610713565b005b34801561020b57600080fd5b5061022660048036038101906102219190610c28565b610801565b6040516102339190610d5d565b60405180910390f35b34801561024857600080fd5b50610251610819565b60405161025e9190610d5d565b60405180910390f35b34801561027357600080fd5b5061028e60048036038101906102899190610c28565b61081f565b005b34801561029c57600080fd5b506102b760048036038101906102b29190610c28565b6108a5565b6040516102c49190610d5d565b60405180910390f35b3480156102d957600080fd5b506102e26108bd565b6040516102ef9190610e08565b60405180910390f35b6103006106ea565b73ffffffffffffffffffffffffffffffffffffffff163373ffffffffffffffffffffffffffffffffffffffff1614610364576040517fad9cd75900000000000000000000000000000000000000000000000000000000815260040160405180910390fd5b61036e828261094b565b5050565b60046020528060005260406000206000915054906101000a900460ff1681565b61039a61099e565b8060058190555050565b60018054146103e8576040517f08c379a00000000000000000000000000000000000000000000000000000000081526004016103df90610e76565b60405180910390fd5b60026001819055503373ffffffffffffffffffffffffffffffffffffffff163273ffffffffffffffffffffffffffffffffffffffff1614610455576040517f3691d20a00000000000000000000000000000000000000000000000000000000815260040160405180910390fd5b6000600360003373ffffffffffffffffffffffffffffffffffffffff1673ffffffffffffffffffffffffffffffffffffffff16815260200190815260200160002054600260003373ffffffffffffffffffffffffffffffffffffffff1673ffffffffffffffffffffffffffffffffffffffff168152602001908152602001600020546104e19190610ec5565b90506000811161051d576040517f6f9c7fcf00000000000000000000000000000000000000000000000000000000815260040160405180910390fd5b80471015610557576040517fabf01a0800000000000000000000000000000000000000000000000000000000815260040160405180910390fd5b80600360003373ffffffffffffffffffffffffffffffffffffffff1673ffffffffffffffffffffffffffffffffffffffff16815260200190815260200160002060008282546105a69190610ef9565b925050819055506105b7338261094b565b3373ffffffffffffffffffffffffffffffffffffffff167f896e034966eaaf1adc54acc0f257056febbd300c9e47182cf761982cf1f5e430826040516105fd9190610d5d565b60405180910390a25060018081905550565b6106176106ea565b73ffffffffffffffffffffffffffffffffffffffff163373ffffffffffffffffffffffffffffffffffffffff161461067b576040517fad9cd75900000000000000000000000000000000000000000000000000000000815260040160405180910390fd5b80600460008473ffffffffffffffffffffffffffffffffffffffff1673ffffffffffffffffffffffffffffffffffffffff16815260200190815260200160002060006101000a81548160ff0219169083151502179055505050565b6106de61099e565b6106e86000610a83565b565b60008060009054906101000a900473ffffffffffffffffffffffffffffffffffffffff16905090565b80341415806107225750600081145b15610759576040517f2a2bb09200000000000000000000000000000000000000000000000000000000815260040160405180910390fd5b80600260008473ffffffffffffffffffffffffffffffffffffffff1673ffffffffffffffffffffffffffffffffffffffff16815260200190815260200160002060008282546107a89190610ef9565b925050819055508173ffffffffffffffffffffffffffffffffffffffff167ff3cbbad58a635fe73557a2824874af183b5ac83978ae25d57ea4a2011c4df859826040516107f59190610d5d565b60405180910390a25050565b60026020528060005260406000206000915090505481565b60055481565b61082761099e565b600073ffffffffffffffffffffffffffffffffffffffff168173ffffffffffffffffffffffffffffffffffffffff16036108995760006040517f1e4fbdf70000000000000000000000000000000000000000000000000000000081526004016108909190610d33565b60405180910390fd5b6108a281610a83565b50565b60036020528060005260406000206000915090505481565b600680546108ca90610f5c565b80601f01602080910402602001604051908101604052809291908181526020018280546108f690610f5c565b80156109435780601f1061091857610100808354040283529160200191610943565b820191906000526020600020905b81548152906001019060200180831161092657829003601f168201915b505050505081565b600080600080600085875af1905080610999576040517f08c379a000000000000000000000000000000000000000000000000000000000815260040161099090610fd9565b60405180910390fd5b505050565b60006109a8610b47565b90508073ffffffffffffffffffffffffffffffffffffffff166109c96106ea565b73ffffffffffffffffffffffffffffffffffffffff1614158015610a375750600460008273ffffffffffffffffffffffffffffffffffffffff1673ffffffffffffffffffffffffffffffffffffffff16815260200190815260200160002060009054906101000a900460ff16155b15610a8057610a44610b47565b6040517f118cdaa7000000000000000000000000000000000000000000000000000000008152600401610a779190610d33565b60405180910390fd5b50565b60008060009054906101000a900473ffffffffffffffffffffffffffffffffffffffff169050816000806101000a81548173ffffffffffffffffffffffffffffffffffffffff021916908373ffffffffffffffffffffffffffffffffffffffff1602179055508173ffffffffffffffffffffffffffffffffffffffff168173ffffffffffffffffffffffffffffffffffffffff167f8be0079c531659141344cd1fd0a4f28419497f9722a3daafe3b4186f6b6457e060405160405180910390a35050565b600033905090565b600080fd5b600073ffffffffffffffffffffffffffffffffffffffff82169050919050565b6000610b7f82610b54565b9050919050565b610b8f81610b74565b8114610b9a57600080fd5b50565b600081359050610bac81610b86565b92915050565b6000819050919050565b610bc581610bb2565b8114610bd057600080fd5b50565b600081359050610be281610bbc565b92915050565b60008060408385031215610bff57610bfe610b4f565b5b6000610c0d85828601610b9d565b9250506020610c1e85828601610bd3565b9150509250929050565b600060208284031215610c3e57610c3d610b4f565b5b6000610c4c84828501610b9d565b91505092915050565b60008115159050919050565b610c6a81610c55565b82525050565b6000602082019050610c856000830184610c61565b92915050565b600060208284031215610ca157610ca0610b4f565b5b6000610caf84828501610bd3565b91505092915050565b610cc181610c55565b8114610ccc57600080fd5b50565b600081359050610cde81610cb8565b92915050565b60008060408385031215610cfb57610cfa610b4f565b5b6000610d0985828601610b9d565b9250506020610d1a85828601610ccf565b9150509250929050565b610d2d81610b74565b82525050565b6000602082019050610d486000830184610d24565b92915050565b610d5781610bb2565b82525050565b6000602082019050610d726000830184610d4e565b92915050565b600081519050919050565b600082825260208201905092915050565b60005b83811015610db2578082015181840152602081019050610d97565b60008484015250505050565b6000601f19601f8301169050919050565b6000610dda82610d78565b610de48185610d83565b9350610df4818560208601610d94565b610dfd81610dbe565b840191505092915050565b60006020820190508181036000830152610e228184610dcf565b905092915050565b7f5245454e5452414e435900000000000000000000000000000000000000000000600082015250565b6000610e60600a83610d83565b9150610e6b82610e2a565b602082019050919050565b60006020820190508181036000830152610e8f81610e53565b9050919050565b7f4e487b7100000000000000000000000000000000000000000000000000000000600052601160045260246000fd5b6000610ed082610bb2565b9150610edb83610bb2565b9250828203905081811115610ef357610ef2610e96565b5b92915050565b6000610f0482610bb2565b9150610f0f83610bb2565b9250828201905080821115610f2757610f26610e96565b5b92915050565b7f4e487b7100000000000000000000000000000000000000000000000000000000600052602260045260246000fd5b60006002820490506001821680610f7457607f821691505b602082108103610f8757610f86610f2d565b5b50919050565b7f4554485f5452414e534645525f4641494c454400000000000000000000000000600082015250565b6000610fc3601383610d83565b9150610fce82610f8d565b602082019050919050565b60006020820190508181036000830152610ff281610fb6565b905091905056fea2646970667358221220ded4d11dbcf99d66d0eff9399137ba33d09ca9ebd2ddf994758f286633e282ca64736f6c63430008130033",
					"opcodes": "PUSH1 0x80 PUSH1 0x40 MSTORE PUSH1 0x1 DUP1 SSTORE PUSH1 0x2 PUSH1 0x5 SSTORE PUSH1 0x40 MLOAD DUP1 PUSH1 0x40 ADD PUSH1 0x40 MSTORE DUP1 PUSH1 0x5 DUP2 MSTORE PUSH1 0x20 ADD PUSH32 0x312E302E30000000000000000000000000000000000000000000000000000000 DUP2 MSTORE POP PUSH1 0x6 SWAP1 DUP2 PUSH3 0x53 SWAP2 SWAP1 PUSH3 0x4C2 JUMP JUMPDEST POP CALLVALUE DUP1 ISZERO PUSH3 0x61 JUMPI PUSH1 0x0 DUP1 REVERT JUMPDEST POP CALLER PUSH1 0x0 PUSH20 0xFFFFFFFFFFFFFFFFFFFFFFFFFFFFFFFFFFFFFFFF AND DUP2 PUSH20 0xFFFFFFFFFFFFFFFFFFFFFFFFFFFFFFFFFFFFFFFF AND SUB PUSH3 0xD8 JUMPI PUSH1 0x0 PUSH1 0x40 MLOAD PUSH32 0x1E4FBDF700000000000000000000000000000000000000000000000000000000 DUP2 MSTORE PUSH1 0x4 ADD PUSH3 0xCF SWAP2 SWAP1 PUSH3 0x5EE JUMP JUMPDEST PUSH1 0x40 MLOAD DUP1 SWAP2 SUB SWAP1 REVERT JUMPDEST PUSH3 0xE9 DUP2 PUSH3 0x184 PUSH1 0x20 SHL PUSH1 0x20 SHR JUMP JUMPDEST POP PUSH1 0x1 PUSH1 0x4 PUSH1 0x0 CALLER PUSH20 0xFFFFFFFFFFFFFFFFFFFFFFFFFFFFFFFFFFFFFFFF AND PUSH20 0xFFFFFFFFFFFFFFFFFFFFFFFFFFFFFFFFFFFFFFFF AND DUP2 MSTORE PUSH1 0x20 ADD SWAP1 DUP2 MSTORE PUSH1 0x20 ADD PUSH1 0x0 KECCAK256 PUSH1 0x0 PUSH2 0x100 EXP DUP2 SLOAD DUP2 PUSH1 0xFF MUL NOT AND SWAP1 DUP4 ISZERO ISZERO MUL OR SWAP1 SSTORE POP PUSH1 0x4 PUSH32 0x7B78EE99B011DFF919FF5BD97F8A1B33B444782EB490DD7CD487FC963D63676F PUSH1 0x6 PUSH1 0x40 MLOAD PUSH3 0x176 SWAP2 SWAP1 PUSH3 0x6AC JUMP JUMPDEST PUSH1 0x40 MLOAD DUP1 SWAP2 SUB SWAP1 LOG2 PUSH3 0x6D0 JUMP JUMPDEST PUSH1 0x0 DUP1 PUSH1 0x0 SWAP1 SLOAD SWAP1 PUSH2 0x100 EXP SWAP1 DIV PUSH20 0xFFFFFFFFFFFFFFFFFFFFFFFFFFFFFFFFFFFFFFFF AND SWAP1 POP DUP2 PUSH1 0x0 DUP1 PUSH2 0x100 EXP DUP2 SLOAD DUP2 PUSH20 0xFFFFFFFFFFFFFFFFFFFFFFFFFFFFFFFFFFFFFFFF MUL NOT AND SWAP1 DUP4 PUSH20 0xFFFFFFFFFFFFFFFFFFFFFFFFFFFFFFFFFFFFFFFF AND MUL OR SWAP1 SSTORE POP DUP2 PUSH20 0xFFFFFFFFFFFFFFFFFFFFFFFFFFFFFFFFFFFFFFFF AND DUP2 PUSH20 0xFFFFFFFFFFFFFFFFFFFFFFFFFFFFFFFFFFFFFFFF AND PUSH32 0x8BE0079C531659141344CD1FD0A4F28419497F9722A3DAAFE3B4186F6B6457E0 PUSH1 0x40 MLOAD PUSH1 0x40 MLOAD DUP1 SWAP2 SUB SWAP1 LOG3 POP POP JUMP JUMPDEST PUSH1 0x0 DUP2 MLOAD SWAP1 POP SWAP2 SWAP1 POP JUMP JUMPDEST PUSH32 0x4E487B7100000000000000000000000000000000000000000000000000000000 PUSH1 0x0 MSTORE PUSH1 0x41 PUSH1 0x4 MSTORE PUSH1 0x24 PUSH1 0x0 REVERT JUMPDEST PUSH32 0x4E487B7100000000000000000000000000000000000000000000000000000000 PUSH1 0x0 MSTORE PUSH1 0x22 PUSH1 0x4 MSTORE PUSH1 0x24 PUSH1 0x0 REVERT JUMPDEST PUSH1 0x0 PUSH1 0x2 DUP3 DIV SWAP1 POP PUSH1 0x1 DUP3 AND DUP1 PUSH3 0x2CA JUMPI PUSH1 0x7F DUP3 AND SWAP2 POP JUMPDEST PUSH1 0x20 DUP3 LT DUP2 SUB PUSH3 0x2E0 JUMPI PUSH3 0x2DF PUSH3 0x282 JUMP JUMPDEST JUMPDEST POP SWAP2 SWAP1 POP JUMP JUMPDEST PUSH1 0x0 DUP2 SWAP1 POP DUP2 PUSH1 0x0 MSTORE PUSH1 0x20 PUSH1 0x0 KECCAK256 SWAP1 POP SWAP2 SWAP1 POP JUMP JUMPDEST PUSH1 0x0 PUSH1 0x20 PUSH1 0x1F DUP4 ADD DIV SWAP1 POP SWAP2 SWAP1 POP JUMP JUMPDEST PUSH1 0x0 DUP3 DUP3 SHL SWAP1 POP SWAP3 SWAP2 POP POP JUMP JUMPDEST PUSH1 0x0 PUSH1 0x8 DUP4 MUL PUSH3 0x34A PUSH32 0xFFFFFFFFFFFFFFFFFFFFFFFFFFFFFFFFFFFFFFFFFFFFFFFFFFFFFFFFFFFFFFFF DUP3 PUSH3 0x30B JUMP JUMPDEST PUSH3 0x356 DUP7 DUP4 PUSH3 0x30B JUMP JUMPDEST SWAP6 POP DUP1 NOT DUP5 AND SWAP4 POP DUP1 DUP7 AND DUP5 OR SWAP3 POP POP POP SWAP4 SWAP3 POP POP POP JUMP JUMPDEST PUSH1 0x0 DUP2 SWAP1 POP SWAP2 SWAP1 POP JUMP JUMPDEST PUSH1 0x0 DUP2 SWAP1 POP SWAP2 SWAP1 POP JUMP JUMPDEST PUSH1 0x0 PUSH3 0x3A3 PUSH3 0x39D PUSH3 0x397 DUP5 PUSH3 0x36E JUMP JUMPDEST PUSH3 0x378 JUMP JUMPDEST PUSH3 0x36E JUMP JUMPDEST SWAP1 POP SWAP2 SWAP1 POP JUMP JUMPDEST PUSH1 0x0 DUP2 SWAP1 POP SWAP2 SWAP1 POP JUMP JUMPDEST PUSH3 0x3BF DUP4 PUSH3 0x382 JUMP JUMPDEST PUSH3 0x3D7 PUSH3 0x3CE DUP3 PUSH3 0x3AA JUMP JUMPDEST DUP5 DUP5 SLOAD PUSH3 0x318 JUMP JUMPDEST DUP3 SSTORE POP POP POP POP JUMP JUMPDEST PUSH1 0x0 SWAP1 JUMP JUMPDEST PUSH3 0x3EE PUSH3 0x3DF JUMP JUMPDEST PUSH3 0x3FB DUP2 DUP5 DUP5 PUSH3 0x3B4 JUMP JUMPDEST POP POP POP JUMP JUMPDEST JUMPDEST DUP2 DUP2 LT ISZERO PUSH3 0x423 JUMPI PUSH3 0x417 PUSH1 0x0 DUP3 PUSH3 0x3E4 JUMP JUMPDEST PUSH1 0x1 DUP2 ADD SWAP1 POP PUSH3 0x401 JUMP JUMPDEST POP POP JUMP JUMPDEST PUSH1 0x1F DUP3 GT ISZERO PUSH3 0x472 JUMPI PUSH3 0x43C DUP2 PUSH3 0x2E6 JUMP JUMPDEST PUSH3 0x447 DUP5 PUSH3 0x2FB JUMP JUMPDEST DUP2 ADD PUSH1 0x20 DUP6 LT ISZERO PUSH3 0x457 JUMPI DUP2 SWAP1 POP JUMPDEST PUSH3 0x46F PUSH3 0x466 DUP6 PUSH3 0x2FB JUMP JUMPDEST DUP4 ADD DUP3 PUSH3 0x400 JUMP JUMPDEST POP POP JUMPDEST POP POP POP JUMP JUMPDEST PUSH1 0x0 DUP3 DUP3 SHR SWAP1 POP SWAP3 SWAP2 POP POP JUMP JUMPDEST PUSH1 0x0 PUSH3 0x497 PUSH1 0x0 NOT DUP5 PUSH1 0x8 MUL PUSH3 0x477 JUMP JUMPDEST NOT DUP1 DUP4 AND SWAP2 POP POP SWAP3 SWAP2 POP POP JUMP JUMPDEST PUSH1 0x0 PUSH3 0x4B2 DUP4 DUP4 PUSH3 0x484 JUMP JUMPDEST SWAP2 POP DUP3 PUSH1 0x2 MUL DUP3 OR SWAP1 POP SWAP3 SWAP2 POP POP JUMP JUMPDEST PUSH3 0x4CD DUP3 PUSH3 0x248 JUMP JUMPDEST PUSH8 0xFFFFFFFFFFFFFFFF DUP2 GT ISZERO PUSH3 0x4E9 JUMPI PUSH3 0x4E8 PUSH3 0x253 JUMP JUMPDEST JUMPDEST PUSH3 0x4F5 DUP3 SLOAD PUSH3 0x2B1 JUMP JUMPDEST PUSH3 0x502 DUP3 DUP3 DUP6 PUSH3 0x427 JUMP JUMPDEST PUSH1 0x0 PUSH1 0x20 SWAP1 POP PUSH1 0x1F DUP4 GT PUSH1 0x1 DUP2 EQ PUSH3 0x53A JUMPI PUSH1 0x0 DUP5 ISZERO PUSH3 0x525 JUMPI DUP3 DUP8 ADD MLOAD SWAP1 POP JUMPDEST PUSH3 0x531 DUP6 DUP3 PUSH3 0x4A4 JUMP JUMPDEST DUP7 SSTORE POP PUSH3 0x5A1 JUMP JUMPDEST PUSH1 0x1F NOT DUP5 AND PUSH3 0x54A DUP7 PUSH3 0x2E6 JUMP JUMPDEST PUSH1 0x0 JUMPDEST DUP3 DUP2 LT ISZERO PUSH3 0x574 JUMPI DUP5 DUP10 ADD MLOAD DUP3 SSTORE PUSH1 0x1 DUP3 ADD SWAP2 POP PUSH1 0x20 DUP6 ADD SWAP5 POP PUSH1 0x20 DUP2 ADD SWAP1 POP PUSH3 0x54D JUMP JUMPDEST DUP7 DUP4 LT ISZERO PUSH3 0x594 JUMPI DUP5 DUP10 ADD MLOAD PUSH3 0x590 PUSH1 0x1F DUP10 AND DUP3 PUSH3 0x484 JUMP JUMPDEST DUP4 SSTORE POP JUMPDEST PUSH1 0x1 PUSH1 0x2 DUP9 MUL ADD DUP9 SSTORE POP POP POP JUMPDEST POP POP POP POP POP POP JUMP JUMPDEST PUSH1 0x0 PUSH20 0xFFFFFFFFFFFFFFFFFFFFFFFFFFFFFFFFFFFFFFFF DUP3 AND SWAP1 POP SWAP2 SWAP1 POP JUMP JUMPDEST PUSH1 0x0 PUSH3 0x5D6 DUP3 PUSH3 0x5A9 JUMP JUMPDEST SWAP1 POP SWAP2 SWAP1 POP JUMP JUMPDEST PUSH3 0x5E8 DUP2 PUSH3 0x5C9 JUMP JUMPDEST DUP3 MSTORE POP POP JUMP JUMPDEST PUSH1 0x0 PUSH1 0x20 DUP3 ADD SWAP1 POP PUSH3 0x605 PUSH1 0x0 DUP4 ADD DUP5 PUSH3 0x5DD JUMP JUMPDEST SWAP3 SWAP2 POP POP JUMP JUMPDEST PUSH1 0x0 DUP3 DUP3 MSTORE PUSH1 0x20 DUP3 ADD SWAP1 POP SWAP3 SWAP2 POP POP JUMP JUMPDEST PUSH1 0x0 DUP2 SLOAD PUSH3 0x62B DUP2 PUSH3 0x2B1 JUMP JUMPDEST PUSH3 0x637 DUP2 DUP7 PUSH3 0x60B JUMP JUMPDEST SWAP5 POP PUSH1 0x1 DUP3 AND PUSH1 0x0 DUP2 EQ PUSH3 0x655 JUMPI PUSH1 0x1 DUP2 EQ PUSH3 0x66C JUMPI PUSH3 0x6A3 JUMP JUMPDEST PUSH1 0xFF NOT DUP4 AND DUP7 MSTORE DUP2 ISZERO ISZERO PUSH1 0x20 MUL DUP7 ADD SWAP4 POP PUSH3 0x6A3 JUMP JUMPDEST PUSH3 0x677 DUP6 PUSH3 0x2E6 JUMP JUMPDEST PUSH1 0x0 JUMPDEST DUP4 DUP2 LT ISZERO PUSH3 0x69B JUMPI DUP2 SLOAD DUP2 DUP10 ADD MSTORE PUSH1 0x1 DUP3 ADD SWAP2 POP PUSH1 0x20 DUP2 ADD SWAP1 POP PUSH3 0x67A JUMP JUMPDEST DUP1 DUP9 ADD SWAP6 POP POP POP JUMPDEST POP POP POP SWAP3 SWAP2 POP POP JUMP JUMPDEST PUSH1 0x0 PUSH1 0x20 DUP3 ADD SWAP1 POP DUP2 DUP2 SUB PUSH1 0x0 DUP4 ADD MSTORE PUSH3 0x6C8 DUP2 DUP5 PUSH3 0x61C JUMP JUMPDEST SWAP1 POP SWAP3 SWAP2 POP POP JUMP JUMPDEST PUSH2 0x102F DUP1 PUSH3 0x6E0 PUSH1 0x0 CODECOPY PUSH1 0x0 RETURN INVALID PUSH1 0x80 PUSH1 0x40 MSTORE PUSH1 0x4 CALLDATASIZE LT PUSH2 0xC6 JUMPI PUSH1 0x0 CALLDATALOAD PUSH1 0xE0 SHR DUP1 PUSH4 0x8DA5CB5B GT PUSH2 0x7F JUMPI DUP1 PUSH4 0xE44CEC7C GT PUSH2 0x59 JUMPI DUP1 PUSH4 0xE44CEC7C EQ PUSH2 0x23C JUMPI DUP1 PUSH4 0xF2FDE38B EQ PUSH2 0x267 JUMPI DUP1 PUSH4 0xF54B893B EQ PUSH2 0x290 JUMPI DUP1 PUSH4 0xF8B1CB3C EQ PUSH2 0x2CD JUMPI PUSH2 0xCD JUMP JUMPDEST DUP1 PUSH4 0x8DA5CB5B EQ PUSH2 0x1B8 JUMPI DUP1 PUSH4 0xB43E6A53 EQ PUSH2 0x1E3 JUMPI DUP1 PUSH4 0xDF0F0951 EQ PUSH2 0x1FF JUMPI PUSH2 0xCD JUMP JUMPDEST DUP1 PUSH4 0x99A04E5 EQ PUSH2 0xD2 JUMPI DUP1 PUSH4 0x24D7806C EQ PUSH2 0xFB JUMPI DUP1 PUSH4 0x30710D04 EQ PUSH2 0x138 JUMPI DUP1 PUSH4 0x48C54B9D EQ PUSH2 0x161 JUMPI DUP1 PUSH4 0x4B0BDDD2 EQ PUSH2 0x178 JUMPI DUP1 PUSH4 0x715018A6 EQ PUSH2 0x1A1 JUMPI PUSH2 0xCD JUMP JUMPDEST CALLDATASIZE PUSH2 0xCD JUMPI STOP JUMPDEST PUSH1 0x0 DUP1 REVERT JUMPDEST CALLVALUE DUP1 ISZERO PUSH2 0xDE JUMPI PUSH1 0x0 DUP1 REVERT JUMPDEST POP PUSH2 0xF9 PUSH1 0x4 DUP1 CALLDATASIZE SUB DUP2 ADD SWAP1 PUSH2 0xF4 SWAP2 SWAP1 PUSH2 0xBE8 JUMP JUMPDEST PUSH2 0x2F8 JUMP JUMPDEST STOP JUMPDEST CALLVALUE DUP1 ISZERO PUSH2 0x107 JUMPI PUSH1 0x0 DUP1 REVERT JUMPDEST POP PUSH2 0x122 PUSH1 0x4 DUP1 CALLDATASIZE SUB DUP2 ADD SWAP1 PUSH2 0x11D SWAP2 SWAP1 PUSH2 0xC28 JUMP JUMPDEST PUSH2 0x372 JUMP JUMPDEST PUSH1 0x40 MLOAD PUSH2 0x12F SWAP2 SWAP1 PUSH2 0xC70 JUMP JUMPDEST PUSH1 0x40 MLOAD DUP1 SWAP2 SUB SWAP1 RETURN JUMPDEST CALLVALUE DUP1 ISZERO PUSH2 0x144 JUMPI PUSH1 0x0 DUP1 REVERT JUMPDEST POP PUSH2 0x15F PUSH1 0x4 DUP1 CALLDATASIZE SUB DUP2 ADD SWAP1 PUSH2 0x15A SWAP2 SWAP1 PUSH2 0xC8B JUMP JUMPDEST PUSH2 0x392 JUMP JUMPDEST STOP JUMPDEST CALLVALUE DUP1 ISZERO PUSH2 0x16D JUMPI PUSH1 0x0 DUP1 REVERT JUMPDEST POP PUSH2 0x176 PUSH2 0x3A4 JUMP JUMPDEST STOP JUMPDEST CALLVALUE DUP1 ISZERO PUSH2 0x184 JUMPI PUSH1 0x0 DUP1 REVERT JUMPDEST POP PUSH2 0x19F PUSH1 0x4 DUP1 CALLDATASIZE SUB DUP2 ADD SWAP1 PUSH2 0x19A SWAP2 SWAP1 PUSH2 0xCE4 JUMP JUMPDEST PUSH2 0x60F JUMP JUMPDEST STOP JUMPDEST CALLVALUE DUP1 ISZERO PUSH2 0x1AD JUMPI PUSH1 0x0 DUP1 REVERT JUMPDEST POP PUSH2 0x1B6 PUSH2 0x6D6 JUMP JUMPDEST STOP JUMPDEST CALLVALUE DUP1 ISZERO PUSH2 0x1C4 JUMPI PUSH1 0x0 DUP1 REVERT JUMPDEST POP PUSH2 0x1CD PUSH2 0x6EA JUMP JUMPDEST PUSH1 0x40 MLOAD PUSH2 0x1DA SWAP2 SWAP1 PUSH2 0xD33 JUMP JUMPDEST PUSH1 0x40 MLOAD DUP1 SWAP2 SUB SWAP1 RETURN JUMPDEST PUSH2 0x1FD PUSH1 0x4 DUP1 CALLDATASIZE SUB DUP2 ADD SWAP1 PUSH2 0x1F8 SWAP2 SWAP1 PUSH2 0xBE8 JUMP JUMPDEST PUSH2 0x713 JUMP JUMPDEST STOP JUMPDEST CALLVALUE DUP1 ISZERO PUSH2 0x20B JUMPI PUSH1 0x0 DUP1 REVERT JUMPDEST POP PUSH2 0x226 PUSH1 0x4 DUP1 CALLDATASIZE SUB DUP2 ADD SWAP1 PUSH2 0x221 SWAP2 SWAP1 PUSH2 0xC28 JUMP JUMPDEST PUSH2 0x801 JUMP JUMPDEST PUSH1 0x40 MLOAD PUSH2 0x233 SWAP2 SWAP1 PUSH2 0xD5D JUMP JUMPDEST PUSH1 0x40 MLOAD DUP1 SWAP2 SUB SWAP1 RETURN JUMPDEST CALLVALUE DUP1 ISZERO PUSH2 0x248 JUMPI PUSH1 0x0 DUP1 REVERT JUMPDEST POP PUSH2 0x251 PUSH2 0x819 JUMP JUMPDEST PUSH1 0x40 MLOAD PUSH2 0x25E SWAP2 SWAP1 PUSH2 0xD5D JUMP JUMPDEST PUSH1 0x40 MLOAD DUP1 SWAP2 SUB SWAP1 RETURN JUMPDEST CALLVALUE DUP1 ISZERO PUSH2 0x273 JUMPI PUSH1 0x0 DUP1 REVERT JUMPDEST POP PUSH2 0x28E PUSH1 0x4 DUP1 CALLDATASIZE SUB DUP2 ADD SWAP1 PUSH2 0x289 SWAP2 SWAP1 PUSH2 0xC28 JUMP JUMPDEST PUSH2 0x81F JUMP JUMPDEST STOP JUMPDEST CALLVALUE DUP1 ISZERO PUSH2 0x29C JUMPI PUSH1 0x0 DUP1 REVERT JUMPDEST POP PUSH2 0x2B7 PUSH1 0x4 DUP1 CALLDATASIZE SUB DUP2 ADD SWAP1 PUSH2 0x2B2 SWAP2 SWAP1 PUSH2 0xC28 JUMP JUMPDEST PUSH2 0x8A5 JUMP JUMPDEST PUSH1 0x40 MLOAD PUSH2 0x2C4 SWAP2 SWAP1 PUSH2 0xD5D JUMP JUMPDEST PUSH1 0x40 MLOAD DUP1 SWAP2 SUB SWAP1 RETURN JUMPDEST CALLVALUE DUP1 ISZERO PUSH2 0x2D9 JUMPI PUSH1 0x0 DUP1 REVERT JUMPDEST POP PUSH2 0x2E2 PUSH2 0x8BD JUMP JUMPDEST PUSH1 0x40 MLOAD PUSH2 0x2EF SWAP2 SWAP1 PUSH2 0xE08 JUMP JUMPDEST PUSH1 0x40 MLOAD DUP1 SWAP2 SUB SWAP1 RETURN JUMPDEST PUSH2 0x300 PUSH2 0x6EA JUMP JUMPDEST PUSH20 0xFFFFFFFFFFFFFFFFFFFFFFFFFFFFFFFFFFFFFFFF AND CALLER PUSH20 0xFFFFFFFFFFFFFFFFFFFFFFFFFFFFFFFFFFFFFFFF AND EQ PUSH2 0x364 JUMPI PUSH1 0x40 MLOAD PUSH32 0xAD9CD75900000000000000000000000000000000000000000000000000000000 DUP2 MSTORE PUSH1 0x4 ADD PUSH1 0x40 MLOAD DUP1 SWAP2 SUB SWAP1 REVERT JUMPDEST PUSH2 0x36E DUP3 DUP3 PUSH2 0x94B JUMP JUMPDEST POP POP JUMP JUMPDEST PUSH1 0x4 PUSH1 0x20 MSTORE DUP1 PUSH1 0x0 MSTORE PUSH1 0x40 PUSH1 0x0 KECCAK256 PUSH1 0x0 SWAP2 POP SLOAD SWAP1 PUSH2 0x100 EXP SWAP1 DIV PUSH1 0xFF AND DUP2 JUMP JUMPDEST PUSH2 0x39A PUSH2 0x99E JUMP JUMPDEST DUP1 PUSH1 0x5 DUP2 SWAP1 SSTORE POP POP JUMP JUMPDEST PUSH1 0x1 DUP1 SLOAD EQ PUSH2 0x3E8 JUMPI PUSH1 0x40 MLOAD PUSH32 0x8C379A000000000000000000000000000000000000000000000000000000000 DUP2 MSTORE PUSH1 0x4 ADD PUSH2 0x3DF SWAP1 PUSH2 0xE76 JUMP JUMPDEST PUSH1 0x40 MLOAD DUP1 SWAP2 SUB SWAP1 REVERT JUMPDEST PUSH1 0x2 PUSH1 0x1 DUP2 SWAP1 SSTORE POP CALLER PUSH20 0xFFFFFFFFFFFFFFFFFFFFFFFFFFFFFFFFFFFFFFFF AND ORIGIN PUSH20 0xFFFFFFFFFFFFFFFFFFFFFFFFFFFFFFFFFFFFFFFF AND EQ PUSH2 0x455 JUMPI PUSH1 0x40 MLOAD PUSH32 0x3691D20A00000000000000000000000000000000000000000000000000000000 DUP2 MSTORE PUSH1 0x4 ADD PUSH1 0x40 MLOAD DUP1 SWAP2 SUB SWAP1 REVERT JUMPDEST PUSH1 0x0 PUSH1 0x3 PUSH1 0x0 CALLER PUSH20 0xFFFFFFFFFFFFFFFFFFFFFFFFFFFFFFFFFFFFFFFF AND PUSH20 0xFFFFFFFFFFFFFFFFFFFFFFFFFFFFFFFFFFFFFFFF AND DUP2 MSTORE PUSH1 0x20 ADD SWAP1 DUP2 MSTORE PUSH1 0x20 ADD PUSH1 0x0 KECCAK256 SLOAD PUSH1 0x2 PUSH1 0x0 CALLER PUSH20 0xFFFFFFFFFFFFFFFFFFFFFFFFFFFFFFFFFFFFFFFF AND PUSH20 0xFFFFFFFFFFFFFFFFFFFFFFFFFFFFFFFFFFFFFFFF AND DUP2 MSTORE PUSH1 0x20 ADD SWAP1 DUP2 MSTORE PUSH1 0x20 ADD PUSH1 0x0 KECCAK256 SLOAD PUSH2 0x4E1 SWAP2 SWAP1 PUSH2 0xEC5 JUMP JUMPDEST SWAP1 POP PUSH1 0x0 DUP2 GT PUSH2 0x51D JUMPI PUSH1 0x40 MLOAD PUSH32 0x6F9C7FCF00000000000000000000000000000000000000000000000000000000 DUP2 MSTORE PUSH1 0x4 ADD PUSH1 0x40 MLOAD DUP1 SWAP2 SUB SWAP1 REVERT JUMPDEST DUP1 SELFBALANCE LT ISZERO PUSH2 0x557 JUMPI PUSH1 0x40 MLOAD PUSH32 0xABF01A0800000000000000000000000000000000000000000000000000000000 DUP2 MSTORE PUSH1 0x4 ADD PUSH1 0x40 MLOAD DUP1 SWAP2 SUB SWAP1 REVERT JUMPDEST DUP1 PUSH1 0x3 PUSH1 0x0 CALLER PUSH20 0xFFFFFFFFFFFFFFFFFFFFFFFFFFFFFFFFFFFFFFFF AND PUSH20 0xFFFFFFFFFFFFFFFFFFFFFFFFFFFFFFFFFFFFFFFF AND DUP2 MSTORE PUSH1 0x20 ADD SWAP1 DUP2 MSTORE PUSH1 0x20 ADD PUSH1 0x0 KECCAK256 PUSH1 0x0 DUP3 DUP3 SLOAD PUSH2 0x5A6 SWAP2 SWAP1 PUSH2 0xEF9 JUMP JUMPDEST SWAP3 POP POP DUP2 SWAP1 SSTORE POP PUSH2 0x5B7 CALLER DUP3 PUSH2 0x94B JUMP JUMPDEST CALLER PUSH20 0xFFFFFFFFFFFFFFFFFFFFFFFFFFFFFFFFFFFFFFFF AND PUSH32 0x896E034966EAAF1ADC54ACC0F257056FEBBD300C9E47182CF761982CF1F5E430 DUP3 PUSH1 0x40 MLOAD PUSH2 0x5FD SWAP2 SWAP1 PUSH2 0xD5D JUMP JUMPDEST PUSH1 0x40 MLOAD DUP1 SWAP2 SUB SWAP1 LOG2 POP PUSH1 0x1 DUP1 DUP2 SWAP1 SSTORE POP JUMP JUMPDEST PUSH2 0x617 PUSH2 0x6EA JUMP JUMPDEST PUSH20 0xFFFFFFFFFFFFFFFFFFFFFFFFFFFFFFFFFFFFFFFF AND CALLER PUSH20 0xFFFFFFFFFFFFFFFFFFFFFFFFFFFFFFFFFFFFFFFF AND EQ PUSH2 0x67B JUMPI PUSH1 0x40 MLOAD PUSH32 0xAD9CD75900000000000000000000000000000000000000000000000000000000 DUP2 MSTORE PUSH1 0x4 ADD PUSH1 0x40 MLOAD DUP1 SWAP2 SUB SWAP1 REVERT JUMPDEST DUP1 PUSH1 0x4 PUSH1 0x0 DUP5 PUSH20 0xFFFFFFFFFFFFFFFFFFFFFFFFFFFFFFFFFFFFFFFF AND PUSH20 0xFFFFFFFFFFFFFFFFFFFFFFFFFFFFFFFFFFFFFFFF AND DUP2 MSTORE PUSH1 0x20 ADD SWAP1 DUP2 MSTORE PUSH1 0x20 ADD PUSH1 0x0 KECCAK256 PUSH1 0x0 PUSH2 0x100 EXP DUP2 SLOAD DUP2 PUSH1 0xFF MUL NOT AND SWAP1 DUP4 ISZERO ISZERO MUL OR SWAP1 SSTORE POP POP POP JUMP JUMPDEST PUSH2 0x6DE PUSH2 0x99E JUMP JUMPDEST PUSH2 0x6E8 PUSH1 0x0 PUSH2 0xA83 JUMP JUMPDEST JUMP JUMPDEST PUSH1 0x0 DUP1 PUSH1 0x0 SWAP1 SLOAD SWAP1 PUSH2 0x100 EXP SWAP1 DIV PUSH20 0xFFFFFFFFFFFFFFFFFFFFFFFFFFFFFFFFFFFFFFFF AND SWAP1 POP SWAP1 JUMP JUMPDEST DUP1 CALLVALUE EQ ISZERO DUP1 PUSH2 0x722 JUMPI POP PUSH1 0x0 DUP2 EQ JUMPDEST ISZERO PUSH2 0x759 JUMPI PUSH1 0x40 MLOAD PUSH32 0x2A2BB09200000000000000000000000000000000000000000000000000000000 DUP2 MSTORE PUSH1 0x4 ADD PUSH1 0x40 MLOAD DUP1 SWAP2 SUB SWAP1 REVERT JUMPDEST DUP1 PUSH1 0x2 PUSH1 0x0 DUP5 PUSH20 0xFFFFFFFFFFFFFFFFFFFFFFFFFFFFFFFFFFFFFFFF AND PUSH20 0xFFFFFFFFFFFFFFFFFFFFFFFFFFFFFFFFFFFFFFFF AND DUP2 MSTORE PUSH1 0x20 ADD SWAP1 DUP2 MSTORE PUSH1 0x20 ADD PUSH1 0x0 KECCAK256 PUSH1 0x0 DUP3 DUP3 SLOAD PUSH2 0x7A8 SWAP2 SWAP1 PUSH2 0xEF9 JUMP JUMPDEST SWAP3 POP POP DUP2 SWAP1 SSTORE POP DUP2 PUSH20 0xFFFFFFFFFFFFFFFFFFFFFFFFFFFFFFFFFFFFFFFF AND PUSH32 0xF3CBBAD58A635FE73557A2824874AF183B5AC83978AE25D57EA4A2011C4DF859 DUP3 PUSH1 0x40 MLOAD PUSH2 0x7F5 SWAP2 SWAP1 PUSH2 0xD5D JUMP JUMPDEST PUSH1 0x40 MLOAD DUP1 SWAP2 SUB SWAP1 LOG2 POP POP JUMP JUMPDEST PUSH1 0x2 PUSH1 0x20 MSTORE DUP1 PUSH1 0x0 MSTORE PUSH1 0x40 PUSH1 0x0 KECCAK256 PUSH1 0x0 SWAP2 POP SWAP1 POP SLOAD DUP2 JUMP JUMPDEST PUSH1 0x5 SLOAD DUP2 JUMP JUMPDEST PUSH2 0x827 PUSH2 0x99E JUMP JUMPDEST PUSH1 0x0 PUSH20 0xFFFFFFFFFFFFFFFFFFFFFFFFFFFFFFFFFFFFFFFF AND DUP2 PUSH20 0xFFFFFFFFFFFFFFFFFFFFFFFFFFFFFFFFFFFFFFFF AND SUB PUSH2 0x899 JUMPI PUSH1 0x0 PUSH1 0x40 MLOAD PUSH32 0x1E4FBDF700000000000000000000000000000000000000000000000000000000 DUP2 MSTORE PUSH1 0x4 ADD PUSH2 0x890 SWAP2 SWAP1 PUSH2 0xD33 JUMP JUMPDEST PUSH1 0x40 MLOAD DUP1 SWAP2 SUB SWAP1 REVERT JUMPDEST PUSH2 0x8A2 DUP2 PUSH2 0xA83 JUMP JUMPDEST POP JUMP JUMPDEST PUSH1 0x3 PUSH1 0x20 MSTORE DUP1 PUSH1 0x0 MSTORE PUSH1 0x40 PUSH1 0x0 KECCAK256 PUSH1 0x0 SWAP2 POP SWAP1 POP SLOAD DUP2 JUMP JUMPDEST PUSH1 0x6 DUP1 SLOAD PUSH2 0x8CA SWAP1 PUSH2 0xF5C JUMP JUMPDEST DUP1 PUSH1 0x1F ADD PUSH1 0x20 DUP1 SWAP2 DIV MUL PUSH1 0x20 ADD PUSH1 0x40 MLOAD SWAP1 DUP2 ADD PUSH1 0x40 MSTORE DUP1 SWAP3 SWAP2 SWAP1 DUP2 DUP2 MSTORE PUSH1 0x20 ADD DUP3 DUP1 SLOAD PUSH2 0x8F6 SWAP1 PUSH2 0xF5C JUMP JUMPDEST DUP1 ISZERO PUSH2 0x943 JUMPI DUP1 PUSH1 0x1F LT PUSH2 0x918 JUMPI PUSH2 0x100 DUP1 DUP4 SLOAD DIV MUL DUP4 MSTORE SWAP2 PUSH1 0x20 ADD SWAP2 PUSH2 0x943 JUMP JUMPDEST DUP3 ADD SWAP2 SWAP1 PUSH1 0x0 MSTORE PUSH1 0x20 PUSH1 0x0 KECCAK256 SWAP1 JUMPDEST DUP2 SLOAD DUP2 MSTORE SWAP1 PUSH1 0x1 ADD SWAP1 PUSH1 0x20 ADD DUP1 DUP4 GT PUSH2 0x926 JUMPI DUP3 SWAP1 SUB PUSH1 0x1F AND DUP3 ADD SWAP2 JUMPDEST POP POP POP POP POP DUP2 JUMP JUMPDEST PUSH1 0x0 DUP1 PUSH1 0x0 DUP1 PUSH1 0x0 DUP6 DUP8 GAS CALL SWAP1 POP DUP1 PUSH2 0x999 JUMPI PUSH1 0x40 MLOAD PUSH32 0x8C379A000000000000000000000000000000000000000000000000000000000 DUP2 MSTORE PUSH1 0x4 ADD PUSH2 0x990 SWAP1 PUSH2 0xFD9 JUMP JUMPDEST PUSH1 0x40 MLOAD DUP1 SWAP2 SUB SWAP1 REVERT JUMPDEST POP POP POP JUMP JUMPDEST PUSH1 0x0 PUSH2 0x9A8 PUSH2 0xB47 JUMP JUMPDEST SWAP1 POP DUP1 PUSH20 0xFFFFFFFFFFFFFFFFFFFFFFFFFFFFFFFFFFFFFFFF AND PUSH2 0x9C9 PUSH2 0x6EA JUMP JUMPDEST PUSH20 0xFFFFFFFFFFFFFFFFFFFFFFFFFFFFFFFFFFFFFFFF AND EQ ISZERO DUP1 ISZERO PUSH2 0xA37 JUMPI POP PUSH1 0x4 PUSH1 0x0 DUP3 PUSH20 0xFFFFFFFFFFFFFFFFFFFFFFFFFFFFFFFFFFFFFFFF AND PUSH20 0xFFFFFFFFFFFFFFFFFFFFFFFFFFFFFFFFFFFFFFFF AND DUP2 MSTORE PUSH1 0x20 ADD SWAP1 DUP2 MSTORE PUSH1 0x20 ADD PUSH1 0x0 KECCAK256 PUSH1 0x0 SWAP1 SLOAD SWAP1 PUSH2 0x100 EXP SWAP1 DIV PUSH1 0xFF AND ISZERO JUMPDEST ISZERO PUSH2 0xA80 JUMPI PUSH2 0xA44 PUSH2 0xB47 JUMP JUMPDEST PUSH1 0x40 MLOAD PUSH32 0x118CDAA700000000000000000000000000000000000000000000000000000000 DUP2 MSTORE PUSH1 0x4 ADD PUSH2 0xA77 SWAP2 SWAP1 PUSH2 0xD33 JUMP JUMPDEST PUSH1 0x40 MLOAD DUP1 SWAP2 SUB SWAP1 REVERT JUMPDEST POP JUMP JUMPDEST PUSH1 0x0 DUP1 PUSH1 0x0 SWAP1 SLOAD SWAP1 PUSH2 0x100 EXP SWAP1 DIV PUSH20 0xFFFFFFFFFFFFFFFFFFFFFFFFFFFFFFFFFFFFFFFF AND SWAP1 POP DUP2 PUSH1 0x0 DUP1 PUSH2 0x100 EXP DUP2 SLOAD DUP2 PUSH20 0xFFFFFFFFFFFFFFFFFFFFFFFFFFFFFFFFFFFFFFFF MUL NOT AND SWAP1 DUP4 PUSH20 0xFFFFFFFFFFFFFFFFFFFFFFFFFFFFFFFFFFFFFFFF AND MUL OR SWAP1 SSTORE POP DUP2 PUSH20 0xFFFFFFFFFFFFFFFFFFFFFFFFFFFFFFFFFFFFFFFF AND DUP2 PUSH20 0xFFFFFFFFFFFFFFFFFFFFFFFFFFFFFFFFFFFFFFFF AND PUSH32 0x8BE0079C531659141344CD1FD0A4F28419497F9722A3DAAFE3B4186F6B6457E0 PUSH1 0x40 MLOAD PUSH1 0x40 MLOAD DUP1 SWAP2 SUB SWAP1 LOG3 POP POP JUMP JUMPDEST PUSH1 0x0 CALLER SWAP1 POP SWAP1 JUMP JUMPDEST PUSH1 0x0 DUP1 REVERT JUMPDEST PUSH1 0x0 PUSH20 0xFFFFFFFFFFFFFFFFFFFFFFFFFFFFFFFFFFFFFFFF DUP3 AND SWAP1 POP SWAP2 SWAP1 POP JUMP JUMPDEST PUSH1 0x0 PUSH2 0xB7F DUP3 PUSH2 0xB54 JUMP JUMPDEST SWAP1 POP SWAP2 SWAP1 POP JUMP JUMPDEST PUSH2 0xB8F DUP2 PUSH2 0xB74 JUMP JUMPDEST DUP2 EQ PUSH2 0xB9A JUMPI PUSH1 0x0 DUP1 REVERT JUMPDEST POP JUMP JUMPDEST PUSH1 0x0 DUP2 CALLDATALOAD SWAP1 POP PUSH2 0xBAC DUP2 PUSH2 0xB86 JUMP JUMPDEST SWAP3 SWAP2 POP POP JUMP JUMPDEST PUSH1 0x0 DUP2 SWAP1 POP SWAP2 SWAP1 POP JUMP JUMPDEST PUSH2 0xBC5 DUP2 PUSH2 0xBB2 JUMP JUMPDEST DUP2 EQ PUSH2 0xBD0 JUMPI PUSH1 0x0 DUP1 REVERT JUMPDEST POP JUMP JUMPDEST PUSH1 0x0 DUP2 CALLDATALOAD SWAP1 POP PUSH2 0xBE2 DUP2 PUSH2 0xBBC JUMP JUMPDEST SWAP3 SWAP2 POP POP JUMP JUMPDEST PUSH1 0x0 DUP1 PUSH1 0x40 DUP4 DUP6 SUB SLT ISZERO PUSH2 0xBFF JUMPI PUSH2 0xBFE PUSH2 0xB4F JUMP JUMPDEST JUMPDEST PUSH1 0x0 PUSH2 0xC0D DUP6 DUP3 DUP7 ADD PUSH2 0xB9D JUMP JUMPDEST SWAP3 POP POP PUSH1 0x20 PUSH2 0xC1E DUP6 DUP3 DUP7 ADD PUSH2 0xBD3 JUMP JUMPDEST SWAP2 POP POP SWAP3 POP SWAP3 SWAP1 POP JUMP JUMPDEST PUSH1 0x0 PUSH1 0x20 DUP3 DUP5 SUB SLT ISZERO PUSH2 0xC3E JUMPI PUSH2 0xC3D PUSH2 0xB4F JUMP JUMPDEST JUMPDEST PUSH1 0x0 PUSH2 0xC4C DUP5 DUP3 DUP6 ADD PUSH2 0xB9D JUMP JUMPDEST SWAP2 POP POP SWAP3 SWAP2 POP POP JUMP JUMPDEST PUSH1 0x0 DUP2 ISZERO ISZERO SWAP1 POP SWAP2 SWAP1 POP JUMP JUMPDEST PUSH2 0xC6A DUP2 PUSH2 0xC55 JUMP JUMPDEST DUP3 MSTORE POP POP JUMP JUMPDEST PUSH1 0x0 PUSH1 0x20 DUP3 ADD SWAP1 POP PUSH2 0xC85 PUSH1 0x0 DUP4 ADD DUP5 PUSH2 0xC61 JUMP JUMPDEST SWAP3 SWAP2 POP POP JUMP JUMPDEST PUSH1 0x0 PUSH1 0x20 DUP3 DUP5 SUB SLT ISZERO PUSH2 0xCA1 JUMPI PUSH2 0xCA0 PUSH2 0xB4F JUMP JUMPDEST JUMPDEST PUSH1 0x0 PUSH2 0xCAF DUP5 DUP3 DUP6 ADD PUSH2 0xBD3 JUMP JUMPDEST SWAP2 POP POP SWAP3 SWAP2 POP POP JUMP JUMPDEST PUSH2 0xCC1 DUP2 PUSH2 0xC55 JUMP JUMPDEST DUP2 EQ PUSH2 0xCCC JUMPI PUSH1 0x0 DUP1 REVERT JUMPDEST POP JUMP JUMPDEST PUSH1 0x0 DUP2 CALLDATALOAD SWAP1 POP PUSH2 0xCDE DUP2 PUSH2 0xCB8 JUMP JUMPDEST SWAP3 SWAP2 POP POP JUMP JUMPDEST PUSH1 0x0 DUP1 PUSH1 0x40 DUP4 DUP6 SUB SLT ISZERO PUSH2 0xCFB JUMPI PUSH2 0xCFA PUSH2 0xB4F JUMP JUMPDEST JUMPDEST PUSH1 0x0 PUSH2 0xD09 DUP6 DUP3 DUP7 ADD PUSH2 0xB9D JUMP JUMPDEST SWAP3 POP POP PUSH1 0x20 PUSH2 0xD1A DUP6 DUP3 DUP7 ADD PUSH2 0xCCF JUMP JUMPDEST SWAP2 POP POP SWAP3 POP SWAP3 SWAP1 POP JUMP JUMPDEST PUSH2 0xD2D DUP2 PUSH2 0xB74 JUMP JUMPDEST DUP3 MSTORE POP POP JUMP JUMPDEST PUSH1 0x0 PUSH1 0x20 DUP3 ADD SWAP1 POP PUSH2 0xD48 PUSH1 0x0 DUP4 ADD DUP5 PUSH2 0xD24 JUMP JUMPDEST SWAP3 SWAP2 POP POP JUMP JUMPDEST PUSH2 0xD57 DUP2 PUSH2 0xBB2 JUMP JUMPDEST DUP3 MSTORE POP POP JUMP JUMPDEST PUSH1 0x0 PUSH1 0x20 DUP3 ADD SWAP1 POP PUSH2 0xD72 PUSH1 0x0 DUP4 ADD DUP5 PUSH2 0xD4E JUMP JUMPDEST SWAP3 SWAP2 POP POP JUMP JUMPDEST PUSH1 0x0 DUP2 MLOAD SWAP1 POP SWAP2 SWAP1 POP JUMP JUMPDEST PUSH1 0x0 DUP3 DUP3 MSTORE PUSH1 0x20 DUP3 ADD SWAP1 POP SWAP3 SWAP2 POP POP JUMP JUMPDEST PUSH1 0x0 JUMPDEST DUP4 DUP2 LT ISZERO PUSH2 0xDB2 JUMPI DUP1 DUP3 ADD MLOAD DUP2 DUP5 ADD MSTORE PUSH1 0x20 DUP2 ADD SWAP1 POP PUSH2 0xD97 JUMP JUMPDEST PUSH1 0x0 DUP5 DUP5 ADD MSTORE POP POP POP POP JUMP JUMPDEST PUSH1 0x0 PUSH1 0x1F NOT PUSH1 0x1F DUP4 ADD AND SWAP1 POP SWAP2 SWAP1 POP JUMP JUMPDEST PUSH1 0x0 PUSH2 0xDDA DUP3 PUSH2 0xD78 JUMP JUMPDEST PUSH2 0xDE4 DUP2 DUP6 PUSH2 0xD83 JUMP JUMPDEST SWAP4 POP PUSH2 0xDF4 DUP2 DUP6 PUSH1 0x20 DUP7 ADD PUSH2 0xD94 JUMP JUMPDEST PUSH2 0xDFD DUP2 PUSH2 0xDBE JUMP JUMPDEST DUP5 ADD SWAP2 POP POP SWAP3 SWAP2 POP POP JUMP JUMPDEST PUSH1 0x0 PUSH1 0x20 DUP3 ADD SWAP1 POP DUP2 DUP2 SUB PUSH1 0x0 DUP4 ADD MSTORE PUSH2 0xE22 DUP2 DUP5 PUSH2 0xDCF JUMP JUMPDEST SWAP1 POP SWAP3 SWAP2 POP POP JUMP JUMPDEST PUSH32 0x5245454E5452414E435900000000000000000000000000000000000000000000 PUSH1 0x0 DUP3 ADD MSTORE POP JUMP JUMPDEST PUSH1 0x0 PUSH2 0xE60 PUSH1 0xA DUP4 PUSH2 0xD83 JUMP JUMPDEST SWAP2 POP PUSH2 0xE6B DUP3 PUSH2 0xE2A JUMP JUMPDEST PUSH1 0x20 DUP3 ADD SWAP1 POP SWAP2 SWAP1 POP JUMP JUMPDEST PUSH1 0x0 PUSH1 0x20 DUP3 ADD SWAP1 POP DUP2 DUP2 SUB PUSH1 0x0 DUP4 ADD MSTORE PUSH2 0xE8F DUP2 PUSH2 0xE53 JUMP JUMPDEST SWAP1 POP SWAP2 SWAP1 POP JUMP JUMPDEST PUSH32 0x4E487B7100000000000000000000000000000000000000000000000000000000 PUSH1 0x0 MSTORE PUSH1 0x11 PUSH1 0x4 MSTORE PUSH1 0x24 PUSH1 0x0 REVERT JUMPDEST PUSH1 0x0 PUSH2 0xED0 DUP3 PUSH2 0xBB2 JUMP JUMPDEST SWAP2 POP PUSH2 0xEDB DUP4 PUSH2 0xBB2 JUMP JUMPDEST SWAP3 POP DUP3 DUP3 SUB SWAP1 POP DUP2 DUP2 GT ISZERO PUSH2 0xEF3 JUMPI PUSH2 0xEF2 PUSH2 0xE96 JUMP JUMPDEST JUMPDEST SWAP3 SWAP2 POP POP JUMP JUMPDEST PUSH1 0x0 PUSH2 0xF04 DUP3 PUSH2 0xBB2 JUMP JUMPDEST SWAP2 POP PUSH2 0xF0F DUP4 PUSH2 0xBB2 JUMP JUMPDEST SWAP3 POP DUP3 DUP3 ADD SWAP1 POP DUP1 DUP3 GT ISZERO PUSH2 0xF27 JUMPI PUSH2 0xF26 PUSH2 0xE96 JUMP JUMPDEST JUMPDEST SWAP3 SWAP2 POP POP JUMP JUMPDEST PUSH32 0x4E487B7100000000000000000000000000000000000000000000000000000000 PUSH1 0x0 MSTORE PUSH1 0x22 PUSH1 0x4 MSTORE PUSH1 0x24 PUSH1 0x0 REVERT JUMPDEST PUSH1 0x0 PUSH1 0x2 DUP3 DIV SWAP1 POP PUSH1 0x1 DUP3 AND DUP1 PUSH2 0xF74 JUMPI PUSH1 0x7F DUP3 AND SWAP2 POP JUMPDEST PUSH1 0x20 DUP3 LT DUP2 SUB PUSH2 0xF87 JUMPI PUSH2 0xF86 PUSH2 0xF2D JUMP JUMPDEST JUMPDEST POP SWAP2 SWAP1 POP JUMP JUMPDEST PUSH32 0x4554485F5452414E534645525F4641494C454400000000000000000000000000 PUSH1 0x0 DUP3 ADD MSTORE POP JUMP JUMPDEST PUSH1 0x0 PUSH2 0xFC3 PUSH1 0x13 DUP4 PUSH2 0xD83 JUMP JUMPDEST SWAP2 POP PUSH2 0xFCE DUP3 PUSH2 0xF8D JUMP JUMPDEST PUSH1 0x20 DUP3 ADD SWAP1 POP SWAP2 SWAP1 POP JUMP JUMPDEST PUSH1 0x0 PUSH1 0x20 DUP3 ADD SWAP1 POP DUP2 DUP2 SUB PUSH1 0x0 DUP4 ADD MSTORE PUSH2 0xFF2 DUP2 PUSH2 0xFB6 JUMP JUMPDEST SWAP1 POP SWAP2 SWAP1 POP JUMP INVALID LOG2 PUSH5 0x6970667358 0x22 SLT KECCAK256 0xDE 0xD4 0xD1 SAR 0xBC 0xF9 SWAP14 PUSH7 0xD0EFF9399137BA CALLER 0xD0 SWAP13 0xA9 0xEB 0xD2 0xDD 0xF9 SWAP5 PUSH22 0x8F286633E282CA64736F6C6343000813003300000000 "
				},
				"gasEstimates": {
					"creation": {
						"codeDepositCost": "828600",
						"executionCost": "infinite",
						"totalCost": "infinite"
					},
					"external": {
						"alreadyClaimed(address)": "2880",
						"claimTokens()": "infinite",
						"isAdmin(address)": "2868",
						"obtainedAmount(address)": "2881",
						"owner()": "2545",
						"recommendAmount()": "2451",
						"renounceOwnership()": "infinite",
						"rescueETH(address,uint256)": "infinite",
						"setAdmin(address,bool)": "27285",
						"setClaimableTokens(address,uint256)": "infinite",
						"setRecommendAmount(uint256)": "infinite",
						"transferOwnership(address)": "infinite",
						"versions()": "infinite"
					},
					"internal": {
						"_checkOwner()": "infinite"
					}
				},
				"methodIdentifiers": {
					"alreadyClaimed(address)": "f54b893b",
					"claimTokens()": "48c54b9d",
					"isAdmin(address)": "24d7806c",
					"obtainedAmount(address)": "df0f0951",
					"owner()": "8da5cb5b",
					"recommendAmount()": "e44cec7c",
					"renounceOwnership()": "715018a6",
					"rescueETH(address,uint256)": "099a04e5",
					"setAdmin(address,bool)": "4b0bddd2",
					"setClaimableTokens(address,uint256)": "b43e6a53",
					"setRecommendAmount(uint256)": "30710d04",
					"transferOwnership(address)": "f2fde38b",
					"versions()": "f8b1cb3c"
				}
			},
			"storageLayout": {
				"storage": [
					{
						"astId": 8,
						"contract": "src/_Recommend.sol:_Recommend",
						"label": "_owner",
						"offset": 0,
						"slot": "0",
						"type": "t_address"
					},
					{
						"astId": 939,
						"contract": "src/_Recommend.sol:_Recommend",
						"label": "locked",
						"offset": 0,
						"slot": "1",
						"type": "t_uint256"
					},
					{
						"astId": 1071,
						"contract": "src/_Recommend.sol:_Recommend",
						"label": "obtainedAmount",
						"offset": 0,
						"slot": "2",
						"type": "t_mapping(t_address,t_uint256)"
					},
					{
						"astId": 1075,
						"contract": "src/_Recommend.sol:_Recommend",
						"label": "alreadyClaimed",
						"offset": 0,
						"slot": "3",
						"type": "t_mapping(t_address,t_uint256)"
					},
					{
						"astId": 1079,
						"contract": "src/_Recommend.sol:_Recommend",
						"label": "isAdmin",
						"offset": 0,
						"slot": "4",
						"type": "t_mapping(t_address,t_bool)"
					},
					{
						"astId": 1082,
						"contract": "src/_Recommend.sol:_Recommend",
						"label": "recommendAmount",
						"offset": 0,
						"slot": "5",
						"type": "t_uint256"
					},
					{
						"astId": 1085,
						"contract": "src/_Recommend.sol:_Recommend",
						"label": "versions",
						"offset": 0,
						"slot": "6",
						"type": "t_string_storage"
					}
				],
				"types": {
					"t_address": {
						"encoding": "inplace",
						"label": "address",
						"numberOfBytes": "20"
					},
					"t_bool": {
						"encoding": "inplace",
						"label": "bool",
						"numberOfBytes": "1"
					},
					"t_mapping(t_address,t_bool)": {
						"encoding": "mapping",
						"key": "t_address",
						"label": "mapping(address => bool)",
						"numberOfBytes": "32",
						"value": "t_bool"
					},
					"t_mapping(t_address,t_uint256)": {
						"encoding": "mapping",
						"key": "t_address",
						"label": "mapping(address => uint256)",
						"numberOfBytes": "32",
						"value": "t_uint256"
					},
					"t_string_storage": {
						"encoding": "bytes",
						"label": "string",
						"numberOfBytes": "32"
					},
					"t_uint256": {
						"encoding": "inplace",
						"label": "uint256",
						"numberOfBytes": "32"
					}
				}
			},
			"userdoc": {
				"kind": "user",
				"methods": {},
				"version": 1
			}
		}
	}
}