{
	"src/_Master.sol": {
		"_Master": {
			"abi": [
				{
					"inputs": [
						{
							"internalType": "address",
							"name": "_bond",
							"type": "address"
						},
						{
							"internalType": "address",
							"name": "_uniswapV2Router02",
							"type": "address"
						}
					],
					"stateMutability": "nonpayable",
					"type": "constructor"
				},
				{
					"inputs": [
						{
							"internalType": "address",
							"name": "owner",
							"type": "address"
						}
					],
					"name": "OwnableInvalidOwner",
					"type": "error"
				},
				{
					"inputs": [
						{
							"internalType": "address",
							"name": "account",
							"type": "address"
						}
					],
					"name": "OwnableUnauthorizedAccount",
					"type": "error"
				},
				{
					"inputs": [],
					"name": "_Forbidden",
					"type": "error"
				},
				{
					"inputs": [],
					"name": "_InvalidAmountEth",
					"type": "error"
				},
				{
					"inputs": [],
					"name": "_InvalidAmountToken",
					"type": "error"
				},
				{
					"inputs": [],
					"name": "_NoOwner",
					"type": "error"
				},
				{
					"anonymous": false,
					"inputs": [
						{
							"indexed": true,
							"internalType": "address",
							"name": "token",
							"type": "address"
						},
						{
							"indexed": true,
							"internalType": "address",
							"name": "pair",
							"type": "address"
						},
						{
							"indexed": false,
							"internalType": "uint256",
							"name": "amountETH",
							"type": "uint256"
						},
						{
							"indexed": false,
							"internalType": "uint256",
							"name": "amountToken",
							"type": "uint256"
						},
						{
							"indexed": false,
							"internalType": "uint256",
							"name": "time",
							"type": "uint256"
						}
					],
					"name": "AddLiquidity",
					"type": "event"
				},
				{
					"anonymous": false,
					"inputs": [
						{
							"indexed": true,
							"internalType": "uint256",
							"name": "flag",
							"type": "uint256"
						},
						{
							"indexed": false,
							"internalType": "string",
							"name": "version",
							"type": "string"
						}
					],
					"name": "ContractDeploy",
					"type": "event"
				},
				{
					"anonymous": false,
					"inputs": [
						{
							"indexed": true,
							"internalType": "address",
							"name": "previousOwner",
							"type": "address"
						},
						{
							"indexed": true,
							"internalType": "address",
							"name": "newOwner",
							"type": "address"
						}
					],
					"name": "OwnershipTransferred",
					"type": "event"
				},
				{
					"inputs": [
						{
							"internalType": "uint256",
							"name": "",
							"type": "uint256"
						}
					],
					"name": "addedLiquidityToken",
					"outputs": [
						{
							"internalType": "address",
							"name": "",
							"type": "address"
						}
					],
					"stateMutability": "view",
					"type": "function"
				},
				{
					"inputs": [],
					"name": "amount",
					"outputs": [
						{
							"internalType": "uint256",
							"name": "",
							"type": "uint256"
						}
					],
					"stateMutability": "view",
					"type": "function"
				},
				{
					"inputs": [],
					"name": "bond",
					"outputs": [
						{
							"internalType": "address",
							"name": "",
							"type": "address"
						}
					],
					"stateMutability": "view",
					"type": "function"
				},
				{
					"inputs": [],
					"name": "crocSwapDex",
					"outputs": [
						{
							"internalType": "contract ICrocSwapDex",
							"name": "",
							"type": "address"
						}
					],
					"stateMutability": "view",
					"type": "function"
				},
				{
					"inputs": [
						{
							"internalType": "address",
							"name": "token",
							"type": "address"
						},
						{
							"internalType": "uint256",
							"name": "amountToken",
							"type": "uint256"
						},
						{
							"internalType": "uint256",
							"name": "amountEth",
							"type": "uint256"
						}
					],
					"name": "execute",
					"outputs": [
						{
							"internalType": "uint256",
							"name": "_amountToken",
							"type": "uint256"
						},
						{
							"internalType": "uint256",
							"name": "_amountETH",
							"type": "uint256"
						}
					],
					"stateMutability": "payable",
					"type": "function"
				},
				{
					"inputs": [],
					"name": "factory",
					"outputs": [
						{
							"internalType": "address",
							"name": "",
							"type": "address"
						}
					],
					"stateMutability": "view",
					"type": "function"
				},
				{
					"inputs": [],
					"name": "getToken",
					"outputs": [
						{
							"internalType": "address[]",
							"name": "",
							"type": "address[]"
						}
					],
					"stateMutability": "view",
					"type": "function"
				},
				{
					"inputs": [
						{
							"internalType": "address",
							"name": "",
							"type": "address"
						}
					],
					"name": "isAdmin",
					"outputs": [
						{
							"internalType": "bool",
							"name": "",
							"type": "bool"
						}
					],
					"stateMutability": "view",
					"type": "function"
				},
				{
					"inputs": [],
					"name": "liquidityOwner",
					"outputs": [
						{
							"internalType": "address",
							"name": "",
							"type": "address"
						}
					],
					"stateMutability": "view",
					"type": "function"
				},
				{
					"inputs": [],
					"name": "owner",
					"outputs": [
						{
							"internalType": "address",
							"name": "",
							"type": "address"
						}
					],
					"stateMutability": "view",
					"type": "function"
				},
				{
					"inputs": [
						{
							"internalType": "address",
							"name": "tokenA",
							"type": "address"
						},
						{
							"internalType": "address",
							"name": "tokenB",
							"type": "address"
						}
					],
					"name": "pairFor",
					"outputs": [
						{
							"internalType": "address",
							"name": "pair",
							"type": "address"
						}
					],
					"stateMutability": "view",
					"type": "function"
				},
				{
					"inputs": [],
					"name": "price",
					"outputs": [
						{
							"internalType": "uint256",
							"name": "",
							"type": "uint256"
						}
					],
					"stateMutability": "view",
					"type": "function"
				},
				{
					"inputs": [],
					"name": "renounceOwnership",
					"outputs": [],
					"stateMutability": "nonpayable",
					"type": "function"
				},
				{
					"inputs": [
						{
							"internalType": "address",
							"name": "_to",
							"type": "address"
						},
						{
							"internalType": "uint256",
							"name": "_value",
							"type": "uint256"
						}
					],
					"name": "rescueETH",
					"outputs": [],
					"stateMutability": "nonpayable",
					"type": "function"
				},
				{
					"inputs": [
						{
							"internalType": "address",
							"name": "_admin",
							"type": "address"
						},
						{
							"internalType": "bool",
							"name": "_status",
							"type": "bool"
						}
					],
					"name": "setAdmin",
					"outputs": [],
					"stateMutability": "nonpayable",
					"type": "function"
				},
				{
					"inputs": [
						{
							"internalType": "address",
							"name": "_bond",
							"type": "address"
						}
					],
					"name": "setBond",
					"outputs": [],
					"stateMutability": "nonpayable",
					"type": "function"
				},
				{
					"inputs": [
						{
							"internalType": "address",
							"name": "_liquidityOwner",
							"type": "address"
						}
					],
					"name": "setLiquidityOwner",
					"outputs": [],
					"stateMutability": "nonpayable",
					"type": "function"
				},
				{
					"inputs": [
						{
							"internalType": "address",
							"name": "_uniswapV2Router02",
							"type": "address"
						}
					],
					"name": "setUniswapV2Router02",
					"outputs": [],
					"stateMutability": "nonpayable",
					"type": "function"
				},
				{
					"inputs": [],
					"name": "swapBERA",
					"outputs": [],
					"stateMutability": "payable",
					"type": "function"
				},
				{
					"inputs": [
						{
							"internalType": "address",
							"name": "newOwner",
							"type": "address"
						}
					],
					"name": "transferOwnership",
					"outputs": [],
					"stateMutability": "nonpayable",
					"type": "function"
				},
				{
					"inputs": [],
					"name": "uniswapV2Router02",
					"outputs": [
						{
							"internalType": "contract IUniswapV2Router02",
							"name": "",
							"type": "address"
						}
					],
					"stateMutability": "view",
					"type": "function"
				},
				{
					"inputs": [],
					"name": "versions",
					"outputs": [
						{
							"internalType": "string",
							"name": "",
							"type": "string"
						}
					],
					"stateMutability": "view",
					"type": "function"
				},
				{
					"inputs": [],
					"name": "wbera",
					"outputs": [
						{
							"internalType": "address",
							"name": "",
							"type": "address"
						}
					],
					"stateMutability": "view",
					"type": "function"
				},
				{
					"inputs": [],
					"name": "withdraw",
					"outputs": [],
					"stateMutability": "payable",
					"type": "function"
				},
				{
					"inputs": [
						{
							"internalType": "address",
							"name": "token",
							"type": "address"
						},
						{
							"internalType": "uint256",
							"name": "amount",
							"type": "uint256"
						}
					],
					"name": "withdrawtoken",
					"outputs": [],
					"stateMutability": "nonpayable",
					"type": "function"
				},
				{
					"stateMutability": "payable",
					"type": "receive"
				}
			],
			"devdoc": {
				"errors": {
					"OwnableInvalidOwner(address)": [
						{
							"details": "The owner is not a valid owner account. (eg. `address(0)`)"
						}
					],
					"OwnableUnauthorizedAccount(address)": [
						{
							"details": "The caller account is not authorized to perform an operation."
						}
					]
				},
				"kind": "dev",
				"methods": {
					"owner()": {
						"details": "Returns the address of the current owner."
					},
					"renounceOwnership()": {
						"details": "Leaves the contract without owner. It will not be possible to call `onlyOwner` functions. Can only be called by the current owner. NOTE: Renouncing ownership will leave the contract without an owner, thereby disabling any functionality that is only available to the owner."
					},
					"transferOwnership(address)": {
						"details": "Transfers ownership of the contract to a new account (`newOwner`). Can only be called by the current owner."
					}
				},
				"title": "_Master",
				"version": 1
			},
			"evm": {
				"assembly": "    /* \"src/_Master.sol\":1444:7330  contract _Master is Ownable {... */\n  mstore(0x40, 0x80)\n    /* \"src/_Master.sol\":1759:1801  0x07C0baD65cf9E2063C56382e6c5872d49Eb4099a */\n  0x07c0bad65cf9e2063c56382e6c5872d49eb4099a\n    /* \"src/_Master.sol\":1719:1802  address public liquidityOwner = address(0x07C0baD65cf9E2063C56382e6c5872d49Eb4099a) */\n  0x04\n  exp(0x0100, 0x00)\n  dup2\n  sload\n  dup2\n  0xffffffffffffffffffffffffffffffffffffffff\n  mul\n  not\n  and\n  swap1\n  dup4\n  0xffffffffffffffffffffffffffffffffffffffff\n  and\n  mul\n  or\n  swap1\n  sstore\n  pop\n    /* \"src/_Master.sol\":1854:1886  string public versions = \"0.1.1\" */\n  mload(0x40)\n  dup1\n  0x40\n  add\n  0x40\n  mstore\n  dup1\n  0x05\n  dup2\n  mstore\n  0x20\n  add\n  0x302e312e31000000000000000000000000000000000000000000000000000000\n  dup2\n  mstore\n  pop\n  0x06\n  swap1\n  dup2\n  tag_1\n  swap2\n  swap1\n  tag_2\n  jump\t// in\ntag_1:\n  pop\n    /* \"src/_Master.sol\":3743:3785  0xAB827b1Cc3535A9e549EE387A6E9C3F02F481B49 */\n  0xab827b1cc3535a9e549ee387a6e9c3f02f481b49\n    /* \"src/_Master.sol\":3657:3798  ICrocSwapDex public crocSwapDex =... */\n  0x07\n  exp(0x0100, 0x00)\n  dup2\n  sload\n  dup2\n  0xffffffffffffffffffffffffffffffffffffffff\n  mul\n  not\n  and\n  swap1\n  dup4\n  0xffffffffffffffffffffffffffffffffffffffff\n  and\n  mul\n  or\n  swap1\n  sstore\n  pop\n    /* \"src/_Master.sol\":3836:3878  0x7507c1dc16935B82698e4C63f2746A2fCf994dF8 */\n  0x7507c1dc16935b82698e4c63f2746a2fcf994df8\n    /* \"src/_Master.sol\":3805:3879  address public wbera = address(0x7507c1dc16935B82698e4C63f2746A2fCf994dF8) */\n  0x08\n  exp(0x0100, 0x00)\n  dup2\n  sload\n  dup2\n  0xffffffffffffffffffffffffffffffffffffffff\n  mul\n  not\n  and\n  swap1\n  dup4\n  0xffffffffffffffffffffffffffffffffffffffff\n  and\n  mul\n  or\n  swap1\n  sstore\n  pop\n    /* \"src/_Master.sol\":3918:3960  0xAB827b1Cc3535A9e549EE387A6E9C3F02F481B49 */\n  0xab827b1cc3535a9e549ee387a6e9c3f02f481b49\n    /* \"src/_Master.sol\":3886:3961  address public factory =address(0xAB827b1Cc3535A9e549EE387A6E9C3F02F481B49) */\n  0x09\n  exp(0x0100, 0x00)\n  dup2\n  sload\n  dup2\n  0xffffffffffffffffffffffffffffffffffffffff\n  mul\n  not\n  and\n  swap1\n  dup4\n  0xffffffffffffffffffffffffffffffffffffffff\n  and\n  mul\n  or\n  swap1\n  sstore\n  pop\n    /* \"src/_Master.sol\":1960:2226  constructor(address _bond, address _uniswapV2Router02) Ownable(msg.sender) {... */\n  callvalue\n  dup1\n  iszero\n  tag_3\n  jumpi\n  0x00\n  dup1\n  revert\ntag_3:\n  pop\n  mload(0x40)\n  sub(codesize, bytecodeSize)\n  dup1\n  bytecodeSize\n  dup4\n  codecopy\n  dup2\n  dup2\n  add\n  0x40\n  mstore\n  dup2\n  add\n  swap1\n  tag_4\n  swap2\n  swap1\n  tag_5\n  jump\t// in\ntag_4:\n    /* \"src/_Master.sol\":2023:2033  msg.sender */\n  caller\n    /* \"lib/openzeppelin-contracts/contracts/access/Ownable.sol\":1296:1297  0 */\n  0x00\n    /* \"lib/openzeppelin-contracts/contracts/access/Ownable.sol\":1272:1298  initialOwner == address(0) */\n  0xffffffffffffffffffffffffffffffffffffffff\n  and\n    /* \"lib/openzeppelin-contracts/contracts/access/Ownable.sol\":1272:1284  initialOwner */\n  dup2\n    /* \"lib/openzeppelin-contracts/contracts/access/Ownable.sol\":1272:1298  initialOwner == address(0) */\n  0xffffffffffffffffffffffffffffffffffffffff\n  and\n  sub\n    /* \"lib/openzeppelin-contracts/contracts/access/Ownable.sol\":1268:1363  if (initialOwner == address(0)) {... */\n  tag_9\n  jumpi\n    /* \"lib/openzeppelin-contracts/contracts/access/Ownable.sol\":1349:1350  0 */\n  0x00\n    /* \"lib/openzeppelin-contracts/contracts/access/Ownable.sol\":1321:1352  OwnableInvalidOwner(address(0)) */\n  mload(0x40)\n  0x1e4fbdf700000000000000000000000000000000000000000000000000000000\n  dup2\n  mstore\n  0x04\n  add\n  tag_10\n  swap2\n  swap1\n  tag_11\n  jump\t// in\ntag_10:\n  mload(0x40)\n  dup1\n  swap2\n  sub\n  swap1\n  revert\n    /* \"lib/openzeppelin-contracts/contracts/access/Ownable.sol\":1268:1363  if (initialOwner == address(0)) {... */\ntag_9:\n    /* \"lib/openzeppelin-contracts/contracts/access/Ownable.sol\":1372:1404  _transferOwnership(initialOwner) */\n  tag_12\n    /* \"lib/openzeppelin-contracts/contracts/access/Ownable.sol\":1391:1403  initialOwner */\n  dup2\n    /* \"lib/openzeppelin-contracts/contracts/access/Ownable.sol\":1372:1390  _transferOwnership */\n  shl(0x20, tag_13)\n    /* \"lib/openzeppelin-contracts/contracts/access/Ownable.sol\":1372:1404  _transferOwnership(initialOwner) */\n  0x20\n  shr\n  jump\t// in\ntag_12:\n    /* \"lib/openzeppelin-contracts/contracts/access/Ownable.sol\":1224:1411  constructor(address initialOwner) {... */\n  pop\n    /* \"src/_Master.sol\":2068:2072  true */\n  0x01\n    /* \"src/_Master.sol\":2046:2053  isAdmin */\n  0x02\n    /* \"src/_Master.sol\":2046:2065  isAdmin[msg.sender] */\n  0x00\n    /* \"src/_Master.sol\":2054:2064  msg.sender */\n  caller\n    /* \"src/_Master.sol\":2046:2065  isAdmin[msg.sender] */\n  0xffffffffffffffffffffffffffffffffffffffff\n  and\n  0xffffffffffffffffffffffffffffffffffffffff\n  and\n  dup2\n  mstore\n  0x20\n  add\n  swap1\n  dup2\n  mstore\n  0x20\n  add\n  0x00\n  keccak256\n  0x00\n    /* \"src/_Master.sol\":2046:2072  isAdmin[msg.sender] = true */\n  0x0100\n  exp\n  dup2\n  sload\n  dup2\n  0xff\n  mul\n  not\n  and\n  swap1\n  dup4\n  iszero\n  iszero\n  mul\n  or\n  swap1\n  sstore\n  pop\n    /* \"src/_Master.sol\":2090:2095  _bond */\n  dup2\n    /* \"src/_Master.sol\":2083:2087  bond */\n  0x01\n  0x00\n    /* \"src/_Master.sol\":2083:2095  bond = _bond */\n  0x0100\n  exp\n  dup2\n  sload\n  dup2\n  0xffffffffffffffffffffffffffffffffffffffff\n  mul\n  not\n  and\n  swap1\n  dup4\n  0xffffffffffffffffffffffffffffffffffffffff\n  and\n  mul\n  or\n  swap1\n  sstore\n  pop\n    /* \"src/_Master.sol\":2153:2171  _uniswapV2Router02 */\n  dup1\n    /* \"src/_Master.sol\":2106:2123  uniswapV2Router02 */\n  0x03\n  0x00\n    /* \"src/_Master.sol\":2106:2173  uniswapV2Router02 = IUniswapV2Router02(payable(_uniswapV2Router02)) */\n  0x0100\n  exp\n  dup2\n  sload\n  dup2\n  0xffffffffffffffffffffffffffffffffffffffff\n  mul\n  not\n  and\n  swap1\n  dup4\n  0xffffffffffffffffffffffffffffffffffffffff\n  and\n  mul\n  or\n  swap1\n  sstore\n  pop\n    /* \"src/_Master.sol\":2206:2207  3 */\n  0x03\n    /* \"src/_Master.sol\":2191:2218  ContractDeploy(3, versions) */\n  0x7b78ee99b011dff919ff5bd97f8a1b33b444782eb490dd7cd487fc963d63676f\n    /* \"src/_Master.sol\":2209:2217  versions */\n  0x06\n    /* \"src/_Master.sol\":2191:2218  ContractDeploy(3, versions) */\n  mload(0x40)\n  tag_15\n  swap2\n  swap1\n  tag_16\n  jump\t// in\ntag_15:\n  mload(0x40)\n  dup1\n  swap2\n  sub\n  swap1\n  log2\n    /* \"src/_Master.sol\":1960:2226  constructor(address _bond, address _uniswapV2Router02) Ownable(msg.sender) {... */\n  pop\n  pop\n    /* \"src/_Master.sol\":1444:7330  contract _Master is Ownable {... */\n  jump(tag_17)\n    /* \"lib/openzeppelin-contracts/contracts/access/Ownable.sol\":2911:3098  function _transferOwnership(address newOwner) internal virtual {... */\ntag_13:\n    /* \"lib/openzeppelin-contracts/contracts/access/Ownable.sol\":2984:3000  address oldOwner */\n  0x00\n    /* \"lib/openzeppelin-contracts/contracts/access/Ownable.sol\":3003:3009  _owner */\n  dup1\n  0x00\n  swap1\n  sload\n  swap1\n  0x0100\n  exp\n  swap1\n  div\n  0xffffffffffffffffffffffffffffffffffffffff\n  and\n    /* \"lib/openzeppelin-contracts/contracts/access/Ownable.sol\":2984:3009  address oldOwner = _owner */\n  swap1\n  pop\n    /* \"lib/openzeppelin-contracts/contracts/access/Ownable.sol\":3028:3036  newOwner */\n  dup2\n    /* \"lib/openzeppelin-contracts/contracts/access/Ownable.sol\":3019:3025  _owner */\n  0x00\n  dup1\n    /* \"lib/openzeppelin-contracts/contracts/access/Ownable.sol\":3019:3036  _owner = newOwner */\n  0x0100\n  exp\n  dup2\n  sload\n  dup2\n  0xffffffffffffffffffffffffffffffffffffffff\n  mul\n  not\n  and\n  swap1\n  dup4\n  0xffffffffffffffffffffffffffffffffffffffff\n  and\n  mul\n  or\n  swap1\n  sstore\n  pop\n    /* \"lib/openzeppelin-contracts/contracts/access/Ownable.sol\":3082:3090  newOwner */\n  dup2\n    /* \"lib/openzeppelin-contracts/contracts/access/Ownable.sol\":3051:3091  OwnershipTransferred(oldOwner, newOwner) */\n  0xffffffffffffffffffffffffffffffffffffffff\n  and\n    /* \"lib/openzeppelin-contracts/contracts/access/Ownable.sol\":3072:3080  oldOwner */\n  dup2\n    /* \"lib/openzeppelin-contracts/contracts/access/Ownable.sol\":3051:3091  OwnershipTransferred(oldOwner, newOwner) */\n  0xffffffffffffffffffffffffffffffffffffffff\n  and\n  0x8be0079c531659141344cd1fd0a4f28419497f9722a3daafe3b4186f6b6457e0\n  mload(0x40)\n  mload(0x40)\n  dup1\n  swap2\n  sub\n  swap1\n  log3\n    /* \"lib/openzeppelin-contracts/contracts/access/Ownable.sol\":2974:3098  {... */\n  pop\n    /* \"lib/openzeppelin-contracts/contracts/access/Ownable.sol\":2911:3098  function _transferOwnership(address newOwner) internal virtual {... */\n  pop\n  jump\t// out\n    /* \"#utility.yul\":7:106   */\ntag_19:\n    /* \"#utility.yul\":59:65   */\n  0x00\n    /* \"#utility.yul\":93:98   */\n  dup2\n    /* \"#utility.yul\":87:99   */\n  mload\n    /* \"#utility.yul\":77:99   */\n  swap1\n  pop\n    /* \"#utility.yul\":7:106   */\n  swap2\n  swap1\n  pop\n  jump\t// out\n    /* \"#utility.yul\":112:292   */\ntag_20:\n    /* \"#utility.yul\":160:237   */\n  0x4e487b7100000000000000000000000000000000000000000000000000000000\n    /* \"#utility.yul\":157:158   */\n  0x00\n    /* \"#utility.yul\":150:238   */\n  mstore\n    /* \"#utility.yul\":257:261   */\n  0x41\n    /* \"#utility.yul\":254:255   */\n  0x04\n    /* \"#utility.yul\":247:262   */\n  mstore\n    /* \"#utility.yul\":281:285   */\n  0x24\n    /* \"#utility.yul\":278:279   */\n  0x00\n    /* \"#utility.yul\":271:286   */\n  revert\n    /* \"#utility.yul\":298:478   */\ntag_21:\n    /* \"#utility.yul\":346:423   */\n  0x4e487b7100000000000000000000000000000000000000000000000000000000\n    /* \"#utility.yul\":343:344   */\n  0x00\n    /* \"#utility.yul\":336:424   */\n  mstore\n    /* \"#utility.yul\":443:447   */\n  0x22\n    /* \"#utility.yul\":440:441   */\n  0x04\n    /* \"#utility.yul\":433:448   */\n  mstore\n    /* \"#utility.yul\":467:471   */\n  0x24\n    /* \"#utility.yul\":464:465   */\n  0x00\n    /* \"#utility.yul\":457:472   */\n  revert\n    /* \"#utility.yul\":484:804   */\ntag_22:\n    /* \"#utility.yul\":528:534   */\n  0x00\n    /* \"#utility.yul\":565:566   */\n  0x02\n    /* \"#utility.yul\":559:563   */\n  dup3\n    /* \"#utility.yul\":555:567   */\n  div\n    /* \"#utility.yul\":545:567   */\n  swap1\n  pop\n    /* \"#utility.yul\":612:613   */\n  0x01\n    /* \"#utility.yul\":606:610   */\n  dup3\n    /* \"#utility.yul\":602:614   */\n  and\n    /* \"#utility.yul\":633:651   */\n  dup1\n    /* \"#utility.yul\":623:704   */\n  tag_54\n  jumpi\n    /* \"#utility.yul\":689:693   */\n  0x7f\n    /* \"#utility.yul\":681:687   */\n  dup3\n    /* \"#utility.yul\":677:694   */\n  and\n    /* \"#utility.yul\":667:694   */\n  swap2\n  pop\n    /* \"#utility.yul\":623:704   */\ntag_54:\n    /* \"#utility.yul\":751:753   */\n  0x20\n    /* \"#utility.yul\":743:749   */\n  dup3\n    /* \"#utility.yul\":740:754   */\n  lt\n    /* \"#utility.yul\":720:738   */\n  dup2\n    /* \"#utility.yul\":717:755   */\n  sub\n    /* \"#utility.yul\":714:798   */\n  tag_55\n  jumpi\n    /* \"#utility.yul\":770:788   */\n  tag_56\n  tag_21\n  jump\t// in\ntag_56:\n    /* \"#utility.yul\":714:798   */\ntag_55:\n    /* \"#utility.yul\":535:804   */\n  pop\n    /* \"#utility.yul\":484:804   */\n  swap2\n  swap1\n  pop\n  jump\t// out\n    /* \"#utility.yul\":810:951   */\ntag_23:\n    /* \"#utility.yul\":859:863   */\n  0x00\n    /* \"#utility.yul\":882:885   */\n  dup2\n    /* \"#utility.yul\":874:885   */\n  swap1\n  pop\n    /* \"#utility.yul\":905:908   */\n  dup2\n    /* \"#utility.yul\":902:903   */\n  0x00\n    /* \"#utility.yul\":895:909   */\n  mstore\n    /* \"#utility.yul\":939:943   */\n  0x20\n    /* \"#utility.yul\":936:937   */\n  0x00\n    /* \"#utility.yul\":926:944   */\n  keccak256\n    /* \"#utility.yul\":918:944   */\n  swap1\n  pop\n    /* \"#utility.yul\":810:951   */\n  swap2\n  swap1\n  pop\n  jump\t// out\n    /* \"#utility.yul\":957:1050   */\ntag_24:\n    /* \"#utility.yul\":994:1000   */\n  0x00\n    /* \"#utility.yul\":1041:1043   */\n  0x20\n    /* \"#utility.yul\":1036:1038   */\n  0x1f\n    /* \"#utility.yul\":1029:1034   */\n  dup4\n    /* \"#utility.yul\":1025:1039   */\n  add\n    /* \"#utility.yul\":1021:1044   */\n  div\n    /* \"#utility.yul\":1011:1044   */\n  swap1\n  pop\n    /* \"#utility.yul\":957:1050   */\n  swap2\n  swap1\n  pop\n  jump\t// out\n    /* \"#utility.yul\":1056:1163   */\ntag_25:\n    /* \"#utility.yul\":1100:1108   */\n  0x00\n    /* \"#utility.yul\":1150:1155   */\n  dup3\n    /* \"#utility.yul\":1144:1148   */\n  dup3\n    /* \"#utility.yul\":1140:1156   */\n  shl\n    /* \"#utility.yul\":1119:1156   */\n  swap1\n  pop\n    /* \"#utility.yul\":1056:1163   */\n  swap3\n  swap2\n  pop\n  pop\n  jump\t// out\n    /* \"#utility.yul\":1169:1562   */\ntag_26:\n    /* \"#utility.yul\":1238:1244   */\n  0x00\n    /* \"#utility.yul\":1288:1289   */\n  0x08\n    /* \"#utility.yul\":1276:1286   */\n  dup4\n    /* \"#utility.yul\":1272:1290   */\n  mul\n    /* \"#utility.yul\":1311:1408   */\n  tag_61\n    /* \"#utility.yul\":1341:1407   */\n  0xffffffffffffffffffffffffffffffffffffffffffffffffffffffffffffffff\n    /* \"#utility.yul\":1330:1339   */\n  dup3\n    /* \"#utility.yul\":1311:1408   */\n  tag_25\n  jump\t// in\ntag_61:\n    /* \"#utility.yul\":1429:1468   */\n  tag_62\n    /* \"#utility.yul\":1459:1467   */\n  dup7\n    /* \"#utility.yul\":1448:1457   */\n  dup4\n    /* \"#utility.yul\":1429:1468   */\n  tag_25\n  jump\t// in\ntag_62:\n    /* \"#utility.yul\":1417:1468   */\n  swap6\n  pop\n    /* \"#utility.yul\":1501:1505   */\n  dup1\n    /* \"#utility.yul\":1497:1506   */\n  not\n    /* \"#utility.yul\":1490:1495   */\n  dup5\n    /* \"#utility.yul\":1486:1507   */\n  and\n    /* \"#utility.yul\":1477:1507   */\n  swap4\n  pop\n    /* \"#utility.yul\":1550:1554   */\n  dup1\n    /* \"#utility.yul\":1540:1548   */\n  dup7\n    /* \"#utility.yul\":1536:1555   */\n  and\n    /* \"#utility.yul\":1529:1534   */\n  dup5\n    /* \"#utility.yul\":1526:1556   */\n  or\n    /* \"#utility.yul\":1516:1556   */\n  swap3\n  pop\n    /* \"#utility.yul\":1245:1562   */\n  pop\n  pop\n    /* \"#utility.yul\":1169:1562   */\n  swap4\n  swap3\n  pop\n  pop\n  pop\n  jump\t// out\n    /* \"#utility.yul\":1568:1645   */\ntag_27:\n    /* \"#utility.yul\":1605:1612   */\n  0x00\n    /* \"#utility.yul\":1634:1639   */\n  dup2\n    /* \"#utility.yul\":1623:1639   */\n  swap1\n  pop\n    /* \"#utility.yul\":1568:1645   */\n  swap2\n  swap1\n  pop\n  jump\t// out\n    /* \"#utility.yul\":1651:1711   */\ntag_28:\n    /* \"#utility.yul\":1679:1682   */\n  0x00\n    /* \"#utility.yul\":1700:1705   */\n  dup2\n    /* \"#utility.yul\":1693:1705   */\n  swap1\n  pop\n    /* \"#utility.yul\":1651:1711   */\n  swap2\n  swap1\n  pop\n  jump\t// out\n    /* \"#utility.yul\":1717:1859   */\ntag_29:\n    /* \"#utility.yul\":1767:1776   */\n  0x00\n    /* \"#utility.yul\":1800:1853   */\n  tag_66\n    /* \"#utility.yul\":1818:1852   */\n  tag_67\n    /* \"#utility.yul\":1827:1851   */\n  tag_68\n    /* \"#utility.yul\":1845:1850   */\n  dup5\n    /* \"#utility.yul\":1827:1851   */\n  tag_27\n  jump\t// in\ntag_68:\n    /* \"#utility.yul\":1818:1852   */\n  tag_28\n  jump\t// in\ntag_67:\n    /* \"#utility.yul\":1800:1853   */\n  tag_27\n  jump\t// in\ntag_66:\n    /* \"#utility.yul\":1787:1853   */\n  swap1\n  pop\n    /* \"#utility.yul\":1717:1859   */\n  swap2\n  swap1\n  pop\n  jump\t// out\n    /* \"#utility.yul\":1865:1940   */\ntag_30:\n    /* \"#utility.yul\":1908:1911   */\n  0x00\n    /* \"#utility.yul\":1929:1934   */\n  dup2\n    /* \"#utility.yul\":1922:1934   */\n  swap1\n  pop\n    /* \"#utility.yul\":1865:1940   */\n  swap2\n  swap1\n  pop\n  jump\t// out\n    /* \"#utility.yul\":1946:2215   */\ntag_31:\n    /* \"#utility.yul\":2056:2095   */\n  tag_71\n    /* \"#utility.yul\":2087:2094   */\n  dup4\n    /* \"#utility.yul\":2056:2095   */\n  tag_29\n  jump\t// in\ntag_71:\n    /* \"#utility.yul\":2117:2208   */\n  tag_72\n    /* \"#utility.yul\":2166:2207   */\n  tag_73\n    /* \"#utility.yul\":2190:2206   */\n  dup3\n    /* \"#utility.yul\":2166:2207   */\n  tag_30\n  jump\t// in\ntag_73:\n    /* \"#utility.yul\":2158:2164   */\n  dup5\n    /* \"#utility.yul\":2151:2155   */\n  dup5\n    /* \"#utility.yul\":2145:2156   */\n  sload\n    /* \"#utility.yul\":2117:2208   */\n  tag_26\n  jump\t// in\ntag_72:\n    /* \"#utility.yul\":2111:2115   */\n  dup3\n    /* \"#utility.yul\":2104:2209   */\n  sstore\n    /* \"#utility.yul\":2022:2215   */\n  pop\n    /* \"#utility.yul\":1946:2215   */\n  pop\n  pop\n  pop\n  jump\t// out\n    /* \"#utility.yul\":2221:2294   */\ntag_32:\n    /* \"#utility.yul\":2266:2269   */\n  0x00\n    /* \"#utility.yul\":2221:2294   */\n  swap1\n  jump\t// out\n    /* \"#utility.yul\":2300:2489   */\ntag_33:\n    /* \"#utility.yul\":2377:2409   */\n  tag_76\n  tag_32\n  jump\t// in\ntag_76:\n    /* \"#utility.yul\":2418:2483   */\n  tag_77\n    /* \"#utility.yul\":2476:2482   */\n  dup2\n    /* \"#utility.yul\":2468:2474   */\n  dup5\n    /* \"#utility.yul\":2462:2466   */\n  dup5\n    /* \"#utility.yul\":2418:2483   */\n  tag_31\n  jump\t// in\ntag_77:\n    /* \"#utility.yul\":2353:2489   */\n  pop\n    /* \"#utility.yul\":2300:2489   */\n  pop\n  pop\n  jump\t// out\n    /* \"#utility.yul\":2495:2681   */\ntag_34:\n    /* \"#utility.yul\":2555:2675   */\ntag_79:\n    /* \"#utility.yul\":2572:2575   */\n  dup2\n    /* \"#utility.yul\":2565:2570   */\n  dup2\n    /* \"#utility.yul\":2562:2576   */\n  lt\n    /* \"#utility.yul\":2555:2675   */\n  iszero\n  tag_81\n  jumpi\n    /* \"#utility.yul\":2626:2665   */\n  tag_82\n    /* \"#utility.yul\":2663:2664   */\n  0x00\n    /* \"#utility.yul\":2656:2661   */\n  dup3\n    /* \"#utility.yul\":2626:2665   */\n  tag_33\n  jump\t// in\ntag_82:\n    /* \"#utility.yul\":2599:2600   */\n  0x01\n    /* \"#utility.yul\":2592:2597   */\n  dup2\n    /* \"#utility.yul\":2588:2601   */\n  add\n    /* \"#utility.yul\":2579:2601   */\n  swap1\n  pop\n    /* \"#utility.yul\":2555:2675   */\n  jump(tag_79)\ntag_81:\n    /* \"#utility.yul\":2495:2681   */\n  pop\n  pop\n  jump\t// out\n    /* \"#utility.yul\":2687:3230   */\ntag_35:\n    /* \"#utility.yul\":2788:2790   */\n  0x1f\n    /* \"#utility.yul\":2783:2786   */\n  dup3\n    /* \"#utility.yul\":2780:2791   */\n  gt\n    /* \"#utility.yul\":2777:3223   */\n  iszero\n  tag_84\n  jumpi\n    /* \"#utility.yul\":2822:2860   */\n  tag_85\n    /* \"#utility.yul\":2854:2859   */\n  dup2\n    /* \"#utility.yul\":2822:2860   */\n  tag_23\n  jump\t// in\ntag_85:\n    /* \"#utility.yul\":2906:2935   */\n  tag_86\n    /* \"#utility.yul\":2924:2934   */\n  dup5\n    /* \"#utility.yul\":2906:2935   */\n  tag_24\n  jump\t// in\ntag_86:\n    /* \"#utility.yul\":2896:2904   */\n  dup2\n    /* \"#utility.yul\":2892:2936   */\n  add\n    /* \"#utility.yul\":3089:3091   */\n  0x20\n    /* \"#utility.yul\":3077:3087   */\n  dup6\n    /* \"#utility.yul\":3074:3092   */\n  lt\n    /* \"#utility.yul\":3071:3120   */\n  iszero\n  tag_87\n  jumpi\n    /* \"#utility.yul\":3110:3118   */\n  dup2\n    /* \"#utility.yul\":3095:3118   */\n  swap1\n  pop\n    /* \"#utility.yul\":3071:3120   */\ntag_87:\n    /* \"#utility.yul\":3133:3213   */\n  tag_88\n    /* \"#utility.yul\":3189:3211   */\n  tag_89\n    /* \"#utility.yul\":3207:3210   */\n  dup6\n    /* \"#utility.yul\":3189:3211   */\n  tag_24\n  jump\t// in\ntag_89:\n    /* \"#utility.yul\":3179:3187   */\n  dup4\n    /* \"#utility.yul\":3175:3212   */\n  add\n    /* \"#utility.yul\":3162:3173   */\n  dup3\n    /* \"#utility.yul\":3133:3213   */\n  tag_34\n  jump\t// in\ntag_88:\n    /* \"#utility.yul\":2792:3223   */\n  pop\n  pop\n    /* \"#utility.yul\":2777:3223   */\ntag_84:\n    /* \"#utility.yul\":2687:3230   */\n  pop\n  pop\n  pop\n  jump\t// out\n    /* \"#utility.yul\":3236:3353   */\ntag_36:\n    /* \"#utility.yul\":3290:3298   */\n  0x00\n    /* \"#utility.yul\":3340:3345   */\n  dup3\n    /* \"#utility.yul\":3334:3338   */\n  dup3\n    /* \"#utility.yul\":3330:3346   */\n  shr\n    /* \"#utility.yul\":3309:3346   */\n  swap1\n  pop\n    /* \"#utility.yul\":3236:3353   */\n  swap3\n  swap2\n  pop\n  pop\n  jump\t// out\n    /* \"#utility.yul\":3359:3528   */\ntag_37:\n    /* \"#utility.yul\":3403:3409   */\n  0x00\n    /* \"#utility.yul\":3436:3487   */\n  tag_92\n    /* \"#utility.yul\":3484:3485   */\n  0x00\n    /* \"#utility.yul\":3480:3486   */\n  not\n    /* \"#utility.yul\":3472:3477   */\n  dup5\n    /* \"#utility.yul\":3469:3470   */\n  0x08\n    /* \"#utility.yul\":3465:3478   */\n  mul\n    /* \"#utility.yul\":3436:3487   */\n  tag_36\n  jump\t// in\ntag_92:\n    /* \"#utility.yul\":3432:3488   */\n  not\n    /* \"#utility.yul\":3517:3521   */\n  dup1\n    /* \"#utility.yul\":3511:3515   */\n  dup4\n    /* \"#utility.yul\":3507:3522   */\n  and\n    /* \"#utility.yul\":3497:3522   */\n  swap2\n  pop\n    /* \"#utility.yul\":3410:3528   */\n  pop\n    /* \"#utility.yul\":3359:3528   */\n  swap3\n  swap2\n  pop\n  pop\n  jump\t// out\n    /* \"#utility.yul\":3533:3828   */\ntag_38:\n    /* \"#utility.yul\":3609:3613   */\n  0x00\n    /* \"#utility.yul\":3755:3784   */\n  tag_94\n    /* \"#utility.yul\":3780:3783   */\n  dup4\n    /* \"#utility.yul\":3774:3778   */\n  dup4\n    /* \"#utility.yul\":3755:3784   */\n  tag_37\n  jump\t// in\ntag_94:\n    /* \"#utility.yul\":3747:3784   */\n  swap2\n  pop\n    /* \"#utility.yul\":3817:3820   */\n  dup3\n    /* \"#utility.yul\":3814:3815   */\n  0x02\n    /* \"#utility.yul\":3810:3821   */\n  mul\n    /* \"#utility.yul\":3804:3808   */\n  dup3\n    /* \"#utility.yul\":3801:3822   */\n  or\n    /* \"#utility.yul\":3793:3822   */\n  swap1\n  pop\n    /* \"#utility.yul\":3533:3828   */\n  swap3\n  swap2\n  pop\n  pop\n  jump\t// out\n    /* \"#utility.yul\":3833:5228   */\ntag_2:\n    /* \"#utility.yul\":3950:3987   */\n  tag_96\n    /* \"#utility.yul\":3983:3986   */\n  dup3\n    /* \"#utility.yul\":3950:3987   */\n  tag_19\n  jump\t// in\ntag_96:\n    /* \"#utility.yul\":4052:4070   */\n  0xffffffffffffffff\n    /* \"#utility.yul\":4044:4050   */\n  dup2\n    /* \"#utility.yul\":4041:4071   */\n  gt\n    /* \"#utility.yul\":4038:4094   */\n  iszero\n  tag_97\n  jumpi\n    /* \"#utility.yul\":4074:4092   */\n  tag_98\n  tag_20\n  jump\t// in\ntag_98:\n    /* \"#utility.yul\":4038:4094   */\ntag_97:\n    /* \"#utility.yul\":4118:4156   */\n  tag_99\n    /* \"#utility.yul\":4150:4154   */\n  dup3\n    /* \"#utility.yul\":4144:4155   */\n  sload\n    /* \"#utility.yul\":4118:4156   */\n  tag_22\n  jump\t// in\ntag_99:\n    /* \"#utility.yul\":4203:4270   */\n  tag_100\n    /* \"#utility.yul\":4263:4269   */\n  dup3\n    /* \"#utility.yul\":4255:4261   */\n  dup3\n    /* \"#utility.yul\":4249:4253   */\n  dup6\n    /* \"#utility.yul\":4203:4270   */\n  tag_35\n  jump\t// in\ntag_100:\n    /* \"#utility.yul\":4297:4298   */\n  0x00\n    /* \"#utility.yul\":4321:4325   */\n  0x20\n    /* \"#utility.yul\":4308:4325   */\n  swap1\n  pop\n    /* \"#utility.yul\":4353:4355   */\n  0x1f\n    /* \"#utility.yul\":4345:4351   */\n  dup4\n    /* \"#utility.yul\":4342:4356   */\n  gt\n    /* \"#utility.yul\":4370:4371   */\n  0x01\n    /* \"#utility.yul\":4365:4983   */\n  dup2\n  eq\n  tag_102\n  jumpi\n    /* \"#utility.yul\":5027:5028   */\n  0x00\n    /* \"#utility.yul\":5044:5050   */\n  dup5\n    /* \"#utility.yul\":5041:5118   */\n  iszero\n  tag_103\n  jumpi\n    /* \"#utility.yul\":5093:5102   */\n  dup3\n    /* \"#utility.yul\":5088:5091   */\n  dup8\n    /* \"#utility.yul\":5084:5103   */\n  add\n    /* \"#utility.yul\":5078:5104   */\n  mload\n    /* \"#utility.yul\":5069:5104   */\n  swap1\n  pop\n    /* \"#utility.yul\":5041:5118   */\ntag_103:\n    /* \"#utility.yul\":5144:5211   */\n  tag_104\n    /* \"#utility.yul\":5204:5210   */\n  dup6\n    /* \"#utility.yul\":5197:5202   */\n  dup3\n    /* \"#utility.yul\":5144:5211   */\n  tag_38\n  jump\t// in\ntag_104:\n    /* \"#utility.yul\":5138:5142   */\n  dup7\n    /* \"#utility.yul\":5131:5212   */\n  sstore\n    /* \"#utility.yul\":5000:5222   */\n  pop\n    /* \"#utility.yul\":4335:5222   */\n  jump(tag_101)\n    /* \"#utility.yul\":4365:4983   */\ntag_102:\n    /* \"#utility.yul\":4417:4421   */\n  0x1f\n    /* \"#utility.yul\":4413:4422   */\n  not\n    /* \"#utility.yul\":4405:4411   */\n  dup5\n    /* \"#utility.yul\":4401:4423   */\n  and\n    /* \"#utility.yul\":4451:4488   */\n  tag_105\n    /* \"#utility.yul\":4483:4487   */\n  dup7\n    /* \"#utility.yul\":4451:4488   */\n  tag_23\n  jump\t// in\ntag_105:\n    /* \"#utility.yul\":4510:4511   */\n  0x00\n    /* \"#utility.yul\":4524:4732   */\ntag_106:\n    /* \"#utility.yul\":4538:4545   */\n  dup3\n    /* \"#utility.yul\":4535:4536   */\n  dup2\n    /* \"#utility.yul\":4532:4546   */\n  lt\n    /* \"#utility.yul\":4524:4732   */\n  iszero\n  tag_108\n  jumpi\n    /* \"#utility.yul\":4617:4626   */\n  dup5\n    /* \"#utility.yul\":4612:4615   */\n  dup10\n    /* \"#utility.yul\":4608:4627   */\n  add\n    /* \"#utility.yul\":4602:4628   */\n  mload\n    /* \"#utility.yul\":4594:4600   */\n  dup3\n    /* \"#utility.yul\":4587:4629   */\n  sstore\n    /* \"#utility.yul\":4668:4669   */\n  0x01\n    /* \"#utility.yul\":4660:4666   */\n  dup3\n    /* \"#utility.yul\":4656:4670   */\n  add\n    /* \"#utility.yul\":4646:4670   */\n  swap2\n  pop\n    /* \"#utility.yul\":4715:4717   */\n  0x20\n    /* \"#utility.yul\":4704:4713   */\n  dup6\n    /* \"#utility.yul\":4700:4718   */\n  add\n    /* \"#utility.yul\":4687:4718   */\n  swap5\n  pop\n    /* \"#utility.yul\":4561:4565   */\n  0x20\n    /* \"#utility.yul\":4558:4559   */\n  dup2\n    /* \"#utility.yul\":4554:4566   */\n  add\n    /* \"#utility.yul\":4549:4566   */\n  swap1\n  pop\n    /* \"#utility.yul\":4524:4732   */\n  jump(tag_106)\ntag_108:\n    /* \"#utility.yul\":4760:4766   */\n  dup7\n    /* \"#utility.yul\":4751:4758   */\n  dup4\n    /* \"#utility.yul\":4748:4767   */\n  lt\n    /* \"#utility.yul\":4745:4924   */\n  iszero\n  tag_109\n  jumpi\n    /* \"#utility.yul\":4818:4827   */\n  dup5\n    /* \"#utility.yul\":4813:4816   */\n  dup10\n    /* \"#utility.yul\":4809:4828   */\n  add\n    /* \"#utility.yul\":4803:4829   */\n  mload\n    /* \"#utility.yul\":4861:4909   */\n  tag_110\n    /* \"#utility.yul\":4903:4907   */\n  0x1f\n    /* \"#utility.yul\":4895:4901   */\n  dup10\n    /* \"#utility.yul\":4891:4908   */\n  and\n    /* \"#utility.yul\":4880:4889   */\n  dup3\n    /* \"#utility.yul\":4861:4909   */\n  tag_37\n  jump\t// in\ntag_110:\n    /* \"#utility.yul\":4853:4859   */\n  dup4\n    /* \"#utility.yul\":4846:4910   */\n  sstore\n    /* \"#utility.yul\":4768:4924   */\n  pop\n    /* \"#utility.yul\":4745:4924   */\ntag_109:\n    /* \"#utility.yul\":4970:4971   */\n  0x01\n    /* \"#utility.yul\":4966:4967   */\n  0x02\n    /* \"#utility.yul\":4958:4964   */\n  dup9\n    /* \"#utility.yul\":4954:4968   */\n  mul\n    /* \"#utility.yul\":4950:4972   */\n  add\n    /* \"#utility.yul\":4944:4948   */\n  dup9\n    /* \"#utility.yul\":4937:4973   */\n  sstore\n    /* \"#utility.yul\":4372:4983   */\n  pop\n  pop\n  pop\n    /* \"#utility.yul\":4335:5222   */\ntag_101:\n  pop\n    /* \"#utility.yul\":3925:5228   */\n  pop\n  pop\n  pop\n    /* \"#utility.yul\":3833:5228   */\n  pop\n  pop\n  jump\t// out\n    /* \"#utility.yul\":5315:5432   */\ntag_40:\n    /* \"#utility.yul\":5424:5425   */\n  0x00\n    /* \"#utility.yul\":5421:5422   */\n  dup1\n    /* \"#utility.yul\":5414:5426   */\n  revert\n    /* \"#utility.yul\":5561:5687   */\ntag_42:\n    /* \"#utility.yul\":5598:5605   */\n  0x00\n    /* \"#utility.yul\":5638:5680   */\n  0xffffffffffffffffffffffffffffffffffffffff\n    /* \"#utility.yul\":5631:5636   */\n  dup3\n    /* \"#utility.yul\":5627:5681   */\n  and\n    /* \"#utility.yul\":5616:5681   */\n  swap1\n  pop\n    /* \"#utility.yul\":5561:5687   */\n  swap2\n  swap1\n  pop\n  jump\t// out\n    /* \"#utility.yul\":5693:5789   */\ntag_43:\n    /* \"#utility.yul\":5730:5737   */\n  0x00\n    /* \"#utility.yul\":5759:5783   */\n  tag_116\n    /* \"#utility.yul\":5777:5782   */\n  dup3\n    /* \"#utility.yul\":5759:5783   */\n  tag_42\n  jump\t// in\ntag_116:\n    /* \"#utility.yul\":5748:5783   */\n  swap1\n  pop\n    /* \"#utility.yul\":5693:5789   */\n  swap2\n  swap1\n  pop\n  jump\t// out\n    /* \"#utility.yul\":5795:5917   */\ntag_44:\n    /* \"#utility.yul\":5868:5892   */\n  tag_118\n    /* \"#utility.yul\":5886:5891   */\n  dup2\n    /* \"#utility.yul\":5868:5892   */\n  tag_43\n  jump\t// in\ntag_118:\n    /* \"#utility.yul\":5861:5866   */\n  dup2\n    /* \"#utility.yul\":5858:5893   */\n  eq\n    /* \"#utility.yul\":5848:5911   */\n  tag_119\n  jumpi\n    /* \"#utility.yul\":5907:5908   */\n  0x00\n    /* \"#utility.yul\":5904:5905   */\n  dup1\n    /* \"#utility.yul\":5897:5909   */\n  revert\n    /* \"#utility.yul\":5848:5911   */\ntag_119:\n    /* \"#utility.yul\":5795:5917   */\n  pop\n  jump\t// out\n    /* \"#utility.yul\":5923:6066   */\ntag_45:\n    /* \"#utility.yul\":5980:5985   */\n  0x00\n    /* \"#utility.yul\":6011:6017   */\n  dup2\n    /* \"#utility.yul\":6005:6018   */\n  mload\n    /* \"#utility.yul\":5996:6018   */\n  swap1\n  pop\n    /* \"#utility.yul\":6027:6060   */\n  tag_121\n    /* \"#utility.yul\":6054:6059   */\n  dup2\n    /* \"#utility.yul\":6027:6060   */\n  tag_44\n  jump\t// in\ntag_121:\n    /* \"#utility.yul\":5923:6066   */\n  swap3\n  swap2\n  pop\n  pop\n  jump\t// out\n    /* \"#utility.yul\":6072:6579   */\ntag_5:\n    /* \"#utility.yul\":6151:6157   */\n  0x00\n    /* \"#utility.yul\":6159:6165   */\n  dup1\n    /* \"#utility.yul\":6208:6210   */\n  0x40\n    /* \"#utility.yul\":6196:6205   */\n  dup4\n    /* \"#utility.yul\":6187:6194   */\n  dup6\n    /* \"#utility.yul\":6183:6206   */\n  sub\n    /* \"#utility.yul\":6179:6211   */\n  slt\n    /* \"#utility.yul\":6176:6295   */\n  iszero\n  tag_123\n  jumpi\n    /* \"#utility.yul\":6214:6293   */\n  tag_124\n  tag_40\n  jump\t// in\ntag_124:\n    /* \"#utility.yul\":6176:6295   */\ntag_123:\n    /* \"#utility.yul\":6334:6335   */\n  0x00\n    /* \"#utility.yul\":6359:6423   */\n  tag_125\n    /* \"#utility.yul\":6415:6422   */\n  dup6\n    /* \"#utility.yul\":6406:6412   */\n  dup3\n    /* \"#utility.yul\":6395:6404   */\n  dup7\n    /* \"#utility.yul\":6391:6413   */\n  add\n    /* \"#utility.yul\":6359:6423   */\n  tag_45\n  jump\t// in\ntag_125:\n    /* \"#utility.yul\":6349:6423   */\n  swap3\n  pop\n    /* \"#utility.yul\":6305:6433   */\n  pop\n    /* \"#utility.yul\":6472:6474   */\n  0x20\n    /* \"#utility.yul\":6498:6562   */\n  tag_126\n    /* \"#utility.yul\":6554:6561   */\n  dup6\n    /* \"#utility.yul\":6545:6551   */\n  dup3\n    /* \"#utility.yul\":6534:6543   */\n  dup7\n    /* \"#utility.yul\":6530:6552   */\n  add\n    /* \"#utility.yul\":6498:6562   */\n  tag_45\n  jump\t// in\ntag_126:\n    /* \"#utility.yul\":6488:6562   */\n  swap2\n  pop\n    /* \"#utility.yul\":6443:6572   */\n  pop\n    /* \"#utility.yul\":6072:6579   */\n  swap3\n  pop\n  swap3\n  swap1\n  pop\n  jump\t// out\n    /* \"#utility.yul\":6585:6703   */\ntag_46:\n    /* \"#utility.yul\":6672:6696   */\n  tag_128\n    /* \"#utility.yul\":6690:6695   */\n  dup2\n    /* \"#utility.yul\":6672:6696   */\n  tag_43\n  jump\t// in\ntag_128:\n    /* \"#utility.yul\":6667:6670   */\n  dup3\n    /* \"#utility.yul\":6660:6697   */\n  mstore\n    /* \"#utility.yul\":6585:6703   */\n  pop\n  pop\n  jump\t// out\n    /* \"#utility.yul\":6709:6931   */\ntag_11:\n    /* \"#utility.yul\":6802:6806   */\n  0x00\n    /* \"#utility.yul\":6840:6842   */\n  0x20\n    /* \"#utility.yul\":6829:6838   */\n  dup3\n    /* \"#utility.yul\":6825:6843   */\n  add\n    /* \"#utility.yul\":6817:6843   */\n  swap1\n  pop\n    /* \"#utility.yul\":6853:6924   */\n  tag_130\n    /* \"#utility.yul\":6921:6922   */\n  0x00\n    /* \"#utility.yul\":6910:6919   */\n  dup4\n    /* \"#utility.yul\":6906:6923   */\n  add\n    /* \"#utility.yul\":6897:6903   */\n  dup5\n    /* \"#utility.yul\":6853:6924   */\n  tag_46\n  jump\t// in\ntag_130:\n    /* \"#utility.yul\":6709:6931   */\n  swap3\n  swap2\n  pop\n  pop\n  jump\t// out\n    /* \"#utility.yul\":6937:7106   */\ntag_47:\n    /* \"#utility.yul\":7021:7032   */\n  0x00\n    /* \"#utility.yul\":7055:7061   */\n  dup3\n    /* \"#utility.yul\":7050:7053   */\n  dup3\n    /* \"#utility.yul\":7043:7062   */\n  mstore\n    /* \"#utility.yul\":7095:7099   */\n  0x20\n    /* \"#utility.yul\":7090:7093   */\n  dup3\n    /* \"#utility.yul\":7086:7100   */\n  add\n    /* \"#utility.yul\":7071:7100   */\n  swap1\n  pop\n    /* \"#utility.yul\":6937:7106   */\n  swap3\n  swap2\n  pop\n  pop\n  jump\t// out\n    /* \"#utility.yul\":7136:7967   */\ntag_48:\n    /* \"#utility.yul\":7221:7224   */\n  0x00\n    /* \"#utility.yul\":7258:7263   */\n  dup2\n    /* \"#utility.yul\":7252:7264   */\n  sload\n    /* \"#utility.yul\":7287:7323   */\n  tag_133\n    /* \"#utility.yul\":7313:7322   */\n  dup2\n    /* \"#utility.yul\":7287:7323   */\n  tag_22\n  jump\t// in\ntag_133:\n    /* \"#utility.yul\":7339:7410   */\n  tag_134\n    /* \"#utility.yul\":7403:7409   */\n  dup2\n    /* \"#utility.yul\":7398:7401   */\n  dup7\n    /* \"#utility.yul\":7339:7410   */\n  tag_47\n  jump\t// in\ntag_134:\n    /* \"#utility.yul\":7332:7410   */\n  swap5\n  pop\n    /* \"#utility.yul\":7441:7442   */\n  0x01\n    /* \"#utility.yul\":7430:7439   */\n  dup3\n    /* \"#utility.yul\":7426:7443   */\n  and\n    /* \"#utility.yul\":7457:7458   */\n  0x00\n    /* \"#utility.yul\":7452:7616   */\n  dup2\n  eq\n  tag_136\n  jumpi\n    /* \"#utility.yul\":7630:7631   */\n  0x01\n    /* \"#utility.yul\":7625:7961   */\n  dup2\n  eq\n  tag_137\n  jumpi\n    /* \"#utility.yul\":7419:7961   */\n  jump(tag_135)\n    /* \"#utility.yul\":7452:7616   */\ntag_136:\n    /* \"#utility.yul\":7536:7540   */\n  0xff\n    /* \"#utility.yul\":7532:7541   */\n  not\n    /* \"#utility.yul\":7521:7530   */\n  dup4\n    /* \"#utility.yul\":7517:7542   */\n  and\n    /* \"#utility.yul\":7512:7515   */\n  dup7\n    /* \"#utility.yul\":7505:7543   */\n  mstore\n    /* \"#utility.yul\":7596:7602   */\n  dup2\n    /* \"#utility.yul\":7589:7603   */\n  iszero\n    /* \"#utility.yul\":7582:7604   */\n  iszero\n    /* \"#utility.yul\":7576:7580   */\n  0x20\n    /* \"#utility.yul\":7572:7605   */\n  mul\n    /* \"#utility.yul\":7567:7570   */\n  dup7\n    /* \"#utility.yul\":7563:7606   */\n  add\n    /* \"#utility.yul\":7556:7606   */\n  swap4\n  pop\n    /* \"#utility.yul\":7452:7616   */\n  jump(tag_135)\n    /* \"#utility.yul\":7625:7961   */\ntag_137:\n    /* \"#utility.yul\":7692:7730   */\n  tag_138\n    /* \"#utility.yul\":7724:7729   */\n  dup6\n    /* \"#utility.yul\":7692:7730   */\n  tag_23\n  jump\t// in\ntag_138:\n    /* \"#utility.yul\":7752:7753   */\n  0x00\n    /* \"#utility.yul\":7766:7920   */\ntag_139:\n    /* \"#utility.yul\":7780:7786   */\n  dup4\n    /* \"#utility.yul\":7777:7778   */\n  dup2\n    /* \"#utility.yul\":7774:7787   */\n  lt\n    /* \"#utility.yul\":7766:7920   */\n  iszero\n  tag_141\n  jumpi\n    /* \"#utility.yul\":7854:7861   */\n  dup2\n    /* \"#utility.yul\":7848:7862   */\n  sload\n    /* \"#utility.yul\":7844:7845   */\n  dup2\n    /* \"#utility.yul\":7839:7842   */\n  dup10\n    /* \"#utility.yul\":7835:7846   */\n  add\n    /* \"#utility.yul\":7828:7863   */\n  mstore\n    /* \"#utility.yul\":7904:7905   */\n  0x01\n    /* \"#utility.yul\":7895:7902   */\n  dup3\n    /* \"#utility.yul\":7891:7906   */\n  add\n    /* \"#utility.yul\":7880:7906   */\n  swap2\n  pop\n    /* \"#utility.yul\":7802:7806   */\n  0x20\n    /* \"#utility.yul\":7799:7800   */\n  dup2\n    /* \"#utility.yul\":7795:7807   */\n  add\n    /* \"#utility.yul\":7790:7807   */\n  swap1\n  pop\n    /* \"#utility.yul\":7766:7920   */\n  jump(tag_139)\ntag_141:\n    /* \"#utility.yul\":7949:7950   */\n  dup1\n    /* \"#utility.yul\":7944:7947   */\n  dup9\n    /* \"#utility.yul\":7940:7951   */\n  add\n    /* \"#utility.yul\":7933:7951   */\n  swap6\n  pop\n    /* \"#utility.yul\":7632:7961   */\n  pop\n  pop\n    /* \"#utility.yul\":7419:7961   */\ntag_135:\n  pop\n    /* \"#utility.yul\":7225:7967   */\n  pop\n  pop\n    /* \"#utility.yul\":7136:7967   */\n  swap3\n  swap2\n  pop\n  pop\n  jump\t// out\n    /* \"#utility.yul\":7973:8280   */\ntag_16:\n    /* \"#utility.yul\":8083:8087   */\n  0x00\n    /* \"#utility.yul\":8121:8123   */\n  0x20\n    /* \"#utility.yul\":8110:8119   */\n  dup3\n    /* \"#utility.yul\":8106:8124   */\n  add\n    /* \"#utility.yul\":8098:8124   */\n  swap1\n  pop\n    /* \"#utility.yul\":8170:8179   */\n  dup2\n    /* \"#utility.yul\":8164:8168   */\n  dup2\n    /* \"#utility.yul\":8160:8180   */\n  sub\n    /* \"#utility.yul\":8156:8157   */\n  0x00\n    /* \"#utility.yul\":8145:8154   */\n  dup4\n    /* \"#utility.yul\":8141:8158   */\n  add\n    /* \"#utility.yul\":8134:8181   */\n  mstore\n    /* \"#utility.yul\":8198:8273   */\n  tag_143\n    /* \"#utility.yul\":8268:8272   */\n  dup2\n    /* \"#utility.yul\":8259:8265   */\n  dup5\n    /* \"#utility.yul\":8198:8273   */\n  tag_48\n  jump\t// in\ntag_143:\n    /* \"#utility.yul\":8190:8273   */\n  swap1\n  pop\n    /* \"#utility.yul\":7973:8280   */\n  swap3\n  swap2\n  pop\n  pop\n  jump\t// out\n    /* \"src/_Master.sol\":1444:7330  contract _Master is Ownable {... */\ntag_17:\n  dataSize(sub_0)\n  dup1\n  dataOffset(sub_0)\n  0x00\n  codecopy\n  0x00\n  return\nstop\n\nsub_0: assembly {\n        /* \"src/_Master.sol\":1444:7330  contract _Master is Ownable {... */\n      mstore(0x40, 0x80)\n      jumpi(tag_1, lt(calldatasize, 0x04))\n      shr(0xe0, calldataload(0x00))\n      dup1\n      0x7abdef14\n      gt\n      tag_28\n      jumpi\n      dup1\n      0xaa8c217c\n      gt\n      tag_29\n      jumpi\n      dup1\n      0xce904421\n      gt\n      tag_30\n      jumpi\n      dup1\n      0xce904421\n      eq\n      tag_24\n      jumpi\n      dup1\n      0xd959fb2e\n      eq\n      tag_25\n      jumpi\n      dup1\n      0xf2fde38b\n      eq\n      tag_26\n      jumpi\n      dup1\n      0xf8b1cb3c\n      eq\n      tag_27\n      jumpi\n      jump(tag_2)\n    tag_30:\n      dup1\n      0xaa8c217c\n      eq\n      tag_21\n      jumpi\n      dup1\n      0xc45a0155\n      eq\n      tag_22\n      jumpi\n      dup1\n      0xc52ab778\n      eq\n      tag_23\n      jumpi\n      jump(tag_2)\n    tag_29:\n      dup1\n      0x7abdef14\n      eq\n      tag_15\n      jumpi\n      dup1\n      0x8cd40c9d\n      eq\n      tag_16\n      jumpi\n      dup1\n      0x8da5cb5b\n      eq\n      tag_17\n      jumpi\n      dup1\n      0x96ed28f9\n      eq\n      tag_18\n      jumpi\n      dup1\n      0xa035b1fe\n      eq\n      tag_19\n      jumpi\n      dup1\n      0xa7c6402c\n      eq\n      tag_20\n      jumpi\n      jump(tag_2)\n    tag_28:\n      dup1\n      0x4b0bddd2\n      gt\n      tag_31\n      jumpi\n      dup1\n      0x4b0bddd2\n      eq\n      tag_9\n      jumpi\n      dup1\n      0x64c9ec6f\n      eq\n      tag_10\n      jumpi\n      dup1\n      0x715018a6\n      eq\n      tag_11\n      jumpi\n      dup1\n      0x72bc5583\n      eq\n      tag_12\n      jumpi\n      dup1\n      0x7490e284\n      eq\n      tag_13\n      jumpi\n      dup1\n      0x7900a7ff\n      eq\n      tag_14\n      jumpi\n      jump(tag_2)\n    tag_31:\n      dup1\n      0x099a04e5\n      eq\n      tag_3\n      jumpi\n      dup1\n      0x21df0da7\n      eq\n      tag_4\n      jumpi\n      dup1\n      0x24d7806c\n      eq\n      tag_5\n      jumpi\n      dup1\n      0x31f41a33\n      eq\n      tag_6\n      jumpi\n      dup1\n      0x3935ebf9\n      eq\n      tag_7\n      jumpi\n      dup1\n      0x3ccfd60b\n      eq\n      tag_8\n      jumpi\n      jump(tag_2)\n    tag_1:\n      jumpi(tag_2, calldatasize)\n      stop\n    tag_2:\n      0x00\n      dup1\n      revert\n        /* \"src/_Master.sol\":2995:3125  function rescueETH(address _to, uint256 _value) external onlyOwner {... */\n    tag_3:\n      callvalue\n      dup1\n      iszero\n      tag_34\n      jumpi\n      0x00\n      dup1\n      revert\n    tag_34:\n      pop\n      tag_35\n      0x04\n      dup1\n      calldatasize\n      sub\n      dup2\n      add\n      swap1\n      tag_36\n      swap2\n      swap1\n      tag_37\n      jump\t// in\n    tag_36:\n      tag_38\n      jump\t// in\n    tag_35:\n      stop\n        /* \"src/_Master.sol\":6968:7074  function getToken() external view returns (address[] memory) {... */\n    tag_4:\n      callvalue\n      dup1\n      iszero\n      tag_39\n      jumpi\n      0x00\n      dup1\n      revert\n    tag_39:\n      pop\n      tag_40\n      tag_41\n      jump\t// in\n    tag_40:\n      mload(0x40)\n      tag_42\n      swap2\n      swap1\n      tag_43\n      jump\t// in\n    tag_42:\n      mload(0x40)\n      dup1\n      swap2\n      sub\n      swap1\n      return\n        /* \"src/_Master.sol\":1621:1660  mapping(address => bool) public isAdmin */\n    tag_5:\n      callvalue\n      dup1\n      iszero\n      tag_44\n      jumpi\n      0x00\n      dup1\n      revert\n    tag_44:\n      pop\n      tag_45\n      0x04\n      dup1\n      calldatasize\n      sub\n      dup2\n      add\n      swap1\n      tag_46\n      swap2\n      swap1\n      tag_47\n      jump\t// in\n    tag_46:\n      tag_48\n      jump\t// in\n    tag_45:\n      mload(0x40)\n      tag_49\n      swap2\n      swap1\n      tag_50\n      jump\t// in\n    tag_49:\n      mload(0x40)\n      dup1\n      swap2\n      sub\n      swap1\n      return\n        /* \"src/_Master.sol\":3805:3879  address public wbera = address(0x7507c1dc16935B82698e4C63f2746A2fCf994dF8) */\n    tag_6:\n      callvalue\n      dup1\n      iszero\n      tag_51\n      jumpi\n      0x00\n      dup1\n      revert\n    tag_51:\n      pop\n      tag_52\n      tag_53\n      jump\t// in\n    tag_52:\n      mload(0x40)\n      tag_54\n      swap2\n      swap1\n      tag_55\n      jump\t// in\n    tag_54:\n      mload(0x40)\n      dup1\n      swap2\n      sub\n      swap1\n      return\n        /* \"src/_Master.sol\":1719:1802  address public liquidityOwner = address(0x07C0baD65cf9E2063C56382e6c5872d49Eb4099a) */\n    tag_7:\n      callvalue\n      dup1\n      iszero\n      tag_56\n      jumpi\n      0x00\n      dup1\n      revert\n    tag_56:\n      pop\n      tag_57\n      tag_58\n      jump\t// in\n    tag_57:\n      mload(0x40)\n      tag_59\n      swap2\n      swap1\n      tag_55\n      jump\t// in\n    tag_59:\n      mload(0x40)\n      dup1\n      swap2\n      sub\n      swap1\n      return\n        /* \"src/_Master.sol\":7086:7193  function withdraw() external payable {... */\n    tag_8:\n      tag_60\n      tag_61\n      jump\t// in\n    tag_60:\n      stop\n        /* \"src/_Master.sol\":2573:2729  function setAdmin(address _admin, bool _status) external {... */\n    tag_9:\n      callvalue\n      dup1\n      iszero\n      tag_62\n      jumpi\n      0x00\n      dup1\n      revert\n    tag_62:\n      pop\n      tag_63\n      0x04\n      dup1\n      calldatasize\n      sub\n      dup2\n      add\n      swap1\n      tag_64\n      swap2\n      swap1\n      tag_65\n      jump\t// in\n    tag_64:\n      tag_66\n      jump\t// in\n    tag_63:\n      stop\n        /* \"src/_Master.sol\":1595:1614  address public bond */\n    tag_10:\n      callvalue\n      dup1\n      iszero\n      tag_67\n      jumpi\n      0x00\n      dup1\n      revert\n    tag_67:\n      pop\n      tag_68\n      tag_69\n      jump\t// in\n    tag_68:\n      mload(0x40)\n      tag_70\n      swap2\n      swap1\n      tag_55\n      jump\t// in\n    tag_70:\n      mload(0x40)\n      dup1\n      swap2\n      sub\n      swap1\n      return\n        /* \"lib/openzeppelin-contracts/contracts/access/Ownable.sol\":2292:2393  function renounceOwnership() public virtual onlyOwner {... */\n    tag_11:\n      callvalue\n      dup1\n      iszero\n      tag_71\n      jumpi\n      0x00\n      dup1\n      revert\n    tag_71:\n      pop\n      tag_72\n      tag_73\n      jump\t// in\n    tag_72:\n      stop\n        /* \"src/_Master.sol\":2850:2972  function setLiquidityOwner(address _liquidityOwner) external onlyOwner {... */\n    tag_12:\n      callvalue\n      dup1\n      iszero\n      tag_74\n      jumpi\n      0x00\n      dup1\n      revert\n    tag_74:\n      pop\n      tag_75\n      0x04\n      dup1\n      calldatasize\n      sub\n      dup2\n      add\n      swap1\n      tag_76\n      swap2\n      swap1\n      tag_47\n      jump\t// in\n    tag_76:\n      tag_77\n      jump\t// in\n    tag_75:\n      stop\n        /* \"src/_Master.sol\":1811:1847  address[] public addedLiquidityToken */\n    tag_13:\n      callvalue\n      dup1\n      iszero\n      tag_78\n      jumpi\n      0x00\n      dup1\n      revert\n    tag_78:\n      pop\n      tag_79\n      0x04\n      dup1\n      calldatasize\n      sub\n      dup2\n      add\n      swap1\n      tag_80\n      swap2\n      swap1\n      tag_81\n      jump\t// in\n    tag_80:\n      tag_82\n      jump\t// in\n    tag_79:\n      mload(0x40)\n      tag_83\n      swap2\n      swap1\n      tag_55\n      jump\t// in\n    tag_83:\n      mload(0x40)\n      dup1\n      swap2\n      sub\n      swap1\n      return\n        /* \"src/_Master.sol\":3657:3798  ICrocSwapDex public crocSwapDex =... */\n    tag_14:\n      callvalue\n      dup1\n      iszero\n      tag_84\n      jumpi\n      0x00\n      dup1\n      revert\n    tag_84:\n      pop\n      tag_85\n      tag_86\n      jump\t// in\n    tag_85:\n      mload(0x40)\n      tag_87\n      swap2\n      swap1\n      tag_88\n      jump\t// in\n    tag_87:\n      mload(0x40)\n      dup1\n      swap2\n      sub\n      swap1\n      return\n        /* \"src/_Master.sol\":3133:3296  function setUniswapV2Router02(address _uniswapV2Router02) external onlyOwner {... */\n    tag_15:\n      callvalue\n      dup1\n      iszero\n      tag_89\n      jumpi\n      0x00\n      dup1\n      revert\n    tag_89:\n      pop\n      tag_90\n      0x04\n      dup1\n      calldatasize\n      sub\n      dup2\n      add\n      swap1\n      tag_91\n      swap2\n      swap1\n      tag_47\n      jump\t// in\n    tag_91:\n      tag_92\n      jump\t// in\n    tag_90:\n      stop\n        /* \"src/_Master.sol\":7199:7323  function withdrawtoken(address token, uint256 amount) external {... */\n    tag_16:\n      callvalue\n      dup1\n      iszero\n      tag_93\n      jumpi\n      0x00\n      dup1\n      revert\n    tag_93:\n      pop\n      tag_94\n      0x04\n      dup1\n      calldatasize\n      sub\n      dup2\n      add\n      swap1\n      tag_95\n      swap2\n      swap1\n      tag_37\n      jump\t// in\n    tag_95:\n      tag_96\n      jump\t// in\n    tag_94:\n      stop\n        /* \"lib/openzeppelin-contracts/contracts/access/Ownable.sol\":1637:1722  function owner() public view virtual returns (address) {... */\n    tag_17:\n      callvalue\n      dup1\n      iszero\n      tag_97\n      jumpi\n      0x00\n      dup1\n      revert\n    tag_97:\n      pop\n      tag_98\n      tag_99\n      jump\t// in\n    tag_98:\n      mload(0x40)\n      tag_100\n      swap2\n      swap1\n      tag_55\n      jump\t// in\n    tag_100:\n      mload(0x40)\n      dup1\n      swap2\n      sub\n      swap1\n      return\n        /* \"src/_Master.sol\":6175:6919  function pairFor(address tokenA, address tokenB)... */\n    tag_18:\n      callvalue\n      dup1\n      iszero\n      tag_101\n      jumpi\n      0x00\n      dup1\n      revert\n    tag_101:\n      pop\n      tag_102\n      0x04\n      dup1\n      calldatasize\n      sub\n      dup2\n      add\n      swap1\n      tag_103\n      swap2\n      swap1\n      tag_104\n      jump\t// in\n    tag_103:\n      tag_105\n      jump\t// in\n    tag_102:\n      mload(0x40)\n      tag_106\n      swap2\n      swap1\n      tag_55\n      jump\t// in\n    tag_106:\n      mload(0x40)\n      dup1\n      swap2\n      sub\n      swap1\n      return\n        /* \"src/_Master.sol\":3968:3988  uint256 public price */\n    tag_19:\n      callvalue\n      dup1\n      iszero\n      tag_107\n      jumpi\n      0x00\n      dup1\n      revert\n    tag_107:\n      pop\n      tag_108\n      tag_109\n      jump\t// in\n    tag_108:\n      mload(0x40)\n      tag_110\n      swap2\n      swap1\n      tag_111\n      jump\t// in\n    tag_110:\n      mload(0x40)\n      dup1\n      swap2\n      sub\n      swap1\n      return\n        /* \"src/_Master.sol\":1667:1710  IUniswapV2Router02 public uniswapV2Router02 */\n    tag_20:\n      callvalue\n      dup1\n      iszero\n      tag_112\n      jumpi\n      0x00\n      dup1\n      revert\n    tag_112:\n      pop\n      tag_113\n      tag_114\n      jump\t// in\n    tag_113:\n      mload(0x40)\n      tag_115\n      swap2\n      swap1\n      tag_116\n      jump\t// in\n    tag_115:\n      mload(0x40)\n      dup1\n      swap2\n      sub\n      swap1\n      return\n        /* \"src/_Master.sol\":3995:4016  uint256 public amount */\n    tag_21:\n      callvalue\n      dup1\n      iszero\n      tag_117\n      jumpi\n      0x00\n      dup1\n      revert\n    tag_117:\n      pop\n      tag_118\n      tag_119\n      jump\t// in\n    tag_118:\n      mload(0x40)\n      tag_120\n      swap2\n      swap1\n      tag_111\n      jump\t// in\n    tag_120:\n      mload(0x40)\n      dup1\n      swap2\n      sub\n      swap1\n      return\n        /* \"src/_Master.sol\":3886:3961  address public factory =address(0xAB827b1Cc3535A9e549EE387A6E9C3F02F481B49) */\n    tag_22:\n      callvalue\n      dup1\n      iszero\n      tag_121\n      jumpi\n      0x00\n      dup1\n      revert\n    tag_121:\n      pop\n      tag_122\n      tag_123\n      jump\t// in\n    tag_122:\n      mload(0x40)\n      tag_124\n      swap2\n      swap1\n      tag_55\n      jump\t// in\n    tag_124:\n      mload(0x40)\n      dup1\n      swap2\n      sub\n      swap1\n      return\n        /* \"src/_Master.sol\":4029:6167  function execute(... */\n    tag_23:\n      tag_125\n      0x04\n      dup1\n      calldatasize\n      sub\n      dup2\n      add\n      swap1\n      tag_126\n      swap2\n      swap1\n      tag_127\n      jump\t// in\n    tag_126:\n      tag_128\n      jump\t// in\n    tag_125:\n      mload(0x40)\n      tag_129\n      swap3\n      swap2\n      swap1\n      tag_130\n      jump\t// in\n    tag_129:\n      mload(0x40)\n      dup1\n      swap2\n      sub\n      swap1\n      return\n        /* \"src/_Master.sol\":3494:3645  function swapBERA() public payable {... */\n    tag_24:\n      tag_131\n      tag_132\n      jump\t// in\n    tag_131:\n      stop\n        /* \"src/_Master.sol\":2737:2819  function setBond(address _bond) external onlyOwner {... */\n    tag_25:\n      callvalue\n      dup1\n      iszero\n      tag_133\n      jumpi\n      0x00\n      dup1\n      revert\n    tag_133:\n      pop\n      tag_134\n      0x04\n      dup1\n      calldatasize\n      sub\n      dup2\n      add\n      swap1\n      tag_135\n      swap2\n      swap1\n      tag_47\n      jump\t// in\n    tag_135:\n      tag_136\n      jump\t// in\n    tag_134:\n      stop\n        /* \"lib/openzeppelin-contracts/contracts/access/Ownable.sol\":2542:2757  function transferOwnership(address newOwner) public virtual onlyOwner {... */\n    tag_26:\n      callvalue\n      dup1\n      iszero\n      tag_137\n      jumpi\n      0x00\n      dup1\n      revert\n    tag_137:\n      pop\n      tag_138\n      0x04\n      dup1\n      calldatasize\n      sub\n      dup2\n      add\n      swap1\n      tag_139\n      swap2\n      swap1\n      tag_47\n      jump\t// in\n    tag_139:\n      tag_140\n      jump\t// in\n    tag_138:\n      stop\n        /* \"src/_Master.sol\":1854:1886  string public versions = \"0.1.1\" */\n    tag_27:\n      callvalue\n      dup1\n      iszero\n      tag_141\n      jumpi\n      0x00\n      dup1\n      revert\n    tag_141:\n      pop\n      tag_142\n      tag_143\n      jump\t// in\n    tag_142:\n      mload(0x40)\n      tag_144\n      swap2\n      swap1\n      tag_145\n      jump\t// in\n    tag_144:\n      mload(0x40)\n      dup1\n      swap2\n      sub\n      swap1\n      return\n        /* \"src/_Master.sol\":2995:3125  function rescueETH(address _to, uint256 _value) external onlyOwner {... */\n    tag_38:\n        /* \"lib/openzeppelin-contracts/contracts/access/Ownable.sol\":1530:1543  _checkOwner() */\n      tag_147\n        /* \"lib/openzeppelin-contracts/contracts/access/Ownable.sol\":1530:1541  _checkOwner */\n      tag_148\n        /* \"lib/openzeppelin-contracts/contracts/access/Ownable.sol\":1530:1543  _checkOwner() */\n      jump\t// in\n    tag_147:\n        /* \"src/_Master.sol\":3073:3117  SafeTransferLib.safeTransferETH(_to, _value) */\n      tag_150\n        /* \"src/_Master.sol\":3105:3108  _to */\n      dup3\n        /* \"src/_Master.sol\":3110:3116  _value */\n      dup3\n        /* \"src/_Master.sol\":3073:3104  SafeTransferLib.safeTransferETH */\n      tag_151\n        /* \"src/_Master.sol\":3073:3117  SafeTransferLib.safeTransferETH(_to, _value) */\n      jump\t// in\n    tag_150:\n        /* \"src/_Master.sol\":2995:3125  function rescueETH(address _to, uint256 _value) external onlyOwner {... */\n      pop\n      pop\n      jump\t// out\n        /* \"src/_Master.sol\":6968:7074  function getToken() external view returns (address[] memory) {... */\n    tag_41:\n        /* \"src/_Master.sol\":7011:7027  address[] memory */\n      0x60\n        /* \"src/_Master.sol\":7047:7066  addedLiquidityToken */\n      0x05\n        /* \"src/_Master.sol\":7040:7066  return addedLiquidityToken */\n      dup1\n      sload\n      dup1\n      0x20\n      mul\n      0x20\n      add\n      mload(0x40)\n      swap1\n      dup2\n      add\n      0x40\n      mstore\n      dup1\n      swap3\n      swap2\n      swap1\n      dup2\n      dup2\n      mstore\n      0x20\n      add\n      dup3\n      dup1\n      sload\n      dup1\n      iszero\n      tag_153\n      jumpi\n      0x20\n      mul\n      dup3\n      add\n      swap2\n      swap1\n      0x00\n      mstore\n      keccak256(0x00, 0x20)\n      swap1\n    tag_154:\n      dup2\n      0x00\n      swap1\n      sload\n      swap1\n      0x0100\n      exp\n      swap1\n      div\n      0xffffffffffffffffffffffffffffffffffffffff\n      and\n      0xffffffffffffffffffffffffffffffffffffffff\n      and\n      dup2\n      mstore\n      0x20\n      add\n      swap1\n      0x01\n      add\n      swap1\n      dup1\n      dup4\n      gt\n      tag_154\n      jumpi\n    tag_153:\n      pop\n      pop\n      pop\n      pop\n      pop\n      swap1\n      pop\n        /* \"src/_Master.sol\":6968:7074  function getToken() external view returns (address[] memory) {... */\n      swap1\n      jump\t// out\n        /* \"src/_Master.sol\":1621:1660  mapping(address => bool) public isAdmin */\n    tag_48:\n      mstore(0x20, 0x02)\n      dup1\n      0x00\n      mstore\n      keccak256(0x00, 0x40)\n      0x00\n      swap2\n      pop\n      sload\n      swap1\n      0x0100\n      exp\n      swap1\n      div\n      0xff\n      and\n      dup2\n      jump\t// out\n        /* \"src/_Master.sol\":3805:3879  address public wbera = address(0x7507c1dc16935B82698e4C63f2746A2fCf994dF8) */\n    tag_53:\n      0x08\n      0x00\n      swap1\n      sload\n      swap1\n      0x0100\n      exp\n      swap1\n      div\n      0xffffffffffffffffffffffffffffffffffffffff\n      and\n      dup2\n      jump\t// out\n        /* \"src/_Master.sol\":1719:1802  address public liquidityOwner = address(0x07C0baD65cf9E2063C56382e6c5872d49Eb4099a) */\n    tag_58:\n      0x04\n      0x00\n      swap1\n      sload\n      swap1\n      0x0100\n      exp\n      swap1\n      div\n      0xffffffffffffffffffffffffffffffffffffffff\n      and\n      dup2\n      jump\t// out\n        /* \"src/_Master.sol\":7086:7193  function withdraw() external payable {... */\n    tag_61:\n        /* \"src/_Master.sol\":7142:7152  msg.sender */\n      caller\n        /* \"src/_Master.sol\":7134:7162  payable(msg.sender).transfer */\n      0xffffffffffffffffffffffffffffffffffffffff\n      and\n        /* \"src/_Master.sol\":7134:7185  payable(msg.sender).transfer(address(this).balance) */\n      0x08fc\n        /* \"src/_Master.sol\":7163:7184  address(this).balance */\n      selfbalance\n        /* \"src/_Master.sol\":7134:7185  payable(msg.sender).transfer(address(this).balance) */\n      swap1\n      dup2\n      iszero\n      mul\n      swap1\n      mload(0x40)\n      0x00\n      mload(0x40)\n      dup1\n      dup4\n      sub\n      dup2\n      dup6\n      dup9\n      dup9\n      call\n      swap4\n      pop\n      pop\n      pop\n      pop\n      iszero\n      dup1\n      iszero\n      tag_157\n      jumpi\n      returndatasize\n      0x00\n      dup1\n      returndatacopy\n      revert(0x00, returndatasize)\n    tag_157:\n      pop\n        /* \"src/_Master.sol\":7086:7193  function withdraw() external payable {... */\n      jump\t// out\n        /* \"src/_Master.sol\":2573:2729  function setAdmin(address _admin, bool _status) external {... */\n    tag_66:\n        /* \"src/_Master.sol\":2659:2666  owner() */\n      tag_159\n        /* \"src/_Master.sol\":2659:2664  owner */\n      tag_99\n        /* \"src/_Master.sol\":2659:2666  owner() */\n      jump\t// in\n    tag_159:\n        /* \"src/_Master.sol\":2645:2666  msg.sender != owner() */\n      0xffffffffffffffffffffffffffffffffffffffff\n      and\n        /* \"src/_Master.sol\":2645:2655  msg.sender */\n      caller\n        /* \"src/_Master.sol\":2645:2666  msg.sender != owner() */\n      0xffffffffffffffffffffffffffffffffffffffff\n      and\n      eq\n        /* \"src/_Master.sol\":2641:2685  if (msg.sender != owner()) revert _NoOwner() */\n      tag_160\n      jumpi\n        /* \"src/_Master.sol\":2675:2685  _NoOwner() */\n      mload(0x40)\n      0xad9cd75900000000000000000000000000000000000000000000000000000000\n      dup2\n      mstore\n      0x04\n      add\n      mload(0x40)\n      dup1\n      swap2\n      sub\n      swap1\n      revert\n        /* \"src/_Master.sol\":2641:2685  if (msg.sender != owner()) revert _NoOwner() */\n    tag_160:\n        /* \"src/_Master.sol\":2714:2721  _status */\n      dup1\n        /* \"src/_Master.sol\":2696:2703  isAdmin */\n      0x02\n        /* \"src/_Master.sol\":2696:2711  isAdmin[_admin] */\n      0x00\n        /* \"src/_Master.sol\":2704:2710  _admin */\n      dup5\n        /* \"src/_Master.sol\":2696:2711  isAdmin[_admin] */\n      0xffffffffffffffffffffffffffffffffffffffff\n      and\n      0xffffffffffffffffffffffffffffffffffffffff\n      and\n      dup2\n      mstore\n      0x20\n      add\n      swap1\n      dup2\n      mstore\n      0x20\n      add\n      0x00\n      keccak256\n      0x00\n        /* \"src/_Master.sol\":2696:2721  isAdmin[_admin] = _status */\n      0x0100\n      exp\n      dup2\n      sload\n      dup2\n      0xff\n      mul\n      not\n      and\n      swap1\n      dup4\n      iszero\n      iszero\n      mul\n      or\n      swap1\n      sstore\n      pop\n        /* \"src/_Master.sol\":2573:2729  function setAdmin(address _admin, bool _status) external {... */\n      pop\n      pop\n      jump\t// out\n        /* \"src/_Master.sol\":1595:1614  address public bond */\n    tag_69:\n      0x01\n      0x00\n      swap1\n      sload\n      swap1\n      0x0100\n      exp\n      swap1\n      div\n      0xffffffffffffffffffffffffffffffffffffffff\n      and\n      dup2\n      jump\t// out\n        /* \"lib/openzeppelin-contracts/contracts/access/Ownable.sol\":2292:2393  function renounceOwnership() public virtual onlyOwner {... */\n    tag_73:\n        /* \"lib/openzeppelin-contracts/contracts/access/Ownable.sol\":1530:1543  _checkOwner() */\n      tag_162\n        /* \"lib/openzeppelin-contracts/contracts/access/Ownable.sol\":1530:1541  _checkOwner */\n      tag_148\n        /* \"lib/openzeppelin-contracts/contracts/access/Ownable.sol\":1530:1543  _checkOwner() */\n      jump\t// in\n    tag_162:\n        /* \"lib/openzeppelin-contracts/contracts/access/Ownable.sol\":2356:2386  _transferOwnership(address(0)) */\n      tag_164\n        /* \"lib/openzeppelin-contracts/contracts/access/Ownable.sol\":2383:2384  0 */\n      0x00\n        /* \"lib/openzeppelin-contracts/contracts/access/Ownable.sol\":2356:2374  _transferOwnership */\n      tag_165\n        /* \"lib/openzeppelin-contracts/contracts/access/Ownable.sol\":2356:2386  _transferOwnership(address(0)) */\n      jump\t// in\n    tag_164:\n        /* \"lib/openzeppelin-contracts/contracts/access/Ownable.sol\":2292:2393  function renounceOwnership() public virtual onlyOwner {... */\n      jump\t// out\n        /* \"src/_Master.sol\":2850:2972  function setLiquidityOwner(address _liquidityOwner) external onlyOwner {... */\n    tag_77:\n        /* \"lib/openzeppelin-contracts/contracts/access/Ownable.sol\":1530:1543  _checkOwner() */\n      tag_167\n        /* \"lib/openzeppelin-contracts/contracts/access/Ownable.sol\":1530:1541  _checkOwner */\n      tag_148\n        /* \"lib/openzeppelin-contracts/contracts/access/Ownable.sol\":1530:1543  _checkOwner() */\n      jump\t// in\n    tag_167:\n        /* \"src/_Master.sol\":2949:2964  _liquidityOwner */\n      dup1\n        /* \"src/_Master.sol\":2932:2946  liquidityOwner */\n      0x04\n      0x00\n        /* \"src/_Master.sol\":2932:2964  liquidityOwner = _liquidityOwner */\n      0x0100\n      exp\n      dup2\n      sload\n      dup2\n      0xffffffffffffffffffffffffffffffffffffffff\n      mul\n      not\n      and\n      swap1\n      dup4\n      0xffffffffffffffffffffffffffffffffffffffff\n      and\n      mul\n      or\n      swap1\n      sstore\n      pop\n        /* \"src/_Master.sol\":2850:2972  function setLiquidityOwner(address _liquidityOwner) external onlyOwner {... */\n      pop\n      jump\t// out\n        /* \"src/_Master.sol\":1811:1847  address[] public addedLiquidityToken */\n    tag_82:\n      0x05\n      dup2\n      dup2\n      sload\n      dup2\n      lt\n      tag_169\n      jumpi\n      0x00\n      dup1\n      revert\n    tag_169:\n      swap1\n      0x00\n      mstore\n      keccak256(0x00, 0x20)\n      add\n      0x00\n      swap2\n      pop\n      sload\n      swap1\n      0x0100\n      exp\n      swap1\n      div\n      0xffffffffffffffffffffffffffffffffffffffff\n      and\n      dup2\n      jump\t// out\n        /* \"src/_Master.sol\":3657:3798  ICrocSwapDex public crocSwapDex =... */\n    tag_86:\n      0x07\n      0x00\n      swap1\n      sload\n      swap1\n      0x0100\n      exp\n      swap1\n      div\n      0xffffffffffffffffffffffffffffffffffffffff\n      and\n      dup2\n      jump\t// out\n        /* \"src/_Master.sol\":3133:3296  function setUniswapV2Router02(address _uniswapV2Router02) external onlyOwner {... */\n    tag_92:\n        /* \"lib/openzeppelin-contracts/contracts/access/Ownable.sol\":1530:1543  _checkOwner() */\n      tag_172\n        /* \"lib/openzeppelin-contracts/contracts/access/Ownable.sol\":1530:1541  _checkOwner */\n      tag_148\n        /* \"lib/openzeppelin-contracts/contracts/access/Ownable.sol\":1530:1543  _checkOwner() */\n      jump\t// in\n    tag_172:\n        /* \"src/_Master.sol\":3268:3286  _uniswapV2Router02 */\n      dup1\n        /* \"src/_Master.sol\":3221:3238  uniswapV2Router02 */\n      0x03\n      0x00\n        /* \"src/_Master.sol\":3221:3288  uniswapV2Router02 = IUniswapV2Router02(payable(_uniswapV2Router02)) */\n      0x0100\n      exp\n      dup2\n      sload\n      dup2\n      0xffffffffffffffffffffffffffffffffffffffff\n      mul\n      not\n      and\n      swap1\n      dup4\n      0xffffffffffffffffffffffffffffffffffffffff\n      and\n      mul\n      or\n      swap1\n      sstore\n      pop\n        /* \"src/_Master.sol\":3133:3296  function setUniswapV2Router02(address _uniswapV2Router02) external onlyOwner {... */\n      pop\n      jump\t// out\n        /* \"src/_Master.sol\":7199:7323  function withdrawtoken(address token, uint256 amount) external {... */\n    tag_96:\n        /* \"src/_Master.sol\":7280:7285  token */\n      dup2\n        /* \"src/_Master.sol\":7273:7295  IERC20(token).transfer */\n      0xffffffffffffffffffffffffffffffffffffffff\n      and\n      0xa9059cbb\n        /* \"src/_Master.sol\":7296:7306  msg.sender */\n      caller\n        /* \"src/_Master.sol\":7308:7314  amount */\n      dup4\n        /* \"src/_Master.sol\":7273:7315  IERC20(token).transfer(msg.sender, amount) */\n      mload(0x40)\n      dup4\n      0xffffffff\n      and\n      0xe0\n      shl\n      dup2\n      mstore\n      0x04\n      add\n      tag_175\n      swap3\n      swap2\n      swap1\n      tag_176\n      jump\t// in\n    tag_175:\n      0x20\n      mload(0x40)\n      dup1\n      dup4\n      sub\n      dup2\n      0x00\n      dup8\n      gas\n      call\n      iszero\n      dup1\n      iszero\n      tag_178\n      jumpi\n      returndatasize\n      0x00\n      dup1\n      returndatacopy\n      revert(0x00, returndatasize)\n    tag_178:\n      pop\n      pop\n      pop\n      pop\n      mload(0x40)\n      returndatasize\n      not(0x1f)\n      0x1f\n      dup3\n      add\n      and\n      dup3\n      add\n      dup1\n      0x40\n      mstore\n      pop\n      dup2\n      add\n      swap1\n      tag_179\n      swap2\n      swap1\n      tag_180\n      jump\t// in\n    tag_179:\n      pop\n        /* \"src/_Master.sol\":7199:7323  function withdrawtoken(address token, uint256 amount) external {... */\n      pop\n      pop\n      jump\t// out\n        /* \"lib/openzeppelin-contracts/contracts/access/Ownable.sol\":1637:1722  function owner() public view virtual returns (address) {... */\n    tag_99:\n        /* \"lib/openzeppelin-contracts/contracts/access/Ownable.sol\":1683:1690  address */\n      0x00\n        /* \"lib/openzeppelin-contracts/contracts/access/Ownable.sol\":1709:1715  _owner */\n      dup1\n      0x00\n      swap1\n      sload\n      swap1\n      0x0100\n      exp\n      swap1\n      div\n      0xffffffffffffffffffffffffffffffffffffffff\n      and\n        /* \"lib/openzeppelin-contracts/contracts/access/Ownable.sol\":1702:1715  return _owner */\n      swap1\n      pop\n        /* \"lib/openzeppelin-contracts/contracts/access/Ownable.sol\":1637:1722  function owner() public view virtual returns (address) {... */\n      swap1\n      jump\t// out\n        /* \"src/_Master.sol\":6175:6919  function pairFor(address tokenA, address tokenB)... */\n    tag_105:\n        /* \"src/_Master.sol\":6272:6284  address pair */\n      0x00\n        /* \"src/_Master.sol\":6302:6314  bytes32 salt */\n      dup1\n        /* \"src/_Master.sol\":6344:6350  tokenA */\n      dup4\n        /* \"src/_Master.sol\":6352:6358  tokenB */\n      dup4\n        /* \"src/_Master.sol\":6327:6359  abi.encodePacked(tokenA, tokenB) */\n      add(0x20, mload(0x40))\n      tag_183\n      swap3\n      swap2\n      swap1\n      tag_184\n      jump\t// in\n    tag_183:\n      mload(0x40)\n      0x20\n      dup2\n      dup4\n      sub\n      sub\n      dup2\n      mstore\n      swap1\n      0x40\n      mstore\n        /* \"src/_Master.sol\":6317:6360  keccak256(abi.encodePacked(tokenA, tokenB)) */\n      dup1\n      mload\n      swap1\n      0x20\n      add\n      keccak256\n        /* \"src/_Master.sol\":6302:6360  bytes32 salt = keccak256(abi.encodePacked(tokenA, tokenB)) */\n      swap1\n      pop\n        /* \"src/_Master.sol\":6577:6584  factory */\n      0x09\n      0x00\n      swap1\n      sload\n      swap1\n      0x0100\n      exp\n      swap1\n      div\n      0xffffffffffffffffffffffffffffffffffffffff\n      and\n        /* \"src/_Master.sol\":6615:6619  salt */\n      dup2\n        /* \"src/_Master.sol\":6492:6746  abi.encodePacked(... */\n      add(0x20, mload(0x40))\n      tag_185\n      swap3\n      swap2\n      swap1\n      tag_186\n      jump\t// in\n    tag_185:\n      mload(0x40)\n      0x20\n      dup2\n      dup4\n      sub\n      sub\n      dup2\n      mstore\n      swap1\n      0x40\n      mstore\n        /* \"src/_Master.sol\":6456:6769  keccak256(... */\n      dup1\n      mload\n      swap1\n      0x20\n      add\n      keccak256\n        /* \"src/_Master.sol\":6426:6788  uint256(... */\n      0x00\n      shr\n        /* \"src/_Master.sol\":6371:6814  pair = address(... */\n      swap2\n      pop\n        /* \"src/_Master.sol\":6291:6919  {... */\n      pop\n        /* \"src/_Master.sol\":6175:6919  function pairFor(address tokenA, address tokenB)... */\n      swap3\n      swap2\n      pop\n      pop\n      jump\t// out\n        /* \"src/_Master.sol\":3968:3988  uint256 public price */\n    tag_109:\n      sload(0x0a)\n      dup2\n      jump\t// out\n        /* \"src/_Master.sol\":1667:1710  IUniswapV2Router02 public uniswapV2Router02 */\n    tag_114:\n      0x03\n      0x00\n      swap1\n      sload\n      swap1\n      0x0100\n      exp\n      swap1\n      div\n      0xffffffffffffffffffffffffffffffffffffffff\n      and\n      dup2\n      jump\t// out\n        /* \"src/_Master.sol\":3995:4016  uint256 public amount */\n    tag_119:\n      sload(0x0b)\n      dup2\n      jump\t// out\n        /* \"src/_Master.sol\":3886:3961  address public factory =address(0xAB827b1Cc3535A9e549EE387A6E9C3F02F481B49) */\n    tag_123:\n      0x09\n      0x00\n      swap1\n      sload\n      swap1\n      0x0100\n      exp\n      swap1\n      div\n      0xffffffffffffffffffffffffffffffffffffffff\n      and\n      dup2\n      jump\t// out\n        /* \"src/_Master.sol\":4029:6167  function execute(... */\n    tag_128:\n        /* \"src/_Master.sol\":4170:4190  uint256 _amountToken */\n      0x00\n        /* \"src/_Master.sol\":4192:4210  uint256 _amountETH */\n      dup1\n        /* \"src/_Master.sol\":2283:2287  bond */\n      0x01\n      0x00\n      swap1\n      sload\n      swap1\n      0x0100\n      exp\n      swap1\n      div\n      0xffffffffffffffffffffffffffffffffffffffff\n      and\n        /* \"src/_Master.sol\":2269:2287  msg.sender != bond */\n      0xffffffffffffffffffffffffffffffffffffffff\n      and\n        /* \"src/_Master.sol\":2269:2279  msg.sender */\n      caller\n        /* \"src/_Master.sol\":2269:2287  msg.sender != bond */\n      0xffffffffffffffffffffffffffffffffffffffff\n      and\n      eq\n        /* \"src/_Master.sol\":2265:2308  if (msg.sender != bond) revert _Forbidden() */\n      tag_188\n      jumpi\n        /* \"src/_Master.sol\":2296:2308  _Forbidden() */\n      mload(0x40)\n      0x0bb766ef00000000000000000000000000000000000000000000000000000000\n      dup2\n      mstore\n      0x04\n      add\n      mload(0x40)\n      dup1\n      swap2\n      sub\n      swap1\n      revert\n        /* \"src/_Master.sol\":2265:2308  if (msg.sender != bond) revert _Forbidden() */\n    tag_188:\n        /* \"src/_Master.sol\":4222:4232  swapBERA() */\n      tag_190\n        /* \"src/_Master.sol\":4222:4230  swapBERA */\n      tag_132\n        /* \"src/_Master.sol\":4222:4232  swapBERA() */\n      jump\t// in\n    tag_190:\n        /* \"src/_Master.sol\":4262:4263  0 */\n      0x00\n        /* \"src/_Master.sol\":4247:4258  amountToken */\n      dup5\n        /* \"src/_Master.sol\":4247:4263  amountToken == 0 */\n      sub\n        /* \"src/_Master.sol\":4243:4293  if (amountToken == 0) revert _InvalidAmountToken() */\n      tag_191\n      jumpi\n        /* \"src/_Master.sol\":4272:4293  _InvalidAmountToken() */\n      mload(0x40)\n      0x51ba5f2d00000000000000000000000000000000000000000000000000000000\n      dup2\n      mstore\n      0x04\n      add\n      mload(0x40)\n      dup1\n      swap2\n      sub\n      swap1\n      revert\n        /* \"src/_Master.sol\":4243:4293  if (amountToken == 0) revert _InvalidAmountToken() */\n    tag_191:\n        /* \"src/_Master.sol\":4321:4322  0 */\n      0x00\n        /* \"src/_Master.sol\":4308:4317  amountEth */\n      dup4\n        /* \"src/_Master.sol\":4308:4322  amountEth == 0 */\n      sub\n        /* \"src/_Master.sol\":4304:4350  if (amountEth == 0) revert _InvalidAmountEth() */\n      tag_192\n      jumpi\n        /* \"src/_Master.sol\":4331:4350  _InvalidAmountEth() */\n      mload(0x40)\n      0xbc2d457700000000000000000000000000000000000000000000000000000000\n      dup2\n      mstore\n      0x04\n      add\n      mload(0x40)\n      dup1\n      swap2\n      sub\n      swap1\n      revert\n        /* \"src/_Master.sol\":4304:4350  if (amountEth == 0) revert _InvalidAmountEth() */\n    tag_192:\n        /* \"src/_Master.sol\":4369:4374  token */\n      dup5\n        /* \"src/_Master.sol\":4361:4388  I_Token(token).transferFrom */\n      0xffffffffffffffffffffffffffffffffffffffff\n      and\n      0x23b872dd\n        /* \"src/_Master.sol\":4389:4399  msg.sender */\n      caller\n        /* \"src/_Master.sol\":4409:4413  this */\n      address\n        /* \"src/_Master.sol\":4416:4427  amountToken */\n      dup8\n        /* \"src/_Master.sol\":4361:4428  I_Token(token).transferFrom(msg.sender, address(this), amountToken) */\n      mload(0x40)\n      dup5\n      0xffffffff\n      and\n      0xe0\n      shl\n      dup2\n      mstore\n      0x04\n      add\n      tag_193\n      swap4\n      swap3\n      swap2\n      swap1\n      tag_194\n      jump\t// in\n    tag_193:\n      0x20\n      mload(0x40)\n      dup1\n      dup4\n      sub\n      dup2\n      0x00\n      dup8\n      gas\n      call\n      iszero\n      dup1\n      iszero\n      tag_196\n      jumpi\n      returndatasize\n      0x00\n      dup1\n      returndatacopy\n      revert(0x00, returndatasize)\n    tag_196:\n      pop\n      pop\n      pop\n      pop\n      mload(0x40)\n      returndatasize\n      not(0x1f)\n      0x1f\n      dup3\n      add\n      and\n      dup3\n      add\n      dup1\n      0x40\n      mstore\n      pop\n      dup2\n      add\n      swap1\n      tag_197\n      swap2\n      swap1\n      tag_180\n      jump\t// in\n    tag_197:\n      pop\n        /* \"src/_Master.sol\":4446:4451  wbera */\n      0x08\n      0x00\n      swap1\n      sload\n      swap1\n      0x0100\n      exp\n      swap1\n      div\n      0xffffffffffffffffffffffffffffffffffffffff\n      and\n        /* \"src/_Master.sol\":4439:4460  IERC20(wbera).approve */\n      0xffffffffffffffffffffffffffffffffffffffff\n      and\n      0x095ea7b3\n        /* \"src/_Master.sol\":4469:4480  crocSwapDex */\n      0x07\n      0x00\n      swap1\n      sload\n      swap1\n      0x0100\n      exp\n      swap1\n      div\n      0xffffffffffffffffffffffffffffffffffffffff\n      and\n        /* \"src/_Master.sol\":4483:4500  type(uint256).max */\n      0xffffffffffffffffffffffffffffffffffffffffffffffffffffffffffffffff\n        /* \"src/_Master.sol\":4439:4501  IERC20(wbera).approve(address(crocSwapDex), type(uint256).max) */\n      mload(0x40)\n      dup4\n      0xffffffff\n      and\n      0xe0\n      shl\n      dup2\n      mstore\n      0x04\n      add\n      tag_198\n      swap3\n      swap2\n      swap1\n      tag_176\n      jump\t// in\n    tag_198:\n      0x20\n      mload(0x40)\n      dup1\n      dup4\n      sub\n      dup2\n      0x00\n      dup8\n      gas\n      call\n      iszero\n      dup1\n      iszero\n      tag_200\n      jumpi\n      returndatasize\n      0x00\n      dup1\n      returndatacopy\n      revert(0x00, returndatasize)\n    tag_200:\n      pop\n      pop\n      pop\n      pop\n      mload(0x40)\n      returndatasize\n      not(0x1f)\n      0x1f\n      dup3\n      add\n      and\n      dup3\n      add\n      dup1\n      0x40\n      mstore\n      pop\n      dup2\n      add\n      swap1\n      tag_201\n      swap2\n      swap1\n      tag_180\n      jump\t// in\n    tag_201:\n      pop\n        /* \"src/_Master.sol\":4519:4524  token */\n      dup5\n        /* \"src/_Master.sol\":4512:4533  IERC20(token).approve */\n      0xffffffffffffffffffffffffffffffffffffffff\n      and\n      0x095ea7b3\n        /* \"src/_Master.sol\":4542:4553  crocSwapDex */\n      0x07\n      0x00\n      swap1\n      sload\n      swap1\n      0x0100\n      exp\n      swap1\n      div\n      0xffffffffffffffffffffffffffffffffffffffff\n      and\n        /* \"src/_Master.sol\":4556:4573  type(uint256).max */\n      0xffffffffffffffffffffffffffffffffffffffffffffffffffffffffffffffff\n        /* \"src/_Master.sol\":4512:4574  IERC20(token).approve(address(crocSwapDex), type(uint256).max) */\n      mload(0x40)\n      dup4\n      0xffffffff\n      and\n      0xe0\n      shl\n      dup2\n      mstore\n      0x04\n      add\n      tag_202\n      swap3\n      swap2\n      swap1\n      tag_176\n      jump\t// in\n    tag_202:\n      0x20\n      mload(0x40)\n      dup1\n      dup4\n      sub\n      dup2\n      0x00\n      dup8\n      gas\n      call\n      iszero\n      dup1\n      iszero\n      tag_204\n      jumpi\n      returndatasize\n      0x00\n      dup1\n      returndatacopy\n      revert(0x00, returndatasize)\n    tag_204:\n      pop\n      pop\n      pop\n      pop\n      mload(0x40)\n      returndatasize\n      not(0x1f)\n      0x1f\n      dup3\n      add\n      and\n      dup3\n      add\n      dup1\n      0x40\n      mstore\n      pop\n      dup2\n      add\n      swap1\n      tag_205\n      swap2\n      swap1\n      tag_180\n      jump\t// in\n    tag_205:\n      pop\n        /* \"src/_Master.sol\":4585:4599  address token1 */\n      0x00\n        /* \"src/_Master.sol\":4610:4624  address token2 */\n      dup1\n        /* \"src/_Master.sol\":4635:4649  uint256  SCALE */\n      0x00\n        /* \"src/_Master.sol\":4652:4657  10000 */\n      0x2710\n        /* \"src/_Master.sol\":4635:4657  uint256  SCALE = 10000 */\n      swap1\n      pop\n        /* \"src/_Master.sol\":4669:4688  uint256  MULTIPLIER */\n      0x00\n        /* \"src/_Master.sol\":4691:4697  404178 */\n      0x062ad2\n        /* \"src/_Master.sol\":4669:4697  uint256  MULTIPLIER = 404178 */\n      swap1\n      pop\n        /* \"src/_Master.sol\":4723:4728  wbera */\n      0x08\n      0x00\n      swap1\n      sload\n      swap1\n      0x0100\n      exp\n      swap1\n      div\n      0xffffffffffffffffffffffffffffffffffffffff\n      and\n        /* \"src/_Master.sol\":4715:4728  token > wbera */\n      0xffffffffffffffffffffffffffffffffffffffff\n      and\n        /* \"src/_Master.sol\":4715:4720  token */\n      dup10\n        /* \"src/_Master.sol\":4715:4728  token > wbera */\n      0xffffffffffffffffffffffffffffffffffffffff\n      and\n      gt\n        /* \"src/_Master.sol\":4711:5146  if (token > wbera) {... */\n      iszero\n      tag_206\n      jumpi\n        /* \"src/_Master.sol\":4810:4827  24541796785258496 */\n      0x5730a257890000\n        /* \"src/_Master.sol\":4802:4807  price */\n      0x0a\n        /* \"src/_Master.sol\":4802:4827  price = 24541796785258496 */\n      dup2\n      swap1\n      sstore\n      pop\n        /* \"src/_Master.sol\":4887:4892  SCALE */\n      dup2\n        /* \"src/_Master.sol\":4873:4883  MULTIPLIER */\n      dup2\n        /* \"src/_Master.sol\":4852:4870  100000000000000000 */\n      0x016345785d8a0000\n        /* \"src/_Master.sol\":4852:4883  100000000000000000 * MULTIPLIER */\n      tag_207\n      swap2\n      swap1\n      tag_208\n      jump\t// in\n    tag_207:\n        /* \"src/_Master.sol\":4851:4892  (100000000000000000 * MULTIPLIER) / SCALE */\n      tag_209\n      swap2\n      swap1\n      tag_210\n      jump\t// in\n    tag_209:\n        /* \"src/_Master.sol\":4842:4848  amount */\n      0x0b\n        /* \"src/_Master.sol\":4842:4892  amount = (100000000000000000 * MULTIPLIER) / SCALE */\n      dup2\n      swap1\n      sstore\n      pop\n        /* \"src/_Master.sol\":4916:4921  wbera */\n      0x08\n      0x00\n      swap1\n      sload\n      swap1\n      0x0100\n      exp\n      swap1\n      div\n      0xffffffffffffffffffffffffffffffffffffffff\n      and\n        /* \"src/_Master.sol\":4907:4921  token1 = wbera */\n      swap4\n      pop\n        /* \"src/_Master.sol\":4945:4950  token */\n      dup9\n        /* \"src/_Master.sol\":4936:4950  token2 = token */\n      swap3\n      pop\n        /* \"src/_Master.sol\":4711:5146  if (token > wbera) {... */\n      jump(tag_211)\n    tag_206:\n        /* \"src/_Master.sol\":4997:5020  13853492517896890351616 */\n      0x02eeffd45e1400000000\n        /* \"src/_Master.sol\":4989:4994  price */\n      0x0a\n        /* \"src/_Master.sol\":4989:5020  price = 13853492517896890351616 */\n      dup2\n      swap1\n      sstore\n      pop\n        /* \"src/_Master.sol\":5044:5071  100000000000000000*22834999 */\n      0x01e38cc7124502eea60000\n        /* \"src/_Master.sol\":5035:5041  amount */\n      0x0b\n        /* \"src/_Master.sol\":5035:5071  amount = 100000000000000000*22834999 */\n      dup2\n      swap1\n      sstore\n      pop\n        /* \"src/_Master.sol\":5095:5100  token */\n      dup9\n        /* \"src/_Master.sol\":5086:5100  token1 = token */\n      swap4\n      pop\n        /* \"src/_Master.sol\":5124:5129  wbera */\n      0x08\n      0x00\n      swap1\n      sload\n      swap1\n      0x0100\n      exp\n      swap1\n      div\n      0xffffffffffffffffffffffffffffffffffffffff\n      and\n        /* \"src/_Master.sol\":5115:5129  token2 = wbera */\n      swap3\n      pop\n        /* \"src/_Master.sol\":4711:5146  if (token > wbera) {... */\n    tag_211:\n        /* \"src/_Master.sol\":5156:5168  address pair */\n      0x00\n        /* \"src/_Master.sol\":5171:5194  pairFor(token1, token2) */\n      tag_212\n        /* \"src/_Master.sol\":5179:5185  token1 */\n      dup6\n        /* \"src/_Master.sol\":5187:5193  token2 */\n      dup6\n        /* \"src/_Master.sol\":5171:5178  pairFor */\n      tag_105\n        /* \"src/_Master.sol\":5171:5194  pairFor(token1, token2) */\n      jump\t// in\n    tag_212:\n        /* \"src/_Master.sol\":5156:5194  address pair = pairFor(token1, token2) */\n      swap1\n      pop\n        /* \"src/_Master.sol\":5205:5234  bytes memory initPoolCalldata */\n      0x00\n        /* \"src/_Master.sol\":5273:5275  71 */\n      0x47\n        /* \"src/_Master.sol\":5290:5296  token1 */\n      dup7\n        /* \"src/_Master.sol\":5311:5317  token2 */\n      dup7\n        /* \"src/_Master.sol\":5332:5337  36000 */\n      0x8ca0\n        /* \"src/_Master.sol\":5352:5357  price */\n      sload(0x0a)\n        /* \"src/_Master.sol\":5237:5368  abi.encode(//创池子... */\n      add(0x20, mload(0x40))\n      tag_213\n      swap6\n      swap5\n      swap4\n      swap3\n      swap2\n      swap1\n      tag_214\n      jump\t// in\n    tag_213:\n      mload(0x40)\n      0x20\n      dup2\n      dup4\n      sub\n      sub\n      dup2\n      mstore\n      swap1\n      0x40\n      mstore\n        /* \"src/_Master.sol\":5205:5368  bytes memory initPoolCalldata = abi.encode(//创池子... */\n      swap1\n      pop\n        /* \"src/_Master.sol\":5379:5404  bytes memory mintCalldata */\n      0x00\n        /* \"src/_Master.sol\":5446:5448  31 */\n      0x1f\n        /* \"src/_Master.sol\":5463:5469  token1 */\n      dup8\n        /* \"src/_Master.sol\":5484:5490  token2 */\n      dup8\n        /* \"src/_Master.sol\":5505:5510  36000 */\n      0x8ca0\n        /* \"src/_Master.sol\":5525:5526  0 */\n      0x00\n        /* \"src/_Master.sol\":5541:5542  0 */\n      dup1\n        /* \"src/_Master.sol\":5557:5563  amount */\n      sload(0x0b)\n        /* \"src/_Master.sol\":5596:5601  price */\n      sload(0x0a)\n        /* \"src/_Master.sol\":5699:5704  price */\n      sload(0x0a)\n        /* \"src/_Master.sol\":5719:5720  0 */\n      0x00\n        /* \"src/_Master.sol\":5735:5739  pair */\n      dup13\n        /* \"src/_Master.sol\":5407:5750  abi.encode(//加流动性... */\n      add(0x20, mload(0x40))\n      tag_215\n      swap12\n      swap11\n      swap10\n      swap9\n      swap8\n      swap7\n      swap6\n      swap5\n      swap4\n      swap3\n      swap2\n      swap1\n      tag_216\n      jump\t// in\n    tag_215:\n      mload(0x40)\n      0x20\n      dup2\n      dup4\n      sub\n      sub\n      dup2\n      mstore\n      swap1\n      0x40\n      mstore\n        /* \"src/_Master.sol\":5379:5750  bytes memory mintCalldata = abi.encode(//加流动性... */\n      swap1\n      pop\n        /* \"src/_Master.sol\":5763:5784  bytes memory multiCmd */\n      0x00\n        /* \"src/_Master.sol\":5812:5813  2 */\n      0x02\n        /* \"src/_Master.sol\":5828:5829  3 */\n      0x03\n        /* \"src/_Master.sol\":5844:5860  initPoolCalldata */\n      dup5\n        /* \"src/_Master.sol\":5875:5878  128 */\n      0x80\n        /* \"src/_Master.sol\":5893:5905  mintCalldata */\n      dup6\n        /* \"src/_Master.sol\":5787:5916  abi.encode(... */\n      add(0x20, mload(0x40))\n      tag_217\n      swap6\n      swap5\n      swap4\n      swap3\n      swap2\n      swap1\n      tag_218\n      jump\t// in\n    tag_217:\n      mload(0x40)\n      0x20\n      dup2\n      dup4\n      sub\n      sub\n      dup2\n      mstore\n      swap1\n      0x40\n      mstore\n        /* \"src/_Master.sol\":5763:5916  bytes memory multiCmd = abi.encode(... */\n      swap1\n      pop\n        /* \"src/_Master.sol\":5941:5953  _amountToken */\n      dup10\n        /* \"src/_Master.sol\":5927:5953  amountToken = _amountToken */\n      swap12\n      pop\n        /* \"src/_Master.sol\":5976:5986  _amountETH */\n      dup9\n        /* \"src/_Master.sol\":5964:5986  amountEth = _amountETH */\n      swap11\n      pop\n        /* \"src/_Master.sol\":5999:6010  crocSwapDex */\n      0x07\n      0x00\n      swap1\n      sload\n      swap1\n      0x0100\n      exp\n      swap1\n      div\n      0xffffffffffffffffffffffffffffffffffffffff\n      and\n        /* \"src/_Master.sol\":5999:6018  crocSwapDex.userCmd */\n      0xffffffffffffffffffffffffffffffffffffffff\n      and\n      0xa15112f9\n        /* \"src/_Master.sol\":6019:6020  6 */\n      0x06\n        /* \"src/_Master.sol\":6022:6030  multiCmd */\n      dup4\n        /* \"src/_Master.sol\":5999:6031  crocSwapDex.userCmd(6, multiCmd) */\n      mload(0x40)\n      dup4\n      0xffffffff\n      and\n      0xe0\n      shl\n      dup2\n      mstore\n      0x04\n      add\n      tag_219\n      swap3\n      swap2\n      swap1\n      tag_220\n      jump\t// in\n    tag_219:\n      0x00\n      mload(0x40)\n      dup1\n      dup4\n      sub\n      dup2\n      0x00\n      dup8\n      gas\n      call\n      iszero\n      dup1\n      iszero\n      tag_222\n      jumpi\n      returndatasize\n      0x00\n      dup1\n      returndatacopy\n      revert(0x00, returndatasize)\n    tag_222:\n      pop\n      pop\n      pop\n      pop\n      mload(0x40)\n      returndatasize\n      0x00\n      dup3\n      returndatacopy\n      returndatasize\n      not(0x1f)\n      0x1f\n      dup3\n      add\n      and\n      dup3\n      add\n      dup1\n      0x40\n      mstore\n      pop\n      dup2\n      add\n      swap1\n      tag_223\n      swap2\n      swap1\n      tag_224\n      jump\t// in\n    tag_223:\n      pop\n        /* \"src/_Master.sol\":6042:6061  addedLiquidityToken */\n      0x05\n        /* \"src/_Master.sol\":6067:6072  token */\n      dup14\n        /* \"src/_Master.sol\":6042:6073  addedLiquidityToken.push(token) */\n      swap1\n      dup1\n      0x01\n      dup2\n      sload\n      add\n      dup1\n      dup3\n      sstore\n      dup1\n      swap2\n      pop\n      pop\n      0x01\n      swap1\n      sub\n      swap1\n      0x00\n      mstore\n      keccak256(0x00, 0x20)\n      add\n      0x00\n      swap1\n      swap2\n      swap1\n      swap2\n      swap1\n      swap2\n      0x0100\n      exp\n      dup2\n      sload\n      dup2\n      0xffffffffffffffffffffffffffffffffffffffff\n      mul\n      not\n      and\n      swap1\n      dup4\n      0xffffffffffffffffffffffffffffffffffffffff\n      and\n      mul\n      or\n      swap1\n      sstore\n      pop\n        /* \"src/_Master.sol\":6109:6113  pair */\n      dup4\n        /* \"src/_Master.sol\":6089:6157  AddLiquidity(token, pair, _amountETH, _amountToken, block.timestamp) */\n      0xffffffffffffffffffffffffffffffffffffffff\n      and\n        /* \"src/_Master.sol\":6102:6107  token */\n      dup14\n        /* \"src/_Master.sol\":6089:6157  AddLiquidity(token, pair, _amountETH, _amountToken, block.timestamp) */\n      0xffffffffffffffffffffffffffffffffffffffff\n      and\n      0x2f3289d16dbc3007471d28c4936df3a95222bc938112449400d049637e3309ce\n        /* \"src/_Master.sol\":6115:6125  _amountETH */\n      dup12\n        /* \"src/_Master.sol\":6127:6139  _amountToken */\n      dup14\n        /* \"src/_Master.sol\":6141:6156  block.timestamp */\n      timestamp\n        /* \"src/_Master.sol\":6089:6157  AddLiquidity(token, pair, _amountETH, _amountToken, block.timestamp) */\n      mload(0x40)\n      tag_226\n      swap4\n      swap3\n      swap2\n      swap1\n      tag_227\n      jump\t// in\n    tag_226:\n      mload(0x40)\n      dup1\n      swap2\n      sub\n      swap1\n      log3\n        /* \"src/_Master.sol\":4211:6167  {... */\n      pop\n      pop\n      pop\n      pop\n      pop\n      pop\n      pop\n      pop\n        /* \"src/_Master.sol\":4029:6167  function execute(... */\n      swap4\n      pop\n      swap4\n      swap2\n      pop\n      pop\n      jump\t// out\n        /* \"src/_Master.sol\":3494:3645  function swapBERA() public payable {... */\n    tag_132:\n        /* \"src/_Master.sol\":3541:3553  bool success */\n      0x00\n        /* \"src/_Master.sol\":3559:3564  wbera */\n      0x08\n      0x00\n      swap1\n      sload\n      swap1\n      0x0100\n      exp\n      swap1\n      div\n      0xffffffffffffffffffffffffffffffffffffffff\n      and\n        /* \"src/_Master.sol\":3559:3569  wbera.call */\n      0xffffffffffffffffffffffffffffffffffffffff\n      and\n        /* \"src/_Master.sol\":3577:3586  msg.value */\n      callvalue\n        /* \"src/_Master.sol\":3559:3591  wbera.call{value: msg.value}(\"\") */\n      mload(0x40)\n      tag_229\n      swap1\n      tag_230\n      jump\t// in\n    tag_229:\n      0x00\n      mload(0x40)\n      dup1\n      dup4\n      sub\n      dup2\n      dup6\n      dup8\n      gas\n      call\n      swap3\n      pop\n      pop\n      pop\n      returndatasize\n      dup1\n      0x00\n      dup2\n      eq\n      tag_233\n      jumpi\n      mload(0x40)\n      swap2\n      pop\n      and(add(returndatasize, 0x3f), not(0x1f))\n      dup3\n      add\n      0x40\n      mstore\n      returndatasize\n      dup3\n      mstore\n      returndatasize\n      0x00\n      0x20\n      dup5\n      add\n      returndatacopy\n      jump(tag_232)\n    tag_233:\n      0x60\n      swap2\n      pop\n    tag_232:\n      pop\n        /* \"src/_Master.sol\":3540:3591  (bool success, ) = wbera.call{value: msg.value}(\"\") */\n      pop\n      swap1\n      pop\n        /* \"src/_Master.sol\":3610:3617  success */\n      dup1\n        /* \"src/_Master.sol\":3602:3637  require(success, \"Transfer failed\") */\n      tag_234\n      jumpi\n      mload(0x40)\n      0x08c379a000000000000000000000000000000000000000000000000000000000\n      dup2\n      mstore\n      0x04\n      add\n      tag_235\n      swap1\n      tag_236\n      jump\t// in\n    tag_235:\n      mload(0x40)\n      dup1\n      swap2\n      sub\n      swap1\n      revert\n    tag_234:\n        /* \"src/_Master.sol\":3529:3645  {... */\n      pop\n        /* \"src/_Master.sol\":3494:3645  function swapBERA() public payable {... */\n      jump\t// out\n        /* \"src/_Master.sol\":2737:2819  function setBond(address _bond) external onlyOwner {... */\n    tag_136:\n        /* \"lib/openzeppelin-contracts/contracts/access/Ownable.sol\":1530:1543  _checkOwner() */\n      tag_238\n        /* \"lib/openzeppelin-contracts/contracts/access/Ownable.sol\":1530:1541  _checkOwner */\n      tag_148\n        /* \"lib/openzeppelin-contracts/contracts/access/Ownable.sol\":1530:1543  _checkOwner() */\n      jump\t// in\n    tag_238:\n        /* \"src/_Master.sol\":2806:2811  _bond */\n      dup1\n        /* \"src/_Master.sol\":2799:2803  bond */\n      0x01\n      0x00\n        /* \"src/_Master.sol\":2799:2811  bond = _bond */\n      0x0100\n      exp\n      dup2\n      sload\n      dup2\n      0xffffffffffffffffffffffffffffffffffffffff\n      mul\n      not\n      and\n      swap1\n      dup4\n      0xffffffffffffffffffffffffffffffffffffffff\n      and\n      mul\n      or\n      swap1\n      sstore\n      pop\n        /* \"src/_Master.sol\":2737:2819  function setBond(address _bond) external onlyOwner {... */\n      pop\n      jump\t// out\n        /* \"lib/openzeppelin-contracts/contracts/access/Ownable.sol\":2542:2757  function transferOwnership(address newOwner) public virtual onlyOwner {... */\n    tag_140:\n        /* \"lib/openzeppelin-contracts/contracts/access/Ownable.sol\":1530:1543  _checkOwner() */\n      tag_241\n        /* \"lib/openzeppelin-contracts/contracts/access/Ownable.sol\":1530:1541  _checkOwner */\n      tag_148\n        /* \"lib/openzeppelin-contracts/contracts/access/Ownable.sol\":1530:1543  _checkOwner() */\n      jump\t// in\n    tag_241:\n        /* \"lib/openzeppelin-contracts/contracts/access/Ownable.sol\":2646:2647  0 */\n      0x00\n        /* \"lib/openzeppelin-contracts/contracts/access/Ownable.sol\":2626:2648  newOwner == address(0) */\n      0xffffffffffffffffffffffffffffffffffffffff\n      and\n        /* \"lib/openzeppelin-contracts/contracts/access/Ownable.sol\":2626:2634  newOwner */\n      dup2\n        /* \"lib/openzeppelin-contracts/contracts/access/Ownable.sol\":2626:2648  newOwner == address(0) */\n      0xffffffffffffffffffffffffffffffffffffffff\n      and\n      sub\n        /* \"lib/openzeppelin-contracts/contracts/access/Ownable.sol\":2622:2713  if (newOwner == address(0)) {... */\n      tag_243\n      jumpi\n        /* \"lib/openzeppelin-contracts/contracts/access/Ownable.sol\":2699:2700  0 */\n      0x00\n        /* \"lib/openzeppelin-contracts/contracts/access/Ownable.sol\":2671:2702  OwnableInvalidOwner(address(0)) */\n      mload(0x40)\n      0x1e4fbdf700000000000000000000000000000000000000000000000000000000\n      dup2\n      mstore\n      0x04\n      add\n      tag_244\n      swap2\n      swap1\n      tag_55\n      jump\t// in\n    tag_244:\n      mload(0x40)\n      dup1\n      swap2\n      sub\n      swap1\n      revert\n        /* \"lib/openzeppelin-contracts/contracts/access/Ownable.sol\":2622:2713  if (newOwner == address(0)) {... */\n    tag_243:\n        /* \"lib/openzeppelin-contracts/contracts/access/Ownable.sol\":2722:2750  _transferOwnership(newOwner) */\n      tag_245\n        /* \"lib/openzeppelin-contracts/contracts/access/Ownable.sol\":2741:2749  newOwner */\n      dup2\n        /* \"lib/openzeppelin-contracts/contracts/access/Ownable.sol\":2722:2740  _transferOwnership */\n      tag_165\n        /* \"lib/openzeppelin-contracts/contracts/access/Ownable.sol\":2722:2750  _transferOwnership(newOwner) */\n      jump\t// in\n    tag_245:\n        /* \"lib/openzeppelin-contracts/contracts/access/Ownable.sol\":2542:2757  function transferOwnership(address newOwner) public virtual onlyOwner {... */\n      pop\n      jump\t// out\n        /* \"src/_Master.sol\":1854:1886  string public versions = \"0.1.1\" */\n    tag_143:\n      0x06\n      dup1\n      sload\n      tag_246\n      swap1\n      tag_247\n      jump\t// in\n    tag_246:\n      dup1\n      0x1f\n      add\n      0x20\n      dup1\n      swap2\n      div\n      mul\n      0x20\n      add\n      mload(0x40)\n      swap1\n      dup2\n      add\n      0x40\n      mstore\n      dup1\n      swap3\n      swap2\n      swap1\n      dup2\n      dup2\n      mstore\n      0x20\n      add\n      dup3\n      dup1\n      sload\n      tag_248\n      swap1\n      tag_247\n      jump\t// in\n    tag_248:\n      dup1\n      iszero\n      tag_249\n      jumpi\n      dup1\n      0x1f\n      lt\n      tag_250\n      jumpi\n      0x0100\n      dup1\n      dup4\n      sload\n      div\n      mul\n      dup4\n      mstore\n      swap2\n      0x20\n      add\n      swap2\n      jump(tag_249)\n    tag_250:\n      dup3\n      add\n      swap2\n      swap1\n      0x00\n      mstore\n      keccak256(0x00, 0x20)\n      swap1\n    tag_251:\n      dup2\n      sload\n      dup2\n      mstore\n      swap1\n      0x01\n      add\n      swap1\n      0x20\n      add\n      dup1\n      dup4\n      gt\n      tag_251\n      jumpi\n      dup3\n      swap1\n      sub\n      0x1f\n      and\n      dup3\n      add\n      swap2\n    tag_249:\n      pop\n      pop\n      pop\n      pop\n      pop\n      dup2\n      jump\t// out\n        /* \"src/_Master.sol\":2336:2565  function _checkOwner() internal view virtual override {... */\n    tag_148:\n        /* \"src/_Master.sol\":2401:2415  address sender */\n      0x00\n        /* \"src/_Master.sol\":2418:2430  _msgSender() */\n      tag_253\n        /* \"src/_Master.sol\":2418:2428  _msgSender */\n      tag_254\n        /* \"src/_Master.sol\":2418:2430  _msgSender() */\n      jump\t// in\n    tag_253:\n        /* \"src/_Master.sol\":2401:2430  address sender = _msgSender() */\n      swap1\n      pop\n        /* \"src/_Master.sol\":2456:2462  sender */\n      dup1\n        /* \"src/_Master.sol\":2445:2462  owner() != sender */\n      0xffffffffffffffffffffffffffffffffffffffff\n      and\n        /* \"src/_Master.sol\":2445:2452  owner() */\n      tag_255\n        /* \"src/_Master.sol\":2445:2450  owner */\n      tag_99\n        /* \"src/_Master.sol\":2445:2452  owner() */\n      jump\t// in\n    tag_255:\n        /* \"src/_Master.sol\":2445:2462  owner() != sender */\n      0xffffffffffffffffffffffffffffffffffffffff\n      and\n      eq\n      iszero\n        /* \"src/_Master.sol\":2445:2482  owner() != sender && !isAdmin[sender] */\n      dup1\n      iszero\n      tag_256\n      jumpi\n      pop\n        /* \"src/_Master.sol\":2467:2474  isAdmin */\n      0x02\n        /* \"src/_Master.sol\":2467:2482  isAdmin[sender] */\n      0x00\n        /* \"src/_Master.sol\":2475:2481  sender */\n      dup3\n        /* \"src/_Master.sol\":2467:2482  isAdmin[sender] */\n      0xffffffffffffffffffffffffffffffffffffffff\n      and\n      0xffffffffffffffffffffffffffffffffffffffff\n      and\n      dup2\n      mstore\n      0x20\n      add\n      swap1\n      dup2\n      mstore\n      0x20\n      add\n      0x00\n      keccak256\n      0x00\n      swap1\n      sload\n      swap1\n      0x0100\n      exp\n      swap1\n      div\n      0xff\n      and\n        /* \"src/_Master.sol\":2466:2482  !isAdmin[sender] */\n      iszero\n        /* \"src/_Master.sol\":2445:2482  owner() != sender && !isAdmin[sender] */\n    tag_256:\n        /* \"src/_Master.sol\":2441:2558  if (owner() != sender && !isAdmin[sender]) {... */\n      iszero\n      tag_257\n      jumpi\n        /* \"src/_Master.sol\":2533:2545  _msgSender() */\n      tag_258\n        /* \"src/_Master.sol\":2533:2543  _msgSender */\n      tag_254\n        /* \"src/_Master.sol\":2533:2545  _msgSender() */\n      jump\t// in\n    tag_258:\n        /* \"src/_Master.sol\":2506:2546  OwnableUnauthorizedAccount(_msgSender()) */\n      mload(0x40)\n      0x118cdaa700000000000000000000000000000000000000000000000000000000\n      dup2\n      mstore\n      0x04\n      add\n      tag_259\n      swap2\n      swap1\n      tag_55\n      jump\t// in\n    tag_259:\n      mload(0x40)\n      dup1\n      swap2\n      sub\n      swap1\n      revert\n        /* \"src/_Master.sol\":2441:2558  if (owner() != sender && !isAdmin[sender]) {... */\n    tag_257:\n        /* \"src/_Master.sol\":2390:2565  {... */\n      pop\n        /* \"src/_Master.sol\":2336:2565  function _checkOwner() internal view virtual override {... */\n      jump\t// out\n        /* \"lib/solady-main/src/utils/SafeTransferLib.sol\":3909:4251  function safeTransferETH(address to, uint256 amount) internal {... */\n    tag_151:\n        /* \"lib/solady-main/src/utils/SafeTransferLib.sol\":4111:4115  0x00 */\n      0x00\n        /* \"lib/solady-main/src/utils/SafeTransferLib.sol\":4099:4109  codesize() */\n      codesize\n        /* \"lib/solady-main/src/utils/SafeTransferLib.sol\":4093:4097  0x00 */\n      0x00\n        /* \"lib/solady-main/src/utils/SafeTransferLib.sol\":4081:4091  codesize() */\n      codesize\n        /* \"lib/solady-main/src/utils/SafeTransferLib.sol\":4073:4079  amount */\n      dup5\n        /* \"lib/solady-main/src/utils/SafeTransferLib.sol\":4069:4071  to */\n      dup7\n        /* \"lib/solady-main/src/utils/SafeTransferLib.sol\":4062:4067  gas() */\n      gas\n        /* \"lib/solady-main/src/utils/SafeTransferLib.sol\":4057:4116  call(gas(), to, amount, codesize(), 0x00, codesize(), 0x00) */\n      call\n        /* \"lib/solady-main/src/utils/SafeTransferLib.sol\":4047:4235  if iszero(call(gas(), to, amount, codesize(), 0x00, codesize(), 0x00)) {... */\n      tag_261\n      jumpi\n        /* \"lib/solady-main/src/utils/SafeTransferLib.sol\":4149:4159  0xb12d13eb */\n      0xb12d13eb\n        /* \"lib/solady-main/src/utils/SafeTransferLib.sol\":4143:4147  0x00 */\n      0x00\n        /* \"lib/solady-main/src/utils/SafeTransferLib.sol\":4136:4160  mstore(0x00, 0xb12d13eb) */\n      mstore\n        /* \"lib/solady-main/src/utils/SafeTransferLib.sol\":4216:4220  0x04 */\n      0x04\n        /* \"lib/solady-main/src/utils/SafeTransferLib.sol\":4210:4214  0x1c */\n      0x1c\n        /* \"lib/solady-main/src/utils/SafeTransferLib.sol\":4203:4221  revert(0x1c, 0x04) */\n      revert\n        /* \"lib/solady-main/src/utils/SafeTransferLib.sol\":4047:4235  if iszero(call(gas(), to, amount, codesize(), 0x00, codesize(), 0x00)) {... */\n    tag_261:\n        /* \"lib/solady-main/src/utils/SafeTransferLib.sol\":3909:4251  function safeTransferETH(address to, uint256 amount) internal {... */\n      pop\n      pop\n      jump\t// out\n        /* \"lib/openzeppelin-contracts/contracts/access/Ownable.sol\":2911:3098  function _transferOwnership(address newOwner) internal virtual {... */\n    tag_165:\n        /* \"lib/openzeppelin-contracts/contracts/access/Ownable.sol\":2984:3000  address oldOwner */\n      0x00\n        /* \"lib/openzeppelin-contracts/contracts/access/Ownable.sol\":3003:3009  _owner */\n      dup1\n      0x00\n      swap1\n      sload\n      swap1\n      0x0100\n      exp\n      swap1\n      div\n      0xffffffffffffffffffffffffffffffffffffffff\n      and\n        /* \"lib/openzeppelin-contracts/contracts/access/Ownable.sol\":2984:3009  address oldOwner = _owner */\n      swap1\n      pop\n        /* \"lib/openzeppelin-contracts/contracts/access/Ownable.sol\":3028:3036  newOwner */\n      dup2\n        /* \"lib/openzeppelin-contracts/contracts/access/Ownable.sol\":3019:3025  _owner */\n      0x00\n      dup1\n        /* \"lib/openzeppelin-contracts/contracts/access/Ownable.sol\":3019:3036  _owner = newOwner */\n      0x0100\n      exp\n      dup2\n      sload\n      dup2\n      0xffffffffffffffffffffffffffffffffffffffff\n      mul\n      not\n      and\n      swap1\n      dup4\n      0xffffffffffffffffffffffffffffffffffffffff\n      and\n      mul\n      or\n      swap1\n      sstore\n      pop\n        /* \"lib/openzeppelin-contracts/contracts/access/Ownable.sol\":3082:3090  newOwner */\n      dup2\n        /* \"lib/openzeppelin-contracts/contracts/access/Ownable.sol\":3051:3091  OwnershipTransferred(oldOwner, newOwner) */\n      0xffffffffffffffffffffffffffffffffffffffff\n      and\n        /* \"lib/openzeppelin-contracts/contracts/access/Ownable.sol\":3072:3080  oldOwner */\n      dup2\n        /* \"lib/openzeppelin-contracts/contracts/access/Ownable.sol\":3051:3091  OwnershipTransferred(oldOwner, newOwner) */\n      0xffffffffffffffffffffffffffffffffffffffff\n      and\n      0x8be0079c531659141344cd1fd0a4f28419497f9722a3daafe3b4186f6b6457e0\n      mload(0x40)\n      mload(0x40)\n      dup1\n      swap2\n      sub\n      swap1\n      log3\n        /* \"lib/openzeppelin-contracts/contracts/access/Ownable.sol\":2974:3098  {... */\n      pop\n        /* \"lib/openzeppelin-contracts/contracts/access/Ownable.sol\":2911:3098  function _transferOwnership(address newOwner) internal virtual {... */\n      pop\n      jump\t// out\n        /* \"lib/openzeppelin-contracts/contracts/utils/Context.sol\":655:751  function _msgSender() internal view virtual returns (address) {... */\n    tag_254:\n        /* \"lib/openzeppelin-contracts/contracts/utils/Context.sol\":708:715  address */\n      0x00\n        /* \"lib/openzeppelin-contracts/contracts/utils/Context.sol\":734:744  msg.sender */\n      caller\n        /* \"lib/openzeppelin-contracts/contracts/utils/Context.sol\":727:744  return msg.sender */\n      swap1\n      pop\n        /* \"lib/openzeppelin-contracts/contracts/utils/Context.sol\":655:751  function _msgSender() internal view virtual returns (address) {... */\n      swap1\n      jump\t// out\n        /* \"#utility.yul\":7:82   */\n    tag_264:\n        /* \"#utility.yul\":40:46   */\n      0x00\n        /* \"#utility.yul\":73:75   */\n      0x40\n        /* \"#utility.yul\":67:76   */\n      mload\n        /* \"#utility.yul\":57:76   */\n      swap1\n      pop\n        /* \"#utility.yul\":7:82   */\n      swap1\n      jump\t// out\n        /* \"#utility.yul\":88:205   */\n    tag_265:\n        /* \"#utility.yul\":197:198   */\n      0x00\n        /* \"#utility.yul\":194:195   */\n      dup1\n        /* \"#utility.yul\":187:199   */\n      revert\n        /* \"#utility.yul\":211:328   */\n    tag_266:\n        /* \"#utility.yul\":320:321   */\n      0x00\n        /* \"#utility.yul\":317:318   */\n      dup1\n        /* \"#utility.yul\":310:322   */\n      revert\n        /* \"#utility.yul\":334:460   */\n    tag_267:\n        /* \"#utility.yul\":371:378   */\n      0x00\n        /* \"#utility.yul\":411:453   */\n      0xffffffffffffffffffffffffffffffffffffffff\n        /* \"#utility.yul\":404:409   */\n      dup3\n        /* \"#utility.yul\":400:454   */\n      and\n        /* \"#utility.yul\":389:454   */\n      swap1\n      pop\n        /* \"#utility.yul\":334:460   */\n      swap2\n      swap1\n      pop\n      jump\t// out\n        /* \"#utility.yul\":466:562   */\n    tag_268:\n        /* \"#utility.yul\":503:510   */\n      0x00\n        /* \"#utility.yul\":532:556   */\n      tag_364\n        /* \"#utility.yul\":550:555   */\n      dup3\n        /* \"#utility.yul\":532:556   */\n      tag_267\n      jump\t// in\n    tag_364:\n        /* \"#utility.yul\":521:556   */\n      swap1\n      pop\n        /* \"#utility.yul\":466:562   */\n      swap2\n      swap1\n      pop\n      jump\t// out\n        /* \"#utility.yul\":568:690   */\n    tag_269:\n        /* \"#utility.yul\":641:665   */\n      tag_366\n        /* \"#utility.yul\":659:664   */\n      dup2\n        /* \"#utility.yul\":641:665   */\n      tag_268\n      jump\t// in\n    tag_366:\n        /* \"#utility.yul\":634:639   */\n      dup2\n        /* \"#utility.yul\":631:666   */\n      eq\n        /* \"#utility.yul\":621:684   */\n      tag_367\n      jumpi\n        /* \"#utility.yul\":680:681   */\n      0x00\n        /* \"#utility.yul\":677:678   */\n      dup1\n        /* \"#utility.yul\":670:682   */\n      revert\n        /* \"#utility.yul\":621:684   */\n    tag_367:\n        /* \"#utility.yul\":568:690   */\n      pop\n      jump\t// out\n        /* \"#utility.yul\":696:835   */\n    tag_270:\n        /* \"#utility.yul\":742:747   */\n      0x00\n        /* \"#utility.yul\":780:786   */\n      dup2\n        /* \"#utility.yul\":767:787   */\n      calldataload\n        /* \"#utility.yul\":758:787   */\n      swap1\n      pop\n        /* \"#utility.yul\":796:829   */\n      tag_369\n        /* \"#utility.yul\":823:828   */\n      dup2\n        /* \"#utility.yul\":796:829   */\n      tag_269\n      jump\t// in\n    tag_369:\n        /* \"#utility.yul\":696:835   */\n      swap3\n      swap2\n      pop\n      pop\n      jump\t// out\n        /* \"#utility.yul\":841:918   */\n    tag_271:\n        /* \"#utility.yul\":878:885   */\n      0x00\n        /* \"#utility.yul\":907:912   */\n      dup2\n        /* \"#utility.yul\":896:912   */\n      swap1\n      pop\n        /* \"#utility.yul\":841:918   */\n      swap2\n      swap1\n      pop\n      jump\t// out\n        /* \"#utility.yul\":924:1046   */\n    tag_272:\n        /* \"#utility.yul\":997:1021   */\n      tag_372\n        /* \"#utility.yul\":1015:1020   */\n      dup2\n        /* \"#utility.yul\":997:1021   */\n      tag_271\n      jump\t// in\n    tag_372:\n        /* \"#utility.yul\":990:995   */\n      dup2\n        /* \"#utility.yul\":987:1022   */\n      eq\n        /* \"#utility.yul\":977:1040   */\n      tag_373\n      jumpi\n        /* \"#utility.yul\":1036:1037   */\n      0x00\n        /* \"#utility.yul\":1033:1034   */\n      dup1\n        /* \"#utility.yul\":1026:1038   */\n      revert\n        /* \"#utility.yul\":977:1040   */\n    tag_373:\n        /* \"#utility.yul\":924:1046   */\n      pop\n      jump\t// out\n        /* \"#utility.yul\":1052:1191   */\n    tag_273:\n        /* \"#utility.yul\":1098:1103   */\n      0x00\n        /* \"#utility.yul\":1136:1142   */\n      dup2\n        /* \"#utility.yul\":1123:1143   */\n      calldataload\n        /* \"#utility.yul\":1114:1143   */\n      swap1\n      pop\n        /* \"#utility.yul\":1152:1185   */\n      tag_375\n        /* \"#utility.yul\":1179:1184   */\n      dup2\n        /* \"#utility.yul\":1152:1185   */\n      tag_272\n      jump\t// in\n    tag_375:\n        /* \"#utility.yul\":1052:1191   */\n      swap3\n      swap2\n      pop\n      pop\n      jump\t// out\n        /* \"#utility.yul\":1197:1671   */\n    tag_37:\n        /* \"#utility.yul\":1265:1271   */\n      0x00\n        /* \"#utility.yul\":1273:1279   */\n      dup1\n        /* \"#utility.yul\":1322:1324   */\n      0x40\n        /* \"#utility.yul\":1310:1319   */\n      dup4\n        /* \"#utility.yul\":1301:1308   */\n      dup6\n        /* \"#utility.yul\":1297:1320   */\n      sub\n        /* \"#utility.yul\":1293:1325   */\n      slt\n        /* \"#utility.yul\":1290:1409   */\n      iszero\n      tag_377\n      jumpi\n        /* \"#utility.yul\":1328:1407   */\n      tag_378\n      tag_265\n      jump\t// in\n    tag_378:\n        /* \"#utility.yul\":1290:1409   */\n    tag_377:\n        /* \"#utility.yul\":1448:1449   */\n      0x00\n        /* \"#utility.yul\":1473:1526   */\n      tag_379\n        /* \"#utility.yul\":1518:1525   */\n      dup6\n        /* \"#utility.yul\":1509:1515   */\n      dup3\n        /* \"#utility.yul\":1498:1507   */\n      dup7\n        /* \"#utility.yul\":1494:1516   */\n      add\n        /* \"#utility.yul\":1473:1526   */\n      tag_270\n      jump\t// in\n    tag_379:\n        /* \"#utility.yul\":1463:1526   */\n      swap3\n      pop\n        /* \"#utility.yul\":1419:1536   */\n      pop\n        /* \"#utility.yul\":1575:1577   */\n      0x20\n        /* \"#utility.yul\":1601:1654   */\n      tag_380\n        /* \"#utility.yul\":1646:1653   */\n      dup6\n        /* \"#utility.yul\":1637:1643   */\n      dup3\n        /* \"#utility.yul\":1626:1635   */\n      dup7\n        /* \"#utility.yul\":1622:1644   */\n      add\n        /* \"#utility.yul\":1601:1654   */\n      tag_273\n      jump\t// in\n    tag_380:\n        /* \"#utility.yul\":1591:1654   */\n      swap2\n      pop\n        /* \"#utility.yul\":1546:1664   */\n      pop\n        /* \"#utility.yul\":1197:1671   */\n      swap3\n      pop\n      swap3\n      swap1\n      pop\n      jump\t// out\n        /* \"#utility.yul\":1677:1791   */\n    tag_274:\n        /* \"#utility.yul\":1744:1750   */\n      0x00\n        /* \"#utility.yul\":1778:1783   */\n      dup2\n        /* \"#utility.yul\":1772:1784   */\n      mload\n        /* \"#utility.yul\":1762:1784   */\n      swap1\n      pop\n        /* \"#utility.yul\":1677:1791   */\n      swap2\n      swap1\n      pop\n      jump\t// out\n        /* \"#utility.yul\":1797:1981   */\n    tag_275:\n        /* \"#utility.yul\":1896:1907   */\n      0x00\n        /* \"#utility.yul\":1930:1936   */\n      dup3\n        /* \"#utility.yul\":1925:1928   */\n      dup3\n        /* \"#utility.yul\":1918:1937   */\n      mstore\n        /* \"#utility.yul\":1970:1974   */\n      0x20\n        /* \"#utility.yul\":1965:1968   */\n      dup3\n        /* \"#utility.yul\":1961:1975   */\n      add\n        /* \"#utility.yul\":1946:1975   */\n      swap1\n      pop\n        /* \"#utility.yul\":1797:1981   */\n      swap3\n      swap2\n      pop\n      pop\n      jump\t// out\n        /* \"#utility.yul\":1987:2119   */\n    tag_276:\n        /* \"#utility.yul\":2054:2058   */\n      0x00\n        /* \"#utility.yul\":2077:2080   */\n      dup2\n        /* \"#utility.yul\":2069:2080   */\n      swap1\n      pop\n        /* \"#utility.yul\":2107:2111   */\n      0x20\n        /* \"#utility.yul\":2102:2105   */\n      dup3\n        /* \"#utility.yul\":2098:2112   */\n      add\n        /* \"#utility.yul\":2090:2112   */\n      swap1\n      pop\n        /* \"#utility.yul\":1987:2119   */\n      swap2\n      swap1\n      pop\n      jump\t// out\n        /* \"#utility.yul\":2125:2233   */\n    tag_277:\n        /* \"#utility.yul\":2202:2226   */\n      tag_385\n        /* \"#utility.yul\":2220:2225   */\n      dup2\n        /* \"#utility.yul\":2202:2226   */\n      tag_268\n      jump\t// in\n    tag_385:\n        /* \"#utility.yul\":2197:2200   */\n      dup3\n        /* \"#utility.yul\":2190:2227   */\n      mstore\n        /* \"#utility.yul\":2125:2233   */\n      pop\n      pop\n      jump\t// out\n        /* \"#utility.yul\":2239:2418   */\n    tag_278:\n        /* \"#utility.yul\":2308:2318   */\n      0x00\n        /* \"#utility.yul\":2329:2375   */\n      tag_387\n        /* \"#utility.yul\":2371:2374   */\n      dup4\n        /* \"#utility.yul\":2363:2369   */\n      dup4\n        /* \"#utility.yul\":2329:2375   */\n      tag_277\n      jump\t// in\n    tag_387:\n        /* \"#utility.yul\":2407:2411   */\n      0x20\n        /* \"#utility.yul\":2402:2405   */\n      dup4\n        /* \"#utility.yul\":2398:2412   */\n      add\n        /* \"#utility.yul\":2384:2412   */\n      swap1\n      pop\n        /* \"#utility.yul\":2239:2418   */\n      swap3\n      swap2\n      pop\n      pop\n      jump\t// out\n        /* \"#utility.yul\":2424:2537   */\n    tag_279:\n        /* \"#utility.yul\":2494:2498   */\n      0x00\n        /* \"#utility.yul\":2526:2530   */\n      0x20\n        /* \"#utility.yul\":2521:2524   */\n      dup3\n        /* \"#utility.yul\":2517:2531   */\n      add\n        /* \"#utility.yul\":2509:2531   */\n      swap1\n      pop\n        /* \"#utility.yul\":2424:2537   */\n      swap2\n      swap1\n      pop\n      jump\t// out\n        /* \"#utility.yul\":2573:3305   */\n    tag_280:\n        /* \"#utility.yul\":2692:2695   */\n      0x00\n        /* \"#utility.yul\":2721:2775   */\n      tag_390\n        /* \"#utility.yul\":2769:2774   */\n      dup3\n        /* \"#utility.yul\":2721:2775   */\n      tag_274\n      jump\t// in\n    tag_390:\n        /* \"#utility.yul\":2791:2877   */\n      tag_391\n        /* \"#utility.yul\":2870:2876   */\n      dup2\n        /* \"#utility.yul\":2865:2868   */\n      dup6\n        /* \"#utility.yul\":2791:2877   */\n      tag_275\n      jump\t// in\n    tag_391:\n        /* \"#utility.yul\":2784:2877   */\n      swap4\n      pop\n        /* \"#utility.yul\":2901:2957   */\n      tag_392\n        /* \"#utility.yul\":2951:2956   */\n      dup4\n        /* \"#utility.yul\":2901:2957   */\n      tag_276\n      jump\t// in\n    tag_392:\n        /* \"#utility.yul\":2980:2987   */\n      dup1\n        /* \"#utility.yul\":3011:3012   */\n      0x00\n        /* \"#utility.yul\":2996:3280   */\n    tag_393:\n        /* \"#utility.yul\":3021:3027   */\n      dup4\n        /* \"#utility.yul\":3018:3019   */\n      dup2\n        /* \"#utility.yul\":3015:3028   */\n      lt\n        /* \"#utility.yul\":2996:3280   */\n      iszero\n      tag_395\n      jumpi\n        /* \"#utility.yul\":3097:3103   */\n      dup2\n        /* \"#utility.yul\":3091:3104   */\n      mload\n        /* \"#utility.yul\":3124:3187   */\n      tag_396\n        /* \"#utility.yul\":3183:3186   */\n      dup9\n        /* \"#utility.yul\":3168:3181   */\n      dup3\n        /* \"#utility.yul\":3124:3187   */\n      tag_278\n      jump\t// in\n    tag_396:\n        /* \"#utility.yul\":3117:3187   */\n      swap8\n      pop\n        /* \"#utility.yul\":3210:3270   */\n      tag_397\n        /* \"#utility.yul\":3263:3269   */\n      dup4\n        /* \"#utility.yul\":3210:3270   */\n      tag_279\n      jump\t// in\n    tag_397:\n        /* \"#utility.yul\":3200:3270   */\n      swap3\n      pop\n        /* \"#utility.yul\":3056:3280   */\n      pop\n        /* \"#utility.yul\":3043:3044   */\n      0x01\n        /* \"#utility.yul\":3040:3041   */\n      dup2\n        /* \"#utility.yul\":3036:3045   */\n      add\n        /* \"#utility.yul\":3031:3045   */\n      swap1\n      pop\n        /* \"#utility.yul\":2996:3280   */\n      jump(tag_393)\n    tag_395:\n        /* \"#utility.yul\":3000:3014   */\n      pop\n        /* \"#utility.yul\":3296:3299   */\n      dup6\n        /* \"#utility.yul\":3289:3299   */\n      swap4\n      pop\n        /* \"#utility.yul\":2697:3305   */\n      pop\n      pop\n      pop\n        /* \"#utility.yul\":2573:3305   */\n      swap3\n      swap2\n      pop\n      pop\n      jump\t// out\n        /* \"#utility.yul\":3311:3684   */\n    tag_43:\n        /* \"#utility.yul\":3454:3458   */\n      0x00\n        /* \"#utility.yul\":3492:3494   */\n      0x20\n        /* \"#utility.yul\":3481:3490   */\n      dup3\n        /* \"#utility.yul\":3477:3495   */\n      add\n        /* \"#utility.yul\":3469:3495   */\n      swap1\n      pop\n        /* \"#utility.yul\":3541:3550   */\n      dup2\n        /* \"#utility.yul\":3535:3539   */\n      dup2\n        /* \"#utility.yul\":3531:3551   */\n      sub\n        /* \"#utility.yul\":3527:3528   */\n      0x00\n        /* \"#utility.yul\":3516:3525   */\n      dup4\n        /* \"#utility.yul\":3512:3529   */\n      add\n        /* \"#utility.yul\":3505:3552   */\n      mstore\n        /* \"#utility.yul\":3569:3677   */\n      tag_399\n        /* \"#utility.yul\":3672:3676   */\n      dup2\n        /* \"#utility.yul\":3663:3669   */\n      dup5\n        /* \"#utility.yul\":3569:3677   */\n      tag_280\n      jump\t// in\n    tag_399:\n        /* \"#utility.yul\":3561:3677   */\n      swap1\n      pop\n        /* \"#utility.yul\":3311:3684   */\n      swap3\n      swap2\n      pop\n      pop\n      jump\t// out\n        /* \"#utility.yul\":3690:4019   */\n    tag_47:\n        /* \"#utility.yul\":3749:3755   */\n      0x00\n        /* \"#utility.yul\":3798:3800   */\n      0x20\n        /* \"#utility.yul\":3786:3795   */\n      dup3\n        /* \"#utility.yul\":3777:3784   */\n      dup5\n        /* \"#utility.yul\":3773:3796   */\n      sub\n        /* \"#utility.yul\":3769:3801   */\n      slt\n        /* \"#utility.yul\":3766:3885   */\n      iszero\n      tag_401\n      jumpi\n        /* \"#utility.yul\":3804:3883   */\n      tag_402\n      tag_265\n      jump\t// in\n    tag_402:\n        /* \"#utility.yul\":3766:3885   */\n    tag_401:\n        /* \"#utility.yul\":3924:3925   */\n      0x00\n        /* \"#utility.yul\":3949:4002   */\n      tag_403\n        /* \"#utility.yul\":3994:4001   */\n      dup5\n        /* \"#utility.yul\":3985:3991   */\n      dup3\n        /* \"#utility.yul\":3974:3983   */\n      dup6\n        /* \"#utility.yul\":3970:3992   */\n      add\n        /* \"#utility.yul\":3949:4002   */\n      tag_270\n      jump\t// in\n    tag_403:\n        /* \"#utility.yul\":3939:4002   */\n      swap2\n      pop\n        /* \"#utility.yul\":3895:4012   */\n      pop\n        /* \"#utility.yul\":3690:4019   */\n      swap3\n      swap2\n      pop\n      pop\n      jump\t// out\n        /* \"#utility.yul\":4025:4115   */\n    tag_281:\n        /* \"#utility.yul\":4059:4066   */\n      0x00\n        /* \"#utility.yul\":4102:4107   */\n      dup2\n        /* \"#utility.yul\":4095:4108   */\n      iszero\n        /* \"#utility.yul\":4088:4109   */\n      iszero\n        /* \"#utility.yul\":4077:4109   */\n      swap1\n      pop\n        /* \"#utility.yul\":4025:4115   */\n      swap2\n      swap1\n      pop\n      jump\t// out\n        /* \"#utility.yul\":4121:4230   */\n    tag_282:\n        /* \"#utility.yul\":4202:4223   */\n      tag_406\n        /* \"#utility.yul\":4217:4222   */\n      dup2\n        /* \"#utility.yul\":4202:4223   */\n      tag_281\n      jump\t// in\n    tag_406:\n        /* \"#utility.yul\":4197:4200   */\n      dup3\n        /* \"#utility.yul\":4190:4224   */\n      mstore\n        /* \"#utility.yul\":4121:4230   */\n      pop\n      pop\n      jump\t// out\n        /* \"#utility.yul\":4236:4446   */\n    tag_50:\n        /* \"#utility.yul\":4323:4327   */\n      0x00\n        /* \"#utility.yul\":4361:4363   */\n      0x20\n        /* \"#utility.yul\":4350:4359   */\n      dup3\n        /* \"#utility.yul\":4346:4364   */\n      add\n        /* \"#utility.yul\":4338:4364   */\n      swap1\n      pop\n        /* \"#utility.yul\":4374:4439   */\n      tag_408\n        /* \"#utility.yul\":4436:4437   */\n      0x00\n        /* \"#utility.yul\":4425:4434   */\n      dup4\n        /* \"#utility.yul\":4421:4438   */\n      add\n        /* \"#utility.yul\":4412:4418   */\n      dup5\n        /* \"#utility.yul\":4374:4439   */\n      tag_282\n      jump\t// in\n    tag_408:\n        /* \"#utility.yul\":4236:4446   */\n      swap3\n      swap2\n      pop\n      pop\n      jump\t// out\n        /* \"#utility.yul\":4452:4570   */\n    tag_283:\n        /* \"#utility.yul\":4539:4563   */\n      tag_410\n        /* \"#utility.yul\":4557:4562   */\n      dup2\n        /* \"#utility.yul\":4539:4563   */\n      tag_268\n      jump\t// in\n    tag_410:\n        /* \"#utility.yul\":4534:4537   */\n      dup3\n        /* \"#utility.yul\":4527:4564   */\n      mstore\n        /* \"#utility.yul\":4452:4570   */\n      pop\n      pop\n      jump\t// out\n        /* \"#utility.yul\":4576:4798   */\n    tag_55:\n        /* \"#utility.yul\":4669:4673   */\n      0x00\n        /* \"#utility.yul\":4707:4709   */\n      0x20\n        /* \"#utility.yul\":4696:4705   */\n      dup3\n        /* \"#utility.yul\":4692:4710   */\n      add\n        /* \"#utility.yul\":4684:4710   */\n      swap1\n      pop\n        /* \"#utility.yul\":4720:4791   */\n      tag_412\n        /* \"#utility.yul\":4788:4789   */\n      0x00\n        /* \"#utility.yul\":4777:4786   */\n      dup4\n        /* \"#utility.yul\":4773:4790   */\n      add\n        /* \"#utility.yul\":4764:4770   */\n      dup5\n        /* \"#utility.yul\":4720:4791   */\n      tag_283\n      jump\t// in\n    tag_412:\n        /* \"#utility.yul\":4576:4798   */\n      swap3\n      swap2\n      pop\n      pop\n      jump\t// out\n        /* \"#utility.yul\":4804:4920   */\n    tag_284:\n        /* \"#utility.yul\":4874:4895   */\n      tag_414\n        /* \"#utility.yul\":4889:4894   */\n      dup2\n        /* \"#utility.yul\":4874:4895   */\n      tag_281\n      jump\t// in\n    tag_414:\n        /* \"#utility.yul\":4867:4872   */\n      dup2\n        /* \"#utility.yul\":4864:4896   */\n      eq\n        /* \"#utility.yul\":4854:4914   */\n      tag_415\n      jumpi\n        /* \"#utility.yul\":4910:4911   */\n      0x00\n        /* \"#utility.yul\":4907:4908   */\n      dup1\n        /* \"#utility.yul\":4900:4912   */\n      revert\n        /* \"#utility.yul\":4854:4914   */\n    tag_415:\n        /* \"#utility.yul\":4804:4920   */\n      pop\n      jump\t// out\n        /* \"#utility.yul\":4926:5059   */\n    tag_285:\n        /* \"#utility.yul\":4969:4974   */\n      0x00\n        /* \"#utility.yul\":5007:5013   */\n      dup2\n        /* \"#utility.yul\":4994:5014   */\n      calldataload\n        /* \"#utility.yul\":4985:5014   */\n      swap1\n      pop\n        /* \"#utility.yul\":5023:5053   */\n      tag_417\n        /* \"#utility.yul\":5047:5052   */\n      dup2\n        /* \"#utility.yul\":5023:5053   */\n      tag_284\n      jump\t// in\n    tag_417:\n        /* \"#utility.yul\":4926:5059   */\n      swap3\n      swap2\n      pop\n      pop\n      jump\t// out\n        /* \"#utility.yul\":5065:5533   */\n    tag_65:\n        /* \"#utility.yul\":5130:5136   */\n      0x00\n        /* \"#utility.yul\":5138:5144   */\n      dup1\n        /* \"#utility.yul\":5187:5189   */\n      0x40\n        /* \"#utility.yul\":5175:5184   */\n      dup4\n        /* \"#utility.yul\":5166:5173   */\n      dup6\n        /* \"#utility.yul\":5162:5185   */\n      sub\n        /* \"#utility.yul\":5158:5190   */\n      slt\n        /* \"#utility.yul\":5155:5274   */\n      iszero\n      tag_419\n      jumpi\n        /* \"#utility.yul\":5193:5272   */\n      tag_420\n      tag_265\n      jump\t// in\n    tag_420:\n        /* \"#utility.yul\":5155:5274   */\n    tag_419:\n        /* \"#utility.yul\":5313:5314   */\n      0x00\n        /* \"#utility.yul\":5338:5391   */\n      tag_421\n        /* \"#utility.yul\":5383:5390   */\n      dup6\n        /* \"#utility.yul\":5374:5380   */\n      dup3\n        /* \"#utility.yul\":5363:5372   */\n      dup7\n        /* \"#utility.yul\":5359:5381   */\n      add\n        /* \"#utility.yul\":5338:5391   */\n      tag_270\n      jump\t// in\n    tag_421:\n        /* \"#utility.yul\":5328:5391   */\n      swap3\n      pop\n        /* \"#utility.yul\":5284:5401   */\n      pop\n        /* \"#utility.yul\":5440:5442   */\n      0x20\n        /* \"#utility.yul\":5466:5516   */\n      tag_422\n        /* \"#utility.yul\":5508:5515   */\n      dup6\n        /* \"#utility.yul\":5499:5505   */\n      dup3\n        /* \"#utility.yul\":5488:5497   */\n      dup7\n        /* \"#utility.yul\":5484:5506   */\n      add\n        /* \"#utility.yul\":5466:5516   */\n      tag_285\n      jump\t// in\n    tag_422:\n        /* \"#utility.yul\":5456:5516   */\n      swap2\n      pop\n        /* \"#utility.yul\":5411:5526   */\n      pop\n        /* \"#utility.yul\":5065:5533   */\n      swap3\n      pop\n      swap3\n      swap1\n      pop\n      jump\t// out\n        /* \"#utility.yul\":5539:5868   */\n    tag_81:\n        /* \"#utility.yul\":5598:5604   */\n      0x00\n        /* \"#utility.yul\":5647:5649   */\n      0x20\n        /* \"#utility.yul\":5635:5644   */\n      dup3\n        /* \"#utility.yul\":5626:5633   */\n      dup5\n        /* \"#utility.yul\":5622:5645   */\n      sub\n        /* \"#utility.yul\":5618:5650   */\n      slt\n        /* \"#utility.yul\":5615:5734   */\n      iszero\n      tag_424\n      jumpi\n        /* \"#utility.yul\":5653:5732   */\n      tag_425\n      tag_265\n      jump\t// in\n    tag_425:\n        /* \"#utility.yul\":5615:5734   */\n    tag_424:\n        /* \"#utility.yul\":5773:5774   */\n      0x00\n        /* \"#utility.yul\":5798:5851   */\n      tag_426\n        /* \"#utility.yul\":5843:5850   */\n      dup5\n        /* \"#utility.yul\":5834:5840   */\n      dup3\n        /* \"#utility.yul\":5823:5832   */\n      dup6\n        /* \"#utility.yul\":5819:5841   */\n      add\n        /* \"#utility.yul\":5798:5851   */\n      tag_273\n      jump\t// in\n    tag_426:\n        /* \"#utility.yul\":5788:5851   */\n      swap2\n      pop\n        /* \"#utility.yul\":5744:5861   */\n      pop\n        /* \"#utility.yul\":5539:5868   */\n      swap3\n      swap2\n      pop\n      pop\n      jump\t// out\n        /* \"#utility.yul\":5874:5934   */\n    tag_286:\n        /* \"#utility.yul\":5902:5905   */\n      0x00\n        /* \"#utility.yul\":5923:5928   */\n      dup2\n        /* \"#utility.yul\":5916:5928   */\n      swap1\n      pop\n        /* \"#utility.yul\":5874:5934   */\n      swap2\n      swap1\n      pop\n      jump\t// out\n        /* \"#utility.yul\":5940:6082   */\n    tag_287:\n        /* \"#utility.yul\":5990:5999   */\n      0x00\n        /* \"#utility.yul\":6023:6076   */\n      tag_429\n        /* \"#utility.yul\":6041:6075   */\n      tag_430\n        /* \"#utility.yul\":6050:6074   */\n      tag_431\n        /* \"#utility.yul\":6068:6073   */\n      dup5\n        /* \"#utility.yul\":6050:6074   */\n      tag_267\n      jump\t// in\n    tag_431:\n        /* \"#utility.yul\":6041:6075   */\n      tag_286\n      jump\t// in\n    tag_430:\n        /* \"#utility.yul\":6023:6076   */\n      tag_267\n      jump\t// in\n    tag_429:\n        /* \"#utility.yul\":6010:6076   */\n      swap1\n      pop\n        /* \"#utility.yul\":5940:6082   */\n      swap2\n      swap1\n      pop\n      jump\t// out\n        /* \"#utility.yul\":6088:6214   */\n    tag_288:\n        /* \"#utility.yul\":6138:6147   */\n      0x00\n        /* \"#utility.yul\":6171:6208   */\n      tag_433\n        /* \"#utility.yul\":6202:6207   */\n      dup3\n        /* \"#utility.yul\":6171:6208   */\n      tag_287\n      jump\t// in\n    tag_433:\n        /* \"#utility.yul\":6158:6208   */\n      swap1\n      pop\n        /* \"#utility.yul\":6088:6214   */\n      swap2\n      swap1\n      pop\n      jump\t// out\n        /* \"#utility.yul\":6220:6366   */\n    tag_289:\n        /* \"#utility.yul\":6290:6299   */\n      0x00\n        /* \"#utility.yul\":6323:6360   */\n      tag_435\n        /* \"#utility.yul\":6354:6359   */\n      dup3\n        /* \"#utility.yul\":6323:6360   */\n      tag_288\n      jump\t// in\n    tag_435:\n        /* \"#utility.yul\":6310:6360   */\n      swap1\n      pop\n        /* \"#utility.yul\":6220:6366   */\n      swap2\n      swap1\n      pop\n      jump\t// out\n        /* \"#utility.yul\":6372:6543   */\n    tag_290:\n        /* \"#utility.yul\":6479:6536   */\n      tag_437\n        /* \"#utility.yul\":6530:6535   */\n      dup2\n        /* \"#utility.yul\":6479:6536   */\n      tag_289\n      jump\t// in\n    tag_437:\n        /* \"#utility.yul\":6474:6477   */\n      dup3\n        /* \"#utility.yul\":6467:6537   */\n      mstore\n        /* \"#utility.yul\":6372:6543   */\n      pop\n      pop\n      jump\t// out\n        /* \"#utility.yul\":6549:6811   */\n    tag_88:\n        /* \"#utility.yul\":6662:6666   */\n      0x00\n        /* \"#utility.yul\":6700:6702   */\n      0x20\n        /* \"#utility.yul\":6689:6698   */\n      dup3\n        /* \"#utility.yul\":6685:6703   */\n      add\n        /* \"#utility.yul\":6677:6703   */\n      swap1\n      pop\n        /* \"#utility.yul\":6713:6804   */\n      tag_439\n        /* \"#utility.yul\":6801:6802   */\n      0x00\n        /* \"#utility.yul\":6790:6799   */\n      dup4\n        /* \"#utility.yul\":6786:6803   */\n      add\n        /* \"#utility.yul\":6777:6783   */\n      dup5\n        /* \"#utility.yul\":6713:6804   */\n      tag_290\n      jump\t// in\n    tag_439:\n        /* \"#utility.yul\":6549:6811   */\n      swap3\n      swap2\n      pop\n      pop\n      jump\t// out\n        /* \"#utility.yul\":6817:7291   */\n    tag_104:\n        /* \"#utility.yul\":6885:6891   */\n      0x00\n        /* \"#utility.yul\":6893:6899   */\n      dup1\n        /* \"#utility.yul\":6942:6944   */\n      0x40\n        /* \"#utility.yul\":6930:6939   */\n      dup4\n        /* \"#utility.yul\":6921:6928   */\n      dup6\n        /* \"#utility.yul\":6917:6940   */\n      sub\n        /* \"#utility.yul\":6913:6945   */\n      slt\n        /* \"#utility.yul\":6910:7029   */\n      iszero\n      tag_441\n      jumpi\n        /* \"#utility.yul\":6948:7027   */\n      tag_442\n      tag_265\n      jump\t// in\n    tag_442:\n        /* \"#utility.yul\":6910:7029   */\n    tag_441:\n        /* \"#utility.yul\":7068:7069   */\n      0x00\n        /* \"#utility.yul\":7093:7146   */\n      tag_443\n        /* \"#utility.yul\":7138:7145   */\n      dup6\n        /* \"#utility.yul\":7129:7135   */\n      dup3\n        /* \"#utility.yul\":7118:7127   */\n      dup7\n        /* \"#utility.yul\":7114:7136   */\n      add\n        /* \"#utility.yul\":7093:7146   */\n      tag_270\n      jump\t// in\n    tag_443:\n        /* \"#utility.yul\":7083:7146   */\n      swap3\n      pop\n        /* \"#utility.yul\":7039:7156   */\n      pop\n        /* \"#utility.yul\":7195:7197   */\n      0x20\n        /* \"#utility.yul\":7221:7274   */\n      tag_444\n        /* \"#utility.yul\":7266:7273   */\n      dup6\n        /* \"#utility.yul\":7257:7263   */\n      dup3\n        /* \"#utility.yul\":7246:7255   */\n      dup7\n        /* \"#utility.yul\":7242:7264   */\n      add\n        /* \"#utility.yul\":7221:7274   */\n      tag_270\n      jump\t// in\n    tag_444:\n        /* \"#utility.yul\":7211:7274   */\n      swap2\n      pop\n        /* \"#utility.yul\":7166:7284   */\n      pop\n        /* \"#utility.yul\":6817:7291   */\n      swap3\n      pop\n      swap3\n      swap1\n      pop\n      jump\t// out\n        /* \"#utility.yul\":7297:7415   */\n    tag_291:\n        /* \"#utility.yul\":7384:7408   */\n      tag_446\n        /* \"#utility.yul\":7402:7407   */\n      dup2\n        /* \"#utility.yul\":7384:7408   */\n      tag_271\n      jump\t// in\n    tag_446:\n        /* \"#utility.yul\":7379:7382   */\n      dup3\n        /* \"#utility.yul\":7372:7409   */\n      mstore\n        /* \"#utility.yul\":7297:7415   */\n      pop\n      pop\n      jump\t// out\n        /* \"#utility.yul\":7421:7643   */\n    tag_111:\n        /* \"#utility.yul\":7514:7518   */\n      0x00\n        /* \"#utility.yul\":7552:7554   */\n      0x20\n        /* \"#utility.yul\":7541:7550   */\n      dup3\n        /* \"#utility.yul\":7537:7555   */\n      add\n        /* \"#utility.yul\":7529:7555   */\n      swap1\n      pop\n        /* \"#utility.yul\":7565:7636   */\n      tag_448\n        /* \"#utility.yul\":7633:7634   */\n      0x00\n        /* \"#utility.yul\":7622:7631   */\n      dup4\n        /* \"#utility.yul\":7618:7635   */\n      add\n        /* \"#utility.yul\":7609:7615   */\n      dup5\n        /* \"#utility.yul\":7565:7636   */\n      tag_291\n      jump\t// in\n    tag_448:\n        /* \"#utility.yul\":7421:7643   */\n      swap3\n      swap2\n      pop\n      pop\n      jump\t// out\n        /* \"#utility.yul\":7649:7783   */\n    tag_292:\n        /* \"#utility.yul\":7707:7716   */\n      0x00\n        /* \"#utility.yul\":7740:7777   */\n      tag_450\n        /* \"#utility.yul\":7771:7776   */\n      dup3\n        /* \"#utility.yul\":7740:7777   */\n      tag_287\n      jump\t// in\n    tag_450:\n        /* \"#utility.yul\":7727:7777   */\n      swap1\n      pop\n        /* \"#utility.yul\":7649:7783   */\n      swap2\n      swap1\n      pop\n      jump\t// out\n        /* \"#utility.yul\":7789:7958   */\n    tag_293:\n        /* \"#utility.yul\":7874:7883   */\n      0x00\n        /* \"#utility.yul\":7907:7952   */\n      tag_452\n        /* \"#utility.yul\":7946:7951   */\n      dup3\n        /* \"#utility.yul\":7907:7952   */\n      tag_292\n      jump\t// in\n    tag_452:\n        /* \"#utility.yul\":7894:7952   */\n      swap1\n      pop\n        /* \"#utility.yul\":7789:7958   */\n      swap2\n      swap1\n      pop\n      jump\t// out\n        /* \"#utility.yul\":7964:8165   */\n    tag_294:\n        /* \"#utility.yul\":8086:8158   */\n      tag_454\n        /* \"#utility.yul\":8152:8157   */\n      dup2\n        /* \"#utility.yul\":8086:8158   */\n      tag_293\n      jump\t// in\n    tag_454:\n        /* \"#utility.yul\":8081:8084   */\n      dup3\n        /* \"#utility.yul\":8074:8159   */\n      mstore\n        /* \"#utility.yul\":7964:8165   */\n      pop\n      pop\n      jump\t// out\n        /* \"#utility.yul\":8171:8463   */\n    tag_116:\n        /* \"#utility.yul\":8299:8303   */\n      0x00\n        /* \"#utility.yul\":8337:8339   */\n      0x20\n        /* \"#utility.yul\":8326:8335   */\n      dup3\n        /* \"#utility.yul\":8322:8340   */\n      add\n        /* \"#utility.yul\":8314:8340   */\n      swap1\n      pop\n        /* \"#utility.yul\":8350:8456   */\n      tag_456\n        /* \"#utility.yul\":8453:8454   */\n      0x00\n        /* \"#utility.yul\":8442:8451   */\n      dup4\n        /* \"#utility.yul\":8438:8455   */\n      add\n        /* \"#utility.yul\":8429:8435   */\n      dup5\n        /* \"#utility.yul\":8350:8456   */\n      tag_294\n      jump\t// in\n    tag_456:\n        /* \"#utility.yul\":8171:8463   */\n      swap3\n      swap2\n      pop\n      pop\n      jump\t// out\n        /* \"#utility.yul\":8469:9088   */\n    tag_127:\n        /* \"#utility.yul\":8546:8552   */\n      0x00\n        /* \"#utility.yul\":8554:8560   */\n      dup1\n        /* \"#utility.yul\":8562:8568   */\n      0x00\n        /* \"#utility.yul\":8611:8613   */\n      0x60\n        /* \"#utility.yul\":8599:8608   */\n      dup5\n        /* \"#utility.yul\":8590:8597   */\n      dup7\n        /* \"#utility.yul\":8586:8609   */\n      sub\n        /* \"#utility.yul\":8582:8614   */\n      slt\n        /* \"#utility.yul\":8579:8698   */\n      iszero\n      tag_458\n      jumpi\n        /* \"#utility.yul\":8617:8696   */\n      tag_459\n      tag_265\n      jump\t// in\n    tag_459:\n        /* \"#utility.yul\":8579:8698   */\n    tag_458:\n        /* \"#utility.yul\":8737:8738   */\n      0x00\n        /* \"#utility.yul\":8762:8815   */\n      tag_460\n        /* \"#utility.yul\":8807:8814   */\n      dup7\n        /* \"#utility.yul\":8798:8804   */\n      dup3\n        /* \"#utility.yul\":8787:8796   */\n      dup8\n        /* \"#utility.yul\":8783:8805   */\n      add\n        /* \"#utility.yul\":8762:8815   */\n      tag_270\n      jump\t// in\n    tag_460:\n        /* \"#utility.yul\":8752:8815   */\n      swap4\n      pop\n        /* \"#utility.yul\":8708:8825   */\n      pop\n        /* \"#utility.yul\":8864:8866   */\n      0x20\n        /* \"#utility.yul\":8890:8943   */\n      tag_461\n        /* \"#utility.yul\":8935:8942   */\n      dup7\n        /* \"#utility.yul\":8926:8932   */\n      dup3\n        /* \"#utility.yul\":8915:8924   */\n      dup8\n        /* \"#utility.yul\":8911:8933   */\n      add\n        /* \"#utility.yul\":8890:8943   */\n      tag_273\n      jump\t// in\n    tag_461:\n        /* \"#utility.yul\":8880:8943   */\n      swap3\n      pop\n        /* \"#utility.yul\":8835:8953   */\n      pop\n        /* \"#utility.yul\":8992:8994   */\n      0x40\n        /* \"#utility.yul\":9018:9071   */\n      tag_462\n        /* \"#utility.yul\":9063:9070   */\n      dup7\n        /* \"#utility.yul\":9054:9060   */\n      dup3\n        /* \"#utility.yul\":9043:9052   */\n      dup8\n        /* \"#utility.yul\":9039:9061   */\n      add\n        /* \"#utility.yul\":9018:9071   */\n      tag_273\n      jump\t// in\n    tag_462:\n        /* \"#utility.yul\":9008:9071   */\n      swap2\n      pop\n        /* \"#utility.yul\":8963:9081   */\n      pop\n        /* \"#utility.yul\":8469:9088   */\n      swap3\n      pop\n      swap3\n      pop\n      swap3\n      jump\t// out\n        /* \"#utility.yul\":9094:9426   */\n    tag_130:\n        /* \"#utility.yul\":9215:9219   */\n      0x00\n        /* \"#utility.yul\":9253:9255   */\n      0x40\n        /* \"#utility.yul\":9242:9251   */\n      dup3\n        /* \"#utility.yul\":9238:9256   */\n      add\n        /* \"#utility.yul\":9230:9256   */\n      swap1\n      pop\n        /* \"#utility.yul\":9266:9337   */\n      tag_464\n        /* \"#utility.yul\":9334:9335   */\n      0x00\n        /* \"#utility.yul\":9323:9332   */\n      dup4\n        /* \"#utility.yul\":9319:9336   */\n      add\n        /* \"#utility.yul\":9310:9316   */\n      dup6\n        /* \"#utility.yul\":9266:9337   */\n      tag_291\n      jump\t// in\n    tag_464:\n        /* \"#utility.yul\":9347:9419   */\n      tag_465\n        /* \"#utility.yul\":9415:9417   */\n      0x20\n        /* \"#utility.yul\":9404:9413   */\n      dup4\n        /* \"#utility.yul\":9400:9418   */\n      add\n        /* \"#utility.yul\":9391:9397   */\n      dup5\n        /* \"#utility.yul\":9347:9419   */\n      tag_291\n      jump\t// in\n    tag_465:\n        /* \"#utility.yul\":9094:9426   */\n      swap4\n      swap3\n      pop\n      pop\n      pop\n      jump\t// out\n        /* \"#utility.yul\":9432:9531   */\n    tag_295:\n        /* \"#utility.yul\":9484:9490   */\n      0x00\n        /* \"#utility.yul\":9518:9523   */\n      dup2\n        /* \"#utility.yul\":9512:9524   */\n      mload\n        /* \"#utility.yul\":9502:9524   */\n      swap1\n      pop\n        /* \"#utility.yul\":9432:9531   */\n      swap2\n      swap1\n      pop\n      jump\t// out\n        /* \"#utility.yul\":9537:9706   */\n    tag_296:\n        /* \"#utility.yul\":9621:9632   */\n      0x00\n        /* \"#utility.yul\":9655:9661   */\n      dup3\n        /* \"#utility.yul\":9650:9653   */\n      dup3\n        /* \"#utility.yul\":9643:9662   */\n      mstore\n        /* \"#utility.yul\":9695:9699   */\n      0x20\n        /* \"#utility.yul\":9690:9693   */\n      dup3\n        /* \"#utility.yul\":9686:9700   */\n      add\n        /* \"#utility.yul\":9671:9700   */\n      swap1\n      pop\n        /* \"#utility.yul\":9537:9706   */\n      swap3\n      swap2\n      pop\n      pop\n      jump\t// out\n        /* \"#utility.yul\":9712:9958   */\n    tag_297:\n        /* \"#utility.yul\":9793:9794   */\n      0x00\n        /* \"#utility.yul\":9803:9916   */\n    tag_469:\n        /* \"#utility.yul\":9817:9823   */\n      dup4\n        /* \"#utility.yul\":9814:9815   */\n      dup2\n        /* \"#utility.yul\":9811:9824   */\n      lt\n        /* \"#utility.yul\":9803:9916   */\n      iszero\n      tag_471\n      jumpi\n        /* \"#utility.yul\":9902:9903   */\n      dup1\n        /* \"#utility.yul\":9897:9900   */\n      dup3\n        /* \"#utility.yul\":9893:9904   */\n      add\n        /* \"#utility.yul\":9887:9905   */\n      mload\n        /* \"#utility.yul\":9883:9884   */\n      dup2\n        /* \"#utility.yul\":9878:9881   */\n      dup5\n        /* \"#utility.yul\":9874:9885   */\n      add\n        /* \"#utility.yul\":9867:9906   */\n      mstore\n        /* \"#utility.yul\":9839:9841   */\n      0x20\n        /* \"#utility.yul\":9836:9837   */\n      dup2\n        /* \"#utility.yul\":9832:9842   */\n      add\n        /* \"#utility.yul\":9827:9842   */\n      swap1\n      pop\n        /* \"#utility.yul\":9803:9916   */\n      jump(tag_469)\n    tag_471:\n        /* \"#utility.yul\":9950:9951   */\n      0x00\n        /* \"#utility.yul\":9941:9947   */\n      dup5\n        /* \"#utility.yul\":9936:9939   */\n      dup5\n        /* \"#utility.yul\":9932:9948   */\n      add\n        /* \"#utility.yul\":9925:9952   */\n      mstore\n        /* \"#utility.yul\":9774:9958   */\n      pop\n        /* \"#utility.yul\":9712:9958   */\n      pop\n      pop\n      pop\n      jump\t// out\n        /* \"#utility.yul\":9964:10066   */\n    tag_298:\n        /* \"#utility.yul\":10005:10011   */\n      0x00\n        /* \"#utility.yul\":10056:10058   */\n      0x1f\n        /* \"#utility.yul\":10052:10059   */\n      not\n        /* \"#utility.yul\":10047:10049   */\n      0x1f\n        /* \"#utility.yul\":10040:10045   */\n      dup4\n        /* \"#utility.yul\":10036:10050   */\n      add\n        /* \"#utility.yul\":10032:10060   */\n      and\n        /* \"#utility.yul\":10022:10060   */\n      swap1\n      pop\n        /* \"#utility.yul\":9964:10066   */\n      swap2\n      swap1\n      pop\n      jump\t// out\n        /* \"#utility.yul\":10072:10449   */\n    tag_299:\n        /* \"#utility.yul\":10160:10163   */\n      0x00\n        /* \"#utility.yul\":10188:10227   */\n      tag_474\n        /* \"#utility.yul\":10221:10226   */\n      dup3\n        /* \"#utility.yul\":10188:10227   */\n      tag_295\n      jump\t// in\n    tag_474:\n        /* \"#utility.yul\":10243:10314   */\n      tag_475\n        /* \"#utility.yul\":10307:10313   */\n      dup2\n        /* \"#utility.yul\":10302:10305   */\n      dup6\n        /* \"#utility.yul\":10243:10314   */\n      tag_296\n      jump\t// in\n    tag_475:\n        /* \"#utility.yul\":10236:10314   */\n      swap4\n      pop\n        /* \"#utility.yul\":10323:10388   */\n      tag_476\n        /* \"#utility.yul\":10381:10387   */\n      dup2\n        /* \"#utility.yul\":10376:10379   */\n      dup6\n        /* \"#utility.yul\":10369:10373   */\n      0x20\n        /* \"#utility.yul\":10362:10367   */\n      dup7\n        /* \"#utility.yul\":10358:10374   */\n      add\n        /* \"#utility.yul\":10323:10388   */\n      tag_297\n      jump\t// in\n    tag_476:\n        /* \"#utility.yul\":10413:10442   */\n      tag_477\n        /* \"#utility.yul\":10435:10441   */\n      dup2\n        /* \"#utility.yul\":10413:10442   */\n      tag_298\n      jump\t// in\n    tag_477:\n        /* \"#utility.yul\":10408:10411   */\n      dup5\n        /* \"#utility.yul\":10404:10443   */\n      add\n        /* \"#utility.yul\":10397:10443   */\n      swap2\n      pop\n        /* \"#utility.yul\":10164:10449   */\n      pop\n        /* \"#utility.yul\":10072:10449   */\n      swap3\n      swap2\n      pop\n      pop\n      jump\t// out\n        /* \"#utility.yul\":10455:10768   */\n    tag_145:\n        /* \"#utility.yul\":10568:10572   */\n      0x00\n        /* \"#utility.yul\":10606:10608   */\n      0x20\n        /* \"#utility.yul\":10595:10604   */\n      dup3\n        /* \"#utility.yul\":10591:10609   */\n      add\n        /* \"#utility.yul\":10583:10609   */\n      swap1\n      pop\n        /* \"#utility.yul\":10655:10664   */\n      dup2\n        /* \"#utility.yul\":10649:10653   */\n      dup2\n        /* \"#utility.yul\":10645:10665   */\n      sub\n        /* \"#utility.yul\":10641:10642   */\n      0x00\n        /* \"#utility.yul\":10630:10639   */\n      dup4\n        /* \"#utility.yul\":10626:10643   */\n      add\n        /* \"#utility.yul\":10619:10666   */\n      mstore\n        /* \"#utility.yul\":10683:10761   */\n      tag_479\n        /* \"#utility.yul\":10756:10760   */\n      dup2\n        /* \"#utility.yul\":10747:10753   */\n      dup5\n        /* \"#utility.yul\":10683:10761   */\n      tag_299\n      jump\t// in\n    tag_479:\n        /* \"#utility.yul\":10675:10761   */\n      swap1\n      pop\n        /* \"#utility.yul\":10455:10768   */\n      swap3\n      swap2\n      pop\n      pop\n      jump\t// out\n        /* \"#utility.yul\":10774:11106   */\n    tag_176:\n        /* \"#utility.yul\":10895:10899   */\n      0x00\n        /* \"#utility.yul\":10933:10935   */\n      0x40\n        /* \"#utility.yul\":10922:10931   */\n      dup3\n        /* \"#utility.yul\":10918:10936   */\n      add\n        /* \"#utility.yul\":10910:10936   */\n      swap1\n      pop\n        /* \"#utility.yul\":10946:11017   */\n      tag_481\n        /* \"#utility.yul\":11014:11015   */\n      0x00\n        /* \"#utility.yul\":11003:11012   */\n      dup4\n        /* \"#utility.yul\":10999:11016   */\n      add\n        /* \"#utility.yul\":10990:10996   */\n      dup6\n        /* \"#utility.yul\":10946:11017   */\n      tag_283\n      jump\t// in\n    tag_481:\n        /* \"#utility.yul\":11027:11099   */\n      tag_482\n        /* \"#utility.yul\":11095:11097   */\n      0x20\n        /* \"#utility.yul\":11084:11093   */\n      dup4\n        /* \"#utility.yul\":11080:11098   */\n      add\n        /* \"#utility.yul\":11071:11077   */\n      dup5\n        /* \"#utility.yul\":11027:11099   */\n      tag_291\n      jump\t// in\n    tag_482:\n        /* \"#utility.yul\":10774:11106   */\n      swap4\n      swap3\n      pop\n      pop\n      pop\n      jump\t// out\n        /* \"#utility.yul\":11112:11249   */\n    tag_300:\n        /* \"#utility.yul\":11166:11171   */\n      0x00\n        /* \"#utility.yul\":11197:11203   */\n      dup2\n        /* \"#utility.yul\":11191:11204   */\n      mload\n        /* \"#utility.yul\":11182:11204   */\n      swap1\n      pop\n        /* \"#utility.yul\":11213:11243   */\n      tag_484\n        /* \"#utility.yul\":11237:11242   */\n      dup2\n        /* \"#utility.yul\":11213:11243   */\n      tag_284\n      jump\t// in\n    tag_484:\n        /* \"#utility.yul\":11112:11249   */\n      swap3\n      swap2\n      pop\n      pop\n      jump\t// out\n        /* \"#utility.yul\":11255:11600   */\n    tag_180:\n        /* \"#utility.yul\":11322:11328   */\n      0x00\n        /* \"#utility.yul\":11371:11373   */\n      0x20\n        /* \"#utility.yul\":11359:11368   */\n      dup3\n        /* \"#utility.yul\":11350:11357   */\n      dup5\n        /* \"#utility.yul\":11346:11369   */\n      sub\n        /* \"#utility.yul\":11342:11374   */\n      slt\n        /* \"#utility.yul\":11339:11458   */\n      iszero\n      tag_486\n      jumpi\n        /* \"#utility.yul\":11377:11456   */\n      tag_487\n      tag_265\n      jump\t// in\n    tag_487:\n        /* \"#utility.yul\":11339:11458   */\n    tag_486:\n        /* \"#utility.yul\":11497:11498   */\n      0x00\n        /* \"#utility.yul\":11522:11583   */\n      tag_488\n        /* \"#utility.yul\":11575:11582   */\n      dup5\n        /* \"#utility.yul\":11566:11572   */\n      dup3\n        /* \"#utility.yul\":11555:11564   */\n      dup6\n        /* \"#utility.yul\":11551:11573   */\n      add\n        /* \"#utility.yul\":11522:11583   */\n      tag_300\n      jump\t// in\n    tag_488:\n        /* \"#utility.yul\":11512:11583   */\n      swap2\n      pop\n        /* \"#utility.yul\":11468:11593   */\n      pop\n        /* \"#utility.yul\":11255:11600   */\n      swap3\n      swap2\n      pop\n      pop\n      jump\t// out\n        /* \"#utility.yul\":11606:11700   */\n    tag_301:\n        /* \"#utility.yul\":11639:11647   */\n      0x00\n        /* \"#utility.yul\":11687:11692   */\n      dup2\n        /* \"#utility.yul\":11683:11685   */\n      0x60\n        /* \"#utility.yul\":11679:11693   */\n      shl\n        /* \"#utility.yul\":11658:11693   */\n      swap1\n      pop\n        /* \"#utility.yul\":11606:11700   */\n      swap2\n      swap1\n      pop\n      jump\t// out\n        /* \"#utility.yul\":11706:11800   */\n    tag_302:\n        /* \"#utility.yul\":11745:11752   */\n      0x00\n        /* \"#utility.yul\":11774:11794   */\n      tag_491\n        /* \"#utility.yul\":11788:11793   */\n      dup3\n        /* \"#utility.yul\":11774:11794   */\n      tag_301\n      jump\t// in\n    tag_491:\n        /* \"#utility.yul\":11763:11794   */\n      swap1\n      pop\n        /* \"#utility.yul\":11706:11800   */\n      swap2\n      swap1\n      pop\n      jump\t// out\n        /* \"#utility.yul\":11806:11906   */\n    tag_303:\n        /* \"#utility.yul\":11845:11852   */\n      0x00\n        /* \"#utility.yul\":11874:11900   */\n      tag_493\n        /* \"#utility.yul\":11894:11899   */\n      dup3\n        /* \"#utility.yul\":11874:11900   */\n      tag_302\n      jump\t// in\n    tag_493:\n        /* \"#utility.yul\":11863:11900   */\n      swap1\n      pop\n        /* \"#utility.yul\":11806:11906   */\n      swap2\n      swap1\n      pop\n      jump\t// out\n        /* \"#utility.yul\":11912:12069   */\n    tag_304:\n        /* \"#utility.yul\":12017:12062   */\n      tag_495\n        /* \"#utility.yul\":12037:12061   */\n      tag_496\n        /* \"#utility.yul\":12055:12060   */\n      dup3\n        /* \"#utility.yul\":12037:12061   */\n      tag_268\n      jump\t// in\n    tag_496:\n        /* \"#utility.yul\":12017:12062   */\n      tag_303\n      jump\t// in\n    tag_495:\n        /* \"#utility.yul\":12012:12015   */\n      dup3\n        /* \"#utility.yul\":12005:12063   */\n      mstore\n        /* \"#utility.yul\":11912:12069   */\n      pop\n      pop\n      jump\t// out\n        /* \"#utility.yul\":12075:12472   */\n    tag_184:\n        /* \"#utility.yul\":12215:12218   */\n      0x00\n        /* \"#utility.yul\":12230:12305   */\n      tag_498\n        /* \"#utility.yul\":12301:12304   */\n      dup3\n        /* \"#utility.yul\":12292:12298   */\n      dup6\n        /* \"#utility.yul\":12230:12305   */\n      tag_304\n      jump\t// in\n    tag_498:\n        /* \"#utility.yul\":12330:12332   */\n      0x14\n        /* \"#utility.yul\":12325:12328   */\n      dup3\n        /* \"#utility.yul\":12321:12333   */\n      add\n        /* \"#utility.yul\":12314:12333   */\n      swap2\n      pop\n        /* \"#utility.yul\":12343:12418   */\n      tag_499\n        /* \"#utility.yul\":12414:12417   */\n      dup3\n        /* \"#utility.yul\":12405:12411   */\n      dup5\n        /* \"#utility.yul\":12343:12418   */\n      tag_304\n      jump\t// in\n    tag_499:\n        /* \"#utility.yul\":12443:12445   */\n      0x14\n        /* \"#utility.yul\":12438:12441   */\n      dup3\n        /* \"#utility.yul\":12434:12446   */\n      add\n        /* \"#utility.yul\":12427:12446   */\n      swap2\n      pop\n        /* \"#utility.yul\":12463:12466   */\n      dup2\n        /* \"#utility.yul\":12456:12466   */\n      swap1\n      pop\n        /* \"#utility.yul\":12075:12472   */\n      swap4\n      swap3\n      pop\n      pop\n      pop\n      jump\t// out\n        /* \"#utility.yul\":12478:12626   */\n    tag_305:\n        /* \"#utility.yul\":12580:12591   */\n      0x00\n        /* \"#utility.yul\":12617:12620   */\n      dup2\n        /* \"#utility.yul\":12602:12620   */\n      swap1\n      pop\n        /* \"#utility.yul\":12478:12626   */\n      swap3\n      swap2\n      pop\n      pop\n      jump\t// out\n        /* \"#utility.yul\":12632:12846   */\n    tag_306:\n        /* \"#utility.yul\":12772:12838   */\n      0xff00000000000000000000000000000000000000000000000000000000000000\n        /* \"#utility.yul\":12768:12769   */\n      0x00\n        /* \"#utility.yul\":12760:12766   */\n      dup3\n        /* \"#utility.yul\":12756:12770   */\n      add\n        /* \"#utility.yul\":12749:12839   */\n      mstore\n        /* \"#utility.yul\":12632:12846   */\n      pop\n      jump\t// out\n        /* \"#utility.yul\":12852:13252   */\n    tag_307:\n        /* \"#utility.yul\":13012:13015   */\n      0x00\n        /* \"#utility.yul\":13033:13117   */\n      tag_503\n        /* \"#utility.yul\":13115:13116   */\n      0x01\n        /* \"#utility.yul\":13110:13113   */\n      dup4\n        /* \"#utility.yul\":13033:13117   */\n      tag_305\n      jump\t// in\n    tag_503:\n        /* \"#utility.yul\":13026:13117   */\n      swap2\n      pop\n        /* \"#utility.yul\":13126:13219   */\n      tag_504\n        /* \"#utility.yul\":13215:13218   */\n      dup3\n        /* \"#utility.yul\":13126:13219   */\n      tag_306\n      jump\t// in\n    tag_504:\n        /* \"#utility.yul\":13244:13245   */\n      0x01\n        /* \"#utility.yul\":13239:13242   */\n      dup3\n        /* \"#utility.yul\":13235:13246   */\n      add\n        /* \"#utility.yul\":13228:13246   */\n      swap1\n      pop\n        /* \"#utility.yul\":12852:13252   */\n      swap2\n      swap1\n      pop\n      jump\t// out\n        /* \"#utility.yul\":13258:13335   */\n    tag_308:\n        /* \"#utility.yul\":13295:13302   */\n      0x00\n        /* \"#utility.yul\":13324:13329   */\n      dup2\n        /* \"#utility.yul\":13313:13329   */\n      swap1\n      pop\n        /* \"#utility.yul\":13258:13335   */\n      swap2\n      swap1\n      pop\n      jump\t// out\n        /* \"#utility.yul\":13341:13420   */\n    tag_309:\n        /* \"#utility.yul\":13380:13387   */\n      0x00\n        /* \"#utility.yul\":13409:13414   */\n      dup2\n        /* \"#utility.yul\":13398:13414   */\n      swap1\n      pop\n        /* \"#utility.yul\":13341:13420   */\n      swap2\n      swap1\n      pop\n      jump\t// out\n        /* \"#utility.yul\":13426:13583   */\n    tag_310:\n        /* \"#utility.yul\":13531:13576   */\n      tag_508\n        /* \"#utility.yul\":13551:13575   */\n      tag_509\n        /* \"#utility.yul\":13569:13574   */\n      dup3\n        /* \"#utility.yul\":13551:13575   */\n      tag_308\n      jump\t// in\n    tag_509:\n        /* \"#utility.yul\":13531:13576   */\n      tag_309\n      jump\t// in\n    tag_508:\n        /* \"#utility.yul\":13526:13529   */\n      dup3\n        /* \"#utility.yul\":13519:13577   */\n      mstore\n        /* \"#utility.yul\":13426:13583   */\n      pop\n      pop\n      jump\t// out\n        /* \"#utility.yul\":13589:13803   */\n    tag_311:\n        /* \"#utility.yul\":13729:13795   */\n      0xf8fb854b80d71035cc709012ce23accad9a804fcf7b90ac0c663e12c58a9c446\n        /* \"#utility.yul\":13725:13726   */\n      0x00\n        /* \"#utility.yul\":13717:13723   */\n      dup3\n        /* \"#utility.yul\":13713:13727   */\n      add\n        /* \"#utility.yul\":13706:13796   */\n      mstore\n        /* \"#utility.yul\":13589:13803   */\n      pop\n      jump\t// out\n        /* \"#utility.yul\":13809:14211   */\n    tag_312:\n        /* \"#utility.yul\":13969:13972   */\n      0x00\n        /* \"#utility.yul\":13990:14075   */\n      tag_512\n        /* \"#utility.yul\":14072:14074   */\n      0x20\n        /* \"#utility.yul\":14067:14070   */\n      dup4\n        /* \"#utility.yul\":13990:14075   */\n      tag_305\n      jump\t// in\n    tag_512:\n        /* \"#utility.yul\":13983:14075   */\n      swap2\n      pop\n        /* \"#utility.yul\":14084:14177   */\n      tag_513\n        /* \"#utility.yul\":14173:14176   */\n      dup3\n        /* \"#utility.yul\":14084:14177   */\n      tag_311\n      jump\t// in\n    tag_513:\n        /* \"#utility.yul\":14202:14204   */\n      0x20\n        /* \"#utility.yul\":14197:14200   */\n      dup3\n        /* \"#utility.yul\":14193:14205   */\n      add\n        /* \"#utility.yul\":14186:14205   */\n      swap1\n      pop\n        /* \"#utility.yul\":13809:14211   */\n      swap2\n      swap1\n      pop\n      jump\t// out\n        /* \"#utility.yul\":14217:15146   */\n    tag_186:\n        /* \"#utility.yul\":14559:14562   */\n      0x00\n        /* \"#utility.yul\":14581:14729   */\n      tag_515\n        /* \"#utility.yul\":14725:14728   */\n      dup3\n        /* \"#utility.yul\":14581:14729   */\n      tag_307\n      jump\t// in\n    tag_515:\n        /* \"#utility.yul\":14574:14729   */\n      swap2\n      pop\n        /* \"#utility.yul\":14739:14814   */\n      tag_516\n        /* \"#utility.yul\":14810:14813   */\n      dup3\n        /* \"#utility.yul\":14801:14807   */\n      dup6\n        /* \"#utility.yul\":14739:14814   */\n      tag_304\n      jump\t// in\n    tag_516:\n        /* \"#utility.yul\":14839:14841   */\n      0x14\n        /* \"#utility.yul\":14834:14837   */\n      dup3\n        /* \"#utility.yul\":14830:14842   */\n      add\n        /* \"#utility.yul\":14823:14842   */\n      swap2\n      pop\n        /* \"#utility.yul\":14852:14927   */\n      tag_517\n        /* \"#utility.yul\":14923:14926   */\n      dup3\n        /* \"#utility.yul\":14914:14920   */\n      dup5\n        /* \"#utility.yul\":14852:14927   */\n      tag_310\n      jump\t// in\n    tag_517:\n        /* \"#utility.yul\":14952:14954   */\n      0x20\n        /* \"#utility.yul\":14947:14950   */\n      dup3\n        /* \"#utility.yul\":14943:14955   */\n      add\n        /* \"#utility.yul\":14936:14955   */\n      swap2\n      pop\n        /* \"#utility.yul\":14972:15120   */\n      tag_518\n        /* \"#utility.yul\":15116:15119   */\n      dup3\n        /* \"#utility.yul\":14972:15120   */\n      tag_312\n      jump\t// in\n    tag_518:\n        /* \"#utility.yul\":14965:15120   */\n      swap2\n      pop\n        /* \"#utility.yul\":15137:15140   */\n      dup2\n        /* \"#utility.yul\":15130:15140   */\n      swap1\n      pop\n        /* \"#utility.yul\":14217:15146   */\n      swap4\n      swap3\n      pop\n      pop\n      pop\n      jump\t// out\n        /* \"#utility.yul\":15152:15594   */\n    tag_194:\n        /* \"#utility.yul\":15301:15305   */\n      0x00\n        /* \"#utility.yul\":15339:15341   */\n      0x60\n        /* \"#utility.yul\":15328:15337   */\n      dup3\n        /* \"#utility.yul\":15324:15342   */\n      add\n        /* \"#utility.yul\":15316:15342   */\n      swap1\n      pop\n        /* \"#utility.yul\":15352:15423   */\n      tag_520\n        /* \"#utility.yul\":15420:15421   */\n      0x00\n        /* \"#utility.yul\":15409:15418   */\n      dup4\n        /* \"#utility.yul\":15405:15422   */\n      add\n        /* \"#utility.yul\":15396:15402   */\n      dup7\n        /* \"#utility.yul\":15352:15423   */\n      tag_283\n      jump\t// in\n    tag_520:\n        /* \"#utility.yul\":15433:15505   */\n      tag_521\n        /* \"#utility.yul\":15501:15503   */\n      0x20\n        /* \"#utility.yul\":15490:15499   */\n      dup4\n        /* \"#utility.yul\":15486:15504   */\n      add\n        /* \"#utility.yul\":15477:15483   */\n      dup6\n        /* \"#utility.yul\":15433:15505   */\n      tag_283\n      jump\t// in\n    tag_521:\n        /* \"#utility.yul\":15515:15587   */\n      tag_522\n        /* \"#utility.yul\":15583:15585   */\n      0x40\n        /* \"#utility.yul\":15572:15581   */\n      dup4\n        /* \"#utility.yul\":15568:15586   */\n      add\n        /* \"#utility.yul\":15559:15565   */\n      dup5\n        /* \"#utility.yul\":15515:15587   */\n      tag_291\n      jump\t// in\n    tag_522:\n        /* \"#utility.yul\":15152:15594   */\n      swap5\n      swap4\n      pop\n      pop\n      pop\n      pop\n      jump\t// out\n        /* \"#utility.yul\":15600:15780   */\n    tag_313:\n        /* \"#utility.yul\":15648:15725   */\n      0x4e487b7100000000000000000000000000000000000000000000000000000000\n        /* \"#utility.yul\":15645:15646   */\n      0x00\n        /* \"#utility.yul\":15638:15726   */\n      mstore\n        /* \"#utility.yul\":15745:15749   */\n      0x11\n        /* \"#utility.yul\":15742:15743   */\n      0x04\n        /* \"#utility.yul\":15735:15750   */\n      mstore\n        /* \"#utility.yul\":15769:15773   */\n      0x24\n        /* \"#utility.yul\":15766:15767   */\n      0x00\n        /* \"#utility.yul\":15759:15774   */\n      revert\n        /* \"#utility.yul\":15786:16196   */\n    tag_208:\n        /* \"#utility.yul\":15826:15833   */\n      0x00\n        /* \"#utility.yul\":15849:15869   */\n      tag_525\n        /* \"#utility.yul\":15867:15868   */\n      dup3\n        /* \"#utility.yul\":15849:15869   */\n      tag_271\n      jump\t// in\n    tag_525:\n        /* \"#utility.yul\":15844:15869   */\n      swap2\n      pop\n        /* \"#utility.yul\":15883:15903   */\n      tag_526\n        /* \"#utility.yul\":15901:15902   */\n      dup4\n        /* \"#utility.yul\":15883:15903   */\n      tag_271\n      jump\t// in\n    tag_526:\n        /* \"#utility.yul\":15878:15903   */\n      swap3\n      pop\n        /* \"#utility.yul\":15938:15939   */\n      dup3\n        /* \"#utility.yul\":15935:15936   */\n      dup3\n        /* \"#utility.yul\":15931:15940   */\n      mul\n        /* \"#utility.yul\":15960:15990   */\n      tag_527\n        /* \"#utility.yul\":15978:15989   */\n      dup2\n        /* \"#utility.yul\":15960:15990   */\n      tag_271\n      jump\t// in\n    tag_527:\n        /* \"#utility.yul\":15949:15990   */\n      swap2\n      pop\n        /* \"#utility.yul\":16139:16140   */\n      dup3\n        /* \"#utility.yul\":16130:16137   */\n      dup3\n        /* \"#utility.yul\":16126:16141   */\n      div\n        /* \"#utility.yul\":16123:16124   */\n      dup5\n        /* \"#utility.yul\":16120:16142   */\n      eq\n        /* \"#utility.yul\":16100:16101   */\n      dup4\n        /* \"#utility.yul\":16093:16102   */\n      iszero\n        /* \"#utility.yul\":16073:16156   */\n      or\n        /* \"#utility.yul\":16050:16189   */\n      tag_528\n      jumpi\n        /* \"#utility.yul\":16169:16187   */\n      tag_529\n      tag_313\n      jump\t// in\n    tag_529:\n        /* \"#utility.yul\":16050:16189   */\n    tag_528:\n        /* \"#utility.yul\":15834:16196   */\n      pop\n        /* \"#utility.yul\":15786:16196   */\n      swap3\n      swap2\n      pop\n      pop\n      jump\t// out\n        /* \"#utility.yul\":16202:16382   */\n    tag_314:\n        /* \"#utility.yul\":16250:16327   */\n      0x4e487b7100000000000000000000000000000000000000000000000000000000\n        /* \"#utility.yul\":16247:16248   */\n      0x00\n        /* \"#utility.yul\":16240:16328   */\n      mstore\n        /* \"#utility.yul\":16347:16351   */\n      0x12\n        /* \"#utility.yul\":16344:16345   */\n      0x04\n        /* \"#utility.yul\":16337:16352   */\n      mstore\n        /* \"#utility.yul\":16371:16375   */\n      0x24\n        /* \"#utility.yul\":16368:16369   */\n      0x00\n        /* \"#utility.yul\":16361:16376   */\n      revert\n        /* \"#utility.yul\":16388:16573   */\n    tag_210:\n        /* \"#utility.yul\":16428:16429   */\n      0x00\n        /* \"#utility.yul\":16445:16465   */\n      tag_532\n        /* \"#utility.yul\":16463:16464   */\n      dup3\n        /* \"#utility.yul\":16445:16465   */\n      tag_271\n      jump\t// in\n    tag_532:\n        /* \"#utility.yul\":16440:16465   */\n      swap2\n      pop\n        /* \"#utility.yul\":16479:16499   */\n      tag_533\n        /* \"#utility.yul\":16497:16498   */\n      dup4\n        /* \"#utility.yul\":16479:16499   */\n      tag_271\n      jump\t// in\n    tag_533:\n        /* \"#utility.yul\":16474:16499   */\n      swap3\n      pop\n        /* \"#utility.yul\":16518:16519   */\n      dup3\n        /* \"#utility.yul\":16508:16543   */\n      tag_534\n      jumpi\n        /* \"#utility.yul\":16523:16541   */\n      tag_535\n      tag_314\n      jump\t// in\n    tag_535:\n        /* \"#utility.yul\":16508:16543   */\n    tag_534:\n        /* \"#utility.yul\":16565:16566   */\n      dup3\n        /* \"#utility.yul\":16562:16563   */\n      dup3\n        /* \"#utility.yul\":16558:16567   */\n      div\n        /* \"#utility.yul\":16553:16567   */\n      swap1\n      pop\n        /* \"#utility.yul\":16388:16573   */\n      swap3\n      swap2\n      pop\n      pop\n      jump\t// out\n        /* \"#utility.yul\":16579:16665   */\n    tag_315:\n        /* \"#utility.yul\":16625:16632   */\n      0x00\n        /* \"#utility.yul\":16654:16659   */\n      dup2\n        /* \"#utility.yul\":16643:16659   */\n      swap1\n      pop\n        /* \"#utility.yul\":16579:16665   */\n      swap2\n      swap1\n      pop\n      jump\t// out\n        /* \"#utility.yul\":16671:16757   */\n    tag_316:\n        /* \"#utility.yul\":16706:16713   */\n      0x00\n        /* \"#utility.yul\":16746:16750   */\n      0xff\n        /* \"#utility.yul\":16739:16744   */\n      dup3\n        /* \"#utility.yul\":16735:16751   */\n      and\n        /* \"#utility.yul\":16724:16751   */\n      swap1\n      pop\n        /* \"#utility.yul\":16671:16757   */\n      swap2\n      swap1\n      pop\n      jump\t// out\n        /* \"#utility.yul\":16763:16919   */\n    tag_317:\n        /* \"#utility.yul\":16820:16829   */\n      0x00\n        /* \"#utility.yul\":16853:16913   */\n      tag_539\n        /* \"#utility.yul\":16869:16912   */\n      tag_540\n        /* \"#utility.yul\":16878:16911   */\n      tag_541\n        /* \"#utility.yul\":16905:16910   */\n      dup5\n        /* \"#utility.yul\":16878:16911   */\n      tag_315\n      jump\t// in\n    tag_541:\n        /* \"#utility.yul\":16869:16912   */\n      tag_286\n      jump\t// in\n    tag_540:\n        /* \"#utility.yul\":16853:16913   */\n      tag_316\n      jump\t// in\n    tag_539:\n        /* \"#utility.yul\":16840:16913   */\n      swap1\n      pop\n        /* \"#utility.yul\":16763:16919   */\n      swap2\n      swap1\n      pop\n      jump\t// out\n        /* \"#utility.yul\":16925:17070   */\n    tag_318:\n        /* \"#utility.yul\":17019:17063   */\n      tag_543\n        /* \"#utility.yul\":17057:17062   */\n      dup2\n        /* \"#utility.yul\":17019:17063   */\n      tag_317\n      jump\t// in\n    tag_543:\n        /* \"#utility.yul\":17014:17017   */\n      dup3\n        /* \"#utility.yul\":17007:17064   */\n      mstore\n        /* \"#utility.yul\":16925:17070   */\n      pop\n      pop\n      jump\t// out\n        /* \"#utility.yul\":17076:17165   */\n    tag_319:\n        /* \"#utility.yul\":17125:17132   */\n      0x00\n        /* \"#utility.yul\":17154:17159   */\n      dup2\n        /* \"#utility.yul\":17143:17159   */\n      swap1\n      pop\n        /* \"#utility.yul\":17076:17165   */\n      swap2\n      swap1\n      pop\n      jump\t// out\n        /* \"#utility.yul\":17171:17260   */\n    tag_320:\n        /* \"#utility.yul\":17207:17214   */\n      0x00\n        /* \"#utility.yul\":17247:17253   */\n      0xffff\n        /* \"#utility.yul\":17240:17245   */\n      dup3\n        /* \"#utility.yul\":17236:17254   */\n      and\n        /* \"#utility.yul\":17225:17254   */\n      swap1\n      pop\n        /* \"#utility.yul\":17171:17260   */\n      swap2\n      swap1\n      pop\n      jump\t// out\n        /* \"#utility.yul\":17266:17430   */\n    tag_321:\n        /* \"#utility.yul\":17327:17336   */\n      0x00\n        /* \"#utility.yul\":17360:17424   */\n      tag_547\n        /* \"#utility.yul\":17377:17423   */\n      tag_548\n        /* \"#utility.yul\":17386:17422   */\n      tag_549\n        /* \"#utility.yul\":17416:17421   */\n      dup5\n        /* \"#utility.yul\":17386:17422   */\n      tag_319\n      jump\t// in\n    tag_549:\n        /* \"#utility.yul\":17377:17423   */\n      tag_286\n      jump\t// in\n    tag_548:\n        /* \"#utility.yul\":17360:17424   */\n      tag_320\n      jump\t// in\n    tag_547:\n        /* \"#utility.yul\":17347:17424   */\n      swap1\n      pop\n        /* \"#utility.yul\":17266:17430   */\n      swap2\n      swap1\n      pop\n      jump\t// out\n        /* \"#utility.yul\":17436:17589   */\n    tag_322:\n        /* \"#utility.yul\":17534:17582   */\n      tag_551\n        /* \"#utility.yul\":17576:17581   */\n      dup2\n        /* \"#utility.yul\":17534:17582   */\n      tag_321\n      jump\t// in\n    tag_551:\n        /* \"#utility.yul\":17529:17532   */\n      dup3\n        /* \"#utility.yul\":17522:17583   */\n      mstore\n        /* \"#utility.yul\":17436:17589   */\n      pop\n      pop\n      jump\t// out\n        /* \"#utility.yul\":17595:18295   */\n    tag_214:\n        /* \"#utility.yul\":17818:17822   */\n      0x00\n        /* \"#utility.yul\":17856:17859   */\n      0xa0\n        /* \"#utility.yul\":17845:17854   */\n      dup3\n        /* \"#utility.yul\":17841:17860   */\n      add\n        /* \"#utility.yul\":17833:17860   */\n      swap1\n      pop\n        /* \"#utility.yul\":17870:17948   */\n      tag_553\n        /* \"#utility.yul\":17945:17946   */\n      0x00\n        /* \"#utility.yul\":17934:17943   */\n      dup4\n        /* \"#utility.yul\":17930:17947   */\n      add\n        /* \"#utility.yul\":17921:17927   */\n      dup9\n        /* \"#utility.yul\":17870:17948   */\n      tag_318\n      jump\t// in\n    tag_553:\n        /* \"#utility.yul\":17958:18030   */\n      tag_554\n        /* \"#utility.yul\":18026:18028   */\n      0x20\n        /* \"#utility.yul\":18015:18024   */\n      dup4\n        /* \"#utility.yul\":18011:18029   */\n      add\n        /* \"#utility.yul\":18002:18008   */\n      dup8\n        /* \"#utility.yul\":17958:18030   */\n      tag_283\n      jump\t// in\n    tag_554:\n        /* \"#utility.yul\":18040:18112   */\n      tag_555\n        /* \"#utility.yul\":18108:18110   */\n      0x40\n        /* \"#utility.yul\":18097:18106   */\n      dup4\n        /* \"#utility.yul\":18093:18111   */\n      add\n        /* \"#utility.yul\":18084:18090   */\n      dup7\n        /* \"#utility.yul\":18040:18112   */\n      tag_283\n      jump\t// in\n    tag_555:\n        /* \"#utility.yul\":18122:18205   */\n      tag_556\n        /* \"#utility.yul\":18201:18203   */\n      0x60\n        /* \"#utility.yul\":18190:18199   */\n      dup4\n        /* \"#utility.yul\":18186:18204   */\n      add\n        /* \"#utility.yul\":18177:18183   */\n      dup6\n        /* \"#utility.yul\":18122:18205   */\n      tag_322\n      jump\t// in\n    tag_556:\n        /* \"#utility.yul\":18215:18288   */\n      tag_557\n        /* \"#utility.yul\":18283:18286   */\n      0x80\n        /* \"#utility.yul\":18272:18281   */\n      dup4\n        /* \"#utility.yul\":18268:18287   */\n      add\n        /* \"#utility.yul\":18259:18265   */\n      dup5\n        /* \"#utility.yul\":18215:18288   */\n      tag_291\n      jump\t// in\n    tag_557:\n        /* \"#utility.yul\":17595:18295   */\n      swap7\n      swap6\n      pop\n      pop\n      pop\n      pop\n      pop\n      pop\n      jump\t// out\n        /* \"#utility.yul\":18301:18387   */\n    tag_323:\n        /* \"#utility.yul\":18347:18354   */\n      0x00\n        /* \"#utility.yul\":18376:18381   */\n      dup2\n        /* \"#utility.yul\":18365:18381   */\n      swap1\n      pop\n        /* \"#utility.yul\":18301:18387   */\n      swap2\n      swap1\n      pop\n      jump\t// out\n        /* \"#utility.yul\":18393:18549   */\n    tag_324:\n        /* \"#utility.yul\":18450:18459   */\n      0x00\n        /* \"#utility.yul\":18483:18543   */\n      tag_560\n        /* \"#utility.yul\":18499:18542   */\n      tag_561\n        /* \"#utility.yul\":18508:18541   */\n      tag_562\n        /* \"#utility.yul\":18535:18540   */\n      dup5\n        /* \"#utility.yul\":18508:18541   */\n      tag_323\n      jump\t// in\n    tag_562:\n        /* \"#utility.yul\":18499:18542   */\n      tag_286\n      jump\t// in\n    tag_561:\n        /* \"#utility.yul\":18483:18543   */\n      tag_316\n      jump\t// in\n    tag_560:\n        /* \"#utility.yul\":18470:18543   */\n      swap1\n      pop\n        /* \"#utility.yul\":18393:18549   */\n      swap2\n      swap1\n      pop\n      jump\t// out\n        /* \"#utility.yul\":18555:18700   */\n    tag_325:\n        /* \"#utility.yul\":18649:18693   */\n      tag_564\n        /* \"#utility.yul\":18687:18692   */\n      dup2\n        /* \"#utility.yul\":18649:18693   */\n      tag_324\n      jump\t// in\n    tag_564:\n        /* \"#utility.yul\":18644:18647   */\n      dup3\n        /* \"#utility.yul\":18637:18694   */\n      mstore\n        /* \"#utility.yul\":18555:18700   */\n      pop\n      pop\n      jump\t// out\n        /* \"#utility.yul\":18706:18791   */\n    tag_326:\n        /* \"#utility.yul\":18751:18758   */\n      0x00\n        /* \"#utility.yul\":18780:18785   */\n      dup2\n        /* \"#utility.yul\":18769:18785   */\n      swap1\n      pop\n        /* \"#utility.yul\":18706:18791   */\n      swap2\n      swap1\n      pop\n      jump\t// out\n        /* \"#utility.yul\":18797:18951   */\n    tag_327:\n        /* \"#utility.yul\":18853:18862   */\n      0x00\n        /* \"#utility.yul\":18886:18945   */\n      tag_567\n        /* \"#utility.yul\":18902:18944   */\n      tag_568\n        /* \"#utility.yul\":18911:18943   */\n      tag_569\n        /* \"#utility.yul\":18937:18942   */\n      dup5\n        /* \"#utility.yul\":18911:18943   */\n      tag_326\n      jump\t// in\n    tag_569:\n        /* \"#utility.yul\":18902:18944   */\n      tag_286\n      jump\t// in\n    tag_568:\n        /* \"#utility.yul\":18886:18945   */\n      tag_316\n      jump\t// in\n    tag_567:\n        /* \"#utility.yul\":18873:18945   */\n      swap1\n      pop\n        /* \"#utility.yul\":18797:18951   */\n      swap2\n      swap1\n      pop\n      jump\t// out\n        /* \"#utility.yul\":18957:19100   */\n    tag_328:\n        /* \"#utility.yul\":19050:19093   */\n      tag_571\n        /* \"#utility.yul\":19087:19092   */\n      dup2\n        /* \"#utility.yul\":19050:19093   */\n      tag_327\n      jump\t// in\n    tag_571:\n        /* \"#utility.yul\":19045:19048   */\n      dup3\n        /* \"#utility.yul\":19038:19094   */\n      mstore\n        /* \"#utility.yul\":18957:19100   */\n      pop\n      pop\n      jump\t// out\n        /* \"#utility.yul\":19106:20510   */\n    tag_216:\n        /* \"#utility.yul\":19516:19520   */\n      0x00\n        /* \"#utility.yul\":19554:19557   */\n      0x0160\n        /* \"#utility.yul\":19543:19552   */\n      dup3\n        /* \"#utility.yul\":19539:19558   */\n      add\n        /* \"#utility.yul\":19531:19558   */\n      swap1\n      pop\n        /* \"#utility.yul\":19568:19646   */\n      tag_573\n        /* \"#utility.yul\":19643:19644   */\n      0x00\n        /* \"#utility.yul\":19632:19641   */\n      dup4\n        /* \"#utility.yul\":19628:19645   */\n      add\n        /* \"#utility.yul\":19619:19625   */\n      dup15\n        /* \"#utility.yul\":19568:19646   */\n      tag_325\n      jump\t// in\n    tag_573:\n        /* \"#utility.yul\":19656:19728   */\n      tag_574\n        /* \"#utility.yul\":19724:19726   */\n      0x20\n        /* \"#utility.yul\":19713:19722   */\n      dup4\n        /* \"#utility.yul\":19709:19727   */\n      add\n        /* \"#utility.yul\":19700:19706   */\n      dup14\n        /* \"#utility.yul\":19656:19728   */\n      tag_283\n      jump\t// in\n    tag_574:\n        /* \"#utility.yul\":19738:19810   */\n      tag_575\n        /* \"#utility.yul\":19806:19808   */\n      0x40\n        /* \"#utility.yul\":19795:19804   */\n      dup4\n        /* \"#utility.yul\":19791:19809   */\n      add\n        /* \"#utility.yul\":19782:19788   */\n      dup13\n        /* \"#utility.yul\":19738:19810   */\n      tag_283\n      jump\t// in\n    tag_575:\n        /* \"#utility.yul\":19820:19903   */\n      tag_576\n        /* \"#utility.yul\":19899:19901   */\n      0x60\n        /* \"#utility.yul\":19888:19897   */\n      dup4\n        /* \"#utility.yul\":19884:19902   */\n      add\n        /* \"#utility.yul\":19875:19881   */\n      dup12\n        /* \"#utility.yul\":19820:19903   */\n      tag_322\n      jump\t// in\n    tag_576:\n        /* \"#utility.yul\":19913:19992   */\n      tag_577\n        /* \"#utility.yul\":19987:19990   */\n      0x80\n        /* \"#utility.yul\":19976:19985   */\n      dup4\n        /* \"#utility.yul\":19972:19991   */\n      add\n        /* \"#utility.yul\":19963:19969   */\n      dup11\n        /* \"#utility.yul\":19913:19992   */\n      tag_328\n      jump\t// in\n    tag_577:\n        /* \"#utility.yul\":20002:20081   */\n      tag_578\n        /* \"#utility.yul\":20076:20079   */\n      0xa0\n        /* \"#utility.yul\":20065:20074   */\n      dup4\n        /* \"#utility.yul\":20061:20080   */\n      add\n        /* \"#utility.yul\":20052:20058   */\n      dup10\n        /* \"#utility.yul\":20002:20081   */\n      tag_328\n      jump\t// in\n    tag_578:\n        /* \"#utility.yul\":20091:20164   */\n      tag_579\n        /* \"#utility.yul\":20159:20162   */\n      0xc0\n        /* \"#utility.yul\":20148:20157   */\n      dup4\n        /* \"#utility.yul\":20144:20163   */\n      add\n        /* \"#utility.yul\":20135:20141   */\n      dup9\n        /* \"#utility.yul\":20091:20164   */\n      tag_291\n      jump\t// in\n    tag_579:\n        /* \"#utility.yul\":20174:20247   */\n      tag_580\n        /* \"#utility.yul\":20242:20245   */\n      0xe0\n        /* \"#utility.yul\":20231:20240   */\n      dup4\n        /* \"#utility.yul\":20227:20246   */\n      add\n        /* \"#utility.yul\":20218:20224   */\n      dup8\n        /* \"#utility.yul\":20174:20247   */\n      tag_291\n      jump\t// in\n    tag_580:\n        /* \"#utility.yul\":20257:20330   */\n      tag_581\n        /* \"#utility.yul\":20325:20328   */\n      0x0100\n        /* \"#utility.yul\":20314:20323   */\n      dup4\n        /* \"#utility.yul\":20310:20329   */\n      add\n        /* \"#utility.yul\":20301:20307   */\n      dup7\n        /* \"#utility.yul\":20257:20330   */\n      tag_291\n      jump\t// in\n    tag_581:\n        /* \"#utility.yul\":20340:20419   */\n      tag_582\n        /* \"#utility.yul\":20414:20417   */\n      0x0120\n        /* \"#utility.yul\":20403:20412   */\n      dup4\n        /* \"#utility.yul\":20399:20418   */\n      add\n        /* \"#utility.yul\":20390:20396   */\n      dup6\n        /* \"#utility.yul\":20340:20419   */\n      tag_328\n      jump\t// in\n    tag_582:\n        /* \"#utility.yul\":20429:20503   */\n      tag_583\n        /* \"#utility.yul\":20498:20501   */\n      0x0140\n        /* \"#utility.yul\":20487:20496   */\n      dup4\n        /* \"#utility.yul\":20483:20502   */\n      add\n        /* \"#utility.yul\":20473:20480   */\n      dup5\n        /* \"#utility.yul\":20429:20503   */\n      tag_283\n      jump\t// in\n    tag_583:\n        /* \"#utility.yul\":19106:20510   */\n      swap13\n      swap12\n      pop\n      pop\n      pop\n      pop\n      pop\n      pop\n      pop\n      pop\n      pop\n      pop\n      pop\n      pop\n      jump\t// out\n        /* \"#utility.yul\":20516:20601   */\n    tag_329:\n        /* \"#utility.yul\":20561:20568   */\n      0x00\n        /* \"#utility.yul\":20590:20595   */\n      dup2\n        /* \"#utility.yul\":20579:20595   */\n      swap1\n      pop\n        /* \"#utility.yul\":20516:20601   */\n      swap2\n      swap1\n      pop\n      jump\t// out\n        /* \"#utility.yul\":20607:20761   */\n    tag_330:\n        /* \"#utility.yul\":20663:20672   */\n      0x00\n        /* \"#utility.yul\":20696:20755   */\n      tag_586\n        /* \"#utility.yul\":20712:20754   */\n      tag_587\n        /* \"#utility.yul\":20721:20753   */\n      tag_588\n        /* \"#utility.yul\":20747:20752   */\n      dup5\n        /* \"#utility.yul\":20721:20753   */\n      tag_329\n      jump\t// in\n    tag_588:\n        /* \"#utility.yul\":20712:20754   */\n      tag_286\n      jump\t// in\n    tag_587:\n        /* \"#utility.yul\":20696:20755   */\n      tag_316\n      jump\t// in\n    tag_586:\n        /* \"#utility.yul\":20683:20755   */\n      swap1\n      pop\n        /* \"#utility.yul\":20607:20761   */\n      swap2\n      swap1\n      pop\n      jump\t// out\n        /* \"#utility.yul\":20767:20910   */\n    tag_331:\n        /* \"#utility.yul\":20860:20903   */\n      tag_590\n        /* \"#utility.yul\":20897:20902   */\n      dup2\n        /* \"#utility.yul\":20860:20903   */\n      tag_330\n      jump\t// in\n    tag_590:\n        /* \"#utility.yul\":20855:20858   */\n      dup3\n        /* \"#utility.yul\":20848:20904   */\n      mstore\n        /* \"#utility.yul\":20767:20910   */\n      pop\n      pop\n      jump\t// out\n        /* \"#utility.yul\":20916:21001   */\n    tag_332:\n        /* \"#utility.yul\":20961:20968   */\n      0x00\n        /* \"#utility.yul\":20990:20995   */\n      dup2\n        /* \"#utility.yul\":20979:20995   */\n      swap1\n      pop\n        /* \"#utility.yul\":20916:21001   */\n      swap2\n      swap1\n      pop\n      jump\t// out\n        /* \"#utility.yul\":21007:21161   */\n    tag_333:\n        /* \"#utility.yul\":21063:21072   */\n      0x00\n        /* \"#utility.yul\":21096:21155   */\n      tag_593\n        /* \"#utility.yul\":21112:21154   */\n      tag_594\n        /* \"#utility.yul\":21121:21153   */\n      tag_595\n        /* \"#utility.yul\":21147:21152   */\n      dup5\n        /* \"#utility.yul\":21121:21153   */\n      tag_332\n      jump\t// in\n    tag_595:\n        /* \"#utility.yul\":21112:21154   */\n      tag_286\n      jump\t// in\n    tag_594:\n        /* \"#utility.yul\":21096:21155   */\n      tag_316\n      jump\t// in\n    tag_593:\n        /* \"#utility.yul\":21083:21155   */\n      swap1\n      pop\n        /* \"#utility.yul\":21007:21161   */\n      swap2\n      swap1\n      pop\n      jump\t// out\n        /* \"#utility.yul\":21167:21310   */\n    tag_334:\n        /* \"#utility.yul\":21260:21303   */\n      tag_597\n        /* \"#utility.yul\":21297:21302   */\n      dup2\n        /* \"#utility.yul\":21260:21303   */\n      tag_333\n      jump\t// in\n    tag_597:\n        /* \"#utility.yul\":21255:21258   */\n      dup3\n        /* \"#utility.yul\":21248:21304   */\n      mstore\n        /* \"#utility.yul\":21167:21310   */\n      pop\n      pop\n      jump\t// out\n        /* \"#utility.yul\":21316:21414   */\n    tag_335:\n        /* \"#utility.yul\":21367:21373   */\n      0x00\n        /* \"#utility.yul\":21401:21406   */\n      dup2\n        /* \"#utility.yul\":21395:21407   */\n      mload\n        /* \"#utility.yul\":21385:21407   */\n      swap1\n      pop\n        /* \"#utility.yul\":21316:21414   */\n      swap2\n      swap1\n      pop\n      jump\t// out\n        /* \"#utility.yul\":21420:21588   */\n    tag_336:\n        /* \"#utility.yul\":21503:21514   */\n      0x00\n        /* \"#utility.yul\":21537:21543   */\n      dup3\n        /* \"#utility.yul\":21532:21535   */\n      dup3\n        /* \"#utility.yul\":21525:21544   */\n      mstore\n        /* \"#utility.yul\":21577:21581   */\n      0x20\n        /* \"#utility.yul\":21572:21575   */\n      dup3\n        /* \"#utility.yul\":21568:21582   */\n      add\n        /* \"#utility.yul\":21553:21582   */\n      swap1\n      pop\n        /* \"#utility.yul\":21420:21588   */\n      swap3\n      swap2\n      pop\n      pop\n      jump\t// out\n        /* \"#utility.yul\":21594:21967   */\n    tag_337:\n        /* \"#utility.yul\":21680:21683   */\n      0x00\n        /* \"#utility.yul\":21708:21746   */\n      tag_601\n        /* \"#utility.yul\":21740:21745   */\n      dup3\n        /* \"#utility.yul\":21708:21746   */\n      tag_335\n      jump\t// in\n    tag_601:\n        /* \"#utility.yul\":21762:21832   */\n      tag_602\n        /* \"#utility.yul\":21825:21831   */\n      dup2\n        /* \"#utility.yul\":21820:21823   */\n      dup6\n        /* \"#utility.yul\":21762:21832   */\n      tag_336\n      jump\t// in\n    tag_602:\n        /* \"#utility.yul\":21755:21832   */\n      swap4\n      pop\n        /* \"#utility.yul\":21841:21906   */\n      tag_603\n        /* \"#utility.yul\":21899:21905   */\n      dup2\n        /* \"#utility.yul\":21894:21897   */\n      dup6\n        /* \"#utility.yul\":21887:21891   */\n      0x20\n        /* \"#utility.yul\":21880:21885   */\n      dup7\n        /* \"#utility.yul\":21876:21892   */\n      add\n        /* \"#utility.yul\":21841:21906   */\n      tag_297\n      jump\t// in\n    tag_603:\n        /* \"#utility.yul\":21931:21960   */\n      tag_604\n        /* \"#utility.yul\":21953:21959   */\n      dup2\n        /* \"#utility.yul\":21931:21960   */\n      tag_298\n      jump\t// in\n    tag_604:\n        /* \"#utility.yul\":21926:21929   */\n      dup5\n        /* \"#utility.yul\":21922:21961   */\n      add\n        /* \"#utility.yul\":21915:21961   */\n      swap2\n      pop\n        /* \"#utility.yul\":21684:21967   */\n      pop\n        /* \"#utility.yul\":21594:21967   */\n      swap3\n      swap2\n      pop\n      pop\n      jump\t// out\n        /* \"#utility.yul\":21973:22060   */\n    tag_338:\n        /* \"#utility.yul\":22020:22027   */\n      0x00\n        /* \"#utility.yul\":22049:22054   */\n      dup2\n        /* \"#utility.yul\":22038:22054   */\n      swap1\n      pop\n        /* \"#utility.yul\":21973:22060   */\n      swap2\n      swap1\n      pop\n      jump\t// out\n        /* \"#utility.yul\":22066:22224   */\n    tag_339:\n        /* \"#utility.yul\":22124:22133   */\n      0x00\n        /* \"#utility.yul\":22157:22218   */\n      tag_607\n        /* \"#utility.yul\":22173:22217   */\n      tag_608\n        /* \"#utility.yul\":22182:22216   */\n      tag_609\n        /* \"#utility.yul\":22210:22215   */\n      dup5\n        /* \"#utility.yul\":22182:22216   */\n      tag_338\n      jump\t// in\n    tag_609:\n        /* \"#utility.yul\":22173:22217   */\n      tag_286\n      jump\t// in\n    tag_608:\n        /* \"#utility.yul\":22157:22218   */\n      tag_316\n      jump\t// in\n    tag_607:\n        /* \"#utility.yul\":22144:22218   */\n      swap1\n      pop\n        /* \"#utility.yul\":22066:22224   */\n      swap2\n      swap1\n      pop\n      jump\t// out\n        /* \"#utility.yul\":22230:22377   */\n    tag_340:\n        /* \"#utility.yul\":22325:22370   */\n      tag_611\n        /* \"#utility.yul\":22364:22369   */\n      dup2\n        /* \"#utility.yul\":22325:22370   */\n      tag_339\n      jump\t// in\n    tag_611:\n        /* \"#utility.yul\":22320:22323   */\n      dup3\n        /* \"#utility.yul\":22313:22371   */\n      mstore\n        /* \"#utility.yul\":22230:22377   */\n      pop\n      pop\n      jump\t// out\n        /* \"#utility.yul\":22383:23261   */\n    tag_218:\n        /* \"#utility.yul\":22644:22648   */\n      0x00\n        /* \"#utility.yul\":22682:22685   */\n      0xa0\n        /* \"#utility.yul\":22671:22680   */\n      dup3\n        /* \"#utility.yul\":22667:22686   */\n      add\n        /* \"#utility.yul\":22659:22686   */\n      swap1\n      pop\n        /* \"#utility.yul\":22696:22773   */\n      tag_613\n        /* \"#utility.yul\":22770:22771   */\n      0x00\n        /* \"#utility.yul\":22759:22768   */\n      dup4\n        /* \"#utility.yul\":22755:22772   */\n      add\n        /* \"#utility.yul\":22746:22752   */\n      dup9\n        /* \"#utility.yul\":22696:22773   */\n      tag_331\n      jump\t// in\n    tag_613:\n        /* \"#utility.yul\":22783:22861   */\n      tag_614\n        /* \"#utility.yul\":22857:22859   */\n      0x20\n        /* \"#utility.yul\":22846:22855   */\n      dup4\n        /* \"#utility.yul\":22842:22860   */\n      add\n        /* \"#utility.yul\":22833:22839   */\n      dup8\n        /* \"#utility.yul\":22783:22861   */\n      tag_334\n      jump\t// in\n    tag_614:\n        /* \"#utility.yul\":22908:22917   */\n      dup2\n        /* \"#utility.yul\":22902:22906   */\n      dup2\n        /* \"#utility.yul\":22898:22918   */\n      sub\n        /* \"#utility.yul\":22893:22895   */\n      0x40\n        /* \"#utility.yul\":22882:22891   */\n      dup4\n        /* \"#utility.yul\":22878:22896   */\n      add\n        /* \"#utility.yul\":22871:22919   */\n      mstore\n        /* \"#utility.yul\":22936:23012   */\n      tag_615\n        /* \"#utility.yul\":23007:23011   */\n      dup2\n        /* \"#utility.yul\":22998:23004   */\n      dup7\n        /* \"#utility.yul\":22936:23012   */\n      tag_337\n      jump\t// in\n    tag_615:\n        /* \"#utility.yul\":22928:23012   */\n      swap1\n      pop\n        /* \"#utility.yul\":23022:23102   */\n      tag_616\n        /* \"#utility.yul\":23098:23100   */\n      0x60\n        /* \"#utility.yul\":23087:23096   */\n      dup4\n        /* \"#utility.yul\":23083:23101   */\n      add\n        /* \"#utility.yul\":23074:23080   */\n      dup6\n        /* \"#utility.yul\":23022:23102   */\n      tag_340\n      jump\t// in\n    tag_616:\n        /* \"#utility.yul\":23150:23159   */\n      dup2\n        /* \"#utility.yul\":23144:23148   */\n      dup2\n        /* \"#utility.yul\":23140:23160   */\n      sub\n        /* \"#utility.yul\":23134:23137   */\n      0x80\n        /* \"#utility.yul\":23123:23132   */\n      dup4\n        /* \"#utility.yul\":23119:23138   */\n      add\n        /* \"#utility.yul\":23112:23161   */\n      mstore\n        /* \"#utility.yul\":23178:23254   */\n      tag_617\n        /* \"#utility.yul\":23249:23253   */\n      dup2\n        /* \"#utility.yul\":23240:23246   */\n      dup5\n        /* \"#utility.yul\":23178:23254   */\n      tag_337\n      jump\t// in\n    tag_617:\n        /* \"#utility.yul\":23170:23254   */\n      swap1\n      pop\n        /* \"#utility.yul\":22383:23261   */\n      swap7\n      swap6\n      pop\n      pop\n      pop\n      pop\n      pop\n      pop\n      jump\t// out\n        /* \"#utility.yul\":23267:23352   */\n    tag_341:\n        /* \"#utility.yul\":23312:23319   */\n      0x00\n        /* \"#utility.yul\":23341:23346   */\n      dup2\n        /* \"#utility.yul\":23330:23346   */\n      swap1\n      pop\n        /* \"#utility.yul\":23267:23352   */\n      swap2\n      swap1\n      pop\n      jump\t// out\n        /* \"#utility.yul\":23358:23514   */\n    tag_342:\n        /* \"#utility.yul\":23415:23424   */\n      0x00\n        /* \"#utility.yul\":23448:23508   */\n      tag_620\n        /* \"#utility.yul\":23465:23507   */\n      tag_621\n        /* \"#utility.yul\":23474:23506   */\n      tag_622\n        /* \"#utility.yul\":23500:23505   */\n      dup5\n        /* \"#utility.yul\":23474:23506   */\n      tag_341\n      jump\t// in\n    tag_622:\n        /* \"#utility.yul\":23465:23507   */\n      tag_286\n      jump\t// in\n    tag_621:\n        /* \"#utility.yul\":23448:23508   */\n      tag_320\n      jump\t// in\n    tag_620:\n        /* \"#utility.yul\":23435:23508   */\n      swap1\n      pop\n        /* \"#utility.yul\":23358:23514   */\n      swap2\n      swap1\n      pop\n      jump\t// out\n        /* \"#utility.yul\":23520:23665   */\n    tag_343:\n        /* \"#utility.yul\":23614:23658   */\n      tag_624\n        /* \"#utility.yul\":23652:23657   */\n      dup2\n        /* \"#utility.yul\":23614:23658   */\n      tag_342\n      jump\t// in\n    tag_624:\n        /* \"#utility.yul\":23609:23612   */\n      dup3\n        /* \"#utility.yul\":23602:23659   */\n      mstore\n        /* \"#utility.yul\":23520:23665   */\n      pop\n      pop\n      jump\t// out\n        /* \"#utility.yul\":23671:24104   */\n    tag_220:\n        /* \"#utility.yul\":23817:23821   */\n      0x00\n        /* \"#utility.yul\":23855:23857   */\n      0x40\n        /* \"#utility.yul\":23844:23853   */\n      dup3\n        /* \"#utility.yul\":23840:23858   */\n      add\n        /* \"#utility.yul\":23832:23858   */\n      swap1\n      pop\n        /* \"#utility.yul\":23868:23946   */\n      tag_626\n        /* \"#utility.yul\":23943:23944   */\n      0x00\n        /* \"#utility.yul\":23932:23941   */\n      dup4\n        /* \"#utility.yul\":23928:23945   */\n      add\n        /* \"#utility.yul\":23919:23925   */\n      dup6\n        /* \"#utility.yul\":23868:23946   */\n      tag_343\n      jump\t// in\n    tag_626:\n        /* \"#utility.yul\":23993:24002   */\n      dup2\n        /* \"#utility.yul\":23987:23991   */\n      dup2\n        /* \"#utility.yul\":23983:24003   */\n      sub\n        /* \"#utility.yul\":23978:23980   */\n      0x20\n        /* \"#utility.yul\":23967:23976   */\n      dup4\n        /* \"#utility.yul\":23963:23981   */\n      add\n        /* \"#utility.yul\":23956:24004   */\n      mstore\n        /* \"#utility.yul\":24021:24097   */\n      tag_627\n        /* \"#utility.yul\":24092:24096   */\n      dup2\n        /* \"#utility.yul\":24083:24089   */\n      dup5\n        /* \"#utility.yul\":24021:24097   */\n      tag_337\n      jump\t// in\n    tag_627:\n        /* \"#utility.yul\":24013:24097   */\n      swap1\n      pop\n        /* \"#utility.yul\":23671:24104   */\n      swap4\n      swap3\n      pop\n      pop\n      pop\n      jump\t// out\n        /* \"#utility.yul\":24110:24227   */\n    tag_344:\n        /* \"#utility.yul\":24219:24220   */\n      0x00\n        /* \"#utility.yul\":24216:24217   */\n      dup1\n        /* \"#utility.yul\":24209:24221   */\n      revert\n        /* \"#utility.yul\":24233:24350   */\n    tag_345:\n        /* \"#utility.yul\":24342:24343   */\n      0x00\n        /* \"#utility.yul\":24339:24340   */\n      dup1\n        /* \"#utility.yul\":24332:24344   */\n      revert\n        /* \"#utility.yul\":24356:24536   */\n    tag_346:\n        /* \"#utility.yul\":24404:24481   */\n      0x4e487b7100000000000000000000000000000000000000000000000000000000\n        /* \"#utility.yul\":24401:24402   */\n      0x00\n        /* \"#utility.yul\":24394:24482   */\n      mstore\n        /* \"#utility.yul\":24501:24505   */\n      0x41\n        /* \"#utility.yul\":24498:24499   */\n      0x04\n        /* \"#utility.yul\":24491:24506   */\n      mstore\n        /* \"#utility.yul\":24525:24529   */\n      0x24\n        /* \"#utility.yul\":24522:24523   */\n      0x00\n        /* \"#utility.yul\":24515:24530   */\n      revert\n        /* \"#utility.yul\":24542:24823   */\n    tag_347:\n        /* \"#utility.yul\":24625:24652   */\n      tag_632\n        /* \"#utility.yul\":24647:24651   */\n      dup3\n        /* \"#utility.yul\":24625:24652   */\n      tag_298\n      jump\t// in\n    tag_632:\n        /* \"#utility.yul\":24617:24623   */\n      dup2\n        /* \"#utility.yul\":24613:24653   */\n      add\n        /* \"#utility.yul\":24755:24761   */\n      dup2\n        /* \"#utility.yul\":24743:24753   */\n      dup2\n        /* \"#utility.yul\":24740:24762   */\n      lt\n        /* \"#utility.yul\":24719:24737   */\n      0xffffffffffffffff\n        /* \"#utility.yul\":24707:24717   */\n      dup3\n        /* \"#utility.yul\":24704:24738   */\n      gt\n        /* \"#utility.yul\":24701:24763   */\n      or\n        /* \"#utility.yul\":24698:24786   */\n      iszero\n      tag_633\n      jumpi\n        /* \"#utility.yul\":24766:24784   */\n      tag_634\n      tag_346\n      jump\t// in\n    tag_634:\n        /* \"#utility.yul\":24698:24786   */\n    tag_633:\n        /* \"#utility.yul\":24806:24816   */\n      dup1\n        /* \"#utility.yul\":24802:24804   */\n      0x40\n        /* \"#utility.yul\":24795:24817   */\n      mstore\n        /* \"#utility.yul\":24585:24823   */\n      pop\n        /* \"#utility.yul\":24542:24823   */\n      pop\n      pop\n      jump\t// out\n        /* \"#utility.yul\":24829:24958   */\n    tag_348:\n        /* \"#utility.yul\":24863:24869   */\n      0x00\n        /* \"#utility.yul\":24890:24910   */\n      tag_636\n      tag_264\n      jump\t// in\n    tag_636:\n        /* \"#utility.yul\":24880:24910   */\n      swap1\n      pop\n        /* \"#utility.yul\":24919:24952   */\n      tag_637\n        /* \"#utility.yul\":24947:24951   */\n      dup3\n        /* \"#utility.yul\":24939:24945   */\n      dup3\n        /* \"#utility.yul\":24919:24952   */\n      tag_347\n      jump\t// in\n    tag_637:\n        /* \"#utility.yul\":24829:24958   */\n      swap2\n      swap1\n      pop\n      jump\t// out\n        /* \"#utility.yul\":24964:25271   */\n    tag_349:\n        /* \"#utility.yul\":25025:25029   */\n      0x00\n        /* \"#utility.yul\":25115:25133   */\n      0xffffffffffffffff\n        /* \"#utility.yul\":25107:25113   */\n      dup3\n        /* \"#utility.yul\":25104:25134   */\n      gt\n        /* \"#utility.yul\":25101:25157   */\n      iszero\n      tag_639\n      jumpi\n        /* \"#utility.yul\":25137:25155   */\n      tag_640\n      tag_346\n      jump\t// in\n    tag_640:\n        /* \"#utility.yul\":25101:25157   */\n    tag_639:\n        /* \"#utility.yul\":25175:25204   */\n      tag_641\n        /* \"#utility.yul\":25197:25203   */\n      dup3\n        /* \"#utility.yul\":25175:25204   */\n      tag_298\n      jump\t// in\n    tag_641:\n        /* \"#utility.yul\":25167:25204   */\n      swap1\n      pop\n        /* \"#utility.yul\":25259:25263   */\n      0x20\n        /* \"#utility.yul\":25253:25257   */\n      dup2\n        /* \"#utility.yul\":25249:25264   */\n      add\n        /* \"#utility.yul\":25241:25264   */\n      swap1\n      pop\n        /* \"#utility.yul\":24964:25271   */\n      swap2\n      swap1\n      pop\n      jump\t// out\n        /* \"#utility.yul\":25277:25709   */\n    tag_350:\n        /* \"#utility.yul\":25365:25370   */\n      0x00\n        /* \"#utility.yul\":25390:25455   */\n      tag_643\n        /* \"#utility.yul\":25406:25454   */\n      tag_644\n        /* \"#utility.yul\":25447:25453   */\n      dup5\n        /* \"#utility.yul\":25406:25454   */\n      tag_349\n      jump\t// in\n    tag_644:\n        /* \"#utility.yul\":25390:25455   */\n      tag_348\n      jump\t// in\n    tag_643:\n        /* \"#utility.yul\":25381:25455   */\n      swap1\n      pop\n        /* \"#utility.yul\":25478:25484   */\n      dup3\n        /* \"#utility.yul\":25471:25476   */\n      dup2\n        /* \"#utility.yul\":25464:25485   */\n      mstore\n        /* \"#utility.yul\":25516:25520   */\n      0x20\n        /* \"#utility.yul\":25509:25514   */\n      dup2\n        /* \"#utility.yul\":25505:25521   */\n      add\n        /* \"#utility.yul\":25554:25557   */\n      dup5\n        /* \"#utility.yul\":25545:25551   */\n      dup5\n        /* \"#utility.yul\":25540:25543   */\n      dup5\n        /* \"#utility.yul\":25536:25552   */\n      add\n        /* \"#utility.yul\":25533:25558   */\n      gt\n        /* \"#utility.yul\":25530:25642   */\n      iszero\n      tag_645\n      jumpi\n        /* \"#utility.yul\":25561:25640   */\n      tag_646\n      tag_345\n      jump\t// in\n    tag_646:\n        /* \"#utility.yul\":25530:25642   */\n    tag_645:\n        /* \"#utility.yul\":25651:25703   */\n      tag_647\n        /* \"#utility.yul\":25696:25702   */\n      dup5\n        /* \"#utility.yul\":25691:25694   */\n      dup3\n        /* \"#utility.yul\":25686:25689   */\n      dup6\n        /* \"#utility.yul\":25651:25703   */\n      tag_297\n      jump\t// in\n    tag_647:\n        /* \"#utility.yul\":25371:25709   */\n      pop\n        /* \"#utility.yul\":25277:25709   */\n      swap4\n      swap3\n      pop\n      pop\n      pop\n      jump\t// out\n        /* \"#utility.yul\":25728:26081   */\n    tag_351:\n        /* \"#utility.yul\":25794:25799   */\n      0x00\n        /* \"#utility.yul\":25843:25846   */\n      dup3\n        /* \"#utility.yul\":25836:25840   */\n      0x1f\n        /* \"#utility.yul\":25828:25834   */\n      dup4\n        /* \"#utility.yul\":25824:25841   */\n      add\n        /* \"#utility.yul\":25820:25847   */\n      slt\n        /* \"#utility.yul\":25810:25932   */\n      tag_649\n      jumpi\n        /* \"#utility.yul\":25851:25930   */\n      tag_650\n      tag_344\n      jump\t// in\n    tag_650:\n        /* \"#utility.yul\":25810:25932   */\n    tag_649:\n        /* \"#utility.yul\":25961:25967   */\n      dup2\n        /* \"#utility.yul\":25955:25968   */\n      mload\n        /* \"#utility.yul\":25986:26075   */\n      tag_651\n        /* \"#utility.yul\":26071:26074   */\n      dup5\n        /* \"#utility.yul\":26063:26069   */\n      dup3\n        /* \"#utility.yul\":26056:26060   */\n      0x20\n        /* \"#utility.yul\":26048:26054   */\n      dup7\n        /* \"#utility.yul\":26044:26061   */\n      add\n        /* \"#utility.yul\":25986:26075   */\n      tag_350\n      jump\t// in\n    tag_651:\n        /* \"#utility.yul\":25977:26075   */\n      swap2\n      pop\n        /* \"#utility.yul\":25800:26081   */\n      pop\n        /* \"#utility.yul\":25728:26081   */\n      swap3\n      swap2\n      pop\n      pop\n      jump\t// out\n        /* \"#utility.yul\":26087:26609   */\n    tag_224:\n        /* \"#utility.yul\":26166:26172   */\n      0x00\n        /* \"#utility.yul\":26215:26217   */\n      0x20\n        /* \"#utility.yul\":26203:26212   */\n      dup3\n        /* \"#utility.yul\":26194:26201   */\n      dup5\n        /* \"#utility.yul\":26190:26213   */\n      sub\n        /* \"#utility.yul\":26186:26218   */\n      slt\n        /* \"#utility.yul\":26183:26302   */\n      iszero\n      tag_653\n      jumpi\n        /* \"#utility.yul\":26221:26300   */\n      tag_654\n      tag_265\n      jump\t// in\n    tag_654:\n        /* \"#utility.yul\":26183:26302   */\n    tag_653:\n        /* \"#utility.yul\":26362:26363   */\n      0x00\n        /* \"#utility.yul\":26351:26360   */\n      dup3\n        /* \"#utility.yul\":26347:26364   */\n      add\n        /* \"#utility.yul\":26341:26365   */\n      mload\n        /* \"#utility.yul\":26392:26410   */\n      0xffffffffffffffff\n        /* \"#utility.yul\":26384:26390   */\n      dup2\n        /* \"#utility.yul\":26381:26411   */\n      gt\n        /* \"#utility.yul\":26378:26495   */\n      iszero\n      tag_655\n      jumpi\n        /* \"#utility.yul\":26414:26493   */\n      tag_656\n      tag_266\n      jump\t// in\n    tag_656:\n        /* \"#utility.yul\":26378:26495   */\n    tag_655:\n        /* \"#utility.yul\":26519:26592   */\n      tag_657\n        /* \"#utility.yul\":26584:26591   */\n      dup5\n        /* \"#utility.yul\":26575:26581   */\n      dup3\n        /* \"#utility.yul\":26564:26573   */\n      dup6\n        /* \"#utility.yul\":26560:26582   */\n      add\n        /* \"#utility.yul\":26519:26592   */\n      tag_351\n      jump\t// in\n    tag_657:\n        /* \"#utility.yul\":26509:26592   */\n      swap2\n      pop\n        /* \"#utility.yul\":26312:26602   */\n      pop\n        /* \"#utility.yul\":26087:26609   */\n      swap3\n      swap2\n      pop\n      pop\n      jump\t// out\n        /* \"#utility.yul\":26615:27057   */\n    tag_227:\n        /* \"#utility.yul\":26764:26768   */\n      0x00\n        /* \"#utility.yul\":26802:26804   */\n      0x60\n        /* \"#utility.yul\":26791:26800   */\n      dup3\n        /* \"#utility.yul\":26787:26805   */\n      add\n        /* \"#utility.yul\":26779:26805   */\n      swap1\n      pop\n        /* \"#utility.yul\":26815:26886   */\n      tag_659\n        /* \"#utility.yul\":26883:26884   */\n      0x00\n        /* \"#utility.yul\":26872:26881   */\n      dup4\n        /* \"#utility.yul\":26868:26885   */\n      add\n        /* \"#utility.yul\":26859:26865   */\n      dup7\n        /* \"#utility.yul\":26815:26886   */\n      tag_291\n      jump\t// in\n    tag_659:\n        /* \"#utility.yul\":26896:26968   */\n      tag_660\n        /* \"#utility.yul\":26964:26966   */\n      0x20\n        /* \"#utility.yul\":26953:26962   */\n      dup4\n        /* \"#utility.yul\":26949:26967   */\n      add\n        /* \"#utility.yul\":26940:26946   */\n      dup6\n        /* \"#utility.yul\":26896:26968   */\n      tag_291\n      jump\t// in\n    tag_660:\n        /* \"#utility.yul\":26978:27050   */\n      tag_661\n        /* \"#utility.yul\":27046:27048   */\n      0x40\n        /* \"#utility.yul\":27035:27044   */\n      dup4\n        /* \"#utility.yul\":27031:27049   */\n      add\n        /* \"#utility.yul\":27022:27028   */\n      dup5\n        /* \"#utility.yul\":26978:27050   */\n      tag_291\n      jump\t// in\n    tag_661:\n        /* \"#utility.yul\":26615:27057   */\n      swap5\n      swap4\n      pop\n      pop\n      pop\n      pop\n      jump\t// out\n        /* \"#utility.yul\":27063:27210   */\n    tag_352:\n        /* \"#utility.yul\":27164:27175   */\n      0x00\n        /* \"#utility.yul\":27201:27204   */\n      dup2\n        /* \"#utility.yul\":27186:27204   */\n      swap1\n      pop\n        /* \"#utility.yul\":27063:27210   */\n      swap3\n      swap2\n      pop\n      pop\n      jump\t// out\n        /* \"#utility.yul\":27216:27330   */\n    tag_353:\n      pop\n      jump\t// out\n        /* \"#utility.yul\":27336:27734   */\n    tag_354:\n        /* \"#utility.yul\":27495:27498   */\n      0x00\n        /* \"#utility.yul\":27516:27599   */\n      tag_665\n        /* \"#utility.yul\":27597:27598   */\n      0x00\n        /* \"#utility.yul\":27592:27595   */\n      dup4\n        /* \"#utility.yul\":27516:27599   */\n      tag_352\n      jump\t// in\n    tag_665:\n        /* \"#utility.yul\":27509:27599   */\n      swap2\n      pop\n        /* \"#utility.yul\":27608:27701   */\n      tag_666\n        /* \"#utility.yul\":27697:27700   */\n      dup3\n        /* \"#utility.yul\":27608:27701   */\n      tag_353\n      jump\t// in\n    tag_666:\n        /* \"#utility.yul\":27726:27727   */\n      0x00\n        /* \"#utility.yul\":27721:27724   */\n      dup3\n        /* \"#utility.yul\":27717:27728   */\n      add\n        /* \"#utility.yul\":27710:27728   */\n      swap1\n      pop\n        /* \"#utility.yul\":27336:27734   */\n      swap2\n      swap1\n      pop\n      jump\t// out\n        /* \"#utility.yul\":27740:28119   */\n    tag_230:\n        /* \"#utility.yul\":27924:27927   */\n      0x00\n        /* \"#utility.yul\":27946:28093   */\n      tag_668\n        /* \"#utility.yul\":28089:28092   */\n      dup3\n        /* \"#utility.yul\":27946:28093   */\n      tag_354\n      jump\t// in\n    tag_668:\n        /* \"#utility.yul\":27939:28093   */\n      swap2\n      pop\n        /* \"#utility.yul\":28110:28113   */\n      dup2\n        /* \"#utility.yul\":28103:28113   */\n      swap1\n      pop\n        /* \"#utility.yul\":27740:28119   */\n      swap2\n      swap1\n      pop\n      jump\t// out\n        /* \"#utility.yul\":28125:28290   */\n    tag_355:\n        /* \"#utility.yul\":28265:28282   */\n      0x5472616e73666572206661696c65640000000000000000000000000000000000\n        /* \"#utility.yul\":28261:28262   */\n      0x00\n        /* \"#utility.yul\":28253:28259   */\n      dup3\n        /* \"#utility.yul\":28249:28263   */\n      add\n        /* \"#utility.yul\":28242:28283   */\n      mstore\n        /* \"#utility.yul\":28125:28290   */\n      pop\n      jump\t// out\n        /* \"#utility.yul\":28296:28662   */\n    tag_356:\n        /* \"#utility.yul\":28438:28441   */\n      0x00\n        /* \"#utility.yul\":28459:28526   */\n      tag_671\n        /* \"#utility.yul\":28523:28525   */\n      0x0f\n        /* \"#utility.yul\":28518:28521   */\n      dup4\n        /* \"#utility.yul\":28459:28526   */\n      tag_296\n      jump\t// in\n    tag_671:\n        /* \"#utility.yul\":28452:28526   */\n      swap2\n      pop\n        /* \"#utility.yul\":28535:28628   */\n      tag_672\n        /* \"#utility.yul\":28624:28627   */\n      dup3\n        /* \"#utility.yul\":28535:28628   */\n      tag_355\n      jump\t// in\n    tag_672:\n        /* \"#utility.yul\":28653:28655   */\n      0x20\n        /* \"#utility.yul\":28648:28651   */\n      dup3\n        /* \"#utility.yul\":28644:28656   */\n      add\n        /* \"#utility.yul\":28637:28656   */\n      swap1\n      pop\n        /* \"#utility.yul\":28296:28662   */\n      swap2\n      swap1\n      pop\n      jump\t// out\n        /* \"#utility.yul\":28668:29087   */\n    tag_236:\n        /* \"#utility.yul\":28834:28838   */\n      0x00\n        /* \"#utility.yul\":28872:28874   */\n      0x20\n        /* \"#utility.yul\":28861:28870   */\n      dup3\n        /* \"#utility.yul\":28857:28875   */\n      add\n        /* \"#utility.yul\":28849:28875   */\n      swap1\n      pop\n        /* \"#utility.yul\":28921:28930   */\n      dup2\n        /* \"#utility.yul\":28915:28919   */\n      dup2\n        /* \"#utility.yul\":28911:28931   */\n      sub\n        /* \"#utility.yul\":28907:28908   */\n      0x00\n        /* \"#utility.yul\":28896:28905   */\n      dup4\n        /* \"#utility.yul\":28892:28909   */\n      add\n        /* \"#utility.yul\":28885:28932   */\n      mstore\n        /* \"#utility.yul\":28949:29080   */\n      tag_674\n        /* \"#utility.yul\":29075:29079   */\n      dup2\n        /* \"#utility.yul\":28949:29080   */\n      tag_356\n      jump\t// in\n    tag_674:\n        /* \"#utility.yul\":28941:29080   */\n      swap1\n      pop\n        /* \"#utility.yul\":28668:29087   */\n      swap2\n      swap1\n      pop\n      jump\t// out\n        /* \"#utility.yul\":29093:29273   */\n    tag_357:\n        /* \"#utility.yul\":29141:29218   */\n      0x4e487b7100000000000000000000000000000000000000000000000000000000\n        /* \"#utility.yul\":29138:29139   */\n      0x00\n        /* \"#utility.yul\":29131:29219   */\n      mstore\n        /* \"#utility.yul\":29238:29242   */\n      0x22\n        /* \"#utility.yul\":29235:29236   */\n      0x04\n        /* \"#utility.yul\":29228:29243   */\n      mstore\n        /* \"#utility.yul\":29262:29266   */\n      0x24\n        /* \"#utility.yul\":29259:29260   */\n      0x00\n        /* \"#utility.yul\":29252:29267   */\n      revert\n        /* \"#utility.yul\":29279:29599   */\n    tag_247:\n        /* \"#utility.yul\":29323:29329   */\n      0x00\n        /* \"#utility.yul\":29360:29361   */\n      0x02\n        /* \"#utility.yul\":29354:29358   */\n      dup3\n        /* \"#utility.yul\":29350:29362   */\n      div\n        /* \"#utility.yul\":29340:29362   */\n      swap1\n      pop\n        /* \"#utility.yul\":29407:29408   */\n      0x01\n        /* \"#utility.yul\":29401:29405   */\n      dup3\n        /* \"#utility.yul\":29397:29409   */\n      and\n        /* \"#utility.yul\":29428:29446   */\n      dup1\n        /* \"#utility.yul\":29418:29499   */\n      tag_677\n      jumpi\n        /* \"#utility.yul\":29484:29488   */\n      0x7f\n        /* \"#utility.yul\":29476:29482   */\n      dup3\n        /* \"#utility.yul\":29472:29489   */\n      and\n        /* \"#utility.yul\":29462:29489   */\n      swap2\n      pop\n        /* \"#utility.yul\":29418:29499   */\n    tag_677:\n        /* \"#utility.yul\":29546:29548   */\n      0x20\n        /* \"#utility.yul\":29538:29544   */\n      dup3\n        /* \"#utility.yul\":29535:29549   */\n      lt\n        /* \"#utility.yul\":29515:29533   */\n      dup2\n        /* \"#utility.yul\":29512:29550   */\n      sub\n        /* \"#utility.yul\":29509:29593   */\n      tag_678\n      jumpi\n        /* \"#utility.yul\":29565:29583   */\n      tag_679\n      tag_357\n      jump\t// in\n    tag_679:\n        /* \"#utility.yul\":29509:29593   */\n    tag_678:\n        /* \"#utility.yul\":29330:29599   */\n      pop\n        /* \"#utility.yul\":29279:29599   */\n      swap2\n      swap1\n      pop\n      jump\t// out\n\n    auxdata: 0xa2646970667358221220d096d7c2db4eeca0ed08f02bd9e67d95d546c0afd4b967ffab9e2c41ef160ecc64736f6c63430008130033\n}\n",
				"bytecode": {
					"linkReferences": {},
					"object": "60806040527307c0bad65cf9e2063c56382e6c5872d49eb4099a600460006101000a81548173ffffffffffffffffffffffffffffffffffffffff021916908373ffffffffffffffffffffffffffffffffffffffff1602179055506040518060400160405280600581526020017f302e312e31000000000000000000000000000000000000000000000000000000815250600690816200009f9190620006b6565b5073ab827b1cc3535a9e549ee387a6e9c3f02f481b49600760006101000a81548173ffffffffffffffffffffffffffffffffffffffff021916908373ffffffffffffffffffffffffffffffffffffffff160217905550737507c1dc16935b82698e4c63f2746a2fcf994df8600860006101000a81548173ffffffffffffffffffffffffffffffffffffffff021916908373ffffffffffffffffffffffffffffffffffffffff16021790555073ab827b1cc3535a9e549ee387a6e9c3f02f481b49600960006101000a81548173ffffffffffffffffffffffffffffffffffffffff021916908373ffffffffffffffffffffffffffffffffffffffff160217905550348015620001ac57600080fd5b5060405162002d3738038062002d378339818101604052810190620001d2919062000807565b33600073ffffffffffffffffffffffffffffffffffffffff168173ffffffffffffffffffffffffffffffffffffffff1603620002485760006040517f1e4fbdf70000000000000000000000000000000000000000000000000000000081526004016200023f91906200085f565b60405180910390fd5b62000259816200037860201b60201c565b506001600260003373ffffffffffffffffffffffffffffffffffffffff1673ffffffffffffffffffffffffffffffffffffffff16815260200190815260200160002060006101000a81548160ff02191690831515021790555081600160006101000a81548173ffffffffffffffffffffffffffffffffffffffff021916908373ffffffffffffffffffffffffffffffffffffffff16021790555080600360006101000a81548173ffffffffffffffffffffffffffffffffffffffff021916908373ffffffffffffffffffffffffffffffffffffffff16021790555060037f7b78ee99b011dff919ff5bd97f8a1b33b444782eb490dd7cd487fc963d63676f60066040516200036891906200091d565b60405180910390a2505062000941565b60008060009054906101000a900473ffffffffffffffffffffffffffffffffffffffff169050816000806101000a81548173ffffffffffffffffffffffffffffffffffffffff021916908373ffffffffffffffffffffffffffffffffffffffff1602179055508173ffffffffffffffffffffffffffffffffffffffff168173ffffffffffffffffffffffffffffffffffffffff167f8be0079c531659141344cd1fd0a4f28419497f9722a3daafe3b4186f6b6457e060405160405180910390a35050565b600081519050919050565b7f4e487b7100000000000000000000000000000000000000000000000000000000600052604160045260246000fd5b7f4e487b7100000000000000000000000000000000000000000000000000000000600052602260045260246000fd5b60006002820490506001821680620004be57607f821691505b602082108103620004d457620004d362000476565b5b50919050565b60008190508160005260206000209050919050565b60006020601f8301049050919050565b600082821b905092915050565b6000600883026200053e7fffffffffffffffffffffffffffffffffffffffffffffffffffffffffffffffff82620004ff565b6200054a8683620004ff565b95508019841693508086168417925050509392505050565b6000819050919050565b6000819050919050565b600062000597620005916200058b8462000562565b6200056c565b62000562565b9050919050565b6000819050919050565b620005b38362000576565b620005cb620005c2826200059e565b8484546200050c565b825550505050565b600090565b620005e2620005d3565b620005ef818484620005a8565b505050565b5b8181101562000617576200060b600082620005d8565b600181019050620005f5565b5050565b601f82111562000666576200063081620004da565b6200063b84620004ef565b810160208510156200064b578190505b620006636200065a85620004ef565b830182620005f4565b50505b505050565b600082821c905092915050565b60006200068b600019846008026200066b565b1980831691505092915050565b6000620006a6838362000678565b9150826002028217905092915050565b620006c1826200043c565b67ffffffffffffffff811115620006dd57620006dc62000447565b5b620006e98254620004a5565b620006f68282856200061b565b600060209050601f8311600181146200072e576000841562000719578287015190505b62000725858262000698565b86555062000795565b601f1984166200073e86620004da565b60005b82811015620007685784890151825560018201915060208501945060208101905062000741565b8683101562000788578489015162000784601f89168262000678565b8355505b6001600288020188555050505b505050505050565b600080fd5b600073ffffffffffffffffffffffffffffffffffffffff82169050919050565b6000620007cf82620007a2565b9050919050565b620007e181620007c2565b8114620007ed57600080fd5b50565b6000815190506200080181620007d6565b92915050565b600080604083850312156200082157620008206200079d565b5b60006200083185828601620007f0565b92505060206200084485828601620007f0565b9150509250929050565b6200085981620007c2565b82525050565b60006020820190506200087660008301846200084e565b92915050565b600082825260208201905092915050565b600081546200089c81620004a5565b620008a881866200087c565b94506001821660008114620008c65760018114620008dd5762000914565b60ff19831686528115156020028601935062000914565b620008e885620004da565b60005b838110156200090c57815481890152600182019150602081019050620008eb565b808801955050505b50505092915050565b600060208201905081810360008301526200093981846200088d565b905092915050565b6123e680620009516000396000f3fe60806040526004361061016a5760003560e01c80637abdef14116100d1578063aa8c217c1161008a578063ce90442111610064578063ce904421146104fa578063d959fb2e14610504578063f2fde38b1461052d578063f8b1cb3c1461055657610171565b8063aa8c217c14610473578063c45a01551461049e578063c52ab778146104c957610171565b80637abdef14146103635780638cd40c9d1461038c5780638da5cb5b146103b557806396ed28f9146103e0578063a035b1fe1461041d578063a7c6402c1461044857610171565b80634b0bddd2116101235780634b0bddd21461026757806364c9ec6f14610290578063715018a6146102bb57806372bc5583146102d25780637490e284146102fb5780637900a7ff1461033857610171565b8063099a04e51461017657806321df0da71461019f57806324d7806c146101ca57806331f41a33146102075780633935ebf9146102325780633ccfd60b1461025d57610171565b3661017157005b600080fd5b34801561018257600080fd5b5061019d60048036038101906101989190611584565b610581565b005b3480156101ab57600080fd5b506101b4610597565b6040516101c19190611682565b60405180910390f35b3480156101d657600080fd5b506101f160048036038101906101ec91906116a4565b610625565b6040516101fe91906116ec565b60405180910390f35b34801561021357600080fd5b5061021c610645565b6040516102299190611716565b60405180910390f35b34801561023e57600080fd5b5061024761066b565b6040516102549190611716565b60405180910390f35b610265610691565b005b34801561027357600080fd5b5061028e6004803603810190610289919061175d565b6106da565b005b34801561029c57600080fd5b506102a56107a1565b6040516102b29190611716565b60405180910390f35b3480156102c757600080fd5b506102d06107c7565b005b3480156102de57600080fd5b506102f960048036038101906102f491906116a4565b6107db565b005b34801561030757600080fd5b50610322600480360381019061031d919061179d565b610827565b60405161032f9190611716565b60405180910390f35b34801561034457600080fd5b5061034d610866565b60405161035a9190611829565b60405180910390f35b34801561036f57600080fd5b5061038a600480360381019061038591906116a4565b61088c565b005b34801561039857600080fd5b506103b360048036038101906103ae9190611584565b6108d8565b005b3480156103c157600080fd5b506103ca61095b565b6040516103d79190611716565b60405180910390f35b3480156103ec57600080fd5b5061040760048036038101906104029190611844565b610984565b6040516104149190611716565b60405180910390f35b34801561042957600080fd5b50610432610a09565b60405161043f9190611893565b60405180910390f35b34801561045457600080fd5b5061045d610a0f565b60405161046a91906118e1565b60405180910390f35b34801561047f57600080fd5b50610488610a35565b6040516104959190611893565b60405180910390f35b3480156104aa57600080fd5b506104b3610a3b565b6040516104c09190611716565b60405180910390f35b6104e360048036038101906104de91906118fc565b610a61565b6040516104f192919061194f565b60405180910390f35b6105026110da565b005b34801561051057600080fd5b5061052b600480360381019061052691906116a4565b6111ab565b005b34801561053957600080fd5b50610554600480360381019061054f91906116a4565b6111f7565b005b34801561056257600080fd5b5061056b61127d565b6040516105789190611a08565b60405180910390f35b61058961130b565b61059382826113f0565b5050565b6060600580548060200260200160405190810160405280929190818152602001828054801561061b57602002820191906000526020600020905b8160009054906101000a900473ffffffffffffffffffffffffffffffffffffffff1673ffffffffffffffffffffffffffffffffffffffff16815260200190600101908083116105d1575b5050505050905090565b60026020528060005260406000206000915054906101000a900460ff1681565b600860009054906101000a900473ffffffffffffffffffffffffffffffffffffffff1681565b600460009054906101000a900473ffffffffffffffffffffffffffffffffffffffff1681565b3373ffffffffffffffffffffffffffffffffffffffff166108fc479081150290604051600060405180830381858888f193505050501580156106d7573d6000803e3d6000fd5b50565b6106e261095b565b73ffffffffffffffffffffffffffffffffffffffff163373ffffffffffffffffffffffffffffffffffffffff1614610746576040517fad9cd75900000000000000000000000000000000000000000000000000000000815260040160405180910390fd5b80600260008473ffffffffffffffffffffffffffffffffffffffff1673ffffffffffffffffffffffffffffffffffffffff16815260200190815260200160002060006101000a81548160ff0219169083151502179055505050565b600160009054906101000a900473ffffffffffffffffffffffffffffffffffffffff1681565b6107cf61130b565b6107d96000611410565b565b6107e361130b565b80600460006101000a81548173ffffffffffffffffffffffffffffffffffffffff021916908373ffffffffffffffffffffffffffffffffffffffff16021790555050565b6005818154811061083757600080fd5b906000526020600020016000915054906101000a900473ffffffffffffffffffffffffffffffffffffffff1681565b600760009054906101000a900473ffffffffffffffffffffffffffffffffffffffff1681565b61089461130b565b80600360006101000a81548173ffffffffffffffffffffffffffffffffffffffff021916908373ffffffffffffffffffffffffffffffffffffffff16021790555050565b8173ffffffffffffffffffffffffffffffffffffffff1663a9059cbb33836040518363ffffffff1660e01b8152600401610913929190611a2a565b6020604051808303816000875af1158015610932573d6000803e3d6000fd5b505050506040513d601f19601f820116820180604052508101906109569190611a68565b505050565b60008060009054906101000a900473ffffffffffffffffffffffffffffffffffffffff16905090565b600080838360405160200161099a929190611add565b604051602081830303815290604052805190602001209050600960009054906101000a900473ffffffffffffffffffffffffffffffffffffffff16816040516020016109e7929190611bd7565b6040516020818303038152906040528051906020012060001c91505092915050565b600a5481565b600360009054906101000a900473ffffffffffffffffffffffffffffffffffffffff1681565b600b5481565b600960009054906101000a900473ffffffffffffffffffffffffffffffffffffffff1681565b600080600160009054906101000a900473ffffffffffffffffffffffffffffffffffffffff1673ffffffffffffffffffffffffffffffffffffffff163373ffffffffffffffffffffffffffffffffffffffff1614610aeb576040517f0bb766ef00000000000000000000000000000000000000000000000000000000815260040160405180910390fd5b610af36110da565b60008403610b2d576040517f51ba5f2d00000000000000000000000000000000000000000000000000000000815260040160405180910390fd5b60008303610b67576040517fbc2d457700000000000000000000000000000000000000000000000000000000815260040160405180910390fd5b8473ffffffffffffffffffffffffffffffffffffffff166323b872dd3330876040518463ffffffff1660e01b8152600401610ba493929190611c19565b6020604051808303816000875af1158015610bc3573d6000803e3d6000fd5b505050506040513d601f19601f82011682018060405250810190610be79190611a68565b50600860009054906101000a900473ffffffffffffffffffffffffffffffffffffffff1673ffffffffffffffffffffffffffffffffffffffff1663095ea7b3600760009054906101000a900473ffffffffffffffffffffffffffffffffffffffff167fffffffffffffffffffffffffffffffffffffffffffffffffffffffffffffffff6040518363ffffffff1660e01b8152600401610c87929190611a2a565b6020604051808303816000875af1158015610ca6573d6000803e3d6000fd5b505050506040513d601f19601f82011682018060405250810190610cca9190611a68565b508473ffffffffffffffffffffffffffffffffffffffff1663095ea7b3600760009054906101000a900473ffffffffffffffffffffffffffffffffffffffff167fffffffffffffffffffffffffffffffffffffffffffffffffffffffffffffffff6040518363ffffffff1660e01b8152600401610d48929190611a2a565b6020604051808303816000875af1158015610d67573d6000803e3d6000fd5b505050506040513d601f19601f82011682018060405250810190610d8b9190611a68565b5060008060006127109050600062062ad29050600860009054906101000a900473ffffffffffffffffffffffffffffffffffffffff1673ffffffffffffffffffffffffffffffffffffffff168973ffffffffffffffffffffffffffffffffffffffff161115610e5457665730a257890000600a81905550818167016345785d8a0000610e179190611c7f565b610e219190611cf0565b600b81905550600860009054906101000a900473ffffffffffffffffffffffffffffffffffffffff169350889250610ea0565b6902eeffd45e1400000000600a819055506a01e38cc7124502eea60000600b81905550889350600860009054906101000a900473ffffffffffffffffffffffffffffffffffffffff1692505b6000610eac8585610984565b9050600060478686618ca0600a54604051602001610ece959493929190611db2565b60405160208183030381529060405290506000601f8787618ca0600080600b54600a54600a5460008c604051602001610f119b9a99989796959493929190611e7b565b604051602081830303815290604052905060006002600384608085604051602001610f4095949392919061202c565b6040516020818303038152906040529050899b50889a50600760009054906101000a900473ffffffffffffffffffffffffffffffffffffffff1673ffffffffffffffffffffffffffffffffffffffff1663a15112f96006836040518363ffffffff1660e01b8152600401610fb59291906120c8565b6000604051808303816000875af1158015610fd4573d6000803e3d6000fd5b505050506040513d6000823e3d601f19601f82011682018060405250810190610ffd919061221e565b5060058d9080600181540180825580915050600190039060005260206000200160009091909190916101000a81548173ffffffffffffffffffffffffffffffffffffffff021916908373ffffffffffffffffffffffffffffffffffffffff1602179055508373ffffffffffffffffffffffffffffffffffffffff168d73ffffffffffffffffffffffffffffffffffffffff167f2f3289d16dbc3007471d28c4936df3a95222bc938112449400d049637e3309ce8b8d426040516110c293929190612267565b60405180910390a35050505050505050935093915050565b6000600860009054906101000a900473ffffffffffffffffffffffffffffffffffffffff1673ffffffffffffffffffffffffffffffffffffffff1634604051611122906122cf565b60006040518083038185875af1925050503d806000811461115f576040519150601f19603f3d011682016040523d82523d6000602084013e611164565b606091505b50509050806111a8576040517f08c379a000000000000000000000000000000000000000000000000000000000815260040161119f90612330565b60405180910390fd5b50565b6111b361130b565b80600160006101000a81548173ffffffffffffffffffffffffffffffffffffffff021916908373ffffffffffffffffffffffffffffffffffffffff16021790555050565b6111ff61130b565b600073ffffffffffffffffffffffffffffffffffffffff168173ffffffffffffffffffffffffffffffffffffffff16036112715760006040517f1e4fbdf70000000000000000000000000000000000000000000000000000000081526004016112689190611716565b60405180910390fd5b61127a81611410565b50565b6006805461128a9061237f565b80601f01602080910402602001604051908101604052809291908181526020018280546112b69061237f565b80156113035780601f106112d857610100808354040283529160200191611303565b820191906000526020600020905b8154815290600101906020018083116112e657829003601f168201915b505050505081565b60006113156114d4565b90508073ffffffffffffffffffffffffffffffffffffffff1661133661095b565b73ffffffffffffffffffffffffffffffffffffffff16141580156113a45750600260008273ffffffffffffffffffffffffffffffffffffffff1673ffffffffffffffffffffffffffffffffffffffff16815260200190815260200160002060009054906101000a900460ff16155b156113ed576113b16114d4565b6040517f118cdaa70000000000000000000000000000000000000000000000000000000081526004016113e49190611716565b60405180910390fd5b50565b60003860003884865af161140c5763b12d13eb6000526004601cfd5b5050565b60008060009054906101000a900473ffffffffffffffffffffffffffffffffffffffff169050816000806101000a81548173ffffffffffffffffffffffffffffffffffffffff021916908373ffffffffffffffffffffffffffffffffffffffff1602179055508173ffffffffffffffffffffffffffffffffffffffff168173ffffffffffffffffffffffffffffffffffffffff167f8be0079c531659141344cd1fd0a4f28419497f9722a3daafe3b4186f6b6457e060405160405180910390a35050565b600033905090565b6000604051905090565b600080fd5b600080fd5b600073ffffffffffffffffffffffffffffffffffffffff82169050919050565b600061151b826114f0565b9050919050565b61152b81611510565b811461153657600080fd5b50565b60008135905061154881611522565b92915050565b6000819050919050565b6115618161154e565b811461156c57600080fd5b50565b60008135905061157e81611558565b92915050565b6000806040838503121561159b5761159a6114e6565b5b60006115a985828601611539565b92505060206115ba8582860161156f565b9150509250929050565b600081519050919050565b600082825260208201905092915050565b6000819050602082019050919050565b6115f981611510565b82525050565b600061160b83836115f0565b60208301905092915050565b6000602082019050919050565b600061162f826115c4565b61163981856115cf565b9350611644836115e0565b8060005b8381101561167557815161165c88826115ff565b975061166783611617565b925050600181019050611648565b5085935050505092915050565b6000602082019050818103600083015261169c8184611624565b905092915050565b6000602082840312156116ba576116b96114e6565b5b60006116c884828501611539565b91505092915050565b60008115159050919050565b6116e6816116d1565b82525050565b600060208201905061170160008301846116dd565b92915050565b61171081611510565b82525050565b600060208201905061172b6000830184611707565b92915050565b61173a816116d1565b811461174557600080fd5b50565b60008135905061175781611731565b92915050565b60008060408385031215611774576117736114e6565b5b600061178285828601611539565b925050602061179385828601611748565b9150509250929050565b6000602082840312156117b3576117b26114e6565b5b60006117c18482850161156f565b91505092915050565b6000819050919050565b60006117ef6117ea6117e5846114f0565b6117ca565b6114f0565b9050919050565b6000611801826117d4565b9050919050565b6000611813826117f6565b9050919050565b61182381611808565b82525050565b600060208201905061183e600083018461181a565b92915050565b6000806040838503121561185b5761185a6114e6565b5b600061186985828601611539565b925050602061187a85828601611539565b9150509250929050565b61188d8161154e565b82525050565b60006020820190506118a86000830184611884565b92915050565b60006118b9826117d4565b9050919050565b60006118cb826118ae565b9050919050565b6118db816118c0565b82525050565b60006020820190506118f660008301846118d2565b92915050565b600080600060608486031215611915576119146114e6565b5b600061192386828701611539565b93505060206119348682870161156f565b92505060406119458682870161156f565b9150509250925092565b60006040820190506119646000830185611884565b6119716020830184611884565b9392505050565b600081519050919050565b600082825260208201905092915050565b60005b838110156119b2578082015181840152602081019050611997565b60008484015250505050565b6000601f19601f8301169050919050565b60006119da82611978565b6119e48185611983565b93506119f4818560208601611994565b6119fd816119be565b840191505092915050565b60006020820190508181036000830152611a2281846119cf565b905092915050565b6000604082019050611a3f6000830185611707565b611a4c6020830184611884565b9392505050565b600081519050611a6281611731565b92915050565b600060208284031215611a7e57611a7d6114e6565b5b6000611a8c84828501611a53565b91505092915050565b60008160601b9050919050565b6000611aad82611a95565b9050919050565b6000611abf82611aa2565b9050919050565b611ad7611ad282611510565b611ab4565b82525050565b6000611ae98285611ac6565b601482019150611af98284611ac6565b6014820191508190509392505050565b600081905092915050565b7fff00000000000000000000000000000000000000000000000000000000000000600082015250565b6000611b4a600183611b09565b9150611b5582611b14565b600182019050919050565b6000819050919050565b6000819050919050565b611b85611b8082611b60565b611b6a565b82525050565b7ff8fb854b80d71035cc709012ce23accad9a804fcf7b90ac0c663e12c58a9c446600082015250565b6000611bc1602083611b09565b9150611bcc82611b8b565b602082019050919050565b6000611be282611b3d565b9150611bee8285611ac6565b601482019150611bfe8284611b74565b602082019150611c0d82611bb4565b91508190509392505050565b6000606082019050611c2e6000830186611707565b611c3b6020830185611707565b611c486040830184611884565b949350505050565b7f4e487b7100000000000000000000000000000000000000000000000000000000600052601160045260246000fd5b6000611c8a8261154e565b9150611c958361154e565b9250828202611ca38161154e565b91508282048414831517611cba57611cb9611c50565b5b5092915050565b7f4e487b7100000000000000000000000000000000000000000000000000000000600052601260045260246000fd5b6000611cfb8261154e565b9150611d068361154e565b925082611d1657611d15611cc1565b5b828204905092915050565b6000819050919050565b600060ff82169050919050565b6000611d53611d4e611d4984611d21565b6117ca565b611d2b565b9050919050565b611d6381611d38565b82525050565b6000819050919050565b600061ffff82169050919050565b6000611d9c611d97611d9284611d69565b6117ca565b611d73565b9050919050565b611dac81611d81565b82525050565b600060a082019050611dc76000830188611d5a565b611dd46020830187611707565b611de16040830186611707565b611dee6060830185611da3565b611dfb6080830184611884565b9695505050505050565b6000819050919050565b6000611e2a611e25611e2084611e05565b6117ca565b611d2b565b9050919050565b611e3a81611e0f565b82525050565b6000819050919050565b6000611e65611e60611e5b84611e40565b6117ca565b611d2b565b9050919050565b611e7581611e4a565b82525050565b600061016082019050611e91600083018e611e31565b611e9e602083018d611707565b611eab604083018c611707565b611eb8606083018b611da3565b611ec5608083018a611e6c565b611ed260a0830189611e6c565b611edf60c0830188611884565b611eec60e0830187611884565b611efa610100830186611884565b611f08610120830185611e6c565b611f16610140830184611707565b9c9b505050505050505050505050565b6000819050919050565b6000611f4b611f46611f4184611f26565b6117ca565b611d2b565b9050919050565b611f5b81611f30565b82525050565b6000819050919050565b6000611f86611f81611f7c84611f61565b6117ca565b611d2b565b9050919050565b611f9681611f6b565b82525050565b600081519050919050565b600082825260208201905092915050565b6000611fc382611f9c565b611fcd8185611fa7565b9350611fdd818560208601611994565b611fe6816119be565b840191505092915050565b6000819050919050565b600061201661201161200c84611ff1565b6117ca565b611d2b565b9050919050565b61202681611ffb565b82525050565b600060a0820190506120416000830188611f52565b61204e6020830187611f8d565b81810360408301526120608186611fb8565b905061206f606083018561201d565b81810360808301526120818184611fb8565b90509695505050505050565b6000819050919050565b60006120b26120ad6120a88461208d565b6117ca565b611d73565b9050919050565b6120c281612097565b82525050565b60006040820190506120dd60008301856120b9565b81810360208301526120ef8184611fb8565b90509392505050565b600080fd5b600080fd5b7f4e487b7100000000000000000000000000000000000000000000000000000000600052604160045260246000fd5b61213a826119be565b810181811067ffffffffffffffff8211171561215957612158612102565b5b80604052505050565b600061216c6114dc565b90506121788282612131565b919050565b600067ffffffffffffffff82111561219857612197612102565b5b6121a1826119be565b9050602081019050919050565b60006121c16121bc8461217d565b612162565b9050828152602081018484840111156121dd576121dc6120fd565b5b6121e8848285611994565b509392505050565b600082601f830112612205576122046120f8565b5b81516122158482602086016121ae565b91505092915050565b600060208284031215612234576122336114e6565b5b600082015167ffffffffffffffff811115612252576122516114eb565b5b61225e848285016121f0565b91505092915050565b600060608201905061227c6000830186611884565b6122896020830185611884565b6122966040830184611884565b949350505050565b600081905092915050565b50565b60006122b960008361229e565b91506122c4826122a9565b600082019050919050565b60006122da826122ac565b9150819050919050565b7f5472616e73666572206661696c65640000000000000000000000000000000000600082015250565b600061231a600f83611983565b9150612325826122e4565b602082019050919050565b600060208201905081810360008301526123498161230d565b9050919050565b7f4e487b7100000000000000000000000000000000000000000000000000000000600052602260045260246000fd5b6000600282049050600182168061239757607f821691505b6020821081036123aa576123a9612350565b5b5091905056fea2646970667358221220d096d7c2db4eeca0ed08f02bd9e67d95d546c0afd4b967ffab9e2c41ef160ecc64736f6c63430008130033",
					"opcodes": "PUSH1 0x80 PUSH1 0x40 MSTORE PUSH20 0x7C0BAD65CF9E2063C56382E6C5872D49EB4099A PUSH1 0x4 PUSH1 0x0 PUSH2 0x100 EXP DUP2 SLOAD DUP2 PUSH20 0xFFFFFFFFFFFFFFFFFFFFFFFFFFFFFFFFFFFFFFFF MUL NOT AND SWAP1 DUP4 PUSH20 0xFFFFFFFFFFFFFFFFFFFFFFFFFFFFFFFFFFFFFFFF AND MUL OR SWAP1 SSTORE POP PUSH1 0x40 MLOAD DUP1 PUSH1 0x40 ADD PUSH1 0x40 MSTORE DUP1 PUSH1 0x5 DUP2 MSTORE PUSH1 0x20 ADD PUSH32 0x302E312E31000000000000000000000000000000000000000000000000000000 DUP2 MSTORE POP PUSH1 0x6 SWAP1 DUP2 PUSH3 0x9F SWAP2 SWAP1 PUSH3 0x6B6 JUMP JUMPDEST POP PUSH20 0xAB827B1CC3535A9E549EE387A6E9C3F02F481B49 PUSH1 0x7 PUSH1 0x0 PUSH2 0x100 EXP DUP2 SLOAD DUP2 PUSH20 0xFFFFFFFFFFFFFFFFFFFFFFFFFFFFFFFFFFFFFFFF MUL NOT AND SWAP1 DUP4 PUSH20 0xFFFFFFFFFFFFFFFFFFFFFFFFFFFFFFFFFFFFFFFF AND MUL OR SWAP1 SSTORE POP PUSH20 0x7507C1DC16935B82698E4C63F2746A2FCF994DF8 PUSH1 0x8 PUSH1 0x0 PUSH2 0x100 EXP DUP2 SLOAD DUP2 PUSH20 0xFFFFFFFFFFFFFFFFFFFFFFFFFFFFFFFFFFFFFFFF MUL NOT AND SWAP1 DUP4 PUSH20 0xFFFFFFFFFFFFFFFFFFFFFFFFFFFFFFFFFFFFFFFF AND MUL OR SWAP1 SSTORE POP PUSH20 0xAB827B1CC3535A9E549EE387A6E9C3F02F481B49 PUSH1 0x9 PUSH1 0x0 PUSH2 0x100 EXP DUP2 SLOAD DUP2 PUSH20 0xFFFFFFFFFFFFFFFFFFFFFFFFFFFFFFFFFFFFFFFF MUL NOT AND SWAP1 DUP4 PUSH20 0xFFFFFFFFFFFFFFFFFFFFFFFFFFFFFFFFFFFFFFFF AND MUL OR SWAP1 SSTORE POP CALLVALUE DUP1 ISZERO PUSH3 0x1AC JUMPI PUSH1 0x0 DUP1 REVERT JUMPDEST POP PUSH1 0x40 MLOAD PUSH3 0x2D37 CODESIZE SUB DUP1 PUSH3 0x2D37 DUP4 CODECOPY DUP2 DUP2 ADD PUSH1 0x40 MSTORE DUP2 ADD SWAP1 PUSH3 0x1D2 SWAP2 SWAP1 PUSH3 0x807 JUMP JUMPDEST CALLER PUSH1 0x0 PUSH20 0xFFFFFFFFFFFFFFFFFFFFFFFFFFFFFFFFFFFFFFFF AND DUP2 PUSH20 0xFFFFFFFFFFFFFFFFFFFFFFFFFFFFFFFFFFFFFFFF AND SUB PUSH3 0x248 JUMPI PUSH1 0x0 PUSH1 0x40 MLOAD PUSH32 0x1E4FBDF700000000000000000000000000000000000000000000000000000000 DUP2 MSTORE PUSH1 0x4 ADD PUSH3 0x23F SWAP2 SWAP1 PUSH3 0x85F JUMP JUMPDEST PUSH1 0x40 MLOAD DUP1 SWAP2 SUB SWAP1 REVERT JUMPDEST PUSH3 0x259 DUP2 PUSH3 0x378 PUSH1 0x20 SHL PUSH1 0x20 SHR JUMP JUMPDEST POP PUSH1 0x1 PUSH1 0x2 PUSH1 0x0 CALLER PUSH20 0xFFFFFFFFFFFFFFFFFFFFFFFFFFFFFFFFFFFFFFFF AND PUSH20 0xFFFFFFFFFFFFFFFFFFFFFFFFFFFFFFFFFFFFFFFF AND DUP2 MSTORE PUSH1 0x20 ADD SWAP1 DUP2 MSTORE PUSH1 0x20 ADD PUSH1 0x0 KECCAK256 PUSH1 0x0 PUSH2 0x100 EXP DUP2 SLOAD DUP2 PUSH1 0xFF MUL NOT AND SWAP1 DUP4 ISZERO ISZERO MUL OR SWAP1 SSTORE POP DUP2 PUSH1 0x1 PUSH1 0x0 PUSH2 0x100 EXP DUP2 SLOAD DUP2 PUSH20 0xFFFFFFFFFFFFFFFFFFFFFFFFFFFFFFFFFFFFFFFF MUL NOT AND SWAP1 DUP4 PUSH20 0xFFFFFFFFFFFFFFFFFFFFFFFFFFFFFFFFFFFFFFFF AND MUL OR SWAP1 SSTORE POP DUP1 PUSH1 0x3 PUSH1 0x0 PUSH2 0x100 EXP DUP2 SLOAD DUP2 PUSH20 0xFFFFFFFFFFFFFFFFFFFFFFFFFFFFFFFFFFFFFFFF MUL NOT AND SWAP1 DUP4 PUSH20 0xFFFFFFFFFFFFFFFFFFFFFFFFFFFFFFFFFFFFFFFF AND MUL OR SWAP1 SSTORE POP PUSH1 0x3 PUSH32 0x7B78EE99B011DFF919FF5BD97F8A1B33B444782EB490DD7CD487FC963D63676F PUSH1 0x6 PUSH1 0x40 MLOAD PUSH3 0x368 SWAP2 SWAP1 PUSH3 0x91D JUMP JUMPDEST PUSH1 0x40 MLOAD DUP1 SWAP2 SUB SWAP1 LOG2 POP POP PUSH3 0x941 JUMP JUMPDEST PUSH1 0x0 DUP1 PUSH1 0x0 SWAP1 SLOAD SWAP1 PUSH2 0x100 EXP SWAP1 DIV PUSH20 0xFFFFFFFFFFFFFFFFFFFFFFFFFFFFFFFFFFFFFFFF AND SWAP1 POP DUP2 PUSH1 0x0 DUP1 PUSH2 0x100 EXP DUP2 SLOAD DUP2 PUSH20 0xFFFFFFFFFFFFFFFFFFFFFFFFFFFFFFFFFFFFFFFF MUL NOT AND SWAP1 DUP4 PUSH20 0xFFFFFFFFFFFFFFFFFFFFFFFFFFFFFFFFFFFFFFFF AND MUL OR SWAP1 SSTORE POP DUP2 PUSH20 0xFFFFFFFFFFFFFFFFFFFFFFFFFFFFFFFFFFFFFFFF AND DUP2 PUSH20 0xFFFFFFFFFFFFFFFFFFFFFFFFFFFFFFFFFFFFFFFF AND PUSH32 0x8BE0079C531659141344CD1FD0A4F28419497F9722A3DAAFE3B4186F6B6457E0 PUSH1 0x40 MLOAD PUSH1 0x40 MLOAD DUP1 SWAP2 SUB SWAP1 LOG3 POP POP JUMP JUMPDEST PUSH1 0x0 DUP2 MLOAD SWAP1 POP SWAP2 SWAP1 POP JUMP JUMPDEST PUSH32 0x4E487B7100000000000000000000000000000000000000000000000000000000 PUSH1 0x0 MSTORE PUSH1 0x41 PUSH1 0x4 MSTORE PUSH1 0x24 PUSH1 0x0 REVERT JUMPDEST PUSH32 0x4E487B7100000000000000000000000000000000000000000000000000000000 PUSH1 0x0 MSTORE PUSH1 0x22 PUSH1 0x4 MSTORE PUSH1 0x24 PUSH1 0x0 REVERT JUMPDEST PUSH1 0x0 PUSH1 0x2 DUP3 DIV SWAP1 POP PUSH1 0x1 DUP3 AND DUP1 PUSH3 0x4BE JUMPI PUSH1 0x7F DUP3 AND SWAP2 POP JUMPDEST PUSH1 0x20 DUP3 LT DUP2 SUB PUSH3 0x4D4 JUMPI PUSH3 0x4D3 PUSH3 0x476 JUMP JUMPDEST JUMPDEST POP SWAP2 SWAP1 POP JUMP JUMPDEST PUSH1 0x0 DUP2 SWAP1 POP DUP2 PUSH1 0x0 MSTORE PUSH1 0x20 PUSH1 0x0 KECCAK256 SWAP1 POP SWAP2 SWAP1 POP JUMP JUMPDEST PUSH1 0x0 PUSH1 0x20 PUSH1 0x1F DUP4 ADD DIV SWAP1 POP SWAP2 SWAP1 POP JUMP JUMPDEST PUSH1 0x0 DUP3 DUP3 SHL SWAP1 POP SWAP3 SWAP2 POP POP JUMP JUMPDEST PUSH1 0x0 PUSH1 0x8 DUP4 MUL PUSH3 0x53E PUSH32 0xFFFFFFFFFFFFFFFFFFFFFFFFFFFFFFFFFFFFFFFFFFFFFFFFFFFFFFFFFFFFFFFF DUP3 PUSH3 0x4FF JUMP JUMPDEST PUSH3 0x54A DUP7 DUP4 PUSH3 0x4FF JUMP JUMPDEST SWAP6 POP DUP1 NOT DUP5 AND SWAP4 POP DUP1 DUP7 AND DUP5 OR SWAP3 POP POP POP SWAP4 SWAP3 POP POP POP JUMP JUMPDEST PUSH1 0x0 DUP2 SWAP1 POP SWAP2 SWAP1 POP JUMP JUMPDEST PUSH1 0x0 DUP2 SWAP1 POP SWAP2 SWAP1 POP JUMP JUMPDEST PUSH1 0x0 PUSH3 0x597 PUSH3 0x591 PUSH3 0x58B DUP5 PUSH3 0x562 JUMP JUMPDEST PUSH3 0x56C JUMP JUMPDEST PUSH3 0x562 JUMP JUMPDEST SWAP1 POP SWAP2 SWAP1 POP JUMP JUMPDEST PUSH1 0x0 DUP2 SWAP1 POP SWAP2 SWAP1 POP JUMP JUMPDEST PUSH3 0x5B3 DUP4 PUSH3 0x576 JUMP JUMPDEST PUSH3 0x5CB PUSH3 0x5C2 DUP3 PUSH3 0x59E JUMP JUMPDEST DUP5 DUP5 SLOAD PUSH3 0x50C JUMP JUMPDEST DUP3 SSTORE POP POP POP POP JUMP JUMPDEST PUSH1 0x0 SWAP1 JUMP JUMPDEST PUSH3 0x5E2 PUSH3 0x5D3 JUMP JUMPDEST PUSH3 0x5EF DUP2 DUP5 DUP5 PUSH3 0x5A8 JUMP JUMPDEST POP POP POP JUMP JUMPDEST JUMPDEST DUP2 DUP2 LT ISZERO PUSH3 0x617 JUMPI PUSH3 0x60B PUSH1 0x0 DUP3 PUSH3 0x5D8 JUMP JUMPDEST PUSH1 0x1 DUP2 ADD SWAP1 POP PUSH3 0x5F5 JUMP JUMPDEST POP POP JUMP JUMPDEST PUSH1 0x1F DUP3 GT ISZERO PUSH3 0x666 JUMPI PUSH3 0x630 DUP2 PUSH3 0x4DA JUMP JUMPDEST PUSH3 0x63B DUP5 PUSH3 0x4EF JUMP JUMPDEST DUP2 ADD PUSH1 0x20 DUP6 LT ISZERO PUSH3 0x64B JUMPI DUP2 SWAP1 POP JUMPDEST PUSH3 0x663 PUSH3 0x65A DUP6 PUSH3 0x4EF JUMP JUMPDEST DUP4 ADD DUP3 PUSH3 0x5F4 JUMP JUMPDEST POP POP JUMPDEST POP POP POP JUMP JUMPDEST PUSH1 0x0 DUP3 DUP3 SHR SWAP1 POP SWAP3 SWAP2 POP POP JUMP JUMPDEST PUSH1 0x0 PUSH3 0x68B PUSH1 0x0 NOT DUP5 PUSH1 0x8 MUL PUSH3 0x66B JUMP JUMPDEST NOT DUP1 DUP4 AND SWAP2 POP POP SWAP3 SWAP2 POP POP JUMP JUMPDEST PUSH1 0x0 PUSH3 0x6A6 DUP4 DUP4 PUSH3 0x678 JUMP JUMPDEST SWAP2 POP DUP3 PUSH1 0x2 MUL DUP3 OR SWAP1 POP SWAP3 SWAP2 POP POP JUMP JUMPDEST PUSH3 0x6C1 DUP3 PUSH3 0x43C JUMP JUMPDEST PUSH8 0xFFFFFFFFFFFFFFFF DUP2 GT ISZERO PUSH3 0x6DD JUMPI PUSH3 0x6DC PUSH3 0x447 JUMP JUMPDEST JUMPDEST PUSH3 0x6E9 DUP3 SLOAD PUSH3 0x4A5 JUMP JUMPDEST PUSH3 0x6F6 DUP3 DUP3 DUP6 PUSH3 0x61B JUMP JUMPDEST PUSH1 0x0 PUSH1 0x20 SWAP1 POP PUSH1 0x1F DUP4 GT PUSH1 0x1 DUP2 EQ PUSH3 0x72E JUMPI PUSH1 0x0 DUP5 ISZERO PUSH3 0x719 JUMPI DUP3 DUP8 ADD MLOAD SWAP1 POP JUMPDEST PUSH3 0x725 DUP6 DUP3 PUSH3 0x698 JUMP JUMPDEST DUP7 SSTORE POP PUSH3 0x795 JUMP JUMPDEST PUSH1 0x1F NOT DUP5 AND PUSH3 0x73E DUP7 PUSH3 0x4DA JUMP JUMPDEST PUSH1 0x0 JUMPDEST DUP3 DUP2 LT ISZERO PUSH3 0x768 JUMPI DUP5 DUP10 ADD MLOAD DUP3 SSTORE PUSH1 0x1 DUP3 ADD SWAP2 POP PUSH1 0x20 DUP6 ADD SWAP5 POP PUSH1 0x20 DUP2 ADD SWAP1 POP PUSH3 0x741 JUMP JUMPDEST DUP7 DUP4 LT ISZERO PUSH3 0x788 JUMPI DUP5 DUP10 ADD MLOAD PUSH3 0x784 PUSH1 0x1F DUP10 AND DUP3 PUSH3 0x678 JUMP JUMPDEST DUP4 SSTORE POP JUMPDEST PUSH1 0x1 PUSH1 0x2 DUP9 MUL ADD DUP9 SSTORE POP POP POP JUMPDEST POP POP POP POP POP POP JUMP JUMPDEST PUSH1 0x0 DUP1 REVERT JUMPDEST PUSH1 0x0 PUSH20 0xFFFFFFFFFFFFFFFFFFFFFFFFFFFFFFFFFFFFFFFF DUP3 AND SWAP1 POP SWAP2 SWAP1 POP JUMP JUMPDEST PUSH1 0x0 PUSH3 0x7CF DUP3 PUSH3 0x7A2 JUMP JUMPDEST SWAP1 POP SWAP2 SWAP1 POP JUMP JUMPDEST PUSH3 0x7E1 DUP2 PUSH3 0x7C2 JUMP JUMPDEST DUP2 EQ PUSH3 0x7ED JUMPI PUSH1 0x0 DUP1 REVERT JUMPDEST POP JUMP JUMPDEST PUSH1 0x0 DUP2 MLOAD SWAP1 POP PUSH3 0x801 DUP2 PUSH3 0x7D6 JUMP JUMPDEST SWAP3 SWAP2 POP POP JUMP JUMPDEST PUSH1 0x0 DUP1 PUSH1 0x40 DUP4 DUP6 SUB SLT ISZERO PUSH3 0x821 JUMPI PUSH3 0x820 PUSH3 0x79D JUMP JUMPDEST JUMPDEST PUSH1 0x0 PUSH3 0x831 DUP6 DUP3 DUP7 ADD PUSH3 0x7F0 JUMP JUMPDEST SWAP3 POP POP PUSH1 0x20 PUSH3 0x844 DUP6 DUP3 DUP7 ADD PUSH3 0x7F0 JUMP JUMPDEST SWAP2 POP POP SWAP3 POP SWAP3 SWAP1 POP JUMP JUMPDEST PUSH3 0x859 DUP2 PUSH3 0x7C2 JUMP JUMPDEST DUP3 MSTORE POP POP JUMP JUMPDEST PUSH1 0x0 PUSH1 0x20 DUP3 ADD SWAP1 POP PUSH3 0x876 PUSH1 0x0 DUP4 ADD DUP5 PUSH3 0x84E JUMP JUMPDEST SWAP3 SWAP2 POP POP JUMP JUMPDEST PUSH1 0x0 DUP3 DUP3 MSTORE PUSH1 0x20 DUP3 ADD SWAP1 POP SWAP3 SWAP2 POP POP JUMP JUMPDEST PUSH1 0x0 DUP2 SLOAD PUSH3 0x89C DUP2 PUSH3 0x4A5 JUMP JUMPDEST PUSH3 0x8A8 DUP2 DUP7 PUSH3 0x87C JUMP JUMPDEST SWAP5 POP PUSH1 0x1 DUP3 AND PUSH1 0x0 DUP2 EQ PUSH3 0x8C6 JUMPI PUSH1 0x1 DUP2 EQ PUSH3 0x8DD JUMPI PUSH3 0x914 JUMP JUMPDEST PUSH1 0xFF NOT DUP4 AND DUP7 MSTORE DUP2 ISZERO ISZERO PUSH1 0x20 MUL DUP7 ADD SWAP4 POP PUSH3 0x914 JUMP JUMPDEST PUSH3 0x8E8 DUP6 PUSH3 0x4DA JUMP JUMPDEST PUSH1 0x0 JUMPDEST DUP4 DUP2 LT ISZERO PUSH3 0x90C JUMPI DUP2 SLOAD DUP2 DUP10 ADD MSTORE PUSH1 0x1 DUP3 ADD SWAP2 POP PUSH1 0x20 DUP2 ADD SWAP1 POP PUSH3 0x8EB JUMP JUMPDEST DUP1 DUP9 ADD SWAP6 POP POP POP JUMPDEST POP POP POP SWAP3 SWAP2 POP POP JUMP JUMPDEST PUSH1 0x0 PUSH1 0x20 DUP3 ADD SWAP1 POP DUP2 DUP2 SUB PUSH1 0x0 DUP4 ADD MSTORE PUSH3 0x939 DUP2 DUP5 PUSH3 0x88D JUMP JUMPDEST SWAP1 POP SWAP3 SWAP2 POP POP JUMP JUMPDEST PUSH2 0x23E6 DUP1 PUSH3 0x951 PUSH1 0x0 CODECOPY PUSH1 0x0 RETURN INVALID PUSH1 0x80 PUSH1 0x40 MSTORE PUSH1 0x4 CALLDATASIZE LT PUSH2 0x16A JUMPI PUSH1 0x0 CALLDATALOAD PUSH1 0xE0 SHR DUP1 PUSH4 0x7ABDEF14 GT PUSH2 0xD1 JUMPI DUP1 PUSH4 0xAA8C217C GT PUSH2 0x8A JUMPI DUP1 PUSH4 0xCE904421 GT PUSH2 0x64 JUMPI DUP1 PUSH4 0xCE904421 EQ PUSH2 0x4FA JUMPI DUP1 PUSH4 0xD959FB2E EQ PUSH2 0x504 JUMPI DUP1 PUSH4 0xF2FDE38B EQ PUSH2 0x52D JUMPI DUP1 PUSH4 0xF8B1CB3C EQ PUSH2 0x556 JUMPI PUSH2 0x171 JUMP JUMPDEST DUP1 PUSH4 0xAA8C217C EQ PUSH2 0x473 JUMPI DUP1 PUSH4 0xC45A0155 EQ PUSH2 0x49E JUMPI DUP1 PUSH4 0xC52AB778 EQ PUSH2 0x4C9 JUMPI PUSH2 0x171 JUMP JUMPDEST DUP1 PUSH4 0x7ABDEF14 EQ PUSH2 0x363 JUMPI DUP1 PUSH4 0x8CD40C9D EQ PUSH2 0x38C JUMPI DUP1 PUSH4 0x8DA5CB5B EQ PUSH2 0x3B5 JUMPI DUP1 PUSH4 0x96ED28F9 EQ PUSH2 0x3E0 JUMPI DUP1 PUSH4 0xA035B1FE EQ PUSH2 0x41D JUMPI DUP1 PUSH4 0xA7C6402C EQ PUSH2 0x448 JUMPI PUSH2 0x171 JUMP JUMPDEST DUP1 PUSH4 0x4B0BDDD2 GT PUSH2 0x123 JUMPI DUP1 PUSH4 0x4B0BDDD2 EQ PUSH2 0x267 JUMPI DUP1 PUSH4 0x64C9EC6F EQ PUSH2 0x290 JUMPI DUP1 PUSH4 0x715018A6 EQ PUSH2 0x2BB JUMPI DUP1 PUSH4 0x72BC5583 EQ PUSH2 0x2D2 JUMPI DUP1 PUSH4 0x7490E284 EQ PUSH2 0x2FB JUMPI DUP1 PUSH4 0x7900A7FF EQ PUSH2 0x338 JUMPI PUSH2 0x171 JUMP JUMPDEST DUP1 PUSH4 0x99A04E5 EQ PUSH2 0x176 JUMPI DUP1 PUSH4 0x21DF0DA7 EQ PUSH2 0x19F JUMPI DUP1 PUSH4 0x24D7806C EQ PUSH2 0x1CA JUMPI DUP1 PUSH4 0x31F41A33 EQ PUSH2 0x207 JUMPI DUP1 PUSH4 0x3935EBF9 EQ PUSH2 0x232 JUMPI DUP1 PUSH4 0x3CCFD60B EQ PUSH2 0x25D JUMPI PUSH2 0x171 JUMP JUMPDEST CALLDATASIZE PUSH2 0x171 JUMPI STOP JUMPDEST PUSH1 0x0 DUP1 REVERT JUMPDEST CALLVALUE DUP1 ISZERO PUSH2 0x182 JUMPI PUSH1 0x0 DUP1 REVERT JUMPDEST POP PUSH2 0x19D PUSH1 0x4 DUP1 CALLDATASIZE SUB DUP2 ADD SWAP1 PUSH2 0x198 SWAP2 SWAP1 PUSH2 0x1584 JUMP JUMPDEST PUSH2 0x581 JUMP JUMPDEST STOP JUMPDEST CALLVALUE DUP1 ISZERO PUSH2 0x1AB JUMPI PUSH1 0x0 DUP1 REVERT JUMPDEST POP PUSH2 0x1B4 PUSH2 0x597 JUMP JUMPDEST PUSH1 0x40 MLOAD PUSH2 0x1C1 SWAP2 SWAP1 PUSH2 0x1682 JUMP JUMPDEST PUSH1 0x40 MLOAD DUP1 SWAP2 SUB SWAP1 RETURN JUMPDEST CALLVALUE DUP1 ISZERO PUSH2 0x1D6 JUMPI PUSH1 0x0 DUP1 REVERT JUMPDEST POP PUSH2 0x1F1 PUSH1 0x4 DUP1 CALLDATASIZE SUB DUP2 ADD SWAP1 PUSH2 0x1EC SWAP2 SWAP1 PUSH2 0x16A4 JUMP JUMPDEST PUSH2 0x625 JUMP JUMPDEST PUSH1 0x40 MLOAD PUSH2 0x1FE SWAP2 SWAP1 PUSH2 0x16EC JUMP JUMPDEST PUSH1 0x40 MLOAD DUP1 SWAP2 SUB SWAP1 RETURN JUMPDEST CALLVALUE DUP1 ISZERO PUSH2 0x213 JUMPI PUSH1 0x0 DUP1 REVERT JUMPDEST POP PUSH2 0x21C PUSH2 0x645 JUMP JUMPDEST PUSH1 0x40 MLOAD PUSH2 0x229 SWAP2 SWAP1 PUSH2 0x1716 JUMP JUMPDEST PUSH1 0x40 MLOAD DUP1 SWAP2 SUB SWAP1 RETURN JUMPDEST CALLVALUE DUP1 ISZERO PUSH2 0x23E JUMPI PUSH1 0x0 DUP1 REVERT JUMPDEST POP PUSH2 0x247 PUSH2 0x66B JUMP JUMPDEST PUSH1 0x40 MLOAD PUSH2 0x254 SWAP2 SWAP1 PUSH2 0x1716 JUMP JUMPDEST PUSH1 0x40 MLOAD DUP1 SWAP2 SUB SWAP1 RETURN JUMPDEST PUSH2 0x265 PUSH2 0x691 JUMP JUMPDEST STOP JUMPDEST CALLVALUE DUP1 ISZERO PUSH2 0x273 JUMPI PUSH1 0x0 DUP1 REVERT JUMPDEST POP PUSH2 0x28E PUSH1 0x4 DUP1 CALLDATASIZE SUB DUP2 ADD SWAP1 PUSH2 0x289 SWAP2 SWAP1 PUSH2 0x175D JUMP JUMPDEST PUSH2 0x6DA JUMP JUMPDEST STOP JUMPDEST CALLVALUE DUP1 ISZERO PUSH2 0x29C JUMPI PUSH1 0x0 DUP1 REVERT JUMPDEST POP PUSH2 0x2A5 PUSH2 0x7A1 JUMP JUMPDEST PUSH1 0x40 MLOAD PUSH2 0x2B2 SWAP2 SWAP1 PUSH2 0x1716 JUMP JUMPDEST PUSH1 0x40 MLOAD DUP1 SWAP2 SUB SWAP1 RETURN JUMPDEST CALLVALUE DUP1 ISZERO PUSH2 0x2C7 JUMPI PUSH1 0x0 DUP1 REVERT JUMPDEST POP PUSH2 0x2D0 PUSH2 0x7C7 JUMP JUMPDEST STOP JUMPDEST CALLVALUE DUP1 ISZERO PUSH2 0x2DE JUMPI PUSH1 0x0 DUP1 REVERT JUMPDEST POP PUSH2 0x2F9 PUSH1 0x4 DUP1 CALLDATASIZE SUB DUP2 ADD SWAP1 PUSH2 0x2F4 SWAP2 SWAP1 PUSH2 0x16A4 JUMP JUMPDEST PUSH2 0x7DB JUMP JUMPDEST STOP JUMPDEST CALLVALUE DUP1 ISZERO PUSH2 0x307 JUMPI PUSH1 0x0 DUP1 REVERT JUMPDEST POP PUSH2 0x322 PUSH1 0x4 DUP1 CALLDATASIZE SUB DUP2 ADD SWAP1 PUSH2 0x31D SWAP2 SWAP1 PUSH2 0x179D JUMP JUMPDEST PUSH2 0x827 JUMP JUMPDEST PUSH1 0x40 MLOAD PUSH2 0x32F SWAP2 SWAP1 PUSH2 0x1716 JUMP JUMPDEST PUSH1 0x40 MLOAD DUP1 SWAP2 SUB SWAP1 RETURN JUMPDEST CALLVALUE DUP1 ISZERO PUSH2 0x344 JUMPI PUSH1 0x0 DUP1 REVERT JUMPDEST POP PUSH2 0x34D PUSH2 0x866 JUMP JUMPDEST PUSH1 0x40 MLOAD PUSH2 0x35A SWAP2 SWAP1 PUSH2 0x1829 JUMP JUMPDEST PUSH1 0x40 MLOAD DUP1 SWAP2 SUB SWAP1 RETURN JUMPDEST CALLVALUE DUP1 ISZERO PUSH2 0x36F JUMPI PUSH1 0x0 DUP1 REVERT JUMPDEST POP PUSH2 0x38A PUSH1 0x4 DUP1 CALLDATASIZE SUB DUP2 ADD SWAP1 PUSH2 0x385 SWAP2 SWAP1 PUSH2 0x16A4 JUMP JUMPDEST PUSH2 0x88C JUMP JUMPDEST STOP JUMPDEST CALLVALUE DUP1 ISZERO PUSH2 0x398 JUMPI PUSH1 0x0 DUP1 REVERT JUMPDEST POP PUSH2 0x3B3 PUSH1 0x4 DUP1 CALLDATASIZE SUB DUP2 ADD SWAP1 PUSH2 0x3AE SWAP2 SWAP1 PUSH2 0x1584 JUMP JUMPDEST PUSH2 0x8D8 JUMP JUMPDEST STOP JUMPDEST CALLVALUE DUP1 ISZERO PUSH2 0x3C1 JUMPI PUSH1 0x0 DUP1 REVERT JUMPDEST POP PUSH2 0x3CA PUSH2 0x95B JUMP JUMPDEST PUSH1 0x40 MLOAD PUSH2 0x3D7 SWAP2 SWAP1 PUSH2 0x1716 JUMP JUMPDEST PUSH1 0x40 MLOAD DUP1 SWAP2 SUB SWAP1 RETURN JUMPDEST CALLVALUE DUP1 ISZERO PUSH2 0x3EC JUMPI PUSH1 0x0 DUP1 REVERT JUMPDEST POP PUSH2 0x407 PUSH1 0x4 DUP1 CALLDATASIZE SUB DUP2 ADD SWAP1 PUSH2 0x402 SWAP2 SWAP1 PUSH2 0x1844 JUMP JUMPDEST PUSH2 0x984 JUMP JUMPDEST PUSH1 0x40 MLOAD PUSH2 0x414 SWAP2 SWAP1 PUSH2 0x1716 JUMP JUMPDEST PUSH1 0x40 MLOAD DUP1 SWAP2 SUB SWAP1 RETURN JUMPDEST CALLVALUE DUP1 ISZERO PUSH2 0x429 JUMPI PUSH1 0x0 DUP1 REVERT JUMPDEST POP PUSH2 0x432 PUSH2 0xA09 JUMP JUMPDEST PUSH1 0x40 MLOAD PUSH2 0x43F SWAP2 SWAP1 PUSH2 0x1893 JUMP JUMPDEST PUSH1 0x40 MLOAD DUP1 SWAP2 SUB SWAP1 RETURN JUMPDEST CALLVALUE DUP1 ISZERO PUSH2 0x454 JUMPI PUSH1 0x0 DUP1 REVERT JUMPDEST POP PUSH2 0x45D PUSH2 0xA0F JUMP JUMPDEST PUSH1 0x40 MLOAD PUSH2 0x46A SWAP2 SWAP1 PUSH2 0x18E1 JUMP JUMPDEST PUSH1 0x40 MLOAD DUP1 SWAP2 SUB SWAP1 RETURN JUMPDEST CALLVALUE DUP1 ISZERO PUSH2 0x47F JUMPI PUSH1 0x0 DUP1 REVERT JUMPDEST POP PUSH2 0x488 PUSH2 0xA35 JUMP JUMPDEST PUSH1 0x40 MLOAD PUSH2 0x495 SWAP2 SWAP1 PUSH2 0x1893 JUMP JUMPDEST PUSH1 0x40 MLOAD DUP1 SWAP2 SUB SWAP1 RETURN JUMPDEST CALLVALUE DUP1 ISZERO PUSH2 0x4AA JUMPI PUSH1 0x0 DUP1 REVERT JUMPDEST POP PUSH2 0x4B3 PUSH2 0xA3B JUMP JUMPDEST PUSH1 0x40 MLOAD PUSH2 0x4C0 SWAP2 SWAP1 PUSH2 0x1716 JUMP JUMPDEST PUSH1 0x40 MLOAD DUP1 SWAP2 SUB SWAP1 RETURN JUMPDEST PUSH2 0x4E3 PUSH1 0x4 DUP1 CALLDATASIZE SUB DUP2 ADD SWAP1 PUSH2 0x4DE SWAP2 SWAP1 PUSH2 0x18FC JUMP JUMPDEST PUSH2 0xA61 JUMP JUMPDEST PUSH1 0x40 MLOAD PUSH2 0x4F1 SWAP3 SWAP2 SWAP1 PUSH2 0x194F JUMP JUMPDEST PUSH1 0x40 MLOAD DUP1 SWAP2 SUB SWAP1 RETURN JUMPDEST PUSH2 0x502 PUSH2 0x10DA JUMP JUMPDEST STOP JUMPDEST CALLVALUE DUP1 ISZERO PUSH2 0x510 JUMPI PUSH1 0x0 DUP1 REVERT JUMPDEST POP PUSH2 0x52B PUSH1 0x4 DUP1 CALLDATASIZE SUB DUP2 ADD SWAP1 PUSH2 0x526 SWAP2 SWAP1 PUSH2 0x16A4 JUMP JUMPDEST PUSH2 0x11AB JUMP JUMPDEST STOP JUMPDEST CALLVALUE DUP1 ISZERO PUSH2 0x539 JUMPI PUSH1 0x0 DUP1 REVERT JUMPDEST POP PUSH2 0x554 PUSH1 0x4 DUP1 CALLDATASIZE SUB DUP2 ADD SWAP1 PUSH2 0x54F SWAP2 SWAP1 PUSH2 0x16A4 JUMP JUMPDEST PUSH2 0x11F7 JUMP JUMPDEST STOP JUMPDEST CALLVALUE DUP1 ISZERO PUSH2 0x562 JUMPI PUSH1 0x0 DUP1 REVERT JUMPDEST POP PUSH2 0x56B PUSH2 0x127D JUMP JUMPDEST PUSH1 0x40 MLOAD PUSH2 0x578 SWAP2 SWAP1 PUSH2 0x1A08 JUMP JUMPDEST PUSH1 0x40 MLOAD DUP1 SWAP2 SUB SWAP1 RETURN JUMPDEST PUSH2 0x589 PUSH2 0x130B JUMP JUMPDEST PUSH2 0x593 DUP3 DUP3 PUSH2 0x13F0 JUMP JUMPDEST POP POP JUMP JUMPDEST PUSH1 0x60 PUSH1 0x5 DUP1 SLOAD DUP1 PUSH1 0x20 MUL PUSH1 0x20 ADD PUSH1 0x40 MLOAD SWAP1 DUP2 ADD PUSH1 0x40 MSTORE DUP1 SWAP3 SWAP2 SWAP1 DUP2 DUP2 MSTORE PUSH1 0x20 ADD DUP3 DUP1 SLOAD DUP1 ISZERO PUSH2 0x61B JUMPI PUSH1 0x20 MUL DUP3 ADD SWAP2 SWAP1 PUSH1 0x0 MSTORE PUSH1 0x20 PUSH1 0x0 KECCAK256 SWAP1 JUMPDEST DUP2 PUSH1 0x0 SWAP1 SLOAD SWAP1 PUSH2 0x100 EXP SWAP1 DIV PUSH20 0xFFFFFFFFFFFFFFFFFFFFFFFFFFFFFFFFFFFFFFFF AND PUSH20 0xFFFFFFFFFFFFFFFFFFFFFFFFFFFFFFFFFFFFFFFF AND DUP2 MSTORE PUSH1 0x20 ADD SWAP1 PUSH1 0x1 ADD SWAP1 DUP1 DUP4 GT PUSH2 0x5D1 JUMPI JUMPDEST POP POP POP POP POP SWAP1 POP SWAP1 JUMP JUMPDEST PUSH1 0x2 PUSH1 0x20 MSTORE DUP1 PUSH1 0x0 MSTORE PUSH1 0x40 PUSH1 0x0 KECCAK256 PUSH1 0x0 SWAP2 POP SLOAD SWAP1 PUSH2 0x100 EXP SWAP1 DIV PUSH1 0xFF AND DUP2 JUMP JUMPDEST PUSH1 0x8 PUSH1 0x0 SWAP1 SLOAD SWAP1 PUSH2 0x100 EXP SWAP1 DIV PUSH20 0xFFFFFFFFFFFFFFFFFFFFFFFFFFFFFFFFFFFFFFFF AND DUP2 JUMP JUMPDEST PUSH1 0x4 PUSH1 0x0 SWAP1 SLOAD SWAP1 PUSH2 0x100 EXP SWAP1 DIV PUSH20 0xFFFFFFFFFFFFFFFFFFFFFFFFFFFFFFFFFFFFFFFF AND DUP2 JUMP JUMPDEST CALLER PUSH20 0xFFFFFFFFFFFFFFFFFFFFFFFFFFFFFFFFFFFFFFFF AND PUSH2 0x8FC SELFBALANCE SWAP1 DUP2 ISZERO MUL SWAP1 PUSH1 0x40 MLOAD PUSH1 0x0 PUSH1 0x40 MLOAD DUP1 DUP4 SUB DUP2 DUP6 DUP9 DUP9 CALL SWAP4 POP POP POP POP ISZERO DUP1 ISZERO PUSH2 0x6D7 JUMPI RETURNDATASIZE PUSH1 0x0 DUP1 RETURNDATACOPY RETURNDATASIZE PUSH1 0x0 REVERT JUMPDEST POP JUMP JUMPDEST PUSH2 0x6E2 PUSH2 0x95B JUMP JUMPDEST PUSH20 0xFFFFFFFFFFFFFFFFFFFFFFFFFFFFFFFFFFFFFFFF AND CALLER PUSH20 0xFFFFFFFFFFFFFFFFFFFFFFFFFFFFFFFFFFFFFFFF AND EQ PUSH2 0x746 JUMPI PUSH1 0x40 MLOAD PUSH32 0xAD9CD75900000000000000000000000000000000000000000000000000000000 DUP2 MSTORE PUSH1 0x4 ADD PUSH1 0x40 MLOAD DUP1 SWAP2 SUB SWAP1 REVERT JUMPDEST DUP1 PUSH1 0x2 PUSH1 0x0 DUP5 PUSH20 0xFFFFFFFFFFFFFFFFFFFFFFFFFFFFFFFFFFFFFFFF AND PUSH20 0xFFFFFFFFFFFFFFFFFFFFFFFFFFFFFFFFFFFFFFFF AND DUP2 MSTORE PUSH1 0x20 ADD SWAP1 DUP2 MSTORE PUSH1 0x20 ADD PUSH1 0x0 KECCAK256 PUSH1 0x0 PUSH2 0x100 EXP DUP2 SLOAD DUP2 PUSH1 0xFF MUL NOT AND SWAP1 DUP4 ISZERO ISZERO MUL OR SWAP1 SSTORE POP POP POP JUMP JUMPDEST PUSH1 0x1 PUSH1 0x0 SWAP1 SLOAD SWAP1 PUSH2 0x100 EXP SWAP1 DIV PUSH20 0xFFFFFFFFFFFFFFFFFFFFFFFFFFFFFFFFFFFFFFFF AND DUP2 JUMP JUMPDEST PUSH2 0x7CF PUSH2 0x130B JUMP JUMPDEST PUSH2 0x7D9 PUSH1 0x0 PUSH2 0x1410 JUMP JUMPDEST JUMP JUMPDEST PUSH2 0x7E3 PUSH2 0x130B JUMP JUMPDEST DUP1 PUSH1 0x4 PUSH1 0x0 PUSH2 0x100 EXP DUP2 SLOAD DUP2 PUSH20 0xFFFFFFFFFFFFFFFFFFFFFFFFFFFFFFFFFFFFFFFF MUL NOT AND SWAP1 DUP4 PUSH20 0xFFFFFFFFFFFFFFFFFFFFFFFFFFFFFFFFFFFFFFFF AND MUL OR SWAP1 SSTORE POP POP JUMP JUMPDEST PUSH1 0x5 DUP2 DUP2 SLOAD DUP2 LT PUSH2 0x837 JUMPI PUSH1 0x0 DUP1 REVERT JUMPDEST SWAP1 PUSH1 0x0 MSTORE PUSH1 0x20 PUSH1 0x0 KECCAK256 ADD PUSH1 0x0 SWAP2 POP SLOAD SWAP1 PUSH2 0x100 EXP SWAP1 DIV PUSH20 0xFFFFFFFFFFFFFFFFFFFFFFFFFFFFFFFFFFFFFFFF AND DUP2 JUMP JUMPDEST PUSH1 0x7 PUSH1 0x0 SWAP1 SLOAD SWAP1 PUSH2 0x100 EXP SWAP1 DIV PUSH20 0xFFFFFFFFFFFFFFFFFFFFFFFFFFFFFFFFFFFFFFFF AND DUP2 JUMP JUMPDEST PUSH2 0x894 PUSH2 0x130B JUMP JUMPDEST DUP1 PUSH1 0x3 PUSH1 0x0 PUSH2 0x100 EXP DUP2 SLOAD DUP2 PUSH20 0xFFFFFFFFFFFFFFFFFFFFFFFFFFFFFFFFFFFFFFFF MUL NOT AND SWAP1 DUP4 PUSH20 0xFFFFFFFFFFFFFFFFFFFFFFFFFFFFFFFFFFFFFFFF AND MUL OR SWAP1 SSTORE POP POP JUMP JUMPDEST DUP2 PUSH20 0xFFFFFFFFFFFFFFFFFFFFFFFFFFFFFFFFFFFFFFFF AND PUSH4 0xA9059CBB CALLER DUP4 PUSH1 0x40 MLOAD DUP4 PUSH4 0xFFFFFFFF AND PUSH1 0xE0 SHL DUP2 MSTORE PUSH1 0x4 ADD PUSH2 0x913 SWAP3 SWAP2 SWAP1 PUSH2 0x1A2A JUMP JUMPDEST PUSH1 0x20 PUSH1 0x40 MLOAD DUP1 DUP4 SUB DUP2 PUSH1 0x0 DUP8 GAS CALL ISZERO DUP1 ISZERO PUSH2 0x932 JUMPI RETURNDATASIZE PUSH1 0x0 DUP1 RETURNDATACOPY RETURNDATASIZE PUSH1 0x0 REVERT JUMPDEST POP POP POP POP PUSH1 0x40 MLOAD RETURNDATASIZE PUSH1 0x1F NOT PUSH1 0x1F DUP3 ADD AND DUP3 ADD DUP1 PUSH1 0x40 MSTORE POP DUP2 ADD SWAP1 PUSH2 0x956 SWAP2 SWAP1 PUSH2 0x1A68 JUMP JUMPDEST POP POP POP JUMP JUMPDEST PUSH1 0x0 DUP1 PUSH1 0x0 SWAP1 SLOAD SWAP1 PUSH2 0x100 EXP SWAP1 DIV PUSH20 0xFFFFFFFFFFFFFFFFFFFFFFFFFFFFFFFFFFFFFFFF AND SWAP1 POP SWAP1 JUMP JUMPDEST PUSH1 0x0 DUP1 DUP4 DUP4 PUSH1 0x40 MLOAD PUSH1 0x20 ADD PUSH2 0x99A SWAP3 SWAP2 SWAP1 PUSH2 0x1ADD JUMP JUMPDEST PUSH1 0x40 MLOAD PUSH1 0x20 DUP2 DUP4 SUB SUB DUP2 MSTORE SWAP1 PUSH1 0x40 MSTORE DUP1 MLOAD SWAP1 PUSH1 0x20 ADD KECCAK256 SWAP1 POP PUSH1 0x9 PUSH1 0x0 SWAP1 SLOAD SWAP1 PUSH2 0x100 EXP SWAP1 DIV PUSH20 0xFFFFFFFFFFFFFFFFFFFFFFFFFFFFFFFFFFFFFFFF AND DUP2 PUSH1 0x40 MLOAD PUSH1 0x20 ADD PUSH2 0x9E7 SWAP3 SWAP2 SWAP1 PUSH2 0x1BD7 JUMP JUMPDEST PUSH1 0x40 MLOAD PUSH1 0x20 DUP2 DUP4 SUB SUB DUP2 MSTORE SWAP1 PUSH1 0x40 MSTORE DUP1 MLOAD SWAP1 PUSH1 0x20 ADD KECCAK256 PUSH1 0x0 SHR SWAP2 POP POP SWAP3 SWAP2 POP POP JUMP JUMPDEST PUSH1 0xA SLOAD DUP2 JUMP JUMPDEST PUSH1 0x3 PUSH1 0x0 SWAP1 SLOAD SWAP1 PUSH2 0x100 EXP SWAP1 DIV PUSH20 0xFFFFFFFFFFFFFFFFFFFFFFFFFFFFFFFFFFFFFFFF AND DUP2 JUMP JUMPDEST PUSH1 0xB SLOAD DUP2 JUMP JUMPDEST PUSH1 0x9 PUSH1 0x0 SWAP1 SLOAD SWAP1 PUSH2 0x100 EXP SWAP1 DIV PUSH20 0xFFFFFFFFFFFFFFFFFFFFFFFFFFFFFFFFFFFFFFFF AND DUP2 JUMP JUMPDEST PUSH1 0x0 DUP1 PUSH1 0x1 PUSH1 0x0 SWAP1 SLOAD SWAP1 PUSH2 0x100 EXP SWAP1 DIV PUSH20 0xFFFFFFFFFFFFFFFFFFFFFFFFFFFFFFFFFFFFFFFF AND PUSH20 0xFFFFFFFFFFFFFFFFFFFFFFFFFFFFFFFFFFFFFFFF AND CALLER PUSH20 0xFFFFFFFFFFFFFFFFFFFFFFFFFFFFFFFFFFFFFFFF AND EQ PUSH2 0xAEB JUMPI PUSH1 0x40 MLOAD PUSH32 0xBB766EF00000000000000000000000000000000000000000000000000000000 DUP2 MSTORE PUSH1 0x4 ADD PUSH1 0x40 MLOAD DUP1 SWAP2 SUB SWAP1 REVERT JUMPDEST PUSH2 0xAF3 PUSH2 0x10DA JUMP JUMPDEST PUSH1 0x0 DUP5 SUB PUSH2 0xB2D JUMPI PUSH1 0x40 MLOAD PUSH32 0x51BA5F2D00000000000000000000000000000000000000000000000000000000 DUP2 MSTORE PUSH1 0x4 ADD PUSH1 0x40 MLOAD DUP1 SWAP2 SUB SWAP1 REVERT JUMPDEST PUSH1 0x0 DUP4 SUB PUSH2 0xB67 JUMPI PUSH1 0x40 MLOAD PUSH32 0xBC2D457700000000000000000000000000000000000000000000000000000000 DUP2 MSTORE PUSH1 0x4 ADD PUSH1 0x40 MLOAD DUP1 SWAP2 SUB SWAP1 REVERT JUMPDEST DUP5 PUSH20 0xFFFFFFFFFFFFFFFFFFFFFFFFFFFFFFFFFFFFFFFF AND PUSH4 0x23B872DD CALLER ADDRESS DUP8 PUSH1 0x40 MLOAD DUP5 PUSH4 0xFFFFFFFF AND PUSH1 0xE0 SHL DUP2 MSTORE PUSH1 0x4 ADD PUSH2 0xBA4 SWAP4 SWAP3 SWAP2 SWAP1 PUSH2 0x1C19 JUMP JUMPDEST PUSH1 0x20 PUSH1 0x40 MLOAD DUP1 DUP4 SUB DUP2 PUSH1 0x0 DUP8 GAS CALL ISZERO DUP1 ISZERO PUSH2 0xBC3 JUMPI RETURNDATASIZE PUSH1 0x0 DUP1 RETURNDATACOPY RETURNDATASIZE PUSH1 0x0 REVERT JUMPDEST POP POP POP POP PUSH1 0x40 MLOAD RETURNDATASIZE PUSH1 0x1F NOT PUSH1 0x1F DUP3 ADD AND DUP3 ADD DUP1 PUSH1 0x40 MSTORE POP DUP2 ADD SWAP1 PUSH2 0xBE7 SWAP2 SWAP1 PUSH2 0x1A68 JUMP JUMPDEST POP PUSH1 0x8 PUSH1 0x0 SWAP1 SLOAD SWAP1 PUSH2 0x100 EXP SWAP1 DIV PUSH20 0xFFFFFFFFFFFFFFFFFFFFFFFFFFFFFFFFFFFFFFFF AND PUSH20 0xFFFFFFFFFFFFFFFFFFFFFFFFFFFFFFFFFFFFFFFF AND PUSH4 0x95EA7B3 PUSH1 0x7 PUSH1 0x0 SWAP1 SLOAD SWAP1 PUSH2 0x100 EXP SWAP1 DIV PUSH20 0xFFFFFFFFFFFFFFFFFFFFFFFFFFFFFFFFFFFFFFFF AND PUSH32 0xFFFFFFFFFFFFFFFFFFFFFFFFFFFFFFFFFFFFFFFFFFFFFFFFFFFFFFFFFFFFFFFF PUSH1 0x40 MLOAD DUP4 PUSH4 0xFFFFFFFF AND PUSH1 0xE0 SHL DUP2 MSTORE PUSH1 0x4 ADD PUSH2 0xC87 SWAP3 SWAP2 SWAP1 PUSH2 0x1A2A JUMP JUMPDEST PUSH1 0x20 PUSH1 0x40 MLOAD DUP1 DUP4 SUB DUP2 PUSH1 0x0 DUP8 GAS CALL ISZERO DUP1 ISZERO PUSH2 0xCA6 JUMPI RETURNDATASIZE PUSH1 0x0 DUP1 RETURNDATACOPY RETURNDATASIZE PUSH1 0x0 REVERT JUMPDEST POP POP POP POP PUSH1 0x40 MLOAD RETURNDATASIZE PUSH1 0x1F NOT PUSH1 0x1F DUP3 ADD AND DUP3 ADD DUP1 PUSH1 0x40 MSTORE POP DUP2 ADD SWAP1 PUSH2 0xCCA SWAP2 SWAP1 PUSH2 0x1A68 JUMP JUMPDEST POP DUP5 PUSH20 0xFFFFFFFFFFFFFFFFFFFFFFFFFFFFFFFFFFFFFFFF AND PUSH4 0x95EA7B3 PUSH1 0x7 PUSH1 0x0 SWAP1 SLOAD SWAP1 PUSH2 0x100 EXP SWAP1 DIV PUSH20 0xFFFFFFFFFFFFFFFFFFFFFFFFFFFFFFFFFFFFFFFF AND PUSH32 0xFFFFFFFFFFFFFFFFFFFFFFFFFFFFFFFFFFFFFFFFFFFFFFFFFFFFFFFFFFFFFFFF PUSH1 0x40 MLOAD DUP4 PUSH4 0xFFFFFFFF AND PUSH1 0xE0 SHL DUP2 MSTORE PUSH1 0x4 ADD PUSH2 0xD48 SWAP3 SWAP2 SWAP1 PUSH2 0x1A2A JUMP JUMPDEST PUSH1 0x20 PUSH1 0x40 MLOAD DUP1 DUP4 SUB DUP2 PUSH1 0x0 DUP8 GAS CALL ISZERO DUP1 ISZERO PUSH2 0xD67 JUMPI RETURNDATASIZE PUSH1 0x0 DUP1 RETURNDATACOPY RETURNDATASIZE PUSH1 0x0 REVERT JUMPDEST POP POP POP POP PUSH1 0x40 MLOAD RETURNDATASIZE PUSH1 0x1F NOT PUSH1 0x1F DUP3 ADD AND DUP3 ADD DUP1 PUSH1 0x40 MSTORE POP DUP2 ADD SWAP1 PUSH2 0xD8B SWAP2 SWAP1 PUSH2 0x1A68 JUMP JUMPDEST POP PUSH1 0x0 DUP1 PUSH1 0x0 PUSH2 0x2710 SWAP1 POP PUSH1 0x0 PUSH3 0x62AD2 SWAP1 POP PUSH1 0x8 PUSH1 0x0 SWAP1 SLOAD SWAP1 PUSH2 0x100 EXP SWAP1 DIV PUSH20 0xFFFFFFFFFFFFFFFFFFFFFFFFFFFFFFFFFFFFFFFF AND PUSH20 0xFFFFFFFFFFFFFFFFFFFFFFFFFFFFFFFFFFFFFFFF AND DUP10 PUSH20 0xFFFFFFFFFFFFFFFFFFFFFFFFFFFFFFFFFFFFFFFF AND GT ISZERO PUSH2 0xE54 JUMPI PUSH7 0x5730A257890000 PUSH1 0xA DUP2 SWAP1 SSTORE POP DUP2 DUP2 PUSH8 0x16345785D8A0000 PUSH2 0xE17 SWAP2 SWAP1 PUSH2 0x1C7F JUMP JUMPDEST PUSH2 0xE21 SWAP2 SWAP1 PUSH2 0x1CF0 JUMP JUMPDEST PUSH1 0xB DUP2 SWAP1 SSTORE POP PUSH1 0x8 PUSH1 0x0 SWAP1 SLOAD SWAP1 PUSH2 0x100 EXP SWAP1 DIV PUSH20 0xFFFFFFFFFFFFFFFFFFFFFFFFFFFFFFFFFFFFFFFF AND SWAP4 POP DUP9 SWAP3 POP PUSH2 0xEA0 JUMP JUMPDEST PUSH10 0x2EEFFD45E1400000000 PUSH1 0xA DUP2 SWAP1 SSTORE POP PUSH11 0x1E38CC7124502EEA60000 PUSH1 0xB DUP2 SWAP1 SSTORE POP DUP9 SWAP4 POP PUSH1 0x8 PUSH1 0x0 SWAP1 SLOAD SWAP1 PUSH2 0x100 EXP SWAP1 DIV PUSH20 0xFFFFFFFFFFFFFFFFFFFFFFFFFFFFFFFFFFFFFFFF AND SWAP3 POP JUMPDEST PUSH1 0x0 PUSH2 0xEAC DUP6 DUP6 PUSH2 0x984 JUMP JUMPDEST SWAP1 POP PUSH1 0x0 PUSH1 0x47 DUP7 DUP7 PUSH2 0x8CA0 PUSH1 0xA SLOAD PUSH1 0x40 MLOAD PUSH1 0x20 ADD PUSH2 0xECE SWAP6 SWAP5 SWAP4 SWAP3 SWAP2 SWAP1 PUSH2 0x1DB2 JUMP JUMPDEST PUSH1 0x40 MLOAD PUSH1 0x20 DUP2 DUP4 SUB SUB DUP2 MSTORE SWAP1 PUSH1 0x40 MSTORE SWAP1 POP PUSH1 0x0 PUSH1 0x1F DUP8 DUP8 PUSH2 0x8CA0 PUSH1 0x0 DUP1 PUSH1 0xB SLOAD PUSH1 0xA SLOAD PUSH1 0xA SLOAD PUSH1 0x0 DUP13 PUSH1 0x40 MLOAD PUSH1 0x20 ADD PUSH2 0xF11 SWAP12 SWAP11 SWAP10 SWAP9 SWAP8 SWAP7 SWAP6 SWAP5 SWAP4 SWAP3 SWAP2 SWAP1 PUSH2 0x1E7B JUMP JUMPDEST PUSH1 0x40 MLOAD PUSH1 0x20 DUP2 DUP4 SUB SUB DUP2 MSTORE SWAP1 PUSH1 0x40 MSTORE SWAP1 POP PUSH1 0x0 PUSH1 0x2 PUSH1 0x3 DUP5 PUSH1 0x80 DUP6 PUSH1 0x40 MLOAD PUSH1 0x20 ADD PUSH2 0xF40 SWAP6 SWAP5 SWAP4 SWAP3 SWAP2 SWAP1 PUSH2 0x202C JUMP JUMPDEST PUSH1 0x40 MLOAD PUSH1 0x20 DUP2 DUP4 SUB SUB DUP2 MSTORE SWAP1 PUSH1 0x40 MSTORE SWAP1 POP DUP10 SWAP12 POP DUP9 SWAP11 POP PUSH1 0x7 PUSH1 0x0 SWAP1 SLOAD SWAP1 PUSH2 0x100 EXP SWAP1 DIV PUSH20 0xFFFFFFFFFFFFFFFFFFFFFFFFFFFFFFFFFFFFFFFF AND PUSH20 0xFFFFFFFFFFFFFFFFFFFFFFFFFFFFFFFFFFFFFFFF AND PUSH4 0xA15112F9 PUSH1 0x6 DUP4 PUSH1 0x40 MLOAD DUP4 PUSH4 0xFFFFFFFF AND PUSH1 0xE0 SHL DUP2 MSTORE PUSH1 0x4 ADD PUSH2 0xFB5 SWAP3 SWAP2 SWAP1 PUSH2 0x20C8 JUMP JUMPDEST PUSH1 0x0 PUSH1 0x40 MLOAD DUP1 DUP4 SUB DUP2 PUSH1 0x0 DUP8 GAS CALL ISZERO DUP1 ISZERO PUSH2 0xFD4 JUMPI RETURNDATASIZE PUSH1 0x0 DUP1 RETURNDATACOPY RETURNDATASIZE PUSH1 0x0 REVERT JUMPDEST POP POP POP POP PUSH1 0x40 MLOAD RETURNDATASIZE PUSH1 0x0 DUP3 RETURNDATACOPY RETURNDATASIZE PUSH1 0x1F NOT PUSH1 0x1F DUP3 ADD AND DUP3 ADD DUP1 PUSH1 0x40 MSTORE POP DUP2 ADD SWAP1 PUSH2 0xFFD SWAP2 SWAP1 PUSH2 0x221E JUMP JUMPDEST POP PUSH1 0x5 DUP14 SWAP1 DUP1 PUSH1 0x1 DUP2 SLOAD ADD DUP1 DUP3 SSTORE DUP1 SWAP2 POP POP PUSH1 0x1 SWAP1 SUB SWAP1 PUSH1 0x0 MSTORE PUSH1 0x20 PUSH1 0x0 KECCAK256 ADD PUSH1 0x0 SWAP1 SWAP2 SWAP1 SWAP2 SWAP1 SWAP2 PUSH2 0x100 EXP DUP2 SLOAD DUP2 PUSH20 0xFFFFFFFFFFFFFFFFFFFFFFFFFFFFFFFFFFFFFFFF MUL NOT AND SWAP1 DUP4 PUSH20 0xFFFFFFFFFFFFFFFFFFFFFFFFFFFFFFFFFFFFFFFF AND MUL OR SWAP1 SSTORE POP DUP4 PUSH20 0xFFFFFFFFFFFFFFFFFFFFFFFFFFFFFFFFFFFFFFFF AND DUP14 PUSH20 0xFFFFFFFFFFFFFFFFFFFFFFFFFFFFFFFFFFFFFFFF AND PUSH32 0x2F3289D16DBC3007471D28C4936DF3A95222BC938112449400D049637E3309CE DUP12 DUP14 TIMESTAMP PUSH1 0x40 MLOAD PUSH2 0x10C2 SWAP4 SWAP3 SWAP2 SWAP1 PUSH2 0x2267 JUMP JUMPDEST PUSH1 0x40 MLOAD DUP1 SWAP2 SUB SWAP1 LOG3 POP POP POP POP POP POP POP POP SWAP4 POP SWAP4 SWAP2 POP POP JUMP JUMPDEST PUSH1 0x0 PUSH1 0x8 PUSH1 0x0 SWAP1 SLOAD SWAP1 PUSH2 0x100 EXP SWAP1 DIV PUSH20 0xFFFFFFFFFFFFFFFFFFFFFFFFFFFFFFFFFFFFFFFF AND PUSH20 0xFFFFFFFFFFFFFFFFFFFFFFFFFFFFFFFFFFFFFFFF AND CALLVALUE PUSH1 0x40 MLOAD PUSH2 0x1122 SWAP1 PUSH2 0x22CF JUMP JUMPDEST PUSH1 0x0 PUSH1 0x40 MLOAD DUP1 DUP4 SUB DUP2 DUP6 DUP8 GAS CALL SWAP3 POP POP POP RETURNDATASIZE DUP1 PUSH1 0x0 DUP2 EQ PUSH2 0x115F JUMPI PUSH1 0x40 MLOAD SWAP2 POP PUSH1 0x1F NOT PUSH1 0x3F RETURNDATASIZE ADD AND DUP3 ADD PUSH1 0x40 MSTORE RETURNDATASIZE DUP3 MSTORE RETURNDATASIZE PUSH1 0x0 PUSH1 0x20 DUP5 ADD RETURNDATACOPY PUSH2 0x1164 JUMP JUMPDEST PUSH1 0x60 SWAP2 POP JUMPDEST POP POP SWAP1 POP DUP1 PUSH2 0x11A8 JUMPI PUSH1 0x40 MLOAD PUSH32 0x8C379A000000000000000000000000000000000000000000000000000000000 DUP2 MSTORE PUSH1 0x4 ADD PUSH2 0x119F SWAP1 PUSH2 0x2330 JUMP JUMPDEST PUSH1 0x40 MLOAD DUP1 SWAP2 SUB SWAP1 REVERT JUMPDEST POP JUMP JUMPDEST PUSH2 0x11B3 PUSH2 0x130B JUMP JUMPDEST DUP1 PUSH1 0x1 PUSH1 0x0 PUSH2 0x100 EXP DUP2 SLOAD DUP2 PUSH20 0xFFFFFFFFFFFFFFFFFFFFFFFFFFFFFFFFFFFFFFFF MUL NOT AND SWAP1 DUP4 PUSH20 0xFFFFFFFFFFFFFFFFFFFFFFFFFFFFFFFFFFFFFFFF AND MUL OR SWAP1 SSTORE POP POP JUMP JUMPDEST PUSH2 0x11FF PUSH2 0x130B JUMP JUMPDEST PUSH1 0x0 PUSH20 0xFFFFFFFFFFFFFFFFFFFFFFFFFFFFFFFFFFFFFFFF AND DUP2 PUSH20 0xFFFFFFFFFFFFFFFFFFFFFFFFFFFFFFFFFFFFFFFF AND SUB PUSH2 0x1271 JUMPI PUSH1 0x0 PUSH1 0x40 MLOAD PUSH32 0x1E4FBDF700000000000000000000000000000000000000000000000000000000 DUP2 MSTORE PUSH1 0x4 ADD PUSH2 0x1268 SWAP2 SWAP1 PUSH2 0x1716 JUMP JUMPDEST PUSH1 0x40 MLOAD DUP1 SWAP2 SUB SWAP1 REVERT JUMPDEST PUSH2 0x127A DUP2 PUSH2 0x1410 JUMP JUMPDEST POP JUMP JUMPDEST PUSH1 0x6 DUP1 SLOAD PUSH2 0x128A SWAP1 PUSH2 0x237F JUMP JUMPDEST DUP1 PUSH1 0x1F ADD PUSH1 0x20 DUP1 SWAP2 DIV MUL PUSH1 0x20 ADD PUSH1 0x40 MLOAD SWAP1 DUP2 ADD PUSH1 0x40 MSTORE DUP1 SWAP3 SWAP2 SWAP1 DUP2 DUP2 MSTORE PUSH1 0x20 ADD DUP3 DUP1 SLOAD PUSH2 0x12B6 SWAP1 PUSH2 0x237F JUMP JUMPDEST DUP1 ISZERO PUSH2 0x1303 JUMPI DUP1 PUSH1 0x1F LT PUSH2 0x12D8 JUMPI PUSH2 0x100 DUP1 DUP4 SLOAD DIV MUL DUP4 MSTORE SWAP2 PUSH1 0x20 ADD SWAP2 PUSH2 0x1303 JUMP JUMPDEST DUP3 ADD SWAP2 SWAP1 PUSH1 0x0 MSTORE PUSH1 0x20 PUSH1 0x0 KECCAK256 SWAP1 JUMPDEST DUP2 SLOAD DUP2 MSTORE SWAP1 PUSH1 0x1 ADD SWAP1 PUSH1 0x20 ADD DUP1 DUP4 GT PUSH2 0x12E6 JUMPI DUP3 SWAP1 SUB PUSH1 0x1F AND DUP3 ADD SWAP2 JUMPDEST POP POP POP POP POP DUP2 JUMP JUMPDEST PUSH1 0x0 PUSH2 0x1315 PUSH2 0x14D4 JUMP JUMPDEST SWAP1 POP DUP1 PUSH20 0xFFFFFFFFFFFFFFFFFFFFFFFFFFFFFFFFFFFFFFFF AND PUSH2 0x1336 PUSH2 0x95B JUMP JUMPDEST PUSH20 0xFFFFFFFFFFFFFFFFFFFFFFFFFFFFFFFFFFFFFFFF AND EQ ISZERO DUP1 ISZERO PUSH2 0x13A4 JUMPI POP PUSH1 0x2 PUSH1 0x0 DUP3 PUSH20 0xFFFFFFFFFFFFFFFFFFFFFFFFFFFFFFFFFFFFFFFF AND PUSH20 0xFFFFFFFFFFFFFFFFFFFFFFFFFFFFFFFFFFFFFFFF AND DUP2 MSTORE PUSH1 0x20 ADD SWAP1 DUP2 MSTORE PUSH1 0x20 ADD PUSH1 0x0 KECCAK256 PUSH1 0x0 SWAP1 SLOAD SWAP1 PUSH2 0x100 EXP SWAP1 DIV PUSH1 0xFF AND ISZERO JUMPDEST ISZERO PUSH2 0x13ED JUMPI PUSH2 0x13B1 PUSH2 0x14D4 JUMP JUMPDEST PUSH1 0x40 MLOAD PUSH32 0x118CDAA700000000000000000000000000000000000000000000000000000000 DUP2 MSTORE PUSH1 0x4 ADD PUSH2 0x13E4 SWAP2 SWAP1 PUSH2 0x1716 JUMP JUMPDEST PUSH1 0x40 MLOAD DUP1 SWAP2 SUB SWAP1 REVERT JUMPDEST POP JUMP JUMPDEST PUSH1 0x0 CODESIZE PUSH1 0x0 CODESIZE DUP5 DUP7 GAS CALL PUSH2 0x140C JUMPI PUSH4 0xB12D13EB PUSH1 0x0 MSTORE PUSH1 0x4 PUSH1 0x1C REVERT JUMPDEST POP POP JUMP JUMPDEST PUSH1 0x0 DUP1 PUSH1 0x0 SWAP1 SLOAD SWAP1 PUSH2 0x100 EXP SWAP1 DIV PUSH20 0xFFFFFFFFFFFFFFFFFFFFFFFFFFFFFFFFFFFFFFFF AND SWAP1 POP DUP2 PUSH1 0x0 DUP1 PUSH2 0x100 EXP DUP2 SLOAD DUP2 PUSH20 0xFFFFFFFFFFFFFFFFFFFFFFFFFFFFFFFFFFFFFFFF MUL NOT AND SWAP1 DUP4 PUSH20 0xFFFFFFFFFFFFFFFFFFFFFFFFFFFFFFFFFFFFFFFF AND MUL OR SWAP1 SSTORE POP DUP2 PUSH20 0xFFFFFFFFFFFFFFFFFFFFFFFFFFFFFFFFFFFFFFFF AND DUP2 PUSH20 0xFFFFFFFFFFFFFFFFFFFFFFFFFFFFFFFFFFFFFFFF AND PUSH32 0x8BE0079C531659141344CD1FD0A4F28419497F9722A3DAAFE3B4186F6B6457E0 PUSH1 0x40 MLOAD PUSH1 0x40 MLOAD DUP1 SWAP2 SUB SWAP1 LOG3 POP POP JUMP JUMPDEST PUSH1 0x0 CALLER SWAP1 POP SWAP1 JUMP JUMPDEST PUSH1 0x0 PUSH1 0x40 MLOAD SWAP1 POP SWAP1 JUMP JUMPDEST PUSH1 0x0 DUP1 REVERT JUMPDEST PUSH1 0x0 DUP1 REVERT JUMPDEST PUSH1 0x0 PUSH20 0xFFFFFFFFFFFFFFFFFFFFFFFFFFFFFFFFFFFFFFFF DUP3 AND SWAP1 POP SWAP2 SWAP1 POP JUMP JUMPDEST PUSH1 0x0 PUSH2 0x151B DUP3 PUSH2 0x14F0 JUMP JUMPDEST SWAP1 POP SWAP2 SWAP1 POP JUMP JUMPDEST PUSH2 0x152B DUP2 PUSH2 0x1510 JUMP JUMPDEST DUP2 EQ PUSH2 0x1536 JUMPI PUSH1 0x0 DUP1 REVERT JUMPDEST POP JUMP JUMPDEST PUSH1 0x0 DUP2 CALLDATALOAD SWAP1 POP PUSH2 0x1548 DUP2 PUSH2 0x1522 JUMP JUMPDEST SWAP3 SWAP2 POP POP JUMP JUMPDEST PUSH1 0x0 DUP2 SWAP1 POP SWAP2 SWAP1 POP JUMP JUMPDEST PUSH2 0x1561 DUP2 PUSH2 0x154E JUMP JUMPDEST DUP2 EQ PUSH2 0x156C JUMPI PUSH1 0x0 DUP1 REVERT JUMPDEST POP JUMP JUMPDEST PUSH1 0x0 DUP2 CALLDATALOAD SWAP1 POP PUSH2 0x157E DUP2 PUSH2 0x1558 JUMP JUMPDEST SWAP3 SWAP2 POP POP JUMP JUMPDEST PUSH1 0x0 DUP1 PUSH1 0x40 DUP4 DUP6 SUB SLT ISZERO PUSH2 0x159B JUMPI PUSH2 0x159A PUSH2 0x14E6 JUMP JUMPDEST JUMPDEST PUSH1 0x0 PUSH2 0x15A9 DUP6 DUP3 DUP7 ADD PUSH2 0x1539 JUMP JUMPDEST SWAP3 POP POP PUSH1 0x20 PUSH2 0x15BA DUP6 DUP3 DUP7 ADD PUSH2 0x156F JUMP JUMPDEST SWAP2 POP POP SWAP3 POP SWAP3 SWAP1 POP JUMP JUMPDEST PUSH1 0x0 DUP2 MLOAD SWAP1 POP SWAP2 SWAP1 POP JUMP JUMPDEST PUSH1 0x0 DUP3 DUP3 MSTORE PUSH1 0x20 DUP3 ADD SWAP1 POP SWAP3 SWAP2 POP POP JUMP JUMPDEST PUSH1 0x0 DUP2 SWAP1 POP PUSH1 0x20 DUP3 ADD SWAP1 POP SWAP2 SWAP1 POP JUMP JUMPDEST PUSH2 0x15F9 DUP2 PUSH2 0x1510 JUMP JUMPDEST DUP3 MSTORE POP POP JUMP JUMPDEST PUSH1 0x0 PUSH2 0x160B DUP4 DUP4 PUSH2 0x15F0 JUMP JUMPDEST PUSH1 0x20 DUP4 ADD SWAP1 POP SWAP3 SWAP2 POP POP JUMP JUMPDEST PUSH1 0x0 PUSH1 0x20 DUP3 ADD SWAP1 POP SWAP2 SWAP1 POP JUMP JUMPDEST PUSH1 0x0 PUSH2 0x162F DUP3 PUSH2 0x15C4 JUMP JUMPDEST PUSH2 0x1639 DUP2 DUP6 PUSH2 0x15CF JUMP JUMPDEST SWAP4 POP PUSH2 0x1644 DUP4 PUSH2 0x15E0 JUMP JUMPDEST DUP1 PUSH1 0x0 JUMPDEST DUP4 DUP2 LT ISZERO PUSH2 0x1675 JUMPI DUP2 MLOAD PUSH2 0x165C DUP9 DUP3 PUSH2 0x15FF JUMP JUMPDEST SWAP8 POP PUSH2 0x1667 DUP4 PUSH2 0x1617 JUMP JUMPDEST SWAP3 POP POP PUSH1 0x1 DUP2 ADD SWAP1 POP PUSH2 0x1648 JUMP JUMPDEST POP DUP6 SWAP4 POP POP POP POP SWAP3 SWAP2 POP POP JUMP JUMPDEST PUSH1 0x0 PUSH1 0x20 DUP3 ADD SWAP1 POP DUP2 DUP2 SUB PUSH1 0x0 DUP4 ADD MSTORE PUSH2 0x169C DUP2 DUP5 PUSH2 0x1624 JUMP JUMPDEST SWAP1 POP SWAP3 SWAP2 POP POP JUMP JUMPDEST PUSH1 0x0 PUSH1 0x20 DUP3 DUP5 SUB SLT ISZERO PUSH2 0x16BA JUMPI PUSH2 0x16B9 PUSH2 0x14E6 JUMP JUMPDEST JUMPDEST PUSH1 0x0 PUSH2 0x16C8 DUP5 DUP3 DUP6 ADD PUSH2 0x1539 JUMP JUMPDEST SWAP2 POP POP SWAP3 SWAP2 POP POP JUMP JUMPDEST PUSH1 0x0 DUP2 ISZERO ISZERO SWAP1 POP SWAP2 SWAP1 POP JUMP JUMPDEST PUSH2 0x16E6 DUP2 PUSH2 0x16D1 JUMP JUMPDEST DUP3 MSTORE POP POP JUMP JUMPDEST PUSH1 0x0 PUSH1 0x20 DUP3 ADD SWAP1 POP PUSH2 0x1701 PUSH1 0x0 DUP4 ADD DUP5 PUSH2 0x16DD JUMP JUMPDEST SWAP3 SWAP2 POP POP JUMP JUMPDEST PUSH2 0x1710 DUP2 PUSH2 0x1510 JUMP JUMPDEST DUP3 MSTORE POP POP JUMP JUMPDEST PUSH1 0x0 PUSH1 0x20 DUP3 ADD SWAP1 POP PUSH2 0x172B PUSH1 0x0 DUP4 ADD DUP5 PUSH2 0x1707 JUMP JUMPDEST SWAP3 SWAP2 POP POP JUMP JUMPDEST PUSH2 0x173A DUP2 PUSH2 0x16D1 JUMP JUMPDEST DUP2 EQ PUSH2 0x1745 JUMPI PUSH1 0x0 DUP1 REVERT JUMPDEST POP JUMP JUMPDEST PUSH1 0x0 DUP2 CALLDATALOAD SWAP1 POP PUSH2 0x1757 DUP2 PUSH2 0x1731 JUMP JUMPDEST SWAP3 SWAP2 POP POP JUMP JUMPDEST PUSH1 0x0 DUP1 PUSH1 0x40 DUP4 DUP6 SUB SLT ISZERO PUSH2 0x1774 JUMPI PUSH2 0x1773 PUSH2 0x14E6 JUMP JUMPDEST JUMPDEST PUSH1 0x0 PUSH2 0x1782 DUP6 DUP3 DUP7 ADD PUSH2 0x1539 JUMP JUMPDEST SWAP3 POP POP PUSH1 0x20 PUSH2 0x1793 DUP6 DUP3 DUP7 ADD PUSH2 0x1748 JUMP JUMPDEST SWAP2 POP POP SWAP3 POP SWAP3 SWAP1 POP JUMP JUMPDEST PUSH1 0x0 PUSH1 0x20 DUP3 DUP5 SUB SLT ISZERO PUSH2 0x17B3 JUMPI PUSH2 0x17B2 PUSH2 0x14E6 JUMP JUMPDEST JUMPDEST PUSH1 0x0 PUSH2 0x17C1 DUP5 DUP3 DUP6 ADD PUSH2 0x156F JUMP JUMPDEST SWAP2 POP POP SWAP3 SWAP2 POP POP JUMP JUMPDEST PUSH1 0x0 DUP2 SWAP1 POP SWAP2 SWAP1 POP JUMP JUMPDEST PUSH1 0x0 PUSH2 0x17EF PUSH2 0x17EA PUSH2 0x17E5 DUP5 PUSH2 0x14F0 JUMP JUMPDEST PUSH2 0x17CA JUMP JUMPDEST PUSH2 0x14F0 JUMP JUMPDEST SWAP1 POP SWAP2 SWAP1 POP JUMP JUMPDEST PUSH1 0x0 PUSH2 0x1801 DUP3 PUSH2 0x17D4 JUMP JUMPDEST SWAP1 POP SWAP2 SWAP1 POP JUMP JUMPDEST PUSH1 0x0 PUSH2 0x1813 DUP3 PUSH2 0x17F6 JUMP JUMPDEST SWAP1 POP SWAP2 SWAP1 POP JUMP JUMPDEST PUSH2 0x1823 DUP2 PUSH2 0x1808 JUMP JUMPDEST DUP3 MSTORE POP POP JUMP JUMPDEST PUSH1 0x0 PUSH1 0x20 DUP3 ADD SWAP1 POP PUSH2 0x183E PUSH1 0x0 DUP4 ADD DUP5 PUSH2 0x181A JUMP JUMPDEST SWAP3 SWAP2 POP POP JUMP JUMPDEST PUSH1 0x0 DUP1 PUSH1 0x40 DUP4 DUP6 SUB SLT ISZERO PUSH2 0x185B JUMPI PUSH2 0x185A PUSH2 0x14E6 JUMP JUMPDEST JUMPDEST PUSH1 0x0 PUSH2 0x1869 DUP6 DUP3 DUP7 ADD PUSH2 0x1539 JUMP JUMPDEST SWAP3 POP POP PUSH1 0x20 PUSH2 0x187A DUP6 DUP3 DUP7 ADD PUSH2 0x1539 JUMP JUMPDEST SWAP2 POP POP SWAP3 POP SWAP3 SWAP1 POP JUMP JUMPDEST PUSH2 0x188D DUP2 PUSH2 0x154E JUMP JUMPDEST DUP3 MSTORE POP POP JUMP JUMPDEST PUSH1 0x0 PUSH1 0x20 DUP3 ADD SWAP1 POP PUSH2 0x18A8 PUSH1 0x0 DUP4 ADD DUP5 PUSH2 0x1884 JUMP JUMPDEST SWAP3 SWAP2 POP POP JUMP JUMPDEST PUSH1 0x0 PUSH2 0x18B9 DUP3 PUSH2 0x17D4 JUMP JUMPDEST SWAP1 POP SWAP2 SWAP1 POP JUMP JUMPDEST PUSH1 0x0 PUSH2 0x18CB DUP3 PUSH2 0x18AE JUMP JUMPDEST SWAP1 POP SWAP2 SWAP1 POP JUMP JUMPDEST PUSH2 0x18DB DUP2 PUSH2 0x18C0 JUMP JUMPDEST DUP3 MSTORE POP POP JUMP JUMPDEST PUSH1 0x0 PUSH1 0x20 DUP3 ADD SWAP1 POP PUSH2 0x18F6 PUSH1 0x0 DUP4 ADD DUP5 PUSH2 0x18D2 JUMP JUMPDEST SWAP3 SWAP2 POP POP JUMP JUMPDEST PUSH1 0x0 DUP1 PUSH1 0x0 PUSH1 0x60 DUP5 DUP7 SUB SLT ISZERO PUSH2 0x1915 JUMPI PUSH2 0x1914 PUSH2 0x14E6 JUMP JUMPDEST JUMPDEST PUSH1 0x0 PUSH2 0x1923 DUP7 DUP3 DUP8 ADD PUSH2 0x1539 JUMP JUMPDEST SWAP4 POP POP PUSH1 0x20 PUSH2 0x1934 DUP7 DUP3 DUP8 ADD PUSH2 0x156F JUMP JUMPDEST SWAP3 POP POP PUSH1 0x40 PUSH2 0x1945 DUP7 DUP3 DUP8 ADD PUSH2 0x156F JUMP JUMPDEST SWAP2 POP POP SWAP3 POP SWAP3 POP SWAP3 JUMP JUMPDEST PUSH1 0x0 PUSH1 0x40 DUP3 ADD SWAP1 POP PUSH2 0x1964 PUSH1 0x0 DUP4 ADD DUP6 PUSH2 0x1884 JUMP JUMPDEST PUSH2 0x1971 PUSH1 0x20 DUP4 ADD DUP5 PUSH2 0x1884 JUMP JUMPDEST SWAP4 SWAP3 POP POP POP JUMP JUMPDEST PUSH1 0x0 DUP2 MLOAD SWAP1 POP SWAP2 SWAP1 POP JUMP JUMPDEST PUSH1 0x0 DUP3 DUP3 MSTORE PUSH1 0x20 DUP3 ADD SWAP1 POP SWAP3 SWAP2 POP POP JUMP JUMPDEST PUSH1 0x0 JUMPDEST DUP4 DUP2 LT ISZERO PUSH2 0x19B2 JUMPI DUP1 DUP3 ADD MLOAD DUP2 DUP5 ADD MSTORE PUSH1 0x20 DUP2 ADD SWAP1 POP PUSH2 0x1997 JUMP JUMPDEST PUSH1 0x0 DUP5 DUP5 ADD MSTORE POP POP POP POP JUMP JUMPDEST PUSH1 0x0 PUSH1 0x1F NOT PUSH1 0x1F DUP4 ADD AND SWAP1 POP SWAP2 SWAP1 POP JUMP JUMPDEST PUSH1 0x0 PUSH2 0x19DA DUP3 PUSH2 0x1978 JUMP JUMPDEST PUSH2 0x19E4 DUP2 DUP6 PUSH2 0x1983 JUMP JUMPDEST SWAP4 POP PUSH2 0x19F4 DUP2 DUP6 PUSH1 0x20 DUP7 ADD PUSH2 0x1994 JUMP JUMPDEST PUSH2 0x19FD DUP2 PUSH2 0x19BE JUMP JUMPDEST DUP5 ADD SWAP2 POP POP SWAP3 SWAP2 POP POP JUMP JUMPDEST PUSH1 0x0 PUSH1 0x20 DUP3 ADD SWAP1 POP DUP2 DUP2 SUB PUSH1 0x0 DUP4 ADD MSTORE PUSH2 0x1A22 DUP2 DUP5 PUSH2 0x19CF JUMP JUMPDEST SWAP1 POP SWAP3 SWAP2 POP POP JUMP JUMPDEST PUSH1 0x0 PUSH1 0x40 DUP3 ADD SWAP1 POP PUSH2 0x1A3F PUSH1 0x0 DUP4 ADD DUP6 PUSH2 0x1707 JUMP JUMPDEST PUSH2 0x1A4C PUSH1 0x20 DUP4 ADD DUP5 PUSH2 0x1884 JUMP JUMPDEST SWAP4 SWAP3 POP POP POP JUMP JUMPDEST PUSH1 0x0 DUP2 MLOAD SWAP1 POP PUSH2 0x1A62 DUP2 PUSH2 0x1731 JUMP JUMPDEST SWAP3 SWAP2 POP POP JUMP JUMPDEST PUSH1 0x0 PUSH1 0x20 DUP3 DUP5 SUB SLT ISZERO PUSH2 0x1A7E JUMPI PUSH2 0x1A7D PUSH2 0x14E6 JUMP JUMPDEST JUMPDEST PUSH1 0x0 PUSH2 0x1A8C DUP5 DUP3 DUP6 ADD PUSH2 0x1A53 JUMP JUMPDEST SWAP2 POP POP SWAP3 SWAP2 POP POP JUMP JUMPDEST PUSH1 0x0 DUP2 PUSH1 0x60 SHL SWAP1 POP SWAP2 SWAP1 POP JUMP JUMPDEST PUSH1 0x0 PUSH2 0x1AAD DUP3 PUSH2 0x1A95 JUMP JUMPDEST SWAP1 POP SWAP2 SWAP1 POP JUMP JUMPDEST PUSH1 0x0 PUSH2 0x1ABF DUP3 PUSH2 0x1AA2 JUMP JUMPDEST SWAP1 POP SWAP2 SWAP1 POP JUMP JUMPDEST PUSH2 0x1AD7 PUSH2 0x1AD2 DUP3 PUSH2 0x1510 JUMP JUMPDEST PUSH2 0x1AB4 JUMP JUMPDEST DUP3 MSTORE POP POP JUMP JUMPDEST PUSH1 0x0 PUSH2 0x1AE9 DUP3 DUP6 PUSH2 0x1AC6 JUMP JUMPDEST PUSH1 0x14 DUP3 ADD SWAP2 POP PUSH2 0x1AF9 DUP3 DUP5 PUSH2 0x1AC6 JUMP JUMPDEST PUSH1 0x14 DUP3 ADD SWAP2 POP DUP2 SWAP1 POP SWAP4 SWAP3 POP POP POP JUMP JUMPDEST PUSH1 0x0 DUP2 SWAP1 POP SWAP3 SWAP2 POP POP JUMP JUMPDEST PUSH32 0xFF00000000000000000000000000000000000000000000000000000000000000 PUSH1 0x0 DUP3 ADD MSTORE POP JUMP JUMPDEST PUSH1 0x0 PUSH2 0x1B4A PUSH1 0x1 DUP4 PUSH2 0x1B09 JUMP JUMPDEST SWAP2 POP PUSH2 0x1B55 DUP3 PUSH2 0x1B14 JUMP JUMPDEST PUSH1 0x1 DUP3 ADD SWAP1 POP SWAP2 SWAP1 POP JUMP JUMPDEST PUSH1 0x0 DUP2 SWAP1 POP SWAP2 SWAP1 POP JUMP JUMPDEST PUSH1 0x0 DUP2 SWAP1 POP SWAP2 SWAP1 POP JUMP JUMPDEST PUSH2 0x1B85 PUSH2 0x1B80 DUP3 PUSH2 0x1B60 JUMP JUMPDEST PUSH2 0x1B6A JUMP JUMPDEST DUP3 MSTORE POP POP JUMP JUMPDEST PUSH32 0xF8FB854B80D71035CC709012CE23ACCAD9A804FCF7B90AC0C663E12C58A9C446 PUSH1 0x0 DUP3 ADD MSTORE POP JUMP JUMPDEST PUSH1 0x0 PUSH2 0x1BC1 PUSH1 0x20 DUP4 PUSH2 0x1B09 JUMP JUMPDEST SWAP2 POP PUSH2 0x1BCC DUP3 PUSH2 0x1B8B JUMP JUMPDEST PUSH1 0x20 DUP3 ADD SWAP1 POP SWAP2 SWAP1 POP JUMP JUMPDEST PUSH1 0x0 PUSH2 0x1BE2 DUP3 PUSH2 0x1B3D JUMP JUMPDEST SWAP2 POP PUSH2 0x1BEE DUP3 DUP6 PUSH2 0x1AC6 JUMP JUMPDEST PUSH1 0x14 DUP3 ADD SWAP2 POP PUSH2 0x1BFE DUP3 DUP5 PUSH2 0x1B74 JUMP JUMPDEST PUSH1 0x20 DUP3 ADD SWAP2 POP PUSH2 0x1C0D DUP3 PUSH2 0x1BB4 JUMP JUMPDEST SWAP2 POP DUP2 SWAP1 POP SWAP4 SWAP3 POP POP POP JUMP JUMPDEST PUSH1 0x0 PUSH1 0x60 DUP3 ADD SWAP1 POP PUSH2 0x1C2E PUSH1 0x0 DUP4 ADD DUP7 PUSH2 0x1707 JUMP JUMPDEST PUSH2 0x1C3B PUSH1 0x20 DUP4 ADD DUP6 PUSH2 0x1707 JUMP JUMPDEST PUSH2 0x1C48 PUSH1 0x40 DUP4 ADD DUP5 PUSH2 0x1884 JUMP JUMPDEST SWAP5 SWAP4 POP POP POP POP JUMP JUMPDEST PUSH32 0x4E487B7100000000000000000000000000000000000000000000000000000000 PUSH1 0x0 MSTORE PUSH1 0x11 PUSH1 0x4 MSTORE PUSH1 0x24 PUSH1 0x0 REVERT JUMPDEST PUSH1 0x0 PUSH2 0x1C8A DUP3 PUSH2 0x154E JUMP JUMPDEST SWAP2 POP PUSH2 0x1C95 DUP4 PUSH2 0x154E JUMP JUMPDEST SWAP3 POP DUP3 DUP3 MUL PUSH2 0x1CA3 DUP2 PUSH2 0x154E JUMP JUMPDEST SWAP2 POP DUP3 DUP3 DIV DUP5 EQ DUP4 ISZERO OR PUSH2 0x1CBA JUMPI PUSH2 0x1CB9 PUSH2 0x1C50 JUMP JUMPDEST JUMPDEST POP SWAP3 SWAP2 POP POP JUMP JUMPDEST PUSH32 0x4E487B7100000000000000000000000000000000000000000000000000000000 PUSH1 0x0 MSTORE PUSH1 0x12 PUSH1 0x4 MSTORE PUSH1 0x24 PUSH1 0x0 REVERT JUMPDEST PUSH1 0x0 PUSH2 0x1CFB DUP3 PUSH2 0x154E JUMP JUMPDEST SWAP2 POP PUSH2 0x1D06 DUP4 PUSH2 0x154E JUMP JUMPDEST SWAP3 POP DUP3 PUSH2 0x1D16 JUMPI PUSH2 0x1D15 PUSH2 0x1CC1 JUMP JUMPDEST JUMPDEST DUP3 DUP3 DIV SWAP1 POP SWAP3 SWAP2 POP POP JUMP JUMPDEST PUSH1 0x0 DUP2 SWAP1 POP SWAP2 SWAP1 POP JUMP JUMPDEST PUSH1 0x0 PUSH1 0xFF DUP3 AND SWAP1 POP SWAP2 SWAP1 POP JUMP JUMPDEST PUSH1 0x0 PUSH2 0x1D53 PUSH2 0x1D4E PUSH2 0x1D49 DUP5 PUSH2 0x1D21 JUMP JUMPDEST PUSH2 0x17CA JUMP JUMPDEST PUSH2 0x1D2B JUMP JUMPDEST SWAP1 POP SWAP2 SWAP1 POP JUMP JUMPDEST PUSH2 0x1D63 DUP2 PUSH2 0x1D38 JUMP JUMPDEST DUP3 MSTORE POP POP JUMP JUMPDEST PUSH1 0x0 DUP2 SWAP1 POP SWAP2 SWAP1 POP JUMP JUMPDEST PUSH1 0x0 PUSH2 0xFFFF DUP3 AND SWAP1 POP SWAP2 SWAP1 POP JUMP JUMPDEST PUSH1 0x0 PUSH2 0x1D9C PUSH2 0x1D97 PUSH2 0x1D92 DUP5 PUSH2 0x1D69 JUMP JUMPDEST PUSH2 0x17CA JUMP JUMPDEST PUSH2 0x1D73 JUMP JUMPDEST SWAP1 POP SWAP2 SWAP1 POP JUMP JUMPDEST PUSH2 0x1DAC DUP2 PUSH2 0x1D81 JUMP JUMPDEST DUP3 MSTORE POP POP JUMP JUMPDEST PUSH1 0x0 PUSH1 0xA0 DUP3 ADD SWAP1 POP PUSH2 0x1DC7 PUSH1 0x0 DUP4 ADD DUP9 PUSH2 0x1D5A JUMP JUMPDEST PUSH2 0x1DD4 PUSH1 0x20 DUP4 ADD DUP8 PUSH2 0x1707 JUMP JUMPDEST PUSH2 0x1DE1 PUSH1 0x40 DUP4 ADD DUP7 PUSH2 0x1707 JUMP JUMPDEST PUSH2 0x1DEE PUSH1 0x60 DUP4 ADD DUP6 PUSH2 0x1DA3 JUMP JUMPDEST PUSH2 0x1DFB PUSH1 0x80 DUP4 ADD DUP5 PUSH2 0x1884 JUMP JUMPDEST SWAP7 SWAP6 POP POP POP POP POP POP JUMP JUMPDEST PUSH1 0x0 DUP2 SWAP1 POP SWAP2 SWAP1 POP JUMP JUMPDEST PUSH1 0x0 PUSH2 0x1E2A PUSH2 0x1E25 PUSH2 0x1E20 DUP5 PUSH2 0x1E05 JUMP JUMPDEST PUSH2 0x17CA JUMP JUMPDEST PUSH2 0x1D2B JUMP JUMPDEST SWAP1 POP SWAP2 SWAP1 POP JUMP JUMPDEST PUSH2 0x1E3A DUP2 PUSH2 0x1E0F JUMP JUMPDEST DUP3 MSTORE POP POP JUMP JUMPDEST PUSH1 0x0 DUP2 SWAP1 POP SWAP2 SWAP1 POP JUMP JUMPDEST PUSH1 0x0 PUSH2 0x1E65 PUSH2 0x1E60 PUSH2 0x1E5B DUP5 PUSH2 0x1E40 JUMP JUMPDEST PUSH2 0x17CA JUMP JUMPDEST PUSH2 0x1D2B JUMP JUMPDEST SWAP1 POP SWAP2 SWAP1 POP JUMP JUMPDEST PUSH2 0x1E75 DUP2 PUSH2 0x1E4A JUMP JUMPDEST DUP3 MSTORE POP POP JUMP JUMPDEST PUSH1 0x0 PUSH2 0x160 DUP3 ADD SWAP1 POP PUSH2 0x1E91 PUSH1 0x0 DUP4 ADD DUP15 PUSH2 0x1E31 JUMP JUMPDEST PUSH2 0x1E9E PUSH1 0x20 DUP4 ADD DUP14 PUSH2 0x1707 JUMP JUMPDEST PUSH2 0x1EAB PUSH1 0x40 DUP4 ADD DUP13 PUSH2 0x1707 JUMP JUMPDEST PUSH2 0x1EB8 PUSH1 0x60 DUP4 ADD DUP12 PUSH2 0x1DA3 JUMP JUMPDEST PUSH2 0x1EC5 PUSH1 0x80 DUP4 ADD DUP11 PUSH2 0x1E6C JUMP JUMPDEST PUSH2 0x1ED2 PUSH1 0xA0 DUP4 ADD DUP10 PUSH2 0x1E6C JUMP JUMPDEST PUSH2 0x1EDF PUSH1 0xC0 DUP4 ADD DUP9 PUSH2 0x1884 JUMP JUMPDEST PUSH2 0x1EEC PUSH1 0xE0 DUP4 ADD DUP8 PUSH2 0x1884 JUMP JUMPDEST PUSH2 0x1EFA PUSH2 0x100 DUP4 ADD DUP7 PUSH2 0x1884 JUMP JUMPDEST PUSH2 0x1F08 PUSH2 0x120 DUP4 ADD DUP6 PUSH2 0x1E6C JUMP JUMPDEST PUSH2 0x1F16 PUSH2 0x140 DUP4 ADD DUP5 PUSH2 0x1707 JUMP JUMPDEST SWAP13 SWAP12 POP POP POP POP POP POP POP POP POP POP POP POP JUMP JUMPDEST PUSH1 0x0 DUP2 SWAP1 POP SWAP2 SWAP1 POP JUMP JUMPDEST PUSH1 0x0 PUSH2 0x1F4B PUSH2 0x1F46 PUSH2 0x1F41 DUP5 PUSH2 0x1F26 JUMP JUMPDEST PUSH2 0x17CA JUMP JUMPDEST PUSH2 0x1D2B JUMP JUMPDEST SWAP1 POP SWAP2 SWAP1 POP JUMP JUMPDEST PUSH2 0x1F5B DUP2 PUSH2 0x1F30 JUMP JUMPDEST DUP3 MSTORE POP POP JUMP JUMPDEST PUSH1 0x0 DUP2 SWAP1 POP SWAP2 SWAP1 POP JUMP JUMPDEST PUSH1 0x0 PUSH2 0x1F86 PUSH2 0x1F81 PUSH2 0x1F7C DUP5 PUSH2 0x1F61 JUMP JUMPDEST PUSH2 0x17CA JUMP JUMPDEST PUSH2 0x1D2B JUMP JUMPDEST SWAP1 POP SWAP2 SWAP1 POP JUMP JUMPDEST PUSH2 0x1F96 DUP2 PUSH2 0x1F6B JUMP JUMPDEST DUP3 MSTORE POP POP JUMP JUMPDEST PUSH1 0x0 DUP2 MLOAD SWAP1 POP SWAP2 SWAP1 POP JUMP JUMPDEST PUSH1 0x0 DUP3 DUP3 MSTORE PUSH1 0x20 DUP3 ADD SWAP1 POP SWAP3 SWAP2 POP POP JUMP JUMPDEST PUSH1 0x0 PUSH2 0x1FC3 DUP3 PUSH2 0x1F9C JUMP JUMPDEST PUSH2 0x1FCD DUP2 DUP6 PUSH2 0x1FA7 JUMP JUMPDEST SWAP4 POP PUSH2 0x1FDD DUP2 DUP6 PUSH1 0x20 DUP7 ADD PUSH2 0x1994 JUMP JUMPDEST PUSH2 0x1FE6 DUP2 PUSH2 0x19BE JUMP JUMPDEST DUP5 ADD SWAP2 POP POP SWAP3 SWAP2 POP POP JUMP JUMPDEST PUSH1 0x0 DUP2 SWAP1 POP SWAP2 SWAP1 POP JUMP JUMPDEST PUSH1 0x0 PUSH2 0x2016 PUSH2 0x2011 PUSH2 0x200C DUP5 PUSH2 0x1FF1 JUMP JUMPDEST PUSH2 0x17CA JUMP JUMPDEST PUSH2 0x1D2B JUMP JUMPDEST SWAP1 POP SWAP2 SWAP1 POP JUMP JUMPDEST PUSH2 0x2026 DUP2 PUSH2 0x1FFB JUMP JUMPDEST DUP3 MSTORE POP POP JUMP JUMPDEST PUSH1 0x0 PUSH1 0xA0 DUP3 ADD SWAP1 POP PUSH2 0x2041 PUSH1 0x0 DUP4 ADD DUP9 PUSH2 0x1F52 JUMP JUMPDEST PUSH2 0x204E PUSH1 0x20 DUP4 ADD DUP8 PUSH2 0x1F8D JUMP JUMPDEST DUP2 DUP2 SUB PUSH1 0x40 DUP4 ADD MSTORE PUSH2 0x2060 DUP2 DUP7 PUSH2 0x1FB8 JUMP JUMPDEST SWAP1 POP PUSH2 0x206F PUSH1 0x60 DUP4 ADD DUP6 PUSH2 0x201D JUMP JUMPDEST DUP2 DUP2 SUB PUSH1 0x80 DUP4 ADD MSTORE PUSH2 0x2081 DUP2 DUP5 PUSH2 0x1FB8 JUMP JUMPDEST SWAP1 POP SWAP7 SWAP6 POP POP POP POP POP POP JUMP JUMPDEST PUSH1 0x0 DUP2 SWAP1 POP SWAP2 SWAP1 POP JUMP JUMPDEST PUSH1 0x0 PUSH2 0x20B2 PUSH2 0x20AD PUSH2 0x20A8 DUP5 PUSH2 0x208D JUMP JUMPDEST PUSH2 0x17CA JUMP JUMPDEST PUSH2 0x1D73 JUMP JUMPDEST SWAP1 POP SWAP2 SWAP1 POP JUMP JUMPDEST PUSH2 0x20C2 DUP2 PUSH2 0x2097 JUMP JUMPDEST DUP3 MSTORE POP POP JUMP JUMPDEST PUSH1 0x0 PUSH1 0x40 DUP3 ADD SWAP1 POP PUSH2 0x20DD PUSH1 0x0 DUP4 ADD DUP6 PUSH2 0x20B9 JUMP JUMPDEST DUP2 DUP2 SUB PUSH1 0x20 DUP4 ADD MSTORE PUSH2 0x20EF DUP2 DUP5 PUSH2 0x1FB8 JUMP JUMPDEST SWAP1 POP SWAP4 SWAP3 POP POP POP JUMP JUMPDEST PUSH1 0x0 DUP1 REVERT JUMPDEST PUSH1 0x0 DUP1 REVERT JUMPDEST PUSH32 0x4E487B7100000000000000000000000000000000000000000000000000000000 PUSH1 0x0 MSTORE PUSH1 0x41 PUSH1 0x4 MSTORE PUSH1 0x24 PUSH1 0x0 REVERT JUMPDEST PUSH2 0x213A DUP3 PUSH2 0x19BE JUMP JUMPDEST DUP2 ADD DUP2 DUP2 LT PUSH8 0xFFFFFFFFFFFFFFFF DUP3 GT OR ISZERO PUSH2 0x2159 JUMPI PUSH2 0x2158 PUSH2 0x2102 JUMP JUMPDEST JUMPDEST DUP1 PUSH1 0x40 MSTORE POP POP POP JUMP JUMPDEST PUSH1 0x0 PUSH2 0x216C PUSH2 0x14DC JUMP JUMPDEST SWAP1 POP PUSH2 0x2178 DUP3 DUP3 PUSH2 0x2131 JUMP JUMPDEST SWAP2 SWAP1 POP JUMP JUMPDEST PUSH1 0x0 PUSH8 0xFFFFFFFFFFFFFFFF DUP3 GT ISZERO PUSH2 0x2198 JUMPI PUSH2 0x2197 PUSH2 0x2102 JUMP JUMPDEST JUMPDEST PUSH2 0x21A1 DUP3 PUSH2 0x19BE JUMP JUMPDEST SWAP1 POP PUSH1 0x20 DUP2 ADD SWAP1 POP SWAP2 SWAP1 POP JUMP JUMPDEST PUSH1 0x0 PUSH2 0x21C1 PUSH2 0x21BC DUP5 PUSH2 0x217D JUMP JUMPDEST PUSH2 0x2162 JUMP JUMPDEST SWAP1 POP DUP3 DUP2 MSTORE PUSH1 0x20 DUP2 ADD DUP5 DUP5 DUP5 ADD GT ISZERO PUSH2 0x21DD JUMPI PUSH2 0x21DC PUSH2 0x20FD JUMP JUMPDEST JUMPDEST PUSH2 0x21E8 DUP5 DUP3 DUP6 PUSH2 0x1994 JUMP JUMPDEST POP SWAP4 SWAP3 POP POP POP JUMP JUMPDEST PUSH1 0x0 DUP3 PUSH1 0x1F DUP4 ADD SLT PUSH2 0x2205 JUMPI PUSH2 0x2204 PUSH2 0x20F8 JUMP JUMPDEST JUMPDEST DUP2 MLOAD PUSH2 0x2215 DUP5 DUP3 PUSH1 0x20 DUP7 ADD PUSH2 0x21AE JUMP JUMPDEST SWAP2 POP POP SWAP3 SWAP2 POP POP JUMP JUMPDEST PUSH1 0x0 PUSH1 0x20 DUP3 DUP5 SUB SLT ISZERO PUSH2 0x2234 JUMPI PUSH2 0x2233 PUSH2 0x14E6 JUMP JUMPDEST JUMPDEST PUSH1 0x0 DUP3 ADD MLOAD PUSH8 0xFFFFFFFFFFFFFFFF DUP2 GT ISZERO PUSH2 0x2252 JUMPI PUSH2 0x2251 PUSH2 0x14EB JUMP JUMPDEST JUMPDEST PUSH2 0x225E DUP5 DUP3 DUP6 ADD PUSH2 0x21F0 JUMP JUMPDEST SWAP2 POP POP SWAP3 SWAP2 POP POP JUMP JUMPDEST PUSH1 0x0 PUSH1 0x60 DUP3 ADD SWAP1 POP PUSH2 0x227C PUSH1 0x0 DUP4 ADD DUP7 PUSH2 0x1884 JUMP JUMPDEST PUSH2 0x2289 PUSH1 0x20 DUP4 ADD DUP6 PUSH2 0x1884 JUMP JUMPDEST PUSH2 0x2296 PUSH1 0x40 DUP4 ADD DUP5 PUSH2 0x1884 JUMP JUMPDEST SWAP5 SWAP4 POP POP POP POP JUMP JUMPDEST PUSH1 0x0 DUP2 SWAP1 POP SWAP3 SWAP2 POP POP JUMP JUMPDEST POP JUMP JUMPDEST PUSH1 0x0 PUSH2 0x22B9 PUSH1 0x0 DUP4 PUSH2 0x229E JUMP JUMPDEST SWAP2 POP PUSH2 0x22C4 DUP3 PUSH2 0x22A9 JUMP JUMPDEST PUSH1 0x0 DUP3 ADD SWAP1 POP SWAP2 SWAP1 POP JUMP JUMPDEST PUSH1 0x0 PUSH2 0x22DA DUP3 PUSH2 0x22AC JUMP JUMPDEST SWAP2 POP DUP2 SWAP1 POP SWAP2 SWAP1 POP JUMP JUMPDEST PUSH32 0x5472616E73666572206661696C65640000000000000000000000000000000000 PUSH1 0x0 DUP3 ADD MSTORE POP JUMP JUMPDEST PUSH1 0x0 PUSH2 0x231A PUSH1 0xF DUP4 PUSH2 0x1983 JUMP JUMPDEST SWAP2 POP PUSH2 0x2325 DUP3 PUSH2 0x22E4 JUMP JUMPDEST PUSH1 0x20 DUP3 ADD SWAP1 POP SWAP2 SWAP1 POP JUMP JUMPDEST PUSH1 0x0 PUSH1 0x20 DUP3 ADD SWAP1 POP DUP2 DUP2 SUB PUSH1 0x0 DUP4 ADD MSTORE PUSH2 0x2349 DUP2 PUSH2 0x230D JUMP JUMPDEST SWAP1 POP SWAP2 SWAP1 POP JUMP JUMPDEST PUSH32 0x4E487B7100000000000000000000000000000000000000000000000000000000 PUSH1 0x0 MSTORE PUSH1 0x22 PUSH1 0x4 MSTORE PUSH1 0x24 PUSH1 0x0 REVERT JUMPDEST PUSH1 0x0 PUSH1 0x2 DUP3 DIV SWAP1 POP PUSH1 0x1 DUP3 AND DUP1 PUSH2 0x2397 JUMPI PUSH1 0x7F DUP3 AND SWAP2 POP JUMPDEST PUSH1 0x20 DUP3 LT DUP2 SUB PUSH2 0x23AA JUMPI PUSH2 0x23A9 PUSH2 0x2350 JUMP JUMPDEST JUMPDEST POP SWAP2 SWAP1 POP JUMP INVALID LOG2 PUSH5 0x6970667358 0x22 SLT KECCAK256 0xD0 SWAP7 0xD7 0xC2 0xDB 0x4E 0xEC LOG0 0xED ADDMOD CREATE 0x2B 0xD9 0xE6 PUSH30 0x95D546C0AFD4B967FFAB9E2C41EF160ECC64736F6C634300081300330000 "
				},
				"gasEstimates": {
					"creation": {
						"codeDepositCost": "1838000",
						"executionCost": "infinite",
						"totalCost": "infinite"
					},
					"external": {
						"addedLiquidityToken(uint256)": "5067",
						"amount()": "2474",
						"bond()": "2559",
						"crocSwapDex()": "infinite",
						"execute(address,uint256,uint256)": "infinite",
						"factory()": "2581",
						"getToken()": "infinite",
						"isAdmin(address)": "2913",
						"liquidityOwner()": "2626",
						"owner()": "2589",
						"pairFor(address,address)": "infinite",
						"price()": "2540",
						"renounceOwnership()": "infinite",
						"rescueETH(address,uint256)": "infinite",
						"setAdmin(address,bool)": "27219",
						"setBond(address)": "infinite",
						"setLiquidityOwner(address)": "infinite",
						"setUniswapV2Router02(address)": "infinite",
						"swapBERA()": "infinite",
						"transferOwnership(address)": "infinite",
						"uniswapV2Router02()": "infinite",
						"versions()": "infinite",
						"wbera()": "2604",
						"withdraw()": "infinite",
						"withdrawtoken(address,uint256)": "infinite"
					},
					"internal": {
						"_checkOwner()": "infinite"
					}
				},
				"methodIdentifiers": {
					"addedLiquidityToken(uint256)": "7490e284",
					"amount()": "aa8c217c",
					"bond()": "64c9ec6f",
					"crocSwapDex()": "7900a7ff",
					"execute(address,uint256,uint256)": "c52ab778",
					"factory()": "c45a0155",
					"getToken()": "21df0da7",
					"isAdmin(address)": "24d7806c",
					"liquidityOwner()": "3935ebf9",
					"owner()": "8da5cb5b",
					"pairFor(address,address)": "96ed28f9",
					"price()": "a035b1fe",
					"renounceOwnership()": "715018a6",
					"rescueETH(address,uint256)": "099a04e5",
					"setAdmin(address,bool)": "4b0bddd2",
					"setBond(address)": "d959fb2e",
					"setLiquidityOwner(address)": "72bc5583",
					"setUniswapV2Router02(address)": "7abdef14",
					"swapBERA()": "ce904421",
					"transferOwnership(address)": "f2fde38b",
					"uniswapV2Router02()": "a7c6402c",
					"versions()": "f8b1cb3c",
					"wbera()": "31f41a33",
					"withdraw()": "3ccfd60b",
					"withdrawtoken(address,uint256)": "8cd40c9d"
				}
			},
			"storageLayout": {
				"storage": [
					{
						"astId": 8,
						"contract": "src/_Master.sol:_Master",
						"label": "_owner",
						"offset": 0,
						"slot": "0",
						"type": "t_address"
					},
					{
						"astId": 599,
						"contract": "src/_Master.sol:_Master",
						"label": "bond",
						"offset": 0,
						"slot": "1",
						"type": "t_address"
					},
					{
						"astId": 603,
						"contract": "src/_Master.sol:_Master",
						"label": "isAdmin",
						"offset": 0,
						"slot": "2",
						"type": "t_mapping(t_address,t_bool)"
					},
					{
						"astId": 606,
						"contract": "src/_Master.sol:_Master",
						"label": "uniswapV2Router02",
						"offset": 0,
						"slot": "3",
						"type": "t_contract(IUniswapV2Router02)1595"
					},
					{
						"astId": 612,
						"contract": "src/_Master.sol:_Master",
						"label": "liquidityOwner",
						"offset": 0,
						"slot": "4",
						"type": "t_address"
					},
					{
						"astId": 615,
						"contract": "src/_Master.sol:_Master",
						"label": "addedLiquidityToken",
						"offset": 0,
						"slot": "5",
						"type": "t_array(t_address)dyn_storage"
					},
					{
						"astId": 618,
						"contract": "src/_Master.sol:_Master",
						"label": "versions",
						"offset": 0,
						"slot": "6",
						"type": "t_string_storage"
					},
					{
						"astId": 823,
						"contract": "src/_Master.sol:_Master",
						"label": "crocSwapDex",
						"offset": 0,
						"slot": "7",
						"type": "t_contract(ICrocSwapDex)533"
					},
					{
						"astId": 829,
						"contract": "src/_Master.sol:_Master",
						"label": "wbera",
						"offset": 0,
						"slot": "8",
						"type": "t_address"
					},
					{
						"astId": 835,
						"contract": "src/_Master.sol:_Master",
						"label": "factory",
						"offset": 0,
						"slot": "9",
						"type": "t_address"
					},
					{
						"astId": 837,
						"contract": "src/_Master.sol:_Master",
						"label": "price",
						"offset": 0,
						"slot": "10",
						"type": "t_uint256"
					},
					{
						"astId": 839,
						"contract": "src/_Master.sol:_Master",
						"label": "amount",
						"offset": 0,
						"slot": "11",
						"type": "t_uint256"
					}
				],
				"types": {
					"t_address": {
						"encoding": "inplace",
						"label": "address",
						"numberOfBytes": "20"
					},
					"t_array(t_address)dyn_storage": {
						"base": "t_address",
						"encoding": "dynamic_array",
						"label": "address[]",
						"numberOfBytes": "32"
					},
					"t_bool": {
						"encoding": "inplace",
						"label": "bool",
						"numberOfBytes": "1"
					},
					"t_contract(ICrocSwapDex)533": {
						"encoding": "inplace",
						"label": "contract ICrocSwapDex",
						"numberOfBytes": "20"
					},
					"t_contract(IUniswapV2Router02)1595": {
						"encoding": "inplace",
						"label": "contract IUniswapV2Router02",
						"numberOfBytes": "20"
					},
					"t_mapping(t_address,t_bool)": {
						"encoding": "mapping",
						"key": "t_address",
						"label": "mapping(address => bool)",
						"numberOfBytes": "32",
						"value": "t_bool"
					},
					"t_string_storage": {
						"encoding": "bytes",
						"label": "string",
						"numberOfBytes": "32"
					},
					"t_uint256": {
						"encoding": "inplace",
						"label": "uint256",
						"numberOfBytes": "32"
					}
				}
			},
			"userdoc": {
				"kind": "user",
				"methods": {},
				"notice": "This contract may be replaced by other strategies in the future.A  protocol graduation strategy for bootstrapping liquidity on uni-v2 AMMs.",
				"version": 1
			}
		}
	}
}