{
	"src/_ExternalEntities.sol": {
		"_ExternalEntities": {
			"abi": [
				{
					"inputs": [
						{
							"internalType": "address",
							"name": "_weth",
							"type": "address"
						},
						{
							"internalType": "address",
							"name": "_factory",
							"type": "address"
						},
						{
							"internalType": "address",
							"name": "_Master",
							"type": "address"
						}
					],
					"stateMutability": "nonpayable",
					"type": "constructor"
				},
				{
					"inputs": [
						{
							"internalType": "address",
							"name": "owner",
							"type": "address"
						}
					],
					"name": "OwnableInvalidOwner",
					"type": "error"
				},
				{
					"inputs": [
						{
							"internalType": "address",
							"name": "account",
							"type": "address"
						}
					],
					"name": "OwnableUnauthorizedAccount",
					"type": "error"
				},
				{
					"inputs": [],
					"name": "_NoOwner",
					"type": "error"
				},
				{
					"anonymous": false,
					"inputs": [
						{
							"indexed": true,
							"internalType": "address",
							"name": "previousOwner",
							"type": "address"
						},
						{
							"indexed": true,
							"internalType": "address",
							"name": "newOwner",
							"type": "address"
						}
					],
					"name": "OwnershipTransferred",
					"type": "event"
				},
				{
					"inputs": [],
					"name": "Master",
					"outputs": [
						{
							"internalType": "address",
							"name": "",
							"type": "address"
						}
					],
					"stateMutability": "view",
					"type": "function"
				},
				{
					"inputs": [
						{
							"internalType": "address",
							"name": "factory",
							"type": "address"
						}
					],
					"name": "addFactory",
					"outputs": [],
					"stateMutability": "nonpayable",
					"type": "function"
				},
				{
					"inputs": [
						{
							"internalType": "address",
							"name": "to",
							"type": "address"
						}
					],
					"name": "addPregradRestricted",
					"outputs": [],
					"stateMutability": "nonpayable",
					"type": "function"
				},
				{
					"inputs": [
						{
							"internalType": "address",
							"name": "",
							"type": "address"
						}
					],
					"name": "isAdmin",
					"outputs": [
						{
							"internalType": "bool",
							"name": "",
							"type": "bool"
						}
					],
					"stateMutability": "view",
					"type": "function"
				},
				{
					"inputs": [
						{
							"internalType": "address",
							"name": "token",
							"type": "address"
						},
						{
							"internalType": "address",
							"name": "to",
							"type": "address"
						}
					],
					"name": "isPregradRestricted",
					"outputs": [
						{
							"internalType": "bool",
							"name": "",
							"type": "bool"
						}
					],
					"stateMutability": "view",
					"type": "function"
				},
				{
					"inputs": [
						{
							"internalType": "uint256",
							"name": "",
							"type": "uint256"
						}
					],
					"name": "knownFactories",
					"outputs": [
						{
							"internalType": "contract IUniswapV2Factory",
							"name": "",
							"type": "address"
						}
					],
					"stateMutability": "view",
					"type": "function"
				},
				{
					"inputs": [],
					"name": "owner",
					"outputs": [
						{
							"internalType": "address",
							"name": "",
							"type": "address"
						}
					],
					"stateMutability": "view",
					"type": "function"
				},
				{
					"inputs": [
						{
							"internalType": "address",
							"name": "",
							"type": "address"
						}
					],
					"name": "pregradRestricted",
					"outputs": [
						{
							"internalType": "bool",
							"name": "",
							"type": "bool"
						}
					],
					"stateMutability": "view",
					"type": "function"
				},
				{
					"inputs": [
						{
							"internalType": "address",
							"name": "factory",
							"type": "address"
						}
					],
					"name": "removeFactory",
					"outputs": [],
					"stateMutability": "nonpayable",
					"type": "function"
				},
				{
					"inputs": [
						{
							"internalType": "address",
							"name": "to",
							"type": "address"
						}
					],
					"name": "removePregradRestricted",
					"outputs": [],
					"stateMutability": "nonpayable",
					"type": "function"
				},
				{
					"inputs": [],
					"name": "renounceOwnership",
					"outputs": [],
					"stateMutability": "nonpayable",
					"type": "function"
				},
				{
					"inputs": [
						{
							"internalType": "address",
							"name": "_admin",
							"type": "address"
						},
						{
							"internalType": "bool",
							"name": "_status",
							"type": "bool"
						}
					],
					"name": "setAdmin",
					"outputs": [],
					"stateMutability": "nonpayable",
					"type": "function"
				},
				{
					"inputs": [
						{
							"internalType": "address",
							"name": "_weth",
							"type": "address"
						}
					],
					"name": "setWeth",
					"outputs": [],
					"stateMutability": "nonpayable",
					"type": "function"
				},
				{
					"inputs": [
						{
							"internalType": "address",
							"name": "newOwner",
							"type": "address"
						}
					],
					"name": "transferOwnership",
					"outputs": [],
					"stateMutability": "nonpayable",
					"type": "function"
				},
				{
					"inputs": [],
					"name": "weth",
					"outputs": [
						{
							"internalType": "address",
							"name": "",
							"type": "address"
						}
					],
					"stateMutability": "view",
					"type": "function"
				}
			],
			"devdoc": {
				"errors": {
					"OwnableInvalidOwner(address)": [
						{
							"details": "The owner is not a valid owner account. (eg. `address(0)`)"
						}
					],
					"OwnableUnauthorizedAccount(address)": [
						{
							"details": "The caller account is not authorized to perform an operation."
						}
					]
				},
				"kind": "dev",
				"methods": {
					"owner()": {
						"details": "Returns the address of the current owner."
					},
					"renounceOwnership()": {
						"details": "Leaves the contract without owner. It will not be possible to call `onlyOwner` functions. Can only be called by the current owner. NOTE: Renouncing ownership will leave the contract without an owner, thereby disabling any functionality that is only available to the owner."
					},
					"transferOwnership(address)": {
						"details": "Transfers ownership of the contract to a new account (`newOwner`). Can only be called by the current owner."
					}
				},
				"version": 1
			},
			"evm": {
				"assembly": "    /* \"src/_ExternalEntities.sol\":366:2426  contract _ExternalEntities is Ownable {... */\n  mstore(0x40, 0x80)\n    /* \"src/_ExternalEntities.sol\":644:842  constructor(address _weth, address _factory,address _Master) Ownable(msg.sender) {... */\n  callvalue\n  dup1\n  iszero\n  tag_1\n  jumpi\n  0x00\n  dup1\n  revert\ntag_1:\n  pop\n  mload(0x40)\n  sub(codesize, bytecodeSize)\n  dup1\n  bytecodeSize\n  dup4\n  codecopy\n  dup2\n  dup2\n  add\n  0x40\n  mstore\n  dup2\n  add\n  swap1\n  tag_2\n  swap2\n  swap1\n  tag_3\n  jump\t// in\ntag_2:\n    /* \"src/_ExternalEntities.sol\":713:723  msg.sender */\n  caller\n    /* \"lib/openzeppelin-contracts/contracts/access/Ownable.sol\":1296:1297  0 */\n  0x00\n    /* \"lib/openzeppelin-contracts/contracts/access/Ownable.sol\":1272:1298  initialOwner == address(0) */\n  0xffffffffffffffffffffffffffffffffffffffff\n  and\n    /* \"lib/openzeppelin-contracts/contracts/access/Ownable.sol\":1272:1284  initialOwner */\n  dup2\n    /* \"lib/openzeppelin-contracts/contracts/access/Ownable.sol\":1272:1298  initialOwner == address(0) */\n  0xffffffffffffffffffffffffffffffffffffffff\n  and\n  sub\n    /* \"lib/openzeppelin-contracts/contracts/access/Ownable.sol\":1268:1363  if (initialOwner == address(0)) {... */\n  tag_7\n  jumpi\n    /* \"lib/openzeppelin-contracts/contracts/access/Ownable.sol\":1349:1350  0 */\n  0x00\n    /* \"lib/openzeppelin-contracts/contracts/access/Ownable.sol\":1321:1352  OwnableInvalidOwner(address(0)) */\n  mload(0x40)\n  0x1e4fbdf700000000000000000000000000000000000000000000000000000000\n  dup2\n  mstore\n  0x04\n  add\n  tag_8\n  swap2\n  swap1\n  tag_9\n  jump\t// in\ntag_8:\n  mload(0x40)\n  dup1\n  swap2\n  sub\n  swap1\n  revert\n    /* \"lib/openzeppelin-contracts/contracts/access/Ownable.sol\":1268:1363  if (initialOwner == address(0)) {... */\ntag_7:\n    /* \"lib/openzeppelin-contracts/contracts/access/Ownable.sol\":1372:1404  _transferOwnership(initialOwner) */\n  tag_10\n    /* \"lib/openzeppelin-contracts/contracts/access/Ownable.sol\":1391:1403  initialOwner */\n  dup2\n    /* \"lib/openzeppelin-contracts/contracts/access/Ownable.sol\":1372:1390  _transferOwnership */\n  shl(0x20, tag_11)\n    /* \"lib/openzeppelin-contracts/contracts/access/Ownable.sol\":1372:1404  _transferOwnership(initialOwner) */\n  0x20\n  shr\n  jump\t// in\ntag_10:\n    /* \"lib/openzeppelin-contracts/contracts/access/Ownable.sol\":1224:1411  constructor(address initialOwner) {... */\n  pop\n    /* \"src/_ExternalEntities.sol\":743:748  _weth */\n  dup3\n    /* \"src/_ExternalEntities.sol\":736:740  weth */\n  0x01\n  0x00\n    /* \"src/_ExternalEntities.sol\":736:748  weth = _weth */\n  0x0100\n  exp\n  dup2\n  sload\n  dup2\n  0xffffffffffffffffffffffffffffffffffffffff\n  mul\n  not\n  and\n  swap1\n  dup4\n  0xffffffffffffffffffffffffffffffffffffffff\n  and\n  mul\n  or\n  swap1\n  sstore\n  pop\n    /* \"src/_ExternalEntities.sol\":759:773  knownFactories */\n  0x03\n    /* \"src/_ExternalEntities.sol\":797:805  _factory */\n  dup3\n    /* \"src/_ExternalEntities.sol\":759:807  knownFactories.push(IUniswapV2Factory(_factory)) */\n  swap1\n  dup1\n  0x01\n  dup2\n  sload\n  add\n  dup1\n  dup3\n  sstore\n  dup1\n  swap2\n  pop\n  pop\n  0x01\n  swap1\n  sub\n  swap1\n  0x00\n  mstore\n  keccak256(0x00, 0x20)\n  add\n  0x00\n  swap1\n  swap2\n  swap1\n  swap2\n  swap1\n  swap2\n  0x0100\n  exp\n  dup2\n  sload\n  dup2\n  0xffffffffffffffffffffffffffffffffffffffff\n  mul\n  not\n  and\n  swap1\n  dup4\n  0xffffffffffffffffffffffffffffffffffffffff\n  and\n  mul\n  or\n  swap1\n  sstore\n  pop\n    /* \"src/_ExternalEntities.sol\":827:834  _Master */\n  dup1\n    /* \"src/_ExternalEntities.sol\":818:824  Master */\n  0x02\n  0x00\n    /* \"src/_ExternalEntities.sol\":818:834  Master = _Master */\n  0x0100\n  exp\n  dup2\n  sload\n  dup2\n  0xffffffffffffffffffffffffffffffffffffffff\n  mul\n  not\n  and\n  swap1\n  dup4\n  0xffffffffffffffffffffffffffffffffffffffff\n  and\n  mul\n  or\n  swap1\n  sstore\n  pop\n    /* \"src/_ExternalEntities.sol\":644:842  constructor(address _weth, address _factory,address _Master) Ownable(msg.sender) {... */\n  pop\n  pop\n  pop\n    /* \"src/_ExternalEntities.sol\":366:2426  contract _ExternalEntities is Ownable {... */\n  jump(tag_14)\n    /* \"lib/openzeppelin-contracts/contracts/access/Ownable.sol\":2911:3098  function _transferOwnership(address newOwner) internal virtual {... */\ntag_11:\n    /* \"lib/openzeppelin-contracts/contracts/access/Ownable.sol\":2984:3000  address oldOwner */\n  0x00\n    /* \"lib/openzeppelin-contracts/contracts/access/Ownable.sol\":3003:3009  _owner */\n  dup1\n  0x00\n  swap1\n  sload\n  swap1\n  0x0100\n  exp\n  swap1\n  div\n  0xffffffffffffffffffffffffffffffffffffffff\n  and\n    /* \"lib/openzeppelin-contracts/contracts/access/Ownable.sol\":2984:3009  address oldOwner = _owner */\n  swap1\n  pop\n    /* \"lib/openzeppelin-contracts/contracts/access/Ownable.sol\":3028:3036  newOwner */\n  dup2\n    /* \"lib/openzeppelin-contracts/contracts/access/Ownable.sol\":3019:3025  _owner */\n  0x00\n  dup1\n    /* \"lib/openzeppelin-contracts/contracts/access/Ownable.sol\":3019:3036  _owner = newOwner */\n  0x0100\n  exp\n  dup2\n  sload\n  dup2\n  0xffffffffffffffffffffffffffffffffffffffff\n  mul\n  not\n  and\n  swap1\n  dup4\n  0xffffffffffffffffffffffffffffffffffffffff\n  and\n  mul\n  or\n  swap1\n  sstore\n  pop\n    /* \"lib/openzeppelin-contracts/contracts/access/Ownable.sol\":3082:3090  newOwner */\n  dup2\n    /* \"lib/openzeppelin-contracts/contracts/access/Ownable.sol\":3051:3091  OwnershipTransferred(oldOwner, newOwner) */\n  0xffffffffffffffffffffffffffffffffffffffff\n  and\n    /* \"lib/openzeppelin-contracts/contracts/access/Ownable.sol\":3072:3080  oldOwner */\n  dup2\n    /* \"lib/openzeppelin-contracts/contracts/access/Ownable.sol\":3051:3091  OwnershipTransferred(oldOwner, newOwner) */\n  0xffffffffffffffffffffffffffffffffffffffff\n  and\n  0x8be0079c531659141344cd1fd0a4f28419497f9722a3daafe3b4186f6b6457e0\n  mload(0x40)\n  mload(0x40)\n  dup1\n  swap2\n  sub\n  swap1\n  log3\n    /* \"lib/openzeppelin-contracts/contracts/access/Ownable.sol\":2974:3098  {... */\n  pop\n    /* \"lib/openzeppelin-contracts/contracts/access/Ownable.sol\":2911:3098  function _transferOwnership(address newOwner) internal virtual {... */\n  pop\n  jump\t// out\n    /* \"#utility.yul\":88:205   */\ntag_17:\n    /* \"#utility.yul\":197:198   */\n  0x00\n    /* \"#utility.yul\":194:195   */\n  dup1\n    /* \"#utility.yul\":187:199   */\n  revert\n    /* \"#utility.yul\":334:460   */\ntag_19:\n    /* \"#utility.yul\":371:378   */\n  0x00\n    /* \"#utility.yul\":411:453   */\n  0xffffffffffffffffffffffffffffffffffffffff\n    /* \"#utility.yul\":404:409   */\n  dup3\n    /* \"#utility.yul\":400:454   */\n  and\n    /* \"#utility.yul\":389:454   */\n  swap1\n  pop\n    /* \"#utility.yul\":334:460   */\n  swap2\n  swap1\n  pop\n  jump\t// out\n    /* \"#utility.yul\":466:562   */\ntag_20:\n    /* \"#utility.yul\":503:510   */\n  0x00\n    /* \"#utility.yul\":532:556   */\n  tag_30\n    /* \"#utility.yul\":550:555   */\n  dup3\n    /* \"#utility.yul\":532:556   */\n  tag_19\n  jump\t// in\ntag_30:\n    /* \"#utility.yul\":521:556   */\n  swap1\n  pop\n    /* \"#utility.yul\":466:562   */\n  swap2\n  swap1\n  pop\n  jump\t// out\n    /* \"#utility.yul\":568:690   */\ntag_21:\n    /* \"#utility.yul\":641:665   */\n  tag_32\n    /* \"#utility.yul\":659:664   */\n  dup2\n    /* \"#utility.yul\":641:665   */\n  tag_20\n  jump\t// in\ntag_32:\n    /* \"#utility.yul\":634:639   */\n  dup2\n    /* \"#utility.yul\":631:666   */\n  eq\n    /* \"#utility.yul\":621:684   */\n  tag_33\n  jumpi\n    /* \"#utility.yul\":680:681   */\n  0x00\n    /* \"#utility.yul\":677:678   */\n  dup1\n    /* \"#utility.yul\":670:682   */\n  revert\n    /* \"#utility.yul\":621:684   */\ntag_33:\n    /* \"#utility.yul\":568:690   */\n  pop\n  jump\t// out\n    /* \"#utility.yul\":696:839   */\ntag_22:\n    /* \"#utility.yul\":753:758   */\n  0x00\n    /* \"#utility.yul\":784:790   */\n  dup2\n    /* \"#utility.yul\":778:791   */\n  mload\n    /* \"#utility.yul\":769:791   */\n  swap1\n  pop\n    /* \"#utility.yul\":800:833   */\n  tag_35\n    /* \"#utility.yul\":827:832   */\n  dup2\n    /* \"#utility.yul\":800:833   */\n  tag_21\n  jump\t// in\ntag_35:\n    /* \"#utility.yul\":696:839   */\n  swap3\n  swap2\n  pop\n  pop\n  jump\t// out\n    /* \"#utility.yul\":845:1508   */\ntag_3:\n    /* \"#utility.yul\":933:939   */\n  0x00\n    /* \"#utility.yul\":941:947   */\n  dup1\n    /* \"#utility.yul\":949:955   */\n  0x00\n    /* \"#utility.yul\":998:1000   */\n  0x60\n    /* \"#utility.yul\":986:995   */\n  dup5\n    /* \"#utility.yul\":977:984   */\n  dup7\n    /* \"#utility.yul\":973:996   */\n  sub\n    /* \"#utility.yul\":969:1001   */\n  slt\n    /* \"#utility.yul\":966:1085   */\n  iszero\n  tag_37\n  jumpi\n    /* \"#utility.yul\":1004:1083   */\n  tag_38\n  tag_17\n  jump\t// in\ntag_38:\n    /* \"#utility.yul\":966:1085   */\ntag_37:\n    /* \"#utility.yul\":1124:1125   */\n  0x00\n    /* \"#utility.yul\":1149:1213   */\n  tag_39\n    /* \"#utility.yul\":1205:1212   */\n  dup7\n    /* \"#utility.yul\":1196:1202   */\n  dup3\n    /* \"#utility.yul\":1185:1194   */\n  dup8\n    /* \"#utility.yul\":1181:1203   */\n  add\n    /* \"#utility.yul\":1149:1213   */\n  tag_22\n  jump\t// in\ntag_39:\n    /* \"#utility.yul\":1139:1213   */\n  swap4\n  pop\n    /* \"#utility.yul\":1095:1223   */\n  pop\n    /* \"#utility.yul\":1262:1264   */\n  0x20\n    /* \"#utility.yul\":1288:1352   */\n  tag_40\n    /* \"#utility.yul\":1344:1351   */\n  dup7\n    /* \"#utility.yul\":1335:1341   */\n  dup3\n    /* \"#utility.yul\":1324:1333   */\n  dup8\n    /* \"#utility.yul\":1320:1342   */\n  add\n    /* \"#utility.yul\":1288:1352   */\n  tag_22\n  jump\t// in\ntag_40:\n    /* \"#utility.yul\":1278:1352   */\n  swap3\n  pop\n    /* \"#utility.yul\":1233:1362   */\n  pop\n    /* \"#utility.yul\":1401:1403   */\n  0x40\n    /* \"#utility.yul\":1427:1491   */\n  tag_41\n    /* \"#utility.yul\":1483:1490   */\n  dup7\n    /* \"#utility.yul\":1474:1480   */\n  dup3\n    /* \"#utility.yul\":1463:1472   */\n  dup8\n    /* \"#utility.yul\":1459:1481   */\n  add\n    /* \"#utility.yul\":1427:1491   */\n  tag_22\n  jump\t// in\ntag_41:\n    /* \"#utility.yul\":1417:1491   */\n  swap2\n  pop\n    /* \"#utility.yul\":1372:1501   */\n  pop\n    /* \"#utility.yul\":845:1508   */\n  swap3\n  pop\n  swap3\n  pop\n  swap3\n  jump\t// out\n    /* \"#utility.yul\":1514:1632   */\ntag_23:\n    /* \"#utility.yul\":1601:1625   */\n  tag_43\n    /* \"#utility.yul\":1619:1624   */\n  dup2\n    /* \"#utility.yul\":1601:1625   */\n  tag_20\n  jump\t// in\ntag_43:\n    /* \"#utility.yul\":1596:1599   */\n  dup3\n    /* \"#utility.yul\":1589:1626   */\n  mstore\n    /* \"#utility.yul\":1514:1632   */\n  pop\n  pop\n  jump\t// out\n    /* \"#utility.yul\":1638:1860   */\ntag_9:\n    /* \"#utility.yul\":1731:1735   */\n  0x00\n    /* \"#utility.yul\":1769:1771   */\n  0x20\n    /* \"#utility.yul\":1758:1767   */\n  dup3\n    /* \"#utility.yul\":1754:1772   */\n  add\n    /* \"#utility.yul\":1746:1772   */\n  swap1\n  pop\n    /* \"#utility.yul\":1782:1853   */\n  tag_45\n    /* \"#utility.yul\":1850:1851   */\n  0x00\n    /* \"#utility.yul\":1839:1848   */\n  dup4\n    /* \"#utility.yul\":1835:1852   */\n  add\n    /* \"#utility.yul\":1826:1832   */\n  dup5\n    /* \"#utility.yul\":1782:1853   */\n  tag_23\n  jump\t// in\ntag_45:\n    /* \"#utility.yul\":1638:1860   */\n  swap3\n  swap2\n  pop\n  pop\n  jump\t// out\n    /* \"src/_ExternalEntities.sol\":366:2426  contract _ExternalEntities is Ownable {... */\ntag_14:\n  dataSize(sub_0)\n  dup1\n  dataOffset(sub_0)\n  0x00\n  codecopy\n  0x00\n  return\nstop\n\nsub_0: assembly {\n        /* \"src/_ExternalEntities.sol\":366:2426  contract _ExternalEntities is Ownable {... */\n      mstore(0x40, 0x80)\n      callvalue\n      dup1\n      iszero\n      tag_1\n      jumpi\n      0x00\n      dup1\n      revert\n    tag_1:\n      pop\n      jumpi(tag_2, lt(calldatasize, 0x04))\n      shr(0xe0, calldataload(0x00))\n      dup1\n      0x715018a6\n      gt\n      tag_18\n      jumpi\n      dup1\n      0xb67f8b6d\n      gt\n      tag_19\n      jumpi\n      dup1\n      0xb67f8b6d\n      eq\n      tag_14\n      jumpi\n      dup1\n      0xb8d1452f\n      eq\n      tag_15\n      jumpi\n      dup1\n      0xeb56a3bd\n      eq\n      tag_16\n      jumpi\n      dup1\n      0xf2fde38b\n      eq\n      tag_17\n      jumpi\n      jump(tag_2)\n    tag_19:\n      dup1\n      0x715018a6\n      eq\n      tag_10\n      jumpi\n      dup1\n      0x8da5cb5b\n      eq\n      tag_11\n      jumpi\n      dup1\n      0x95670f94\n      eq\n      tag_12\n      jumpi\n      dup1\n      0xaf3fa1f1\n      eq\n      tag_13\n      jumpi\n      jump(tag_2)\n    tag_18:\n      dup1\n      0x29ce1ec5\n      gt\n      tag_20\n      jumpi\n      dup1\n      0x29ce1ec5\n      eq\n      tag_6\n      jumpi\n      dup1\n      0x3fc8cef3\n      eq\n      tag_7\n      jumpi\n      dup1\n      0x4b0bddd2\n      eq\n      tag_8\n      jumpi\n      dup1\n      0x4b37c73f\n      eq\n      tag_9\n      jumpi\n      jump(tag_2)\n    tag_20:\n      dup1\n      0x0563578a\n      eq\n      tag_3\n      jumpi\n      dup1\n      0x16e20c01\n      eq\n      tag_4\n      jumpi\n      dup1\n      0x24d7806c\n      eq\n      tag_5\n      jumpi\n    tag_2:\n      0x00\n      dup1\n      revert\n        /* \"src/_ExternalEntities.sol\":1746:1854  function addPregradRestricted(address to) external onlyOwner {... */\n    tag_3:\n      tag_21\n      0x04\n      dup1\n      calldatasize\n      sub\n      dup2\n      add\n      swap1\n      tag_22\n      swap2\n      swap1\n      tag_23\n      jump\t// in\n    tag_22:\n      tag_24\n      jump\t// in\n    tag_21:\n      stop\n        /* \"src/_ExternalEntities.sol\":540:589  mapping(address => bool) public pregradRestricted */\n    tag_4:\n      tag_25\n      0x04\n      dup1\n      calldatasize\n      sub\n      dup2\n      add\n      swap1\n      tag_26\n      swap2\n      swap1\n      tag_23\n      jump\t// in\n    tag_26:\n      tag_27\n      jump\t// in\n    tag_25:\n      mload(0x40)\n      tag_28\n      swap2\n      swap1\n      tag_29\n      jump\t// in\n    tag_28:\n      mload(0x40)\n      dup1\n      swap2\n      sub\n      swap1\n      return\n        /* \"src/_ExternalEntities.sol\":596:635  mapping(address => bool) public isAdmin */\n    tag_5:\n      tag_30\n      0x04\n      dup1\n      calldatasize\n      sub\n      dup2\n      add\n      swap1\n      tag_31\n      swap2\n      swap1\n      tag_23\n      jump\t// in\n    tag_31:\n      tag_32\n      jump\t// in\n    tag_30:\n      mload(0x40)\n      tag_33\n      swap2\n      swap1\n      tag_29\n      jump\t// in\n    tag_33:\n      mload(0x40)\n      dup1\n      swap2\n      sub\n      swap1\n      return\n        /* \"src/_ExternalEntities.sol\":1251:1373  function addFactory(address factory) external onlyOwner {... */\n    tag_6:\n      tag_34\n      0x04\n      dup1\n      calldatasize\n      sub\n      dup2\n      add\n      swap1\n      tag_35\n      swap2\n      swap1\n      tag_23\n      jump\t// in\n    tag_35:\n      tag_36\n      jump\t// in\n    tag_34:\n      stop\n        /* \"src/_ExternalEntities.sol\":436:455  address public weth */\n    tag_7:\n      tag_37\n      tag_38\n      jump\t// in\n    tag_37:\n      mload(0x40)\n      tag_39\n      swap2\n      swap1\n      tag_40\n      jump\t// in\n    tag_39:\n      mload(0x40)\n      dup1\n      swap2\n      sub\n      swap1\n      return\n        /* \"src/_ExternalEntities.sol\":1087:1243  function setAdmin(address _admin, bool _status) external {... */\n    tag_8:\n      tag_41\n      0x04\n      dup1\n      calldatasize\n      sub\n      dup2\n      add\n      swap1\n      tag_42\n      swap2\n      swap1\n      tag_43\n      jump\t// in\n    tag_42:\n      tag_44\n      jump\t// in\n    tag_41:\n      stop\n        /* \"src/_ExternalEntities.sol\":1381:1738  function removeFactory(address factory) external onlyOwner {... */\n    tag_9:\n      tag_45\n      0x04\n      dup1\n      calldatasize\n      sub\n      dup2\n      add\n      swap1\n      tag_46\n      swap2\n      swap1\n      tag_23\n      jump\t// in\n    tag_46:\n      tag_47\n      jump\t// in\n    tag_45:\n      stop\n        /* \"lib/openzeppelin-contracts/contracts/access/Ownable.sol\":2292:2393  function renounceOwnership() public virtual onlyOwner {... */\n    tag_10:\n      tag_48\n      tag_49\n      jump\t// in\n    tag_48:\n      stop\n        /* \"lib/openzeppelin-contracts/contracts/access/Ownable.sol\":1637:1722  function owner() public view virtual returns (address) {... */\n    tag_11:\n      tag_50\n      tag_51\n      jump\t// in\n    tag_50:\n      mload(0x40)\n      tag_52\n      swap2\n      swap1\n      tag_40\n      jump\t// in\n    tag_52:\n      mload(0x40)\n      dup1\n      swap2\n      sub\n      swap1\n      return\n        /* \"src/_ExternalEntities.sol\":1862:1974  function removePregradRestricted(address to) external onlyOwner {... */\n    tag_12:\n      tag_53\n      0x04\n      dup1\n      calldatasize\n      sub\n      dup2\n      add\n      swap1\n      tag_54\n      swap2\n      swap1\n      tag_23\n      jump\t// in\n    tag_54:\n      tag_55\n      jump\t// in\n    tag_53:\n      stop\n        /* \"src/_ExternalEntities.sol\":492:533  IUniswapV2Factory[] public knownFactories */\n    tag_13:\n      tag_56\n      0x04\n      dup1\n      calldatasize\n      sub\n      dup2\n      add\n      swap1\n      tag_57\n      swap2\n      swap1\n      tag_58\n      jump\t// in\n    tag_57:\n      tag_59\n      jump\t// in\n    tag_56:\n      mload(0x40)\n      tag_60\n      swap2\n      swap1\n      tag_61\n      jump\t// in\n    tag_60:\n      mload(0x40)\n      dup1\n      swap2\n      sub\n      swap1\n      return\n        /* \"src/_ExternalEntities.sol\":462:483  address public Master */\n    tag_14:\n      tag_62\n      tag_63\n      jump\t// in\n    tag_62:\n      mload(0x40)\n      tag_64\n      swap2\n      swap1\n      tag_40\n      jump\t// in\n    tag_64:\n      mload(0x40)\n      dup1\n      swap2\n      sub\n      swap1\n      return\n        /* \"src/_ExternalEntities.sol\":1982:2064  function setWeth(address _weth) external onlyOwner {... */\n    tag_15:\n      tag_65\n      0x04\n      dup1\n      calldatasize\n      sub\n      dup2\n      add\n      swap1\n      tag_66\n      swap2\n      swap1\n      tag_23\n      jump\t// in\n    tag_66:\n      tag_67\n      jump\t// in\n    tag_65:\n      stop\n        /* \"src/_ExternalEntities.sol\":2072:2423  function isPregradRestricted(address token, address to) external view returns (bool) {... */\n    tag_16:\n      tag_68\n      0x04\n      dup1\n      calldatasize\n      sub\n      dup2\n      add\n      swap1\n      tag_69\n      swap2\n      swap1\n      tag_70\n      jump\t// in\n    tag_69:\n      tag_71\n      jump\t// in\n    tag_68:\n      mload(0x40)\n      tag_72\n      swap2\n      swap1\n      tag_29\n      jump\t// in\n    tag_72:\n      mload(0x40)\n      dup1\n      swap2\n      sub\n      swap1\n      return\n        /* \"lib/openzeppelin-contracts/contracts/access/Ownable.sol\":2542:2757  function transferOwnership(address newOwner) public virtual onlyOwner {... */\n    tag_17:\n      tag_73\n      0x04\n      dup1\n      calldatasize\n      sub\n      dup2\n      add\n      swap1\n      tag_74\n      swap2\n      swap1\n      tag_23\n      jump\t// in\n    tag_74:\n      tag_75\n      jump\t// in\n    tag_73:\n      stop\n        /* \"src/_ExternalEntities.sol\":1746:1854  function addPregradRestricted(address to) external onlyOwner {... */\n    tag_24:\n        /* \"lib/openzeppelin-contracts/contracts/access/Ownable.sol\":1530:1543  _checkOwner() */\n      tag_77\n        /* \"lib/openzeppelin-contracts/contracts/access/Ownable.sol\":1530:1541  _checkOwner */\n      tag_78\n        /* \"lib/openzeppelin-contracts/contracts/access/Ownable.sol\":1530:1543  _checkOwner() */\n      jump\t// in\n    tag_77:\n        /* \"src/_ExternalEntities.sol\":1842:1846  true */\n      0x01\n        /* \"src/_ExternalEntities.sol\":1818:1835  pregradRestricted */\n      0x04\n        /* \"src/_ExternalEntities.sol\":1818:1839  pregradRestricted[to] */\n      0x00\n        /* \"src/_ExternalEntities.sol\":1836:1838  to */\n      dup4\n        /* \"src/_ExternalEntities.sol\":1818:1839  pregradRestricted[to] */\n      0xffffffffffffffffffffffffffffffffffffffff\n      and\n      0xffffffffffffffffffffffffffffffffffffffff\n      and\n      dup2\n      mstore\n      0x20\n      add\n      swap1\n      dup2\n      mstore\n      0x20\n      add\n      0x00\n      keccak256\n      0x00\n        /* \"src/_ExternalEntities.sol\":1818:1846  pregradRestricted[to] = true */\n      0x0100\n      exp\n      dup2\n      sload\n      dup2\n      0xff\n      mul\n      not\n      and\n      swap1\n      dup4\n      iszero\n      iszero\n      mul\n      or\n      swap1\n      sstore\n      pop\n        /* \"src/_ExternalEntities.sol\":1746:1854  function addPregradRestricted(address to) external onlyOwner {... */\n      pop\n      jump\t// out\n        /* \"src/_ExternalEntities.sol\":540:589  mapping(address => bool) public pregradRestricted */\n    tag_27:\n      mstore(0x20, 0x04)\n      dup1\n      0x00\n      mstore\n      keccak256(0x00, 0x40)\n      0x00\n      swap2\n      pop\n      sload\n      swap1\n      0x0100\n      exp\n      swap1\n      div\n      0xff\n      and\n      dup2\n      jump\t// out\n        /* \"src/_ExternalEntities.sol\":596:635  mapping(address => bool) public isAdmin */\n    tag_32:\n      mstore(0x20, 0x05)\n      dup1\n      0x00\n      mstore\n      keccak256(0x00, 0x40)\n      0x00\n      swap2\n      pop\n      sload\n      swap1\n      0x0100\n      exp\n      swap1\n      div\n      0xff\n      and\n      dup2\n      jump\t// out\n        /* \"src/_ExternalEntities.sol\":1251:1373  function addFactory(address factory) external onlyOwner {... */\n    tag_36:\n        /* \"lib/openzeppelin-contracts/contracts/access/Ownable.sol\":1530:1543  _checkOwner() */\n      tag_81\n        /* \"lib/openzeppelin-contracts/contracts/access/Ownable.sol\":1530:1541  _checkOwner */\n      tag_78\n        /* \"lib/openzeppelin-contracts/contracts/access/Ownable.sol\":1530:1543  _checkOwner() */\n      jump\t// in\n    tag_81:\n        /* \"src/_ExternalEntities.sol\":1318:1332  knownFactories */\n      0x03\n        /* \"src/_ExternalEntities.sol\":1356:1363  factory */\n      dup2\n        /* \"src/_ExternalEntities.sol\":1318:1365  knownFactories.push(IUniswapV2Factory(factory)) */\n      swap1\n      dup1\n      0x01\n      dup2\n      sload\n      add\n      dup1\n      dup3\n      sstore\n      dup1\n      swap2\n      pop\n      pop\n      0x01\n      swap1\n      sub\n      swap1\n      0x00\n      mstore\n      keccak256(0x00, 0x20)\n      add\n      0x00\n      swap1\n      swap2\n      swap1\n      swap2\n      swap1\n      swap2\n      0x0100\n      exp\n      dup2\n      sload\n      dup2\n      0xffffffffffffffffffffffffffffffffffffffff\n      mul\n      not\n      and\n      swap1\n      dup4\n      0xffffffffffffffffffffffffffffffffffffffff\n      and\n      mul\n      or\n      swap1\n      sstore\n      pop\n        /* \"src/_ExternalEntities.sol\":1251:1373  function addFactory(address factory) external onlyOwner {... */\n      pop\n      jump\t// out\n        /* \"src/_ExternalEntities.sol\":436:455  address public weth */\n    tag_38:\n      0x01\n      0x00\n      swap1\n      sload\n      swap1\n      0x0100\n      exp\n      swap1\n      div\n      0xffffffffffffffffffffffffffffffffffffffff\n      and\n      dup2\n      jump\t// out\n        /* \"src/_ExternalEntities.sol\":1087:1243  function setAdmin(address _admin, bool _status) external {... */\n    tag_44:\n        /* \"src/_ExternalEntities.sol\":1173:1180  owner() */\n      tag_85\n        /* \"src/_ExternalEntities.sol\":1173:1178  owner */\n      tag_51\n        /* \"src/_ExternalEntities.sol\":1173:1180  owner() */\n      jump\t// in\n    tag_85:\n        /* \"src/_ExternalEntities.sol\":1159:1180  msg.sender != owner() */\n      0xffffffffffffffffffffffffffffffffffffffff\n      and\n        /* \"src/_ExternalEntities.sol\":1159:1169  msg.sender */\n      caller\n        /* \"src/_ExternalEntities.sol\":1159:1180  msg.sender != owner() */\n      0xffffffffffffffffffffffffffffffffffffffff\n      and\n      eq\n        /* \"src/_ExternalEntities.sol\":1155:1199  if (msg.sender != owner()) revert _NoOwner() */\n      tag_86\n      jumpi\n        /* \"src/_ExternalEntities.sol\":1189:1199  _NoOwner() */\n      mload(0x40)\n      0xad9cd75900000000000000000000000000000000000000000000000000000000\n      dup2\n      mstore\n      0x04\n      add\n      mload(0x40)\n      dup1\n      swap2\n      sub\n      swap1\n      revert\n        /* \"src/_ExternalEntities.sol\":1155:1199  if (msg.sender != owner()) revert _NoOwner() */\n    tag_86:\n        /* \"src/_ExternalEntities.sol\":1228:1235  _status */\n      dup1\n        /* \"src/_ExternalEntities.sol\":1210:1217  isAdmin */\n      0x05\n        /* \"src/_ExternalEntities.sol\":1210:1225  isAdmin[_admin] */\n      0x00\n        /* \"src/_ExternalEntities.sol\":1218:1224  _admin */\n      dup5\n        /* \"src/_ExternalEntities.sol\":1210:1225  isAdmin[_admin] */\n      0xffffffffffffffffffffffffffffffffffffffff\n      and\n      0xffffffffffffffffffffffffffffffffffffffff\n      and\n      dup2\n      mstore\n      0x20\n      add\n      swap1\n      dup2\n      mstore\n      0x20\n      add\n      0x00\n      keccak256\n      0x00\n        /* \"src/_ExternalEntities.sol\":1210:1235  isAdmin[_admin] = _status */\n      0x0100\n      exp\n      dup2\n      sload\n      dup2\n      0xff\n      mul\n      not\n      and\n      swap1\n      dup4\n      iszero\n      iszero\n      mul\n      or\n      swap1\n      sstore\n      pop\n        /* \"src/_ExternalEntities.sol\":1087:1243  function setAdmin(address _admin, bool _status) external {... */\n      pop\n      pop\n      jump\t// out\n        /* \"src/_ExternalEntities.sol\":1381:1738  function removeFactory(address factory) external onlyOwner {... */\n    tag_47:\n        /* \"lib/openzeppelin-contracts/contracts/access/Ownable.sol\":1530:1543  _checkOwner() */\n      tag_88\n        /* \"lib/openzeppelin-contracts/contracts/access/Ownable.sol\":1530:1541  _checkOwner */\n      tag_78\n        /* \"lib/openzeppelin-contracts/contracts/access/Ownable.sol\":1530:1543  _checkOwner() */\n      jump\t// in\n    tag_88:\n        /* \"src/_ExternalEntities.sol\":1456:1465  uint256 i */\n      0x00\n        /* \"src/_ExternalEntities.sol\":1451:1731  for (uint256 i = 0; i < knownFactories.length; i++) {... */\n    tag_90:\n        /* \"src/_ExternalEntities.sol\":1475:1489  knownFactories */\n      0x03\n        /* \"src/_ExternalEntities.sol\":1475:1496  knownFactories.length */\n      dup1\n      sload\n      swap1\n      pop\n        /* \"src/_ExternalEntities.sol\":1471:1472  i */\n      dup2\n        /* \"src/_ExternalEntities.sol\":1471:1496  i < knownFactories.length */\n      lt\n        /* \"src/_ExternalEntities.sol\":1451:1731  for (uint256 i = 0; i < knownFactories.length; i++) {... */\n      iszero\n      tag_91\n      jumpi\n        /* \"src/_ExternalEntities.sol\":1552:1559  factory */\n      dup2\n        /* \"src/_ExternalEntities.sol\":1522:1559  address(knownFactories[i]) == factory */\n      0xffffffffffffffffffffffffffffffffffffffff\n      and\n        /* \"src/_ExternalEntities.sol\":1530:1544  knownFactories */\n      0x03\n        /* \"src/_ExternalEntities.sol\":1545:1546  i */\n      dup3\n        /* \"src/_ExternalEntities.sol\":1530:1547  knownFactories[i] */\n      dup2\n      sload\n      dup2\n      lt\n      tag_93\n      jumpi\n      tag_94\n      tag_95\n      jump\t// in\n    tag_94:\n    tag_93:\n      swap1\n      0x00\n      mstore\n      keccak256(0x00, 0x20)\n      add\n      0x00\n      swap1\n      sload\n      swap1\n      0x0100\n      exp\n      swap1\n      div\n      0xffffffffffffffffffffffffffffffffffffffff\n      and\n        /* \"src/_ExternalEntities.sol\":1522:1559  address(knownFactories[i]) == factory */\n      0xffffffffffffffffffffffffffffffffffffffff\n      and\n      sub\n        /* \"src/_ExternalEntities.sol\":1518:1720  if (address(knownFactories[i]) == factory) {... */\n      tag_97\n      jumpi\n        /* \"src/_ExternalEntities.sol\":1600:1614  knownFactories */\n      0x03\n        /* \"src/_ExternalEntities.sol\":1639:1640  1 */\n      0x01\n        /* \"src/_ExternalEntities.sol\":1615:1629  knownFactories */\n      0x03\n        /* \"src/_ExternalEntities.sol\":1615:1636  knownFactories.length */\n      dup1\n      sload\n      swap1\n      pop\n        /* \"src/_ExternalEntities.sol\":1615:1640  knownFactories.length - 1 */\n      tag_98\n      swap2\n      swap1\n      tag_99\n      jump\t// in\n    tag_98:\n        /* \"src/_ExternalEntities.sol\":1600:1641  knownFactories[knownFactories.length - 1] */\n      dup2\n      sload\n      dup2\n      lt\n      tag_100\n      jumpi\n      tag_101\n      tag_95\n      jump\t// in\n    tag_101:\n    tag_100:\n      swap1\n      0x00\n      mstore\n      keccak256(0x00, 0x20)\n      add\n      0x00\n      swap1\n      sload\n      swap1\n      0x0100\n      exp\n      swap1\n      div\n      0xffffffffffffffffffffffffffffffffffffffff\n      and\n        /* \"src/_ExternalEntities.sol\":1580:1594  knownFactories */\n      0x03\n        /* \"src/_ExternalEntities.sol\":1595:1596  i */\n      dup3\n        /* \"src/_ExternalEntities.sol\":1580:1597  knownFactories[i] */\n      dup2\n      sload\n      dup2\n      lt\n      tag_103\n      jumpi\n      tag_104\n      tag_95\n      jump\t// in\n    tag_104:\n    tag_103:\n      swap1\n      0x00\n      mstore\n      keccak256(0x00, 0x20)\n      add\n      0x00\n        /* \"src/_ExternalEntities.sol\":1580:1641  knownFactories[i] = knownFactories[knownFactories.length - 1] */\n      0x0100\n      exp\n      dup2\n      sload\n      dup2\n      0xffffffffffffffffffffffffffffffffffffffff\n      mul\n      not\n      and\n      swap1\n      dup4\n      0xffffffffffffffffffffffffffffffffffffffff\n      and\n      mul\n      or\n      swap1\n      sstore\n      pop\n        /* \"src/_ExternalEntities.sol\":1660:1674  knownFactories */\n      0x03\n        /* \"src/_ExternalEntities.sol\":1660:1680  knownFactories.pop() */\n      dup1\n      sload\n      dup1\n      tag_106\n      jumpi\n      tag_107\n      tag_108\n      jump\t// in\n    tag_107:\n    tag_106:\n      0x01\n      swap1\n      sub\n      dup2\n      dup2\n      swap1\n      0x00\n      mstore\n      keccak256(0x00, 0x20)\n      add\n      exp(0x0100, 0x00)\n      dup2\n      sload\n      swap1\n      0xffffffffffffffffffffffffffffffffffffffff\n      mul\n      not\n      and\n      swap1\n      sstore\n      swap1\n      sstore\n        /* \"src/_ExternalEntities.sol\":1699:1704  break */\n      jump(tag_91)\n        /* \"src/_ExternalEntities.sol\":1518:1720  if (address(knownFactories[i]) == factory) {... */\n    tag_97:\n        /* \"src/_ExternalEntities.sol\":1498:1501  i++ */\n      dup1\n      dup1\n      tag_110\n      swap1\n      tag_111\n      jump\t// in\n    tag_110:\n      swap2\n      pop\n      pop\n        /* \"src/_ExternalEntities.sol\":1451:1731  for (uint256 i = 0; i < knownFactories.length; i++) {... */\n      jump(tag_90)\n    tag_91:\n      pop\n        /* \"src/_ExternalEntities.sol\":1381:1738  function removeFactory(address factory) external onlyOwner {... */\n      pop\n      jump\t// out\n        /* \"lib/openzeppelin-contracts/contracts/access/Ownable.sol\":2292:2393  function renounceOwnership() public virtual onlyOwner {... */\n    tag_49:\n        /* \"lib/openzeppelin-contracts/contracts/access/Ownable.sol\":1530:1543  _checkOwner() */\n      tag_113\n        /* \"lib/openzeppelin-contracts/contracts/access/Ownable.sol\":1530:1541  _checkOwner */\n      tag_78\n        /* \"lib/openzeppelin-contracts/contracts/access/Ownable.sol\":1530:1543  _checkOwner() */\n      jump\t// in\n    tag_113:\n        /* \"lib/openzeppelin-contracts/contracts/access/Ownable.sol\":2356:2386  _transferOwnership(address(0)) */\n      tag_115\n        /* \"lib/openzeppelin-contracts/contracts/access/Ownable.sol\":2383:2384  0 */\n      0x00\n        /* \"lib/openzeppelin-contracts/contracts/access/Ownable.sol\":2356:2374  _transferOwnership */\n      tag_116\n        /* \"lib/openzeppelin-contracts/contracts/access/Ownable.sol\":2356:2386  _transferOwnership(address(0)) */\n      jump\t// in\n    tag_115:\n        /* \"lib/openzeppelin-contracts/contracts/access/Ownable.sol\":2292:2393  function renounceOwnership() public virtual onlyOwner {... */\n      jump\t// out\n        /* \"lib/openzeppelin-contracts/contracts/access/Ownable.sol\":1637:1722  function owner() public view virtual returns (address) {... */\n    tag_51:\n        /* \"lib/openzeppelin-contracts/contracts/access/Ownable.sol\":1683:1690  address */\n      0x00\n        /* \"lib/openzeppelin-contracts/contracts/access/Ownable.sol\":1709:1715  _owner */\n      dup1\n      0x00\n      swap1\n      sload\n      swap1\n      0x0100\n      exp\n      swap1\n      div\n      0xffffffffffffffffffffffffffffffffffffffff\n      and\n        /* \"lib/openzeppelin-contracts/contracts/access/Ownable.sol\":1702:1715  return _owner */\n      swap1\n      pop\n        /* \"lib/openzeppelin-contracts/contracts/access/Ownable.sol\":1637:1722  function owner() public view virtual returns (address) {... */\n      swap1\n      jump\t// out\n        /* \"src/_ExternalEntities.sol\":1862:1974  function removePregradRestricted(address to) external onlyOwner {... */\n    tag_55:\n        /* \"lib/openzeppelin-contracts/contracts/access/Ownable.sol\":1530:1543  _checkOwner() */\n      tag_119\n        /* \"lib/openzeppelin-contracts/contracts/access/Ownable.sol\":1530:1541  _checkOwner */\n      tag_78\n        /* \"lib/openzeppelin-contracts/contracts/access/Ownable.sol\":1530:1543  _checkOwner() */\n      jump\t// in\n    tag_119:\n        /* \"src/_ExternalEntities.sol\":1961:1966  false */\n      0x00\n        /* \"src/_ExternalEntities.sol\":1937:1954  pregradRestricted */\n      0x04\n        /* \"src/_ExternalEntities.sol\":1937:1958  pregradRestricted[to] */\n      0x00\n        /* \"src/_ExternalEntities.sol\":1955:1957  to */\n      dup4\n        /* \"src/_ExternalEntities.sol\":1937:1958  pregradRestricted[to] */\n      0xffffffffffffffffffffffffffffffffffffffff\n      and\n      0xffffffffffffffffffffffffffffffffffffffff\n      and\n      dup2\n      mstore\n      0x20\n      add\n      swap1\n      dup2\n      mstore\n      0x20\n      add\n      0x00\n      keccak256\n      0x00\n        /* \"src/_ExternalEntities.sol\":1937:1966  pregradRestricted[to] = false */\n      0x0100\n      exp\n      dup2\n      sload\n      dup2\n      0xff\n      mul\n      not\n      and\n      swap1\n      dup4\n      iszero\n      iszero\n      mul\n      or\n      swap1\n      sstore\n      pop\n        /* \"src/_ExternalEntities.sol\":1862:1974  function removePregradRestricted(address to) external onlyOwner {... */\n      pop\n      jump\t// out\n        /* \"src/_ExternalEntities.sol\":492:533  IUniswapV2Factory[] public knownFactories */\n    tag_59:\n      0x03\n      dup2\n      dup2\n      sload\n      dup2\n      lt\n      tag_121\n      jumpi\n      0x00\n      dup1\n      revert\n    tag_121:\n      swap1\n      0x00\n      mstore\n      keccak256(0x00, 0x20)\n      add\n      0x00\n      swap2\n      pop\n      sload\n      swap1\n      0x0100\n      exp\n      swap1\n      div\n      0xffffffffffffffffffffffffffffffffffffffff\n      and\n      dup2\n      jump\t// out\n        /* \"src/_ExternalEntities.sol\":462:483  address public Master */\n    tag_63:\n      0x02\n      0x00\n      swap1\n      sload\n      swap1\n      0x0100\n      exp\n      swap1\n      div\n      0xffffffffffffffffffffffffffffffffffffffff\n      and\n      dup2\n      jump\t// out\n        /* \"src/_ExternalEntities.sol\":1982:2064  function setWeth(address _weth) external onlyOwner {... */\n    tag_67:\n        /* \"lib/openzeppelin-contracts/contracts/access/Ownable.sol\":1530:1543  _checkOwner() */\n      tag_124\n        /* \"lib/openzeppelin-contracts/contracts/access/Ownable.sol\":1530:1541  _checkOwner */\n      tag_78\n        /* \"lib/openzeppelin-contracts/contracts/access/Ownable.sol\":1530:1543  _checkOwner() */\n      jump\t// in\n    tag_124:\n        /* \"src/_ExternalEntities.sol\":2051:2056  _weth */\n      dup1\n        /* \"src/_ExternalEntities.sol\":2044:2048  weth */\n      0x01\n      0x00\n        /* \"src/_ExternalEntities.sol\":2044:2056  weth = _weth */\n      0x0100\n      exp\n      dup2\n      sload\n      dup2\n      0xffffffffffffffffffffffffffffffffffffffff\n      mul\n      not\n      and\n      swap1\n      dup4\n      0xffffffffffffffffffffffffffffffffffffffff\n      and\n      mul\n      or\n      swap1\n      sstore\n      pop\n        /* \"src/_ExternalEntities.sol\":1982:2064  function setWeth(address _weth) external onlyOwner {... */\n      pop\n      jump\t// out\n        /* \"src/_ExternalEntities.sol\":2072:2423  function isPregradRestricted(address token, address to) external view returns (bool) {... */\n    tag_71:\n        /* \"src/_ExternalEntities.sol\":2151:2155  bool */\n      0x00\n        /* \"src/_ExternalEntities.sol\":2173:2182  uint256 i */\n      dup1\n        /* \"src/_ExternalEntities.sol\":2185:2186  0 */\n      0x00\n        /* \"src/_ExternalEntities.sol\":2173:2186  uint256 i = 0 */\n      swap1\n      pop\n        /* \"src/_ExternalEntities.sol\":2168:2375  for (uint256 i = 0; i < knownFactories.length; i++) {... */\n    tag_127:\n        /* \"src/_ExternalEntities.sol\":2192:2206  knownFactories */\n      0x03\n        /* \"src/_ExternalEntities.sol\":2192:2213  knownFactories.length */\n      dup1\n      sload\n      swap1\n      pop\n        /* \"src/_ExternalEntities.sol\":2188:2189  i */\n      dup2\n        /* \"src/_ExternalEntities.sol\":2188:2213  i < knownFactories.length */\n      lt\n        /* \"src/_ExternalEntities.sol\":2168:2375  for (uint256 i = 0; i < knownFactories.length; i++) {... */\n      iszero\n      tag_128\n      jumpi\n        /* \"src/_ExternalEntities.sol\":2235:2247  address pair */\n      0x00\n        /* \"src/_ExternalEntities.sol\":2259:2265  Master */\n      0x02\n      0x00\n      swap1\n      sload\n      swap1\n      0x0100\n      exp\n      swap1\n      div\n      0xffffffffffffffffffffffffffffffffffffffff\n      and\n        /* \"src/_ExternalEntities.sol\":2250:2274  I_Master(Master).pairFor */\n      0xffffffffffffffffffffffffffffffffffffffff\n      and\n      0x96ed28f9\n        /* \"src/_ExternalEntities.sol\":2275:2280  token */\n      dup7\n        /* \"src/_ExternalEntities.sol\":2282:2286  weth */\n      0x01\n      0x00\n      swap1\n      sload\n      swap1\n      0x0100\n      exp\n      swap1\n      div\n      0xffffffffffffffffffffffffffffffffffffffff\n      and\n        /* \"src/_ExternalEntities.sol\":2250:2287  I_Master(Master).pairFor(token, weth) */\n      mload(0x40)\n      dup4\n      0xffffffff\n      and\n      0xe0\n      shl\n      dup2\n      mstore\n      0x04\n      add\n      tag_130\n      swap3\n      swap2\n      swap1\n      tag_131\n      jump\t// in\n    tag_130:\n      0x20\n      mload(0x40)\n      dup1\n      dup4\n      sub\n      dup2\n      dup7\n      gas\n      staticcall\n      iszero\n      dup1\n      iszero\n      tag_133\n      jumpi\n      returndatasize\n      0x00\n      dup1\n      returndatacopy\n      revert(0x00, returndatasize)\n    tag_133:\n      pop\n      pop\n      pop\n      pop\n      mload(0x40)\n      returndatasize\n      not(0x1f)\n      0x1f\n      dup3\n      add\n      and\n      dup3\n      add\n      dup1\n      0x40\n      mstore\n      pop\n      dup2\n      add\n      swap1\n      tag_134\n      swap2\n      swap1\n      tag_135\n      jump\t// in\n    tag_134:\n        /* \"src/_ExternalEntities.sol\":2235:2287  address pair = I_Master(Master).pairFor(token, weth) */\n      swap1\n      pop\n        /* \"src/_ExternalEntities.sol\":2314:2316  to */\n      dup4\n        /* \"src/_ExternalEntities.sol\":2306:2316  pair == to */\n      0xffffffffffffffffffffffffffffffffffffffff\n      and\n        /* \"src/_ExternalEntities.sol\":2306:2310  pair */\n      dup2\n        /* \"src/_ExternalEntities.sol\":2306:2316  pair == to */\n      0xffffffffffffffffffffffffffffffffffffffff\n      and\n      sub\n        /* \"src/_ExternalEntities.sol\":2302:2364  if (pair == to) {... */\n      tag_136\n      jumpi\n        /* \"src/_ExternalEntities.sol\":2344:2348  true */\n      0x01\n        /* \"src/_ExternalEntities.sol\":2337:2348  return true */\n      swap3\n      pop\n      pop\n      pop\n      jump(tag_126)\n        /* \"src/_ExternalEntities.sol\":2302:2364  if (pair == to) {... */\n    tag_136:\n        /* \"src/_ExternalEntities.sol\":2220:2375  {... */\n      pop\n        /* \"src/_ExternalEntities.sol\":2215:2218  i++ */\n      dup1\n      dup1\n      tag_137\n      swap1\n      tag_111\n      jump\t// in\n    tag_137:\n      swap2\n      pop\n      pop\n        /* \"src/_ExternalEntities.sol\":2168:2375  for (uint256 i = 0; i < knownFactories.length; i++) {... */\n      jump(tag_127)\n    tag_128:\n      pop\n        /* \"src/_ExternalEntities.sol\":2394:2411  pregradRestricted */\n      0x04\n        /* \"src/_ExternalEntities.sol\":2394:2415  pregradRestricted[to] */\n      0x00\n        /* \"src/_ExternalEntities.sol\":2412:2414  to */\n      dup4\n        /* \"src/_ExternalEntities.sol\":2394:2415  pregradRestricted[to] */\n      0xffffffffffffffffffffffffffffffffffffffff\n      and\n      0xffffffffffffffffffffffffffffffffffffffff\n      and\n      dup2\n      mstore\n      0x20\n      add\n      swap1\n      dup2\n      mstore\n      0x20\n      add\n      0x00\n      keccak256\n      0x00\n      swap1\n      sload\n      swap1\n      0x0100\n      exp\n      swap1\n      div\n      0xff\n      and\n        /* \"src/_ExternalEntities.sol\":2387:2415  return pregradRestricted[to] */\n      swap1\n      pop\n        /* \"src/_ExternalEntities.sol\":2072:2423  function isPregradRestricted(address token, address to) external view returns (bool) {... */\n    tag_126:\n      swap3\n      swap2\n      pop\n      pop\n      jump\t// out\n        /* \"lib/openzeppelin-contracts/contracts/access/Ownable.sol\":2542:2757  function transferOwnership(address newOwner) public virtual onlyOwner {... */\n    tag_75:\n        /* \"lib/openzeppelin-contracts/contracts/access/Ownable.sol\":1530:1543  _checkOwner() */\n      tag_139\n        /* \"lib/openzeppelin-contracts/contracts/access/Ownable.sol\":1530:1541  _checkOwner */\n      tag_78\n        /* \"lib/openzeppelin-contracts/contracts/access/Ownable.sol\":1530:1543  _checkOwner() */\n      jump\t// in\n    tag_139:\n        /* \"lib/openzeppelin-contracts/contracts/access/Ownable.sol\":2646:2647  0 */\n      0x00\n        /* \"lib/openzeppelin-contracts/contracts/access/Ownable.sol\":2626:2648  newOwner == address(0) */\n      0xffffffffffffffffffffffffffffffffffffffff\n      and\n        /* \"lib/openzeppelin-contracts/contracts/access/Ownable.sol\":2626:2634  newOwner */\n      dup2\n        /* \"lib/openzeppelin-contracts/contracts/access/Ownable.sol\":2626:2648  newOwner == address(0) */\n      0xffffffffffffffffffffffffffffffffffffffff\n      and\n      sub\n        /* \"lib/openzeppelin-contracts/contracts/access/Ownable.sol\":2622:2713  if (newOwner == address(0)) {... */\n      tag_141\n      jumpi\n        /* \"lib/openzeppelin-contracts/contracts/access/Ownable.sol\":2699:2700  0 */\n      0x00\n        /* \"lib/openzeppelin-contracts/contracts/access/Ownable.sol\":2671:2702  OwnableInvalidOwner(address(0)) */\n      mload(0x40)\n      0x1e4fbdf700000000000000000000000000000000000000000000000000000000\n      dup2\n      mstore\n      0x04\n      add\n      tag_142\n      swap2\n      swap1\n      tag_40\n      jump\t// in\n    tag_142:\n      mload(0x40)\n      dup1\n      swap2\n      sub\n      swap1\n      revert\n        /* \"lib/openzeppelin-contracts/contracts/access/Ownable.sol\":2622:2713  if (newOwner == address(0)) {... */\n    tag_141:\n        /* \"lib/openzeppelin-contracts/contracts/access/Ownable.sol\":2722:2750  _transferOwnership(newOwner) */\n      tag_143\n        /* \"lib/openzeppelin-contracts/contracts/access/Ownable.sol\":2741:2749  newOwner */\n      dup2\n        /* \"lib/openzeppelin-contracts/contracts/access/Ownable.sol\":2722:2740  _transferOwnership */\n      tag_116\n        /* \"lib/openzeppelin-contracts/contracts/access/Ownable.sol\":2722:2750  _transferOwnership(newOwner) */\n      jump\t// in\n    tag_143:\n        /* \"lib/openzeppelin-contracts/contracts/access/Ownable.sol\":2542:2757  function transferOwnership(address newOwner) public virtual onlyOwner {... */\n      pop\n      jump\t// out\n        /* \"src/_ExternalEntities.sol\":850:1079  function _checkOwner() internal view virtual override {... */\n    tag_78:\n        /* \"src/_ExternalEntities.sol\":915:929  address sender */\n      0x00\n        /* \"src/_ExternalEntities.sol\":932:944  _msgSender() */\n      tag_145\n        /* \"src/_ExternalEntities.sol\":932:942  _msgSender */\n      tag_146\n        /* \"src/_ExternalEntities.sol\":932:944  _msgSender() */\n      jump\t// in\n    tag_145:\n        /* \"src/_ExternalEntities.sol\":915:944  address sender = _msgSender() */\n      swap1\n      pop\n        /* \"src/_ExternalEntities.sol\":970:976  sender */\n      dup1\n        /* \"src/_ExternalEntities.sol\":959:976  owner() != sender */\n      0xffffffffffffffffffffffffffffffffffffffff\n      and\n        /* \"src/_ExternalEntities.sol\":959:966  owner() */\n      tag_147\n        /* \"src/_ExternalEntities.sol\":959:964  owner */\n      tag_51\n        /* \"src/_ExternalEntities.sol\":959:966  owner() */\n      jump\t// in\n    tag_147:\n        /* \"src/_ExternalEntities.sol\":959:976  owner() != sender */\n      0xffffffffffffffffffffffffffffffffffffffff\n      and\n      eq\n      iszero\n        /* \"src/_ExternalEntities.sol\":959:996  owner() != sender && !isAdmin[sender] */\n      dup1\n      iszero\n      tag_148\n      jumpi\n      pop\n        /* \"src/_ExternalEntities.sol\":981:988  isAdmin */\n      0x05\n        /* \"src/_ExternalEntities.sol\":981:996  isAdmin[sender] */\n      0x00\n        /* \"src/_ExternalEntities.sol\":989:995  sender */\n      dup3\n        /* \"src/_ExternalEntities.sol\":981:996  isAdmin[sender] */\n      0xffffffffffffffffffffffffffffffffffffffff\n      and\n      0xffffffffffffffffffffffffffffffffffffffff\n      and\n      dup2\n      mstore\n      0x20\n      add\n      swap1\n      dup2\n      mstore\n      0x20\n      add\n      0x00\n      keccak256\n      0x00\n      swap1\n      sload\n      swap1\n      0x0100\n      exp\n      swap1\n      div\n      0xff\n      and\n        /* \"src/_ExternalEntities.sol\":980:996  !isAdmin[sender] */\n      iszero\n        /* \"src/_ExternalEntities.sol\":959:996  owner() != sender && !isAdmin[sender] */\n    tag_148:\n        /* \"src/_ExternalEntities.sol\":955:1072  if (owner() != sender && !isAdmin[sender]) {... */\n      iszero\n      tag_149\n      jumpi\n        /* \"src/_ExternalEntities.sol\":1047:1059  _msgSender() */\n      tag_150\n        /* \"src/_ExternalEntities.sol\":1047:1057  _msgSender */\n      tag_146\n        /* \"src/_ExternalEntities.sol\":1047:1059  _msgSender() */\n      jump\t// in\n    tag_150:\n        /* \"src/_ExternalEntities.sol\":1020:1060  OwnableUnauthorizedAccount(_msgSender()) */\n      mload(0x40)\n      0x118cdaa700000000000000000000000000000000000000000000000000000000\n      dup2\n      mstore\n      0x04\n      add\n      tag_151\n      swap2\n      swap1\n      tag_40\n      jump\t// in\n    tag_151:\n      mload(0x40)\n      dup1\n      swap2\n      sub\n      swap1\n      revert\n        /* \"src/_ExternalEntities.sol\":955:1072  if (owner() != sender && !isAdmin[sender]) {... */\n    tag_149:\n        /* \"src/_ExternalEntities.sol\":904:1079  {... */\n      pop\n        /* \"src/_ExternalEntities.sol\":850:1079  function _checkOwner() internal view virtual override {... */\n      jump\t// out\n        /* \"lib/openzeppelin-contracts/contracts/access/Ownable.sol\":2911:3098  function _transferOwnership(address newOwner) internal virtual {... */\n    tag_116:\n        /* \"lib/openzeppelin-contracts/contracts/access/Ownable.sol\":2984:3000  address oldOwner */\n      0x00\n        /* \"lib/openzeppelin-contracts/contracts/access/Ownable.sol\":3003:3009  _owner */\n      dup1\n      0x00\n      swap1\n      sload\n      swap1\n      0x0100\n      exp\n      swap1\n      div\n      0xffffffffffffffffffffffffffffffffffffffff\n      and\n        /* \"lib/openzeppelin-contracts/contracts/access/Ownable.sol\":2984:3009  address oldOwner = _owner */\n      swap1\n      pop\n        /* \"lib/openzeppelin-contracts/contracts/access/Ownable.sol\":3028:3036  newOwner */\n      dup2\n        /* \"lib/openzeppelin-contracts/contracts/access/Ownable.sol\":3019:3025  _owner */\n      0x00\n      dup1\n        /* \"lib/openzeppelin-contracts/contracts/access/Ownable.sol\":3019:3036  _owner = newOwner */\n      0x0100\n      exp\n      dup2\n      sload\n      dup2\n      0xffffffffffffffffffffffffffffffffffffffff\n      mul\n      not\n      and\n      swap1\n      dup4\n      0xffffffffffffffffffffffffffffffffffffffff\n      and\n      mul\n      or\n      swap1\n      sstore\n      pop\n        /* \"lib/openzeppelin-contracts/contracts/access/Ownable.sol\":3082:3090  newOwner */\n      dup2\n        /* \"lib/openzeppelin-contracts/contracts/access/Ownable.sol\":3051:3091  OwnershipTransferred(oldOwner, newOwner) */\n      0xffffffffffffffffffffffffffffffffffffffff\n      and\n        /* \"lib/openzeppelin-contracts/contracts/access/Ownable.sol\":3072:3080  oldOwner */\n      dup2\n        /* \"lib/openzeppelin-contracts/contracts/access/Ownable.sol\":3051:3091  OwnershipTransferred(oldOwner, newOwner) */\n      0xffffffffffffffffffffffffffffffffffffffff\n      and\n      0x8be0079c531659141344cd1fd0a4f28419497f9722a3daafe3b4186f6b6457e0\n      mload(0x40)\n      mload(0x40)\n      dup1\n      swap2\n      sub\n      swap1\n      log3\n        /* \"lib/openzeppelin-contracts/contracts/access/Ownable.sol\":2974:3098  {... */\n      pop\n        /* \"lib/openzeppelin-contracts/contracts/access/Ownable.sol\":2911:3098  function _transferOwnership(address newOwner) internal virtual {... */\n      pop\n      jump\t// out\n        /* \"lib/openzeppelin-contracts/contracts/utils/Context.sol\":655:751  function _msgSender() internal view virtual returns (address) {... */\n    tag_146:\n        /* \"lib/openzeppelin-contracts/contracts/utils/Context.sol\":708:715  address */\n      0x00\n        /* \"lib/openzeppelin-contracts/contracts/utils/Context.sol\":734:744  msg.sender */\n      caller\n        /* \"lib/openzeppelin-contracts/contracts/utils/Context.sol\":727:744  return msg.sender */\n      swap1\n      pop\n        /* \"lib/openzeppelin-contracts/contracts/utils/Context.sol\":655:751  function _msgSender() internal view virtual returns (address) {... */\n      swap1\n      jump\t// out\n        /* \"#utility.yul\":88:205   */\n    tag_155:\n        /* \"#utility.yul\":197:198   */\n      0x00\n        /* \"#utility.yul\":194:195   */\n      dup1\n        /* \"#utility.yul\":187:199   */\n      revert\n        /* \"#utility.yul\":334:460   */\n    tag_157:\n        /* \"#utility.yul\":371:378   */\n      0x00\n        /* \"#utility.yul\":411:453   */\n      0xffffffffffffffffffffffffffffffffffffffff\n        /* \"#utility.yul\":404:409   */\n      dup3\n        /* \"#utility.yul\":400:454   */\n      and\n        /* \"#utility.yul\":389:454   */\n      swap1\n      pop\n        /* \"#utility.yul\":334:460   */\n      swap2\n      swap1\n      pop\n      jump\t// out\n        /* \"#utility.yul\":466:562   */\n    tag_158:\n        /* \"#utility.yul\":503:510   */\n      0x00\n        /* \"#utility.yul\":532:556   */\n      tag_182\n        /* \"#utility.yul\":550:555   */\n      dup3\n        /* \"#utility.yul\":532:556   */\n      tag_157\n      jump\t// in\n    tag_182:\n        /* \"#utility.yul\":521:556   */\n      swap1\n      pop\n        /* \"#utility.yul\":466:562   */\n      swap2\n      swap1\n      pop\n      jump\t// out\n        /* \"#utility.yul\":568:690   */\n    tag_159:\n        /* \"#utility.yul\":641:665   */\n      tag_184\n        /* \"#utility.yul\":659:664   */\n      dup2\n        /* \"#utility.yul\":641:665   */\n      tag_158\n      jump\t// in\n    tag_184:\n        /* \"#utility.yul\":634:639   */\n      dup2\n        /* \"#utility.yul\":631:666   */\n      eq\n        /* \"#utility.yul\":621:684   */\n      tag_185\n      jumpi\n        /* \"#utility.yul\":680:681   */\n      0x00\n        /* \"#utility.yul\":677:678   */\n      dup1\n        /* \"#utility.yul\":670:682   */\n      revert\n        /* \"#utility.yul\":621:684   */\n    tag_185:\n        /* \"#utility.yul\":568:690   */\n      pop\n      jump\t// out\n        /* \"#utility.yul\":696:835   */\n    tag_160:\n        /* \"#utility.yul\":742:747   */\n      0x00\n        /* \"#utility.yul\":780:786   */\n      dup2\n        /* \"#utility.yul\":767:787   */\n      calldataload\n        /* \"#utility.yul\":758:787   */\n      swap1\n      pop\n        /* \"#utility.yul\":796:829   */\n      tag_187\n        /* \"#utility.yul\":823:828   */\n      dup2\n        /* \"#utility.yul\":796:829   */\n      tag_159\n      jump\t// in\n    tag_187:\n        /* \"#utility.yul\":696:835   */\n      swap3\n      swap2\n      pop\n      pop\n      jump\t// out\n        /* \"#utility.yul\":841:1170   */\n    tag_23:\n        /* \"#utility.yul\":900:906   */\n      0x00\n        /* \"#utility.yul\":949:951   */\n      0x20\n        /* \"#utility.yul\":937:946   */\n      dup3\n        /* \"#utility.yul\":928:935   */\n      dup5\n        /* \"#utility.yul\":924:947   */\n      sub\n        /* \"#utility.yul\":920:952   */\n      slt\n        /* \"#utility.yul\":917:1036   */\n      iszero\n      tag_189\n      jumpi\n        /* \"#utility.yul\":955:1034   */\n      tag_190\n      tag_155\n      jump\t// in\n    tag_190:\n        /* \"#utility.yul\":917:1036   */\n    tag_189:\n        /* \"#utility.yul\":1075:1076   */\n      0x00\n        /* \"#utility.yul\":1100:1153   */\n      tag_191\n        /* \"#utility.yul\":1145:1152   */\n      dup5\n        /* \"#utility.yul\":1136:1142   */\n      dup3\n        /* \"#utility.yul\":1125:1134   */\n      dup6\n        /* \"#utility.yul\":1121:1143   */\n      add\n        /* \"#utility.yul\":1100:1153   */\n      tag_160\n      jump\t// in\n    tag_191:\n        /* \"#utility.yul\":1090:1153   */\n      swap2\n      pop\n        /* \"#utility.yul\":1046:1163   */\n      pop\n        /* \"#utility.yul\":841:1170   */\n      swap3\n      swap2\n      pop\n      pop\n      jump\t// out\n        /* \"#utility.yul\":1176:1266   */\n    tag_161:\n        /* \"#utility.yul\":1210:1217   */\n      0x00\n        /* \"#utility.yul\":1253:1258   */\n      dup2\n        /* \"#utility.yul\":1246:1259   */\n      iszero\n        /* \"#utility.yul\":1239:1260   */\n      iszero\n        /* \"#utility.yul\":1228:1260   */\n      swap1\n      pop\n        /* \"#utility.yul\":1176:1266   */\n      swap2\n      swap1\n      pop\n      jump\t// out\n        /* \"#utility.yul\":1272:1381   */\n    tag_162:\n        /* \"#utility.yul\":1353:1374   */\n      tag_194\n        /* \"#utility.yul\":1368:1373   */\n      dup2\n        /* \"#utility.yul\":1353:1374   */\n      tag_161\n      jump\t// in\n    tag_194:\n        /* \"#utility.yul\":1348:1351   */\n      dup3\n        /* \"#utility.yul\":1341:1375   */\n      mstore\n        /* \"#utility.yul\":1272:1381   */\n      pop\n      pop\n      jump\t// out\n        /* \"#utility.yul\":1387:1597   */\n    tag_29:\n        /* \"#utility.yul\":1474:1478   */\n      0x00\n        /* \"#utility.yul\":1512:1514   */\n      0x20\n        /* \"#utility.yul\":1501:1510   */\n      dup3\n        /* \"#utility.yul\":1497:1515   */\n      add\n        /* \"#utility.yul\":1489:1515   */\n      swap1\n      pop\n        /* \"#utility.yul\":1525:1590   */\n      tag_196\n        /* \"#utility.yul\":1587:1588   */\n      0x00\n        /* \"#utility.yul\":1576:1585   */\n      dup4\n        /* \"#utility.yul\":1572:1589   */\n      add\n        /* \"#utility.yul\":1563:1569   */\n      dup5\n        /* \"#utility.yul\":1525:1590   */\n      tag_162\n      jump\t// in\n    tag_196:\n        /* \"#utility.yul\":1387:1597   */\n      swap3\n      swap2\n      pop\n      pop\n      jump\t// out\n        /* \"#utility.yul\":1603:1721   */\n    tag_163:\n        /* \"#utility.yul\":1690:1714   */\n      tag_198\n        /* \"#utility.yul\":1708:1713   */\n      dup2\n        /* \"#utility.yul\":1690:1714   */\n      tag_158\n      jump\t// in\n    tag_198:\n        /* \"#utility.yul\":1685:1688   */\n      dup3\n        /* \"#utility.yul\":1678:1715   */\n      mstore\n        /* \"#utility.yul\":1603:1721   */\n      pop\n      pop\n      jump\t// out\n        /* \"#utility.yul\":1727:1949   */\n    tag_40:\n        /* \"#utility.yul\":1820:1824   */\n      0x00\n        /* \"#utility.yul\":1858:1860   */\n      0x20\n        /* \"#utility.yul\":1847:1856   */\n      dup3\n        /* \"#utility.yul\":1843:1861   */\n      add\n        /* \"#utility.yul\":1835:1861   */\n      swap1\n      pop\n        /* \"#utility.yul\":1871:1942   */\n      tag_200\n        /* \"#utility.yul\":1939:1940   */\n      0x00\n        /* \"#utility.yul\":1928:1937   */\n      dup4\n        /* \"#utility.yul\":1924:1941   */\n      add\n        /* \"#utility.yul\":1915:1921   */\n      dup5\n        /* \"#utility.yul\":1871:1942   */\n      tag_163\n      jump\t// in\n    tag_200:\n        /* \"#utility.yul\":1727:1949   */\n      swap3\n      swap2\n      pop\n      pop\n      jump\t// out\n        /* \"#utility.yul\":1955:2071   */\n    tag_164:\n        /* \"#utility.yul\":2025:2046   */\n      tag_202\n        /* \"#utility.yul\":2040:2045   */\n      dup2\n        /* \"#utility.yul\":2025:2046   */\n      tag_161\n      jump\t// in\n    tag_202:\n        /* \"#utility.yul\":2018:2023   */\n      dup2\n        /* \"#utility.yul\":2015:2047   */\n      eq\n        /* \"#utility.yul\":2005:2065   */\n      tag_203\n      jumpi\n        /* \"#utility.yul\":2061:2062   */\n      0x00\n        /* \"#utility.yul\":2058:2059   */\n      dup1\n        /* \"#utility.yul\":2051:2063   */\n      revert\n        /* \"#utility.yul\":2005:2065   */\n    tag_203:\n        /* \"#utility.yul\":1955:2071   */\n      pop\n      jump\t// out\n        /* \"#utility.yul\":2077:2210   */\n    tag_165:\n        /* \"#utility.yul\":2120:2125   */\n      0x00\n        /* \"#utility.yul\":2158:2164   */\n      dup2\n        /* \"#utility.yul\":2145:2165   */\n      calldataload\n        /* \"#utility.yul\":2136:2165   */\n      swap1\n      pop\n        /* \"#utility.yul\":2174:2204   */\n      tag_205\n        /* \"#utility.yul\":2198:2203   */\n      dup2\n        /* \"#utility.yul\":2174:2204   */\n      tag_164\n      jump\t// in\n    tag_205:\n        /* \"#utility.yul\":2077:2210   */\n      swap3\n      swap2\n      pop\n      pop\n      jump\t// out\n        /* \"#utility.yul\":2216:2684   */\n    tag_43:\n        /* \"#utility.yul\":2281:2287   */\n      0x00\n        /* \"#utility.yul\":2289:2295   */\n      dup1\n        /* \"#utility.yul\":2338:2340   */\n      0x40\n        /* \"#utility.yul\":2326:2335   */\n      dup4\n        /* \"#utility.yul\":2317:2324   */\n      dup6\n        /* \"#utility.yul\":2313:2336   */\n      sub\n        /* \"#utility.yul\":2309:2341   */\n      slt\n        /* \"#utility.yul\":2306:2425   */\n      iszero\n      tag_207\n      jumpi\n        /* \"#utility.yul\":2344:2423   */\n      tag_208\n      tag_155\n      jump\t// in\n    tag_208:\n        /* \"#utility.yul\":2306:2425   */\n    tag_207:\n        /* \"#utility.yul\":2464:2465   */\n      0x00\n        /* \"#utility.yul\":2489:2542   */\n      tag_209\n        /* \"#utility.yul\":2534:2541   */\n      dup6\n        /* \"#utility.yul\":2525:2531   */\n      dup3\n        /* \"#utility.yul\":2514:2523   */\n      dup7\n        /* \"#utility.yul\":2510:2532   */\n      add\n        /* \"#utility.yul\":2489:2542   */\n      tag_160\n      jump\t// in\n    tag_209:\n        /* \"#utility.yul\":2479:2542   */\n      swap3\n      pop\n        /* \"#utility.yul\":2435:2552   */\n      pop\n        /* \"#utility.yul\":2591:2593   */\n      0x20\n        /* \"#utility.yul\":2617:2667   */\n      tag_210\n        /* \"#utility.yul\":2659:2666   */\n      dup6\n        /* \"#utility.yul\":2650:2656   */\n      dup3\n        /* \"#utility.yul\":2639:2648   */\n      dup7\n        /* \"#utility.yul\":2635:2657   */\n      add\n        /* \"#utility.yul\":2617:2667   */\n      tag_165\n      jump\t// in\n    tag_210:\n        /* \"#utility.yul\":2607:2667   */\n      swap2\n      pop\n        /* \"#utility.yul\":2562:2677   */\n      pop\n        /* \"#utility.yul\":2216:2684   */\n      swap3\n      pop\n      swap3\n      swap1\n      pop\n      jump\t// out\n        /* \"#utility.yul\":2690:2767   */\n    tag_166:\n        /* \"#utility.yul\":2727:2734   */\n      0x00\n        /* \"#utility.yul\":2756:2761   */\n      dup2\n        /* \"#utility.yul\":2745:2761   */\n      swap1\n      pop\n        /* \"#utility.yul\":2690:2767   */\n      swap2\n      swap1\n      pop\n      jump\t// out\n        /* \"#utility.yul\":2773:2895   */\n    tag_167:\n        /* \"#utility.yul\":2846:2870   */\n      tag_213\n        /* \"#utility.yul\":2864:2869   */\n      dup2\n        /* \"#utility.yul\":2846:2870   */\n      tag_166\n      jump\t// in\n    tag_213:\n        /* \"#utility.yul\":2839:2844   */\n      dup2\n        /* \"#utility.yul\":2836:2871   */\n      eq\n        /* \"#utility.yul\":2826:2889   */\n      tag_214\n      jumpi\n        /* \"#utility.yul\":2885:2886   */\n      0x00\n        /* \"#utility.yul\":2882:2883   */\n      dup1\n        /* \"#utility.yul\":2875:2887   */\n      revert\n        /* \"#utility.yul\":2826:2889   */\n    tag_214:\n        /* \"#utility.yul\":2773:2895   */\n      pop\n      jump\t// out\n        /* \"#utility.yul\":2901:3040   */\n    tag_168:\n        /* \"#utility.yul\":2947:2952   */\n      0x00\n        /* \"#utility.yul\":2985:2991   */\n      dup2\n        /* \"#utility.yul\":2972:2992   */\n      calldataload\n        /* \"#utility.yul\":2963:2992   */\n      swap1\n      pop\n        /* \"#utility.yul\":3001:3034   */\n      tag_216\n        /* \"#utility.yul\":3028:3033   */\n      dup2\n        /* \"#utility.yul\":3001:3034   */\n      tag_167\n      jump\t// in\n    tag_216:\n        /* \"#utility.yul\":2901:3040   */\n      swap3\n      swap2\n      pop\n      pop\n      jump\t// out\n        /* \"#utility.yul\":3046:3375   */\n    tag_58:\n        /* \"#utility.yul\":3105:3111   */\n      0x00\n        /* \"#utility.yul\":3154:3156   */\n      0x20\n        /* \"#utility.yul\":3142:3151   */\n      dup3\n        /* \"#utility.yul\":3133:3140   */\n      dup5\n        /* \"#utility.yul\":3129:3152   */\n      sub\n        /* \"#utility.yul\":3125:3157   */\n      slt\n        /* \"#utility.yul\":3122:3241   */\n      iszero\n      tag_218\n      jumpi\n        /* \"#utility.yul\":3160:3239   */\n      tag_219\n      tag_155\n      jump\t// in\n    tag_219:\n        /* \"#utility.yul\":3122:3241   */\n    tag_218:\n        /* \"#utility.yul\":3280:3281   */\n      0x00\n        /* \"#utility.yul\":3305:3358   */\n      tag_220\n        /* \"#utility.yul\":3350:3357   */\n      dup5\n        /* \"#utility.yul\":3341:3347   */\n      dup3\n        /* \"#utility.yul\":3330:3339   */\n      dup6\n        /* \"#utility.yul\":3326:3348   */\n      add\n        /* \"#utility.yul\":3305:3358   */\n      tag_168\n      jump\t// in\n    tag_220:\n        /* \"#utility.yul\":3295:3358   */\n      swap2\n      pop\n        /* \"#utility.yul\":3251:3368   */\n      pop\n        /* \"#utility.yul\":3046:3375   */\n      swap3\n      swap2\n      pop\n      pop\n      jump\t// out\n        /* \"#utility.yul\":3381:3441   */\n    tag_169:\n        /* \"#utility.yul\":3409:3412   */\n      0x00\n        /* \"#utility.yul\":3430:3435   */\n      dup2\n        /* \"#utility.yul\":3423:3435   */\n      swap1\n      pop\n        /* \"#utility.yul\":3381:3441   */\n      swap2\n      swap1\n      pop\n      jump\t// out\n        /* \"#utility.yul\":3447:3589   */\n    tag_170:\n        /* \"#utility.yul\":3497:3506   */\n      0x00\n        /* \"#utility.yul\":3530:3583   */\n      tag_223\n        /* \"#utility.yul\":3548:3582   */\n      tag_224\n        /* \"#utility.yul\":3557:3581   */\n      tag_225\n        /* \"#utility.yul\":3575:3580   */\n      dup5\n        /* \"#utility.yul\":3557:3581   */\n      tag_157\n      jump\t// in\n    tag_225:\n        /* \"#utility.yul\":3548:3582   */\n      tag_169\n      jump\t// in\n    tag_224:\n        /* \"#utility.yul\":3530:3583   */\n      tag_157\n      jump\t// in\n    tag_223:\n        /* \"#utility.yul\":3517:3583   */\n      swap1\n      pop\n        /* \"#utility.yul\":3447:3589   */\n      swap2\n      swap1\n      pop\n      jump\t// out\n        /* \"#utility.yul\":3595:3721   */\n    tag_171:\n        /* \"#utility.yul\":3645:3654   */\n      0x00\n        /* \"#utility.yul\":3678:3715   */\n      tag_227\n        /* \"#utility.yul\":3709:3714   */\n      dup3\n        /* \"#utility.yul\":3678:3715   */\n      tag_170\n      jump\t// in\n    tag_227:\n        /* \"#utility.yul\":3665:3715   */\n      swap1\n      pop\n        /* \"#utility.yul\":3595:3721   */\n      swap2\n      swap1\n      pop\n      jump\t// out\n        /* \"#utility.yul\":3727:3879   */\n    tag_172:\n        /* \"#utility.yul\":3803:3812   */\n      0x00\n        /* \"#utility.yul\":3836:3873   */\n      tag_229\n        /* \"#utility.yul\":3867:3872   */\n      dup3\n        /* \"#utility.yul\":3836:3873   */\n      tag_171\n      jump\t// in\n    tag_229:\n        /* \"#utility.yul\":3823:3873   */\n      swap1\n      pop\n        /* \"#utility.yul\":3727:3879   */\n      swap2\n      swap1\n      pop\n      jump\t// out\n        /* \"#utility.yul\":3885:4068   */\n    tag_173:\n        /* \"#utility.yul\":3998:4061   */\n      tag_231\n        /* \"#utility.yul\":4055:4060   */\n      dup2\n        /* \"#utility.yul\":3998:4061   */\n      tag_172\n      jump\t// in\n    tag_231:\n        /* \"#utility.yul\":3993:3996   */\n      dup3\n        /* \"#utility.yul\":3986:4062   */\n      mstore\n        /* \"#utility.yul\":3885:4068   */\n      pop\n      pop\n      jump\t// out\n        /* \"#utility.yul\":4074:4348   */\n    tag_61:\n        /* \"#utility.yul\":4193:4197   */\n      0x00\n        /* \"#utility.yul\":4231:4233   */\n      0x20\n        /* \"#utility.yul\":4220:4229   */\n      dup3\n        /* \"#utility.yul\":4216:4234   */\n      add\n        /* \"#utility.yul\":4208:4234   */\n      swap1\n      pop\n        /* \"#utility.yul\":4244:4341   */\n      tag_233\n        /* \"#utility.yul\":4338:4339   */\n      0x00\n        /* \"#utility.yul\":4327:4336   */\n      dup4\n        /* \"#utility.yul\":4323:4340   */\n      add\n        /* \"#utility.yul\":4314:4320   */\n      dup5\n        /* \"#utility.yul\":4244:4341   */\n      tag_173\n      jump\t// in\n    tag_233:\n        /* \"#utility.yul\":4074:4348   */\n      swap3\n      swap2\n      pop\n      pop\n      jump\t// out\n        /* \"#utility.yul\":4354:4828   */\n    tag_70:\n        /* \"#utility.yul\":4422:4428   */\n      0x00\n        /* \"#utility.yul\":4430:4436   */\n      dup1\n        /* \"#utility.yul\":4479:4481   */\n      0x40\n        /* \"#utility.yul\":4467:4476   */\n      dup4\n        /* \"#utility.yul\":4458:4465   */\n      dup6\n        /* \"#utility.yul\":4454:4477   */\n      sub\n        /* \"#utility.yul\":4450:4482   */\n      slt\n        /* \"#utility.yul\":4447:4566   */\n      iszero\n      tag_235\n      jumpi\n        /* \"#utility.yul\":4485:4564   */\n      tag_236\n      tag_155\n      jump\t// in\n    tag_236:\n        /* \"#utility.yul\":4447:4566   */\n    tag_235:\n        /* \"#utility.yul\":4605:4606   */\n      0x00\n        /* \"#utility.yul\":4630:4683   */\n      tag_237\n        /* \"#utility.yul\":4675:4682   */\n      dup6\n        /* \"#utility.yul\":4666:4672   */\n      dup3\n        /* \"#utility.yul\":4655:4664   */\n      dup7\n        /* \"#utility.yul\":4651:4673   */\n      add\n        /* \"#utility.yul\":4630:4683   */\n      tag_160\n      jump\t// in\n    tag_237:\n        /* \"#utility.yul\":4620:4683   */\n      swap3\n      pop\n        /* \"#utility.yul\":4576:4693   */\n      pop\n        /* \"#utility.yul\":4732:4734   */\n      0x20\n        /* \"#utility.yul\":4758:4811   */\n      tag_238\n        /* \"#utility.yul\":4803:4810   */\n      dup6\n        /* \"#utility.yul\":4794:4800   */\n      dup3\n        /* \"#utility.yul\":4783:4792   */\n      dup7\n        /* \"#utility.yul\":4779:4801   */\n      add\n        /* \"#utility.yul\":4758:4811   */\n      tag_160\n      jump\t// in\n    tag_238:\n        /* \"#utility.yul\":4748:4811   */\n      swap2\n      pop\n        /* \"#utility.yul\":4703:4821   */\n      pop\n        /* \"#utility.yul\":4354:4828   */\n      swap3\n      pop\n      swap3\n      swap1\n      pop\n      jump\t// out\n        /* \"#utility.yul\":4834:5014   */\n    tag_95:\n        /* \"#utility.yul\":4882:4959   */\n      0x4e487b7100000000000000000000000000000000000000000000000000000000\n        /* \"#utility.yul\":4879:4880   */\n      0x00\n        /* \"#utility.yul\":4872:4960   */\n      mstore\n        /* \"#utility.yul\":4979:4983   */\n      0x32\n        /* \"#utility.yul\":4976:4977   */\n      0x04\n        /* \"#utility.yul\":4969:4984   */\n      mstore\n        /* \"#utility.yul\":5003:5007   */\n      0x24\n        /* \"#utility.yul\":5000:5001   */\n      0x00\n        /* \"#utility.yul\":4993:5008   */\n      revert\n        /* \"#utility.yul\":5020:5200   */\n    tag_174:\n        /* \"#utility.yul\":5068:5145   */\n      0x4e487b7100000000000000000000000000000000000000000000000000000000\n        /* \"#utility.yul\":5065:5066   */\n      0x00\n        /* \"#utility.yul\":5058:5146   */\n      mstore\n        /* \"#utility.yul\":5165:5169   */\n      0x11\n        /* \"#utility.yul\":5162:5163   */\n      0x04\n        /* \"#utility.yul\":5155:5170   */\n      mstore\n        /* \"#utility.yul\":5189:5193   */\n      0x24\n        /* \"#utility.yul\":5186:5187   */\n      0x00\n        /* \"#utility.yul\":5179:5194   */\n      revert\n        /* \"#utility.yul\":5206:5400   */\n    tag_99:\n        /* \"#utility.yul\":5246:5250   */\n      0x00\n        /* \"#utility.yul\":5266:5286   */\n      tag_242\n        /* \"#utility.yul\":5284:5285   */\n      dup3\n        /* \"#utility.yul\":5266:5286   */\n      tag_166\n      jump\t// in\n    tag_242:\n        /* \"#utility.yul\":5261:5286   */\n      swap2\n      pop\n        /* \"#utility.yul\":5300:5320   */\n      tag_243\n        /* \"#utility.yul\":5318:5319   */\n      dup4\n        /* \"#utility.yul\":5300:5320   */\n      tag_166\n      jump\t// in\n    tag_243:\n        /* \"#utility.yul\":5295:5320   */\n      swap3\n      pop\n        /* \"#utility.yul\":5344:5345   */\n      dup3\n        /* \"#utility.yul\":5341:5342   */\n      dup3\n        /* \"#utility.yul\":5337:5346   */\n      sub\n        /* \"#utility.yul\":5329:5346   */\n      swap1\n      pop\n        /* \"#utility.yul\":5368:5369   */\n      dup2\n        /* \"#utility.yul\":5362:5366   */\n      dup2\n        /* \"#utility.yul\":5359:5370   */\n      gt\n        /* \"#utility.yul\":5356:5393   */\n      iszero\n      tag_244\n      jumpi\n        /* \"#utility.yul\":5373:5391   */\n      tag_245\n      tag_174\n      jump\t// in\n    tag_245:\n        /* \"#utility.yul\":5356:5393   */\n    tag_244:\n        /* \"#utility.yul\":5206:5400   */\n      swap3\n      swap2\n      pop\n      pop\n      jump\t// out\n        /* \"#utility.yul\":5406:5586   */\n    tag_108:\n        /* \"#utility.yul\":5454:5531   */\n      0x4e487b7100000000000000000000000000000000000000000000000000000000\n        /* \"#utility.yul\":5451:5452   */\n      0x00\n        /* \"#utility.yul\":5444:5532   */\n      mstore\n        /* \"#utility.yul\":5551:5555   */\n      0x31\n        /* \"#utility.yul\":5548:5549   */\n      0x04\n        /* \"#utility.yul\":5541:5556   */\n      mstore\n        /* \"#utility.yul\":5575:5579   */\n      0x24\n        /* \"#utility.yul\":5572:5573   */\n      0x00\n        /* \"#utility.yul\":5565:5580   */\n      revert\n        /* \"#utility.yul\":5592:5825   */\n    tag_111:\n        /* \"#utility.yul\":5631:5634   */\n      0x00\n        /* \"#utility.yul\":5654:5678   */\n      tag_248\n        /* \"#utility.yul\":5672:5677   */\n      dup3\n        /* \"#utility.yul\":5654:5678   */\n      tag_166\n      jump\t// in\n    tag_248:\n        /* \"#utility.yul\":5645:5678   */\n      swap2\n      pop\n        /* \"#utility.yul\":5700:5766   */\n      0xffffffffffffffffffffffffffffffffffffffffffffffffffffffffffffffff\n        /* \"#utility.yul\":5693:5698   */\n      dup3\n        /* \"#utility.yul\":5690:5767   */\n      sub\n        /* \"#utility.yul\":5687:5790   */\n      tag_249\n      jumpi\n        /* \"#utility.yul\":5770:5788   */\n      tag_250\n      tag_174\n      jump\t// in\n    tag_250:\n        /* \"#utility.yul\":5687:5790   */\n    tag_249:\n        /* \"#utility.yul\":5817:5818   */\n      0x01\n        /* \"#utility.yul\":5810:5815   */\n      dup3\n        /* \"#utility.yul\":5806:5819   */\n      add\n        /* \"#utility.yul\":5799:5819   */\n      swap1\n      pop\n        /* \"#utility.yul\":5592:5825   */\n      swap2\n      swap1\n      pop\n      jump\t// out\n        /* \"#utility.yul\":5831:6163   */\n    tag_131:\n        /* \"#utility.yul\":5952:5956   */\n      0x00\n        /* \"#utility.yul\":5990:5992   */\n      0x40\n        /* \"#utility.yul\":5979:5988   */\n      dup3\n        /* \"#utility.yul\":5975:5993   */\n      add\n        /* \"#utility.yul\":5967:5993   */\n      swap1\n      pop\n        /* \"#utility.yul\":6003:6074   */\n      tag_252\n        /* \"#utility.yul\":6071:6072   */\n      0x00\n        /* \"#utility.yul\":6060:6069   */\n      dup4\n        /* \"#utility.yul\":6056:6073   */\n      add\n        /* \"#utility.yul\":6047:6053   */\n      dup6\n        /* \"#utility.yul\":6003:6074   */\n      tag_163\n      jump\t// in\n    tag_252:\n        /* \"#utility.yul\":6084:6156   */\n      tag_253\n        /* \"#utility.yul\":6152:6154   */\n      0x20\n        /* \"#utility.yul\":6141:6150   */\n      dup4\n        /* \"#utility.yul\":6137:6155   */\n      add\n        /* \"#utility.yul\":6128:6134   */\n      dup5\n        /* \"#utility.yul\":6084:6156   */\n      tag_163\n      jump\t// in\n    tag_253:\n        /* \"#utility.yul\":5831:6163   */\n      swap4\n      swap3\n      pop\n      pop\n      pop\n      jump\t// out\n        /* \"#utility.yul\":6169:6312   */\n    tag_175:\n        /* \"#utility.yul\":6226:6231   */\n      0x00\n        /* \"#utility.yul\":6257:6263   */\n      dup2\n        /* \"#utility.yul\":6251:6264   */\n      mload\n        /* \"#utility.yul\":6242:6264   */\n      swap1\n      pop\n        /* \"#utility.yul\":6273:6306   */\n      tag_255\n        /* \"#utility.yul\":6300:6305   */\n      dup2\n        /* \"#utility.yul\":6273:6306   */\n      tag_159\n      jump\t// in\n    tag_255:\n        /* \"#utility.yul\":6169:6312   */\n      swap3\n      swap2\n      pop\n      pop\n      jump\t// out\n        /* \"#utility.yul\":6318:6669   */\n    tag_135:\n        /* \"#utility.yul\":6388:6394   */\n      0x00\n        /* \"#utility.yul\":6437:6439   */\n      0x20\n        /* \"#utility.yul\":6425:6434   */\n      dup3\n        /* \"#utility.yul\":6416:6423   */\n      dup5\n        /* \"#utility.yul\":6412:6435   */\n      sub\n        /* \"#utility.yul\":6408:6440   */\n      slt\n        /* \"#utility.yul\":6405:6524   */\n      iszero\n      tag_257\n      jumpi\n        /* \"#utility.yul\":6443:6522   */\n      tag_258\n      tag_155\n      jump\t// in\n    tag_258:\n        /* \"#utility.yul\":6405:6524   */\n    tag_257:\n        /* \"#utility.yul\":6563:6564   */\n      0x00\n        /* \"#utility.yul\":6588:6652   */\n      tag_259\n        /* \"#utility.yul\":6644:6651   */\n      dup5\n        /* \"#utility.yul\":6635:6641   */\n      dup3\n        /* \"#utility.yul\":6624:6633   */\n      dup6\n        /* \"#utility.yul\":6620:6642   */\n      add\n        /* \"#utility.yul\":6588:6652   */\n      tag_175\n      jump\t// in\n    tag_259:\n        /* \"#utility.yul\":6578:6652   */\n      swap2\n      pop\n        /* \"#utility.yul\":6534:6662   */\n      pop\n        /* \"#utility.yul\":6318:6669   */\n      swap3\n      swap2\n      pop\n      pop\n      jump\t// out\n\n    auxdata: 0xa26469706673582212205ca437ecf93d30abd8c8a417741bdc8323747bd33378b7e6f2289c880ac16ad064736f6c63430008130033\n}\n",
				"bytecode": {
					"linkReferences": {},
					"object": "60806040523480156200001157600080fd5b506040516200131a3803806200131a8339818101604052810190620000379190620002db565b33600073ffffffffffffffffffffffffffffffffffffffff168173ffffffffffffffffffffffffffffffffffffffff1603620000ad5760006040517f1e4fbdf7000000000000000000000000000000000000000000000000000000008152600401620000a4919062000348565b60405180910390fd5b620000be81620001ad60201b60201c565b5082600160006101000a81548173ffffffffffffffffffffffffffffffffffffffff021916908373ffffffffffffffffffffffffffffffffffffffff1602179055506003829080600181540180825580915050600190039060005260206000200160009091909190916101000a81548173ffffffffffffffffffffffffffffffffffffffff021916908373ffffffffffffffffffffffffffffffffffffffff16021790555080600260006101000a81548173ffffffffffffffffffffffffffffffffffffffff021916908373ffffffffffffffffffffffffffffffffffffffff16021790555050505062000365565b60008060009054906101000a900473ffffffffffffffffffffffffffffffffffffffff169050816000806101000a81548173ffffffffffffffffffffffffffffffffffffffff021916908373ffffffffffffffffffffffffffffffffffffffff1602179055508173ffffffffffffffffffffffffffffffffffffffff168173ffffffffffffffffffffffffffffffffffffffff167f8be0079c531659141344cd1fd0a4f28419497f9722a3daafe3b4186f6b6457e060405160405180910390a35050565b600080fd5b600073ffffffffffffffffffffffffffffffffffffffff82169050919050565b6000620002a38262000276565b9050919050565b620002b58162000296565b8114620002c157600080fd5b50565b600081519050620002d581620002aa565b92915050565b600080600060608486031215620002f757620002f662000271565b5b60006200030786828701620002c4565b93505060206200031a86828701620002c4565b92505060406200032d86828701620002c4565b9150509250925092565b620003428162000296565b82525050565b60006020820190506200035f600083018462000337565b92915050565b610fa580620003756000396000f3fe608060405234801561001057600080fd5b50600436106100f55760003560e01c8063715018a611610097578063b67f8b6d11610066578063b67f8b6d1461025c578063b8d1452f1461027a578063eb56a3bd14610296578063f2fde38b146102c6576100f5565b8063715018a6146101e85780638da5cb5b146101f257806395670f9414610210578063af3fa1f11461022c576100f5565b806329ce1ec5116100d357806329ce1ec5146101765780633fc8cef3146101925780634b0bddd2146101b05780634b37c73f146101cc576100f5565b80630563578a146100fa57806316e20c011461011657806324d7806c14610146575b600080fd5b610114600480360381019061010f9190610be5565b6102e2565b005b610130600480360381019061012b9190610be5565b610345565b60405161013d9190610c2d565b60405180910390f35b610160600480360381019061015b9190610be5565b610365565b60405161016d9190610c2d565b60405180910390f35b610190600480360381019061018b9190610be5565b610385565b005b61019a6103f3565b6040516101a79190610c57565b60405180910390f35b6101ca60048036038101906101c59190610c9e565b610419565b005b6101e660048036038101906101e19190610be5565b6104e0565b005b6101f0610678565b005b6101fa61068c565b6040516102079190610c57565b60405180910390f35b61022a60048036038101906102259190610be5565b6106b5565b005b61024660048036038101906102419190610d14565b610718565b6040516102539190610da0565b60405180910390f35b610264610757565b6040516102719190610c57565b60405180910390f35b610294600480360381019061028f9190610be5565b61077d565b005b6102b060048036038101906102ab9190610dbb565b6107c9565b6040516102bd9190610c2d565b60405180910390f35b6102e060048036038101906102db9190610be5565b61094b565b005b6102ea6109d1565b6001600460008373ffffffffffffffffffffffffffffffffffffffff1673ffffffffffffffffffffffffffffffffffffffff16815260200190815260200160002060006101000a81548160ff02191690831515021790555050565b60046020528060005260406000206000915054906101000a900460ff1681565b60056020528060005260406000206000915054906101000a900460ff1681565b61038d6109d1565b6003819080600181540180825580915050600190039060005260206000200160009091909190916101000a81548173ffffffffffffffffffffffffffffffffffffffff021916908373ffffffffffffffffffffffffffffffffffffffff16021790555050565b600160009054906101000a900473ffffffffffffffffffffffffffffffffffffffff1681565b61042161068c565b73ffffffffffffffffffffffffffffffffffffffff163373ffffffffffffffffffffffffffffffffffffffff1614610485576040517fad9cd75900000000000000000000000000000000000000000000000000000000815260040160405180910390fd5b80600560008473ffffffffffffffffffffffffffffffffffffffff1673ffffffffffffffffffffffffffffffffffffffff16815260200190815260200160002060006101000a81548160ff0219169083151502179055505050565b6104e86109d1565b60005b600380549050811015610674578173ffffffffffffffffffffffffffffffffffffffff166003828154811061052357610522610dfb565b5b9060005260206000200160009054906101000a900473ffffffffffffffffffffffffffffffffffffffff1673ffffffffffffffffffffffffffffffffffffffff1603610661576003600160038054905061057d9190610e59565b8154811061058e5761058d610dfb565b5b9060005260206000200160009054906101000a900473ffffffffffffffffffffffffffffffffffffffff16600382815481106105cd576105cc610dfb565b5b9060005260206000200160006101000a81548173ffffffffffffffffffffffffffffffffffffffff021916908373ffffffffffffffffffffffffffffffffffffffff160217905550600380548061062757610626610e8d565b5b6001900381819060005260206000200160006101000a81549073ffffffffffffffffffffffffffffffffffffffff02191690559055610674565b808061066c90610ebc565b9150506104eb565b5050565b6106806109d1565b61068a6000610ab6565b565b60008060009054906101000a900473ffffffffffffffffffffffffffffffffffffffff16905090565b6106bd6109d1565b6000600460008373ffffffffffffffffffffffffffffffffffffffff1673ffffffffffffffffffffffffffffffffffffffff16815260200190815260200160002060006101000a81548160ff02191690831515021790555050565b6003818154811061072857600080fd5b906000526020600020016000915054906101000a900473ffffffffffffffffffffffffffffffffffffffff1681565b600260009054906101000a900473ffffffffffffffffffffffffffffffffffffffff1681565b6107856109d1565b80600160006101000a81548173ffffffffffffffffffffffffffffffffffffffff021916908373ffffffffffffffffffffffffffffffffffffffff16021790555050565b600080600090505b6003805490508110156108f4576000600260009054906101000a900473ffffffffffffffffffffffffffffffffffffffff1673ffffffffffffffffffffffffffffffffffffffff166396ed28f986600160009054906101000a900473ffffffffffffffffffffffffffffffffffffffff166040518363ffffffff1660e01b815260040161085f929190610f04565b602060405180830381865afa15801561087c573d6000803e3d6000fd5b505050506040513d601f19601f820116820180604052508101906108a09190610f42565b90508373ffffffffffffffffffffffffffffffffffffffff168173ffffffffffffffffffffffffffffffffffffffff16036108e057600192505050610945565b5080806108ec90610ebc565b9150506107d1565b50600460008373ffffffffffffffffffffffffffffffffffffffff1673ffffffffffffffffffffffffffffffffffffffff16815260200190815260200160002060009054906101000a900460ff1690505b92915050565b6109536109d1565b600073ffffffffffffffffffffffffffffffffffffffff168173ffffffffffffffffffffffffffffffffffffffff16036109c55760006040517f1e4fbdf70000000000000000000000000000000000000000000000000000000081526004016109bc9190610c57565b60405180910390fd5b6109ce81610ab6565b50565b60006109db610b7a565b90508073ffffffffffffffffffffffffffffffffffffffff166109fc61068c565b73ffffffffffffffffffffffffffffffffffffffff1614158015610a6a5750600560008273ffffffffffffffffffffffffffffffffffffffff1673ffffffffffffffffffffffffffffffffffffffff16815260200190815260200160002060009054906101000a900460ff16155b15610ab357610a77610b7a565b6040517f118cdaa7000000000000000000000000000000000000000000000000000000008152600401610aaa9190610c57565b60405180910390fd5b50565b60008060009054906101000a900473ffffffffffffffffffffffffffffffffffffffff169050816000806101000a81548173ffffffffffffffffffffffffffffffffffffffff021916908373ffffffffffffffffffffffffffffffffffffffff1602179055508173ffffffffffffffffffffffffffffffffffffffff168173ffffffffffffffffffffffffffffffffffffffff167f8be0079c531659141344cd1fd0a4f28419497f9722a3daafe3b4186f6b6457e060405160405180910390a35050565b600033905090565b600080fd5b600073ffffffffffffffffffffffffffffffffffffffff82169050919050565b6000610bb282610b87565b9050919050565b610bc281610ba7565b8114610bcd57600080fd5b50565b600081359050610bdf81610bb9565b92915050565b600060208284031215610bfb57610bfa610b82565b5b6000610c0984828501610bd0565b91505092915050565b60008115159050919050565b610c2781610c12565b82525050565b6000602082019050610c426000830184610c1e565b92915050565b610c5181610ba7565b82525050565b6000602082019050610c6c6000830184610c48565b92915050565b610c7b81610c12565b8114610c8657600080fd5b50565b600081359050610c9881610c72565b92915050565b60008060408385031215610cb557610cb4610b82565b5b6000610cc385828601610bd0565b9250506020610cd485828601610c89565b9150509250929050565b6000819050919050565b610cf181610cde565b8114610cfc57600080fd5b50565b600081359050610d0e81610ce8565b92915050565b600060208284031215610d2a57610d29610b82565b5b6000610d3884828501610cff565b91505092915050565b6000819050919050565b6000610d66610d61610d5c84610b87565b610d41565b610b87565b9050919050565b6000610d7882610d4b565b9050919050565b6000610d8a82610d6d565b9050919050565b610d9a81610d7f565b82525050565b6000602082019050610db56000830184610d91565b92915050565b60008060408385031215610dd257610dd1610b82565b5b6000610de085828601610bd0565b9250506020610df185828601610bd0565b9150509250929050565b7f4e487b7100000000000000000000000000000000000000000000000000000000600052603260045260246000fd5b7f4e487b7100000000000000000000000000000000000000000000000000000000600052601160045260246000fd5b6000610e6482610cde565b9150610e6f83610cde565b9250828203905081811115610e8757610e86610e2a565b5b92915050565b7f4e487b7100000000000000000000000000000000000000000000000000000000600052603160045260246000fd5b6000610ec782610cde565b91507fffffffffffffffffffffffffffffffffffffffffffffffffffffffffffffffff8203610ef957610ef8610e2a565b5b600182019050919050565b6000604082019050610f196000830185610c48565b610f266020830184610c48565b9392505050565b600081519050610f3c81610bb9565b92915050565b600060208284031215610f5857610f57610b82565b5b6000610f6684828501610f2d565b9150509291505056fea26469706673582212205ca437ecf93d30abd8c8a417741bdc8323747bd33378b7e6f2289c880ac16ad064736f6c63430008130033",
					"opcodes": "PUSH1 0x80 PUSH1 0x40 MSTORE CALLVALUE DUP1 ISZERO PUSH3 0x11 JUMPI PUSH1 0x0 DUP1 REVERT JUMPDEST POP PUSH1 0x40 MLOAD PUSH3 0x131A CODESIZE SUB DUP1 PUSH3 0x131A DUP4 CODECOPY DUP2 DUP2 ADD PUSH1 0x40 MSTORE DUP2 ADD SWAP1 PUSH3 0x37 SWAP2 SWAP1 PUSH3 0x2DB JUMP JUMPDEST CALLER PUSH1 0x0 PUSH20 0xFFFFFFFFFFFFFFFFFFFFFFFFFFFFFFFFFFFFFFFF AND DUP2 PUSH20 0xFFFFFFFFFFFFFFFFFFFFFFFFFFFFFFFFFFFFFFFF AND SUB PUSH3 0xAD JUMPI PUSH1 0x0 PUSH1 0x40 MLOAD PUSH32 0x1E4FBDF700000000000000000000000000000000000000000000000000000000 DUP2 MSTORE PUSH1 0x4 ADD PUSH3 0xA4 SWAP2 SWAP1 PUSH3 0x348 JUMP JUMPDEST PUSH1 0x40 MLOAD DUP1 SWAP2 SUB SWAP1 REVERT JUMPDEST PUSH3 0xBE DUP2 PUSH3 0x1AD PUSH1 0x20 SHL PUSH1 0x20 SHR JUMP JUMPDEST POP DUP3 PUSH1 0x1 PUSH1 0x0 PUSH2 0x100 EXP DUP2 SLOAD DUP2 PUSH20 0xFFFFFFFFFFFFFFFFFFFFFFFFFFFFFFFFFFFFFFFF MUL NOT AND SWAP1 DUP4 PUSH20 0xFFFFFFFFFFFFFFFFFFFFFFFFFFFFFFFFFFFFFFFF AND MUL OR SWAP1 SSTORE POP PUSH1 0x3 DUP3 SWAP1 DUP1 PUSH1 0x1 DUP2 SLOAD ADD DUP1 DUP3 SSTORE DUP1 SWAP2 POP POP PUSH1 0x1 SWAP1 SUB SWAP1 PUSH1 0x0 MSTORE PUSH1 0x20 PUSH1 0x0 KECCAK256 ADD PUSH1 0x0 SWAP1 SWAP2 SWAP1 SWAP2 SWAP1 SWAP2 PUSH2 0x100 EXP DUP2 SLOAD DUP2 PUSH20 0xFFFFFFFFFFFFFFFFFFFFFFFFFFFFFFFFFFFFFFFF MUL NOT AND SWAP1 DUP4 PUSH20 0xFFFFFFFFFFFFFFFFFFFFFFFFFFFFFFFFFFFFFFFF AND MUL OR SWAP1 SSTORE POP DUP1 PUSH1 0x2 PUSH1 0x0 PUSH2 0x100 EXP DUP2 SLOAD DUP2 PUSH20 0xFFFFFFFFFFFFFFFFFFFFFFFFFFFFFFFFFFFFFFFF MUL NOT AND SWAP1 DUP4 PUSH20 0xFFFFFFFFFFFFFFFFFFFFFFFFFFFFFFFFFFFFFFFF AND MUL OR SWAP1 SSTORE POP POP POP POP PUSH3 0x365 JUMP JUMPDEST PUSH1 0x0 DUP1 PUSH1 0x0 SWAP1 SLOAD SWAP1 PUSH2 0x100 EXP SWAP1 DIV PUSH20 0xFFFFFFFFFFFFFFFFFFFFFFFFFFFFFFFFFFFFFFFF AND SWAP1 POP DUP2 PUSH1 0x0 DUP1 PUSH2 0x100 EXP DUP2 SLOAD DUP2 PUSH20 0xFFFFFFFFFFFFFFFFFFFFFFFFFFFFFFFFFFFFFFFF MUL NOT AND SWAP1 DUP4 PUSH20 0xFFFFFFFFFFFFFFFFFFFFFFFFFFFFFFFFFFFFFFFF AND MUL OR SWAP1 SSTORE POP DUP2 PUSH20 0xFFFFFFFFFFFFFFFFFFFFFFFFFFFFFFFFFFFFFFFF AND DUP2 PUSH20 0xFFFFFFFFFFFFFFFFFFFFFFFFFFFFFFFFFFFFFFFF AND PUSH32 0x8BE0079C531659141344CD1FD0A4F28419497F9722A3DAAFE3B4186F6B6457E0 PUSH1 0x40 MLOAD PUSH1 0x40 MLOAD DUP1 SWAP2 SUB SWAP1 LOG3 POP POP JUMP JUMPDEST PUSH1 0x0 DUP1 REVERT JUMPDEST PUSH1 0x0 PUSH20 0xFFFFFFFFFFFFFFFFFFFFFFFFFFFFFFFFFFFFFFFF DUP3 AND SWAP1 POP SWAP2 SWAP1 POP JUMP JUMPDEST PUSH1 0x0 PUSH3 0x2A3 DUP3 PUSH3 0x276 JUMP JUMPDEST SWAP1 POP SWAP2 SWAP1 POP JUMP JUMPDEST PUSH3 0x2B5 DUP2 PUSH3 0x296 JUMP JUMPDEST DUP2 EQ PUSH3 0x2C1 JUMPI PUSH1 0x0 DUP1 REVERT JUMPDEST POP JUMP JUMPDEST PUSH1 0x0 DUP2 MLOAD SWAP1 POP PUSH3 0x2D5 DUP2 PUSH3 0x2AA JUMP JUMPDEST SWAP3 SWAP2 POP POP JUMP JUMPDEST PUSH1 0x0 DUP1 PUSH1 0x0 PUSH1 0x60 DUP5 DUP7 SUB SLT ISZERO PUSH3 0x2F7 JUMPI PUSH3 0x2F6 PUSH3 0x271 JUMP JUMPDEST JUMPDEST PUSH1 0x0 PUSH3 0x307 DUP7 DUP3 DUP8 ADD PUSH3 0x2C4 JUMP JUMPDEST SWAP4 POP POP PUSH1 0x20 PUSH3 0x31A DUP7 DUP3 DUP8 ADD PUSH3 0x2C4 JUMP JUMPDEST SWAP3 POP POP PUSH1 0x40 PUSH3 0x32D DUP7 DUP3 DUP8 ADD PUSH3 0x2C4 JUMP JUMPDEST SWAP2 POP POP SWAP3 POP SWAP3 POP SWAP3 JUMP JUMPDEST PUSH3 0x342 DUP2 PUSH3 0x296 JUMP JUMPDEST DUP3 MSTORE POP POP JUMP JUMPDEST PUSH1 0x0 PUSH1 0x20 DUP3 ADD SWAP1 POP PUSH3 0x35F PUSH1 0x0 DUP4 ADD DUP5 PUSH3 0x337 JUMP JUMPDEST SWAP3 SWAP2 POP POP JUMP JUMPDEST PUSH2 0xFA5 DUP1 PUSH3 0x375 PUSH1 0x0 CODECOPY PUSH1 0x0 RETURN INVALID PUSH1 0x80 PUSH1 0x40 MSTORE CALLVALUE DUP1 ISZERO PUSH2 0x10 JUMPI PUSH1 0x0 DUP1 REVERT JUMPDEST POP PUSH1 0x4 CALLDATASIZE LT PUSH2 0xF5 JUMPI PUSH1 0x0 CALLDATALOAD PUSH1 0xE0 SHR DUP1 PUSH4 0x715018A6 GT PUSH2 0x97 JUMPI DUP1 PUSH4 0xB67F8B6D GT PUSH2 0x66 JUMPI DUP1 PUSH4 0xB67F8B6D EQ PUSH2 0x25C JUMPI DUP1 PUSH4 0xB8D1452F EQ PUSH2 0x27A JUMPI DUP1 PUSH4 0xEB56A3BD EQ PUSH2 0x296 JUMPI DUP1 PUSH4 0xF2FDE38B EQ PUSH2 0x2C6 JUMPI PUSH2 0xF5 JUMP JUMPDEST DUP1 PUSH4 0x715018A6 EQ PUSH2 0x1E8 JUMPI DUP1 PUSH4 0x8DA5CB5B EQ PUSH2 0x1F2 JUMPI DUP1 PUSH4 0x95670F94 EQ PUSH2 0x210 JUMPI DUP1 PUSH4 0xAF3FA1F1 EQ PUSH2 0x22C JUMPI PUSH2 0xF5 JUMP JUMPDEST DUP1 PUSH4 0x29CE1EC5 GT PUSH2 0xD3 JUMPI DUP1 PUSH4 0x29CE1EC5 EQ PUSH2 0x176 JUMPI DUP1 PUSH4 0x3FC8CEF3 EQ PUSH2 0x192 JUMPI DUP1 PUSH4 0x4B0BDDD2 EQ PUSH2 0x1B0 JUMPI DUP1 PUSH4 0x4B37C73F EQ PUSH2 0x1CC JUMPI PUSH2 0xF5 JUMP JUMPDEST DUP1 PUSH4 0x563578A EQ PUSH2 0xFA JUMPI DUP1 PUSH4 0x16E20C01 EQ PUSH2 0x116 JUMPI DUP1 PUSH4 0x24D7806C EQ PUSH2 0x146 JUMPI JUMPDEST PUSH1 0x0 DUP1 REVERT JUMPDEST PUSH2 0x114 PUSH1 0x4 DUP1 CALLDATASIZE SUB DUP2 ADD SWAP1 PUSH2 0x10F SWAP2 SWAP1 PUSH2 0xBE5 JUMP JUMPDEST PUSH2 0x2E2 JUMP JUMPDEST STOP JUMPDEST PUSH2 0x130 PUSH1 0x4 DUP1 CALLDATASIZE SUB DUP2 ADD SWAP1 PUSH2 0x12B SWAP2 SWAP1 PUSH2 0xBE5 JUMP JUMPDEST PUSH2 0x345 JUMP JUMPDEST PUSH1 0x40 MLOAD PUSH2 0x13D SWAP2 SWAP1 PUSH2 0xC2D JUMP JUMPDEST PUSH1 0x40 MLOAD DUP1 SWAP2 SUB SWAP1 RETURN JUMPDEST PUSH2 0x160 PUSH1 0x4 DUP1 CALLDATASIZE SUB DUP2 ADD SWAP1 PUSH2 0x15B SWAP2 SWAP1 PUSH2 0xBE5 JUMP JUMPDEST PUSH2 0x365 JUMP JUMPDEST PUSH1 0x40 MLOAD PUSH2 0x16D SWAP2 SWAP1 PUSH2 0xC2D JUMP JUMPDEST PUSH1 0x40 MLOAD DUP1 SWAP2 SUB SWAP1 RETURN JUMPDEST PUSH2 0x190 PUSH1 0x4 DUP1 CALLDATASIZE SUB DUP2 ADD SWAP1 PUSH2 0x18B SWAP2 SWAP1 PUSH2 0xBE5 JUMP JUMPDEST PUSH2 0x385 JUMP JUMPDEST STOP JUMPDEST PUSH2 0x19A PUSH2 0x3F3 JUMP JUMPDEST PUSH1 0x40 MLOAD PUSH2 0x1A7 SWAP2 SWAP1 PUSH2 0xC57 JUMP JUMPDEST PUSH1 0x40 MLOAD DUP1 SWAP2 SUB SWAP1 RETURN JUMPDEST PUSH2 0x1CA PUSH1 0x4 DUP1 CALLDATASIZE SUB DUP2 ADD SWAP1 PUSH2 0x1C5 SWAP2 SWAP1 PUSH2 0xC9E JUMP JUMPDEST PUSH2 0x419 JUMP JUMPDEST STOP JUMPDEST PUSH2 0x1E6 PUSH1 0x4 DUP1 CALLDATASIZE SUB DUP2 ADD SWAP1 PUSH2 0x1E1 SWAP2 SWAP1 PUSH2 0xBE5 JUMP JUMPDEST PUSH2 0x4E0 JUMP JUMPDEST STOP JUMPDEST PUSH2 0x1F0 PUSH2 0x678 JUMP JUMPDEST STOP JUMPDEST PUSH2 0x1FA PUSH2 0x68C JUMP JUMPDEST PUSH1 0x40 MLOAD PUSH2 0x207 SWAP2 SWAP1 PUSH2 0xC57 JUMP JUMPDEST PUSH1 0x40 MLOAD DUP1 SWAP2 SUB SWAP1 RETURN JUMPDEST PUSH2 0x22A PUSH1 0x4 DUP1 CALLDATASIZE SUB DUP2 ADD SWAP1 PUSH2 0x225 SWAP2 SWAP1 PUSH2 0xBE5 JUMP JUMPDEST PUSH2 0x6B5 JUMP JUMPDEST STOP JUMPDEST PUSH2 0x246 PUSH1 0x4 DUP1 CALLDATASIZE SUB DUP2 ADD SWAP1 PUSH2 0x241 SWAP2 SWAP1 PUSH2 0xD14 JUMP JUMPDEST PUSH2 0x718 JUMP JUMPDEST PUSH1 0x40 MLOAD PUSH2 0x253 SWAP2 SWAP1 PUSH2 0xDA0 JUMP JUMPDEST PUSH1 0x40 MLOAD DUP1 SWAP2 SUB SWAP1 RETURN JUMPDEST PUSH2 0x264 PUSH2 0x757 JUMP JUMPDEST PUSH1 0x40 MLOAD PUSH2 0x271 SWAP2 SWAP1 PUSH2 0xC57 JUMP JUMPDEST PUSH1 0x40 MLOAD DUP1 SWAP2 SUB SWAP1 RETURN JUMPDEST PUSH2 0x294 PUSH1 0x4 DUP1 CALLDATASIZE SUB DUP2 ADD SWAP1 PUSH2 0x28F SWAP2 SWAP1 PUSH2 0xBE5 JUMP JUMPDEST PUSH2 0x77D JUMP JUMPDEST STOP JUMPDEST PUSH2 0x2B0 PUSH1 0x4 DUP1 CALLDATASIZE SUB DUP2 ADD SWAP1 PUSH2 0x2AB SWAP2 SWAP1 PUSH2 0xDBB JUMP JUMPDEST PUSH2 0x7C9 JUMP JUMPDEST PUSH1 0x40 MLOAD PUSH2 0x2BD SWAP2 SWAP1 PUSH2 0xC2D JUMP JUMPDEST PUSH1 0x40 MLOAD DUP1 SWAP2 SUB SWAP1 RETURN JUMPDEST PUSH2 0x2E0 PUSH1 0x4 DUP1 CALLDATASIZE SUB DUP2 ADD SWAP1 PUSH2 0x2DB SWAP2 SWAP1 PUSH2 0xBE5 JUMP JUMPDEST PUSH2 0x94B JUMP JUMPDEST STOP JUMPDEST PUSH2 0x2EA PUSH2 0x9D1 JUMP JUMPDEST PUSH1 0x1 PUSH1 0x4 PUSH1 0x0 DUP4 PUSH20 0xFFFFFFFFFFFFFFFFFFFFFFFFFFFFFFFFFFFFFFFF AND PUSH20 0xFFFFFFFFFFFFFFFFFFFFFFFFFFFFFFFFFFFFFFFF AND DUP2 MSTORE PUSH1 0x20 ADD SWAP1 DUP2 MSTORE PUSH1 0x20 ADD PUSH1 0x0 KECCAK256 PUSH1 0x0 PUSH2 0x100 EXP DUP2 SLOAD DUP2 PUSH1 0xFF MUL NOT AND SWAP1 DUP4 ISZERO ISZERO MUL OR SWAP1 SSTORE POP POP JUMP JUMPDEST PUSH1 0x4 PUSH1 0x20 MSTORE DUP1 PUSH1 0x0 MSTORE PUSH1 0x40 PUSH1 0x0 KECCAK256 PUSH1 0x0 SWAP2 POP SLOAD SWAP1 PUSH2 0x100 EXP SWAP1 DIV PUSH1 0xFF AND DUP2 JUMP JUMPDEST PUSH1 0x5 PUSH1 0x20 MSTORE DUP1 PUSH1 0x0 MSTORE PUSH1 0x40 PUSH1 0x0 KECCAK256 PUSH1 0x0 SWAP2 POP SLOAD SWAP1 PUSH2 0x100 EXP SWAP1 DIV PUSH1 0xFF AND DUP2 JUMP JUMPDEST PUSH2 0x38D PUSH2 0x9D1 JUMP JUMPDEST PUSH1 0x3 DUP2 SWAP1 DUP1 PUSH1 0x1 DUP2 SLOAD ADD DUP1 DUP3 SSTORE DUP1 SWAP2 POP POP PUSH1 0x1 SWAP1 SUB SWAP1 PUSH1 0x0 MSTORE PUSH1 0x20 PUSH1 0x0 KECCAK256 ADD PUSH1 0x0 SWAP1 SWAP2 SWAP1 SWAP2 SWAP1 SWAP2 PUSH2 0x100 EXP DUP2 SLOAD DUP2 PUSH20 0xFFFFFFFFFFFFFFFFFFFFFFFFFFFFFFFFFFFFFFFF MUL NOT AND SWAP1 DUP4 PUSH20 0xFFFFFFFFFFFFFFFFFFFFFFFFFFFFFFFFFFFFFFFF AND MUL OR SWAP1 SSTORE POP POP JUMP JUMPDEST PUSH1 0x1 PUSH1 0x0 SWAP1 SLOAD SWAP1 PUSH2 0x100 EXP SWAP1 DIV PUSH20 0xFFFFFFFFFFFFFFFFFFFFFFFFFFFFFFFFFFFFFFFF AND DUP2 JUMP JUMPDEST PUSH2 0x421 PUSH2 0x68C JUMP JUMPDEST PUSH20 0xFFFFFFFFFFFFFFFFFFFFFFFFFFFFFFFFFFFFFFFF AND CALLER PUSH20 0xFFFFFFFFFFFFFFFFFFFFFFFFFFFFFFFFFFFFFFFF AND EQ PUSH2 0x485 JUMPI PUSH1 0x40 MLOAD PUSH32 0xAD9CD75900000000000000000000000000000000000000000000000000000000 DUP2 MSTORE PUSH1 0x4 ADD PUSH1 0x40 MLOAD DUP1 SWAP2 SUB SWAP1 REVERT JUMPDEST DUP1 PUSH1 0x5 PUSH1 0x0 DUP5 PUSH20 0xFFFFFFFFFFFFFFFFFFFFFFFFFFFFFFFFFFFFFFFF AND PUSH20 0xFFFFFFFFFFFFFFFFFFFFFFFFFFFFFFFFFFFFFFFF AND DUP2 MSTORE PUSH1 0x20 ADD SWAP1 DUP2 MSTORE PUSH1 0x20 ADD PUSH1 0x0 KECCAK256 PUSH1 0x0 PUSH2 0x100 EXP DUP2 SLOAD DUP2 PUSH1 0xFF MUL NOT AND SWAP1 DUP4 ISZERO ISZERO MUL OR SWAP1 SSTORE POP POP POP JUMP JUMPDEST PUSH2 0x4E8 PUSH2 0x9D1 JUMP JUMPDEST PUSH1 0x0 JUMPDEST PUSH1 0x3 DUP1 SLOAD SWAP1 POP DUP2 LT ISZERO PUSH2 0x674 JUMPI DUP2 PUSH20 0xFFFFFFFFFFFFFFFFFFFFFFFFFFFFFFFFFFFFFFFF AND PUSH1 0x3 DUP3 DUP2 SLOAD DUP2 LT PUSH2 0x523 JUMPI PUSH2 0x522 PUSH2 0xDFB JUMP JUMPDEST JUMPDEST SWAP1 PUSH1 0x0 MSTORE PUSH1 0x20 PUSH1 0x0 KECCAK256 ADD PUSH1 0x0 SWAP1 SLOAD SWAP1 PUSH2 0x100 EXP SWAP1 DIV PUSH20 0xFFFFFFFFFFFFFFFFFFFFFFFFFFFFFFFFFFFFFFFF AND PUSH20 0xFFFFFFFFFFFFFFFFFFFFFFFFFFFFFFFFFFFFFFFF AND SUB PUSH2 0x661 JUMPI PUSH1 0x3 PUSH1 0x1 PUSH1 0x3 DUP1 SLOAD SWAP1 POP PUSH2 0x57D SWAP2 SWAP1 PUSH2 0xE59 JUMP JUMPDEST DUP2 SLOAD DUP2 LT PUSH2 0x58E JUMPI PUSH2 0x58D PUSH2 0xDFB JUMP JUMPDEST JUMPDEST SWAP1 PUSH1 0x0 MSTORE PUSH1 0x20 PUSH1 0x0 KECCAK256 ADD PUSH1 0x0 SWAP1 SLOAD SWAP1 PUSH2 0x100 EXP SWAP1 DIV PUSH20 0xFFFFFFFFFFFFFFFFFFFFFFFFFFFFFFFFFFFFFFFF AND PUSH1 0x3 DUP3 DUP2 SLOAD DUP2 LT PUSH2 0x5CD JUMPI PUSH2 0x5CC PUSH2 0xDFB JUMP JUMPDEST JUMPDEST SWAP1 PUSH1 0x0 MSTORE PUSH1 0x20 PUSH1 0x0 KECCAK256 ADD PUSH1 0x0 PUSH2 0x100 EXP DUP2 SLOAD DUP2 PUSH20 0xFFFFFFFFFFFFFFFFFFFFFFFFFFFFFFFFFFFFFFFF MUL NOT AND SWAP1 DUP4 PUSH20 0xFFFFFFFFFFFFFFFFFFFFFFFFFFFFFFFFFFFFFFFF AND MUL OR SWAP1 SSTORE POP PUSH1 0x3 DUP1 SLOAD DUP1 PUSH2 0x627 JUMPI PUSH2 0x626 PUSH2 0xE8D JUMP JUMPDEST JUMPDEST PUSH1 0x1 SWAP1 SUB DUP2 DUP2 SWAP1 PUSH1 0x0 MSTORE PUSH1 0x20 PUSH1 0x0 KECCAK256 ADD PUSH1 0x0 PUSH2 0x100 EXP DUP2 SLOAD SWAP1 PUSH20 0xFFFFFFFFFFFFFFFFFFFFFFFFFFFFFFFFFFFFFFFF MUL NOT AND SWAP1 SSTORE SWAP1 SSTORE PUSH2 0x674 JUMP JUMPDEST DUP1 DUP1 PUSH2 0x66C SWAP1 PUSH2 0xEBC JUMP JUMPDEST SWAP2 POP POP PUSH2 0x4EB JUMP JUMPDEST POP POP JUMP JUMPDEST PUSH2 0x680 PUSH2 0x9D1 JUMP JUMPDEST PUSH2 0x68A PUSH1 0x0 PUSH2 0xAB6 JUMP JUMPDEST JUMP JUMPDEST PUSH1 0x0 DUP1 PUSH1 0x0 SWAP1 SLOAD SWAP1 PUSH2 0x100 EXP SWAP1 DIV PUSH20 0xFFFFFFFFFFFFFFFFFFFFFFFFFFFFFFFFFFFFFFFF AND SWAP1 POP SWAP1 JUMP JUMPDEST PUSH2 0x6BD PUSH2 0x9D1 JUMP JUMPDEST PUSH1 0x0 PUSH1 0x4 PUSH1 0x0 DUP4 PUSH20 0xFFFFFFFFFFFFFFFFFFFFFFFFFFFFFFFFFFFFFFFF AND PUSH20 0xFFFFFFFFFFFFFFFFFFFFFFFFFFFFFFFFFFFFFFFF AND DUP2 MSTORE PUSH1 0x20 ADD SWAP1 DUP2 MSTORE PUSH1 0x20 ADD PUSH1 0x0 KECCAK256 PUSH1 0x0 PUSH2 0x100 EXP DUP2 SLOAD DUP2 PUSH1 0xFF MUL NOT AND SWAP1 DUP4 ISZERO ISZERO MUL OR SWAP1 SSTORE POP POP JUMP JUMPDEST PUSH1 0x3 DUP2 DUP2 SLOAD DUP2 LT PUSH2 0x728 JUMPI PUSH1 0x0 DUP1 REVERT JUMPDEST SWAP1 PUSH1 0x0 MSTORE PUSH1 0x20 PUSH1 0x0 KECCAK256 ADD PUSH1 0x0 SWAP2 POP SLOAD SWAP1 PUSH2 0x100 EXP SWAP1 DIV PUSH20 0xFFFFFFFFFFFFFFFFFFFFFFFFFFFFFFFFFFFFFFFF AND DUP2 JUMP JUMPDEST PUSH1 0x2 PUSH1 0x0 SWAP1 SLOAD SWAP1 PUSH2 0x100 EXP SWAP1 DIV PUSH20 0xFFFFFFFFFFFFFFFFFFFFFFFFFFFFFFFFFFFFFFFF AND DUP2 JUMP JUMPDEST PUSH2 0x785 PUSH2 0x9D1 JUMP JUMPDEST DUP1 PUSH1 0x1 PUSH1 0x0 PUSH2 0x100 EXP DUP2 SLOAD DUP2 PUSH20 0xFFFFFFFFFFFFFFFFFFFFFFFFFFFFFFFFFFFFFFFF MUL NOT AND SWAP1 DUP4 PUSH20 0xFFFFFFFFFFFFFFFFFFFFFFFFFFFFFFFFFFFFFFFF AND MUL OR SWAP1 SSTORE POP POP JUMP JUMPDEST PUSH1 0x0 DUP1 PUSH1 0x0 SWAP1 POP JUMPDEST PUSH1 0x3 DUP1 SLOAD SWAP1 POP DUP2 LT ISZERO PUSH2 0x8F4 JUMPI PUSH1 0x0 PUSH1 0x2 PUSH1 0x0 SWAP1 SLOAD SWAP1 PUSH2 0x100 EXP SWAP1 DIV PUSH20 0xFFFFFFFFFFFFFFFFFFFFFFFFFFFFFFFFFFFFFFFF AND PUSH20 0xFFFFFFFFFFFFFFFFFFFFFFFFFFFFFFFFFFFFFFFF AND PUSH4 0x96ED28F9 DUP7 PUSH1 0x1 PUSH1 0x0 SWAP1 SLOAD SWAP1 PUSH2 0x100 EXP SWAP1 DIV PUSH20 0xFFFFFFFFFFFFFFFFFFFFFFFFFFFFFFFFFFFFFFFF AND PUSH1 0x40 MLOAD DUP4 PUSH4 0xFFFFFFFF AND PUSH1 0xE0 SHL DUP2 MSTORE PUSH1 0x4 ADD PUSH2 0x85F SWAP3 SWAP2 SWAP1 PUSH2 0xF04 JUMP JUMPDEST PUSH1 0x20 PUSH1 0x40 MLOAD DUP1 DUP4 SUB DUP2 DUP7 GAS STATICCALL ISZERO DUP1 ISZERO PUSH2 0x87C JUMPI RETURNDATASIZE PUSH1 0x0 DUP1 RETURNDATACOPY RETURNDATASIZE PUSH1 0x0 REVERT JUMPDEST POP POP POP POP PUSH1 0x40 MLOAD RETURNDATASIZE PUSH1 0x1F NOT PUSH1 0x1F DUP3 ADD AND DUP3 ADD DUP1 PUSH1 0x40 MSTORE POP DUP2 ADD SWAP1 PUSH2 0x8A0 SWAP2 SWAP1 PUSH2 0xF42 JUMP JUMPDEST SWAP1 POP DUP4 PUSH20 0xFFFFFFFFFFFFFFFFFFFFFFFFFFFFFFFFFFFFFFFF AND DUP2 PUSH20 0xFFFFFFFFFFFFFFFFFFFFFFFFFFFFFFFFFFFFFFFF AND SUB PUSH2 0x8E0 JUMPI PUSH1 0x1 SWAP3 POP POP POP PUSH2 0x945 JUMP JUMPDEST POP DUP1 DUP1 PUSH2 0x8EC SWAP1 PUSH2 0xEBC JUMP JUMPDEST SWAP2 POP POP PUSH2 0x7D1 JUMP JUMPDEST POP PUSH1 0x4 PUSH1 0x0 DUP4 PUSH20 0xFFFFFFFFFFFFFFFFFFFFFFFFFFFFFFFFFFFFFFFF AND PUSH20 0xFFFFFFFFFFFFFFFFFFFFFFFFFFFFFFFFFFFFFFFF AND DUP2 MSTORE PUSH1 0x20 ADD SWAP1 DUP2 MSTORE PUSH1 0x20 ADD PUSH1 0x0 KECCAK256 PUSH1 0x0 SWAP1 SLOAD SWAP1 PUSH2 0x100 EXP SWAP1 DIV PUSH1 0xFF AND SWAP1 POP JUMPDEST SWAP3 SWAP2 POP POP JUMP JUMPDEST PUSH2 0x953 PUSH2 0x9D1 JUMP JUMPDEST PUSH1 0x0 PUSH20 0xFFFFFFFFFFFFFFFFFFFFFFFFFFFFFFFFFFFFFFFF AND DUP2 PUSH20 0xFFFFFFFFFFFFFFFFFFFFFFFFFFFFFFFFFFFFFFFF AND SUB PUSH2 0x9C5 JUMPI PUSH1 0x0 PUSH1 0x40 MLOAD PUSH32 0x1E4FBDF700000000000000000000000000000000000000000000000000000000 DUP2 MSTORE PUSH1 0x4 ADD PUSH2 0x9BC SWAP2 SWAP1 PUSH2 0xC57 JUMP JUMPDEST PUSH1 0x40 MLOAD DUP1 SWAP2 SUB SWAP1 REVERT JUMPDEST PUSH2 0x9CE DUP2 PUSH2 0xAB6 JUMP JUMPDEST POP JUMP JUMPDEST PUSH1 0x0 PUSH2 0x9DB PUSH2 0xB7A JUMP JUMPDEST SWAP1 POP DUP1 PUSH20 0xFFFFFFFFFFFFFFFFFFFFFFFFFFFFFFFFFFFFFFFF AND PUSH2 0x9FC PUSH2 0x68C JUMP JUMPDEST PUSH20 0xFFFFFFFFFFFFFFFFFFFFFFFFFFFFFFFFFFFFFFFF AND EQ ISZERO DUP1 ISZERO PUSH2 0xA6A JUMPI POP PUSH1 0x5 PUSH1 0x0 DUP3 PUSH20 0xFFFFFFFFFFFFFFFFFFFFFFFFFFFFFFFFFFFFFFFF AND PUSH20 0xFFFFFFFFFFFFFFFFFFFFFFFFFFFFFFFFFFFFFFFF AND DUP2 MSTORE PUSH1 0x20 ADD SWAP1 DUP2 MSTORE PUSH1 0x20 ADD PUSH1 0x0 KECCAK256 PUSH1 0x0 SWAP1 SLOAD SWAP1 PUSH2 0x100 EXP SWAP1 DIV PUSH1 0xFF AND ISZERO JUMPDEST ISZERO PUSH2 0xAB3 JUMPI PUSH2 0xA77 PUSH2 0xB7A JUMP JUMPDEST PUSH1 0x40 MLOAD PUSH32 0x118CDAA700000000000000000000000000000000000000000000000000000000 DUP2 MSTORE PUSH1 0x4 ADD PUSH2 0xAAA SWAP2 SWAP1 PUSH2 0xC57 JUMP JUMPDEST PUSH1 0x40 MLOAD DUP1 SWAP2 SUB SWAP1 REVERT JUMPDEST POP JUMP JUMPDEST PUSH1 0x0 DUP1 PUSH1 0x0 SWAP1 SLOAD SWAP1 PUSH2 0x100 EXP SWAP1 DIV PUSH20 0xFFFFFFFFFFFFFFFFFFFFFFFFFFFFFFFFFFFFFFFF AND SWAP1 POP DUP2 PUSH1 0x0 DUP1 PUSH2 0x100 EXP DUP2 SLOAD DUP2 PUSH20 0xFFFFFFFFFFFFFFFFFFFFFFFFFFFFFFFFFFFFFFFF MUL NOT AND SWAP1 DUP4 PUSH20 0xFFFFFFFFFFFFFFFFFFFFFFFFFFFFFFFFFFFFFFFF AND MUL OR SWAP1 SSTORE POP DUP2 PUSH20 0xFFFFFFFFFFFFFFFFFFFFFFFFFFFFFFFFFFFFFFFF AND DUP2 PUSH20 0xFFFFFFFFFFFFFFFFFFFFFFFFFFFFFFFFFFFFFFFF AND PUSH32 0x8BE0079C531659141344CD1FD0A4F28419497F9722A3DAAFE3B4186F6B6457E0 PUSH1 0x40 MLOAD PUSH1 0x40 MLOAD DUP1 SWAP2 SUB SWAP1 LOG3 POP POP JUMP JUMPDEST PUSH1 0x0 CALLER SWAP1 POP SWAP1 JUMP JUMPDEST PUSH1 0x0 DUP1 REVERT JUMPDEST PUSH1 0x0 PUSH20 0xFFFFFFFFFFFFFFFFFFFFFFFFFFFFFFFFFFFFFFFF DUP3 AND SWAP1 POP SWAP2 SWAP1 POP JUMP JUMPDEST PUSH1 0x0 PUSH2 0xBB2 DUP3 PUSH2 0xB87 JUMP JUMPDEST SWAP1 POP SWAP2 SWAP1 POP JUMP JUMPDEST PUSH2 0xBC2 DUP2 PUSH2 0xBA7 JUMP JUMPDEST DUP2 EQ PUSH2 0xBCD JUMPI PUSH1 0x0 DUP1 REVERT JUMPDEST POP JUMP JUMPDEST PUSH1 0x0 DUP2 CALLDATALOAD SWAP1 POP PUSH2 0xBDF DUP2 PUSH2 0xBB9 JUMP JUMPDEST SWAP3 SWAP2 POP POP JUMP JUMPDEST PUSH1 0x0 PUSH1 0x20 DUP3 DUP5 SUB SLT ISZERO PUSH2 0xBFB JUMPI PUSH2 0xBFA PUSH2 0xB82 JUMP JUMPDEST JUMPDEST PUSH1 0x0 PUSH2 0xC09 DUP5 DUP3 DUP6 ADD PUSH2 0xBD0 JUMP JUMPDEST SWAP2 POP POP SWAP3 SWAP2 POP POP JUMP JUMPDEST PUSH1 0x0 DUP2 ISZERO ISZERO SWAP1 POP SWAP2 SWAP1 POP JUMP JUMPDEST PUSH2 0xC27 DUP2 PUSH2 0xC12 JUMP JUMPDEST DUP3 MSTORE POP POP JUMP JUMPDEST PUSH1 0x0 PUSH1 0x20 DUP3 ADD SWAP1 POP PUSH2 0xC42 PUSH1 0x0 DUP4 ADD DUP5 PUSH2 0xC1E JUMP JUMPDEST SWAP3 SWAP2 POP POP JUMP JUMPDEST PUSH2 0xC51 DUP2 PUSH2 0xBA7 JUMP JUMPDEST DUP3 MSTORE POP POP JUMP JUMPDEST PUSH1 0x0 PUSH1 0x20 DUP3 ADD SWAP1 POP PUSH2 0xC6C PUSH1 0x0 DUP4 ADD DUP5 PUSH2 0xC48 JUMP JUMPDEST SWAP3 SWAP2 POP POP JUMP JUMPDEST PUSH2 0xC7B DUP2 PUSH2 0xC12 JUMP JUMPDEST DUP2 EQ PUSH2 0xC86 JUMPI PUSH1 0x0 DUP1 REVERT JUMPDEST POP JUMP JUMPDEST PUSH1 0x0 DUP2 CALLDATALOAD SWAP1 POP PUSH2 0xC98 DUP2 PUSH2 0xC72 JUMP JUMPDEST SWAP3 SWAP2 POP POP JUMP JUMPDEST PUSH1 0x0 DUP1 PUSH1 0x40 DUP4 DUP6 SUB SLT ISZERO PUSH2 0xCB5 JUMPI PUSH2 0xCB4 PUSH2 0xB82 JUMP JUMPDEST JUMPDEST PUSH1 0x0 PUSH2 0xCC3 DUP6 DUP3 DUP7 ADD PUSH2 0xBD0 JUMP JUMPDEST SWAP3 POP POP PUSH1 0x20 PUSH2 0xCD4 DUP6 DUP3 DUP7 ADD PUSH2 0xC89 JUMP JUMPDEST SWAP2 POP POP SWAP3 POP SWAP3 SWAP1 POP JUMP JUMPDEST PUSH1 0x0 DUP2 SWAP1 POP SWAP2 SWAP1 POP JUMP JUMPDEST PUSH2 0xCF1 DUP2 PUSH2 0xCDE JUMP JUMPDEST DUP2 EQ PUSH2 0xCFC JUMPI PUSH1 0x0 DUP1 REVERT JUMPDEST POP JUMP JUMPDEST PUSH1 0x0 DUP2 CALLDATALOAD SWAP1 POP PUSH2 0xD0E DUP2 PUSH2 0xCE8 JUMP JUMPDEST SWAP3 SWAP2 POP POP JUMP JUMPDEST PUSH1 0x0 PUSH1 0x20 DUP3 DUP5 SUB SLT ISZERO PUSH2 0xD2A JUMPI PUSH2 0xD29 PUSH2 0xB82 JUMP JUMPDEST JUMPDEST PUSH1 0x0 PUSH2 0xD38 DUP5 DUP3 DUP6 ADD PUSH2 0xCFF JUMP JUMPDEST SWAP2 POP POP SWAP3 SWAP2 POP POP JUMP JUMPDEST PUSH1 0x0 DUP2 SWAP1 POP SWAP2 SWAP1 POP JUMP JUMPDEST PUSH1 0x0 PUSH2 0xD66 PUSH2 0xD61 PUSH2 0xD5C DUP5 PUSH2 0xB87 JUMP JUMPDEST PUSH2 0xD41 JUMP JUMPDEST PUSH2 0xB87 JUMP JUMPDEST SWAP1 POP SWAP2 SWAP1 POP JUMP JUMPDEST PUSH1 0x0 PUSH2 0xD78 DUP3 PUSH2 0xD4B JUMP JUMPDEST SWAP1 POP SWAP2 SWAP1 POP JUMP JUMPDEST PUSH1 0x0 PUSH2 0xD8A DUP3 PUSH2 0xD6D JUMP JUMPDEST SWAP1 POP SWAP2 SWAP1 POP JUMP JUMPDEST PUSH2 0xD9A DUP2 PUSH2 0xD7F JUMP JUMPDEST DUP3 MSTORE POP POP JUMP JUMPDEST PUSH1 0x0 PUSH1 0x20 DUP3 ADD SWAP1 POP PUSH2 0xDB5 PUSH1 0x0 DUP4 ADD DUP5 PUSH2 0xD91 JUMP JUMPDEST SWAP3 SWAP2 POP POP JUMP JUMPDEST PUSH1 0x0 DUP1 PUSH1 0x40 DUP4 DUP6 SUB SLT ISZERO PUSH2 0xDD2 JUMPI PUSH2 0xDD1 PUSH2 0xB82 JUMP JUMPDEST JUMPDEST PUSH1 0x0 PUSH2 0xDE0 DUP6 DUP3 DUP7 ADD PUSH2 0xBD0 JUMP JUMPDEST SWAP3 POP POP PUSH1 0x20 PUSH2 0xDF1 DUP6 DUP3 DUP7 ADD PUSH2 0xBD0 JUMP JUMPDEST SWAP2 POP POP SWAP3 POP SWAP3 SWAP1 POP JUMP JUMPDEST PUSH32 0x4E487B7100000000000000000000000000000000000000000000000000000000 PUSH1 0x0 MSTORE PUSH1 0x32 PUSH1 0x4 MSTORE PUSH1 0x24 PUSH1 0x0 REVERT JUMPDEST PUSH32 0x4E487B7100000000000000000000000000000000000000000000000000000000 PUSH1 0x0 MSTORE PUSH1 0x11 PUSH1 0x4 MSTORE PUSH1 0x24 PUSH1 0x0 REVERT JUMPDEST PUSH1 0x0 PUSH2 0xE64 DUP3 PUSH2 0xCDE JUMP JUMPDEST SWAP2 POP PUSH2 0xE6F DUP4 PUSH2 0xCDE JUMP JUMPDEST SWAP3 POP DUP3 DUP3 SUB SWAP1 POP DUP2 DUP2 GT ISZERO PUSH2 0xE87 JUMPI PUSH2 0xE86 PUSH2 0xE2A JUMP JUMPDEST JUMPDEST SWAP3 SWAP2 POP POP JUMP JUMPDEST PUSH32 0x4E487B7100000000000000000000000000000000000000000000000000000000 PUSH1 0x0 MSTORE PUSH1 0x31 PUSH1 0x4 MSTORE PUSH1 0x24 PUSH1 0x0 REVERT JUMPDEST PUSH1 0x0 PUSH2 0xEC7 DUP3 PUSH2 0xCDE JUMP JUMPDEST SWAP2 POP PUSH32 0xFFFFFFFFFFFFFFFFFFFFFFFFFFFFFFFFFFFFFFFFFFFFFFFFFFFFFFFFFFFFFFFF DUP3 SUB PUSH2 0xEF9 JUMPI PUSH2 0xEF8 PUSH2 0xE2A JUMP JUMPDEST JUMPDEST PUSH1 0x1 DUP3 ADD SWAP1 POP SWAP2 SWAP1 POP JUMP JUMPDEST PUSH1 0x0 PUSH1 0x40 DUP3 ADD SWAP1 POP PUSH2 0xF19 PUSH1 0x0 DUP4 ADD DUP6 PUSH2 0xC48 JUMP JUMPDEST PUSH2 0xF26 PUSH1 0x20 DUP4 ADD DUP5 PUSH2 0xC48 JUMP JUMPDEST SWAP4 SWAP3 POP POP POP JUMP JUMPDEST PUSH1 0x0 DUP2 MLOAD SWAP1 POP PUSH2 0xF3C DUP2 PUSH2 0xBB9 JUMP JUMPDEST SWAP3 SWAP2 POP POP JUMP JUMPDEST PUSH1 0x0 PUSH1 0x20 DUP3 DUP5 SUB SLT ISZERO PUSH2 0xF58 JUMPI PUSH2 0xF57 PUSH2 0xB82 JUMP JUMPDEST JUMPDEST PUSH1 0x0 PUSH2 0xF66 DUP5 DUP3 DUP6 ADD PUSH2 0xF2D JUMP JUMPDEST SWAP2 POP POP SWAP3 SWAP2 POP POP JUMP INVALID LOG2 PUSH5 0x6970667358 0x22 SLT KECCAK256 0x5C LOG4 CALLDATACOPY 0xEC 0xF9 RETURNDATASIZE ADDRESS 0xAB 0xD8 0xC8 LOG4 OR PUSH21 0x1BDC8323747BD33378B7E6F2289C880AC16AD06473 PUSH16 0x6C634300081300330000000000000000 "
				},
				"gasEstimates": {
					"creation": {
						"codeDepositCost": "801000",
						"executionCost": "infinite",
						"totalCost": "infinite"
					},
					"external": {
						"Master()": "2536",
						"addFactory(address)": "infinite",
						"addPregradRestricted(address)": "infinite",
						"isAdmin(address)": "2913",
						"isPregradRestricted(address,address)": "infinite",
						"knownFactories(uint256)": "infinite",
						"owner()": "2567",
						"pregradRestricted(address)": "2891",
						"removeFactory(address)": "infinite",
						"removePregradRestricted(address)": "infinite",
						"renounceOwnership()": "infinite",
						"setAdmin(address,bool)": "27263",
						"setWeth(address)": "infinite",
						"transferOwnership(address)": "infinite",
						"weth()": "2559"
					},
					"internal": {
						"_checkOwner()": "infinite"
					}
				},
				"methodIdentifiers": {
					"Master()": "b67f8b6d",
					"addFactory(address)": "29ce1ec5",
					"addPregradRestricted(address)": "0563578a",
					"isAdmin(address)": "24d7806c",
					"isPregradRestricted(address,address)": "eb56a3bd",
					"knownFactories(uint256)": "af3fa1f1",
					"owner()": "8da5cb5b",
					"pregradRestricted(address)": "16e20c01",
					"removeFactory(address)": "4b37c73f",
					"removePregradRestricted(address)": "95670f94",
					"renounceOwnership()": "715018a6",
					"setAdmin(address,bool)": "4b0bddd2",
					"setWeth(address)": "b8d1452f",
					"transferOwnership(address)": "f2fde38b",
					"weth()": "3fc8cef3"
				}
			},
			"storageLayout": {
				"storage": [
					{
						"astId": 8,
						"contract": "src/_ExternalEntities.sol:_ExternalEntities",
						"label": "_owner",
						"offset": 0,
						"slot": "0",
						"type": "t_address"
					},
					{
						"astId": 949,
						"contract": "src/_ExternalEntities.sol:_ExternalEntities",
						"label": "weth",
						"offset": 0,
						"slot": "1",
						"type": "t_address"
					},
					{
						"astId": 951,
						"contract": "src/_ExternalEntities.sol:_ExternalEntities",
						"label": "Master",
						"offset": 0,
						"slot": "2",
						"type": "t_address"
					},
					{
						"astId": 955,
						"contract": "src/_ExternalEntities.sol:_ExternalEntities",
						"label": "knownFactories",
						"offset": 0,
						"slot": "3",
						"type": "t_array(t_contract(IUniswapV2Factory)1254)dyn_storage"
					},
					{
						"astId": 959,
						"contract": "src/_ExternalEntities.sol:_ExternalEntities",
						"label": "pregradRestricted",
						"offset": 0,
						"slot": "4",
						"type": "t_mapping(t_address,t_bool)"
					},
					{
						"astId": 963,
						"contract": "src/_ExternalEntities.sol:_ExternalEntities",
						"label": "isAdmin",
						"offset": 0,
						"slot": "5",
						"type": "t_mapping(t_address,t_bool)"
					}
				],
				"types": {
					"t_address": {
						"encoding": "inplace",
						"label": "address",
						"numberOfBytes": "20"
					},
					"t_array(t_contract(IUniswapV2Factory)1254)dyn_storage": {
						"base": "t_contract(IUniswapV2Factory)1254",
						"encoding": "dynamic_array",
						"label": "contract IUniswapV2Factory[]",
						"numberOfBytes": "32"
					},
					"t_bool": {
						"encoding": "inplace",
						"label": "bool",
						"numberOfBytes": "1"
					},
					"t_contract(IUniswapV2Factory)1254": {
						"encoding": "inplace",
						"label": "contract IUniswapV2Factory",
						"numberOfBytes": "20"
					},
					"t_mapping(t_address,t_bool)": {
						"encoding": "mapping",
						"key": "t_address",
						"label": "mapping(address => bool)",
						"numberOfBytes": "32",
						"value": "t_bool"
					}
				}
			},
			"userdoc": {
				"kind": "user",
				"methods": {},
				"version": 1
			}
		}
	}
}