{
	"data": {
		"bytecode": {
			"linkReferences": {},
			"object": "608060405261070860045534801561001657600080fd5b50604051610eda380380610eda83398101604081905261003591610104565b806001600160a01b03811661006457604051631e4fbdf760e01b81526000600482015260240160405180910390fd5b61006d81610098565b505060018055600580546001600160a01b0319166001600160a01b0392909216919091179055610137565b600080546001600160a01b038381166001600160a01b0319831681178455604051919092169283917f8be0079c531659141344cd1fd0a4f28419497f9722a3daafe3b4186f6b6457e09190a35050565b80516001600160a01b03811681146100ff57600080fd5b919050565b6000806040838503121561011757600080fd5b610120836100e8565b915061012e602084016100e8565b90509250929050565b610d94806101466000396000f3fe6080604052600436106100ab5760003560e01c806358c064f21161006457806358c064f21461022d57806364c9ec6f1461024d5780636ab3846b14610285578063715018a6146102a55780638da5cb5b146102ba578063f2fde38b146102d857600080fd5b80630fb5a6b4146100b757806311b66177146100e05780631c0d3e2714610110578063363621f2146101305780633ce57a3e146101525780634487d3df1461018257600080fd5b366100b257005b600080fd5b3480156100c357600080fd5b506100cd60045481565b6040519081526020015b60405180910390f35b3480156100ec57600080fd5b506101006100fb366004610b49565b6102f8565b60405190151581526020016100d7565b34801561011c57600080fd5b5061010061012b366004610b49565b610342565b34801561013c57600080fd5b5061015061014b366004610b75565b61038b565b005b34801561015e57600080fd5b5061010061016d366004610bbb565b60036020526000908152604090205460ff1681565b34801561018e57600080fd5b506101a261019d366004610bbb565b61090c565b604080516001600160a01b03909d168d5264ffffffffff9b8c1660208e0152998b16998c019990995296891660608b015297909416608089015267ffffffffffffffff90921660a0880152151560c0870152151560e08601526001600160b01b03908116610100860152909216610120840152610140830191909152610160820152610180016100d7565b34801561023957600080fd5b506100cd610248366004610bbb565b6109bc565b34801561025957600080fd5b5060055461026d906001600160a01b031681565b6040516001600160a01b0390911681526020016100d7565b34801561029157600080fd5b506101506102a0366004610bbb565b610a51565b3480156102b157600080fd5b50610150610a5e565b3480156102c657600080fd5b506000546001600160a01b031661026d565b3480156102e457600080fd5b506101506102f3366004610bd4565b610a72565b60006002838154811061030d5761030d610bf6565b600091825260208083206001600160a01b03861684526007600890930201919091019052604090205460ff1690505b92915050565b60006002838154811061035757610357610bf6565b600091825260208083206001600160a01b03861684526006600890930201919091019052604090205460ff16905092915050565b6005546001600160a01b031633146103b657604051632d66ae7d60e21b815260040160405180910390fd5b60006103c56020830183610bd4565b6001600160a01b03160361040957604051631d0c9c7360e31b81526020600482015260056024820152643a37b5b2b760d91b60448201526064015b60405180910390fd5b6104196040830160208401610c0c565b64ffffffffff1615801561044257506104386080830160608401610c0c565b64ffffffffff1615155b8061048157506104586040830160208401610c0c565b64ffffffffff161580159061048157506104786080830160608401610c0c565b64ffffffffff16155b156104cf57604051631d0c9c7360e31b815260206004820152601860248201527f726174696f4b6f6c4f7257616c6c6574436f756e744b6f6c00000000000000006044820152606401610400565b6104df6060830160408401610c0c565b64ffffffffff1615801561050857506104fe60a0830160808401610c0c565b64ffffffffff1615155b80610547575061051e6060830160408401610c0c565b64ffffffffff1615801590610547575061053e60a0830160808401610c0c565b64ffffffffff16155b156105a157604051631d0c9c7360e31b8152602060048201526024808201527f726174696f436f6d6d756e6974794f7257616c6c6574436f756e74436f6d6d756044820152636e69747960e01b6064820152608401610400565b60028054600190810180835560009283526105bc9190610c49565b90506000600282815481106105d3576105d3610bf6565b600091825260209182902060089091020191506105f290840184610bd4565b81546001600160a01b0319166001600160a01b039190911617815561061d6080850160608601610c0c565b815464ffffffffff91909116600160a01b0264ffffffffff60a01b1990911617815561064f60a0850160808601610c0c565b815464ffffffffff91909116600160c81b0264ffffffffff60c81b199091161781556106816040850160208601610c0c565b64ffffffffff16158015906106ab57506106a16080850160608601610c0c565b64ffffffffff1615155b15610732576106c06080850160608601610c0c565b64ffffffffff166127106106da6040870160208801610c0c565b64ffffffffff166106f16040870160208801610c5c565b6106fb9190610c85565b6107059190610cb7565b61070f9190610cb7565b6002820180546001600160b01b0319166001600160b01b03929092169190911790555b6107426060850160408601610c0c565b64ffffffffff161580159061076c575061076260a0850160808601610c0c565b64ffffffffff1615155b156107f35761078160a0850160808601610c0c565b64ffffffffff1661271061079b6060870160408801610c0c565b64ffffffffff166107b26040870160208801610c5c565b6107bc9190610c85565b6107c69190610cb7565b6107d09190610cb7565b6003820180546001600160b01b0319166001600160b01b03929092169190911790555b6108036060840160408501610ceb565b60018201805467ffffffffffffffff92909216600160501b0267ffffffffffffffff60501b1990921691909117905560a0840135600482015560c084013560058201556108566080840160608501610d15565b600182018054911515600160901b0260ff60901b1990921691909117905561088460a0840160808501610d15565b600182018054911515600160981b0260ff60981b199092169190911790556108af6020840184610bd4565b6001600160a01b0316827f40b494018691a1ac710adcd206d042fc3a3000400293ef913b73491f3a0594aa6108ea6060870160408801610ceb565b60405167ffffffffffffffff909116815260200160405180910390a350505050565b6002818154811061091c57600080fd5b60009182526020909120600890910201805460018201546002830154600384015460048501546005909501546001600160a01b038516965064ffffffffff600160a01b8604811696600160c81b909604811695858216956501000000000081049092169467ffffffffffffffff600160501b8404169460ff600160901b8504811695600160981b90950416936001600160b01b039283169391909216918c565b600080600283815481106109d2576109d2610bf6565b6000918252602090912060089091020160018101546003820154919250610a13916501000000000090910464ffffffffff16906001600160b01b0316610c85565b60018201546002830154610a379164ffffffffff16906001600160b01b0316610c85565b610a419190610d37565b6001600160b01b03169392505050565b610a59610ab0565b600455565b610a66610ab0565b610a706000610add565b565b610a7a610ab0565b6001600160a01b038116610aa457604051631e4fbdf760e01b815260006004820152602401610400565b610aad81610add565b50565b6000546001600160a01b03163314610a705760405163118cdaa760e01b8152336004820152602401610400565b600080546001600160a01b038381166001600160a01b0319831681178455604051919092169283917f8be0079c531659141344cd1fd0a4f28419497f9722a3daafe3b4186f6b6457e09190a35050565b80356001600160a01b0381168114610b4457600080fd5b919050565b60008060408385031215610b5c57600080fd5b82359150610b6c60208401610b2d565b90509250929050565b600080828403610180811215610b8a57600080fd5b60e0811215610b9857600080fd5b83925060a060df1982011215610bad57600080fd5b5060e0830190509250929050565b600060208284031215610bcd57600080fd5b5035919050565b600060208284031215610be657600080fd5b610bef82610b2d565b9392505050565b634e487b7160e01b600052603260045260246000fd5b600060208284031215610c1e57600080fd5b813564ffffffffff81168114610bef57600080fd5b634e487b7160e01b600052601160045260246000fd5b8181038181111561033c5761033c610c33565b600060208284031215610c6e57600080fd5b81356001600160b01b0381168114610bef57600080fd5b6001600160b01b03828116828216818102831692918115828504821417610cae57610cae610c33565b50505092915050565b60006001600160b01b0383811680610cdf57634e487b7160e01b600052601260045260246000fd5b92169190910492915050565b600060208284031215610cfd57600080fd5b813567ffffffffffffffff81168114610bef57600080fd5b600060208284031215610d2757600080fd5b81358015158114610bef57600080fd5b6001600160b01b03818116838216019080821115610d5757610d57610c33565b509291505056fea264697066735822122015e5bfd52001e390e9267348b300db6012717083241e98ae62a6fd23e69c888164736f6c63430008130033",
			"opcodes": "PUSH1 0x80 PUSH1 0x40 MSTORE PUSH2 0x708 PUSH1 0x4 SSTORE CALLVALUE DUP1 ISZERO PUSH2 0x16 JUMPI PUSH1 0x0 DUP1 REVERT JUMPDEST POP PUSH1 0x40 MLOAD PUSH2 0xEDA CODESIZE SUB DUP1 PUSH2 0xEDA DUP4 CODECOPY DUP2 ADD PUSH1 0x40 DUP2 SWAP1 MSTORE PUSH2 0x35 SWAP2 PUSH2 0x104 JUMP JUMPDEST DUP1 PUSH1 0x1 PUSH1 0x1 PUSH1 0xA0 SHL SUB DUP2 AND PUSH2 0x64 JUMPI PUSH1 0x40 MLOAD PUSH4 0x1E4FBDF7 PUSH1 0xE0 SHL DUP2 MSTORE PUSH1 0x0 PUSH1 0x4 DUP3 ADD MSTORE PUSH1 0x24 ADD PUSH1 0x40 MLOAD DUP1 SWAP2 SUB SWAP1 REVERT JUMPDEST PUSH2 0x6D DUP2 PUSH2 0x98 JUMP JUMPDEST POP POP PUSH1 0x1 DUP1 SSTORE PUSH1 0x5 DUP1 SLOAD PUSH1 0x1 PUSH1 0x1 PUSH1 0xA0 SHL SUB NOT AND PUSH1 0x1 PUSH1 0x1 PUSH1 0xA0 SHL SUB SWAP3 SWAP1 SWAP3 AND SWAP2 SWAP1 SWAP2 OR SWAP1 SSTORE PUSH2 0x137 JUMP JUMPDEST PUSH1 0x0 DUP1 SLOAD PUSH1 0x1 PUSH1 0x1 PUSH1 0xA0 SHL SUB DUP4 DUP2 AND PUSH1 0x1 PUSH1 0x1 PUSH1 0xA0 SHL SUB NOT DUP4 AND DUP2 OR DUP5 SSTORE PUSH1 0x40 MLOAD SWAP2 SWAP1 SWAP3 AND SWAP3 DUP4 SWAP2 PUSH32 0x8BE0079C531659141344CD1FD0A4F28419497F9722A3DAAFE3B4186F6B6457E0 SWAP2 SWAP1 LOG3 POP POP JUMP JUMPDEST DUP1 MLOAD PUSH1 0x1 PUSH1 0x1 PUSH1 0xA0 SHL SUB DUP2 AND DUP2 EQ PUSH2 0xFF JUMPI PUSH1 0x0 DUP1 REVERT JUMPDEST SWAP2 SWAP1 POP JUMP JUMPDEST PUSH1 0x0 DUP1 PUSH1 0x40 DUP4 DUP6 SUB SLT ISZERO PUSH2 0x117 JUMPI PUSH1 0x0 DUP1 REVERT JUMPDEST PUSH2 0x120 DUP4 PUSH2 0xE8 JUMP JUMPDEST SWAP2 POP PUSH2 0x12E PUSH1 0x20 DUP5 ADD PUSH2 0xE8 JUMP JUMPDEST SWAP1 POP SWAP3 POP SWAP3 SWAP1 POP JUMP JUMPDEST PUSH2 0xD94 DUP1 PUSH2 0x146 PUSH1 0x0 CODECOPY PUSH1 0x0 RETURN INVALID PUSH1 0x80 PUSH1 0x40 MSTORE PUSH1 0x4 CALLDATASIZE LT PUSH2 0xAB JUMPI PUSH1 0x0 CALLDATALOAD PUSH1 0xE0 SHR DUP1 PUSH4 0x58C064F2 GT PUSH2 0x64 JUMPI DUP1 PUSH4 0x58C064F2 EQ PUSH2 0x22D JUMPI DUP1 PUSH4 0x64C9EC6F EQ PUSH2 0x24D JUMPI DUP1 PUSH4 0x6AB3846B EQ PUSH2 0x285 JUMPI DUP1 PUSH4 0x715018A6 EQ PUSH2 0x2A5 JUMPI DUP1 PUSH4 0x8DA5CB5B EQ PUSH2 0x2BA JUMPI DUP1 PUSH4 0xF2FDE38B EQ PUSH2 0x2D8 JUMPI PUSH1 0x0 DUP1 REVERT JUMPDEST DUP1 PUSH4 0xFB5A6B4 EQ PUSH2 0xB7 JUMPI DUP1 PUSH4 0x11B66177 EQ PUSH2 0xE0 JUMPI DUP1 PUSH4 0x1C0D3E27 EQ PUSH2 0x110 JUMPI DUP1 PUSH4 0x363621F2 EQ PUSH2 0x130 JUMPI DUP1 PUSH4 0x3CE57A3E EQ PUSH2 0x152 JUMPI DUP1 PUSH4 0x4487D3DF EQ PUSH2 0x182 JUMPI PUSH1 0x0 DUP1 REVERT JUMPDEST CALLDATASIZE PUSH2 0xB2 JUMPI STOP JUMPDEST PUSH1 0x0 DUP1 REVERT JUMPDEST CALLVALUE DUP1 ISZERO PUSH2 0xC3 JUMPI PUSH1 0x0 DUP1 REVERT JUMPDEST POP PUSH2 0xCD PUSH1 0x4 SLOAD DUP2 JUMP JUMPDEST PUSH1 0x40 MLOAD SWAP1 DUP2 MSTORE PUSH1 0x20 ADD JUMPDEST PUSH1 0x40 MLOAD DUP1 SWAP2 SUB SWAP1 RETURN JUMPDEST CALLVALUE DUP1 ISZERO PUSH2 0xEC JUMPI PUSH1 0x0 DUP1 REVERT JUMPDEST POP PUSH2 0x100 PUSH2 0xFB CALLDATASIZE PUSH1 0x4 PUSH2 0xB49 JUMP JUMPDEST PUSH2 0x2F8 JUMP JUMPDEST PUSH1 0x40 MLOAD SWAP1 ISZERO ISZERO DUP2 MSTORE PUSH1 0x20 ADD PUSH2 0xD7 JUMP JUMPDEST CALLVALUE DUP1 ISZERO PUSH2 0x11C JUMPI PUSH1 0x0 DUP1 REVERT JUMPDEST POP PUSH2 0x100 PUSH2 0x12B CALLDATASIZE PUSH1 0x4 PUSH2 0xB49 JUMP JUMPDEST PUSH2 0x342 JUMP JUMPDEST CALLVALUE DUP1 ISZERO PUSH2 0x13C JUMPI PUSH1 0x0 DUP1 REVERT JUMPDEST POP PUSH2 0x150 PUSH2 0x14B CALLDATASIZE PUSH1 0x4 PUSH2 0xB75 JUMP JUMPDEST PUSH2 0x38B JUMP JUMPDEST STOP JUMPDEST CALLVALUE DUP1 ISZERO PUSH2 0x15E JUMPI PUSH1 0x0 DUP1 REVERT JUMPDEST POP PUSH2 0x100 PUSH2 0x16D CALLDATASIZE PUSH1 0x4 PUSH2 0xBBB JUMP JUMPDEST PUSH1 0x3 PUSH1 0x20 MSTORE PUSH1 0x0 SWAP1 DUP2 MSTORE PUSH1 0x40 SWAP1 KECCAK256 SLOAD PUSH1 0xFF AND DUP2 JUMP JUMPDEST CALLVALUE DUP1 ISZERO PUSH2 0x18E JUMPI PUSH1 0x0 DUP1 REVERT JUMPDEST POP PUSH2 0x1A2 PUSH2 0x19D CALLDATASIZE PUSH1 0x4 PUSH2 0xBBB JUMP JUMPDEST PUSH2 0x90C JUMP JUMPDEST PUSH1 0x40 DUP1 MLOAD PUSH1 0x1 PUSH1 0x1 PUSH1 0xA0 SHL SUB SWAP1 SWAP14 AND DUP14 MSTORE PUSH5 0xFFFFFFFFFF SWAP12 DUP13 AND PUSH1 0x20 DUP15 ADD MSTORE SWAP10 DUP12 AND SWAP10 DUP13 ADD SWAP10 SWAP1 SWAP10 MSTORE SWAP7 DUP10 AND PUSH1 0x60 DUP12 ADD MSTORE SWAP8 SWAP1 SWAP5 AND PUSH1 0x80 DUP10 ADD MSTORE PUSH8 0xFFFFFFFFFFFFFFFF SWAP1 SWAP3 AND PUSH1 0xA0 DUP9 ADD MSTORE ISZERO ISZERO PUSH1 0xC0 DUP8 ADD MSTORE ISZERO ISZERO PUSH1 0xE0 DUP7 ADD MSTORE PUSH1 0x1 PUSH1 0x1 PUSH1 0xB0 SHL SUB SWAP1 DUP2 AND PUSH2 0x100 DUP7 ADD MSTORE SWAP1 SWAP3 AND PUSH2 0x120 DUP5 ADD MSTORE PUSH2 0x140 DUP4 ADD SWAP2 SWAP1 SWAP2 MSTORE PUSH2 0x160 DUP3 ADD MSTORE PUSH2 0x180 ADD PUSH2 0xD7 JUMP JUMPDEST CALLVALUE DUP1 ISZERO PUSH2 0x239 JUMPI PUSH1 0x0 DUP1 REVERT JUMPDEST POP PUSH2 0xCD PUSH2 0x248 CALLDATASIZE PUSH1 0x4 PUSH2 0xBBB JUMP JUMPDEST PUSH2 0x9BC JUMP JUMPDEST CALLVALUE DUP1 ISZERO PUSH2 0x259 JUMPI PUSH1 0x0 DUP1 REVERT JUMPDEST POP PUSH1 0x5 SLOAD PUSH2 0x26D SWAP1 PUSH1 0x1 PUSH1 0x1 PUSH1 0xA0 SHL SUB AND DUP2 JUMP JUMPDEST PUSH1 0x40 MLOAD PUSH1 0x1 PUSH1 0x1 PUSH1 0xA0 SHL SUB SWAP1 SWAP2 AND DUP2 MSTORE PUSH1 0x20 ADD PUSH2 0xD7 JUMP JUMPDEST CALLVALUE DUP1 ISZERO PUSH2 0x291 JUMPI PUSH1 0x0 DUP1 REVERT JUMPDEST POP PUSH2 0x150 PUSH2 0x2A0 CALLDATASIZE PUSH1 0x4 PUSH2 0xBBB JUMP JUMPDEST PUSH2 0xA51 JUMP JUMPDEST CALLVALUE DUP1 ISZERO PUSH2 0x2B1 JUMPI PUSH1 0x0 DUP1 REVERT JUMPDEST POP PUSH2 0x150 PUSH2 0xA5E JUMP JUMPDEST CALLVALUE DUP1 ISZERO PUSH2 0x2C6 JUMPI PUSH1 0x0 DUP1 REVERT JUMPDEST POP PUSH1 0x0 SLOAD PUSH1 0x1 PUSH1 0x1 PUSH1 0xA0 SHL SUB AND PUSH2 0x26D JUMP JUMPDEST CALLVALUE DUP1 ISZERO PUSH2 0x2E4 JUMPI PUSH1 0x0 DUP1 REVERT JUMPDEST POP PUSH2 0x150 PUSH2 0x2F3 CALLDATASIZE PUSH1 0x4 PUSH2 0xBD4 JUMP JUMPDEST PUSH2 0xA72 JUMP JUMPDEST PUSH1 0x0 PUSH1 0x2 DUP4 DUP2 SLOAD DUP2 LT PUSH2 0x30D JUMPI PUSH2 0x30D PUSH2 0xBF6 JUMP JUMPDEST PUSH1 0x0 SWAP2 DUP3 MSTORE PUSH1 0x20 DUP1 DUP4 KECCAK256 PUSH1 0x1 PUSH1 0x1 PUSH1 0xA0 SHL SUB DUP7 AND DUP5 MSTORE PUSH1 0x7 PUSH1 0x8 SWAP1 SWAP4 MUL ADD SWAP2 SWAP1 SWAP2 ADD SWAP1 MSTORE PUSH1 0x40 SWAP1 KECCAK256 SLOAD PUSH1 0xFF AND SWAP1 POP JUMPDEST SWAP3 SWAP2 POP POP JUMP JUMPDEST PUSH1 0x0 PUSH1 0x2 DUP4 DUP2 SLOAD DUP2 LT PUSH2 0x357 JUMPI PUSH2 0x357 PUSH2 0xBF6 JUMP JUMPDEST PUSH1 0x0 SWAP2 DUP3 MSTORE PUSH1 0x20 DUP1 DUP4 KECCAK256 PUSH1 0x1 PUSH1 0x1 PUSH1 0xA0 SHL SUB DUP7 AND DUP5 MSTORE PUSH1 0x6 PUSH1 0x8 SWAP1 SWAP4 MUL ADD SWAP2 SWAP1 SWAP2 ADD SWAP1 MSTORE PUSH1 0x40 SWAP1 KECCAK256 SLOAD PUSH1 0xFF AND SWAP1 POP SWAP3 SWAP2 POP POP JUMP JUMPDEST PUSH1 0x5 SLOAD PUSH1 0x1 PUSH1 0x1 PUSH1 0xA0 SHL SUB AND CALLER EQ PUSH2 0x3B6 JUMPI PUSH1 0x40 MLOAD PUSH4 0x2D66AE7D PUSH1 0xE2 SHL DUP2 MSTORE PUSH1 0x4 ADD PUSH1 0x40 MLOAD DUP1 SWAP2 SUB SWAP1 REVERT JUMPDEST PUSH1 0x0 PUSH2 0x3C5 PUSH1 0x20 DUP4 ADD DUP4 PUSH2 0xBD4 JUMP JUMPDEST PUSH1 0x1 PUSH1 0x1 PUSH1 0xA0 SHL SUB AND SUB PUSH2 0x409 JUMPI PUSH1 0x40 MLOAD PUSH4 0x1D0C9C73 PUSH1 0xE3 SHL DUP2 MSTORE PUSH1 0x20 PUSH1 0x4 DUP3 ADD MSTORE PUSH1 0x5 PUSH1 0x24 DUP3 ADD MSTORE PUSH5 0x3A37B5B2B7 PUSH1 0xD9 SHL PUSH1 0x44 DUP3 ADD MSTORE PUSH1 0x64 ADD JUMPDEST PUSH1 0x40 MLOAD DUP1 SWAP2 SUB SWAP1 REVERT JUMPDEST PUSH2 0x419 PUSH1 0x40 DUP4 ADD PUSH1 0x20 DUP5 ADD PUSH2 0xC0C JUMP JUMPDEST PUSH5 0xFFFFFFFFFF AND ISZERO DUP1 ISZERO PUSH2 0x442 JUMPI POP PUSH2 0x438 PUSH1 0x80 DUP4 ADD PUSH1 0x60 DUP5 ADD PUSH2 0xC0C JUMP JUMPDEST PUSH5 0xFFFFFFFFFF AND ISZERO ISZERO JUMPDEST DUP1 PUSH2 0x481 JUMPI POP PUSH2 0x458 PUSH1 0x40 DUP4 ADD PUSH1 0x20 DUP5 ADD PUSH2 0xC0C JUMP JUMPDEST PUSH5 0xFFFFFFFFFF AND ISZERO DUP1 ISZERO SWAP1 PUSH2 0x481 JUMPI POP PUSH2 0x478 PUSH1 0x80 DUP4 ADD PUSH1 0x60 DUP5 ADD PUSH2 0xC0C JUMP JUMPDEST PUSH5 0xFFFFFFFFFF AND ISZERO JUMPDEST ISZERO PUSH2 0x4CF JUMPI PUSH1 0x40 MLOAD PUSH4 0x1D0C9C73 PUSH1 0xE3 SHL DUP2 MSTORE PUSH1 0x20 PUSH1 0x4 DUP3 ADD MSTORE PUSH1 0x18 PUSH1 0x24 DUP3 ADD MSTORE PUSH32 0x726174696F4B6F6C4F7257616C6C6574436F756E744B6F6C0000000000000000 PUSH1 0x44 DUP3 ADD MSTORE PUSH1 0x64 ADD PUSH2 0x400 JUMP JUMPDEST PUSH2 0x4DF PUSH1 0x60 DUP4 ADD PUSH1 0x40 DUP5 ADD PUSH2 0xC0C JUMP JUMPDEST PUSH5 0xFFFFFFFFFF AND ISZERO DUP1 ISZERO PUSH2 0x508 JUMPI POP PUSH2 0x4FE PUSH1 0xA0 DUP4 ADD PUSH1 0x80 DUP5 ADD PUSH2 0xC0C JUMP JUMPDEST PUSH5 0xFFFFFFFFFF AND ISZERO ISZERO JUMPDEST DUP1 PUSH2 0x547 JUMPI POP PUSH2 0x51E PUSH1 0x60 DUP4 ADD PUSH1 0x40 DUP5 ADD PUSH2 0xC0C JUMP JUMPDEST PUSH5 0xFFFFFFFFFF AND ISZERO DUP1 ISZERO SWAP1 PUSH2 0x547 JUMPI POP PUSH2 0x53E PUSH1 0xA0 DUP4 ADD PUSH1 0x80 DUP5 ADD PUSH2 0xC0C JUMP JUMPDEST PUSH5 0xFFFFFFFFFF AND ISZERO JUMPDEST ISZERO PUSH2 0x5A1 JUMPI PUSH1 0x40 MLOAD PUSH4 0x1D0C9C73 PUSH1 0xE3 SHL DUP2 MSTORE PUSH1 0x20 PUSH1 0x4 DUP3 ADD MSTORE PUSH1 0x24 DUP1 DUP3 ADD MSTORE PUSH32 0x726174696F436F6D6D756E6974794F7257616C6C6574436F756E74436F6D6D75 PUSH1 0x44 DUP3 ADD MSTORE PUSH4 0x6E697479 PUSH1 0xE0 SHL PUSH1 0x64 DUP3 ADD MSTORE PUSH1 0x84 ADD PUSH2 0x400 JUMP JUMPDEST PUSH1 0x2 DUP1 SLOAD PUSH1 0x1 SWAP1 DUP2 ADD DUP1 DUP4 SSTORE PUSH1 0x0 SWAP3 DUP4 MSTORE PUSH2 0x5BC SWAP2 SWAP1 PUSH2 0xC49 JUMP JUMPDEST SWAP1 POP PUSH1 0x0 PUSH1 0x2 DUP3 DUP2 SLOAD DUP2 LT PUSH2 0x5D3 JUMPI PUSH2 0x5D3 PUSH2 0xBF6 JUMP JUMPDEST PUSH1 0x0 SWAP2 DUP3 MSTORE PUSH1 0x20 SWAP2 DUP3 SWAP1 KECCAK256 PUSH1 0x8 SWAP1 SWAP2 MUL ADD SWAP2 POP PUSH2 0x5F2 SWAP1 DUP5 ADD DUP5 PUSH2 0xBD4 JUMP JUMPDEST DUP2 SLOAD PUSH1 0x1 PUSH1 0x1 PUSH1 0xA0 SHL SUB NOT AND PUSH1 0x1 PUSH1 0x1 PUSH1 0xA0 SHL SUB SWAP2 SWAP1 SWAP2 AND OR DUP2 SSTORE PUSH2 0x61D PUSH1 0x80 DUP6 ADD PUSH1 0x60 DUP7 ADD PUSH2 0xC0C JUMP JUMPDEST DUP2 SLOAD PUSH5 0xFFFFFFFFFF SWAP2 SWAP1 SWAP2 AND PUSH1 0x1 PUSH1 0xA0 SHL MUL PUSH5 0xFFFFFFFFFF PUSH1 0xA0 SHL NOT SWAP1 SWAP2 AND OR DUP2 SSTORE PUSH2 0x64F PUSH1 0xA0 DUP6 ADD PUSH1 0x80 DUP7 ADD PUSH2 0xC0C JUMP JUMPDEST DUP2 SLOAD PUSH5 0xFFFFFFFFFF SWAP2 SWAP1 SWAP2 AND PUSH1 0x1 PUSH1 0xC8 SHL MUL PUSH5 0xFFFFFFFFFF PUSH1 0xC8 SHL NOT SWAP1 SWAP2 AND OR DUP2 SSTORE PUSH2 0x681 PUSH1 0x40 DUP6 ADD PUSH1 0x20 DUP7 ADD PUSH2 0xC0C JUMP JUMPDEST PUSH5 0xFFFFFFFFFF AND ISZERO DUP1 ISZERO SWAP1 PUSH2 0x6AB JUMPI POP PUSH2 0x6A1 PUSH1 0x80 DUP6 ADD PUSH1 0x60 DUP7 ADD PUSH2 0xC0C JUMP JUMPDEST PUSH5 0xFFFFFFFFFF AND ISZERO ISZERO JUMPDEST ISZERO PUSH2 0x732 JUMPI PUSH2 0x6C0 PUSH1 0x80 DUP6 ADD PUSH1 0x60 DUP7 ADD PUSH2 0xC0C JUMP JUMPDEST PUSH5 0xFFFFFFFFFF AND PUSH2 0x2710 PUSH2 0x6DA PUSH1 0x40 DUP8 ADD PUSH1 0x20 DUP9 ADD PUSH2 0xC0C JUMP JUMPDEST PUSH5 0xFFFFFFFFFF AND PUSH2 0x6F1 PUSH1 0x40 DUP8 ADD PUSH1 0x20 DUP9 ADD PUSH2 0xC5C JUMP JUMPDEST PUSH2 0x6FB SWAP2 SWAP1 PUSH2 0xC85 JUMP JUMPDEST PUSH2 0x705 SWAP2 SWAP1 PUSH2 0xCB7 JUMP JUMPDEST PUSH2 0x70F SWAP2 SWAP1 PUSH2 0xCB7 JUMP JUMPDEST PUSH1 0x2 DUP3 ADD DUP1 SLOAD PUSH1 0x1 PUSH1 0x1 PUSH1 0xB0 SHL SUB NOT AND PUSH1 0x1 PUSH1 0x1 PUSH1 0xB0 SHL SUB SWAP3 SWAP1 SWAP3 AND SWAP2 SWAP1 SWAP2 OR SWAP1 SSTORE JUMPDEST PUSH2 0x742 PUSH1 0x60 DUP6 ADD PUSH1 0x40 DUP7 ADD PUSH2 0xC0C JUMP JUMPDEST PUSH5 0xFFFFFFFFFF AND ISZERO DUP1 ISZERO SWAP1 PUSH2 0x76C JUMPI POP PUSH2 0x762 PUSH1 0xA0 DUP6 ADD PUSH1 0x80 DUP7 ADD PUSH2 0xC0C JUMP JUMPDEST PUSH5 0xFFFFFFFFFF AND ISZERO ISZERO JUMPDEST ISZERO PUSH2 0x7F3 JUMPI PUSH2 0x781 PUSH1 0xA0 DUP6 ADD PUSH1 0x80 DUP7 ADD PUSH2 0xC0C JUMP JUMPDEST PUSH5 0xFFFFFFFFFF AND PUSH2 0x2710 PUSH2 0x79B PUSH1 0x60 DUP8 ADD PUSH1 0x40 DUP9 ADD PUSH2 0xC0C JUMP JUMPDEST PUSH5 0xFFFFFFFFFF AND PUSH2 0x7B2 PUSH1 0x40 DUP8 ADD PUSH1 0x20 DUP9 ADD PUSH2 0xC5C JUMP JUMPDEST PUSH2 0x7BC SWAP2 SWAP1 PUSH2 0xC85 JUMP JUMPDEST PUSH2 0x7C6 SWAP2 SWAP1 PUSH2 0xCB7 JUMP JUMPDEST PUSH2 0x7D0 SWAP2 SWAP1 PUSH2 0xCB7 JUMP JUMPDEST PUSH1 0x3 DUP3 ADD DUP1 SLOAD PUSH1 0x1 PUSH1 0x1 PUSH1 0xB0 SHL SUB NOT AND PUSH1 0x1 PUSH1 0x1 PUSH1 0xB0 SHL SUB SWAP3 SWAP1 SWAP3 AND SWAP2 SWAP1 SWAP2 OR SWAP1 SSTORE JUMPDEST PUSH2 0x803 PUSH1 0x60 DUP5 ADD PUSH1 0x40 DUP6 ADD PUSH2 0xCEB JUMP JUMPDEST PUSH1 0x1 DUP3 ADD DUP1 SLOAD PUSH8 0xFFFFFFFFFFFFFFFF SWAP3 SWAP1 SWAP3 AND PUSH1 0x1 PUSH1 0x50 SHL MUL PUSH8 0xFFFFFFFFFFFFFFFF PUSH1 0x50 SHL NOT SWAP1 SWAP3 AND SWAP2 SWAP1 SWAP2 OR SWAP1 SSTORE PUSH1 0xA0 DUP5 ADD CALLDATALOAD PUSH1 0x4 DUP3 ADD SSTORE PUSH1 0xC0 DUP5 ADD CALLDATALOAD PUSH1 0x5 DUP3 ADD SSTORE PUSH2 0x856 PUSH1 0x80 DUP5 ADD PUSH1 0x60 DUP6 ADD PUSH2 0xD15 JUMP JUMPDEST PUSH1 0x1 DUP3 ADD DUP1 SLOAD SWAP2 ISZERO ISZERO PUSH1 0x1 PUSH1 0x90 SHL MUL PUSH1 0xFF PUSH1 0x90 SHL NOT SWAP1 SWAP3 AND SWAP2 SWAP1 SWAP2 OR SWAP1 SSTORE PUSH2 0x884 PUSH1 0xA0 DUP5 ADD PUSH1 0x80 DUP6 ADD PUSH2 0xD15 JUMP JUMPDEST PUSH1 0x1 DUP3 ADD DUP1 SLOAD SWAP2 ISZERO ISZERO PUSH1 0x1 PUSH1 0x98 SHL MUL PUSH1 0xFF PUSH1 0x98 SHL NOT SWAP1 SWAP3 AND SWAP2 SWAP1 SWAP2 OR SWAP1 SSTORE PUSH2 0x8AF PUSH1 0x20 DUP5 ADD DUP5 PUSH2 0xBD4 JUMP JUMPDEST PUSH1 0x1 PUSH1 0x1 PUSH1 0xA0 SHL SUB AND DUP3 PUSH32 0x40B494018691A1AC710ADCD206D042FC3A3000400293EF913B73491F3A0594AA PUSH2 0x8EA PUSH1 0x60 DUP8 ADD PUSH1 0x40 DUP9 ADD PUSH2 0xCEB JUMP JUMPDEST PUSH1 0x40 MLOAD PUSH8 0xFFFFFFFFFFFFFFFF SWAP1 SWAP2 AND DUP2 MSTORE PUSH1 0x20 ADD PUSH1 0x40 MLOAD DUP1 SWAP2 SUB SWAP1 LOG3 POP POP POP POP JUMP JUMPDEST PUSH1 0x2 DUP2 DUP2 SLOAD DUP2 LT PUSH2 0x91C JUMPI PUSH1 0x0 DUP1 REVERT JUMPDEST PUSH1 0x0 SWAP2 DUP3 MSTORE PUSH1 0x20 SWAP1 SWAP2 KECCAK256 PUSH1 0x8 SWAP1 SWAP2 MUL ADD DUP1 SLOAD PUSH1 0x1 DUP3 ADD SLOAD PUSH1 0x2 DUP4 ADD SLOAD PUSH1 0x3 DUP5 ADD SLOAD PUSH1 0x4 DUP6 ADD SLOAD PUSH1 0x5 SWAP1 SWAP6 ADD SLOAD PUSH1 0x1 PUSH1 0x1 PUSH1 0xA0 SHL SUB DUP6 AND SWAP7 POP PUSH5 0xFFFFFFFFFF PUSH1 0x1 PUSH1 0xA0 SHL DUP7 DIV DUP2 AND SWAP7 PUSH1 0x1 PUSH1 0xC8 SHL SWAP1 SWAP7 DIV DUP2 AND SWAP6 DUP6 DUP3 AND SWAP6 PUSH6 0x10000000000 DUP2 DIV SWAP1 SWAP3 AND SWAP5 PUSH8 0xFFFFFFFFFFFFFFFF PUSH1 0x1 PUSH1 0x50 SHL DUP5 DIV AND SWAP5 PUSH1 0xFF PUSH1 0x1 PUSH1 0x90 SHL DUP6 DIV DUP2 AND SWAP6 PUSH1 0x1 PUSH1 0x98 SHL SWAP1 SWAP6 DIV AND SWAP4 PUSH1 0x1 PUSH1 0x1 PUSH1 0xB0 SHL SUB SWAP3 DUP4 AND SWAP4 SWAP2 SWAP1 SWAP3 AND SWAP2 DUP13 JUMP JUMPDEST PUSH1 0x0 DUP1 PUSH1 0x2 DUP4 DUP2 SLOAD DUP2 LT PUSH2 0x9D2 JUMPI PUSH2 0x9D2 PUSH2 0xBF6 JUMP JUMPDEST PUSH1 0x0 SWAP2 DUP3 MSTORE PUSH1 0x20 SWAP1 SWAP2 KECCAK256 PUSH1 0x8 SWAP1 SWAP2 MUL ADD PUSH1 0x1 DUP2 ADD SLOAD PUSH1 0x3 DUP3 ADD SLOAD SWAP2 SWAP3 POP PUSH2 0xA13 SWAP2 PUSH6 0x10000000000 SWAP1 SWAP2 DIV PUSH5 0xFFFFFFFFFF AND SWAP1 PUSH1 0x1 PUSH1 0x1 PUSH1 0xB0 SHL SUB AND PUSH2 0xC85 JUMP JUMPDEST PUSH1 0x1 DUP3 ADD SLOAD PUSH1 0x2 DUP4 ADD SLOAD PUSH2 0xA37 SWAP2 PUSH5 0xFFFFFFFFFF AND SWAP1 PUSH1 0x1 PUSH1 0x1 PUSH1 0xB0 SHL SUB AND PUSH2 0xC85 JUMP JUMPDEST PUSH2 0xA41 SWAP2 SWAP1 PUSH2 0xD37 JUMP JUMPDEST PUSH1 0x1 PUSH1 0x1 PUSH1 0xB0 SHL SUB AND SWAP4 SWAP3 POP POP POP JUMP JUMPDEST PUSH2 0xA59 PUSH2 0xAB0 JUMP JUMPDEST PUSH1 0x4 SSTORE JUMP JUMPDEST PUSH2 0xA66 PUSH2 0xAB0 JUMP JUMPDEST PUSH2 0xA70 PUSH1 0x0 PUSH2 0xADD JUMP JUMPDEST JUMP JUMPDEST PUSH2 0xA7A PUSH2 0xAB0 JUMP JUMPDEST PUSH1 0x1 PUSH1 0x1 PUSH1 0xA0 SHL SUB DUP2 AND PUSH2 0xAA4 JUMPI PUSH1 0x40 MLOAD PUSH4 0x1E4FBDF7 PUSH1 0xE0 SHL DUP2 MSTORE PUSH1 0x0 PUSH1 0x4 DUP3 ADD MSTORE PUSH1 0x24 ADD PUSH2 0x400 JUMP JUMPDEST PUSH2 0xAAD DUP2 PUSH2 0xADD JUMP JUMPDEST POP JUMP JUMPDEST PUSH1 0x0 SLOAD PUSH1 0x1 PUSH1 0x1 PUSH1 0xA0 SHL SUB AND CALLER EQ PUSH2 0xA70 JUMPI PUSH1 0x40 MLOAD PUSH4 0x118CDAA7 PUSH1 0xE0 SHL DUP2 MSTORE CALLER PUSH1 0x4 DUP3 ADD MSTORE PUSH1 0x24 ADD PUSH2 0x400 JUMP JUMPDEST PUSH1 0x0 DUP1 SLOAD PUSH1 0x1 PUSH1 0x1 PUSH1 0xA0 SHL SUB DUP4 DUP2 AND PUSH1 0x1 PUSH1 0x1 PUSH1 0xA0 SHL SUB NOT DUP4 AND DUP2 OR DUP5 SSTORE PUSH1 0x40 MLOAD SWAP2 SWAP1 SWAP3 AND SWAP3 DUP4 SWAP2 PUSH32 0x8BE0079C531659141344CD1FD0A4F28419497F9722A3DAAFE3B4186F6B6457E0 SWAP2 SWAP1 LOG3 POP POP JUMP JUMPDEST DUP1 CALLDATALOAD PUSH1 0x1 PUSH1 0x1 PUSH1 0xA0 SHL SUB DUP2 AND DUP2 EQ PUSH2 0xB44 JUMPI PUSH1 0x0 DUP1 REVERT JUMPDEST SWAP2 SWAP1 POP JUMP JUMPDEST PUSH1 0x0 DUP1 PUSH1 0x40 DUP4 DUP6 SUB SLT ISZERO PUSH2 0xB5C JUMPI PUSH1 0x0 DUP1 REVERT JUMPDEST DUP3 CALLDATALOAD SWAP2 POP PUSH2 0xB6C PUSH1 0x20 DUP5 ADD PUSH2 0xB2D JUMP JUMPDEST SWAP1 POP SWAP3 POP SWAP3 SWAP1 POP JUMP JUMPDEST PUSH1 0x0 DUP1 DUP3 DUP5 SUB PUSH2 0x180 DUP2 SLT ISZERO PUSH2 0xB8A JUMPI PUSH1 0x0 DUP1 REVERT JUMPDEST PUSH1 0xE0 DUP2 SLT ISZERO PUSH2 0xB98 JUMPI PUSH1 0x0 DUP1 REVERT JUMPDEST DUP4 SWAP3 POP PUSH1 0xA0 PUSH1 0xDF NOT DUP3 ADD SLT ISZERO PUSH2 0xBAD JUMPI PUSH1 0x0 DUP1 REVERT JUMPDEST POP PUSH1 0xE0 DUP4 ADD SWAP1 POP SWAP3 POP SWAP3 SWAP1 POP JUMP JUMPDEST PUSH1 0x0 PUSH1 0x20 DUP3 DUP5 SUB SLT ISZERO PUSH2 0xBCD JUMPI PUSH1 0x0 DUP1 REVERT JUMPDEST POP CALLDATALOAD SWAP2 SWAP1 POP JUMP JUMPDEST PUSH1 0x0 PUSH1 0x20 DUP3 DUP5 SUB SLT ISZERO PUSH2 0xBE6 JUMPI PUSH1 0x0 DUP1 REVERT JUMPDEST PUSH2 0xBEF DUP3 PUSH2 0xB2D JUMP JUMPDEST SWAP4 SWAP3 POP POP POP JUMP JUMPDEST PUSH4 0x4E487B71 PUSH1 0xE0 SHL PUSH1 0x0 MSTORE PUSH1 0x32 PUSH1 0x4 MSTORE PUSH1 0x24 PUSH1 0x0 REVERT JUMPDEST PUSH1 0x0 PUSH1 0x20 DUP3 DUP5 SUB SLT ISZERO PUSH2 0xC1E JUMPI PUSH1 0x0 DUP1 REVERT JUMPDEST DUP2 CALLDATALOAD PUSH5 0xFFFFFFFFFF DUP2 AND DUP2 EQ PUSH2 0xBEF JUMPI PUSH1 0x0 DUP1 REVERT JUMPDEST PUSH4 0x4E487B71 PUSH1 0xE0 SHL PUSH1 0x0 MSTORE PUSH1 0x11 PUSH1 0x4 MSTORE PUSH1 0x24 PUSH1 0x0 REVERT JUMPDEST DUP2 DUP2 SUB DUP2 DUP2 GT ISZERO PUSH2 0x33C JUMPI PUSH2 0x33C PUSH2 0xC33 JUMP JUMPDEST PUSH1 0x0 PUSH1 0x20 DUP3 DUP5 SUB SLT ISZERO PUSH2 0xC6E JUMPI PUSH1 0x0 DUP1 REVERT JUMPDEST DUP2 CALLDATALOAD PUSH1 0x1 PUSH1 0x1 PUSH1 0xB0 SHL SUB DUP2 AND DUP2 EQ PUSH2 0xBEF JUMPI PUSH1 0x0 DUP1 REVERT JUMPDEST PUSH1 0x1 PUSH1 0x1 PUSH1 0xB0 SHL SUB DUP3 DUP2 AND DUP3 DUP3 AND DUP2 DUP2 MUL DUP4 AND SWAP3 SWAP2 DUP2 ISZERO DUP3 DUP6 DIV DUP3 EQ OR PUSH2 0xCAE JUMPI PUSH2 0xCAE PUSH2 0xC33 JUMP JUMPDEST POP POP POP SWAP3 SWAP2 POP POP JUMP JUMPDEST PUSH1 0x0 PUSH1 0x1 PUSH1 0x1 PUSH1 0xB0 SHL SUB DUP4 DUP2 AND DUP1 PUSH2 0xCDF JUMPI PUSH4 0x4E487B71 PUSH1 0xE0 SHL PUSH1 0x0 MSTORE PUSH1 0x12 PUSH1 0x4 MSTORE PUSH1 0x24 PUSH1 0x0 REVERT JUMPDEST SWAP3 AND SWAP2 SWAP1 SWAP2 DIV SWAP3 SWAP2 POP POP JUMP JUMPDEST PUSH1 0x0 PUSH1 0x20 DUP3 DUP5 SUB SLT ISZERO PUSH2 0xCFD JUMPI PUSH1 0x0 DUP1 REVERT JUMPDEST DUP2 CALLDATALOAD PUSH8 0xFFFFFFFFFFFFFFFF DUP2 AND DUP2 EQ PUSH2 0xBEF JUMPI PUSH1 0x0 DUP1 REVERT JUMPDEST PUSH1 0x0 PUSH1 0x20 DUP3 DUP5 SUB SLT ISZERO PUSH2 0xD27 JUMPI PUSH1 0x0 DUP1 REVERT JUMPDEST DUP2 CALLDATALOAD DUP1 ISZERO ISZERO DUP2 EQ PUSH2 0xBEF JUMPI PUSH1 0x0 DUP1 REVERT JUMPDEST PUSH1 0x1 PUSH1 0x1 PUSH1 0xB0 SHL SUB DUP2 DUP2 AND DUP4 DUP3 AND ADD SWAP1 DUP1 DUP3 GT ISZERO PUSH2 0xD57 JUMPI PUSH2 0xD57 PUSH2 0xC33 JUMP JUMPDEST POP SWAP3 SWAP2 POP POP JUMP INVALID LOG2 PUSH5 0x6970667358 0x22 SLT KECCAK256 ISZERO 0xE5 0xBF 0xD5 KECCAK256 ADD 0xE3 SWAP1 0xE9 0x26 PUSH20 0x48B300DB6012717083241E98AE62A6FD23E69C88 DUP2 PUSH5 0x736F6C6343 STOP ADDMOD SGT STOP CALLER "
		},
		"gasEstimates": {
			"creation": {
				"codeDepositCost": "695200",
				"executionCost": "infinite",
				"totalCost": "infinite"
			},
			"external": {
				"bond()": "2359",
				"createDistribution((bool,uint40,uint40,uint40,uint40,bytes32,bytes32),(address,uint176,uint64,bool,bool))": "infinite",
				"distributions(uint256)": "15794",
				"duration()": "2285",
				"getAmountClaimed(uint256)": "infinite",
				"isBurn(uint256)": "2539",
				"isClaimedCommunity(uint256,address)": "4838",
				"isClaimedKOL(uint256,address)": "4859",
				"owner()": "2419",
				"renounceOwnership()": "infinite",
				"transferOwnership(address)": "28443",
				"updateEndTime(uint256)": "24532"
			}
		},
		"methodIdentifiers": {
			"bond()": "64c9ec6f",
			"createDistribution((bool,uint40,uint40,uint40,uint40,bytes32,bytes32),(address,uint176,uint64,bool,bool))": "363621f2",
			"distributions(uint256)": "4487d3df",
			"duration()": "0fb5a6b4",
			"getAmountClaimed(uint256)": "58c064f2",
			"isBurn(uint256)": "3ce57a3e",
			"isClaimedCommunity(uint256,address)": "11b66177",
			"isClaimedKOL(uint256,address)": "1c0d3e27",
			"owner()": "8da5cb5b",
			"renounceOwnership()": "715018a6",
			"transferOwnership(address)": "f2fde38b",
			"updateEndTime(uint256)": "6ab3846b"
		}
	},
	"abi": [
		{
			"inputs": [
				{
					"internalType": "address",
					"name": "bond_",
					"type": "address"
				},
				{
					"internalType": "address",
					"name": "sender",
					"type": "address"
				}
			],
			"stateMutability": "nonpayable",
			"type": "constructor"
		},
		{
			"inputs": [
				{
					"internalType": "address",
					"name": "owner",
					"type": "address"
				}
			],
			"name": "OwnableInvalidOwner",
			"type": "error"
		},
		{
			"inputs": [
				{
					"internalType": "address",
					"name": "account",
					"type": "address"
				}
			],
			"name": "OwnableUnauthorizedAccount",
			"type": "error"
		},
		{
			"inputs": [],
			"name": "ReentrancyGuardReentrantCall",
			"type": "error"
		},
		{
			"inputs": [],
			"name": "_AlreadyBurn",
			"type": "error"
		},
		{
			"inputs": [],
			"name": "_AlreadyClaimed",
			"type": "error"
		},
		{
			"inputs": [],
			"name": "_CallerNotEOA",
			"type": "error"
		},
		{
			"inputs": [],
			"name": "_Finished",
			"type": "error"
		},
		{
			"inputs": [
				{
					"internalType": "string",
					"name": "param",
					"type": "string"
				}
			],
			"name": "_InvalidParams",
			"type": "error"
		},
		{
			"inputs": [],
			"name": "_NotStarted",
			"type": "error"
		},
		{
			"inputs": [],
			"name": "_NothingToBurn",
			"type": "error"
		},
		{
			"inputs": [],
			"name": "_PermissionDenied",
			"type": "error"
		},
		{
			"inputs": [],
			"name": "_Unfinished",
			"type": "error"
		},
		{
			"inputs": [],
			"name": "_Unqualified",
			"type": "error"
		},
		{
			"anonymous": false,
			"inputs": [
				{
					"indexed": true,
					"internalType": "uint256",
					"name": "distributionId",
					"type": "uint256"
				},
				{
					"indexed": false,
					"internalType": "uint256",
					"name": "amount",
					"type": "uint256"
				}
			],
			"name": "Burned",
			"type": "event"
		},
		{
			"anonymous": false,
			"inputs": [
				{
					"indexed": true,
					"internalType": "uint256",
					"name": "distributionId",
					"type": "uint256"
				},
				{
					"indexed": true,
					"internalType": "address",
					"name": "token",
					"type": "address"
				},
				{
					"indexed": true,
					"internalType": "uint256",
					"name": "amount",
					"type": "uint256"
				},
				{
					"indexed": false,
					"internalType": "address",
					"name": "account",
					"type": "address"
				}
			],
			"name": "Claimed",
			"type": "event"
		},
		{
			"anonymous": false,
			"inputs": [
				{
					"indexed": true,
					"internalType": "uint256",
					"name": "distributionId",
					"type": "uint256"
				},
				{
					"indexed": true,
					"internalType": "address",
					"name": "token",
					"type": "address"
				},
				{
					"indexed": false,
					"internalType": "uint64",
					"name": "startTime",
					"type": "uint64"
				}
			],
			"name": "Created",
			"type": "event"
		},
		{
			"anonymous": false,
			"inputs": [
				{
					"indexed": true,
					"internalType": "address",
					"name": "previousOwner",
					"type": "address"
				},
				{
					"indexed": true,
					"internalType": "address",
					"name": "newOwner",
					"type": "address"
				}
			],
			"name": "OwnershipTransferred",
			"type": "event"
		},
		{
			"inputs": [],
			"name": "bond",
			"outputs": [
				{
					"internalType": "address",
					"name": "",
					"type": "address"
				}
			],
			"stateMutability": "view",
			"type": "function"
		},
		{
			"inputs": [
				{
					"components": [
						{
							"internalType": "bool",
							"name": "isDistribution",
							"type": "bool"
						},
						{
							"internalType": "uint40",
							"name": "distributionRatioKol",
							"type": "uint40"
						},
						{
							"internalType": "uint40",
							"name": "distributionRatioCommunity",
							"type": "uint40"
						},
						{
							"internalType": "uint40",
							"name": "walletCountKol",
							"type": "uint40"
						},
						{
							"internalType": "uint40",
							"name": "walletCountCommunity",
							"type": "uint40"
						},
						{
							"internalType": "bytes32",
							"name": "merkleRootKol",
							"type": "bytes32"
						},
						{
							"internalType": "bytes32",
							"name": "merkleRootCommunity",
							"type": "bytes32"
						}
					],
					"internalType": "struct I_Distributor.DistributionParams",
					"name": "dp",
					"type": "tuple"
				},
				{
					"components": [
						{
							"internalType": "address",
							"name": "token",
							"type": "address"
						},
						{
							"internalType": "uint176",
							"name": "supply",
							"type": "uint176"
						},
						{
							"internalType": "uint64",
							"name": "startTime",
							"type": "uint64"
						},
						{
							"internalType": "bool",
							"name": "isKol",
							"type": "bool"
						},
						{
							"internalType": "bool",
							"name": "isCommunity",
							"type": "bool"
						}
					],
					"internalType": "struct I_Distributor.TokenParam",
					"name": "tp",
					"type": "tuple"
				}
			],
			"name": "createDistribution",
			"outputs": [],
			"stateMutability": "nonpayable",
			"type": "function"
		},
		{
			"inputs": [
				{
					"internalType": "uint256",
					"name": "",
					"type": "uint256"
				}
			],
			"name": "distributions",
			"outputs": [
				{
					"internalType": "address",
					"name": "token",
					"type": "address"
				},
				{
					"internalType": "uint40",
					"name": "walletCountKOL",
					"type": "uint40"
				},
				{
					"internalType": "uint40",
					"name": "walletCountCommunity",
					"type": "uint40"
				},
				{
					"internalType": "uint40",
					"name": "claimedCountKOL",
					"type": "uint40"
				},
				{
					"internalType": "uint40",
					"name": "claimedCountCommunity",
					"type": "uint40"
				},
				{
					"internalType": "uint64",
					"name": "startTime",
					"type": "uint64"
				},
				{
					"internalType": "bool",
					"name": "isKOL",
					"type": "bool"
				},
				{
					"internalType": "bool",
					"name": "isCommunity",
					"type": "bool"
				},
				{
					"internalType": "uint176",
					"name": "amountPerClaimKOL",
					"type": "uint176"
				},
				{
					"internalType": "uint176",
					"name": "amountPerClaimCommunity",
					"type": "uint176"
				},
				{
					"internalType": "bytes32",
					"name": "merkleRootKOL",
					"type": "bytes32"
				},
				{
					"internalType": "bytes32",
					"name": "merkleRootCommunity",
					"type": "bytes32"
				}
			],
			"stateMutability": "view",
			"type": "function"
		},
		{
			"inputs": [],
			"name": "duration",
			"outputs": [
				{
					"internalType": "uint256",
					"name": "",
					"type": "uint256"
				}
			],
			"stateMutability": "view",
			"type": "function"
		},
		{
			"inputs": [
				{
					"internalType": "uint256",
					"name": "distributionId",
					"type": "uint256"
				}
			],
			"name": "getAmountClaimed",
			"outputs": [
				{
					"internalType": "uint256",
					"name": "",
					"type": "uint256"
				}
			],
			"stateMutability": "view",
			"type": "function"
		},
		{
			"inputs": [
				{
					"internalType": "uint256",
					"name": "",
					"type": "uint256"
				}
			],
			"name": "isBurn",
			"outputs": [
				{
					"internalType": "bool",
					"name": "",
					"type": "bool"
				}
			],
			"stateMutability": "view",
			"type": "function"
		},
		{
			"inputs": [
				{
					"internalType": "uint256",
					"name": "distributionId",
					"type": "uint256"
				},
				{
					"internalType": "address",
					"name": "wallet",
					"type": "address"
				}
			],
			"name": "isClaimedCommunity",
			"outputs": [
				{
					"internalType": "bool",
					"name": "",
					"type": "bool"
				}
			],
			"stateMutability": "view",
			"type": "function"
		},
		{
			"inputs": [
				{
					"internalType": "uint256",
					"name": "distributionId",
					"type": "uint256"
				},
				{
					"internalType": "address",
					"name": "wallet",
					"type": "address"
				}
			],
			"name": "isClaimedKOL",
			"outputs": [
				{
					"internalType": "bool",
					"name": "",
					"type": "bool"
				}
			],
			"stateMutability": "view",
			"type": "function"
		},
		{
			"inputs": [],
			"name": "owner",
			"outputs": [
				{
					"internalType": "address",
					"name": "",
					"type": "address"
				}
			],
			"stateMutability": "view",
			"type": "function"
		},
		{
			"inputs": [],
			"name": "renounceOwnership",
			"outputs": [],
			"stateMutability": "nonpayable",
			"type": "function"
		},
		{
			"inputs": [
				{
					"internalType": "address",
					"name": "newOwner",
					"type": "address"
				}
			],
			"name": "transferOwnership",
			"outputs": [],
			"stateMutability": "nonpayable",
			"type": "function"
		},
		{
			"inputs": [
				{
					"internalType": "uint256",
					"name": "timeOfDuration",
					"type": "uint256"
				}
			],
			"name": "updateEndTime",
			"outputs": [],
			"stateMutability": "nonpayable",
			"type": "function"
		},
		{
			"stateMutability": "payable",
			"type": "receive"
		}
	]
}